{
	"contracts/certificates.sol": {
		"Certificate": {
			"abi": [
				{
					"inputs": [],
					"stateMutability": "nonpayable",
					"type": "constructor"
				},
				{
					"inputs": [
						{
							"internalType": "address",
							"name": "_authorizedIssuers",
							"type": "address"
						}
					],
					"name": "addAdmin",
					"outputs": [],
					"stateMutability": "nonpayable",
					"type": "function"
				},
				{
					"inputs": [
						{
							"internalType": "address",
							"name": "viewers",
							"type": "address"
						}
					],
					"name": "addViewer",
					"outputs": [],
					"stateMutability": "nonpayable",
					"type": "function"
				},
				{
					"inputs": [],
					"name": "getCertificate",
					"outputs": [
						{
							"internalType": "string",
							"name": "name",
							"type": "string"
						},
						{
							"internalType": "uint256",
							"name": "studentId",
							"type": "uint256"
						},
						{
							"internalType": "string",
							"name": "faculty",
							"type": "string"
						},
						{
							"internalType": "string",
							"name": "department",
							"type": "string"
						}
					],
					"stateMutability": "view",
					"type": "function"
				},
				{
					"inputs": [
						{
							"internalType": "address",
							"name": "studentAddress",
							"type": "address"
						},
						{
							"internalType": "string",
							"name": "name",
							"type": "string"
						},
						{
							"internalType": "uint256",
							"name": "studentId",
							"type": "uint256"
						},
						{
							"internalType": "string",
							"name": "faculty",
							"type": "string"
						},
						{
							"internalType": "string",
							"name": "department",
							"type": "string"
						}
					],
					"name": "issueCertificate",
					"outputs": [],
					"stateMutability": "nonpayable",
					"type": "function"
				},
				{
					"inputs": [
						{
							"internalType": "address",
							"name": "_authorizedIssuers",
							"type": "address"
						}
					],
					"name": "removeAdmin",
					"outputs": [],
					"stateMutability": "nonpayable",
					"type": "function"
				},
				{
					"inputs": [
						{
							"internalType": "address",
							"name": "studentAddress",
							"type": "address"
						}
					],
					"name": "viewCertificate",
					"outputs": [
						{
							"internalType": "string",
							"name": "name",
							"type": "string"
						},
						{
							"internalType": "uint256",
							"name": "studentId",
							"type": "uint256"
						},
						{
							"internalType": "string",
							"name": "faculty",
							"type": "string"
						},
						{
							"internalType": "string",
							"name": "department",
							"type": "string"
						}
					],
					"stateMutability": "view",
					"type": "function"
				}
			],
			"devdoc": {
				"kind": "dev",
				"methods": {},
				"version": 1
			},
			"evm": {
				"assembly": "    /* \"contracts/certificates.sol\":61:4858  contract Certificate {... */\n  mstore(0x40, 0x80)\n    /* \"contracts/certificates.sol\":1014:1124  constructor() {... */\n  callvalue\n  dup1\n  iszero\n  tag_1\n  jumpi\n  0x00\n  dup1\n  revert\ntag_1:\n  pop\n    /* \"contracts/certificates.sol\":1071:1075  true */\n  0x01\n    /* \"contracts/certificates.sol\":1039:1056  authorizedIssuers */\n  0x00\n    /* \"contracts/certificates.sol\":1039:1068  authorizedIssuers[msg.sender] */\n  dup1\n    /* \"contracts/certificates.sol\":1057:1067  msg.sender */\n  caller\n    /* \"contracts/certificates.sol\":1039:1068  authorizedIssuers[msg.sender] */\n  0xffffffffffffffffffffffffffffffffffffffff\n  and\n  0xffffffffffffffffffffffffffffffffffffffff\n  and\n  dup2\n  mstore\n  0x20\n  add\n  swap1\n  dup2\n  mstore\n  0x20\n  add\n  0x00\n  keccak256\n  0x00\n    /* \"contracts/certificates.sol\":1039:1075  authorizedIssuers[msg.sender] = true */\n  0x0100\n  exp\n  dup2\n  sload\n  dup2\n  0xff\n  mul\n  not\n  and\n  swap1\n  dup4\n  iszero\n  iszero\n  mul\n  or\n  swap1\n  sstore\n  pop\n    /* \"contracts/certificates.sol\":61:4858  contract Certificate {... */\n  dataSize(sub_0)\n  dup1\n  dataOffset(sub_0)\n  0x00\n  codecopy\n  0x00\n  return\nstop\n\nsub_0: assembly {\n        /* \"contracts/certificates.sol\":61:4858  contract Certificate {... */\n      mstore(0x40, 0x80)\n      callvalue\n      dup1\n      iszero\n      tag_1\n      jumpi\n      0x00\n      dup1\n      revert\n    tag_1:\n      pop\n      jumpi(tag_2, lt(calldatasize, 0x04))\n      shr(0xe0, calldataload(0x00))\n      dup1\n      0x1785f53c\n      eq\n      tag_3\n      jumpi\n      dup1\n      0x601f8cf5\n      eq\n      tag_4\n      jumpi\n      dup1\n      0x64dbbaa2\n      eq\n      tag_5\n      jumpi\n      dup1\n      0x70480275\n      eq\n      tag_6\n      jumpi\n      dup1\n      0xae15eb8e\n      eq\n      tag_7\n      jumpi\n      dup1\n      0xe8f50a67\n      eq\n      tag_8\n      jumpi\n    tag_2:\n      0x00\n      dup1\n      revert\n        /* \"contracts/certificates.sol\":2039:2182  function removeAdmin(address _authorizedIssuers) external onlyAuthorizedIssuer {... */\n    tag_3:\n      tag_9\n      0x04\n      dup1\n      calldatasize\n      sub\n      dup2\n      add\n      swap1\n      tag_10\n      swap2\n      swap1\n      tag_11\n      jump\t// in\n    tag_10:\n      tag_12\n      jump\t// in\n    tag_9:\n      stop\n        /* \"contracts/certificates.sol\":2369:2478  function addViewer(address viewers) external onlyStudent {... */\n    tag_4:\n      tag_13\n      0x04\n      dup1\n      calldatasize\n      sub\n      dup2\n      add\n      swap1\n      tag_14\n      swap2\n      swap1\n      tag_11\n      jump\t// in\n    tag_14:\n      tag_15\n      jump\t// in\n    tag_13:\n      stop\n        /* \"contracts/certificates.sol\":4385:4855  function viewCertificate(address studentAddress) public view onlyAuthorizedViewer returns (... */\n    tag_5:\n      tag_16\n      0x04\n      dup1\n      calldatasize\n      sub\n      dup2\n      add\n      swap1\n      tag_17\n      swap2\n      swap1\n      tag_11\n      jump\t// in\n    tag_17:\n      tag_18\n      jump\t// in\n    tag_16:\n      mload(0x40)\n      tag_19\n      swap5\n      swap4\n      swap3\n      swap2\n      swap1\n      tag_20\n      jump\t// in\n    tag_19:\n      mload(0x40)\n      dup1\n      swap2\n      sub\n      swap1\n      return\n        /* \"contracts/certificates.sol\":1742:1881  function addAdmin(address _authorizedIssuers) external onlyAuthorizedIssuer {... */\n    tag_6:\n      tag_21\n      0x04\n      dup1\n      calldatasize\n      sub\n      dup2\n      add\n      swap1\n      tag_22\n      swap2\n      swap1\n      tag_11\n      jump\t// in\n    tag_22:\n      tag_23\n      jump\t// in\n    tag_21:\n      stop\n        /* \"contracts/certificates.sol\":3766:4227  function getCertificate() public view returns (... */\n    tag_7:\n      tag_24\n      tag_25\n      jump\t// in\n    tag_24:\n      mload(0x40)\n      tag_26\n      swap5\n      swap4\n      swap3\n      swap2\n      swap1\n      tag_20\n      jump\t// in\n    tag_26:\n      mload(0x40)\n      dup1\n      swap2\n      sub\n      swap1\n      return\n        /* \"contracts/certificates.sol\":2995:3644  function issueCertificate(... */\n    tag_8:\n      tag_27\n      0x04\n      dup1\n      calldatasize\n      sub\n      dup2\n      add\n      swap1\n      tag_28\n      swap2\n      swap1\n      tag_29\n      jump\t// in\n    tag_28:\n      tag_30\n      jump\t// in\n    tag_27:\n      stop\n        /* \"contracts/certificates.sol\":2039:2182  function removeAdmin(address _authorizedIssuers) external onlyAuthorizedIssuer {... */\n    tag_12:\n        /* \"contracts/certificates.sol\":1183:1200  authorizedIssuers */\n      0x00\n        /* \"contracts/certificates.sol\":1183:1212  authorizedIssuers[msg.sender] */\n      dup1\n        /* \"contracts/certificates.sol\":1201:1211  msg.sender */\n      caller\n        /* \"contracts/certificates.sol\":1183:1212  authorizedIssuers[msg.sender] */\n      0xffffffffffffffffffffffffffffffffffffffff\n      and\n      0xffffffffffffffffffffffffffffffffffffffff\n      and\n      dup2\n      mstore\n      0x20\n      add\n      swap1\n      dup2\n      mstore\n      0x20\n      add\n      0x00\n      keccak256\n      0x00\n      swap1\n      sload\n      swap1\n      0x0100\n      exp\n      swap1\n      div\n      0xff\n      and\n        /* \"contracts/certificates.sol\":1175:1263  require(authorizedIssuers[msg.sender], \"Only authorized issuers can call this function\") */\n      tag_32\n      jumpi\n      mload(0x40)\n      0x08c379a000000000000000000000000000000000000000000000000000000000\n      dup2\n      mstore\n      0x04\n      add\n      tag_33\n      swap1\n      tag_34\n      jump\t// in\n    tag_33:\n      mload(0x40)\n      dup1\n      swap2\n      sub\n      swap1\n      revert\n    tag_32:\n        /* \"contracts/certificates.sol\":2169:2174  false */\n      0x00\n        /* \"contracts/certificates.sol\":2129:2146  authorizedIssuers */\n      dup1\n        /* \"contracts/certificates.sol\":2129:2166  authorizedIssuers[_authorizedIssuers] */\n      0x00\n        /* \"contracts/certificates.sol\":2147:2165  _authorizedIssuers */\n      dup4\n        /* \"contracts/certificates.sol\":2129:2166  authorizedIssuers[_authorizedIssuers] */\n      0xffffffffffffffffffffffffffffffffffffffff\n      and\n      0xffffffffffffffffffffffffffffffffffffffff\n      and\n      dup2\n      mstore\n      0x20\n      add\n      swap1\n      dup2\n      mstore\n      0x20\n      add\n      0x00\n      keccak256\n      0x00\n        /* \"contracts/certificates.sol\":2129:2174  authorizedIssuers[_authorizedIssuers] = false */\n      0x0100\n      exp\n      dup2\n      sload\n      dup2\n      0xff\n      mul\n      not\n      and\n      swap1\n      dup4\n      iszero\n      iszero\n      mul\n      or\n      swap1\n      sstore\n      pop\n        /* \"contracts/certificates.sol\":2039:2182  function removeAdmin(address _authorizedIssuers) external onlyAuthorizedIssuer {... */\n      pop\n      jump\t// out\n        /* \"contracts/certificates.sol\":2369:2478  function addViewer(address viewers) external onlyStudent {... */\n    tag_15:\n        /* \"contracts/certificates.sol\":1492:1509  authorizedStudent */\n      0x02\n        /* \"contracts/certificates.sol\":1492:1521  authorizedStudent[msg.sender] */\n      0x00\n        /* \"contracts/certificates.sol\":1510:1520  msg.sender */\n      caller\n        /* \"contracts/certificates.sol\":1492:1521  authorizedStudent[msg.sender] */\n      0xffffffffffffffffffffffffffffffffffffffff\n      and\n      0xffffffffffffffffffffffffffffffffffffffff\n      and\n      dup2\n      mstore\n      0x20\n      add\n      swap1\n      dup2\n      mstore\n      0x20\n      add\n      0x00\n      keccak256\n      0x00\n      swap1\n      sload\n      swap1\n      0x0100\n      exp\n      swap1\n      div\n      0xff\n      and\n        /* \"contracts/certificates.sol\":1484:1561  require(authorizedStudent[msg.sender], \"Only student can call this function\") */\n      tag_37\n      jumpi\n      mload(0x40)\n      0x08c379a000000000000000000000000000000000000000000000000000000000\n      dup2\n      mstore\n      0x04\n      add\n      tag_38\n      swap1\n      tag_39\n      jump\t// in\n    tag_38:\n      mload(0x40)\n      dup1\n      swap2\n      sub\n      swap1\n      revert\n    tag_37:\n        /* \"contracts/certificates.sol\":2466:2470  true */\n      0x01\n        /* \"contracts/certificates.sol\":2437:2454  authorizedViewers */\n      dup1\n        /* \"contracts/certificates.sol\":2437:2463  authorizedViewers[viewers] */\n      0x00\n        /* \"contracts/certificates.sol\":2455:2462  viewers */\n      dup4\n        /* \"contracts/certificates.sol\":2437:2463  authorizedViewers[viewers] */\n      0xffffffffffffffffffffffffffffffffffffffff\n      and\n      0xffffffffffffffffffffffffffffffffffffffff\n      and\n      dup2\n      mstore\n      0x20\n      add\n      swap1\n      dup2\n      mstore\n      0x20\n      add\n      0x00\n      keccak256\n      0x00\n        /* \"contracts/certificates.sol\":2437:2470  authorizedViewers[viewers] = true */\n      0x0100\n      exp\n      dup2\n      sload\n      dup2\n      0xff\n      mul\n      not\n      and\n      swap1\n      dup4\n      iszero\n      iszero\n      mul\n      or\n      swap1\n      sstore\n      pop\n        /* \"contracts/certificates.sol\":2369:2478  function addViewer(address viewers) external onlyStudent {... */\n      pop\n      jump\t// out\n        /* \"contracts/certificates.sol\":4385:4855  function viewCertificate(address studentAddress) public view onlyAuthorizedViewer returns (... */\n    tag_18:\n        /* \"contracts/certificates.sol\":4486:4504  string memory name */\n      0x60\n        /* \"contracts/certificates.sol\":4515:4532  uint256 studentId */\n      0x00\n        /* \"contracts/certificates.sol\":4543:4564  string memory faculty */\n      0x60\n        /* \"contracts/certificates.sol\":4575:4599  string memory department */\n      dup1\n        /* \"contracts/certificates.sol\":1342:1359  authorizedViewers */\n      0x01\n        /* \"contracts/certificates.sol\":1342:1371  authorizedViewers[msg.sender] */\n      0x00\n        /* \"contracts/certificates.sol\":1360:1370  msg.sender */\n      caller\n        /* \"contracts/certificates.sol\":1342:1371  authorizedViewers[msg.sender] */\n      0xffffffffffffffffffffffffffffffffffffffff\n      and\n      0xffffffffffffffffffffffffffffffffffffffff\n      and\n      dup2\n      mstore\n      0x20\n      add\n      swap1\n      dup2\n      mstore\n      0x20\n      add\n      0x00\n      keccak256\n      0x00\n      swap1\n      sload\n      swap1\n      0x0100\n      exp\n      swap1\n      div\n      0xff\n      and\n        /* \"contracts/certificates.sol\":1334:1422  require(authorizedViewers[msg.sender], \"Only authorized viewers can call this function\") */\n      tag_42\n      jumpi\n      mload(0x40)\n      0x08c379a000000000000000000000000000000000000000000000000000000000\n      dup2\n      mstore\n      0x04\n      add\n      tag_43\n      swap1\n      tag_44\n      jump\t// in\n    tag_43:\n      mload(0x40)\n      dup1\n      swap2\n      sub\n      swap1\n      revert\n    tag_42:\n        /* \"contracts/certificates.sol\":4626:4643  authorizedStudent */\n      0x02\n        /* \"contracts/certificates.sol\":4626:4659  authorizedStudent[studentAddress] */\n      0x00\n        /* \"contracts/certificates.sol\":4644:4658  studentAddress */\n      dup7\n        /* \"contracts/certificates.sol\":4626:4659  authorizedStudent[studentAddress] */\n      0xffffffffffffffffffffffffffffffffffffffff\n      and\n      0xffffffffffffffffffffffffffffffffffffffff\n      and\n      dup2\n      mstore\n      0x20\n      add\n      swap1\n      dup2\n      mstore\n      0x20\n      add\n      0x00\n      keccak256\n      0x00\n      swap1\n      sload\n      swap1\n      0x0100\n      exp\n      swap1\n      div\n      0xff\n      and\n        /* \"contracts/certificates.sol\":4618:4698  require(authorizedStudent[studentAddress], \"Student not found or unauthorized.\") */\n      tag_46\n      jumpi\n      mload(0x40)\n      0x08c379a000000000000000000000000000000000000000000000000000000000\n      dup2\n      mstore\n      0x04\n      add\n      tag_47\n      swap1\n      tag_48\n      jump\t// in\n    tag_47:\n      mload(0x40)\n      dup1\n      swap2\n      sub\n      swap1\n      revert\n    tag_46:\n        /* \"contracts/certificates.sol\":4709:4732  Student storage student */\n      0x00\n        /* \"contracts/certificates.sol\":4735:4743  students */\n      0x03\n        /* \"contracts/certificates.sol\":4735:4759  students[studentAddress] */\n      0x00\n        /* \"contracts/certificates.sol\":4744:4758  studentAddress */\n      dup8\n        /* \"contracts/certificates.sol\":4735:4759  students[studentAddress] */\n      0xffffffffffffffffffffffffffffffffffffffff\n      and\n      0xffffffffffffffffffffffffffffffffffffffff\n      and\n      dup2\n      mstore\n      0x20\n      add\n      swap1\n      dup2\n      mstore\n      0x20\n      add\n      0x00\n      keccak256\n        /* \"contracts/certificates.sol\":4709:4759  Student storage student = students[studentAddress] */\n      swap1\n      pop\n        /* \"contracts/certificates.sol\":4778:4785  student */\n      dup1\n        /* \"contracts/certificates.sol\":4778:4790  student.name */\n      0x00\n      add\n        /* \"contracts/certificates.sol\":4792:4799  student */\n      dup2\n        /* \"contracts/certificates.sol\":4792:4809  student.studentId */\n      0x01\n      add\n      sload\n        /* \"contracts/certificates.sol\":4811:4818  student */\n      dup3\n        /* \"contracts/certificates.sol\":4811:4826  student.faculty */\n      0x02\n      add\n        /* \"contracts/certificates.sol\":4828:4835  student */\n      dup4\n        /* \"contracts/certificates.sol\":4828:4846  student.department */\n      0x03\n      add\n        /* \"contracts/certificates.sol\":4770:4847  return (student.name, student.studentId, student.faculty, student.department) */\n      dup4\n      dup1\n      sload\n      tag_49\n      swap1\n      tag_50\n      jump\t// in\n    tag_49:\n      dup1\n      0x1f\n      add\n      0x20\n      dup1\n      swap2\n      div\n      mul\n      0x20\n      add\n      mload(0x40)\n      swap1\n      dup2\n      add\n      0x40\n      mstore\n      dup1\n      swap3\n      swap2\n      swap1\n      dup2\n      dup2\n      mstore\n      0x20\n      add\n      dup3\n      dup1\n      sload\n      tag_51\n      swap1\n      tag_50\n      jump\t// in\n    tag_51:\n      dup1\n      iszero\n      tag_52\n      jumpi\n      dup1\n      0x1f\n      lt\n      tag_53\n      jumpi\n      0x0100\n      dup1\n      dup4\n      sload\n      div\n      mul\n      dup4\n      mstore\n      swap2\n      0x20\n      add\n      swap2\n      jump(tag_52)\n    tag_53:\n      dup3\n      add\n      swap2\n      swap1\n      0x00\n      mstore\n      keccak256(0x00, 0x20)\n      swap1\n    tag_54:\n      dup2\n      sload\n      dup2\n      mstore\n      swap1\n      0x01\n      add\n      swap1\n      0x20\n      add\n      dup1\n      dup4\n      gt\n      tag_54\n      jumpi\n      dup3\n      swap1\n      sub\n      0x1f\n      and\n      dup3\n      add\n      swap2\n    tag_52:\n      pop\n      pop\n      pop\n      pop\n      pop\n      swap4\n      pop\n      dup2\n      dup1\n      sload\n      tag_55\n      swap1\n      tag_50\n      jump\t// in\n    tag_55:\n      dup1\n      0x1f\n      add\n      0x20\n      dup1\n      swap2\n      div\n      mul\n      0x20\n      add\n      mload(0x40)\n      swap1\n      dup2\n      add\n      0x40\n      mstore\n      dup1\n      swap3\n      swap2\n      swap1\n      dup2\n      dup2\n      mstore\n      0x20\n      add\n      dup3\n      dup1\n      sload\n      tag_56\n      swap1\n      tag_50\n      jump\t// in\n    tag_56:\n      dup1\n      iszero\n      tag_57\n      jumpi\n      dup1\n      0x1f\n      lt\n      tag_58\n      jumpi\n      0x0100\n      dup1\n      dup4\n      sload\n      div\n      mul\n      dup4\n      mstore\n      swap2\n      0x20\n      add\n      swap2\n      jump(tag_57)\n    tag_58:\n      dup3\n      add\n      swap2\n      swap1\n      0x00\n      mstore\n      keccak256(0x00, 0x20)\n      swap1\n    tag_59:\n      dup2\n      sload\n      dup2\n      mstore\n      swap1\n      0x01\n      add\n      swap1\n      0x20\n      add\n      dup1\n      dup4\n      gt\n      tag_59\n      jumpi\n      dup3\n      swap1\n      sub\n      0x1f\n      and\n      dup3\n      add\n      swap2\n    tag_57:\n      pop\n      pop\n      pop\n      pop\n      pop\n      swap2\n      pop\n      dup1\n      dup1\n      sload\n      tag_60\n      swap1\n      tag_50\n      jump\t// in\n    tag_60:\n      dup1\n      0x1f\n      add\n      0x20\n      dup1\n      swap2\n      div\n      mul\n      0x20\n      add\n      mload(0x40)\n      swap1\n      dup2\n      add\n      0x40\n      mstore\n      dup1\n      swap3\n      swap2\n      swap1\n      dup2\n      dup2\n      mstore\n      0x20\n      add\n      dup3\n      dup1\n      sload\n      tag_61\n      swap1\n      tag_50\n      jump\t// in\n    tag_61:\n      dup1\n      iszero\n      tag_62\n      jumpi\n      dup1\n      0x1f\n      lt\n      tag_63\n      jumpi\n      0x0100\n      dup1\n      dup4\n      sload\n      div\n      mul\n      dup4\n      mstore\n      swap2\n      0x20\n      add\n      swap2\n      jump(tag_62)\n    tag_63:\n      dup3\n      add\n      swap2\n      swap1\n      0x00\n      mstore\n      keccak256(0x00, 0x20)\n      swap1\n    tag_64:\n      dup2\n      sload\n      dup2\n      mstore\n      swap1\n      0x01\n      add\n      swap1\n      0x20\n      add\n      dup1\n      dup4\n      gt\n      tag_64\n      jumpi\n      dup3\n      swap1\n      sub\n      0x1f\n      and\n      dup3\n      add\n      swap2\n    tag_62:\n      pop\n      pop\n      pop\n      pop\n      pop\n      swap1\n      pop\n      swap5\n      pop\n      swap5\n      pop\n      swap5\n      pop\n      swap5\n      pop\n      pop\n        /* \"contracts/certificates.sol\":4385:4855  function viewCertificate(address studentAddress) public view onlyAuthorizedViewer returns (... */\n      swap2\n      swap4\n      pop\n      swap2\n      swap4\n      jump\t// out\n        /* \"contracts/certificates.sol\":1742:1881  function addAdmin(address _authorizedIssuers) external onlyAuthorizedIssuer {... */\n    tag_23:\n        /* \"contracts/certificates.sol\":1183:1200  authorizedIssuers */\n      0x00\n        /* \"contracts/certificates.sol\":1183:1212  authorizedIssuers[msg.sender] */\n      dup1\n        /* \"contracts/certificates.sol\":1201:1211  msg.sender */\n      caller\n        /* \"contracts/certificates.sol\":1183:1212  authorizedIssuers[msg.sender] */\n      0xffffffffffffffffffffffffffffffffffffffff\n      and\n      0xffffffffffffffffffffffffffffffffffffffff\n      and\n      dup2\n      mstore\n      0x20\n      add\n      swap1\n      dup2\n      mstore\n      0x20\n      add\n      0x00\n      keccak256\n      0x00\n      swap1\n      sload\n      swap1\n      0x0100\n      exp\n      swap1\n      div\n      0xff\n      and\n        /* \"contracts/certificates.sol\":1175:1263  require(authorizedIssuers[msg.sender], \"Only authorized issuers can call this function\") */\n      tag_66\n      jumpi\n      mload(0x40)\n      0x08c379a000000000000000000000000000000000000000000000000000000000\n      dup2\n      mstore\n      0x04\n      add\n      tag_67\n      swap1\n      tag_34\n      jump\t// in\n    tag_67:\n      mload(0x40)\n      dup1\n      swap2\n      sub\n      swap1\n      revert\n    tag_66:\n        /* \"contracts/certificates.sol\":1869:1873  true */\n      0x01\n        /* \"contracts/certificates.sol\":1829:1846  authorizedIssuers */\n      0x00\n        /* \"contracts/certificates.sol\":1829:1866  authorizedIssuers[_authorizedIssuers] */\n      dup1\n        /* \"contracts/certificates.sol\":1847:1865  _authorizedIssuers */\n      dup4\n        /* \"contracts/certificates.sol\":1829:1866  authorizedIssuers[_authorizedIssuers] */\n      0xffffffffffffffffffffffffffffffffffffffff\n      and\n      0xffffffffffffffffffffffffffffffffffffffff\n      and\n      dup2\n      mstore\n      0x20\n      add\n      swap1\n      dup2\n      mstore\n      0x20\n      add\n      0x00\n      keccak256\n      0x00\n        /* \"contracts/certificates.sol\":1829:1873  authorizedIssuers[_authorizedIssuers] = true */\n      0x0100\n      exp\n      dup2\n      sload\n      dup2\n      0xff\n      mul\n      not\n      and\n      swap1\n      dup4\n      iszero\n      iszero\n      mul\n      or\n      swap1\n      sstore\n      pop\n        /* \"contracts/certificates.sol\":1742:1881  function addAdmin(address _authorizedIssuers) external onlyAuthorizedIssuer {... */\n      pop\n      jump\t// out\n        /* \"contracts/certificates.sol\":3766:4227  function getCertificate() public view returns (... */\n    tag_25:\n        /* \"contracts/certificates.sol\":3823:3841  string memory name */\n      0x60\n        /* \"contracts/certificates.sol\":3852:3869  uint256 studentId */\n      0x00\n        /* \"contracts/certificates.sol\":3880:3901  string memory faculty */\n      0x60\n        /* \"contracts/certificates.sol\":3912:3936  string memory department */\n      dup1\n        /* \"contracts/certificates.sol\":3963:3980  authorizedStudent */\n      0x02\n        /* \"contracts/certificates.sol\":3963:3992  authorizedStudent[msg.sender] */\n      0x00\n        /* \"contracts/certificates.sol\":3981:3991  msg.sender */\n      caller\n        /* \"contracts/certificates.sol\":3963:3992  authorizedStudent[msg.sender] */\n      0xffffffffffffffffffffffffffffffffffffffff\n      and\n      0xffffffffffffffffffffffffffffffffffffffff\n      and\n      dup2\n      mstore\n      0x20\n      add\n      swap1\n      dup2\n      mstore\n      0x20\n      add\n      0x00\n      keccak256\n      0x00\n      swap1\n      sload\n      swap1\n      0x0100\n      exp\n      swap1\n      div\n      0xff\n      and\n        /* \"contracts/certificates.sol\":3963:4025  authorizedStudent[msg.sender] || authorizedIssuers[msg.sender] */\n      dup1\n      tag_70\n      jumpi\n      pop\n        /* \"contracts/certificates.sol\":3996:4013  authorizedIssuers */\n      0x00\n        /* \"contracts/certificates.sol\":3996:4025  authorizedIssuers[msg.sender] */\n      dup1\n        /* \"contracts/certificates.sol\":4014:4024  msg.sender */\n      caller\n        /* \"contracts/certificates.sol\":3996:4025  authorizedIssuers[msg.sender] */\n      0xffffffffffffffffffffffffffffffffffffffff\n      and\n      0xffffffffffffffffffffffffffffffffffffffff\n      and\n      dup2\n      mstore\n      0x20\n      add\n      swap1\n      dup2\n      mstore\n      0x20\n      add\n      0x00\n      keccak256\n      0x00\n      swap1\n      sload\n      swap1\n      0x0100\n      exp\n      swap1\n      div\n      0xff\n      and\n        /* \"contracts/certificates.sol\":3963:4025  authorizedStudent[msg.sender] || authorizedIssuers[msg.sender] */\n    tag_70:\n        /* \"contracts/certificates.sol\":3955:4075  require(authorizedStudent[msg.sender] || authorizedIssuers[msg.sender] , \"You are not authorized to run this function.\") */\n      tag_71\n      jumpi\n      mload(0x40)\n      0x08c379a000000000000000000000000000000000000000000000000000000000\n      dup2\n      mstore\n      0x04\n      add\n      tag_72\n      swap1\n      tag_73\n      jump\t// in\n    tag_72:\n      mload(0x40)\n      dup1\n      swap2\n      sub\n      swap1\n      revert\n    tag_71:\n        /* \"contracts/certificates.sol\":4086:4109  Student storage student */\n      0x00\n        /* \"contracts/certificates.sol\":4112:4120  students */\n      0x03\n        /* \"contracts/certificates.sol\":4112:4132  students[msg.sender] */\n      0x00\n        /* \"contracts/certificates.sol\":4121:4131  msg.sender */\n      caller\n        /* \"contracts/certificates.sol\":4112:4132  students[msg.sender] */\n      0xffffffffffffffffffffffffffffffffffffffff\n      and\n      0xffffffffffffffffffffffffffffffffffffffff\n      and\n      dup2\n      mstore\n      0x20\n      add\n      swap1\n      dup2\n      mstore\n      0x20\n      add\n      0x00\n      keccak256\n        /* \"contracts/certificates.sol\":4086:4132  Student storage student = students[msg.sender] */\n      swap1\n      pop\n        /* \"contracts/certificates.sol\":4150:4157  student */\n      dup1\n        /* \"contracts/certificates.sol\":4150:4162  student.name */\n      0x00\n      add\n        /* \"contracts/certificates.sol\":4164:4171  student */\n      dup2\n        /* \"contracts/certificates.sol\":4164:4181  student.studentId */\n      0x01\n      add\n      sload\n        /* \"contracts/certificates.sol\":4183:4190  student */\n      dup3\n        /* \"contracts/certificates.sol\":4183:4198  student.faculty */\n      0x02\n      add\n        /* \"contracts/certificates.sol\":4200:4207  student */\n      dup4\n        /* \"contracts/certificates.sol\":4200:4218  student.department */\n      0x03\n      add\n        /* \"contracts/certificates.sol\":4143:4219  return(student.name, student.studentId, student.faculty, student.department) */\n      dup4\n      dup1\n      sload\n      tag_74\n      swap1\n      tag_50\n      jump\t// in\n    tag_74:\n      dup1\n      0x1f\n      add\n      0x20\n      dup1\n      swap2\n      div\n      mul\n      0x20\n      add\n      mload(0x40)\n      swap1\n      dup2\n      add\n      0x40\n      mstore\n      dup1\n      swap3\n      swap2\n      swap1\n      dup2\n      dup2\n      mstore\n      0x20\n      add\n      dup3\n      dup1\n      sload\n      tag_75\n      swap1\n      tag_50\n      jump\t// in\n    tag_75:\n      dup1\n      iszero\n      tag_76\n      jumpi\n      dup1\n      0x1f\n      lt\n      tag_77\n      jumpi\n      0x0100\n      dup1\n      dup4\n      sload\n      div\n      mul\n      dup4\n      mstore\n      swap2\n      0x20\n      add\n      swap2\n      jump(tag_76)\n    tag_77:\n      dup3\n      add\n      swap2\n      swap1\n      0x00\n      mstore\n      keccak256(0x00, 0x20)\n      swap1\n    tag_78:\n      dup2\n      sload\n      dup2\n      mstore\n      swap1\n      0x01\n      add\n      swap1\n      0x20\n      add\n      dup1\n      dup4\n      gt\n      tag_78\n      jumpi\n      dup3\n      swap1\n      sub\n      0x1f\n      and\n      dup3\n      add\n      swap2\n    tag_76:\n      pop\n      pop\n      pop\n      pop\n      pop\n      swap4\n      pop\n      dup2\n      dup1\n      sload\n      tag_79\n      swap1\n      tag_50\n      jump\t// in\n    tag_79:\n      dup1\n      0x1f\n      add\n      0x20\n      dup1\n      swap2\n      div\n      mul\n      0x20\n      add\n      mload(0x40)\n      swap1\n      dup2\n      add\n      0x40\n      mstore\n      dup1\n      swap3\n      swap2\n      swap1\n      dup2\n      dup2\n      mstore\n      0x20\n      add\n      dup3\n      dup1\n      sload\n      tag_80\n      swap1\n      tag_50\n      jump\t// in\n    tag_80:\n      dup1\n      iszero\n      tag_81\n      jumpi\n      dup1\n      0x1f\n      lt\n      tag_82\n      jumpi\n      0x0100\n      dup1\n      dup4\n      sload\n      div\n      mul\n      dup4\n      mstore\n      swap2\n      0x20\n      add\n      swap2\n      jump(tag_81)\n    tag_82:\n      dup3\n      add\n      swap2\n      swap1\n      0x00\n      mstore\n      keccak256(0x00, 0x20)\n      swap1\n    tag_83:\n      dup2\n      sload\n      dup2\n      mstore\n      swap1\n      0x01\n      add\n      swap1\n      0x20\n      add\n      dup1\n      dup4\n      gt\n      tag_83\n      jumpi\n      dup3\n      swap1\n      sub\n      0x1f\n      and\n      dup3\n      add\n      swap2\n    tag_81:\n      pop\n      pop\n      pop\n      pop\n      pop\n      swap2\n      pop\n      dup1\n      dup1\n      sload\n      tag_84\n      swap1\n      tag_50\n      jump\t// in\n    tag_84:\n      dup1\n      0x1f\n      add\n      0x20\n      dup1\n      swap2\n      div\n      mul\n      0x20\n      add\n      mload(0x40)\n      swap1\n      dup2\n      add\n      0x40\n      mstore\n      dup1\n      swap3\n      swap2\n      swap1\n      dup2\n      dup2\n      mstore\n      0x20\n      add\n      dup3\n      dup1\n      sload\n      tag_85\n      swap1\n      tag_50\n      jump\t// in\n    tag_85:\n      dup1\n      iszero\n      tag_86\n      jumpi\n      dup1\n      0x1f\n      lt\n      tag_87\n      jumpi\n      0x0100\n      dup1\n      dup4\n      sload\n      div\n      mul\n      dup4\n      mstore\n      swap2\n      0x20\n      add\n      swap2\n      jump(tag_86)\n    tag_87:\n      dup3\n      add\n      swap2\n      swap1\n      0x00\n      mstore\n      keccak256(0x00, 0x20)\n      swap1\n    tag_88:\n      dup2\n      sload\n      dup2\n      mstore\n      swap1\n      0x01\n      add\n      swap1\n      0x20\n      add\n      dup1\n      dup4\n      gt\n      tag_88\n      jumpi\n      dup3\n      swap1\n      sub\n      0x1f\n      and\n      dup3\n      add\n      swap2\n    tag_86:\n      pop\n      pop\n      pop\n      pop\n      pop\n      swap1\n      pop\n      swap5\n      pop\n      swap5\n      pop\n      swap5\n      pop\n      swap5\n      pop\n      pop\n        /* \"contracts/certificates.sol\":3766:4227  function getCertificate() public view returns (... */\n      swap1\n      swap2\n      swap3\n      swap4\n      jump\t// out\n        /* \"contracts/certificates.sol\":2995:3644  function issueCertificate(... */\n    tag_30:\n        /* \"contracts/certificates.sol\":1183:1200  authorizedIssuers */\n      0x00\n        /* \"contracts/certificates.sol\":1183:1212  authorizedIssuers[msg.sender] */\n      dup1\n        /* \"contracts/certificates.sol\":1201:1211  msg.sender */\n      caller\n        /* \"contracts/certificates.sol\":1183:1212  authorizedIssuers[msg.sender] */\n      0xffffffffffffffffffffffffffffffffffffffff\n      and\n      0xffffffffffffffffffffffffffffffffffffffff\n      and\n      dup2\n      mstore\n      0x20\n      add\n      swap1\n      dup2\n      mstore\n      0x20\n      add\n      0x00\n      keccak256\n      0x00\n      swap1\n      sload\n      swap1\n      0x0100\n      exp\n      swap1\n      div\n      0xff\n      and\n        /* \"contracts/certificates.sol\":1175:1263  require(authorizedIssuers[msg.sender], \"Only authorized issuers can call this function\") */\n      tag_90\n      jumpi\n      mload(0x40)\n      0x08c379a000000000000000000000000000000000000000000000000000000000\n      dup2\n      mstore\n      0x04\n      add\n      tag_91\n      swap1\n      tag_34\n      jump\t// in\n    tag_91:\n      mload(0x40)\n      dup1\n      swap2\n      sub\n      swap1\n      revert\n    tag_90:\n        /* \"contracts/certificates.sol\":3263:3267  true */\n      0x01\n        /* \"contracts/certificates.sol\":3227:3244  authorizedStudent */\n      0x02\n        /* \"contracts/certificates.sol\":3227:3260  authorizedStudent[studentAddress] */\n      0x00\n        /* \"contracts/certificates.sol\":3245:3259  studentAddress */\n      dup8\n        /* \"contracts/certificates.sol\":3227:3260  authorizedStudent[studentAddress] */\n      0xffffffffffffffffffffffffffffffffffffffff\n      and\n      0xffffffffffffffffffffffffffffffffffffffff\n      and\n      dup2\n      mstore\n      0x20\n      add\n      swap1\n      dup2\n      mstore\n      0x20\n      add\n      0x00\n      keccak256\n      0x00\n        /* \"contracts/certificates.sol\":3227:3267  authorizedStudent[studentAddress] = true */\n      0x0100\n      exp\n      dup2\n      sload\n      dup2\n      0xff\n      mul\n      not\n      and\n      swap1\n      dup4\n      iszero\n      iszero\n      mul\n      or\n      swap1\n      sstore\n      pop\n        /* \"contracts/certificates.sol\":3438:3461  Student storage student */\n      0x00\n        /* \"contracts/certificates.sol\":3464:3472  students */\n      0x03\n        /* \"contracts/certificates.sol\":3464:3488  students[studentAddress] */\n      0x00\n        /* \"contracts/certificates.sol\":3473:3487  studentAddress */\n      dup8\n        /* \"contracts/certificates.sol\":3464:3488  students[studentAddress] */\n      0xffffffffffffffffffffffffffffffffffffffff\n      and\n      0xffffffffffffffffffffffffffffffffffffffff\n      and\n      dup2\n      mstore\n      0x20\n      add\n      swap1\n      dup2\n      mstore\n      0x20\n      add\n      0x00\n      keccak256\n        /* \"contracts/certificates.sol\":3438:3488  Student storage student = students[studentAddress] */\n      swap1\n      pop\n        /* \"contracts/certificates.sol\":3514:3518  name */\n      dup5\n        /* \"contracts/certificates.sol\":3499:3506  student */\n      dup2\n        /* \"contracts/certificates.sol\":3499:3511  student.name */\n      0x00\n      add\n        /* \"contracts/certificates.sol\":3499:3518  student.name = name */\n      swap1\n      dup2\n      tag_93\n      swap2\n      swap1\n      tag_94\n      jump\t// in\n    tag_93:\n      pop\n        /* \"contracts/certificates.sol\":3549:3558  studentId */\n      dup4\n        /* \"contracts/certificates.sol\":3529:3536  student */\n      dup2\n        /* \"contracts/certificates.sol\":3529:3546  student.studentId */\n      0x01\n      add\n        /* \"contracts/certificates.sol\":3529:3558  student.studentId = studentId */\n      dup2\n      swap1\n      sstore\n      pop\n        /* \"contracts/certificates.sol\":3587:3594  faculty */\n      dup3\n        /* \"contracts/certificates.sol\":3569:3576  student */\n      dup2\n        /* \"contracts/certificates.sol\":3569:3584  student.faculty */\n      0x02\n      add\n        /* \"contracts/certificates.sol\":3569:3594  student.faculty = faculty */\n      swap1\n      dup2\n      tag_95\n      swap2\n      swap1\n      tag_94\n      jump\t// in\n    tag_95:\n      pop\n        /* \"contracts/certificates.sol\":3626:3636  department */\n      dup2\n        /* \"contracts/certificates.sol\":3605:3612  student */\n      dup2\n        /* \"contracts/certificates.sol\":3605:3623  student.department */\n      0x03\n      add\n        /* \"contracts/certificates.sol\":3605:3636  student.department = department */\n      swap1\n      dup2\n      tag_96\n      swap2\n      swap1\n      tag_94\n      jump\t// in\n    tag_96:\n      pop\n        /* \"contracts/certificates.sol\":3216:3644  {... */\n      pop\n        /* \"contracts/certificates.sol\":2995:3644  function issueCertificate(... */\n      pop\n      pop\n      pop\n      pop\n      pop\n      jump\t// out\n        /* \"#utility.yul\":7:82   */\n    tag_97:\n        /* \"#utility.yul\":40:46   */\n      0x00\n        /* \"#utility.yul\":73:75   */\n      0x40\n        /* \"#utility.yul\":67:76   */\n      mload\n        /* \"#utility.yul\":57:76   */\n      swap1\n      pop\n        /* \"#utility.yul\":7:82   */\n      swap1\n      jump\t// out\n        /* \"#utility.yul\":88:205   */\n    tag_98:\n        /* \"#utility.yul\":197:198   */\n      0x00\n        /* \"#utility.yul\":194:195   */\n      dup1\n        /* \"#utility.yul\":187:199   */\n      revert\n        /* \"#utility.yul\":211:328   */\n    tag_99:\n        /* \"#utility.yul\":320:321   */\n      0x00\n        /* \"#utility.yul\":317:318   */\n      dup1\n        /* \"#utility.yul\":310:322   */\n      revert\n        /* \"#utility.yul\":334:460   */\n    tag_100:\n        /* \"#utility.yul\":371:378   */\n      0x00\n        /* \"#utility.yul\":411:453   */\n      0xffffffffffffffffffffffffffffffffffffffff\n        /* \"#utility.yul\":404:409   */\n      dup3\n        /* \"#utility.yul\":400:454   */\n      and\n        /* \"#utility.yul\":389:454   */\n      swap1\n      pop\n        /* \"#utility.yul\":334:460   */\n      swap2\n      swap1\n      pop\n      jump\t// out\n        /* \"#utility.yul\":466:562   */\n    tag_101:\n        /* \"#utility.yul\":503:510   */\n      0x00\n        /* \"#utility.yul\":532:556   */\n      tag_154\n        /* \"#utility.yul\":550:555   */\n      dup3\n        /* \"#utility.yul\":532:556   */\n      tag_100\n      jump\t// in\n    tag_154:\n        /* \"#utility.yul\":521:556   */\n      swap1\n      pop\n        /* \"#utility.yul\":466:562   */\n      swap2\n      swap1\n      pop\n      jump\t// out\n        /* \"#utility.yul\":568:690   */\n    tag_102:\n        /* \"#utility.yul\":641:665   */\n      tag_156\n        /* \"#utility.yul\":659:664   */\n      dup2\n        /* \"#utility.yul\":641:665   */\n      tag_101\n      jump\t// in\n    tag_156:\n        /* \"#utility.yul\":634:639   */\n      dup2\n        /* \"#utility.yul\":631:666   */\n      eq\n        /* \"#utility.yul\":621:684   */\n      tag_157\n      jumpi\n        /* \"#utility.yul\":680:681   */\n      0x00\n        /* \"#utility.yul\":677:678   */\n      dup1\n        /* \"#utility.yul\":670:682   */\n      revert\n        /* \"#utility.yul\":621:684   */\n    tag_157:\n        /* \"#utility.yul\":568:690   */\n      pop\n      jump\t// out\n        /* \"#utility.yul\":696:835   */\n    tag_103:\n        /* \"#utility.yul\":742:747   */\n      0x00\n        /* \"#utility.yul\":780:786   */\n      dup2\n        /* \"#utility.yul\":767:787   */\n      calldataload\n        /* \"#utility.yul\":758:787   */\n      swap1\n      pop\n        /* \"#utility.yul\":796:829   */\n      tag_159\n        /* \"#utility.yul\":823:828   */\n      dup2\n        /* \"#utility.yul\":796:829   */\n      tag_102\n      jump\t// in\n    tag_159:\n        /* \"#utility.yul\":696:835   */\n      swap3\n      swap2\n      pop\n      pop\n      jump\t// out\n        /* \"#utility.yul\":841:1170   */\n    tag_11:\n        /* \"#utility.yul\":900:906   */\n      0x00\n        /* \"#utility.yul\":949:951   */\n      0x20\n        /* \"#utility.yul\":937:946   */\n      dup3\n        /* \"#utility.yul\":928:935   */\n      dup5\n        /* \"#utility.yul\":924:947   */\n      sub\n        /* \"#utility.yul\":920:952   */\n      slt\n        /* \"#utility.yul\":917:1036   */\n      iszero\n      tag_161\n      jumpi\n        /* \"#utility.yul\":955:1034   */\n      tag_162\n      tag_98\n      jump\t// in\n    tag_162:\n        /* \"#utility.yul\":917:1036   */\n    tag_161:\n        /* \"#utility.yul\":1075:1076   */\n      0x00\n        /* \"#utility.yul\":1100:1153   */\n      tag_163\n        /* \"#utility.yul\":1145:1152   */\n      dup5\n        /* \"#utility.yul\":1136:1142   */\n      dup3\n        /* \"#utility.yul\":1125:1134   */\n      dup6\n        /* \"#utility.yul\":1121:1143   */\n      add\n        /* \"#utility.yul\":1100:1153   */\n      tag_103\n      jump\t// in\n    tag_163:\n        /* \"#utility.yul\":1090:1153   */\n      swap2\n      pop\n        /* \"#utility.yul\":1046:1163   */\n      pop\n        /* \"#utility.yul\":841:1170   */\n      swap3\n      swap2\n      pop\n      pop\n      jump\t// out\n        /* \"#utility.yul\":1176:1275   */\n    tag_104:\n        /* \"#utility.yul\":1228:1234   */\n      0x00\n        /* \"#utility.yul\":1262:1267   */\n      dup2\n        /* \"#utility.yul\":1256:1268   */\n      mload\n        /* \"#utility.yul\":1246:1268   */\n      swap1\n      pop\n        /* \"#utility.yul\":1176:1275   */\n      swap2\n      swap1\n      pop\n      jump\t// out\n        /* \"#utility.yul\":1281:1450   */\n    tag_105:\n        /* \"#utility.yul\":1365:1376   */\n      0x00\n        /* \"#utility.yul\":1399:1405   */\n      dup3\n        /* \"#utility.yul\":1394:1397   */\n      dup3\n        /* \"#utility.yul\":1387:1406   */\n      mstore\n        /* \"#utility.yul\":1439:1443   */\n      0x20\n        /* \"#utility.yul\":1434:1437   */\n      dup3\n        /* \"#utility.yul\":1430:1444   */\n      add\n        /* \"#utility.yul\":1415:1444   */\n      swap1\n      pop\n        /* \"#utility.yul\":1281:1450   */\n      swap3\n      swap2\n      pop\n      pop\n      jump\t// out\n        /* \"#utility.yul\":1456:1702   */\n    tag_106:\n        /* \"#utility.yul\":1537:1538   */\n      0x00\n        /* \"#utility.yul\":1547:1660   */\n    tag_167:\n        /* \"#utility.yul\":1561:1567   */\n      dup4\n        /* \"#utility.yul\":1558:1559   */\n      dup2\n        /* \"#utility.yul\":1555:1568   */\n      lt\n        /* \"#utility.yul\":1547:1660   */\n      iszero\n      tag_169\n      jumpi\n        /* \"#utility.yul\":1646:1647   */\n      dup1\n        /* \"#utility.yul\":1641:1644   */\n      dup3\n        /* \"#utility.yul\":1637:1648   */\n      add\n        /* \"#utility.yul\":1631:1649   */\n      mload\n        /* \"#utility.yul\":1627:1628   */\n      dup2\n        /* \"#utility.yul\":1622:1625   */\n      dup5\n        /* \"#utility.yul\":1618:1629   */\n      add\n        /* \"#utility.yul\":1611:1650   */\n      mstore\n        /* \"#utility.yul\":1583:1585   */\n      0x20\n        /* \"#utility.yul\":1580:1581   */\n      dup2\n        /* \"#utility.yul\":1576:1586   */\n      add\n        /* \"#utility.yul\":1571:1586   */\n      swap1\n      pop\n        /* \"#utility.yul\":1547:1660   */\n      jump(tag_167)\n    tag_169:\n        /* \"#utility.yul\":1694:1695   */\n      0x00\n        /* \"#utility.yul\":1685:1691   */\n      dup5\n        /* \"#utility.yul\":1680:1683   */\n      dup5\n        /* \"#utility.yul\":1676:1692   */\n      add\n        /* \"#utility.yul\":1669:1696   */\n      mstore\n        /* \"#utility.yul\":1518:1702   */\n      pop\n        /* \"#utility.yul\":1456:1702   */\n      pop\n      pop\n      pop\n      jump\t// out\n        /* \"#utility.yul\":1708:1810   */\n    tag_107:\n        /* \"#utility.yul\":1749:1755   */\n      0x00\n        /* \"#utility.yul\":1800:1802   */\n      0x1f\n        /* \"#utility.yul\":1796:1803   */\n      not\n        /* \"#utility.yul\":1791:1793   */\n      0x1f\n        /* \"#utility.yul\":1784:1789   */\n      dup4\n        /* \"#utility.yul\":1780:1794   */\n      add\n        /* \"#utility.yul\":1776:1804   */\n      and\n        /* \"#utility.yul\":1766:1804   */\n      swap1\n      pop\n        /* \"#utility.yul\":1708:1810   */\n      swap2\n      swap1\n      pop\n      jump\t// out\n        /* \"#utility.yul\":1816:2193   */\n    tag_108:\n        /* \"#utility.yul\":1904:1907   */\n      0x00\n        /* \"#utility.yul\":1932:1971   */\n      tag_172\n        /* \"#utility.yul\":1965:1970   */\n      dup3\n        /* \"#utility.yul\":1932:1971   */\n      tag_104\n      jump\t// in\n    tag_172:\n        /* \"#utility.yul\":1987:2058   */\n      tag_173\n        /* \"#utility.yul\":2051:2057   */\n      dup2\n        /* \"#utility.yul\":2046:2049   */\n      dup6\n        /* \"#utility.yul\":1987:2058   */\n      tag_105\n      jump\t// in\n    tag_173:\n        /* \"#utility.yul\":1980:2058   */\n      swap4\n      pop\n        /* \"#utility.yul\":2067:2132   */\n      tag_174\n        /* \"#utility.yul\":2125:2131   */\n      dup2\n        /* \"#utility.yul\":2120:2123   */\n      dup6\n        /* \"#utility.yul\":2113:2117   */\n      0x20\n        /* \"#utility.yul\":2106:2111   */\n      dup7\n        /* \"#utility.yul\":2102:2118   */\n      add\n        /* \"#utility.yul\":2067:2132   */\n      tag_106\n      jump\t// in\n    tag_174:\n        /* \"#utility.yul\":2157:2186   */\n      tag_175\n        /* \"#utility.yul\":2179:2185   */\n      dup2\n        /* \"#utility.yul\":2157:2186   */\n      tag_107\n      jump\t// in\n    tag_175:\n        /* \"#utility.yul\":2152:2155   */\n      dup5\n        /* \"#utility.yul\":2148:2187   */\n      add\n        /* \"#utility.yul\":2141:2187   */\n      swap2\n      pop\n        /* \"#utility.yul\":1908:2193   */\n      pop\n        /* \"#utility.yul\":1816:2193   */\n      swap3\n      swap2\n      pop\n      pop\n      jump\t// out\n        /* \"#utility.yul\":2199:2276   */\n    tag_109:\n        /* \"#utility.yul\":2236:2243   */\n      0x00\n        /* \"#utility.yul\":2265:2270   */\n      dup2\n        /* \"#utility.yul\":2254:2270   */\n      swap1\n      pop\n        /* \"#utility.yul\":2199:2276   */\n      swap2\n      swap1\n      pop\n      jump\t// out\n        /* \"#utility.yul\":2282:2400   */\n    tag_110:\n        /* \"#utility.yul\":2369:2393   */\n      tag_178\n        /* \"#utility.yul\":2387:2392   */\n      dup2\n        /* \"#utility.yul\":2369:2393   */\n      tag_109\n      jump\t// in\n    tag_178:\n        /* \"#utility.yul\":2364:2367   */\n      dup3\n        /* \"#utility.yul\":2357:2394   */\n      mstore\n        /* \"#utility.yul\":2282:2400   */\n      pop\n      pop\n      jump\t// out\n        /* \"#utility.yul\":2406:3232   */\n    tag_20:\n        /* \"#utility.yul\":2643:2647   */\n      0x00\n        /* \"#utility.yul\":2681:2684   */\n      0x80\n        /* \"#utility.yul\":2670:2679   */\n      dup3\n        /* \"#utility.yul\":2666:2685   */\n      add\n        /* \"#utility.yul\":2658:2685   */\n      swap1\n      pop\n        /* \"#utility.yul\":2731:2740   */\n      dup2\n        /* \"#utility.yul\":2725:2729   */\n      dup2\n        /* \"#utility.yul\":2721:2741   */\n      sub\n        /* \"#utility.yul\":2717:2718   */\n      0x00\n        /* \"#utility.yul\":2706:2715   */\n      dup4\n        /* \"#utility.yul\":2702:2719   */\n      add\n        /* \"#utility.yul\":2695:2742   */\n      mstore\n        /* \"#utility.yul\":2759:2837   */\n      tag_180\n        /* \"#utility.yul\":2832:2836   */\n      dup2\n        /* \"#utility.yul\":2823:2829   */\n      dup8\n        /* \"#utility.yul\":2759:2837   */\n      tag_108\n      jump\t// in\n    tag_180:\n        /* \"#utility.yul\":2751:2837   */\n      swap1\n      pop\n        /* \"#utility.yul\":2847:2919   */\n      tag_181\n        /* \"#utility.yul\":2915:2917   */\n      0x20\n        /* \"#utility.yul\":2904:2913   */\n      dup4\n        /* \"#utility.yul\":2900:2918   */\n      add\n        /* \"#utility.yul\":2891:2897   */\n      dup7\n        /* \"#utility.yul\":2847:2919   */\n      tag_110\n      jump\t// in\n    tag_181:\n        /* \"#utility.yul\":2966:2975   */\n      dup2\n        /* \"#utility.yul\":2960:2964   */\n      dup2\n        /* \"#utility.yul\":2956:2976   */\n      sub\n        /* \"#utility.yul\":2951:2953   */\n      0x40\n        /* \"#utility.yul\":2940:2949   */\n      dup4\n        /* \"#utility.yul\":2936:2954   */\n      add\n        /* \"#utility.yul\":2929:2977   */\n      mstore\n        /* \"#utility.yul\":2994:3072   */\n      tag_182\n        /* \"#utility.yul\":3067:3071   */\n      dup2\n        /* \"#utility.yul\":3058:3064   */\n      dup6\n        /* \"#utility.yul\":2994:3072   */\n      tag_108\n      jump\t// in\n    tag_182:\n        /* \"#utility.yul\":2986:3072   */\n      swap1\n      pop\n        /* \"#utility.yul\":3119:3128   */\n      dup2\n        /* \"#utility.yul\":3113:3117   */\n      dup2\n        /* \"#utility.yul\":3109:3129   */\n      sub\n        /* \"#utility.yul\":3104:3106   */\n      0x60\n        /* \"#utility.yul\":3093:3102   */\n      dup4\n        /* \"#utility.yul\":3089:3107   */\n      add\n        /* \"#utility.yul\":3082:3130   */\n      mstore\n        /* \"#utility.yul\":3147:3225   */\n      tag_183\n        /* \"#utility.yul\":3220:3224   */\n      dup2\n        /* \"#utility.yul\":3211:3217   */\n      dup5\n        /* \"#utility.yul\":3147:3225   */\n      tag_108\n      jump\t// in\n    tag_183:\n        /* \"#utility.yul\":3139:3225   */\n      swap1\n      pop\n        /* \"#utility.yul\":2406:3232   */\n      swap6\n      swap5\n      pop\n      pop\n      pop\n      pop\n      pop\n      jump\t// out\n        /* \"#utility.yul\":3238:3355   */\n    tag_111:\n        /* \"#utility.yul\":3347:3348   */\n      0x00\n        /* \"#utility.yul\":3344:3345   */\n      dup1\n        /* \"#utility.yul\":3337:3349   */\n      revert\n        /* \"#utility.yul\":3361:3478   */\n    tag_112:\n        /* \"#utility.yul\":3470:3471   */\n      0x00\n        /* \"#utility.yul\":3467:3468   */\n      dup1\n        /* \"#utility.yul\":3460:3472   */\n      revert\n        /* \"#utility.yul\":3484:3664   */\n    tag_113:\n        /* \"#utility.yul\":3532:3609   */\n      0x4e487b7100000000000000000000000000000000000000000000000000000000\n        /* \"#utility.yul\":3529:3530   */\n      0x00\n        /* \"#utility.yul\":3522:3610   */\n      mstore\n        /* \"#utility.yul\":3629:3633   */\n      0x41\n        /* \"#utility.yul\":3626:3627   */\n      0x04\n        /* \"#utility.yul\":3619:3634   */\n      mstore\n        /* \"#utility.yul\":3653:3657   */\n      0x24\n        /* \"#utility.yul\":3650:3651   */\n      0x00\n        /* \"#utility.yul\":3643:3658   */\n      revert\n        /* \"#utility.yul\":3670:3951   */\n    tag_114:\n        /* \"#utility.yul\":3753:3780   */\n      tag_188\n        /* \"#utility.yul\":3775:3779   */\n      dup3\n        /* \"#utility.yul\":3753:3780   */\n      tag_107\n      jump\t// in\n    tag_188:\n        /* \"#utility.yul\":3745:3751   */\n      dup2\n        /* \"#utility.yul\":3741:3781   */\n      add\n        /* \"#utility.yul\":3883:3889   */\n      dup2\n        /* \"#utility.yul\":3871:3881   */\n      dup2\n        /* \"#utility.yul\":3868:3890   */\n      lt\n        /* \"#utility.yul\":3847:3865   */\n      0xffffffffffffffff\n        /* \"#utility.yul\":3835:3845   */\n      dup3\n        /* \"#utility.yul\":3832:3866   */\n      gt\n        /* \"#utility.yul\":3829:3891   */\n      or\n        /* \"#utility.yul\":3826:3914   */\n      iszero\n      tag_189\n      jumpi\n        /* \"#utility.yul\":3894:3912   */\n      tag_190\n      tag_113\n      jump\t// in\n    tag_190:\n        /* \"#utility.yul\":3826:3914   */\n    tag_189:\n        /* \"#utility.yul\":3934:3944   */\n      dup1\n        /* \"#utility.yul\":3930:3932   */\n      0x40\n        /* \"#utility.yul\":3923:3945   */\n      mstore\n        /* \"#utility.yul\":3713:3951   */\n      pop\n        /* \"#utility.yul\":3670:3951   */\n      pop\n      pop\n      jump\t// out\n        /* \"#utility.yul\":3957:4086   */\n    tag_115:\n        /* \"#utility.yul\":3991:3997   */\n      0x00\n        /* \"#utility.yul\":4018:4038   */\n      tag_192\n      tag_97\n      jump\t// in\n    tag_192:\n        /* \"#utility.yul\":4008:4038   */\n      swap1\n      pop\n        /* \"#utility.yul\":4047:4080   */\n      tag_193\n        /* \"#utility.yul\":4075:4079   */\n      dup3\n        /* \"#utility.yul\":4067:4073   */\n      dup3\n        /* \"#utility.yul\":4047:4080   */\n      tag_114\n      jump\t// in\n    tag_193:\n        /* \"#utility.yul\":3957:4086   */\n      swap2\n      swap1\n      pop\n      jump\t// out\n        /* \"#utility.yul\":4092:4400   */\n    tag_116:\n        /* \"#utility.yul\":4154:4158   */\n      0x00\n        /* \"#utility.yul\":4244:4262   */\n      0xffffffffffffffff\n        /* \"#utility.yul\":4236:4242   */\n      dup3\n        /* \"#utility.yul\":4233:4263   */\n      gt\n        /* \"#utility.yul\":4230:4286   */\n      iszero\n      tag_195\n      jumpi\n        /* \"#utility.yul\":4266:4284   */\n      tag_196\n      tag_113\n      jump\t// in\n    tag_196:\n        /* \"#utility.yul\":4230:4286   */\n    tag_195:\n        /* \"#utility.yul\":4304:4333   */\n      tag_197\n        /* \"#utility.yul\":4326:4332   */\n      dup3\n        /* \"#utility.yul\":4304:4333   */\n      tag_107\n      jump\t// in\n    tag_197:\n        /* \"#utility.yul\":4296:4333   */\n      swap1\n      pop\n        /* \"#utility.yul\":4388:4392   */\n      0x20\n        /* \"#utility.yul\":4382:4386   */\n      dup2\n        /* \"#utility.yul\":4378:4393   */\n      add\n        /* \"#utility.yul\":4370:4393   */\n      swap1\n      pop\n        /* \"#utility.yul\":4092:4400   */\n      swap2\n      swap1\n      pop\n      jump\t// out\n        /* \"#utility.yul\":4406:4552   */\n    tag_117:\n        /* \"#utility.yul\":4503:4509   */\n      dup3\n        /* \"#utility.yul\":4498:4501   */\n      dup2\n        /* \"#utility.yul\":4493:4496   */\n      dup4\n        /* \"#utility.yul\":4480:4510   */\n      calldatacopy\n        /* \"#utility.yul\":4544:4545   */\n      0x00\n        /* \"#utility.yul\":4535:4541   */\n      dup4\n        /* \"#utility.yul\":4530:4533   */\n      dup4\n        /* \"#utility.yul\":4526:4542   */\n      add\n        /* \"#utility.yul\":4519:4546   */\n      mstore\n        /* \"#utility.yul\":4406:4552   */\n      pop\n      pop\n      pop\n      jump\t// out\n        /* \"#utility.yul\":4558:4983   */\n    tag_118:\n        /* \"#utility.yul\":4636:4641   */\n      0x00\n        /* \"#utility.yul\":4661:4727   */\n      tag_200\n        /* \"#utility.yul\":4677:4726   */\n      tag_201\n        /* \"#utility.yul\":4719:4725   */\n      dup5\n        /* \"#utility.yul\":4677:4726   */\n      tag_116\n      jump\t// in\n    tag_201:\n        /* \"#utility.yul\":4661:4727   */\n      tag_115\n      jump\t// in\n    tag_200:\n        /* \"#utility.yul\":4652:4727   */\n      swap1\n      pop\n        /* \"#utility.yul\":4750:4756   */\n      dup3\n        /* \"#utility.yul\":4743:4748   */\n      dup2\n        /* \"#utility.yul\":4736:4757   */\n      mstore\n        /* \"#utility.yul\":4788:4792   */\n      0x20\n        /* \"#utility.yul\":4781:4786   */\n      dup2\n        /* \"#utility.yul\":4777:4793   */\n      add\n        /* \"#utility.yul\":4826:4829   */\n      dup5\n        /* \"#utility.yul\":4817:4823   */\n      dup5\n        /* \"#utility.yul\":4812:4815   */\n      dup5\n        /* \"#utility.yul\":4808:4824   */\n      add\n        /* \"#utility.yul\":4805:4830   */\n      gt\n        /* \"#utility.yul\":4802:4914   */\n      iszero\n      tag_202\n      jumpi\n        /* \"#utility.yul\":4833:4912   */\n      tag_203\n      tag_112\n      jump\t// in\n    tag_203:\n        /* \"#utility.yul\":4802:4914   */\n    tag_202:\n        /* \"#utility.yul\":4923:4977   */\n      tag_204\n        /* \"#utility.yul\":4970:4976   */\n      dup5\n        /* \"#utility.yul\":4965:4968   */\n      dup3\n        /* \"#utility.yul\":4960:4963   */\n      dup6\n        /* \"#utility.yul\":4923:4977   */\n      tag_117\n      jump\t// in\n    tag_204:\n        /* \"#utility.yul\":4642:4983   */\n      pop\n        /* \"#utility.yul\":4558:4983   */\n      swap4\n      swap3\n      pop\n      pop\n      pop\n      jump\t// out\n        /* \"#utility.yul\":5003:5343   */\n    tag_119:\n        /* \"#utility.yul\":5059:5064   */\n      0x00\n        /* \"#utility.yul\":5108:5111   */\n      dup3\n        /* \"#utility.yul\":5101:5105   */\n      0x1f\n        /* \"#utility.yul\":5093:5099   */\n      dup4\n        /* \"#utility.yul\":5089:5106   */\n      add\n        /* \"#utility.yul\":5085:5112   */\n      slt\n        /* \"#utility.yul\":5075:5197   */\n      tag_206\n      jumpi\n        /* \"#utility.yul\":5116:5195   */\n      tag_207\n      tag_111\n      jump\t// in\n    tag_207:\n        /* \"#utility.yul\":5075:5197   */\n    tag_206:\n        /* \"#utility.yul\":5233:5239   */\n      dup2\n        /* \"#utility.yul\":5220:5240   */\n      calldataload\n        /* \"#utility.yul\":5258:5337   */\n      tag_208\n        /* \"#utility.yul\":5333:5336   */\n      dup5\n        /* \"#utility.yul\":5325:5331   */\n      dup3\n        /* \"#utility.yul\":5318:5322   */\n      0x20\n        /* \"#utility.yul\":5310:5316   */\n      dup7\n        /* \"#utility.yul\":5306:5323   */\n      add\n        /* \"#utility.yul\":5258:5337   */\n      tag_118\n      jump\t// in\n    tag_208:\n        /* \"#utility.yul\":5249:5337   */\n      swap2\n      pop\n        /* \"#utility.yul\":5065:5343   */\n      pop\n        /* \"#utility.yul\":5003:5343   */\n      swap3\n      swap2\n      pop\n      pop\n      jump\t// out\n        /* \"#utility.yul\":5349:5471   */\n    tag_120:\n        /* \"#utility.yul\":5422:5446   */\n      tag_210\n        /* \"#utility.yul\":5440:5445   */\n      dup2\n        /* \"#utility.yul\":5422:5446   */\n      tag_109\n      jump\t// in\n    tag_210:\n        /* \"#utility.yul\":5415:5420   */\n      dup2\n        /* \"#utility.yul\":5412:5447   */\n      eq\n        /* \"#utility.yul\":5402:5465   */\n      tag_211\n      jumpi\n        /* \"#utility.yul\":5461:5462   */\n      0x00\n        /* \"#utility.yul\":5458:5459   */\n      dup1\n        /* \"#utility.yul\":5451:5463   */\n      revert\n        /* \"#utility.yul\":5402:5465   */\n    tag_211:\n        /* \"#utility.yul\":5349:5471   */\n      pop\n      jump\t// out\n        /* \"#utility.yul\":5477:5616   */\n    tag_121:\n        /* \"#utility.yul\":5523:5528   */\n      0x00\n        /* \"#utility.yul\":5561:5567   */\n      dup2\n        /* \"#utility.yul\":5548:5568   */\n      calldataload\n        /* \"#utility.yul\":5539:5568   */\n      swap1\n      pop\n        /* \"#utility.yul\":5577:5610   */\n      tag_213\n        /* \"#utility.yul\":5604:5609   */\n      dup2\n        /* \"#utility.yul\":5577:5610   */\n      tag_120\n      jump\t// in\n    tag_213:\n        /* \"#utility.yul\":5477:5616   */\n      swap3\n      swap2\n      pop\n      pop\n      jump\t// out\n        /* \"#utility.yul\":5622:7073   */\n    tag_29:\n        /* \"#utility.yul\":5747:5753   */\n      0x00\n        /* \"#utility.yul\":5755:5761   */\n      dup1\n        /* \"#utility.yul\":5763:5769   */\n      0x00\n        /* \"#utility.yul\":5771:5777   */\n      dup1\n        /* \"#utility.yul\":5779:5785   */\n      0x00\n        /* \"#utility.yul\":5828:5831   */\n      0xa0\n        /* \"#utility.yul\":5816:5825   */\n      dup7\n        /* \"#utility.yul\":5807:5814   */\n      dup9\n        /* \"#utility.yul\":5803:5826   */\n      sub\n        /* \"#utility.yul\":5799:5832   */\n      slt\n        /* \"#utility.yul\":5796:5916   */\n      iszero\n      tag_215\n      jumpi\n        /* \"#utility.yul\":5835:5914   */\n      tag_216\n      tag_98\n      jump\t// in\n    tag_216:\n        /* \"#utility.yul\":5796:5916   */\n    tag_215:\n        /* \"#utility.yul\":5955:5956   */\n      0x00\n        /* \"#utility.yul\":5980:6033   */\n      tag_217\n        /* \"#utility.yul\":6025:6032   */\n      dup9\n        /* \"#utility.yul\":6016:6022   */\n      dup3\n        /* \"#utility.yul\":6005:6014   */\n      dup10\n        /* \"#utility.yul\":6001:6023   */\n      add\n        /* \"#utility.yul\":5980:6033   */\n      tag_103\n      jump\t// in\n    tag_217:\n        /* \"#utility.yul\":5970:6033   */\n      swap6\n      pop\n        /* \"#utility.yul\":5926:6043   */\n      pop\n        /* \"#utility.yul\":6110:6112   */\n      0x20\n        /* \"#utility.yul\":6099:6108   */\n      dup7\n        /* \"#utility.yul\":6095:6113   */\n      add\n        /* \"#utility.yul\":6082:6114   */\n      calldataload\n        /* \"#utility.yul\":6141:6159   */\n      0xffffffffffffffff\n        /* \"#utility.yul\":6133:6139   */\n      dup2\n        /* \"#utility.yul\":6130:6160   */\n      gt\n        /* \"#utility.yul\":6127:6244   */\n      iszero\n      tag_218\n      jumpi\n        /* \"#utility.yul\":6163:6242   */\n      tag_219\n      tag_99\n      jump\t// in\n    tag_219:\n        /* \"#utility.yul\":6127:6244   */\n    tag_218:\n        /* \"#utility.yul\":6268:6331   */\n      tag_220\n        /* \"#utility.yul\":6323:6330   */\n      dup9\n        /* \"#utility.yul\":6314:6320   */\n      dup3\n        /* \"#utility.yul\":6303:6312   */\n      dup10\n        /* \"#utility.yul\":6299:6321   */\n      add\n        /* \"#utility.yul\":6268:6331   */\n      tag_119\n      jump\t// in\n    tag_220:\n        /* \"#utility.yul\":6258:6331   */\n      swap5\n      pop\n        /* \"#utility.yul\":6053:6341   */\n      pop\n        /* \"#utility.yul\":6380:6382   */\n      0x40\n        /* \"#utility.yul\":6406:6459   */\n      tag_221\n        /* \"#utility.yul\":6451:6458   */\n      dup9\n        /* \"#utility.yul\":6442:6448   */\n      dup3\n        /* \"#utility.yul\":6431:6440   */\n      dup10\n        /* \"#utility.yul\":6427:6449   */\n      add\n        /* \"#utility.yul\":6406:6459   */\n      tag_121\n      jump\t// in\n    tag_221:\n        /* \"#utility.yul\":6396:6459   */\n      swap4\n      pop\n        /* \"#utility.yul\":6351:6469   */\n      pop\n        /* \"#utility.yul\":6536:6538   */\n      0x60\n        /* \"#utility.yul\":6525:6534   */\n      dup7\n        /* \"#utility.yul\":6521:6539   */\n      add\n        /* \"#utility.yul\":6508:6540   */\n      calldataload\n        /* \"#utility.yul\":6567:6585   */\n      0xffffffffffffffff\n        /* \"#utility.yul\":6559:6565   */\n      dup2\n        /* \"#utility.yul\":6556:6586   */\n      gt\n        /* \"#utility.yul\":6553:6670   */\n      iszero\n      tag_222\n      jumpi\n        /* \"#utility.yul\":6589:6668   */\n      tag_223\n      tag_99\n      jump\t// in\n    tag_223:\n        /* \"#utility.yul\":6553:6670   */\n    tag_222:\n        /* \"#utility.yul\":6694:6757   */\n      tag_224\n        /* \"#utility.yul\":6749:6756   */\n      dup9\n        /* \"#utility.yul\":6740:6746   */\n      dup3\n        /* \"#utility.yul\":6729:6738   */\n      dup10\n        /* \"#utility.yul\":6725:6747   */\n      add\n        /* \"#utility.yul\":6694:6757   */\n      tag_119\n      jump\t// in\n    tag_224:\n        /* \"#utility.yul\":6684:6757   */\n      swap3\n      pop\n        /* \"#utility.yul\":6479:6767   */\n      pop\n        /* \"#utility.yul\":6834:6837   */\n      0x80\n        /* \"#utility.yul\":6823:6832   */\n      dup7\n        /* \"#utility.yul\":6819:6838   */\n      add\n        /* \"#utility.yul\":6806:6839   */\n      calldataload\n        /* \"#utility.yul\":6866:6884   */\n      0xffffffffffffffff\n        /* \"#utility.yul\":6858:6864   */\n      dup2\n        /* \"#utility.yul\":6855:6885   */\n      gt\n        /* \"#utility.yul\":6852:6969   */\n      iszero\n      tag_225\n      jumpi\n        /* \"#utility.yul\":6888:6967   */\n      tag_226\n      tag_99\n      jump\t// in\n    tag_226:\n        /* \"#utility.yul\":6852:6969   */\n    tag_225:\n        /* \"#utility.yul\":6993:7056   */\n      tag_227\n        /* \"#utility.yul\":7048:7055   */\n      dup9\n        /* \"#utility.yul\":7039:7045   */\n      dup3\n        /* \"#utility.yul\":7028:7037   */\n      dup10\n        /* \"#utility.yul\":7024:7046   */\n      add\n        /* \"#utility.yul\":6993:7056   */\n      tag_119\n      jump\t// in\n    tag_227:\n        /* \"#utility.yul\":6983:7056   */\n      swap2\n      pop\n        /* \"#utility.yul\":6777:7066   */\n      pop\n        /* \"#utility.yul\":5622:7073   */\n      swap3\n      swap6\n      pop\n      swap3\n      swap6\n      swap1\n      swap4\n      pop\n      jump\t// out\n        /* \"#utility.yul\":7079:7312   */\n    tag_122:\n        /* \"#utility.yul\":7219:7253   */\n      0x4f6e6c7920617574686f72697a656420697373756572732063616e2063616c6c\n        /* \"#utility.yul\":7215:7216   */\n      0x00\n        /* \"#utility.yul\":7207:7213   */\n      dup3\n        /* \"#utility.yul\":7203:7217   */\n      add\n        /* \"#utility.yul\":7196:7254   */\n      mstore\n        /* \"#utility.yul\":7288:7304   */\n      0x20746869732066756e6374696f6e000000000000000000000000000000000000\n        /* \"#utility.yul\":7283:7285   */\n      0x20\n        /* \"#utility.yul\":7275:7281   */\n      dup3\n        /* \"#utility.yul\":7271:7286   */\n      add\n        /* \"#utility.yul\":7264:7305   */\n      mstore\n        /* \"#utility.yul\":7079:7312   */\n      pop\n      jump\t// out\n        /* \"#utility.yul\":7318:7684   */\n    tag_123:\n        /* \"#utility.yul\":7460:7463   */\n      0x00\n        /* \"#utility.yul\":7481:7548   */\n      tag_230\n        /* \"#utility.yul\":7545:7547   */\n      0x2e\n        /* \"#utility.yul\":7540:7543   */\n      dup4\n        /* \"#utility.yul\":7481:7548   */\n      tag_105\n      jump\t// in\n    tag_230:\n        /* \"#utility.yul\":7474:7548   */\n      swap2\n      pop\n        /* \"#utility.yul\":7557:7650   */\n      tag_231\n        /* \"#utility.yul\":7646:7649   */\n      dup3\n        /* \"#utility.yul\":7557:7650   */\n      tag_122\n      jump\t// in\n    tag_231:\n        /* \"#utility.yul\":7675:7677   */\n      0x40\n        /* \"#utility.yul\":7670:7673   */\n      dup3\n        /* \"#utility.yul\":7666:7678   */\n      add\n        /* \"#utility.yul\":7659:7678   */\n      swap1\n      pop\n        /* \"#utility.yul\":7318:7684   */\n      swap2\n      swap1\n      pop\n      jump\t// out\n        /* \"#utility.yul\":7690:8109   */\n    tag_34:\n        /* \"#utility.yul\":7856:7860   */\n      0x00\n        /* \"#utility.yul\":7894:7896   */\n      0x20\n        /* \"#utility.yul\":7883:7892   */\n      dup3\n        /* \"#utility.yul\":7879:7897   */\n      add\n        /* \"#utility.yul\":7871:7897   */\n      swap1\n      pop\n        /* \"#utility.yul\":7943:7952   */\n      dup2\n        /* \"#utility.yul\":7937:7941   */\n      dup2\n        /* \"#utility.yul\":7933:7953   */\n      sub\n        /* \"#utility.yul\":7929:7930   */\n      0x00\n        /* \"#utility.yul\":7918:7927   */\n      dup4\n        /* \"#utility.yul\":7914:7931   */\n      add\n        /* \"#utility.yul\":7907:7954   */\n      mstore\n        /* \"#utility.yul\":7971:8102   */\n      tag_233\n        /* \"#utility.yul\":8097:8101   */\n      dup2\n        /* \"#utility.yul\":7971:8102   */\n      tag_123\n      jump\t// in\n    tag_233:\n        /* \"#utility.yul\":7963:8102   */\n      swap1\n      pop\n        /* \"#utility.yul\":7690:8109   */\n      swap2\n      swap1\n      pop\n      jump\t// out\n        /* \"#utility.yul\":8115:8337   */\n    tag_124:\n        /* \"#utility.yul\":8255:8289   */\n      0x4f6e6c792073747564656e742063616e2063616c6c20746869732066756e6374\n        /* \"#utility.yul\":8251:8252   */\n      0x00\n        /* \"#utility.yul\":8243:8249   */\n      dup3\n        /* \"#utility.yul\":8239:8253   */\n      add\n        /* \"#utility.yul\":8232:8290   */\n      mstore\n        /* \"#utility.yul\":8324:8329   */\n      0x696f6e0000000000000000000000000000000000000000000000000000000000\n        /* \"#utility.yul\":8319:8321   */\n      0x20\n        /* \"#utility.yul\":8311:8317   */\n      dup3\n        /* \"#utility.yul\":8307:8322   */\n      add\n        /* \"#utility.yul\":8300:8330   */\n      mstore\n        /* \"#utility.yul\":8115:8337   */\n      pop\n      jump\t// out\n        /* \"#utility.yul\":8343:8709   */\n    tag_125:\n        /* \"#utility.yul\":8485:8488   */\n      0x00\n        /* \"#utility.yul\":8506:8573   */\n      tag_236\n        /* \"#utility.yul\":8570:8572   */\n      0x23\n        /* \"#utility.yul\":8565:8568   */\n      dup4\n        /* \"#utility.yul\":8506:8573   */\n      tag_105\n      jump\t// in\n    tag_236:\n        /* \"#utility.yul\":8499:8573   */\n      swap2\n      pop\n        /* \"#utility.yul\":8582:8675   */\n      tag_237\n        /* \"#utility.yul\":8671:8674   */\n      dup3\n        /* \"#utility.yul\":8582:8675   */\n      tag_124\n      jump\t// in\n    tag_237:\n        /* \"#utility.yul\":8700:8702   */\n      0x40\n        /* \"#utility.yul\":8695:8698   */\n      dup3\n        /* \"#utility.yul\":8691:8703   */\n      add\n        /* \"#utility.yul\":8684:8703   */\n      swap1\n      pop\n        /* \"#utility.yul\":8343:8709   */\n      swap2\n      swap1\n      pop\n      jump\t// out\n        /* \"#utility.yul\":8715:9134   */\n    tag_39:\n        /* \"#utility.yul\":8881:8885   */\n      0x00\n        /* \"#utility.yul\":8919:8921   */\n      0x20\n        /* \"#utility.yul\":8908:8917   */\n      dup3\n        /* \"#utility.yul\":8904:8922   */\n      add\n        /* \"#utility.yul\":8896:8922   */\n      swap1\n      pop\n        /* \"#utility.yul\":8968:8977   */\n      dup2\n        /* \"#utility.yul\":8962:8966   */\n      dup2\n        /* \"#utility.yul\":8958:8978   */\n      sub\n        /* \"#utility.yul\":8954:8955   */\n      0x00\n        /* \"#utility.yul\":8943:8952   */\n      dup4\n        /* \"#utility.yul\":8939:8956   */\n      add\n        /* \"#utility.yul\":8932:8979   */\n      mstore\n        /* \"#utility.yul\":8996:9127   */\n      tag_239\n        /* \"#utility.yul\":9122:9126   */\n      dup2\n        /* \"#utility.yul\":8996:9127   */\n      tag_125\n      jump\t// in\n    tag_239:\n        /* \"#utility.yul\":8988:9127   */\n      swap1\n      pop\n        /* \"#utility.yul\":8715:9134   */\n      swap2\n      swap1\n      pop\n      jump\t// out\n        /* \"#utility.yul\":9140:9373   */\n    tag_126:\n        /* \"#utility.yul\":9280:9314   */\n      0x4f6e6c7920617574686f72697a656420766965776572732063616e2063616c6c\n        /* \"#utility.yul\":9276:9277   */\n      0x00\n        /* \"#utility.yul\":9268:9274   */\n      dup3\n        /* \"#utility.yul\":9264:9278   */\n      add\n        /* \"#utility.yul\":9257:9315   */\n      mstore\n        /* \"#utility.yul\":9349:9365   */\n      0x20746869732066756e6374696f6e000000000000000000000000000000000000\n        /* \"#utility.yul\":9344:9346   */\n      0x20\n        /* \"#utility.yul\":9336:9342   */\n      dup3\n        /* \"#utility.yul\":9332:9347   */\n      add\n        /* \"#utility.yul\":9325:9366   */\n      mstore\n        /* \"#utility.yul\":9140:9373   */\n      pop\n      jump\t// out\n        /* \"#utility.yul\":9379:9745   */\n    tag_127:\n        /* \"#utility.yul\":9521:9524   */\n      0x00\n        /* \"#utility.yul\":9542:9609   */\n      tag_242\n        /* \"#utility.yul\":9606:9608   */\n      0x2e\n        /* \"#utility.yul\":9601:9604   */\n      dup4\n        /* \"#utility.yul\":9542:9609   */\n      tag_105\n      jump\t// in\n    tag_242:\n        /* \"#utility.yul\":9535:9609   */\n      swap2\n      pop\n        /* \"#utility.yul\":9618:9711   */\n      tag_243\n        /* \"#utility.yul\":9707:9710   */\n      dup3\n        /* \"#utility.yul\":9618:9711   */\n      tag_126\n      jump\t// in\n    tag_243:\n        /* \"#utility.yul\":9736:9738   */\n      0x40\n        /* \"#utility.yul\":9731:9734   */\n      dup3\n        /* \"#utility.yul\":9727:9739   */\n      add\n        /* \"#utility.yul\":9720:9739   */\n      swap1\n      pop\n        /* \"#utility.yul\":9379:9745   */\n      swap2\n      swap1\n      pop\n      jump\t// out\n        /* \"#utility.yul\":9751:10170   */\n    tag_44:\n        /* \"#utility.yul\":9917:9921   */\n      0x00\n        /* \"#utility.yul\":9955:9957   */\n      0x20\n        /* \"#utility.yul\":9944:9953   */\n      dup3\n        /* \"#utility.yul\":9940:9958   */\n      add\n        /* \"#utility.yul\":9932:9958   */\n      swap1\n      pop\n        /* \"#utility.yul\":10004:10013   */\n      dup2\n        /* \"#utility.yul\":9998:10002   */\n      dup2\n        /* \"#utility.yul\":9994:10014   */\n      sub\n        /* \"#utility.yul\":9990:9991   */\n      0x00\n        /* \"#utility.yul\":9979:9988   */\n      dup4\n        /* \"#utility.yul\":9975:9992   */\n      add\n        /* \"#utility.yul\":9968:10015   */\n      mstore\n        /* \"#utility.yul\":10032:10163   */\n      tag_245\n        /* \"#utility.yul\":10158:10162   */\n      dup2\n        /* \"#utility.yul\":10032:10163   */\n      tag_127\n      jump\t// in\n    tag_245:\n        /* \"#utility.yul\":10024:10163   */\n      swap1\n      pop\n        /* \"#utility.yul\":9751:10170   */\n      swap2\n      swap1\n      pop\n      jump\t// out\n        /* \"#utility.yul\":10176:10397   */\n    tag_128:\n        /* \"#utility.yul\":10316:10350   */\n      0x53747564656e74206e6f7420666f756e64206f7220756e617574686f72697a65\n        /* \"#utility.yul\":10312:10313   */\n      0x00\n        /* \"#utility.yul\":10304:10310   */\n      dup3\n        /* \"#utility.yul\":10300:10314   */\n      add\n        /* \"#utility.yul\":10293:10351   */\n      mstore\n        /* \"#utility.yul\":10385:10389   */\n      0x642e000000000000000000000000000000000000000000000000000000000000\n        /* \"#utility.yul\":10380:10382   */\n      0x20\n        /* \"#utility.yul\":10372:10378   */\n      dup3\n        /* \"#utility.yul\":10368:10383   */\n      add\n        /* \"#utility.yul\":10361:10390   */\n      mstore\n        /* \"#utility.yul\":10176:10397   */\n      pop\n      jump\t// out\n        /* \"#utility.yul\":10403:10769   */\n    tag_129:\n        /* \"#utility.yul\":10545:10548   */\n      0x00\n        /* \"#utility.yul\":10566:10633   */\n      tag_248\n        /* \"#utility.yul\":10630:10632   */\n      0x22\n        /* \"#utility.yul\":10625:10628   */\n      dup4\n        /* \"#utility.yul\":10566:10633   */\n      tag_105\n      jump\t// in\n    tag_248:\n        /* \"#utility.yul\":10559:10633   */\n      swap2\n      pop\n        /* \"#utility.yul\":10642:10735   */\n      tag_249\n        /* \"#utility.yul\":10731:10734   */\n      dup3\n        /* \"#utility.yul\":10642:10735   */\n      tag_128\n      jump\t// in\n    tag_249:\n        /* \"#utility.yul\":10760:10762   */\n      0x40\n        /* \"#utility.yul\":10755:10758   */\n      dup3\n        /* \"#utility.yul\":10751:10763   */\n      add\n        /* \"#utility.yul\":10744:10763   */\n      swap1\n      pop\n        /* \"#utility.yul\":10403:10769   */\n      swap2\n      swap1\n      pop\n      jump\t// out\n        /* \"#utility.yul\":10775:11194   */\n    tag_48:\n        /* \"#utility.yul\":10941:10945   */\n      0x00\n        /* \"#utility.yul\":10979:10981   */\n      0x20\n        /* \"#utility.yul\":10968:10977   */\n      dup3\n        /* \"#utility.yul\":10964:10982   */\n      add\n        /* \"#utility.yul\":10956:10982   */\n      swap1\n      pop\n        /* \"#utility.yul\":11028:11037   */\n      dup2\n        /* \"#utility.yul\":11022:11026   */\n      dup2\n        /* \"#utility.yul\":11018:11038   */\n      sub\n        /* \"#utility.yul\":11014:11015   */\n      0x00\n        /* \"#utility.yul\":11003:11012   */\n      dup4\n        /* \"#utility.yul\":10999:11016   */\n      add\n        /* \"#utility.yul\":10992:11039   */\n      mstore\n        /* \"#utility.yul\":11056:11187   */\n      tag_251\n        /* \"#utility.yul\":11182:11186   */\n      dup2\n        /* \"#utility.yul\":11056:11187   */\n      tag_129\n      jump\t// in\n    tag_251:\n        /* \"#utility.yul\":11048:11187   */\n      swap1\n      pop\n        /* \"#utility.yul\":10775:11194   */\n      swap2\n      swap1\n      pop\n      jump\t// out\n        /* \"#utility.yul\":11200:11380   */\n    tag_130:\n        /* \"#utility.yul\":11248:11325   */\n      0x4e487b7100000000000000000000000000000000000000000000000000000000\n        /* \"#utility.yul\":11245:11246   */\n      0x00\n        /* \"#utility.yul\":11238:11326   */\n      mstore\n        /* \"#utility.yul\":11345:11349   */\n      0x22\n        /* \"#utility.yul\":11342:11343   */\n      0x04\n        /* \"#utility.yul\":11335:11350   */\n      mstore\n        /* \"#utility.yul\":11369:11373   */\n      0x24\n        /* \"#utility.yul\":11366:11367   */\n      0x00\n        /* \"#utility.yul\":11359:11374   */\n      revert\n        /* \"#utility.yul\":11386:11706   */\n    tag_50:\n        /* \"#utility.yul\":11430:11436   */\n      0x00\n        /* \"#utility.yul\":11467:11468   */\n      0x02\n        /* \"#utility.yul\":11461:11465   */\n      dup3\n        /* \"#utility.yul\":11457:11469   */\n      div\n        /* \"#utility.yul\":11447:11469   */\n      swap1\n      pop\n        /* \"#utility.yul\":11514:11515   */\n      0x01\n        /* \"#utility.yul\":11508:11512   */\n      dup3\n        /* \"#utility.yul\":11504:11516   */\n      and\n        /* \"#utility.yul\":11535:11553   */\n      dup1\n        /* \"#utility.yul\":11525:11606   */\n      tag_254\n      jumpi\n        /* \"#utility.yul\":11591:11595   */\n      0x7f\n        /* \"#utility.yul\":11583:11589   */\n      dup3\n        /* \"#utility.yul\":11579:11596   */\n      and\n        /* \"#utility.yul\":11569:11596   */\n      swap2\n      pop\n        /* \"#utility.yul\":11525:11606   */\n    tag_254:\n        /* \"#utility.yul\":11653:11655   */\n      0x20\n        /* \"#utility.yul\":11645:11651   */\n      dup3\n        /* \"#utility.yul\":11642:11656   */\n      lt\n        /* \"#utility.yul\":11622:11640   */\n      dup2\n        /* \"#utility.yul\":11619:11657   */\n      sub\n        /* \"#utility.yul\":11616:11700   */\n      tag_255\n      jumpi\n        /* \"#utility.yul\":11672:11690   */\n      tag_256\n      tag_130\n      jump\t// in\n    tag_256:\n        /* \"#utility.yul\":11616:11700   */\n    tag_255:\n        /* \"#utility.yul\":11437:11706   */\n      pop\n        /* \"#utility.yul\":11386:11706   */\n      swap2\n      swap1\n      pop\n      jump\t// out\n        /* \"#utility.yul\":11712:11943   */\n    tag_131:\n        /* \"#utility.yul\":11852:11886   */\n      0x596f7520617265206e6f7420617574686f72697a656420746f2072756e207468\n        /* \"#utility.yul\":11848:11849   */\n      0x00\n        /* \"#utility.yul\":11840:11846   */\n      dup3\n        /* \"#utility.yul\":11836:11850   */\n      add\n        /* \"#utility.yul\":11829:11887   */\n      mstore\n        /* \"#utility.yul\":11921:11935   */\n      0x69732066756e6374696f6e2e0000000000000000000000000000000000000000\n        /* \"#utility.yul\":11916:11918   */\n      0x20\n        /* \"#utility.yul\":11908:11914   */\n      dup3\n        /* \"#utility.yul\":11904:11919   */\n      add\n        /* \"#utility.yul\":11897:11936   */\n      mstore\n        /* \"#utility.yul\":11712:11943   */\n      pop\n      jump\t// out\n        /* \"#utility.yul\":11949:12315   */\n    tag_132:\n        /* \"#utility.yul\":12091:12094   */\n      0x00\n        /* \"#utility.yul\":12112:12179   */\n      tag_259\n        /* \"#utility.yul\":12176:12178   */\n      0x2c\n        /* \"#utility.yul\":12171:12174   */\n      dup4\n        /* \"#utility.yul\":12112:12179   */\n      tag_105\n      jump\t// in\n    tag_259:\n        /* \"#utility.yul\":12105:12179   */\n      swap2\n      pop\n        /* \"#utility.yul\":12188:12281   */\n      tag_260\n        /* \"#utility.yul\":12277:12280   */\n      dup3\n        /* \"#utility.yul\":12188:12281   */\n      tag_131\n      jump\t// in\n    tag_260:\n        /* \"#utility.yul\":12306:12308   */\n      0x40\n        /* \"#utility.yul\":12301:12304   */\n      dup3\n        /* \"#utility.yul\":12297:12309   */\n      add\n        /* \"#utility.yul\":12290:12309   */\n      swap1\n      pop\n        /* \"#utility.yul\":11949:12315   */\n      swap2\n      swap1\n      pop\n      jump\t// out\n        /* \"#utility.yul\":12321:12740   */\n    tag_73:\n        /* \"#utility.yul\":12487:12491   */\n      0x00\n        /* \"#utility.yul\":12525:12527   */\n      0x20\n        /* \"#utility.yul\":12514:12523   */\n      dup3\n        /* \"#utility.yul\":12510:12528   */\n      add\n        /* \"#utility.yul\":12502:12528   */\n      swap1\n      pop\n        /* \"#utility.yul\":12574:12583   */\n      dup2\n        /* \"#utility.yul\":12568:12572   */\n      dup2\n        /* \"#utility.yul\":12564:12584   */\n      sub\n        /* \"#utility.yul\":12560:12561   */\n      0x00\n        /* \"#utility.yul\":12549:12558   */\n      dup4\n        /* \"#utility.yul\":12545:12562   */\n      add\n        /* \"#utility.yul\":12538:12585   */\n      mstore\n        /* \"#utility.yul\":12602:12733   */\n      tag_262\n        /* \"#utility.yul\":12728:12732   */\n      dup2\n        /* \"#utility.yul\":12602:12733   */\n      tag_132\n      jump\t// in\n    tag_262:\n        /* \"#utility.yul\":12594:12733   */\n      swap1\n      pop\n        /* \"#utility.yul\":12321:12740   */\n      swap2\n      swap1\n      pop\n      jump\t// out\n        /* \"#utility.yul\":12746:12887   */\n    tag_133:\n        /* \"#utility.yul\":12795:12799   */\n      0x00\n        /* \"#utility.yul\":12818:12821   */\n      dup2\n        /* \"#utility.yul\":12810:12821   */\n      swap1\n      pop\n        /* \"#utility.yul\":12841:12844   */\n      dup2\n        /* \"#utility.yul\":12838:12839   */\n      0x00\n        /* \"#utility.yul\":12831:12845   */\n      mstore\n        /* \"#utility.yul\":12875:12879   */\n      0x20\n        /* \"#utility.yul\":12872:12873   */\n      0x00\n        /* \"#utility.yul\":12862:12880   */\n      keccak256\n        /* \"#utility.yul\":12854:12880   */\n      swap1\n      pop\n        /* \"#utility.yul\":12746:12887   */\n      swap2\n      swap1\n      pop\n      jump\t// out\n        /* \"#utility.yul\":12893:12986   */\n    tag_134:\n        /* \"#utility.yul\":12930:12936   */\n      0x00\n        /* \"#utility.yul\":12977:12979   */\n      0x20\n        /* \"#utility.yul\":12972:12974   */\n      0x1f\n        /* \"#utility.yul\":12965:12970   */\n      dup4\n        /* \"#utility.yul\":12961:12975   */\n      add\n        /* \"#utility.yul\":12957:12980   */\n      div\n        /* \"#utility.yul\":12947:12980   */\n      swap1\n      pop\n        /* \"#utility.yul\":12893:12986   */\n      swap2\n      swap1\n      pop\n      jump\t// out\n        /* \"#utility.yul\":12992:13099   */\n    tag_135:\n        /* \"#utility.yul\":13036:13044   */\n      0x00\n        /* \"#utility.yul\":13086:13091   */\n      dup3\n        /* \"#utility.yul\":13080:13084   */\n      dup3\n        /* \"#utility.yul\":13076:13092   */\n      shl\n        /* \"#utility.yul\":13055:13092   */\n      swap1\n      pop\n        /* \"#utility.yul\":12992:13099   */\n      swap3\n      swap2\n      pop\n      pop\n      jump\t// out\n        /* \"#utility.yul\":13105:13498   */\n    tag_136:\n        /* \"#utility.yul\":13174:13180   */\n      0x00\n        /* \"#utility.yul\":13224:13225   */\n      0x08\n        /* \"#utility.yul\":13212:13222   */\n      dup4\n        /* \"#utility.yul\":13208:13226   */\n      mul\n        /* \"#utility.yul\":13247:13344   */\n      tag_267\n        /* \"#utility.yul\":13277:13343   */\n      0xffffffffffffffffffffffffffffffffffffffffffffffffffffffffffffffff\n        /* \"#utility.yul\":13266:13275   */\n      dup3\n        /* \"#utility.yul\":13247:13344   */\n      tag_135\n      jump\t// in\n    tag_267:\n        /* \"#utility.yul\":13365:13404   */\n      tag_268\n        /* \"#utility.yul\":13395:13403   */\n      dup7\n        /* \"#utility.yul\":13384:13393   */\n      dup4\n        /* \"#utility.yul\":13365:13404   */\n      tag_135\n      jump\t// in\n    tag_268:\n        /* \"#utility.yul\":13353:13404   */\n      swap6\n      pop\n        /* \"#utility.yul\":13437:13441   */\n      dup1\n        /* \"#utility.yul\":13433:13442   */\n      not\n        /* \"#utility.yul\":13426:13431   */\n      dup5\n        /* \"#utility.yul\":13422:13443   */\n      and\n        /* \"#utility.yul\":13413:13443   */\n      swap4\n      pop\n        /* \"#utility.yul\":13486:13490   */\n      dup1\n        /* \"#utility.yul\":13476:13484   */\n      dup7\n        /* \"#utility.yul\":13472:13491   */\n      and\n        /* \"#utility.yul\":13465:13470   */\n      dup5\n        /* \"#utility.yul\":13462:13492   */\n      or\n        /* \"#utility.yul\":13452:13492   */\n      swap3\n      pop\n        /* \"#utility.yul\":13181:13498   */\n      pop\n      pop\n        /* \"#utility.yul\":13105:13498   */\n      swap4\n      swap3\n      pop\n      pop\n      pop\n      jump\t// out\n        /* \"#utility.yul\":13504:13564   */\n    tag_137:\n        /* \"#utility.yul\":13532:13535   */\n      0x00\n        /* \"#utility.yul\":13553:13558   */\n      dup2\n        /* \"#utility.yul\":13546:13558   */\n      swap1\n      pop\n        /* \"#utility.yul\":13504:13564   */\n      swap2\n      swap1\n      pop\n      jump\t// out\n        /* \"#utility.yul\":13570:13712   */\n    tag_138:\n        /* \"#utility.yul\":13620:13629   */\n      0x00\n        /* \"#utility.yul\":13653:13706   */\n      tag_271\n        /* \"#utility.yul\":13671:13705   */\n      tag_272\n        /* \"#utility.yul\":13680:13704   */\n      tag_273\n        /* \"#utility.yul\":13698:13703   */\n      dup5\n        /* \"#utility.yul\":13680:13704   */\n      tag_109\n      jump\t// in\n    tag_273:\n        /* \"#utility.yul\":13671:13705   */\n      tag_137\n      jump\t// in\n    tag_272:\n        /* \"#utility.yul\":13653:13706   */\n      tag_109\n      jump\t// in\n    tag_271:\n        /* \"#utility.yul\":13640:13706   */\n      swap1\n      pop\n        /* \"#utility.yul\":13570:13712   */\n      swap2\n      swap1\n      pop\n      jump\t// out\n        /* \"#utility.yul\":13718:13793   */\n    tag_139:\n        /* \"#utility.yul\":13761:13764   */\n      0x00\n        /* \"#utility.yul\":13782:13787   */\n      dup2\n        /* \"#utility.yul\":13775:13787   */\n      swap1\n      pop\n        /* \"#utility.yul\":13718:13793   */\n      swap2\n      swap1\n      pop\n      jump\t// out\n        /* \"#utility.yul\":13799:14068   */\n    tag_140:\n        /* \"#utility.yul\":13909:13948   */\n      tag_276\n        /* \"#utility.yul\":13940:13947   */\n      dup4\n        /* \"#utility.yul\":13909:13948   */\n      tag_138\n      jump\t// in\n    tag_276:\n        /* \"#utility.yul\":13970:14061   */\n      tag_277\n        /* \"#utility.yul\":14019:14060   */\n      tag_278\n        /* \"#utility.yul\":14043:14059   */\n      dup3\n        /* \"#utility.yul\":14019:14060   */\n      tag_139\n      jump\t// in\n    tag_278:\n        /* \"#utility.yul\":14011:14017   */\n      dup5\n        /* \"#utility.yul\":14004:14008   */\n      dup5\n        /* \"#utility.yul\":13998:14009   */\n      sload\n        /* \"#utility.yul\":13970:14061   */\n      tag_136\n      jump\t// in\n    tag_277:\n        /* \"#utility.yul\":13964:13968   */\n      dup3\n        /* \"#utility.yul\":13957:14062   */\n      sstore\n        /* \"#utility.yul\":13875:14068   */\n      pop\n        /* \"#utility.yul\":13799:14068   */\n      pop\n      pop\n      pop\n      jump\t// out\n        /* \"#utility.yul\":14074:14147   */\n    tag_141:\n        /* \"#utility.yul\":14119:14122   */\n      0x00\n        /* \"#utility.yul\":14074:14147   */\n      swap1\n      jump\t// out\n        /* \"#utility.yul\":14153:14342   */\n    tag_142:\n        /* \"#utility.yul\":14230:14262   */\n      tag_281\n      tag_141\n      jump\t// in\n    tag_281:\n        /* \"#utility.yul\":14271:14336   */\n      tag_282\n        /* \"#utility.yul\":14329:14335   */\n      dup2\n        /* \"#utility.yul\":14321:14327   */\n      dup5\n        /* \"#utility.yul\":14315:14319   */\n      dup5\n        /* \"#utility.yul\":14271:14336   */\n      tag_140\n      jump\t// in\n    tag_282:\n        /* \"#utility.yul\":14206:14342   */\n      pop\n        /* \"#utility.yul\":14153:14342   */\n      pop\n      pop\n      jump\t// out\n        /* \"#utility.yul\":14348:14534   */\n    tag_143:\n        /* \"#utility.yul\":14408:14528   */\n    tag_284:\n        /* \"#utility.yul\":14425:14428   */\n      dup2\n        /* \"#utility.yul\":14418:14423   */\n      dup2\n        /* \"#utility.yul\":14415:14429   */\n      lt\n        /* \"#utility.yul\":14408:14528   */\n      iszero\n      tag_286\n      jumpi\n        /* \"#utility.yul\":14479:14518   */\n      tag_287\n        /* \"#utility.yul\":14516:14517   */\n      0x00\n        /* \"#utility.yul\":14509:14514   */\n      dup3\n        /* \"#utility.yul\":14479:14518   */\n      tag_142\n      jump\t// in\n    tag_287:\n        /* \"#utility.yul\":14452:14453   */\n      0x01\n        /* \"#utility.yul\":14445:14450   */\n      dup2\n        /* \"#utility.yul\":14441:14454   */\n      add\n        /* \"#utility.yul\":14432:14454   */\n      swap1\n      pop\n        /* \"#utility.yul\":14408:14528   */\n      jump(tag_284)\n    tag_286:\n        /* \"#utility.yul\":14348:14534   */\n      pop\n      pop\n      jump\t// out\n        /* \"#utility.yul\":14540:15083   */\n    tag_144:\n        /* \"#utility.yul\":14641:14643   */\n      0x1f\n        /* \"#utility.yul\":14636:14639   */\n      dup3\n        /* \"#utility.yul\":14633:14644   */\n      gt\n        /* \"#utility.yul\":14630:15076   */\n      iszero\n      tag_289\n      jumpi\n        /* \"#utility.yul\":14675:14713   */\n      tag_290\n        /* \"#utility.yul\":14707:14712   */\n      dup2\n        /* \"#utility.yul\":14675:14713   */\n      tag_133\n      jump\t// in\n    tag_290:\n        /* \"#utility.yul\":14759:14788   */\n      tag_291\n        /* \"#utility.yul\":14777:14787   */\n      dup5\n        /* \"#utility.yul\":14759:14788   */\n      tag_134\n      jump\t// in\n    tag_291:\n        /* \"#utility.yul\":14749:14757   */\n      dup2\n        /* \"#utility.yul\":14745:14789   */\n      add\n        /* \"#utility.yul\":14942:14944   */\n      0x20\n        /* \"#utility.yul\":14930:14940   */\n      dup6\n        /* \"#utility.yul\":14927:14945   */\n      lt\n        /* \"#utility.yul\":14924:14973   */\n      iszero\n      tag_292\n      jumpi\n        /* \"#utility.yul\":14963:14971   */\n      dup2\n        /* \"#utility.yul\":14948:14971   */\n      swap1\n      pop\n        /* \"#utility.yul\":14924:14973   */\n    tag_292:\n        /* \"#utility.yul\":14986:15066   */\n      tag_293\n        /* \"#utility.yul\":15042:15064   */\n      tag_294\n        /* \"#utility.yul\":15060:15063   */\n      dup6\n        /* \"#utility.yul\":15042:15064   */\n      tag_134\n      jump\t// in\n    tag_294:\n        /* \"#utility.yul\":15032:15040   */\n      dup4\n        /* \"#utility.yul\":15028:15065   */\n      add\n        /* \"#utility.yul\":15015:15026   */\n      dup3\n        /* \"#utility.yul\":14986:15066   */\n      tag_143\n      jump\t// in\n    tag_293:\n        /* \"#utility.yul\":14645:15076   */\n      pop\n      pop\n        /* \"#utility.yul\":14630:15076   */\n    tag_289:\n        /* \"#utility.yul\":14540:15083   */\n      pop\n      pop\n      pop\n      jump\t// out\n        /* \"#utility.yul\":15089:15206   */\n    tag_145:\n        /* \"#utility.yul\":15143:15151   */\n      0x00\n        /* \"#utility.yul\":15193:15198   */\n      dup3\n        /* \"#utility.yul\":15187:15191   */\n      dup3\n        /* \"#utility.yul\":15183:15199   */\n      shr\n        /* \"#utility.yul\":15162:15199   */\n      swap1\n      pop\n        /* \"#utility.yul\":15089:15206   */\n      swap3\n      swap2\n      pop\n      pop\n      jump\t// out\n        /* \"#utility.yul\":15212:15381   */\n    tag_146:\n        /* \"#utility.yul\":15256:15262   */\n      0x00\n        /* \"#utility.yul\":15289:15340   */\n      tag_297\n        /* \"#utility.yul\":15337:15338   */\n      0x00\n        /* \"#utility.yul\":15333:15339   */\n      not\n        /* \"#utility.yul\":15325:15330   */\n      dup5\n        /* \"#utility.yul\":15322:15323   */\n      0x08\n        /* \"#utility.yul\":15318:15331   */\n      mul\n        /* \"#utility.yul\":15289:15340   */\n      tag_145\n      jump\t// in\n    tag_297:\n        /* \"#utility.yul\":15285:15341   */\n      not\n        /* \"#utility.yul\":15370:15374   */\n      dup1\n        /* \"#utility.yul\":15364:15368   */\n      dup4\n        /* \"#utility.yul\":15360:15375   */\n      and\n        /* \"#utility.yul\":15350:15375   */\n      swap2\n      pop\n        /* \"#utility.yul\":15263:15381   */\n      pop\n        /* \"#utility.yul\":15212:15381   */\n      swap3\n      swap2\n      pop\n      pop\n      jump\t// out\n        /* \"#utility.yul\":15386:15681   */\n    tag_147:\n        /* \"#utility.yul\":15462:15466   */\n      0x00\n        /* \"#utility.yul\":15608:15637   */\n      tag_299\n        /* \"#utility.yul\":15633:15636   */\n      dup4\n        /* \"#utility.yul\":15627:15631   */\n      dup4\n        /* \"#utility.yul\":15608:15637   */\n      tag_146\n      jump\t// in\n    tag_299:\n        /* \"#utility.yul\":15600:15637   */\n      swap2\n      pop\n        /* \"#utility.yul\":15670:15673   */\n      dup3\n        /* \"#utility.yul\":15667:15668   */\n      0x02\n        /* \"#utility.yul\":15663:15674   */\n      mul\n        /* \"#utility.yul\":15657:15661   */\n      dup3\n        /* \"#utility.yul\":15654:15675   */\n      or\n        /* \"#utility.yul\":15646:15675   */\n      swap1\n      pop\n        /* \"#utility.yul\":15386:15681   */\n      swap3\n      swap2\n      pop\n      pop\n      jump\t// out\n        /* \"#utility.yul\":15686:17081   */\n    tag_94:\n        /* \"#utility.yul\":15803:15840   */\n      tag_301\n        /* \"#utility.yul\":15836:15839   */\n      dup3\n        /* \"#utility.yul\":15803:15840   */\n      tag_104\n      jump\t// in\n    tag_301:\n        /* \"#utility.yul\":15905:15923   */\n      0xffffffffffffffff\n        /* \"#utility.yul\":15897:15903   */\n      dup2\n        /* \"#utility.yul\":15894:15924   */\n      gt\n        /* \"#utility.yul\":15891:15947   */\n      iszero\n      tag_302\n      jumpi\n        /* \"#utility.yul\":15927:15945   */\n      tag_303\n      tag_113\n      jump\t// in\n    tag_303:\n        /* \"#utility.yul\":15891:15947   */\n    tag_302:\n        /* \"#utility.yul\":15971:16009   */\n      tag_304\n        /* \"#utility.yul\":16003:16007   */\n      dup3\n        /* \"#utility.yul\":15997:16008   */\n      sload\n        /* \"#utility.yul\":15971:16009   */\n      tag_50\n      jump\t// in\n    tag_304:\n        /* \"#utility.yul\":16056:16123   */\n      tag_305\n        /* \"#utility.yul\":16116:16122   */\n      dup3\n        /* \"#utility.yul\":16108:16114   */\n      dup3\n        /* \"#utility.yul\":16102:16106   */\n      dup6\n        /* \"#utility.yul\":16056:16123   */\n      tag_144\n      jump\t// in\n    tag_305:\n        /* \"#utility.yul\":16150:16151   */\n      0x00\n        /* \"#utility.yul\":16174:16178   */\n      0x20\n        /* \"#utility.yul\":16161:16178   */\n      swap1\n      pop\n        /* \"#utility.yul\":16206:16208   */\n      0x1f\n        /* \"#utility.yul\":16198:16204   */\n      dup4\n        /* \"#utility.yul\":16195:16209   */\n      gt\n        /* \"#utility.yul\":16223:16224   */\n      0x01\n        /* \"#utility.yul\":16218:16836   */\n      dup2\n      eq\n      tag_307\n      jumpi\n        /* \"#utility.yul\":16880:16881   */\n      0x00\n        /* \"#utility.yul\":16897:16903   */\n      dup5\n        /* \"#utility.yul\":16894:16971   */\n      iszero\n      tag_308\n      jumpi\n        /* \"#utility.yul\":16946:16955   */\n      dup3\n        /* \"#utility.yul\":16941:16944   */\n      dup8\n        /* \"#utility.yul\":16937:16956   */\n      add\n        /* \"#utility.yul\":16931:16957   */\n      mload\n        /* \"#utility.yul\":16922:16957   */\n      swap1\n      pop\n        /* \"#utility.yul\":16894:16971   */\n    tag_308:\n        /* \"#utility.yul\":16997:17064   */\n      tag_309\n        /* \"#utility.yul\":17057:17063   */\n      dup6\n        /* \"#utility.yul\":17050:17055   */\n      dup3\n        /* \"#utility.yul\":16997:17064   */\n      tag_147\n      jump\t// in\n    tag_309:\n        /* \"#utility.yul\":16991:16995   */\n      dup7\n        /* \"#utility.yul\":16984:17065   */\n      sstore\n        /* \"#utility.yul\":16853:17075   */\n      pop\n        /* \"#utility.yul\":16188:17075   */\n      jump(tag_306)\n        /* \"#utility.yul\":16218:16836   */\n    tag_307:\n        /* \"#utility.yul\":16270:16274   */\n      0x1f\n        /* \"#utility.yul\":16266:16275   */\n      not\n        /* \"#utility.yul\":16258:16264   */\n      dup5\n        /* \"#utility.yul\":16254:16276   */\n      and\n        /* \"#utility.yul\":16304:16341   */\n      tag_310\n        /* \"#utility.yul\":16336:16340   */\n      dup7\n        /* \"#utility.yul\":16304:16341   */\n      tag_133\n      jump\t// in\n    tag_310:\n        /* \"#utility.yul\":16363:16364   */\n      0x00\n        /* \"#utility.yul\":16377:16585   */\n    tag_311:\n        /* \"#utility.yul\":16391:16398   */\n      dup3\n        /* \"#utility.yul\":16388:16389   */\n      dup2\n        /* \"#utility.yul\":16385:16399   */\n      lt\n        /* \"#utility.yul\":16377:16585   */\n      iszero\n      tag_313\n      jumpi\n        /* \"#utility.yul\":16470:16479   */\n      dup5\n        /* \"#utility.yul\":16465:16468   */\n      dup10\n        /* \"#utility.yul\":16461:16480   */\n      add\n        /* \"#utility.yul\":16455:16481   */\n      mload\n        /* \"#utility.yul\":16447:16453   */\n      dup3\n        /* \"#utility.yul\":16440:16482   */\n      sstore\n        /* \"#utility.yul\":16521:16522   */\n      0x01\n        /* \"#utility.yul\":16513:16519   */\n      dup3\n        /* \"#utility.yul\":16509:16523   */\n      add\n        /* \"#utility.yul\":16499:16523   */\n      swap2\n      pop\n        /* \"#utility.yul\":16568:16570   */\n      0x20\n        /* \"#utility.yul\":16557:16566   */\n      dup6\n        /* \"#utility.yul\":16553:16571   */\n      add\n        /* \"#utility.yul\":16540:16571   */\n      swap5\n      pop\n        /* \"#utility.yul\":16414:16418   */\n      0x20\n        /* \"#utility.yul\":16411:16412   */\n      dup2\n        /* \"#utility.yul\":16407:16419   */\n      add\n        /* \"#utility.yul\":16402:16419   */\n      swap1\n      pop\n        /* \"#utility.yul\":16377:16585   */\n      jump(tag_311)\n    tag_313:\n        /* \"#utility.yul\":16613:16619   */\n      dup7\n        /* \"#utility.yul\":16604:16611   */\n      dup4\n        /* \"#utility.yul\":16601:16620   */\n      lt\n        /* \"#utility.yul\":16598:16777   */\n      iszero\n      tag_314\n      jumpi\n        /* \"#utility.yul\":16671:16680   */\n      dup5\n        /* \"#utility.yul\":16666:16669   */\n      dup10\n        /* \"#utility.yul\":16662:16681   */\n      add\n        /* \"#utility.yul\":16656:16682   */\n      mload\n        /* \"#utility.yul\":16714:16762   */\n      tag_315\n        /* \"#utility.yul\":16756:16760   */\n      0x1f\n        /* \"#utility.yul\":16748:16754   */\n      dup10\n        /* \"#utility.yul\":16744:16761   */\n      and\n        /* \"#utility.yul\":16733:16742   */\n      dup3\n        /* \"#utility.yul\":16714:16762   */\n      tag_146\n      jump\t// in\n    tag_315:\n        /* \"#utility.yul\":16706:16712   */\n      dup4\n        /* \"#utility.yul\":16699:16763   */\n      sstore\n        /* \"#utility.yul\":16621:16777   */\n      pop\n        /* \"#utility.yul\":16598:16777   */\n    tag_314:\n        /* \"#utility.yul\":16823:16824   */\n      0x01\n        /* \"#utility.yul\":16819:16820   */\n      0x02\n        /* \"#utility.yul\":16811:16817   */\n      dup9\n        /* \"#utility.yul\":16807:16821   */\n      mul\n        /* \"#utility.yul\":16803:16825   */\n      add\n        /* \"#utility.yul\":16797:16801   */\n      dup9\n        /* \"#utility.yul\":16790:16826   */\n      sstore\n        /* \"#utility.yul\":16225:16836   */\n      pop\n      pop\n      pop\n        /* \"#utility.yul\":16188:17075   */\n    tag_306:\n      pop\n        /* \"#utility.yul\":15778:17081   */\n      pop\n      pop\n      pop\n        /* \"#utility.yul\":15686:17081   */\n      pop\n      pop\n      jump\t// out\n\n    auxdata: 0xa26469706673582212207c4d4dd47faa00c28ec2da89330fb20b84785af95c8cea301d56be901de5052764736f6c63430008120033\n}\n",
				"bytecode": {
					"linkReferences": {},
					"object": "608060405234801561001057600080fd5b5060016000803373ffffffffffffffffffffffffffffffffffffffff1673ffffffffffffffffffffffffffffffffffffffff16815260200190815260200160002060006101000a81548160ff02191690831515021790555061151c806100776000396000f3fe608060405234801561001057600080fd5b50600436106100625760003560e01c80631785f53c14610067578063601f8cf51461008357806364dbbaa21461009f57806370480275146100d2578063ae15eb8e146100ee578063e8f50a671461010f575b600080fd5b610081600480360381019061007c9190610bce565b61012b565b005b61009d60048036038101906100989190610bce565b610210565b005b6100b960048036038101906100b49190610bce565b6102f6565b6040516100c99493929190610ca4565b60405180910390f35b6100ec60048036038101906100e79190610bce565b61061d565b005b6100f6610702565b6040516101069493929190610ca4565b60405180910390f35b61012960048036038101906101249190610e5f565b6109ef565b005b6000803373ffffffffffffffffffffffffffffffffffffffff1673ffffffffffffffffffffffffffffffffffffffff16815260200190815260200160002060009054906101000a900460ff166101b6576040517f08c379a00000000000000000000000000000000000000000000000000000000081526004016101ad90610fa0565b60405180910390fd5b60008060008373ffffffffffffffffffffffffffffffffffffffff1673ffffffffffffffffffffffffffffffffffffffff16815260200190815260200160002060006101000a81548160ff02191690831515021790555050565b600260003373ffffffffffffffffffffffffffffffffffffffff1673ffffffffffffffffffffffffffffffffffffffff16815260200190815260200160002060009054906101000a900460ff1661029c576040517f08c379a000000000000000000000000000000000000000000000000000000000815260040161029390611032565b60405180910390fd5b60018060008373ffffffffffffffffffffffffffffffffffffffff1673ffffffffffffffffffffffffffffffffffffffff16815260200190815260200160002060006101000a81548160ff02191690831515021790555050565b60606000606080600160003373ffffffffffffffffffffffffffffffffffffffff1673ffffffffffffffffffffffffffffffffffffffff16815260200190815260200160002060009054906101000a900460ff16610389576040517f08c379a0000000000000000000000000000000000000000000000000000000008152600401610380906110c4565b60405180910390fd5b600260008673ffffffffffffffffffffffffffffffffffffffff1673ffffffffffffffffffffffffffffffffffffffff16815260200190815260200160002060009054906101000a900460ff16610415576040517f08c379a000000000000000000000000000000000000000000000000000000000815260040161040c90611156565b60405180910390fd5b6000600360008773ffffffffffffffffffffffffffffffffffffffff1673ffffffffffffffffffffffffffffffffffffffff16815260200190815260200160002090508060000181600101548260020183600301838054610475906111a5565b80601f01602080910402602001604051908101604052809291908181526020018280546104a1906111a5565b80156104ee5780601f106104c3576101008083540402835291602001916104ee565b820191906000526020600020905b8154815290600101906020018083116104d157829003601f168201915b50505050509350818054610501906111a5565b80601f016020809104026020016040519081016040528092919081815260200182805461052d906111a5565b801561057a5780601f1061054f5761010080835404028352916020019161057a565b820191906000526020600020905b81548152906001019060200180831161055d57829003601f168201915b5050505050915080805461058d906111a5565b80601f01602080910402602001604051908101604052809291908181526020018280546105b9906111a5565b80156106065780601f106105db57610100808354040283529160200191610606565b820191906000526020600020905b8154815290600101906020018083116105e957829003601f168201915b505050505090509450945094509450509193509193565b6000803373ffffffffffffffffffffffffffffffffffffffff1673ffffffffffffffffffffffffffffffffffffffff16815260200190815260200160002060009054906101000a900460ff166106a8576040517f08c379a000000000000000000000000000000000000000000000000000000000815260040161069f90610fa0565b60405180910390fd5b60016000808373ffffffffffffffffffffffffffffffffffffffff1673ffffffffffffffffffffffffffffffffffffffff16815260200190815260200160002060006101000a81548160ff02191690831515021790555050565b60606000606080600260003373ffffffffffffffffffffffffffffffffffffffff1673ffffffffffffffffffffffffffffffffffffffff16815260200190815260200160002060009054906101000a900460ff16806107a957506000803373ffffffffffffffffffffffffffffffffffffffff1673ffffffffffffffffffffffffffffffffffffffff16815260200190815260200160002060009054906101000a900460ff165b6107e8576040517f08c379a00000000000000000000000000000000000000000000000000000000081526004016107df90611248565b60405180910390fd5b6000600360003373ffffffffffffffffffffffffffffffffffffffff1673ffffffffffffffffffffffffffffffffffffffff16815260200190815260200160002090508060000181600101548260020183600301838054610848906111a5565b80601f0160208091040260200160405190810160405280929190818152602001828054610874906111a5565b80156108c15780601f10610896576101008083540402835291602001916108c1565b820191906000526020600020905b8154815290600101906020018083116108a457829003601f168201915b505050505093508180546108d4906111a5565b80601f0160208091040260200160405190810160405280929190818152602001828054610900906111a5565b801561094d5780601f106109225761010080835404028352916020019161094d565b820191906000526020600020905b81548152906001019060200180831161093057829003601f168201915b50505050509150808054610960906111a5565b80601f016020809104026020016040519081016040528092919081815260200182805461098c906111a5565b80156109d95780601f106109ae576101008083540402835291602001916109d9565b820191906000526020600020905b8154815290600101906020018083116109bc57829003601f168201915b5050505050905094509450945094505090919293565b6000803373ffffffffffffffffffffffffffffffffffffffff1673ffffffffffffffffffffffffffffffffffffffff16815260200190815260200160002060009054906101000a900460ff16610a7a576040517f08c379a0000000000000000000000000000000000000000000000000000000008152600401610a7190610fa0565b60405180910390fd5b6001600260008773ffffffffffffffffffffffffffffffffffffffff1673ffffffffffffffffffffffffffffffffffffffff16815260200190815260200160002060006101000a81548160ff0219169083151502179055506000600360008773ffffffffffffffffffffffffffffffffffffffff1673ffffffffffffffffffffffffffffffffffffffff168152602001908152602001600020905084816000019081610b269190611414565b5083816001018190555082816002019081610b419190611414565b5081816003019081610b539190611414565b50505050505050565b6000604051905090565b600080fd5b600080fd5b600073ffffffffffffffffffffffffffffffffffffffff82169050919050565b6000610b9b82610b70565b9050919050565b610bab81610b90565b8114610bb657600080fd5b50565b600081359050610bc881610ba2565b92915050565b600060208284031215610be457610be3610b66565b5b6000610bf284828501610bb9565b91505092915050565b600081519050919050565b600082825260208201905092915050565b60005b83811015610c35578082015181840152602081019050610c1a565b60008484015250505050565b6000601f19601f8301169050919050565b6000610c5d82610bfb565b610c678185610c06565b9350610c77818560208601610c17565b610c8081610c41565b840191505092915050565b6000819050919050565b610c9e81610c8b565b82525050565b60006080820190508181036000830152610cbe8187610c52565b9050610ccd6020830186610c95565b8181036040830152610cdf8185610c52565b90508181036060830152610cf38184610c52565b905095945050505050565b600080fd5b600080fd5b7f4e487b7100000000000000000000000000000000000000000000000000000000600052604160045260246000fd5b610d4082610c41565b810181811067ffffffffffffffff82111715610d5f57610d5e610d08565b5b80604052505050565b6000610d72610b5c565b9050610d7e8282610d37565b919050565b600067ffffffffffffffff821115610d9e57610d9d610d08565b5b610da782610c41565b9050602081019050919050565b82818337600083830152505050565b6000610dd6610dd184610d83565b610d68565b905082815260208101848484011115610df257610df1610d03565b5b610dfd848285610db4565b509392505050565b600082601f830112610e1a57610e19610cfe565b5b8135610e2a848260208601610dc3565b91505092915050565b610e3c81610c8b565b8114610e4757600080fd5b50565b600081359050610e5981610e33565b92915050565b600080600080600060a08688031215610e7b57610e7a610b66565b5b6000610e8988828901610bb9565b955050602086013567ffffffffffffffff811115610eaa57610ea9610b6b565b5b610eb688828901610e05565b9450506040610ec788828901610e4a565b935050606086013567ffffffffffffffff811115610ee857610ee7610b6b565b5b610ef488828901610e05565b925050608086013567ffffffffffffffff811115610f1557610f14610b6b565b5b610f2188828901610e05565b9150509295509295909350565b7f4f6e6c7920617574686f72697a656420697373756572732063616e2063616c6c60008201527f20746869732066756e6374696f6e000000000000000000000000000000000000602082015250565b6000610f8a602e83610c06565b9150610f9582610f2e565b604082019050919050565b60006020820190508181036000830152610fb981610f7d565b9050919050565b7f4f6e6c792073747564656e742063616e2063616c6c20746869732066756e637460008201527f696f6e0000000000000000000000000000000000000000000000000000000000602082015250565b600061101c602383610c06565b915061102782610fc0565b604082019050919050565b6000602082019050818103600083015261104b8161100f565b9050919050565b7f4f6e6c7920617574686f72697a656420766965776572732063616e2063616c6c60008201527f20746869732066756e6374696f6e000000000000000000000000000000000000602082015250565b60006110ae602e83610c06565b91506110b982611052565b604082019050919050565b600060208201905081810360008301526110dd816110a1565b9050919050565b7f53747564656e74206e6f7420666f756e64206f7220756e617574686f72697a6560008201527f642e000000000000000000000000000000000000000000000000000000000000602082015250565b6000611140602283610c06565b915061114b826110e4565b604082019050919050565b6000602082019050818103600083015261116f81611133565b9050919050565b7f4e487b7100000000000000000000000000000000000000000000000000000000600052602260045260246000fd5b600060028204905060018216806111bd57607f821691505b6020821081036111d0576111cf611176565b5b50919050565b7f596f7520617265206e6f7420617574686f72697a656420746f2072756e20746860008201527f69732066756e6374696f6e2e0000000000000000000000000000000000000000602082015250565b6000611232602c83610c06565b915061123d826111d6565b604082019050919050565b6000602082019050818103600083015261126181611225565b9050919050565b60008190508160005260206000209050919050565b60006020601f8301049050919050565b600082821b905092915050565b6000600883026112ca7fffffffffffffffffffffffffffffffffffffffffffffffffffffffffffffffff8261128d565b6112d4868361128d565b95508019841693508086168417925050509392505050565b6000819050919050565b600061131161130c61130784610c8b565b6112ec565b610c8b565b9050919050565b6000819050919050565b61132b836112f6565b61133f61133782611318565b84845461129a565b825550505050565b600090565b611354611347565b61135f818484611322565b505050565b5b818110156113835761137860008261134c565b600181019050611365565b5050565b601f8211156113c85761139981611268565b6113a28461127d565b810160208510156113b1578190505b6113c56113bd8561127d565b830182611364565b50505b505050565b600082821c905092915050565b60006113eb600019846008026113cd565b1980831691505092915050565b600061140483836113da565b9150826002028217905092915050565b61141d82610bfb565b67ffffffffffffffff81111561143657611435610d08565b5b61144082546111a5565b61144b828285611387565b600060209050601f83116001811461147e576000841561146c578287015190505b61147685826113f8565b8655506114de565b601f19841661148c86611268565b60005b828110156114b45784890151825560018201915060208501945060208101905061148f565b868310156114d157848901516114cd601f8916826113da565b8355505b6001600288020188555050505b50505050505056fea26469706673582212207c4d4dd47faa00c28ec2da89330fb20b84785af95c8cea301d56be901de5052764736f6c63430008120033",
					"opcodes": "PUSH1 0x80 PUSH1 0x40 MSTORE CALLVALUE DUP1 ISZERO PUSH2 0x10 JUMPI PUSH1 0x0 DUP1 REVERT JUMPDEST POP PUSH1 0x1 PUSH1 0x0 DUP1 CALLER PUSH20 0xFFFFFFFFFFFFFFFFFFFFFFFFFFFFFFFFFFFFFFFF AND PUSH20 0xFFFFFFFFFFFFFFFFFFFFFFFFFFFFFFFFFFFFFFFF AND DUP2 MSTORE PUSH1 0x20 ADD SWAP1 DUP2 MSTORE PUSH1 0x20 ADD PUSH1 0x0 KECCAK256 PUSH1 0x0 PUSH2 0x100 EXP DUP2 SLOAD DUP2 PUSH1 0xFF MUL NOT AND SWAP1 DUP4 ISZERO ISZERO MUL OR SWAP1 SSTORE POP PUSH2 0x151C DUP1 PUSH2 0x77 PUSH1 0x0 CODECOPY PUSH1 0x0 RETURN INVALID PUSH1 0x80 PUSH1 0x40 MSTORE CALLVALUE DUP1 ISZERO PUSH2 0x10 JUMPI PUSH1 0x0 DUP1 REVERT JUMPDEST POP PUSH1 0x4 CALLDATASIZE LT PUSH2 0x62 JUMPI PUSH1 0x0 CALLDATALOAD PUSH1 0xE0 SHR DUP1 PUSH4 0x1785F53C EQ PUSH2 0x67 JUMPI DUP1 PUSH4 0x601F8CF5 EQ PUSH2 0x83 JUMPI DUP1 PUSH4 0x64DBBAA2 EQ PUSH2 0x9F JUMPI DUP1 PUSH4 0x70480275 EQ PUSH2 0xD2 JUMPI DUP1 PUSH4 0xAE15EB8E EQ PUSH2 0xEE JUMPI DUP1 PUSH4 0xE8F50A67 EQ PUSH2 0x10F JUMPI JUMPDEST PUSH1 0x0 DUP1 REVERT JUMPDEST PUSH2 0x81 PUSH1 0x4 DUP1 CALLDATASIZE SUB DUP2 ADD SWAP1 PUSH2 0x7C SWAP2 SWAP1 PUSH2 0xBCE JUMP JUMPDEST PUSH2 0x12B JUMP JUMPDEST STOP JUMPDEST PUSH2 0x9D PUSH1 0x4 DUP1 CALLDATASIZE SUB DUP2 ADD SWAP1 PUSH2 0x98 SWAP2 SWAP1 PUSH2 0xBCE JUMP JUMPDEST PUSH2 0x210 JUMP JUMPDEST STOP JUMPDEST PUSH2 0xB9 PUSH1 0x4 DUP1 CALLDATASIZE SUB DUP2 ADD SWAP1 PUSH2 0xB4 SWAP2 SWAP1 PUSH2 0xBCE JUMP JUMPDEST PUSH2 0x2F6 JUMP JUMPDEST PUSH1 0x40 MLOAD PUSH2 0xC9 SWAP5 SWAP4 SWAP3 SWAP2 SWAP1 PUSH2 0xCA4 JUMP JUMPDEST PUSH1 0x40 MLOAD DUP1 SWAP2 SUB SWAP1 RETURN JUMPDEST PUSH2 0xEC PUSH1 0x4 DUP1 CALLDATASIZE SUB DUP2 ADD SWAP1 PUSH2 0xE7 SWAP2 SWAP1 PUSH2 0xBCE JUMP JUMPDEST PUSH2 0x61D JUMP JUMPDEST STOP JUMPDEST PUSH2 0xF6 PUSH2 0x702 JUMP JUMPDEST PUSH1 0x40 MLOAD PUSH2 0x106 SWAP5 SWAP4 SWAP3 SWAP2 SWAP1 PUSH2 0xCA4 JUMP JUMPDEST PUSH1 0x40 MLOAD DUP1 SWAP2 SUB SWAP1 RETURN JUMPDEST PUSH2 0x129 PUSH1 0x4 DUP1 CALLDATASIZE SUB DUP2 ADD SWAP1 PUSH2 0x124 SWAP2 SWAP1 PUSH2 0xE5F JUMP JUMPDEST PUSH2 0x9EF JUMP JUMPDEST STOP JUMPDEST PUSH1 0x0 DUP1 CALLER PUSH20 0xFFFFFFFFFFFFFFFFFFFFFFFFFFFFFFFFFFFFFFFF AND PUSH20 0xFFFFFFFFFFFFFFFFFFFFFFFFFFFFFFFFFFFFFFFF AND DUP2 MSTORE PUSH1 0x20 ADD SWAP1 DUP2 MSTORE PUSH1 0x20 ADD PUSH1 0x0 KECCAK256 PUSH1 0x0 SWAP1 SLOAD SWAP1 PUSH2 0x100 EXP SWAP1 DIV PUSH1 0xFF AND PUSH2 0x1B6 JUMPI PUSH1 0x40 MLOAD PUSH32 0x8C379A000000000000000000000000000000000000000000000000000000000 DUP2 MSTORE PUSH1 0x4 ADD PUSH2 0x1AD SWAP1 PUSH2 0xFA0 JUMP JUMPDEST PUSH1 0x40 MLOAD DUP1 SWAP2 SUB SWAP1 REVERT JUMPDEST PUSH1 0x0 DUP1 PUSH1 0x0 DUP4 PUSH20 0xFFFFFFFFFFFFFFFFFFFFFFFFFFFFFFFFFFFFFFFF AND PUSH20 0xFFFFFFFFFFFFFFFFFFFFFFFFFFFFFFFFFFFFFFFF AND DUP2 MSTORE PUSH1 0x20 ADD SWAP1 DUP2 MSTORE PUSH1 0x20 ADD PUSH1 0x0 KECCAK256 PUSH1 0x0 PUSH2 0x100 EXP DUP2 SLOAD DUP2 PUSH1 0xFF MUL NOT AND SWAP1 DUP4 ISZERO ISZERO MUL OR SWAP1 SSTORE POP POP JUMP JUMPDEST PUSH1 0x2 PUSH1 0x0 CALLER PUSH20 0xFFFFFFFFFFFFFFFFFFFFFFFFFFFFFFFFFFFFFFFF AND PUSH20 0xFFFFFFFFFFFFFFFFFFFFFFFFFFFFFFFFFFFFFFFF AND DUP2 MSTORE PUSH1 0x20 ADD SWAP1 DUP2 MSTORE PUSH1 0x20 ADD PUSH1 0x0 KECCAK256 PUSH1 0x0 SWAP1 SLOAD SWAP1 PUSH2 0x100 EXP SWAP1 DIV PUSH1 0xFF AND PUSH2 0x29C JUMPI PUSH1 0x40 MLOAD PUSH32 0x8C379A000000000000000000000000000000000000000000000000000000000 DUP2 MSTORE PUSH1 0x4 ADD PUSH2 0x293 SWAP1 PUSH2 0x1032 JUMP JUMPDEST PUSH1 0x40 MLOAD DUP1 SWAP2 SUB SWAP1 REVERT JUMPDEST PUSH1 0x1 DUP1 PUSH1 0x0 DUP4 PUSH20 0xFFFFFFFFFFFFFFFFFFFFFFFFFFFFFFFFFFFFFFFF AND PUSH20 0xFFFFFFFFFFFFFFFFFFFFFFFFFFFFFFFFFFFFFFFF AND DUP2 MSTORE PUSH1 0x20 ADD SWAP1 DUP2 MSTORE PUSH1 0x20 ADD PUSH1 0x0 KECCAK256 PUSH1 0x0 PUSH2 0x100 EXP DUP2 SLOAD DUP2 PUSH1 0xFF MUL NOT AND SWAP1 DUP4 ISZERO ISZERO MUL OR SWAP1 SSTORE POP POP JUMP JUMPDEST PUSH1 0x60 PUSH1 0x0 PUSH1 0x60 DUP1 PUSH1 0x1 PUSH1 0x0 CALLER PUSH20 0xFFFFFFFFFFFFFFFFFFFFFFFFFFFFFFFFFFFFFFFF AND PUSH20 0xFFFFFFFFFFFFFFFFFFFFFFFFFFFFFFFFFFFFFFFF AND DUP2 MSTORE PUSH1 0x20 ADD SWAP1 DUP2 MSTORE PUSH1 0x20 ADD PUSH1 0x0 KECCAK256 PUSH1 0x0 SWAP1 SLOAD SWAP1 PUSH2 0x100 EXP SWAP1 DIV PUSH1 0xFF AND PUSH2 0x389 JUMPI PUSH1 0x40 MLOAD PUSH32 0x8C379A000000000000000000000000000000000000000000000000000000000 DUP2 MSTORE PUSH1 0x4 ADD PUSH2 0x380 SWAP1 PUSH2 0x10C4 JUMP JUMPDEST PUSH1 0x40 MLOAD DUP1 SWAP2 SUB SWAP1 REVERT JUMPDEST PUSH1 0x2 PUSH1 0x0 DUP7 PUSH20 0xFFFFFFFFFFFFFFFFFFFFFFFFFFFFFFFFFFFFFFFF AND PUSH20 0xFFFFFFFFFFFFFFFFFFFFFFFFFFFFFFFFFFFFFFFF AND DUP2 MSTORE PUSH1 0x20 ADD SWAP1 DUP2 MSTORE PUSH1 0x20 ADD PUSH1 0x0 KECCAK256 PUSH1 0x0 SWAP1 SLOAD SWAP1 PUSH2 0x100 EXP SWAP1 DIV PUSH1 0xFF AND PUSH2 0x415 JUMPI PUSH1 0x40 MLOAD PUSH32 0x8C379A000000000000000000000000000000000000000000000000000000000 DUP2 MSTORE PUSH1 0x4 ADD PUSH2 0x40C SWAP1 PUSH2 0x1156 JUMP JUMPDEST PUSH1 0x40 MLOAD DUP1 SWAP2 SUB SWAP1 REVERT JUMPDEST PUSH1 0x0 PUSH1 0x3 PUSH1 0x0 DUP8 PUSH20 0xFFFFFFFFFFFFFFFFFFFFFFFFFFFFFFFFFFFFFFFF AND PUSH20 0xFFFFFFFFFFFFFFFFFFFFFFFFFFFFFFFFFFFFFFFF AND DUP2 MSTORE PUSH1 0x20 ADD SWAP1 DUP2 MSTORE PUSH1 0x20 ADD PUSH1 0x0 KECCAK256 SWAP1 POP DUP1 PUSH1 0x0 ADD DUP2 PUSH1 0x1 ADD SLOAD DUP3 PUSH1 0x2 ADD DUP4 PUSH1 0x3 ADD DUP4 DUP1 SLOAD PUSH2 0x475 SWAP1 PUSH2 0x11A5 JUMP JUMPDEST DUP1 PUSH1 0x1F ADD PUSH1 0x20 DUP1 SWAP2 DIV MUL PUSH1 0x20 ADD PUSH1 0x40 MLOAD SWAP1 DUP2 ADD PUSH1 0x40 MSTORE DUP1 SWAP3 SWAP2 SWAP1 DUP2 DUP2 MSTORE PUSH1 0x20 ADD DUP3 DUP1 SLOAD PUSH2 0x4A1 SWAP1 PUSH2 0x11A5 JUMP JUMPDEST DUP1 ISZERO PUSH2 0x4EE JUMPI DUP1 PUSH1 0x1F LT PUSH2 0x4C3 JUMPI PUSH2 0x100 DUP1 DUP4 SLOAD DIV MUL DUP4 MSTORE SWAP2 PUSH1 0x20 ADD SWAP2 PUSH2 0x4EE JUMP JUMPDEST DUP3 ADD SWAP2 SWAP1 PUSH1 0x0 MSTORE PUSH1 0x20 PUSH1 0x0 KECCAK256 SWAP1 JUMPDEST DUP2 SLOAD DUP2 MSTORE SWAP1 PUSH1 0x1 ADD SWAP1 PUSH1 0x20 ADD DUP1 DUP4 GT PUSH2 0x4D1 JUMPI DUP3 SWAP1 SUB PUSH1 0x1F AND DUP3 ADD SWAP2 JUMPDEST POP POP POP POP POP SWAP4 POP DUP2 DUP1 SLOAD PUSH2 0x501 SWAP1 PUSH2 0x11A5 JUMP JUMPDEST DUP1 PUSH1 0x1F ADD PUSH1 0x20 DUP1 SWAP2 DIV MUL PUSH1 0x20 ADD PUSH1 0x40 MLOAD SWAP1 DUP2 ADD PUSH1 0x40 MSTORE DUP1 SWAP3 SWAP2 SWAP1 DUP2 DUP2 MSTORE PUSH1 0x20 ADD DUP3 DUP1 SLOAD PUSH2 0x52D SWAP1 PUSH2 0x11A5 JUMP JUMPDEST DUP1 ISZERO PUSH2 0x57A JUMPI DUP1 PUSH1 0x1F LT PUSH2 0x54F JUMPI PUSH2 0x100 DUP1 DUP4 SLOAD DIV MUL DUP4 MSTORE SWAP2 PUSH1 0x20 ADD SWAP2 PUSH2 0x57A JUMP JUMPDEST DUP3 ADD SWAP2 SWAP1 PUSH1 0x0 MSTORE PUSH1 0x20 PUSH1 0x0 KECCAK256 SWAP1 JUMPDEST DUP2 SLOAD DUP2 MSTORE SWAP1 PUSH1 0x1 ADD SWAP1 PUSH1 0x20 ADD DUP1 DUP4 GT PUSH2 0x55D JUMPI DUP3 SWAP1 SUB PUSH1 0x1F AND DUP3 ADD SWAP2 JUMPDEST POP POP POP POP POP SWAP2 POP DUP1 DUP1 SLOAD PUSH2 0x58D SWAP1 PUSH2 0x11A5 JUMP JUMPDEST DUP1 PUSH1 0x1F ADD PUSH1 0x20 DUP1 SWAP2 DIV MUL PUSH1 0x20 ADD PUSH1 0x40 MLOAD SWAP1 DUP2 ADD PUSH1 0x40 MSTORE DUP1 SWAP3 SWAP2 SWAP1 DUP2 DUP2 MSTORE PUSH1 0x20 ADD DUP3 DUP1 SLOAD PUSH2 0x5B9 SWAP1 PUSH2 0x11A5 JUMP JUMPDEST DUP1 ISZERO PUSH2 0x606 JUMPI DUP1 PUSH1 0x1F LT PUSH2 0x5DB JUMPI PUSH2 0x100 DUP1 DUP4 SLOAD DIV MUL DUP4 MSTORE SWAP2 PUSH1 0x20 ADD SWAP2 PUSH2 0x606 JUMP JUMPDEST DUP3 ADD SWAP2 SWAP1 PUSH1 0x0 MSTORE PUSH1 0x20 PUSH1 0x0 KECCAK256 SWAP1 JUMPDEST DUP2 SLOAD DUP2 MSTORE SWAP1 PUSH1 0x1 ADD SWAP1 PUSH1 0x20 ADD DUP1 DUP4 GT PUSH2 0x5E9 JUMPI DUP3 SWAP1 SUB PUSH1 0x1F AND DUP3 ADD SWAP2 JUMPDEST POP POP POP POP POP SWAP1 POP SWAP5 POP SWAP5 POP SWAP5 POP SWAP5 POP POP SWAP2 SWAP4 POP SWAP2 SWAP4 JUMP JUMPDEST PUSH1 0x0 DUP1 CALLER PUSH20 0xFFFFFFFFFFFFFFFFFFFFFFFFFFFFFFFFFFFFFFFF AND PUSH20 0xFFFFFFFFFFFFFFFFFFFFFFFFFFFFFFFFFFFFFFFF AND DUP2 MSTORE PUSH1 0x20 ADD SWAP1 DUP2 MSTORE PUSH1 0x20 ADD PUSH1 0x0 KECCAK256 PUSH1 0x0 SWAP1 SLOAD SWAP1 PUSH2 0x100 EXP SWAP1 DIV PUSH1 0xFF AND PUSH2 0x6A8 JUMPI PUSH1 0x40 MLOAD PUSH32 0x8C379A000000000000000000000000000000000000000000000000000000000 DUP2 MSTORE PUSH1 0x4 ADD PUSH2 0x69F SWAP1 PUSH2 0xFA0 JUMP JUMPDEST PUSH1 0x40 MLOAD DUP1 SWAP2 SUB SWAP1 REVERT JUMPDEST PUSH1 0x1 PUSH1 0x0 DUP1 DUP4 PUSH20 0xFFFFFFFFFFFFFFFFFFFFFFFFFFFFFFFFFFFFFFFF AND PUSH20 0xFFFFFFFFFFFFFFFFFFFFFFFFFFFFFFFFFFFFFFFF AND DUP2 MSTORE PUSH1 0x20 ADD SWAP1 DUP2 MSTORE PUSH1 0x20 ADD PUSH1 0x0 KECCAK256 PUSH1 0x0 PUSH2 0x100 EXP DUP2 SLOAD DUP2 PUSH1 0xFF MUL NOT AND SWAP1 DUP4 ISZERO ISZERO MUL OR SWAP1 SSTORE POP POP JUMP JUMPDEST PUSH1 0x60 PUSH1 0x0 PUSH1 0x60 DUP1 PUSH1 0x2 PUSH1 0x0 CALLER PUSH20 0xFFFFFFFFFFFFFFFFFFFFFFFFFFFFFFFFFFFFFFFF AND PUSH20 0xFFFFFFFFFFFFFFFFFFFFFFFFFFFFFFFFFFFFFFFF AND DUP2 MSTORE PUSH1 0x20 ADD SWAP1 DUP2 MSTORE PUSH1 0x20 ADD PUSH1 0x0 KECCAK256 PUSH1 0x0 SWAP1 SLOAD SWAP1 PUSH2 0x100 EXP SWAP1 DIV PUSH1 0xFF AND DUP1 PUSH2 0x7A9 JUMPI POP PUSH1 0x0 DUP1 CALLER PUSH20 0xFFFFFFFFFFFFFFFFFFFFFFFFFFFFFFFFFFFFFFFF AND PUSH20 0xFFFFFFFFFFFFFFFFFFFFFFFFFFFFFFFFFFFFFFFF AND DUP2 MSTORE PUSH1 0x20 ADD SWAP1 DUP2 MSTORE PUSH1 0x20 ADD PUSH1 0x0 KECCAK256 PUSH1 0x0 SWAP1 SLOAD SWAP1 PUSH2 0x100 EXP SWAP1 DIV PUSH1 0xFF AND JUMPDEST PUSH2 0x7E8 JUMPI PUSH1 0x40 MLOAD PUSH32 0x8C379A000000000000000000000000000000000000000000000000000000000 DUP2 MSTORE PUSH1 0x4 ADD PUSH2 0x7DF SWAP1 PUSH2 0x1248 JUMP JUMPDEST PUSH1 0x40 MLOAD DUP1 SWAP2 SUB SWAP1 REVERT JUMPDEST PUSH1 0x0 PUSH1 0x3 PUSH1 0x0 CALLER PUSH20 0xFFFFFFFFFFFFFFFFFFFFFFFFFFFFFFFFFFFFFFFF AND PUSH20 0xFFFFFFFFFFFFFFFFFFFFFFFFFFFFFFFFFFFFFFFF AND DUP2 MSTORE PUSH1 0x20 ADD SWAP1 DUP2 MSTORE PUSH1 0x20 ADD PUSH1 0x0 KECCAK256 SWAP1 POP DUP1 PUSH1 0x0 ADD DUP2 PUSH1 0x1 ADD SLOAD DUP3 PUSH1 0x2 ADD DUP4 PUSH1 0x3 ADD DUP4 DUP1 SLOAD PUSH2 0x848 SWAP1 PUSH2 0x11A5 JUMP JUMPDEST DUP1 PUSH1 0x1F ADD PUSH1 0x20 DUP1 SWAP2 DIV MUL PUSH1 0x20 ADD PUSH1 0x40 MLOAD SWAP1 DUP2 ADD PUSH1 0x40 MSTORE DUP1 SWAP3 SWAP2 SWAP1 DUP2 DUP2 MSTORE PUSH1 0x20 ADD DUP3 DUP1 SLOAD PUSH2 0x874 SWAP1 PUSH2 0x11A5 JUMP JUMPDEST DUP1 ISZERO PUSH2 0x8C1 JUMPI DUP1 PUSH1 0x1F LT PUSH2 0x896 JUMPI PUSH2 0x100 DUP1 DUP4 SLOAD DIV MUL DUP4 MSTORE SWAP2 PUSH1 0x20 ADD SWAP2 PUSH2 0x8C1 JUMP JUMPDEST DUP3 ADD SWAP2 SWAP1 PUSH1 0x0 MSTORE PUSH1 0x20 PUSH1 0x0 KECCAK256 SWAP1 JUMPDEST DUP2 SLOAD DUP2 MSTORE SWAP1 PUSH1 0x1 ADD SWAP1 PUSH1 0x20 ADD DUP1 DUP4 GT PUSH2 0x8A4 JUMPI DUP3 SWAP1 SUB PUSH1 0x1F AND DUP3 ADD SWAP2 JUMPDEST POP POP POP POP POP SWAP4 POP DUP2 DUP1 SLOAD PUSH2 0x8D4 SWAP1 PUSH2 0x11A5 JUMP JUMPDEST DUP1 PUSH1 0x1F ADD PUSH1 0x20 DUP1 SWAP2 DIV MUL PUSH1 0x20 ADD PUSH1 0x40 MLOAD SWAP1 DUP2 ADD PUSH1 0x40 MSTORE DUP1 SWAP3 SWAP2 SWAP1 DUP2 DUP2 MSTORE PUSH1 0x20 ADD DUP3 DUP1 SLOAD PUSH2 0x900 SWAP1 PUSH2 0x11A5 JUMP JUMPDEST DUP1 ISZERO PUSH2 0x94D JUMPI DUP1 PUSH1 0x1F LT PUSH2 0x922 JUMPI PUSH2 0x100 DUP1 DUP4 SLOAD DIV MUL DUP4 MSTORE SWAP2 PUSH1 0x20 ADD SWAP2 PUSH2 0x94D JUMP JUMPDEST DUP3 ADD SWAP2 SWAP1 PUSH1 0x0 MSTORE PUSH1 0x20 PUSH1 0x0 KECCAK256 SWAP1 JUMPDEST DUP2 SLOAD DUP2 MSTORE SWAP1 PUSH1 0x1 ADD SWAP1 PUSH1 0x20 ADD DUP1 DUP4 GT PUSH2 0x930 JUMPI DUP3 SWAP1 SUB PUSH1 0x1F AND DUP3 ADD SWAP2 JUMPDEST POP POP POP POP POP SWAP2 POP DUP1 DUP1 SLOAD PUSH2 0x960 SWAP1 PUSH2 0x11A5 JUMP JUMPDEST DUP1 PUSH1 0x1F ADD PUSH1 0x20 DUP1 SWAP2 DIV MUL PUSH1 0x20 ADD PUSH1 0x40 MLOAD SWAP1 DUP2 ADD PUSH1 0x40 MSTORE DUP1 SWAP3 SWAP2 SWAP1 DUP2 DUP2 MSTORE PUSH1 0x20 ADD DUP3 DUP1 SLOAD PUSH2 0x98C SWAP1 PUSH2 0x11A5 JUMP JUMPDEST DUP1 ISZERO PUSH2 0x9D9 JUMPI DUP1 PUSH1 0x1F LT PUSH2 0x9AE JUMPI PUSH2 0x100 DUP1 DUP4 SLOAD DIV MUL DUP4 MSTORE SWAP2 PUSH1 0x20 ADD SWAP2 PUSH2 0x9D9 JUMP JUMPDEST DUP3 ADD SWAP2 SWAP1 PUSH1 0x0 MSTORE PUSH1 0x20 PUSH1 0x0 KECCAK256 SWAP1 JUMPDEST DUP2 SLOAD DUP2 MSTORE SWAP1 PUSH1 0x1 ADD SWAP1 PUSH1 0x20 ADD DUP1 DUP4 GT PUSH2 0x9BC JUMPI DUP3 SWAP1 SUB PUSH1 0x1F AND DUP3 ADD SWAP2 JUMPDEST POP POP POP POP POP SWAP1 POP SWAP5 POP SWAP5 POP SWAP5 POP SWAP5 POP POP SWAP1 SWAP2 SWAP3 SWAP4 JUMP JUMPDEST PUSH1 0x0 DUP1 CALLER PUSH20 0xFFFFFFFFFFFFFFFFFFFFFFFFFFFFFFFFFFFFFFFF AND PUSH20 0xFFFFFFFFFFFFFFFFFFFFFFFFFFFFFFFFFFFFFFFF AND DUP2 MSTORE PUSH1 0x20 ADD SWAP1 DUP2 MSTORE PUSH1 0x20 ADD PUSH1 0x0 KECCAK256 PUSH1 0x0 SWAP1 SLOAD SWAP1 PUSH2 0x100 EXP SWAP1 DIV PUSH1 0xFF AND PUSH2 0xA7A JUMPI PUSH1 0x40 MLOAD PUSH32 0x8C379A000000000000000000000000000000000000000000000000000000000 DUP2 MSTORE PUSH1 0x4 ADD PUSH2 0xA71 SWAP1 PUSH2 0xFA0 JUMP JUMPDEST PUSH1 0x40 MLOAD DUP1 SWAP2 SUB SWAP1 REVERT JUMPDEST PUSH1 0x1 PUSH1 0x2 PUSH1 0x0 DUP8 PUSH20 0xFFFFFFFFFFFFFFFFFFFFFFFFFFFFFFFFFFFFFFFF AND PUSH20 0xFFFFFFFFFFFFFFFFFFFFFFFFFFFFFFFFFFFFFFFF AND DUP2 MSTORE PUSH1 0x20 ADD SWAP1 DUP2 MSTORE PUSH1 0x20 ADD PUSH1 0x0 KECCAK256 PUSH1 0x0 PUSH2 0x100 EXP DUP2 SLOAD DUP2 PUSH1 0xFF MUL NOT AND SWAP1 DUP4 ISZERO ISZERO MUL OR SWAP1 SSTORE POP PUSH1 0x0 PUSH1 0x3 PUSH1 0x0 DUP8 PUSH20 0xFFFFFFFFFFFFFFFFFFFFFFFFFFFFFFFFFFFFFFFF AND PUSH20 0xFFFFFFFFFFFFFFFFFFFFFFFFFFFFFFFFFFFFFFFF AND DUP2 MSTORE PUSH1 0x20 ADD SWAP1 DUP2 MSTORE PUSH1 0x20 ADD PUSH1 0x0 KECCAK256 SWAP1 POP DUP5 DUP2 PUSH1 0x0 ADD SWAP1 DUP2 PUSH2 0xB26 SWAP2 SWAP1 PUSH2 0x1414 JUMP JUMPDEST POP DUP4 DUP2 PUSH1 0x1 ADD DUP2 SWAP1 SSTORE POP DUP3 DUP2 PUSH1 0x2 ADD SWAP1 DUP2 PUSH2 0xB41 SWAP2 SWAP1 PUSH2 0x1414 JUMP JUMPDEST POP DUP2 DUP2 PUSH1 0x3 ADD SWAP1 DUP2 PUSH2 0xB53 SWAP2 SWAP1 PUSH2 0x1414 JUMP JUMPDEST POP POP POP POP POP POP POP JUMP JUMPDEST PUSH1 0x0 PUSH1 0x40 MLOAD SWAP1 POP SWAP1 JUMP JUMPDEST PUSH1 0x0 DUP1 REVERT JUMPDEST PUSH1 0x0 DUP1 REVERT JUMPDEST PUSH1 0x0 PUSH20 0xFFFFFFFFFFFFFFFFFFFFFFFFFFFFFFFFFFFFFFFF DUP3 AND SWAP1 POP SWAP2 SWAP1 POP JUMP JUMPDEST PUSH1 0x0 PUSH2 0xB9B DUP3 PUSH2 0xB70 JUMP JUMPDEST SWAP1 POP SWAP2 SWAP1 POP JUMP JUMPDEST PUSH2 0xBAB DUP2 PUSH2 0xB90 JUMP JUMPDEST DUP2 EQ PUSH2 0xBB6 JUMPI PUSH1 0x0 DUP1 REVERT JUMPDEST POP JUMP JUMPDEST PUSH1 0x0 DUP2 CALLDATALOAD SWAP1 POP PUSH2 0xBC8 DUP2 PUSH2 0xBA2 JUMP JUMPDEST SWAP3 SWAP2 POP POP JUMP JUMPDEST PUSH1 0x0 PUSH1 0x20 DUP3 DUP5 SUB SLT ISZERO PUSH2 0xBE4 JUMPI PUSH2 0xBE3 PUSH2 0xB66 JUMP JUMPDEST JUMPDEST PUSH1 0x0 PUSH2 0xBF2 DUP5 DUP3 DUP6 ADD PUSH2 0xBB9 JUMP JUMPDEST SWAP2 POP POP SWAP3 SWAP2 POP POP JUMP JUMPDEST PUSH1 0x0 DUP2 MLOAD SWAP1 POP SWAP2 SWAP1 POP JUMP JUMPDEST PUSH1 0x0 DUP3 DUP3 MSTORE PUSH1 0x20 DUP3 ADD SWAP1 POP SWAP3 SWAP2 POP POP JUMP JUMPDEST PUSH1 0x0 JUMPDEST DUP4 DUP2 LT ISZERO PUSH2 0xC35 JUMPI DUP1 DUP3 ADD MLOAD DUP2 DUP5 ADD MSTORE PUSH1 0x20 DUP2 ADD SWAP1 POP PUSH2 0xC1A JUMP JUMPDEST PUSH1 0x0 DUP5 DUP5 ADD MSTORE POP POP POP POP JUMP JUMPDEST PUSH1 0x0 PUSH1 0x1F NOT PUSH1 0x1F DUP4 ADD AND SWAP1 POP SWAP2 SWAP1 POP JUMP JUMPDEST PUSH1 0x0 PUSH2 0xC5D DUP3 PUSH2 0xBFB JUMP JUMPDEST PUSH2 0xC67 DUP2 DUP6 PUSH2 0xC06 JUMP JUMPDEST SWAP4 POP PUSH2 0xC77 DUP2 DUP6 PUSH1 0x20 DUP7 ADD PUSH2 0xC17 JUMP JUMPDEST PUSH2 0xC80 DUP2 PUSH2 0xC41 JUMP JUMPDEST DUP5 ADD SWAP2 POP POP SWAP3 SWAP2 POP POP JUMP JUMPDEST PUSH1 0x0 DUP2 SWAP1 POP SWAP2 SWAP1 POP JUMP JUMPDEST PUSH2 0xC9E DUP2 PUSH2 0xC8B JUMP JUMPDEST DUP3 MSTORE POP POP JUMP JUMPDEST PUSH1 0x0 PUSH1 0x80 DUP3 ADD SWAP1 POP DUP2 DUP2 SUB PUSH1 0x0 DUP4 ADD MSTORE PUSH2 0xCBE DUP2 DUP8 PUSH2 0xC52 JUMP JUMPDEST SWAP1 POP PUSH2 0xCCD PUSH1 0x20 DUP4 ADD DUP7 PUSH2 0xC95 JUMP JUMPDEST DUP2 DUP2 SUB PUSH1 0x40 DUP4 ADD MSTORE PUSH2 0xCDF DUP2 DUP6 PUSH2 0xC52 JUMP JUMPDEST SWAP1 POP DUP2 DUP2 SUB PUSH1 0x60 DUP4 ADD MSTORE PUSH2 0xCF3 DUP2 DUP5 PUSH2 0xC52 JUMP JUMPDEST SWAP1 POP SWAP6 SWAP5 POP POP POP POP POP JUMP JUMPDEST PUSH1 0x0 DUP1 REVERT JUMPDEST PUSH1 0x0 DUP1 REVERT JUMPDEST PUSH32 0x4E487B7100000000000000000000000000000000000000000000000000000000 PUSH1 0x0 MSTORE PUSH1 0x41 PUSH1 0x4 MSTORE PUSH1 0x24 PUSH1 0x0 REVERT JUMPDEST PUSH2 0xD40 DUP3 PUSH2 0xC41 JUMP JUMPDEST DUP2 ADD DUP2 DUP2 LT PUSH8 0xFFFFFFFFFFFFFFFF DUP3 GT OR ISZERO PUSH2 0xD5F JUMPI PUSH2 0xD5E PUSH2 0xD08 JUMP JUMPDEST JUMPDEST DUP1 PUSH1 0x40 MSTORE POP POP POP JUMP JUMPDEST PUSH1 0x0 PUSH2 0xD72 PUSH2 0xB5C JUMP JUMPDEST SWAP1 POP PUSH2 0xD7E DUP3 DUP3 PUSH2 0xD37 JUMP JUMPDEST SWAP2 SWAP1 POP JUMP JUMPDEST PUSH1 0x0 PUSH8 0xFFFFFFFFFFFFFFFF DUP3 GT ISZERO PUSH2 0xD9E JUMPI PUSH2 0xD9D PUSH2 0xD08 JUMP JUMPDEST JUMPDEST PUSH2 0xDA7 DUP3 PUSH2 0xC41 JUMP JUMPDEST SWAP1 POP PUSH1 0x20 DUP2 ADD SWAP1 POP SWAP2 SWAP1 POP JUMP JUMPDEST DUP3 DUP2 DUP4 CALLDATACOPY PUSH1 0x0 DUP4 DUP4 ADD MSTORE POP POP POP JUMP JUMPDEST PUSH1 0x0 PUSH2 0xDD6 PUSH2 0xDD1 DUP5 PUSH2 0xD83 JUMP JUMPDEST PUSH2 0xD68 JUMP JUMPDEST SWAP1 POP DUP3 DUP2 MSTORE PUSH1 0x20 DUP2 ADD DUP5 DUP5 DUP5 ADD GT ISZERO PUSH2 0xDF2 JUMPI PUSH2 0xDF1 PUSH2 0xD03 JUMP JUMPDEST JUMPDEST PUSH2 0xDFD DUP5 DUP3 DUP6 PUSH2 0xDB4 JUMP JUMPDEST POP SWAP4 SWAP3 POP POP POP JUMP JUMPDEST PUSH1 0x0 DUP3 PUSH1 0x1F DUP4 ADD SLT PUSH2 0xE1A JUMPI PUSH2 0xE19 PUSH2 0xCFE JUMP JUMPDEST JUMPDEST DUP2 CALLDATALOAD PUSH2 0xE2A DUP5 DUP3 PUSH1 0x20 DUP7 ADD PUSH2 0xDC3 JUMP JUMPDEST SWAP2 POP POP SWAP3 SWAP2 POP POP JUMP JUMPDEST PUSH2 0xE3C DUP2 PUSH2 0xC8B JUMP JUMPDEST DUP2 EQ PUSH2 0xE47 JUMPI PUSH1 0x0 DUP1 REVERT JUMPDEST POP JUMP JUMPDEST PUSH1 0x0 DUP2 CALLDATALOAD SWAP1 POP PUSH2 0xE59 DUP2 PUSH2 0xE33 JUMP JUMPDEST SWAP3 SWAP2 POP POP JUMP JUMPDEST PUSH1 0x0 DUP1 PUSH1 0x0 DUP1 PUSH1 0x0 PUSH1 0xA0 DUP7 DUP9 SUB SLT ISZERO PUSH2 0xE7B JUMPI PUSH2 0xE7A PUSH2 0xB66 JUMP JUMPDEST JUMPDEST PUSH1 0x0 PUSH2 0xE89 DUP9 DUP3 DUP10 ADD PUSH2 0xBB9 JUMP JUMPDEST SWAP6 POP POP PUSH1 0x20 DUP7 ADD CALLDATALOAD PUSH8 0xFFFFFFFFFFFFFFFF DUP2 GT ISZERO PUSH2 0xEAA JUMPI PUSH2 0xEA9 PUSH2 0xB6B JUMP JUMPDEST JUMPDEST PUSH2 0xEB6 DUP9 DUP3 DUP10 ADD PUSH2 0xE05 JUMP JUMPDEST SWAP5 POP POP PUSH1 0x40 PUSH2 0xEC7 DUP9 DUP3 DUP10 ADD PUSH2 0xE4A JUMP JUMPDEST SWAP4 POP POP PUSH1 0x60 DUP7 ADD CALLDATALOAD PUSH8 0xFFFFFFFFFFFFFFFF DUP2 GT ISZERO PUSH2 0xEE8 JUMPI PUSH2 0xEE7 PUSH2 0xB6B JUMP JUMPDEST JUMPDEST PUSH2 0xEF4 DUP9 DUP3 DUP10 ADD PUSH2 0xE05 JUMP JUMPDEST SWAP3 POP POP PUSH1 0x80 DUP7 ADD CALLDATALOAD PUSH8 0xFFFFFFFFFFFFFFFF DUP2 GT ISZERO PUSH2 0xF15 JUMPI PUSH2 0xF14 PUSH2 0xB6B JUMP JUMPDEST JUMPDEST PUSH2 0xF21 DUP9 DUP3 DUP10 ADD PUSH2 0xE05 JUMP JUMPDEST SWAP2 POP POP SWAP3 SWAP6 POP SWAP3 SWAP6 SWAP1 SWAP4 POP JUMP JUMPDEST PUSH32 0x4F6E6C7920617574686F72697A656420697373756572732063616E2063616C6C PUSH1 0x0 DUP3 ADD MSTORE PUSH32 0x20746869732066756E6374696F6E000000000000000000000000000000000000 PUSH1 0x20 DUP3 ADD MSTORE POP JUMP JUMPDEST PUSH1 0x0 PUSH2 0xF8A PUSH1 0x2E DUP4 PUSH2 0xC06 JUMP JUMPDEST SWAP2 POP PUSH2 0xF95 DUP3 PUSH2 0xF2E JUMP JUMPDEST PUSH1 0x40 DUP3 ADD SWAP1 POP SWAP2 SWAP1 POP JUMP JUMPDEST PUSH1 0x0 PUSH1 0x20 DUP3 ADD SWAP1 POP DUP2 DUP2 SUB PUSH1 0x0 DUP4 ADD MSTORE PUSH2 0xFB9 DUP2 PUSH2 0xF7D JUMP JUMPDEST SWAP1 POP SWAP2 SWAP1 POP JUMP JUMPDEST PUSH32 0x4F6E6C792073747564656E742063616E2063616C6C20746869732066756E6374 PUSH1 0x0 DUP3 ADD MSTORE PUSH32 0x696F6E0000000000000000000000000000000000000000000000000000000000 PUSH1 0x20 DUP3 ADD MSTORE POP JUMP JUMPDEST PUSH1 0x0 PUSH2 0x101C PUSH1 0x23 DUP4 PUSH2 0xC06 JUMP JUMPDEST SWAP2 POP PUSH2 0x1027 DUP3 PUSH2 0xFC0 JUMP JUMPDEST PUSH1 0x40 DUP3 ADD SWAP1 POP SWAP2 SWAP1 POP JUMP JUMPDEST PUSH1 0x0 PUSH1 0x20 DUP3 ADD SWAP1 POP DUP2 DUP2 SUB PUSH1 0x0 DUP4 ADD MSTORE PUSH2 0x104B DUP2 PUSH2 0x100F JUMP JUMPDEST SWAP1 POP SWAP2 SWAP1 POP JUMP JUMPDEST PUSH32 0x4F6E6C7920617574686F72697A656420766965776572732063616E2063616C6C PUSH1 0x0 DUP3 ADD MSTORE PUSH32 0x20746869732066756E6374696F6E000000000000000000000000000000000000 PUSH1 0x20 DUP3 ADD MSTORE POP JUMP JUMPDEST PUSH1 0x0 PUSH2 0x10AE PUSH1 0x2E DUP4 PUSH2 0xC06 JUMP JUMPDEST SWAP2 POP PUSH2 0x10B9 DUP3 PUSH2 0x1052 JUMP JUMPDEST PUSH1 0x40 DUP3 ADD SWAP1 POP SWAP2 SWAP1 POP JUMP JUMPDEST PUSH1 0x0 PUSH1 0x20 DUP3 ADD SWAP1 POP DUP2 DUP2 SUB PUSH1 0x0 DUP4 ADD MSTORE PUSH2 0x10DD DUP2 PUSH2 0x10A1 JUMP JUMPDEST SWAP1 POP SWAP2 SWAP1 POP JUMP JUMPDEST PUSH32 0x53747564656E74206E6F7420666F756E64206F7220756E617574686F72697A65 PUSH1 0x0 DUP3 ADD MSTORE PUSH32 0x642E000000000000000000000000000000000000000000000000000000000000 PUSH1 0x20 DUP3 ADD MSTORE POP JUMP JUMPDEST PUSH1 0x0 PUSH2 0x1140 PUSH1 0x22 DUP4 PUSH2 0xC06 JUMP JUMPDEST SWAP2 POP PUSH2 0x114B DUP3 PUSH2 0x10E4 JUMP JUMPDEST PUSH1 0x40 DUP3 ADD SWAP1 POP SWAP2 SWAP1 POP JUMP JUMPDEST PUSH1 0x0 PUSH1 0x20 DUP3 ADD SWAP1 POP DUP2 DUP2 SUB PUSH1 0x0 DUP4 ADD MSTORE PUSH2 0x116F DUP2 PUSH2 0x1133 JUMP JUMPDEST SWAP1 POP SWAP2 SWAP1 POP JUMP JUMPDEST PUSH32 0x4E487B7100000000000000000000000000000000000000000000000000000000 PUSH1 0x0 MSTORE PUSH1 0x22 PUSH1 0x4 MSTORE PUSH1 0x24 PUSH1 0x0 REVERT JUMPDEST PUSH1 0x0 PUSH1 0x2 DUP3 DIV SWAP1 POP PUSH1 0x1 DUP3 AND DUP1 PUSH2 0x11BD JUMPI PUSH1 0x7F DUP3 AND SWAP2 POP JUMPDEST PUSH1 0x20 DUP3 LT DUP2 SUB PUSH2 0x11D0 JUMPI PUSH2 0x11CF PUSH2 0x1176 JUMP JUMPDEST JUMPDEST POP SWAP2 SWAP1 POP JUMP JUMPDEST PUSH32 0x596F7520617265206E6F7420617574686F72697A656420746F2072756E207468 PUSH1 0x0 DUP3 ADD MSTORE PUSH32 0x69732066756E6374696F6E2E0000000000000000000000000000000000000000 PUSH1 0x20 DUP3 ADD MSTORE POP JUMP JUMPDEST PUSH1 0x0 PUSH2 0x1232 PUSH1 0x2C DUP4 PUSH2 0xC06 JUMP JUMPDEST SWAP2 POP PUSH2 0x123D DUP3 PUSH2 0x11D6 JUMP JUMPDEST PUSH1 0x40 DUP3 ADD SWAP1 POP SWAP2 SWAP1 POP JUMP JUMPDEST PUSH1 0x0 PUSH1 0x20 DUP3 ADD SWAP1 POP DUP2 DUP2 SUB PUSH1 0x0 DUP4 ADD MSTORE PUSH2 0x1261 DUP2 PUSH2 0x1225 JUMP JUMPDEST SWAP1 POP SWAP2 SWAP1 POP JUMP JUMPDEST PUSH1 0x0 DUP2 SWAP1 POP DUP2 PUSH1 0x0 MSTORE PUSH1 0x20 PUSH1 0x0 KECCAK256 SWAP1 POP SWAP2 SWAP1 POP JUMP JUMPDEST PUSH1 0x0 PUSH1 0x20 PUSH1 0x1F DUP4 ADD DIV SWAP1 POP SWAP2 SWAP1 POP JUMP JUMPDEST PUSH1 0x0 DUP3 DUP3 SHL SWAP1 POP SWAP3 SWAP2 POP POP JUMP JUMPDEST PUSH1 0x0 PUSH1 0x8 DUP4 MUL PUSH2 0x12CA PUSH32 0xFFFFFFFFFFFFFFFFFFFFFFFFFFFFFFFFFFFFFFFFFFFFFFFFFFFFFFFFFFFFFFFF DUP3 PUSH2 0x128D JUMP JUMPDEST PUSH2 0x12D4 DUP7 DUP4 PUSH2 0x128D JUMP JUMPDEST SWAP6 POP DUP1 NOT DUP5 AND SWAP4 POP DUP1 DUP7 AND DUP5 OR SWAP3 POP POP POP SWAP4 SWAP3 POP POP POP JUMP JUMPDEST PUSH1 0x0 DUP2 SWAP1 POP SWAP2 SWAP1 POP JUMP JUMPDEST PUSH1 0x0 PUSH2 0x1311 PUSH2 0x130C PUSH2 0x1307 DUP5 PUSH2 0xC8B JUMP JUMPDEST PUSH2 0x12EC JUMP JUMPDEST PUSH2 0xC8B JUMP JUMPDEST SWAP1 POP SWAP2 SWAP1 POP JUMP JUMPDEST PUSH1 0x0 DUP2 SWAP1 POP SWAP2 SWAP1 POP JUMP JUMPDEST PUSH2 0x132B DUP4 PUSH2 0x12F6 JUMP JUMPDEST PUSH2 0x133F PUSH2 0x1337 DUP3 PUSH2 0x1318 JUMP JUMPDEST DUP5 DUP5 SLOAD PUSH2 0x129A JUMP JUMPDEST DUP3 SSTORE POP POP POP POP JUMP JUMPDEST PUSH1 0x0 SWAP1 JUMP JUMPDEST PUSH2 0x1354 PUSH2 0x1347 JUMP JUMPDEST PUSH2 0x135F DUP2 DUP5 DUP5 PUSH2 0x1322 JUMP JUMPDEST POP POP POP JUMP JUMPDEST JUMPDEST DUP2 DUP2 LT ISZERO PUSH2 0x1383 JUMPI PUSH2 0x1378 PUSH1 0x0 DUP3 PUSH2 0x134C JUMP JUMPDEST PUSH1 0x1 DUP2 ADD SWAP1 POP PUSH2 0x1365 JUMP JUMPDEST POP POP JUMP JUMPDEST PUSH1 0x1F DUP3 GT ISZERO PUSH2 0x13C8 JUMPI PUSH2 0x1399 DUP2 PUSH2 0x1268 JUMP JUMPDEST PUSH2 0x13A2 DUP5 PUSH2 0x127D JUMP JUMPDEST DUP2 ADD PUSH1 0x20 DUP6 LT ISZERO PUSH2 0x13B1 JUMPI DUP2 SWAP1 POP JUMPDEST PUSH2 0x13C5 PUSH2 0x13BD DUP6 PUSH2 0x127D JUMP JUMPDEST DUP4 ADD DUP3 PUSH2 0x1364 JUMP JUMPDEST POP POP JUMPDEST POP POP POP JUMP JUMPDEST PUSH1 0x0 DUP3 DUP3 SHR SWAP1 POP SWAP3 SWAP2 POP POP JUMP JUMPDEST PUSH1 0x0 PUSH2 0x13EB PUSH1 0x0 NOT DUP5 PUSH1 0x8 MUL PUSH2 0x13CD JUMP JUMPDEST NOT DUP1 DUP4 AND SWAP2 POP POP SWAP3 SWAP2 POP POP JUMP JUMPDEST PUSH1 0x0 PUSH2 0x1404 DUP4 DUP4 PUSH2 0x13DA JUMP JUMPDEST SWAP2 POP DUP3 PUSH1 0x2 MUL DUP3 OR SWAP1 POP SWAP3 SWAP2 POP POP JUMP JUMPDEST PUSH2 0x141D DUP3 PUSH2 0xBFB JUMP JUMPDEST PUSH8 0xFFFFFFFFFFFFFFFF DUP2 GT ISZERO PUSH2 0x1436 JUMPI PUSH2 0x1435 PUSH2 0xD08 JUMP JUMPDEST JUMPDEST PUSH2 0x1440 DUP3 SLOAD PUSH2 0x11A5 JUMP JUMPDEST PUSH2 0x144B DUP3 DUP3 DUP6 PUSH2 0x1387 JUMP JUMPDEST PUSH1 0x0 PUSH1 0x20 SWAP1 POP PUSH1 0x1F DUP4 GT PUSH1 0x1 DUP2 EQ PUSH2 0x147E JUMPI PUSH1 0x0 DUP5 ISZERO PUSH2 0x146C JUMPI DUP3 DUP8 ADD MLOAD SWAP1 POP JUMPDEST PUSH2 0x1476 DUP6 DUP3 PUSH2 0x13F8 JUMP JUMPDEST DUP7 SSTORE POP PUSH2 0x14DE JUMP JUMPDEST PUSH1 0x1F NOT DUP5 AND PUSH2 0x148C DUP7 PUSH2 0x1268 JUMP JUMPDEST PUSH1 0x0 JUMPDEST DUP3 DUP2 LT ISZERO PUSH2 0x14B4 JUMPI DUP5 DUP10 ADD MLOAD DUP3 SSTORE PUSH1 0x1 DUP3 ADD SWAP2 POP PUSH1 0x20 DUP6 ADD SWAP5 POP PUSH1 0x20 DUP2 ADD SWAP1 POP PUSH2 0x148F JUMP JUMPDEST DUP7 DUP4 LT ISZERO PUSH2 0x14D1 JUMPI DUP5 DUP10 ADD MLOAD PUSH2 0x14CD PUSH1 0x1F DUP10 AND DUP3 PUSH2 0x13DA JUMP JUMPDEST DUP4 SSTORE POP JUMPDEST PUSH1 0x1 PUSH1 0x2 DUP9 MUL ADD DUP9 SSTORE POP POP POP JUMPDEST POP POP POP POP POP POP JUMP INVALID LOG2 PUSH5 0x6970667358 0x22 SLT KECCAK256 PUSH29 0x4D4DD47FAA00C28EC2DA89330FB20B84785AF95C8CEA301D56BE901DE5 SDIV 0x27 PUSH5 0x736F6C6343 STOP ADDMOD SLT STOP CALLER "
				},
				"gasEstimates": {
					"creation": {
						"codeDepositCost": "1080800",
						"executionCost": "25476",
						"totalCost": "1106276"
					},
					"external": {
						"addAdmin(address)": "27098",
						"addViewer(address)": "27054",
						"getCertificate()": "infinite",
						"issueCertificate(address,string,uint256,string,string)": "infinite",
						"removeAdmin(address)": "27032",
						"viewCertificate(address)": "infinite"
					}
				},
				"methodIdentifiers": {
					"addAdmin(address)": "70480275",
					"addViewer(address)": "601f8cf5",
					"getCertificate()": "ae15eb8e",
					"issueCertificate(address,string,uint256,string,string)": "e8f50a67",
					"removeAdmin(address)": "1785f53c",
					"viewCertificate(address)": "64dbbaa2"
				}
			},
			"storageLayout": {
				"storage": [
					{
						"astId": 14,
						"contract": "contracts/certificates.sol:Certificate",
						"label": "authorizedIssuers",
						"offset": 0,
						"slot": "0",
						"type": "t_mapping(t_address,t_bool)"
					},
					{
						"astId": 18,
						"contract": "contracts/certificates.sol:Certificate",
						"label": "authorizedViewers",
						"offset": 0,
						"slot": "1",
						"type": "t_mapping(t_address,t_bool)"
					},
					{
						"astId": 22,
						"contract": "contracts/certificates.sol:Certificate",
						"label": "authorizedStudent",
						"offset": 0,
						"slot": "2",
						"type": "t_mapping(t_address,t_bool)"
					},
					{
						"astId": 27,
						"contract": "contracts/certificates.sol:Certificate",
						"label": "students",
						"offset": 0,
						"slot": "3",
						"type": "t_mapping(t_address,t_struct(Student)10_storage)"
					}
				],
				"types": {
					"t_address": {
						"encoding": "inplace",
						"label": "address",
						"numberOfBytes": "20"
					},
					"t_bool": {
						"encoding": "inplace",
						"label": "bool",
						"numberOfBytes": "1"
					},
					"t_mapping(t_address,t_bool)": {
						"encoding": "mapping",
						"key": "t_address",
						"label": "mapping(address => bool)",
						"numberOfBytes": "32",
						"value": "t_bool"
					},
					"t_mapping(t_address,t_struct(Student)10_storage)": {
						"encoding": "mapping",
						"key": "t_address",
						"label": "mapping(address => struct Certificate.Student)",
						"numberOfBytes": "32",
						"value": "t_struct(Student)10_storage"
					},
					"t_string_storage": {
						"encoding": "bytes",
						"label": "string",
						"numberOfBytes": "32"
					},
					"t_struct(Student)10_storage": {
						"encoding": "inplace",
						"label": "struct Certificate.Student",
						"members": [
							{
								"astId": 3,
								"contract": "contracts/certificates.sol:Certificate",
								"label": "name",
								"offset": 0,
								"slot": "0",
								"type": "t_string_storage"
							},
							{
								"astId": 5,
								"contract": "contracts/certificates.sol:Certificate",
								"label": "studentId",
								"offset": 0,
								"slot": "1",
								"type": "t_uint256"
							},
							{
								"astId": 7,
								"contract": "contracts/certificates.sol:Certificate",
								"label": "faculty",
								"offset": 0,
								"slot": "2",
								"type": "t_string_storage"
							},
							{
								"astId": 9,
								"contract": "contracts/certificates.sol:Certificate",
								"label": "department",
								"offset": 0,
								"slot": "3",
								"type": "t_string_storage"
							}
						],
						"numberOfBytes": "128"
					},
					"t_uint256": {
						"encoding": "inplace",
						"label": "uint256",
						"numberOfBytes": "32"
					}
				}
			},
			"userdoc": {
				"kind": "user",
				"methods": {},
				"version": 1
			}
		}
	}
}