{
	"contracts/setAccessTime.sol": {
		"Certificate": {
			"abi": [
				{
					"inputs": [],
					"stateMutability": "nonpayable",
					"type": "constructor"
				},
				{
					"inputs": [
						{
							"internalType": "uint256",
							"name": "",
							"type": "uint256"
						}
					],
					"name": "StudentCertificate",
					"outputs": [
						{
							"internalType": "string",
							"name": "studentName",
							"type": "string"
						},
						{
							"internalType": "string",
							"name": "studentId",
							"type": "string"
						},
						{
							"internalType": "string",
							"name": "faculty",
							"type": "string"
						},
						{
							"internalType": "string",
							"name": "department",
							"type": "string"
						},
						{
							"internalType": "uint256",
							"name": "accessTime",
							"type": "uint256"
						}
					],
					"stateMutability": "view",
					"type": "function"
				},
				{
					"inputs": [
						{
							"internalType": "address",
							"name": "_authorizedIssuers",
							"type": "address"
						},
						{
							"internalType": "string",
							"name": "name",
							"type": "string"
						},
						{
							"internalType": "string",
							"name": "adminId",
							"type": "string"
						},
						{
							"internalType": "string",
							"name": "position",
							"type": "string"
						}
					],
					"name": "addAdmin",
					"outputs": [],
					"stateMutability": "nonpayable",
					"type": "function"
				},
				{
					"inputs": [
						{
							"internalType": "address",
							"name": "viewers",
							"type": "address"
						},
						{
							"internalType": "uint256",
							"name": "timestamp",
							"type": "uint256"
						}
					],
					"name": "addViewer",
					"outputs": [],
					"stateMutability": "nonpayable",
					"type": "function"
				},
				{
					"inputs": [
						{
							"internalType": "address",
							"name": "",
							"type": "address"
						}
					],
					"name": "authorizedIssuers",
					"outputs": [
						{
							"internalType": "bool",
							"name": "",
							"type": "bool"
						}
					],
					"stateMutability": "view",
					"type": "function"
				},
				{
					"inputs": [],
					"name": "getAdmin",
					"outputs": [
						{
							"internalType": "string",
							"name": "name",
							"type": "string"
						},
						{
							"internalType": "string",
							"name": "id",
							"type": "string"
						},
						{
							"internalType": "string",
							"name": "position",
							"type": "string"
						}
					],
					"stateMutability": "view",
					"type": "function"
				},
				{
					"inputs": [],
					"name": "getCertificate",
					"outputs": [
						{
							"internalType": "string",
							"name": "studentName",
							"type": "string"
						},
						{
							"internalType": "string",
							"name": "studentId",
							"type": "string"
						},
						{
							"internalType": "string",
							"name": "faculty",
							"type": "string"
						},
						{
							"internalType": "string",
							"name": "department",
							"type": "string"
						}
					],
					"stateMutability": "view",
					"type": "function"
				},
				{
					"inputs": [
						{
							"internalType": "address",
							"name": "studentAddress",
							"type": "address"
						},
						{
							"internalType": "string",
							"name": "studentName",
							"type": "string"
						},
						{
							"internalType": "string",
							"name": "studentId",
							"type": "string"
						},
						{
							"internalType": "string",
							"name": "faculty",
							"type": "string"
						},
						{
							"internalType": "string",
							"name": "department",
							"type": "string"
						}
					],
					"name": "issueCertificate",
					"outputs": [],
					"stateMutability": "nonpayable",
					"type": "function"
				},
				{
					"inputs": [
						{
							"internalType": "address",
							"name": "_authorizedIssuers",
							"type": "address"
						}
					],
					"name": "removeAdmin",
					"outputs": [],
					"stateMutability": "nonpayable",
					"type": "function"
				},
				{
					"inputs": [
						{
							"internalType": "address",
							"name": "studentAddress",
							"type": "address"
						}
					],
					"name": "viewCertificate",
					"outputs": [
						{
							"internalType": "string",
							"name": "studentName",
							"type": "string"
						},
						{
							"internalType": "string",
							"name": "studentId",
							"type": "string"
						},
						{
							"internalType": "string",
							"name": "faculty",
							"type": "string"
						},
						{
							"internalType": "string",
							"name": "department",
							"type": "string"
						},
						{
							"internalType": "uint256",
							"name": "accessTime",
							"type": "uint256"
						}
					],
					"stateMutability": "view",
					"type": "function"
				},
				{
					"inputs": [],
					"name": "viewStudent",
					"outputs": [
						{
							"components": [
								{
									"internalType": "string",
									"name": "studentName",
									"type": "string"
								},
								{
									"internalType": "string",
									"name": "studentId",
									"type": "string"
								},
								{
									"internalType": "string",
									"name": "faculty",
									"type": "string"
								},
								{
									"internalType": "string",
									"name": "department",
									"type": "string"
								},
								{
									"internalType": "uint256",
									"name": "accessTime",
									"type": "uint256"
								}
							],
							"internalType": "struct Certificate.Student[]",
							"name": "",
							"type": "tuple[]"
						}
					],
					"stateMutability": "view",
					"type": "function"
				}
			],
			"devdoc": {
				"kind": "dev",
				"methods": {},
				"version": 1
			},
			"evm": {
				"assembly": "    /* \"contracts/setAccessTime.sol\":58:8510  contract Certificate {... */\n  mstore(0x40, 0x80)\n    /* \"contracts/setAccessTime.sol\":1840:1948  constructor() {... */\n  callvalue\n  dup1\n  iszero\n  tag_1\n  jumpi\n  0x00\n  dup1\n  revert\ntag_1:\n  pop\n    /* \"contracts/setAccessTime.sol\":1896:1900  true */\n  0x01\n    /* \"contracts/setAccessTime.sol\":1864:1881  authorizedIssuers */\n  dup1\n    /* \"contracts/setAccessTime.sol\":1864:1893  authorizedIssuers[msg.sender] */\n  0x00\n    /* \"contracts/setAccessTime.sol\":1882:1892  msg.sender */\n  caller\n    /* \"contracts/setAccessTime.sol\":1864:1893  authorizedIssuers[msg.sender] */\n  0xffffffffffffffffffffffffffffffffffffffff\n  and\n  0xffffffffffffffffffffffffffffffffffffffff\n  and\n  dup2\n  mstore\n  0x20\n  add\n  swap1\n  dup2\n  mstore\n  0x20\n  add\n  0x00\n  keccak256\n  0x00\n    /* \"contracts/setAccessTime.sol\":1864:1900  authorizedIssuers[msg.sender] = true */\n  0x0100\n  exp\n  dup2\n  sload\n  dup2\n  0xff\n  mul\n  not\n  and\n  swap1\n  dup4\n  iszero\n  iszero\n  mul\n  or\n  swap1\n  sstore\n  pop\n    /* \"contracts/setAccessTime.sol\":58:8510  contract Certificate {... */\n  dataSize(sub_0)\n  dup1\n  dataOffset(sub_0)\n  0x00\n  codecopy\n  0x00\n  return\nstop\n\nsub_0: assembly {\n        /* \"contracts/setAccessTime.sol\":58:8510  contract Certificate {... */\n      mstore(0x40, 0x80)\n      callvalue\n      dup1\n      iszero\n      tag_1\n      jumpi\n      0x00\n      dup1\n      revert\n    tag_1:\n      pop\n      jumpi(tag_2, lt(calldatasize, 0x04))\n      shr(0xe0, calldataload(0x00))\n      dup1\n      0x9da60e49\n      gt\n      tag_13\n      jumpi\n      dup1\n      0x9da60e49\n      eq\n      tag_8\n      jumpi\n      dup1\n      0xae15eb8e\n      eq\n      tag_9\n      jumpi\n      dup1\n      0xb05e0626\n      eq\n      tag_10\n      jumpi\n      dup1\n      0xe9dd92ee\n      eq\n      tag_11\n      jumpi\n      dup1\n      0xf731fa0f\n      eq\n      tag_12\n      jumpi\n      jump(tag_2)\n    tag_13:\n      dup1\n      0x03825d6c\n      eq\n      tag_3\n      jumpi\n      dup1\n      0x1785f53c\n      eq\n      tag_4\n      jumpi\n      dup1\n      0x1b1d639d\n      eq\n      tag_5\n      jumpi\n      dup1\n      0x64dbbaa2\n      eq\n      tag_6\n      jumpi\n      dup1\n      0x6e9960c3\n      eq\n      tag_7\n      jumpi\n    tag_2:\n      0x00\n      dup1\n      revert\n        /* \"contracts/setAccessTime.sol\":2733:3128  function addAdmin(... */\n    tag_3:\n      tag_14\n      0x04\n      dup1\n      calldatasize\n      sub\n      dup2\n      add\n      swap1\n      tag_15\n      swap2\n      swap1\n      tag_16\n      jump\t// in\n    tag_15:\n      tag_17\n      jump\t// in\n    tag_14:\n      stop\n        /* \"contracts/setAccessTime.sol\":3274:3435  function removeAdmin(address _authorizedIssuers)... */\n    tag_4:\n      tag_18\n      0x04\n      dup1\n      calldatasize\n      sub\n      dup2\n      add\n      swap1\n      tag_19\n      swap2\n      swap1\n      tag_20\n      jump\t// in\n    tag_19:\n      tag_21\n      jump\t// in\n    tag_18:\n      stop\n        /* \"contracts/setAccessTime.sol\":4189:4449  function addViewer(address viewers, uint256 timestamp)... */\n    tag_5:\n      tag_22\n      0x04\n      dup1\n      calldatasize\n      sub\n      dup2\n      add\n      swap1\n      tag_23\n      swap2\n      swap1\n      tag_24\n      jump\t// in\n    tag_23:\n      tag_25\n      jump\t// in\n    tag_22:\n      stop\n        /* \"contracts/setAccessTime.sol\":7557:8508  function viewCertificate(address studentAddress)... */\n    tag_6:\n      tag_26\n      0x04\n      dup1\n      calldatasize\n      sub\n      dup2\n      add\n      swap1\n      tag_27\n      swap2\n      swap1\n      tag_20\n      jump\t// in\n    tag_27:\n      tag_28\n      jump\t// in\n    tag_26:\n      mload(0x40)\n      tag_29\n      swap6\n      swap5\n      swap4\n      swap3\n      swap2\n      swap1\n      tag_30\n      jump\t// in\n    tag_29:\n      mload(0x40)\n      dup1\n      swap2\n      sub\n      swap1\n      return\n        /* \"contracts/setAccessTime.sol\":3441:3865  function getAdmin()... */\n    tag_7:\n      tag_31\n      tag_32\n      jump\t// in\n    tag_31:\n      mload(0x40)\n      tag_33\n      swap4\n      swap3\n      swap2\n      swap1\n      tag_34\n      jump\t// in\n    tag_33:\n      mload(0x40)\n      dup1\n      swap2\n      sub\n      swap1\n      return\n        /* \"contracts/setAccessTime.sol\":855:890  Student[] public StudentCertificate */\n    tag_8:\n      tag_35\n      0x04\n      dup1\n      calldatasize\n      sub\n      dup2\n      add\n      swap1\n      tag_36\n      swap2\n      swap1\n      tag_37\n      jump\t// in\n    tag_36:\n      tag_38\n      jump\t// in\n    tag_35:\n      mload(0x40)\n      tag_39\n      swap6\n      swap5\n      swap4\n      swap3\n      swap2\n      swap1\n      tag_30\n      jump\t// in\n    tag_39:\n      mload(0x40)\n      dup1\n      swap2\n      sub\n      swap1\n      return\n        /* \"contracts/setAccessTime.sol\":6790:7402  function getCertificate()... */\n    tag_9:\n      tag_40\n      tag_41\n      jump\t// in\n    tag_40:\n      mload(0x40)\n      tag_42\n      swap5\n      swap4\n      swap3\n      swap2\n      swap1\n      tag_43\n      jump\t// in\n    tag_42:\n      mload(0x40)\n      dup1\n      swap2\n      sub\n      swap1\n      return\n        /* \"contracts/setAccessTime.sol\":5843:6195  function viewStudent() public view returns (Student[] memory) {... */\n    tag_10:\n      tag_44\n      tag_45\n      jump\t// in\n    tag_44:\n      mload(0x40)\n      tag_46\n      swap2\n      swap1\n      tag_47\n      jump\t// in\n    tag_46:\n      mload(0x40)\n      dup1\n      swap2\n      sub\n      swap1\n      return\n        /* \"contracts/setAccessTime.sol\":5062:5837  function issueCertificate(... */\n    tag_11:\n      tag_48\n      0x04\n      dup1\n      calldatasize\n      sub\n      dup2\n      add\n      swap1\n      tag_49\n      swap2\n      swap1\n      tag_50\n      jump\t// in\n    tag_49:\n      tag_51\n      jump\t// in\n    tag_48:\n      stop\n        /* \"contracts/setAccessTime.sol\":897:946  mapping(address => bool) public authorizedIssuers */\n    tag_12:\n      tag_52\n      0x04\n      dup1\n      calldatasize\n      sub\n      dup2\n      add\n      swap1\n      tag_53\n      swap2\n      swap1\n      tag_20\n      jump\t// in\n    tag_53:\n      tag_54\n      jump\t// in\n    tag_52:\n      mload(0x40)\n      tag_55\n      swap2\n      swap1\n      tag_56\n      jump\t// in\n    tag_55:\n      mload(0x40)\n      dup1\n      swap2\n      sub\n      swap1\n      return\n        /* \"contracts/setAccessTime.sol\":2733:3128  function addAdmin(... */\n    tag_17:\n        /* \"contracts/setAccessTime.sol\":2017:2034  authorizedIssuers */\n      0x01\n        /* \"contracts/setAccessTime.sol\":2017:2046  authorizedIssuers[msg.sender] */\n      0x00\n        /* \"contracts/setAccessTime.sol\":2035:2045  msg.sender */\n      caller\n        /* \"contracts/setAccessTime.sol\":2017:2046  authorizedIssuers[msg.sender] */\n      0xffffffffffffffffffffffffffffffffffffffff\n      and\n      0xffffffffffffffffffffffffffffffffffffffff\n      and\n      dup2\n      mstore\n      0x20\n      add\n      swap1\n      dup2\n      mstore\n      0x20\n      add\n      0x00\n      keccak256\n      0x00\n      swap1\n      sload\n      swap1\n      0x0100\n      exp\n      swap1\n      div\n      0xff\n      and\n        /* \"contracts/setAccessTime.sol\":1996:2118  require(... */\n      tag_58\n      jumpi\n      mload(0x40)\n      0x08c379a000000000000000000000000000000000000000000000000000000000\n      dup2\n      mstore\n      0x04\n      add\n      tag_59\n      swap1\n      tag_60\n      jump\t// in\n    tag_59:\n      mload(0x40)\n      dup1\n      swap2\n      sub\n      swap1\n      revert\n    tag_58:\n        /* \"contracts/setAccessTime.sol\":2964:2968  true */\n      0x01\n        /* \"contracts/setAccessTime.sol\":2924:2941  authorizedIssuers */\n      dup1\n        /* \"contracts/setAccessTime.sol\":2924:2961  authorizedIssuers[_authorizedIssuers] */\n      0x00\n        /* \"contracts/setAccessTime.sol\":2942:2960  _authorizedIssuers */\n      dup7\n        /* \"contracts/setAccessTime.sol\":2924:2961  authorizedIssuers[_authorizedIssuers] */\n      0xffffffffffffffffffffffffffffffffffffffff\n      and\n      0xffffffffffffffffffffffffffffffffffffffff\n      and\n      dup2\n      mstore\n      0x20\n      add\n      swap1\n      dup2\n      mstore\n      0x20\n      add\n      0x00\n      keccak256\n      0x00\n        /* \"contracts/setAccessTime.sol\":2924:2968  authorizedIssuers[_authorizedIssuers] = true */\n      0x0100\n      exp\n      dup2\n      sload\n      dup2\n      0xff\n      mul\n      not\n      and\n      swap1\n      dup4\n      iszero\n      iszero\n      mul\n      or\n      swap1\n      sstore\n      pop\n        /* \"contracts/setAccessTime.sol\":2978:2997  Admin storage admin */\n      0x00\n        /* \"contracts/setAccessTime.sol\":3000:3006  admins */\n      0x05\n        /* \"contracts/setAccessTime.sol\":3000:3026  admins[_authorizedIssuers] */\n      0x00\n        /* \"contracts/setAccessTime.sol\":3007:3025  _authorizedIssuers */\n      dup7\n        /* \"contracts/setAccessTime.sol\":3000:3026  admins[_authorizedIssuers] */\n      0xffffffffffffffffffffffffffffffffffffffff\n      and\n      0xffffffffffffffffffffffffffffffffffffffff\n      and\n      dup2\n      mstore\n      0x20\n      add\n      swap1\n      dup2\n      mstore\n      0x20\n      add\n      0x00\n      keccak256\n        /* \"contracts/setAccessTime.sol\":2978:3026  Admin storage admin = admins[_authorizedIssuers] */\n      swap1\n      pop\n        /* \"contracts/setAccessTime.sol\":3049:3053  name */\n      dup4\n        /* \"contracts/setAccessTime.sol\":3036:3041  admin */\n      dup2\n        /* \"contracts/setAccessTime.sol\":3036:3046  admin.name */\n      0x00\n      add\n        /* \"contracts/setAccessTime.sol\":3036:3053  admin.name = name */\n      swap1\n      dup2\n      tag_62\n      swap2\n      swap1\n      tag_63\n      jump\t// in\n    tag_62:\n      pop\n        /* \"contracts/setAccessTime.sol\":3079:3086  adminId */\n      dup3\n        /* \"contracts/setAccessTime.sol\":3063:3068  admin */\n      dup2\n        /* \"contracts/setAccessTime.sol\":3063:3076  admin.adminId */\n      0x01\n      add\n        /* \"contracts/setAccessTime.sol\":3063:3086  admin.adminId = adminId */\n      swap1\n      dup2\n      tag_64\n      swap2\n      swap1\n      tag_63\n      jump\t// in\n    tag_64:\n      pop\n        /* \"contracts/setAccessTime.sol\":3113:3121  position */\n      dup2\n        /* \"contracts/setAccessTime.sol\":3096:3101  admin */\n      dup2\n        /* \"contracts/setAccessTime.sol\":3096:3110  admin.position */\n      0x02\n      add\n        /* \"contracts/setAccessTime.sol\":3096:3121  admin.position = position */\n      swap1\n      dup2\n      tag_65\n      swap2\n      swap1\n      tag_63\n      jump\t// in\n    tag_65:\n      pop\n        /* \"contracts/setAccessTime.sol\":2914:3128  {... */\n      pop\n        /* \"contracts/setAccessTime.sol\":2733:3128  function addAdmin(... */\n      pop\n      pop\n      pop\n      pop\n      jump\t// out\n        /* \"contracts/setAccessTime.sol\":3274:3435  function removeAdmin(address _authorizedIssuers)... */\n    tag_21:\n        /* \"contracts/setAccessTime.sol\":2017:2034  authorizedIssuers */\n      0x01\n        /* \"contracts/setAccessTime.sol\":2017:2046  authorizedIssuers[msg.sender] */\n      0x00\n        /* \"contracts/setAccessTime.sol\":2035:2045  msg.sender */\n      caller\n        /* \"contracts/setAccessTime.sol\":2017:2046  authorizedIssuers[msg.sender] */\n      0xffffffffffffffffffffffffffffffffffffffff\n      and\n      0xffffffffffffffffffffffffffffffffffffffff\n      and\n      dup2\n      mstore\n      0x20\n      add\n      swap1\n      dup2\n      mstore\n      0x20\n      add\n      0x00\n      keccak256\n      0x00\n      swap1\n      sload\n      swap1\n      0x0100\n      exp\n      swap1\n      div\n      0xff\n      and\n        /* \"contracts/setAccessTime.sol\":1996:2118  require(... */\n      tag_67\n      jumpi\n      mload(0x40)\n      0x08c379a000000000000000000000000000000000000000000000000000000000\n      dup2\n      mstore\n      0x04\n      add\n      tag_68\n      swap1\n      tag_60\n      jump\t// in\n    tag_68:\n      mload(0x40)\n      dup1\n      swap2\n      sub\n      swap1\n      revert\n    tag_67:\n        /* \"contracts/setAccessTime.sol\":3423:3428  false */\n      0x00\n        /* \"contracts/setAccessTime.sol\":3383:3400  authorizedIssuers */\n      0x01\n        /* \"contracts/setAccessTime.sol\":3383:3420  authorizedIssuers[_authorizedIssuers] */\n      0x00\n        /* \"contracts/setAccessTime.sol\":3401:3419  _authorizedIssuers */\n      dup4\n        /* \"contracts/setAccessTime.sol\":3383:3420  authorizedIssuers[_authorizedIssuers] */\n      0xffffffffffffffffffffffffffffffffffffffff\n      and\n      0xffffffffffffffffffffffffffffffffffffffff\n      and\n      dup2\n      mstore\n      0x20\n      add\n      swap1\n      dup2\n      mstore\n      0x20\n      add\n      0x00\n      keccak256\n      0x00\n        /* \"contracts/setAccessTime.sol\":3383:3428  authorizedIssuers[_authorizedIssuers] = false */\n      0x0100\n      exp\n      dup2\n      sload\n      dup2\n      0xff\n      mul\n      not\n      and\n      swap1\n      dup4\n      iszero\n      iszero\n      mul\n      or\n      swap1\n      sstore\n      pop\n        /* \"contracts/setAccessTime.sol\":3274:3435  function removeAdmin(address _authorizedIssuers)... */\n      pop\n      jump\t// out\n        /* \"contracts/setAccessTime.sol\":4189:4449  function addViewer(address viewers, uint256 timestamp)... */\n    tag_25:\n        /* \"contracts/setAccessTime.sol\":2384:2401  authorizedStudent */\n      0x03\n        /* \"contracts/setAccessTime.sol\":2384:2413  authorizedStudent[msg.sender] */\n      0x00\n        /* \"contracts/setAccessTime.sol\":2402:2412  msg.sender */\n      caller\n        /* \"contracts/setAccessTime.sol\":2384:2413  authorizedStudent[msg.sender] */\n      0xffffffffffffffffffffffffffffffffffffffff\n      and\n      0xffffffffffffffffffffffffffffffffffffffff\n      and\n      dup2\n      mstore\n      0x20\n      add\n      swap1\n      dup2\n      mstore\n      0x20\n      add\n      0x00\n      keccak256\n      0x00\n      swap1\n      sload\n      swap1\n      0x0100\n      exp\n      swap1\n      div\n      0xff\n      and\n        /* \"contracts/setAccessTime.sol\":2363:2474  require(... */\n      tag_71\n      jumpi\n      mload(0x40)\n      0x08c379a000000000000000000000000000000000000000000000000000000000\n      dup2\n      mstore\n      0x04\n      add\n      tag_72\n      swap1\n      tag_73\n      jump\t// in\n    tag_72:\n      mload(0x40)\n      dup1\n      swap2\n      sub\n      swap1\n      revert\n    tag_71:\n        /* \"contracts/setAccessTime.sol\":4295:4318  Student storage student */\n      0x00\n        /* \"contracts/setAccessTime.sol\":4321:4329  students */\n      0x04\n        /* \"contracts/setAccessTime.sol\":4321:4341  students[msg.sender] */\n      0x00\n        /* \"contracts/setAccessTime.sol\":4330:4340  msg.sender */\n      caller\n        /* \"contracts/setAccessTime.sol\":4321:4341  students[msg.sender] */\n      0xffffffffffffffffffffffffffffffffffffffff\n      and\n      0xffffffffffffffffffffffffffffffffffffffff\n      and\n      dup2\n      mstore\n      0x20\n      add\n      swap1\n      dup2\n      mstore\n      0x20\n      add\n      0x00\n      keccak256\n        /* \"contracts/setAccessTime.sol\":4295:4341  Student storage student = students[msg.sender] */\n      swap1\n      pop\n        /* \"contracts/setAccessTime.sol\":4390:4399  timestamp */\n      dup2\n        /* \"contracts/setAccessTime.sol\":4372:4387  block.timestamp */\n      timestamp\n        /* \"contracts/setAccessTime.sol\":4372:4399  block.timestamp + timestamp */\n      tag_75\n      swap2\n      swap1\n      tag_76\n      jump\t// in\n    tag_75:\n        /* \"contracts/setAccessTime.sol\":4351:4358  student */\n      dup2\n        /* \"contracts/setAccessTime.sol\":4351:4369  student.accessTime */\n      0x04\n      add\n        /* \"contracts/setAccessTime.sol\":4351:4399  student.accessTime = block.timestamp + timestamp */\n      dup2\n      swap1\n      sstore\n      pop\n        /* \"contracts/setAccessTime.sol\":4438:4442  true */\n      0x01\n        /* \"contracts/setAccessTime.sol\":4409:4426  authorizedViewers */\n      0x02\n        /* \"contracts/setAccessTime.sol\":4409:4435  authorizedViewers[viewers] */\n      0x00\n        /* \"contracts/setAccessTime.sol\":4427:4434  viewers */\n      dup6\n        /* \"contracts/setAccessTime.sol\":4409:4435  authorizedViewers[viewers] */\n      0xffffffffffffffffffffffffffffffffffffffff\n      and\n      0xffffffffffffffffffffffffffffffffffffffff\n      and\n      dup2\n      mstore\n      0x20\n      add\n      swap1\n      dup2\n      mstore\n      0x20\n      add\n      0x00\n      keccak256\n      0x00\n        /* \"contracts/setAccessTime.sol\":4409:4442  authorizedViewers[viewers] = true */\n      0x0100\n      exp\n      dup2\n      sload\n      dup2\n      0xff\n      mul\n      not\n      and\n      swap1\n      dup4\n      iszero\n      iszero\n      mul\n      or\n      swap1\n      sstore\n      pop\n        /* \"contracts/setAccessTime.sol\":4285:4449  {... */\n      pop\n        /* \"contracts/setAccessTime.sol\":4189:4449  function addViewer(address viewers, uint256 timestamp)... */\n      pop\n      pop\n      jump\t// out\n        /* \"contracts/setAccessTime.sol\":7557:8508  function viewCertificate(address studentAddress)... */\n    tag_28:\n        /* \"contracts/setAccessTime.sol\":7693:7718  string memory studentName */\n      0x60\n        /* \"contracts/setAccessTime.sol\":7732:7755  string memory studentId */\n      dup1\n        /* \"contracts/setAccessTime.sol\":7769:7790  string memory faculty */\n      0x60\n        /* \"contracts/setAccessTime.sol\":7804:7828  string memory department */\n      dup1\n        /* \"contracts/setAccessTime.sol\":7842:7860  uint256 accessTime */\n      0x00\n        /* \"contracts/setAccessTime.sol\":2205:2222  authorizedViewers */\n      0x02\n        /* \"contracts/setAccessTime.sol\":2205:2234  authorizedViewers[msg.sender] */\n      0x00\n        /* \"contracts/setAccessTime.sol\":2223:2233  msg.sender */\n      caller\n        /* \"contracts/setAccessTime.sol\":2205:2234  authorizedViewers[msg.sender] */\n      0xffffffffffffffffffffffffffffffffffffffff\n      and\n      0xffffffffffffffffffffffffffffffffffffffff\n      and\n      dup2\n      mstore\n      0x20\n      add\n      swap1\n      dup2\n      mstore\n      0x20\n      add\n      0x00\n      keccak256\n      0x00\n      swap1\n      sload\n      swap1\n      0x0100\n      exp\n      swap1\n      div\n      0xff\n      and\n        /* \"contracts/setAccessTime.sol\":2184:2306  require(... */\n      tag_78\n      jumpi\n      mload(0x40)\n      0x08c379a000000000000000000000000000000000000000000000000000000000\n      dup2\n      mstore\n      0x04\n      add\n      tag_79\n      swap1\n      tag_80\n      jump\t// in\n    tag_79:\n      mload(0x40)\n      dup1\n      swap2\n      sub\n      swap1\n      revert\n    tag_78:\n        /* \"contracts/setAccessTime.sol\":7906:7923  authorizedStudent */\n      0x03\n        /* \"contracts/setAccessTime.sol\":7906:7939  authorizedStudent[studentAddress] */\n      0x00\n        /* \"contracts/setAccessTime.sol\":7924:7938  studentAddress */\n      dup8\n        /* \"contracts/setAccessTime.sol\":7906:7939  authorizedStudent[studentAddress] */\n      0xffffffffffffffffffffffffffffffffffffffff\n      and\n      0xffffffffffffffffffffffffffffffffffffffff\n      and\n      dup2\n      mstore\n      0x20\n      add\n      swap1\n      dup2\n      mstore\n      0x20\n      add\n      0x00\n      keccak256\n      0x00\n      swap1\n      sload\n      swap1\n      0x0100\n      exp\n      swap1\n      div\n      0xff\n      and\n        /* \"contracts/setAccessTime.sol\":7885:7999  require(... */\n      tag_82\n      jumpi\n      mload(0x40)\n      0x08c379a000000000000000000000000000000000000000000000000000000000\n      dup2\n      mstore\n      0x04\n      add\n      tag_83\n      swap1\n      tag_84\n      jump\t// in\n    tag_83:\n      mload(0x40)\n      dup1\n      swap2\n      sub\n      swap1\n      revert\n    tag_82:\n        /* \"contracts/setAccessTime.sol\":8009:8032  Student storage student */\n      0x00\n        /* \"contracts/setAccessTime.sol\":8035:8043  students */\n      0x04\n        /* \"contracts/setAccessTime.sol\":8035:8059  students[studentAddress] */\n      0x00\n        /* \"contracts/setAccessTime.sol\":8044:8058  studentAddress */\n      dup9\n        /* \"contracts/setAccessTime.sol\":8035:8059  students[studentAddress] */\n      0xffffffffffffffffffffffffffffffffffffffff\n      and\n      0xffffffffffffffffffffffffffffffffffffffff\n      and\n      dup2\n      mstore\n      0x20\n      add\n      swap1\n      dup2\n      mstore\n      0x20\n      add\n      0x00\n      keccak256\n        /* \"contracts/setAccessTime.sol\":8009:8059  Student storage student = students[studentAddress] */\n      swap1\n      pop\n        /* \"contracts/setAccessTime.sol\":8348:8355  student */\n      dup1\n        /* \"contracts/setAccessTime.sol\":8348:8367  student.studentName */\n      0x00\n      add\n        /* \"contracts/setAccessTime.sol\":8381:8388  student */\n      dup2\n        /* \"contracts/setAccessTime.sol\":8381:8398  student.studentId */\n      0x01\n      add\n        /* \"contracts/setAccessTime.sol\":8412:8419  student */\n      dup3\n        /* \"contracts/setAccessTime.sol\":8412:8427  student.faculty */\n      0x02\n      add\n        /* \"contracts/setAccessTime.sol\":8441:8448  student */\n      dup4\n        /* \"contracts/setAccessTime.sol\":8441:8459  student.department */\n      0x03\n      add\n        /* \"contracts/setAccessTime.sol\":8473:8480  student */\n      dup5\n        /* \"contracts/setAccessTime.sol\":8473:8491  student.accessTime */\n      0x04\n      add\n      sload\n        /* \"contracts/setAccessTime.sol\":8327:8501  return (... */\n      dup5\n      dup1\n      sload\n      tag_85\n      swap1\n      tag_86\n      jump\t// in\n    tag_85:\n      dup1\n      0x1f\n      add\n      0x20\n      dup1\n      swap2\n      div\n      mul\n      0x20\n      add\n      mload(0x40)\n      swap1\n      dup2\n      add\n      0x40\n      mstore\n      dup1\n      swap3\n      swap2\n      swap1\n      dup2\n      dup2\n      mstore\n      0x20\n      add\n      dup3\n      dup1\n      sload\n      tag_87\n      swap1\n      tag_86\n      jump\t// in\n    tag_87:\n      dup1\n      iszero\n      tag_88\n      jumpi\n      dup1\n      0x1f\n      lt\n      tag_89\n      jumpi\n      0x0100\n      dup1\n      dup4\n      sload\n      div\n      mul\n      dup4\n      mstore\n      swap2\n      0x20\n      add\n      swap2\n      jump(tag_88)\n    tag_89:\n      dup3\n      add\n      swap2\n      swap1\n      0x00\n      mstore\n      keccak256(0x00, 0x20)\n      swap1\n    tag_90:\n      dup2\n      sload\n      dup2\n      mstore\n      swap1\n      0x01\n      add\n      swap1\n      0x20\n      add\n      dup1\n      dup4\n      gt\n      tag_90\n      jumpi\n      dup3\n      swap1\n      sub\n      0x1f\n      and\n      dup3\n      add\n      swap2\n    tag_88:\n      pop\n      pop\n      pop\n      pop\n      pop\n      swap5\n      pop\n      dup4\n      dup1\n      sload\n      tag_91\n      swap1\n      tag_86\n      jump\t// in\n    tag_91:\n      dup1\n      0x1f\n      add\n      0x20\n      dup1\n      swap2\n      div\n      mul\n      0x20\n      add\n      mload(0x40)\n      swap1\n      dup2\n      add\n      0x40\n      mstore\n      dup1\n      swap3\n      swap2\n      swap1\n      dup2\n      dup2\n      mstore\n      0x20\n      add\n      dup3\n      dup1\n      sload\n      tag_92\n      swap1\n      tag_86\n      jump\t// in\n    tag_92:\n      dup1\n      iszero\n      tag_93\n      jumpi\n      dup1\n      0x1f\n      lt\n      tag_94\n      jumpi\n      0x0100\n      dup1\n      dup4\n      sload\n      div\n      mul\n      dup4\n      mstore\n      swap2\n      0x20\n      add\n      swap2\n      jump(tag_93)\n    tag_94:\n      dup3\n      add\n      swap2\n      swap1\n      0x00\n      mstore\n      keccak256(0x00, 0x20)\n      swap1\n    tag_95:\n      dup2\n      sload\n      dup2\n      mstore\n      swap1\n      0x01\n      add\n      swap1\n      0x20\n      add\n      dup1\n      dup4\n      gt\n      tag_95\n      jumpi\n      dup3\n      swap1\n      sub\n      0x1f\n      and\n      dup3\n      add\n      swap2\n    tag_93:\n      pop\n      pop\n      pop\n      pop\n      pop\n      swap4\n      pop\n      dup3\n      dup1\n      sload\n      tag_96\n      swap1\n      tag_86\n      jump\t// in\n    tag_96:\n      dup1\n      0x1f\n      add\n      0x20\n      dup1\n      swap2\n      div\n      mul\n      0x20\n      add\n      mload(0x40)\n      swap1\n      dup2\n      add\n      0x40\n      mstore\n      dup1\n      swap3\n      swap2\n      swap1\n      dup2\n      dup2\n      mstore\n      0x20\n      add\n      dup3\n      dup1\n      sload\n      tag_97\n      swap1\n      tag_86\n      jump\t// in\n    tag_97:\n      dup1\n      iszero\n      tag_98\n      jumpi\n      dup1\n      0x1f\n      lt\n      tag_99\n      jumpi\n      0x0100\n      dup1\n      dup4\n      sload\n      div\n      mul\n      dup4\n      mstore\n      swap2\n      0x20\n      add\n      swap2\n      jump(tag_98)\n    tag_99:\n      dup3\n      add\n      swap2\n      swap1\n      0x00\n      mstore\n      keccak256(0x00, 0x20)\n      swap1\n    tag_100:\n      dup2\n      sload\n      dup2\n      mstore\n      swap1\n      0x01\n      add\n      swap1\n      0x20\n      add\n      dup1\n      dup4\n      gt\n      tag_100\n      jumpi\n      dup3\n      swap1\n      sub\n      0x1f\n      and\n      dup3\n      add\n      swap2\n    tag_98:\n      pop\n      pop\n      pop\n      pop\n      pop\n      swap3\n      pop\n      dup2\n      dup1\n      sload\n      tag_101\n      swap1\n      tag_86\n      jump\t// in\n    tag_101:\n      dup1\n      0x1f\n      add\n      0x20\n      dup1\n      swap2\n      div\n      mul\n      0x20\n      add\n      mload(0x40)\n      swap1\n      dup2\n      add\n      0x40\n      mstore\n      dup1\n      swap3\n      swap2\n      swap1\n      dup2\n      dup2\n      mstore\n      0x20\n      add\n      dup3\n      dup1\n      sload\n      tag_102\n      swap1\n      tag_86\n      jump\t// in\n    tag_102:\n      dup1\n      iszero\n      tag_103\n      jumpi\n      dup1\n      0x1f\n      lt\n      tag_104\n      jumpi\n      0x0100\n      dup1\n      dup4\n      sload\n      div\n      mul\n      dup4\n      mstore\n      swap2\n      0x20\n      add\n      swap2\n      jump(tag_103)\n    tag_104:\n      dup3\n      add\n      swap2\n      swap1\n      0x00\n      mstore\n      keccak256(0x00, 0x20)\n      swap1\n    tag_105:\n      dup2\n      sload\n      dup2\n      mstore\n      swap1\n      0x01\n      add\n      swap1\n      0x20\n      add\n      dup1\n      dup4\n      gt\n      tag_105\n      jumpi\n      dup3\n      swap1\n      sub\n      0x1f\n      and\n      dup3\n      add\n      swap2\n    tag_103:\n      pop\n      pop\n      pop\n      pop\n      pop\n      swap2\n      pop\n      swap6\n      pop\n      swap6\n      pop\n      swap6\n      pop\n      swap6\n      pop\n      swap6\n      pop\n      pop\n        /* \"contracts/setAccessTime.sol\":7557:8508  function viewCertificate(address studentAddress)... */\n      swap2\n      swap4\n      swap6\n      swap1\n      swap3\n      swap5\n      pop\n      jump\t// out\n        /* \"contracts/setAccessTime.sol\":3441:3865  function getAdmin()... */\n    tag_32:\n        /* \"contracts/setAccessTime.sol\":3519:3537  string memory name */\n      0x60\n        /* \"contracts/setAccessTime.sol\":3551:3567  string memory id */\n      dup1\n        /* \"contracts/setAccessTime.sol\":3581:3603  string memory position */\n      0x60\n        /* \"contracts/setAccessTime.sol\":3649:3666  authorizedIssuers */\n      0x01\n        /* \"contracts/setAccessTime.sol\":3649:3678  authorizedIssuers[msg.sender] */\n      0x00\n        /* \"contracts/setAccessTime.sol\":3667:3677  msg.sender */\n      caller\n        /* \"contracts/setAccessTime.sol\":3649:3678  authorizedIssuers[msg.sender] */\n      0xffffffffffffffffffffffffffffffffffffffff\n      and\n      0xffffffffffffffffffffffffffffffffffffffff\n      and\n      dup2\n      mstore\n      0x20\n      add\n      swap1\n      dup2\n      mstore\n      0x20\n      add\n      0x00\n      keccak256\n      0x00\n      swap1\n      sload\n      swap1\n      0x0100\n      exp\n      swap1\n      div\n      0xff\n      and\n        /* \"contracts/setAccessTime.sol\":3628:3748  require(... */\n      tag_107\n      jumpi\n      mload(0x40)\n      0x08c379a000000000000000000000000000000000000000000000000000000000\n      dup2\n      mstore\n      0x04\n      add\n      tag_108\n      swap1\n      tag_109\n      jump\t// in\n    tag_108:\n      mload(0x40)\n      dup1\n      swap2\n      sub\n      swap1\n      revert\n    tag_107:\n        /* \"contracts/setAccessTime.sol\":3758:3777  Admin storage admin */\n      0x00\n        /* \"contracts/setAccessTime.sol\":3780:3786  admins */\n      0x05\n        /* \"contracts/setAccessTime.sol\":3780:3798  admins[msg.sender] */\n      0x00\n        /* \"contracts/setAccessTime.sol\":3787:3797  msg.sender */\n      caller\n        /* \"contracts/setAccessTime.sol\":3780:3798  admins[msg.sender] */\n      0xffffffffffffffffffffffffffffffffffffffff\n      and\n      0xffffffffffffffffffffffffffffffffffffffff\n      and\n      dup2\n      mstore\n      0x20\n      add\n      swap1\n      dup2\n      mstore\n      0x20\n      add\n      0x00\n      keccak256\n        /* \"contracts/setAccessTime.sol\":3758:3798  Admin storage admin = admins[msg.sender] */\n      swap1\n      pop\n        /* \"contracts/setAccessTime.sol\":3816:3821  admin */\n      dup1\n        /* \"contracts/setAccessTime.sol\":3816:3826  admin.name */\n      0x00\n      add\n        /* \"contracts/setAccessTime.sol\":3828:3833  admin */\n      dup2\n        /* \"contracts/setAccessTime.sol\":3828:3841  admin.adminId */\n      0x01\n      add\n        /* \"contracts/setAccessTime.sol\":3843:3848  admin */\n      dup3\n        /* \"contracts/setAccessTime.sol\":3843:3857  admin.position */\n      0x02\n      add\n        /* \"contracts/setAccessTime.sol\":3808:3858  return (admin.name, admin.adminId, admin.position) */\n      dup3\n      dup1\n      sload\n      tag_110\n      swap1\n      tag_86\n      jump\t// in\n    tag_110:\n      dup1\n      0x1f\n      add\n      0x20\n      dup1\n      swap2\n      div\n      mul\n      0x20\n      add\n      mload(0x40)\n      swap1\n      dup2\n      add\n      0x40\n      mstore\n      dup1\n      swap3\n      swap2\n      swap1\n      dup2\n      dup2\n      mstore\n      0x20\n      add\n      dup3\n      dup1\n      sload\n      tag_111\n      swap1\n      tag_86\n      jump\t// in\n    tag_111:\n      dup1\n      iszero\n      tag_112\n      jumpi\n      dup1\n      0x1f\n      lt\n      tag_113\n      jumpi\n      0x0100\n      dup1\n      dup4\n      sload\n      div\n      mul\n      dup4\n      mstore\n      swap2\n      0x20\n      add\n      swap2\n      jump(tag_112)\n    tag_113:\n      dup3\n      add\n      swap2\n      swap1\n      0x00\n      mstore\n      keccak256(0x00, 0x20)\n      swap1\n    tag_114:\n      dup2\n      sload\n      dup2\n      mstore\n      swap1\n      0x01\n      add\n      swap1\n      0x20\n      add\n      dup1\n      dup4\n      gt\n      tag_114\n      jumpi\n      dup3\n      swap1\n      sub\n      0x1f\n      and\n      dup3\n      add\n      swap2\n    tag_112:\n      pop\n      pop\n      pop\n      pop\n      pop\n      swap3\n      pop\n      dup2\n      dup1\n      sload\n      tag_115\n      swap1\n      tag_86\n      jump\t// in\n    tag_115:\n      dup1\n      0x1f\n      add\n      0x20\n      dup1\n      swap2\n      div\n      mul\n      0x20\n      add\n      mload(0x40)\n      swap1\n      dup2\n      add\n      0x40\n      mstore\n      dup1\n      swap3\n      swap2\n      swap1\n      dup2\n      dup2\n      mstore\n      0x20\n      add\n      dup3\n      dup1\n      sload\n      tag_116\n      swap1\n      tag_86\n      jump\t// in\n    tag_116:\n      dup1\n      iszero\n      tag_117\n      jumpi\n      dup1\n      0x1f\n      lt\n      tag_118\n      jumpi\n      0x0100\n      dup1\n      dup4\n      sload\n      div\n      mul\n      dup4\n      mstore\n      swap2\n      0x20\n      add\n      swap2\n      jump(tag_117)\n    tag_118:\n      dup3\n      add\n      swap2\n      swap1\n      0x00\n      mstore\n      keccak256(0x00, 0x20)\n      swap1\n    tag_119:\n      dup2\n      sload\n      dup2\n      mstore\n      swap1\n      0x01\n      add\n      swap1\n      0x20\n      add\n      dup1\n      dup4\n      gt\n      tag_119\n      jumpi\n      dup3\n      swap1\n      sub\n      0x1f\n      and\n      dup3\n      add\n      swap2\n    tag_117:\n      pop\n      pop\n      pop\n      pop\n      pop\n      swap2\n      pop\n      dup1\n      dup1\n      sload\n      tag_120\n      swap1\n      tag_86\n      jump\t// in\n    tag_120:\n      dup1\n      0x1f\n      add\n      0x20\n      dup1\n      swap2\n      div\n      mul\n      0x20\n      add\n      mload(0x40)\n      swap1\n      dup2\n      add\n      0x40\n      mstore\n      dup1\n      swap3\n      swap2\n      swap1\n      dup2\n      dup2\n      mstore\n      0x20\n      add\n      dup3\n      dup1\n      sload\n      tag_121\n      swap1\n      tag_86\n      jump\t// in\n    tag_121:\n      dup1\n      iszero\n      tag_122\n      jumpi\n      dup1\n      0x1f\n      lt\n      tag_123\n      jumpi\n      0x0100\n      dup1\n      dup4\n      sload\n      div\n      mul\n      dup4\n      mstore\n      swap2\n      0x20\n      add\n      swap2\n      jump(tag_122)\n    tag_123:\n      dup3\n      add\n      swap2\n      swap1\n      0x00\n      mstore\n      keccak256(0x00, 0x20)\n      swap1\n    tag_124:\n      dup2\n      sload\n      dup2\n      mstore\n      swap1\n      0x01\n      add\n      swap1\n      0x20\n      add\n      dup1\n      dup4\n      gt\n      tag_124\n      jumpi\n      dup3\n      swap1\n      sub\n      0x1f\n      and\n      dup3\n      add\n      swap2\n    tag_122:\n      pop\n      pop\n      pop\n      pop\n      pop\n      swap1\n      pop\n      swap4\n      pop\n      swap4\n      pop\n      swap4\n      pop\n      pop\n        /* \"contracts/setAccessTime.sol\":3441:3865  function getAdmin()... */\n      swap1\n      swap2\n      swap3\n      jump\t// out\n        /* \"contracts/setAccessTime.sol\":855:890  Student[] public StudentCertificate */\n    tag_38:\n      0x00\n      dup2\n      dup2\n      sload\n      dup2\n      lt\n      tag_125\n      jumpi\n      0x00\n      dup1\n      revert\n    tag_125:\n      swap1\n      0x00\n      mstore\n      keccak256(0x00, 0x20)\n      swap1\n      0x05\n      mul\n      add\n      0x00\n      swap2\n      pop\n      swap1\n      pop\n      dup1\n      0x00\n      add\n      dup1\n      sload\n      tag_127\n      swap1\n      tag_86\n      jump\t// in\n    tag_127:\n      dup1\n      0x1f\n      add\n      0x20\n      dup1\n      swap2\n      div\n      mul\n      0x20\n      add\n      mload(0x40)\n      swap1\n      dup2\n      add\n      0x40\n      mstore\n      dup1\n      swap3\n      swap2\n      swap1\n      dup2\n      dup2\n      mstore\n      0x20\n      add\n      dup3\n      dup1\n      sload\n      tag_128\n      swap1\n      tag_86\n      jump\t// in\n    tag_128:\n      dup1\n      iszero\n      tag_129\n      jumpi\n      dup1\n      0x1f\n      lt\n      tag_130\n      jumpi\n      0x0100\n      dup1\n      dup4\n      sload\n      div\n      mul\n      dup4\n      mstore\n      swap2\n      0x20\n      add\n      swap2\n      jump(tag_129)\n    tag_130:\n      dup3\n      add\n      swap2\n      swap1\n      0x00\n      mstore\n      keccak256(0x00, 0x20)\n      swap1\n    tag_131:\n      dup2\n      sload\n      dup2\n      mstore\n      swap1\n      0x01\n      add\n      swap1\n      0x20\n      add\n      dup1\n      dup4\n      gt\n      tag_131\n      jumpi\n      dup3\n      swap1\n      sub\n      0x1f\n      and\n      dup3\n      add\n      swap2\n    tag_129:\n      pop\n      pop\n      pop\n      pop\n      pop\n      swap1\n      dup1\n      0x01\n      add\n      dup1\n      sload\n      tag_132\n      swap1\n      tag_86\n      jump\t// in\n    tag_132:\n      dup1\n      0x1f\n      add\n      0x20\n      dup1\n      swap2\n      div\n      mul\n      0x20\n      add\n      mload(0x40)\n      swap1\n      dup2\n      add\n      0x40\n      mstore\n      dup1\n      swap3\n      swap2\n      swap1\n      dup2\n      dup2\n      mstore\n      0x20\n      add\n      dup3\n      dup1\n      sload\n      tag_133\n      swap1\n      tag_86\n      jump\t// in\n    tag_133:\n      dup1\n      iszero\n      tag_134\n      jumpi\n      dup1\n      0x1f\n      lt\n      tag_135\n      jumpi\n      0x0100\n      dup1\n      dup4\n      sload\n      div\n      mul\n      dup4\n      mstore\n      swap2\n      0x20\n      add\n      swap2\n      jump(tag_134)\n    tag_135:\n      dup3\n      add\n      swap2\n      swap1\n      0x00\n      mstore\n      keccak256(0x00, 0x20)\n      swap1\n    tag_136:\n      dup2\n      sload\n      dup2\n      mstore\n      swap1\n      0x01\n      add\n      swap1\n      0x20\n      add\n      dup1\n      dup4\n      gt\n      tag_136\n      jumpi\n      dup3\n      swap1\n      sub\n      0x1f\n      and\n      dup3\n      add\n      swap2\n    tag_134:\n      pop\n      pop\n      pop\n      pop\n      pop\n      swap1\n      dup1\n      0x02\n      add\n      dup1\n      sload\n      tag_137\n      swap1\n      tag_86\n      jump\t// in\n    tag_137:\n      dup1\n      0x1f\n      add\n      0x20\n      dup1\n      swap2\n      div\n      mul\n      0x20\n      add\n      mload(0x40)\n      swap1\n      dup2\n      add\n      0x40\n      mstore\n      dup1\n      swap3\n      swap2\n      swap1\n      dup2\n      dup2\n      mstore\n      0x20\n      add\n      dup3\n      dup1\n      sload\n      tag_138\n      swap1\n      tag_86\n      jump\t// in\n    tag_138:\n      dup1\n      iszero\n      tag_139\n      jumpi\n      dup1\n      0x1f\n      lt\n      tag_140\n      jumpi\n      0x0100\n      dup1\n      dup4\n      sload\n      div\n      mul\n      dup4\n      mstore\n      swap2\n      0x20\n      add\n      swap2\n      jump(tag_139)\n    tag_140:\n      dup3\n      add\n      swap2\n      swap1\n      0x00\n      mstore\n      keccak256(0x00, 0x20)\n      swap1\n    tag_141:\n      dup2\n      sload\n      dup2\n      mstore\n      swap1\n      0x01\n      add\n      swap1\n      0x20\n      add\n      dup1\n      dup4\n      gt\n      tag_141\n      jumpi\n      dup3\n      swap1\n      sub\n      0x1f\n      and\n      dup3\n      add\n      swap2\n    tag_139:\n      pop\n      pop\n      pop\n      pop\n      pop\n      swap1\n      dup1\n      0x03\n      add\n      dup1\n      sload\n      tag_142\n      swap1\n      tag_86\n      jump\t// in\n    tag_142:\n      dup1\n      0x1f\n      add\n      0x20\n      dup1\n      swap2\n      div\n      mul\n      0x20\n      add\n      mload(0x40)\n      swap1\n      dup2\n      add\n      0x40\n      mstore\n      dup1\n      swap3\n      swap2\n      swap1\n      dup2\n      dup2\n      mstore\n      0x20\n      add\n      dup3\n      dup1\n      sload\n      tag_143\n      swap1\n      tag_86\n      jump\t// in\n    tag_143:\n      dup1\n      iszero\n      tag_144\n      jumpi\n      dup1\n      0x1f\n      lt\n      tag_145\n      jumpi\n      0x0100\n      dup1\n      dup4\n      sload\n      div\n      mul\n      dup4\n      mstore\n      swap2\n      0x20\n      add\n      swap2\n      jump(tag_144)\n    tag_145:\n      dup3\n      add\n      swap2\n      swap1\n      0x00\n      mstore\n      keccak256(0x00, 0x20)\n      swap1\n    tag_146:\n      dup2\n      sload\n      dup2\n      mstore\n      swap1\n      0x01\n      add\n      swap1\n      0x20\n      add\n      dup1\n      dup4\n      gt\n      tag_146\n      jumpi\n      dup3\n      swap1\n      sub\n      0x1f\n      and\n      dup3\n      add\n      swap2\n    tag_144:\n      pop\n      pop\n      pop\n      pop\n      pop\n      swap1\n      dup1\n      0x04\n      add\n      sload\n      swap1\n      pop\n      dup6\n      jump\t// out\n        /* \"contracts/setAccessTime.sol\":6790:7402  function getCertificate()... */\n    tag_41:\n        /* \"contracts/setAccessTime.sol\":6874:6899  string memory studentName */\n      0x60\n        /* \"contracts/setAccessTime.sol\":6913:6936  string memory studentId */\n      dup1\n        /* \"contracts/setAccessTime.sol\":6950:6971  string memory faculty */\n      0x60\n        /* \"contracts/setAccessTime.sol\":6985:7009  string memory department */\n      dup1\n        /* \"contracts/setAccessTime.sol\":7055:7072  authorizedStudent */\n      0x03\n        /* \"contracts/setAccessTime.sol\":7055:7084  authorizedStudent[msg.sender] */\n      0x00\n        /* \"contracts/setAccessTime.sol\":7073:7083  msg.sender */\n      caller\n        /* \"contracts/setAccessTime.sol\":7055:7084  authorizedStudent[msg.sender] */\n      0xffffffffffffffffffffffffffffffffffffffff\n      and\n      0xffffffffffffffffffffffffffffffffffffffff\n      and\n      dup2\n      mstore\n      0x20\n      add\n      swap1\n      dup2\n      mstore\n      0x20\n      add\n      0x00\n      keccak256\n      0x00\n      swap1\n      sload\n      swap1\n      0x0100\n      exp\n      swap1\n      div\n      0xff\n      and\n        /* \"contracts/setAccessTime.sol\":7055:7117  authorizedStudent[msg.sender] || authorizedIssuers[msg.sender] */\n      dup1\n      tag_148\n      jumpi\n      pop\n        /* \"contracts/setAccessTime.sol\":7088:7105  authorizedIssuers */\n      0x01\n        /* \"contracts/setAccessTime.sol\":7088:7117  authorizedIssuers[msg.sender] */\n      0x00\n        /* \"contracts/setAccessTime.sol\":7106:7116  msg.sender */\n      caller\n        /* \"contracts/setAccessTime.sol\":7088:7117  authorizedIssuers[msg.sender] */\n      0xffffffffffffffffffffffffffffffffffffffff\n      and\n      0xffffffffffffffffffffffffffffffffffffffff\n      and\n      dup2\n      mstore\n      0x20\n      add\n      swap1\n      dup2\n      mstore\n      0x20\n      add\n      0x00\n      keccak256\n      0x00\n      swap1\n      sload\n      swap1\n      0x0100\n      exp\n      swap1\n      div\n      0xff\n      and\n        /* \"contracts/setAccessTime.sol\":7055:7117  authorizedStudent[msg.sender] || authorizedIssuers[msg.sender] */\n    tag_148:\n        /* \"contracts/setAccessTime.sol\":7034:7187  require(... */\n      tag_149\n      jumpi\n      mload(0x40)\n      0x08c379a000000000000000000000000000000000000000000000000000000000\n      dup2\n      mstore\n      0x04\n      add\n      tag_150\n      swap1\n      tag_109\n      jump\t// in\n    tag_150:\n      mload(0x40)\n      dup1\n      swap2\n      sub\n      swap1\n      revert\n    tag_149:\n        /* \"contracts/setAccessTime.sol\":7197:7220  Student storage student */\n      0x00\n        /* \"contracts/setAccessTime.sol\":7223:7231  students */\n      0x04\n        /* \"contracts/setAccessTime.sol\":7223:7243  students[msg.sender] */\n      0x00\n        /* \"contracts/setAccessTime.sol\":7232:7242  msg.sender */\n      caller\n        /* \"contracts/setAccessTime.sol\":7223:7243  students[msg.sender] */\n      0xffffffffffffffffffffffffffffffffffffffff\n      and\n      0xffffffffffffffffffffffffffffffffffffffff\n      and\n      dup2\n      mstore\n      0x20\n      add\n      swap1\n      dup2\n      mstore\n      0x20\n      add\n      0x00\n      keccak256\n        /* \"contracts/setAccessTime.sol\":7197:7243  Student storage student = students[msg.sender] */\n      swap1\n      pop\n        /* \"contracts/setAccessTime.sol\":7274:7281  student */\n      dup1\n        /* \"contracts/setAccessTime.sol\":7274:7293  student.studentName */\n      0x00\n      add\n        /* \"contracts/setAccessTime.sol\":7307:7314  student */\n      dup2\n        /* \"contracts/setAccessTime.sol\":7307:7324  student.studentId */\n      0x01\n      add\n        /* \"contracts/setAccessTime.sol\":7338:7345  student */\n      dup3\n        /* \"contracts/setAccessTime.sol\":7338:7353  student.faculty */\n      0x02\n      add\n        /* \"contracts/setAccessTime.sol\":7367:7374  student */\n      dup4\n        /* \"contracts/setAccessTime.sol\":7367:7385  student.department */\n      0x03\n      add\n        /* \"contracts/setAccessTime.sol\":7253:7395  return (... */\n      dup4\n      dup1\n      sload\n      tag_151\n      swap1\n      tag_86\n      jump\t// in\n    tag_151:\n      dup1\n      0x1f\n      add\n      0x20\n      dup1\n      swap2\n      div\n      mul\n      0x20\n      add\n      mload(0x40)\n      swap1\n      dup2\n      add\n      0x40\n      mstore\n      dup1\n      swap3\n      swap2\n      swap1\n      dup2\n      dup2\n      mstore\n      0x20\n      add\n      dup3\n      dup1\n      sload\n      tag_152\n      swap1\n      tag_86\n      jump\t// in\n    tag_152:\n      dup1\n      iszero\n      tag_153\n      jumpi\n      dup1\n      0x1f\n      lt\n      tag_154\n      jumpi\n      0x0100\n      dup1\n      dup4\n      sload\n      div\n      mul\n      dup4\n      mstore\n      swap2\n      0x20\n      add\n      swap2\n      jump(tag_153)\n    tag_154:\n      dup3\n      add\n      swap2\n      swap1\n      0x00\n      mstore\n      keccak256(0x00, 0x20)\n      swap1\n    tag_155:\n      dup2\n      sload\n      dup2\n      mstore\n      swap1\n      0x01\n      add\n      swap1\n      0x20\n      add\n      dup1\n      dup4\n      gt\n      tag_155\n      jumpi\n      dup3\n      swap1\n      sub\n      0x1f\n      and\n      dup3\n      add\n      swap2\n    tag_153:\n      pop\n      pop\n      pop\n      pop\n      pop\n      swap4\n      pop\n      dup3\n      dup1\n      sload\n      tag_156\n      swap1\n      tag_86\n      jump\t// in\n    tag_156:\n      dup1\n      0x1f\n      add\n      0x20\n      dup1\n      swap2\n      div\n      mul\n      0x20\n      add\n      mload(0x40)\n      swap1\n      dup2\n      add\n      0x40\n      mstore\n      dup1\n      swap3\n      swap2\n      swap1\n      dup2\n      dup2\n      mstore\n      0x20\n      add\n      dup3\n      dup1\n      sload\n      tag_157\n      swap1\n      tag_86\n      jump\t// in\n    tag_157:\n      dup1\n      iszero\n      tag_158\n      jumpi\n      dup1\n      0x1f\n      lt\n      tag_159\n      jumpi\n      0x0100\n      dup1\n      dup4\n      sload\n      div\n      mul\n      dup4\n      mstore\n      swap2\n      0x20\n      add\n      swap2\n      jump(tag_158)\n    tag_159:\n      dup3\n      add\n      swap2\n      swap1\n      0x00\n      mstore\n      keccak256(0x00, 0x20)\n      swap1\n    tag_160:\n      dup2\n      sload\n      dup2\n      mstore\n      swap1\n      0x01\n      add\n      swap1\n      0x20\n      add\n      dup1\n      dup4\n      gt\n      tag_160\n      jumpi\n      dup3\n      swap1\n      sub\n      0x1f\n      and\n      dup3\n      add\n      swap2\n    tag_158:\n      pop\n      pop\n      pop\n      pop\n      pop\n      swap3\n      pop\n      dup2\n      dup1\n      sload\n      tag_161\n      swap1\n      tag_86\n      jump\t// in\n    tag_161:\n      dup1\n      0x1f\n      add\n      0x20\n      dup1\n      swap2\n      div\n      mul\n      0x20\n      add\n      mload(0x40)\n      swap1\n      dup2\n      add\n      0x40\n      mstore\n      dup1\n      swap3\n      swap2\n      swap1\n      dup2\n      dup2\n      mstore\n      0x20\n      add\n      dup3\n      dup1\n      sload\n      tag_162\n      swap1\n      tag_86\n      jump\t// in\n    tag_162:\n      dup1\n      iszero\n      tag_163\n      jumpi\n      dup1\n      0x1f\n      lt\n      tag_164\n      jumpi\n      0x0100\n      dup1\n      dup4\n      sload\n      div\n      mul\n      dup4\n      mstore\n      swap2\n      0x20\n      add\n      swap2\n      jump(tag_163)\n    tag_164:\n      dup3\n      add\n      swap2\n      swap1\n      0x00\n      mstore\n      keccak256(0x00, 0x20)\n      swap1\n    tag_165:\n      dup2\n      sload\n      dup2\n      mstore\n      swap1\n      0x01\n      add\n      swap1\n      0x20\n      add\n      dup1\n      dup4\n      gt\n      tag_165\n      jumpi\n      dup3\n      swap1\n      sub\n      0x1f\n      and\n      dup3\n      add\n      swap2\n    tag_163:\n      pop\n      pop\n      pop\n      pop\n      pop\n      swap2\n      pop\n      dup1\n      dup1\n      sload\n      tag_166\n      swap1\n      tag_86\n      jump\t// in\n    tag_166:\n      dup1\n      0x1f\n      add\n      0x20\n      dup1\n      swap2\n      div\n      mul\n      0x20\n      add\n      mload(0x40)\n      swap1\n      dup2\n      add\n      0x40\n      mstore\n      dup1\n      swap3\n      swap2\n      swap1\n      dup2\n      dup2\n      mstore\n      0x20\n      add\n      dup3\n      dup1\n      sload\n      tag_167\n      swap1\n      tag_86\n      jump\t// in\n    tag_167:\n      dup1\n      iszero\n      tag_168\n      jumpi\n      dup1\n      0x1f\n      lt\n      tag_169\n      jumpi\n      0x0100\n      dup1\n      dup4\n      sload\n      div\n      mul\n      dup4\n      mstore\n      swap2\n      0x20\n      add\n      swap2\n      jump(tag_168)\n    tag_169:\n      dup3\n      add\n      swap2\n      swap1\n      0x00\n      mstore\n      keccak256(0x00, 0x20)\n      swap1\n    tag_170:\n      dup2\n      sload\n      dup2\n      mstore\n      swap1\n      0x01\n      add\n      swap1\n      0x20\n      add\n      dup1\n      dup4\n      gt\n      tag_170\n      jumpi\n      dup3\n      swap1\n      sub\n      0x1f\n      and\n      dup3\n      add\n      swap2\n    tag_168:\n      pop\n      pop\n      pop\n      pop\n      pop\n      swap1\n      pop\n      swap5\n      pop\n      swap5\n      pop\n      swap5\n      pop\n      swap5\n      pop\n      pop\n        /* \"contracts/setAccessTime.sol\":6790:7402  function getCertificate()... */\n      swap1\n      swap2\n      swap3\n      swap4\n      jump\t// out\n        /* \"contracts/setAccessTime.sol\":5843:6195  function viewStudent() public view returns (Student[] memory) {... */\n    tag_45:\n        /* \"contracts/setAccessTime.sol\":5887:5903  Student[] memory */\n      0x60\n        /* \"contracts/setAccessTime.sol\":5915:5938  uint256 numCertificates */\n      0x00\n        /* \"contracts/setAccessTime.sol\":5941:5959  StudentCertificate */\n      dup1\n        /* \"contracts/setAccessTime.sol\":5941:5966  StudentCertificate.length */\n      dup1\n      sload\n      swap1\n      pop\n        /* \"contracts/setAccessTime.sol\":5915:5966  uint256 numCertificates = StudentCertificate.length */\n      swap1\n      pop\n        /* \"contracts/setAccessTime.sol\":5976:6005  Student[] memory certificates */\n      0x00\n        /* \"contracts/setAccessTime.sol\":6022:6037  numCertificates */\n      dup2\n        /* \"contracts/setAccessTime.sol\":6008:6038  new Student[](numCertificates) */\n      0xffffffffffffffff\n      dup2\n      gt\n      iszero\n      tag_172\n      jumpi\n      tag_173\n      tag_174\n      jump\t// in\n    tag_173:\n    tag_172:\n      mload(0x40)\n      swap1\n      dup1\n      dup3\n      mstore\n      dup1\n      0x20\n      mul\n      0x20\n      add\n      dup3\n      add\n      0x40\n      mstore\n      dup1\n      iszero\n      tag_175\n      jumpi\n      dup2\n      0x20\n      add\n    tag_176:\n      tag_177\n      tag_178\n      jump\t// in\n    tag_177:\n      dup2\n      mstore\n      0x20\n      add\n      swap1\n      0x01\n      swap1\n      sub\n      swap1\n      dup2\n      tag_176\n      jumpi\n      swap1\n      pop\n    tag_175:\n      pop\n        /* \"contracts/setAccessTime.sol\":5976:6038  Student[] memory certificates = new Student[](numCertificates) */\n      swap1\n      pop\n        /* \"contracts/setAccessTime.sol\":6054:6063  uint256 i */\n      0x00\n        /* \"contracts/setAccessTime.sol\":6049:6159  for (uint256 i = 0; i < numCertificates; i++) {... */\n    tag_179:\n        /* \"contracts/setAccessTime.sol\":6073:6088  numCertificates */\n      dup3\n        /* \"contracts/setAccessTime.sol\":6069:6070  i */\n      dup2\n        /* \"contracts/setAccessTime.sol\":6069:6088  i < numCertificates */\n      lt\n        /* \"contracts/setAccessTime.sol\":6049:6159  for (uint256 i = 0; i < numCertificates; i++) {... */\n      iszero\n      tag_180\n      jumpi\n        /* \"contracts/setAccessTime.sol\":6127:6145  StudentCertificate */\n      0x00\n        /* \"contracts/setAccessTime.sol\":6146:6147  i */\n      dup2\n        /* \"contracts/setAccessTime.sol\":6127:6148  StudentCertificate[i] */\n      dup2\n      sload\n      dup2\n      lt\n      tag_182\n      jumpi\n      tag_183\n      tag_184\n      jump\t// in\n    tag_183:\n    tag_182:\n      swap1\n      0x00\n      mstore\n      keccak256(0x00, 0x20)\n      swap1\n      0x05\n      mul\n      add\n        /* \"contracts/setAccessTime.sol\":6109:6148  certificates[i] = StudentCertificate[i] */\n      mload(0x40)\n      dup1\n      0xa0\n      add\n      0x40\n      mstore\n      swap1\n      dup2\n      0x00\n      dup3\n      add\n      dup1\n      sload\n      tag_186\n      swap1\n      tag_86\n      jump\t// in\n    tag_186:\n      dup1\n      0x1f\n      add\n      0x20\n      dup1\n      swap2\n      div\n      mul\n      0x20\n      add\n      mload(0x40)\n      swap1\n      dup2\n      add\n      0x40\n      mstore\n      dup1\n      swap3\n      swap2\n      swap1\n      dup2\n      dup2\n      mstore\n      0x20\n      add\n      dup3\n      dup1\n      sload\n      tag_187\n      swap1\n      tag_86\n      jump\t// in\n    tag_187:\n      dup1\n      iszero\n      tag_188\n      jumpi\n      dup1\n      0x1f\n      lt\n      tag_189\n      jumpi\n      0x0100\n      dup1\n      dup4\n      sload\n      div\n      mul\n      dup4\n      mstore\n      swap2\n      0x20\n      add\n      swap2\n      jump(tag_188)\n    tag_189:\n      dup3\n      add\n      swap2\n      swap1\n      0x00\n      mstore\n      keccak256(0x00, 0x20)\n      swap1\n    tag_190:\n      dup2\n      sload\n      dup2\n      mstore\n      swap1\n      0x01\n      add\n      swap1\n      0x20\n      add\n      dup1\n      dup4\n      gt\n      tag_190\n      jumpi\n      dup3\n      swap1\n      sub\n      0x1f\n      and\n      dup3\n      add\n      swap2\n    tag_188:\n      pop\n      pop\n      pop\n      pop\n      pop\n      dup2\n      mstore\n      0x20\n      add\n      0x01\n      dup3\n      add\n      dup1\n      sload\n      tag_191\n      swap1\n      tag_86\n      jump\t// in\n    tag_191:\n      dup1\n      0x1f\n      add\n      0x20\n      dup1\n      swap2\n      div\n      mul\n      0x20\n      add\n      mload(0x40)\n      swap1\n      dup2\n      add\n      0x40\n      mstore\n      dup1\n      swap3\n      swap2\n      swap1\n      dup2\n      dup2\n      mstore\n      0x20\n      add\n      dup3\n      dup1\n      sload\n      tag_192\n      swap1\n      tag_86\n      jump\t// in\n    tag_192:\n      dup1\n      iszero\n      tag_193\n      jumpi\n      dup1\n      0x1f\n      lt\n      tag_194\n      jumpi\n      0x0100\n      dup1\n      dup4\n      sload\n      div\n      mul\n      dup4\n      mstore\n      swap2\n      0x20\n      add\n      swap2\n      jump(tag_193)\n    tag_194:\n      dup3\n      add\n      swap2\n      swap1\n      0x00\n      mstore\n      keccak256(0x00, 0x20)\n      swap1\n    tag_195:\n      dup2\n      sload\n      dup2\n      mstore\n      swap1\n      0x01\n      add\n      swap1\n      0x20\n      add\n      dup1\n      dup4\n      gt\n      tag_195\n      jumpi\n      dup3\n      swap1\n      sub\n      0x1f\n      and\n      dup3\n      add\n      swap2\n    tag_193:\n      pop\n      pop\n      pop\n      pop\n      pop\n      dup2\n      mstore\n      0x20\n      add\n      0x02\n      dup3\n      add\n      dup1\n      sload\n      tag_196\n      swap1\n      tag_86\n      jump\t// in\n    tag_196:\n      dup1\n      0x1f\n      add\n      0x20\n      dup1\n      swap2\n      div\n      mul\n      0x20\n      add\n      mload(0x40)\n      swap1\n      dup2\n      add\n      0x40\n      mstore\n      dup1\n      swap3\n      swap2\n      swap1\n      dup2\n      dup2\n      mstore\n      0x20\n      add\n      dup3\n      dup1\n      sload\n      tag_197\n      swap1\n      tag_86\n      jump\t// in\n    tag_197:\n      dup1\n      iszero\n      tag_198\n      jumpi\n      dup1\n      0x1f\n      lt\n      tag_199\n      jumpi\n      0x0100\n      dup1\n      dup4\n      sload\n      div\n      mul\n      dup4\n      mstore\n      swap2\n      0x20\n      add\n      swap2\n      jump(tag_198)\n    tag_199:\n      dup3\n      add\n      swap2\n      swap1\n      0x00\n      mstore\n      keccak256(0x00, 0x20)\n      swap1\n    tag_200:\n      dup2\n      sload\n      dup2\n      mstore\n      swap1\n      0x01\n      add\n      swap1\n      0x20\n      add\n      dup1\n      dup4\n      gt\n      tag_200\n      jumpi\n      dup3\n      swap1\n      sub\n      0x1f\n      and\n      dup3\n      add\n      swap2\n    tag_198:\n      pop\n      pop\n      pop\n      pop\n      pop\n      dup2\n      mstore\n      0x20\n      add\n      0x03\n      dup3\n      add\n      dup1\n      sload\n      tag_201\n      swap1\n      tag_86\n      jump\t// in\n    tag_201:\n      dup1\n      0x1f\n      add\n      0x20\n      dup1\n      swap2\n      div\n      mul\n      0x20\n      add\n      mload(0x40)\n      swap1\n      dup2\n      add\n      0x40\n      mstore\n      dup1\n      swap3\n      swap2\n      swap1\n      dup2\n      dup2\n      mstore\n      0x20\n      add\n      dup3\n      dup1\n      sload\n      tag_202\n      swap1\n      tag_86\n      jump\t// in\n    tag_202:\n      dup1\n      iszero\n      tag_203\n      jumpi\n      dup1\n      0x1f\n      lt\n      tag_204\n      jumpi\n      0x0100\n      dup1\n      dup4\n      sload\n      div\n      mul\n      dup4\n      mstore\n      swap2\n      0x20\n      add\n      swap2\n      jump(tag_203)\n    tag_204:\n      dup3\n      add\n      swap2\n      swap1\n      0x00\n      mstore\n      keccak256(0x00, 0x20)\n      swap1\n    tag_205:\n      dup2\n      sload\n      dup2\n      mstore\n      swap1\n      0x01\n      add\n      swap1\n      0x20\n      add\n      dup1\n      dup4\n      gt\n      tag_205\n      jumpi\n      dup3\n      swap1\n      sub\n      0x1f\n      and\n      dup3\n      add\n      swap2\n    tag_203:\n      pop\n      pop\n      pop\n      pop\n      pop\n      dup2\n      mstore\n      0x20\n      add\n      0x04\n      dup3\n      add\n      sload\n      dup2\n      mstore\n      pop\n      pop\n        /* \"contracts/setAccessTime.sol\":6109:6121  certificates */\n      dup3\n        /* \"contracts/setAccessTime.sol\":6122:6123  i */\n      dup3\n        /* \"contracts/setAccessTime.sol\":6109:6124  certificates[i] */\n      dup2\n      mload\n      dup2\n      lt\n      tag_206\n      jumpi\n      tag_207\n      tag_184\n      jump\t// in\n    tag_207:\n    tag_206:\n      0x20\n      mul\n      0x20\n      add\n      add\n        /* \"contracts/setAccessTime.sol\":6109:6148  certificates[i] = StudentCertificate[i] */\n      dup2\n      swap1\n      mstore\n      pop\n        /* \"contracts/setAccessTime.sol\":6090:6093  i++ */\n      dup1\n      dup1\n      tag_208\n      swap1\n      tag_209\n      jump\t// in\n    tag_208:\n      swap2\n      pop\n      pop\n        /* \"contracts/setAccessTime.sol\":6049:6159  for (uint256 i = 0; i < numCertificates; i++) {... */\n      jump(tag_179)\n    tag_180:\n      pop\n        /* \"contracts/setAccessTime.sol\":6176:6188  certificates */\n      dup1\n        /* \"contracts/setAccessTime.sol\":6169:6188  return certificates */\n      swap3\n      pop\n      pop\n      pop\n        /* \"contracts/setAccessTime.sol\":5843:6195  function viewStudent() public view returns (Student[] memory) {... */\n      swap1\n      jump\t// out\n        /* \"contracts/setAccessTime.sol\":5062:5837  function issueCertificate(... */\n    tag_51:\n        /* \"contracts/setAccessTime.sol\":2017:2034  authorizedIssuers */\n      0x01\n        /* \"contracts/setAccessTime.sol\":2017:2046  authorizedIssuers[msg.sender] */\n      0x00\n        /* \"contracts/setAccessTime.sol\":2035:2045  msg.sender */\n      caller\n        /* \"contracts/setAccessTime.sol\":2017:2046  authorizedIssuers[msg.sender] */\n      0xffffffffffffffffffffffffffffffffffffffff\n      and\n      0xffffffffffffffffffffffffffffffffffffffff\n      and\n      dup2\n      mstore\n      0x20\n      add\n      swap1\n      dup2\n      mstore\n      0x20\n      add\n      0x00\n      keccak256\n      0x00\n      swap1\n      sload\n      swap1\n      0x0100\n      exp\n      swap1\n      div\n      0xff\n      and\n        /* \"contracts/setAccessTime.sol\":1996:2118  require(... */\n      tag_211\n      jumpi\n      mload(0x40)\n      0x08c379a000000000000000000000000000000000000000000000000000000000\n      dup2\n      mstore\n      0x04\n      add\n      tag_212\n      swap1\n      tag_60\n      jump\t// in\n    tag_212:\n      mload(0x40)\n      dup1\n      swap2\n      sub\n      swap1\n      revert\n    tag_211:\n        /* \"contracts/setAccessTime.sol\":5335:5339  true */\n      0x01\n        /* \"contracts/setAccessTime.sol\":5299:5316  authorizedStudent */\n      0x03\n        /* \"contracts/setAccessTime.sol\":5299:5332  authorizedStudent[studentAddress] */\n      0x00\n        /* \"contracts/setAccessTime.sol\":5317:5331  studentAddress */\n      dup8\n        /* \"contracts/setAccessTime.sol\":5299:5332  authorizedStudent[studentAddress] */\n      0xffffffffffffffffffffffffffffffffffffffff\n      and\n      0xffffffffffffffffffffffffffffffffffffffff\n      and\n      dup2\n      mstore\n      0x20\n      add\n      swap1\n      dup2\n      mstore\n      0x20\n      add\n      0x00\n      keccak256\n      0x00\n        /* \"contracts/setAccessTime.sol\":5299:5339  authorizedStudent[studentAddress] = true */\n      0x0100\n      exp\n      dup2\n      sload\n      dup2\n      0xff\n      mul\n      not\n      and\n      swap1\n      dup4\n      iszero\n      iszero\n      mul\n      or\n      swap1\n      sstore\n      pop\n        /* \"contracts/setAccessTime.sol\":5509:5532  Student storage student */\n      0x00\n        /* \"contracts/setAccessTime.sol\":5535:5543  students */\n      0x04\n        /* \"contracts/setAccessTime.sol\":5535:5559  students[studentAddress] */\n      0x00\n        /* \"contracts/setAccessTime.sol\":5544:5558  studentAddress */\n      dup8\n        /* \"contracts/setAccessTime.sol\":5535:5559  students[studentAddress] */\n      0xffffffffffffffffffffffffffffffffffffffff\n      and\n      0xffffffffffffffffffffffffffffffffffffffff\n      and\n      dup2\n      mstore\n      0x20\n      add\n      swap1\n      dup2\n      mstore\n      0x20\n      add\n      0x00\n      keccak256\n        /* \"contracts/setAccessTime.sol\":5509:5559  Student storage student = students[studentAddress] */\n      swap1\n      pop\n        /* \"contracts/setAccessTime.sol\":5591:5602  studentName */\n      dup5\n        /* \"contracts/setAccessTime.sol\":5569:5576  student */\n      dup2\n        /* \"contracts/setAccessTime.sol\":5569:5588  student.studentName */\n      0x00\n      add\n        /* \"contracts/setAccessTime.sol\":5569:5602  student.studentName = studentName */\n      swap1\n      dup2\n      tag_214\n      swap2\n      swap1\n      tag_63\n      jump\t// in\n    tag_214:\n      pop\n        /* \"contracts/setAccessTime.sol\":5632:5641  studentId */\n      dup4\n        /* \"contracts/setAccessTime.sol\":5612:5619  student */\n      dup2\n        /* \"contracts/setAccessTime.sol\":5612:5629  student.studentId */\n      0x01\n      add\n        /* \"contracts/setAccessTime.sol\":5612:5641  student.studentId = studentId */\n      swap1\n      dup2\n      tag_215\n      swap2\n      swap1\n      tag_63\n      jump\t// in\n    tag_215:\n      pop\n        /* \"contracts/setAccessTime.sol\":5669:5676  faculty */\n      dup3\n        /* \"contracts/setAccessTime.sol\":5651:5658  student */\n      dup2\n        /* \"contracts/setAccessTime.sol\":5651:5666  student.faculty */\n      0x02\n      add\n        /* \"contracts/setAccessTime.sol\":5651:5676  student.faculty = faculty */\n      swap1\n      dup2\n      tag_216\n      swap2\n      swap1\n      tag_63\n      jump\t// in\n    tag_216:\n      pop\n        /* \"contracts/setAccessTime.sol\":5707:5717  department */\n      dup2\n        /* \"contracts/setAccessTime.sol\":5686:5693  student */\n      dup2\n        /* \"contracts/setAccessTime.sol\":5686:5704  student.department */\n      0x03\n      add\n        /* \"contracts/setAccessTime.sol\":5686:5717  student.department = department */\n      swap1\n      dup2\n      tag_217\n      swap2\n      swap1\n      tag_63\n      jump\t// in\n    tag_217:\n      pop\n        /* \"contracts/setAccessTime.sol\":5728:5746  StudentCertificate */\n      0x00\n        /* \"contracts/setAccessTime.sol\":5765:5820  Student(studentName, studentId, faculty, department, 0) */\n      mload(0x40)\n      dup1\n      0xa0\n      add\n      0x40\n      mstore\n      dup1\n        /* \"contracts/setAccessTime.sol\":5773:5784  studentName */\n      dup8\n        /* \"contracts/setAccessTime.sol\":5765:5820  Student(studentName, studentId, faculty, department, 0) */\n      dup2\n      mstore\n      0x20\n      add\n        /* \"contracts/setAccessTime.sol\":5786:5795  studentId */\n      dup7\n        /* \"contracts/setAccessTime.sol\":5765:5820  Student(studentName, studentId, faculty, department, 0) */\n      dup2\n      mstore\n      0x20\n      add\n        /* \"contracts/setAccessTime.sol\":5797:5804  faculty */\n      dup6\n        /* \"contracts/setAccessTime.sol\":5765:5820  Student(studentName, studentId, faculty, department, 0) */\n      dup2\n      mstore\n      0x20\n      add\n        /* \"contracts/setAccessTime.sol\":5806:5816  department */\n      dup5\n        /* \"contracts/setAccessTime.sol\":5765:5820  Student(studentName, studentId, faculty, department, 0) */\n      dup2\n      mstore\n      0x20\n      add\n        /* \"contracts/setAccessTime.sol\":5818:5819  0 */\n      0x00\n        /* \"contracts/setAccessTime.sol\":5765:5820  Student(studentName, studentId, faculty, department, 0) */\n      dup2\n      mstore\n      pop\n        /* \"contracts/setAccessTime.sol\":5728:5830  StudentCertificate.push(... */\n      swap1\n      dup1\n      0x01\n      dup2\n      sload\n      add\n      dup1\n      dup3\n      sstore\n      dup1\n      swap2\n      pop\n      pop\n      0x01\n      swap1\n      sub\n      swap1\n      0x00\n      mstore\n      keccak256(0x00, 0x20)\n      swap1\n      0x05\n      mul\n      add\n      0x00\n      swap1\n      swap2\n      swap1\n      swap2\n      swap1\n      swap2\n      pop\n      0x00\n      dup3\n      add\n      mload\n      dup2\n      0x00\n      add\n      swap1\n      dup2\n      tag_219\n      swap2\n      swap1\n      tag_63\n      jump\t// in\n    tag_219:\n      pop\n      0x20\n      dup3\n      add\n      mload\n      dup2\n      0x01\n      add\n      swap1\n      dup2\n      tag_220\n      swap2\n      swap1\n      tag_63\n      jump\t// in\n    tag_220:\n      pop\n      0x40\n      dup3\n      add\n      mload\n      dup2\n      0x02\n      add\n      swap1\n      dup2\n      tag_221\n      swap2\n      swap1\n      tag_63\n      jump\t// in\n    tag_221:\n      pop\n      0x60\n      dup3\n      add\n      mload\n      dup2\n      0x03\n      add\n      swap1\n      dup2\n      tag_222\n      swap2\n      swap1\n      tag_63\n      jump\t// in\n    tag_222:\n      pop\n      0x80\n      dup3\n      add\n      mload\n      dup2\n      0x04\n      add\n      sstore\n      pop\n      pop\n        /* \"contracts/setAccessTime.sol\":5289:5837  {... */\n      pop\n        /* \"contracts/setAccessTime.sol\":5062:5837  function issueCertificate(... */\n      pop\n      pop\n      pop\n      pop\n      pop\n      jump\t// out\n        /* \"contracts/setAccessTime.sol\":897:946  mapping(address => bool) public authorizedIssuers */\n    tag_54:\n      mstore(0x20, 0x01)\n      dup1\n      0x00\n      mstore\n      keccak256(0x00, 0x40)\n      0x00\n      swap2\n      pop\n      sload\n      swap1\n      0x0100\n      exp\n      swap1\n      div\n      0xff\n      and\n      dup2\n      jump\t// out\n    tag_178:\n      mload(0x40)\n      dup1\n      0xa0\n      add\n      0x40\n      mstore\n      dup1\n      0x60\n      dup2\n      mstore\n      0x20\n      add\n      0x60\n      dup2\n      mstore\n      0x20\n      add\n      0x60\n      dup2\n      mstore\n      0x20\n      add\n      0x60\n      dup2\n      mstore\n      0x20\n      add\n      0x00\n      dup2\n      mstore\n      pop\n      swap1\n      jump\t// out\n        /* \"#utility.yul\":7:82   */\n    tag_223:\n        /* \"#utility.yul\":40:46   */\n      0x00\n        /* \"#utility.yul\":73:75   */\n      0x40\n        /* \"#utility.yul\":67:76   */\n      mload\n        /* \"#utility.yul\":57:76   */\n      swap1\n      pop\n        /* \"#utility.yul\":7:82   */\n      swap1\n      jump\t// out\n        /* \"#utility.yul\":88:205   */\n    tag_224:\n        /* \"#utility.yul\":197:198   */\n      0x00\n        /* \"#utility.yul\":194:195   */\n      dup1\n        /* \"#utility.yul\":187:199   */\n      revert\n        /* \"#utility.yul\":211:328   */\n    tag_225:\n        /* \"#utility.yul\":320:321   */\n      0x00\n        /* \"#utility.yul\":317:318   */\n      dup1\n        /* \"#utility.yul\":310:322   */\n      revert\n        /* \"#utility.yul\":334:460   */\n    tag_226:\n        /* \"#utility.yul\":371:378   */\n      0x00\n        /* \"#utility.yul\":411:453   */\n      0xffffffffffffffffffffffffffffffffffffffff\n        /* \"#utility.yul\":404:409   */\n      dup3\n        /* \"#utility.yul\":400:454   */\n      and\n        /* \"#utility.yul\":389:454   */\n      swap1\n      pop\n        /* \"#utility.yul\":334:460   */\n      swap2\n      swap1\n      pop\n      jump\t// out\n        /* \"#utility.yul\":466:562   */\n    tag_227:\n        /* \"#utility.yul\":503:510   */\n      0x00\n        /* \"#utility.yul\":532:556   */\n      tag_292\n        /* \"#utility.yul\":550:555   */\n      dup3\n        /* \"#utility.yul\":532:556   */\n      tag_226\n      jump\t// in\n    tag_292:\n        /* \"#utility.yul\":521:556   */\n      swap1\n      pop\n        /* \"#utility.yul\":466:562   */\n      swap2\n      swap1\n      pop\n      jump\t// out\n        /* \"#utility.yul\":568:690   */\n    tag_228:\n        /* \"#utility.yul\":641:665   */\n      tag_294\n        /* \"#utility.yul\":659:664   */\n      dup2\n        /* \"#utility.yul\":641:665   */\n      tag_227\n      jump\t// in\n    tag_294:\n        /* \"#utility.yul\":634:639   */\n      dup2\n        /* \"#utility.yul\":631:666   */\n      eq\n        /* \"#utility.yul\":621:684   */\n      tag_295\n      jumpi\n        /* \"#utility.yul\":680:681   */\n      0x00\n        /* \"#utility.yul\":677:678   */\n      dup1\n        /* \"#utility.yul\":670:682   */\n      revert\n        /* \"#utility.yul\":621:684   */\n    tag_295:\n        /* \"#utility.yul\":568:690   */\n      pop\n      jump\t// out\n        /* \"#utility.yul\":696:835   */\n    tag_229:\n        /* \"#utility.yul\":742:747   */\n      0x00\n        /* \"#utility.yul\":780:786   */\n      dup2\n        /* \"#utility.yul\":767:787   */\n      calldataload\n        /* \"#utility.yul\":758:787   */\n      swap1\n      pop\n        /* \"#utility.yul\":796:829   */\n      tag_297\n        /* \"#utility.yul\":823:828   */\n      dup2\n        /* \"#utility.yul\":796:829   */\n      tag_228\n      jump\t// in\n    tag_297:\n        /* \"#utility.yul\":696:835   */\n      swap3\n      swap2\n      pop\n      pop\n      jump\t// out\n        /* \"#utility.yul\":841:958   */\n    tag_230:\n        /* \"#utility.yul\":950:951   */\n      0x00\n        /* \"#utility.yul\":947:948   */\n      dup1\n        /* \"#utility.yul\":940:952   */\n      revert\n        /* \"#utility.yul\":964:1081   */\n    tag_231:\n        /* \"#utility.yul\":1073:1074   */\n      0x00\n        /* \"#utility.yul\":1070:1071   */\n      dup1\n        /* \"#utility.yul\":1063:1075   */\n      revert\n        /* \"#utility.yul\":1087:1189   */\n    tag_232:\n        /* \"#utility.yul\":1128:1134   */\n      0x00\n        /* \"#utility.yul\":1179:1181   */\n      0x1f\n        /* \"#utility.yul\":1175:1182   */\n      not\n        /* \"#utility.yul\":1170:1172   */\n      0x1f\n        /* \"#utility.yul\":1163:1168   */\n      dup4\n        /* \"#utility.yul\":1159:1173   */\n      add\n        /* \"#utility.yul\":1155:1183   */\n      and\n        /* \"#utility.yul\":1145:1183   */\n      swap1\n      pop\n        /* \"#utility.yul\":1087:1189   */\n      swap2\n      swap1\n      pop\n      jump\t// out\n        /* \"#utility.yul\":1195:1375   */\n    tag_174:\n        /* \"#utility.yul\":1243:1320   */\n      0x4e487b7100000000000000000000000000000000000000000000000000000000\n        /* \"#utility.yul\":1240:1241   */\n      0x00\n        /* \"#utility.yul\":1233:1321   */\n      mstore\n        /* \"#utility.yul\":1340:1344   */\n      0x41\n        /* \"#utility.yul\":1337:1338   */\n      0x04\n        /* \"#utility.yul\":1330:1345   */\n      mstore\n        /* \"#utility.yul\":1364:1368   */\n      0x24\n        /* \"#utility.yul\":1361:1362   */\n      0x00\n        /* \"#utility.yul\":1354:1369   */\n      revert\n        /* \"#utility.yul\":1381:1662   */\n    tag_233:\n        /* \"#utility.yul\":1464:1491   */\n      tag_303\n        /* \"#utility.yul\":1486:1490   */\n      dup3\n        /* \"#utility.yul\":1464:1491   */\n      tag_232\n      jump\t// in\n    tag_303:\n        /* \"#utility.yul\":1456:1462   */\n      dup2\n        /* \"#utility.yul\":1452:1492   */\n      add\n        /* \"#utility.yul\":1594:1600   */\n      dup2\n        /* \"#utility.yul\":1582:1592   */\n      dup2\n        /* \"#utility.yul\":1579:1601   */\n      lt\n        /* \"#utility.yul\":1558:1576   */\n      0xffffffffffffffff\n        /* \"#utility.yul\":1546:1556   */\n      dup3\n        /* \"#utility.yul\":1543:1577   */\n      gt\n        /* \"#utility.yul\":1540:1602   */\n      or\n        /* \"#utility.yul\":1537:1625   */\n      iszero\n      tag_304\n      jumpi\n        /* \"#utility.yul\":1605:1623   */\n      tag_305\n      tag_174\n      jump\t// in\n    tag_305:\n        /* \"#utility.yul\":1537:1625   */\n    tag_304:\n        /* \"#utility.yul\":1645:1655   */\n      dup1\n        /* \"#utility.yul\":1641:1643   */\n      0x40\n        /* \"#utility.yul\":1634:1656   */\n      mstore\n        /* \"#utility.yul\":1424:1662   */\n      pop\n        /* \"#utility.yul\":1381:1662   */\n      pop\n      pop\n      jump\t// out\n        /* \"#utility.yul\":1668:1797   */\n    tag_234:\n        /* \"#utility.yul\":1702:1708   */\n      0x00\n        /* \"#utility.yul\":1729:1749   */\n      tag_307\n      tag_223\n      jump\t// in\n    tag_307:\n        /* \"#utility.yul\":1719:1749   */\n      swap1\n      pop\n        /* \"#utility.yul\":1758:1791   */\n      tag_308\n        /* \"#utility.yul\":1786:1790   */\n      dup3\n        /* \"#utility.yul\":1778:1784   */\n      dup3\n        /* \"#utility.yul\":1758:1791   */\n      tag_233\n      jump\t// in\n    tag_308:\n        /* \"#utility.yul\":1668:1797   */\n      swap2\n      swap1\n      pop\n      jump\t// out\n        /* \"#utility.yul\":1803:2111   */\n    tag_235:\n        /* \"#utility.yul\":1865:1869   */\n      0x00\n        /* \"#utility.yul\":1955:1973   */\n      0xffffffffffffffff\n        /* \"#utility.yul\":1947:1953   */\n      dup3\n        /* \"#utility.yul\":1944:1974   */\n      gt\n        /* \"#utility.yul\":1941:1997   */\n      iszero\n      tag_310\n      jumpi\n        /* \"#utility.yul\":1977:1995   */\n      tag_311\n      tag_174\n      jump\t// in\n    tag_311:\n        /* \"#utility.yul\":1941:1997   */\n    tag_310:\n        /* \"#utility.yul\":2015:2044   */\n      tag_312\n        /* \"#utility.yul\":2037:2043   */\n      dup3\n        /* \"#utility.yul\":2015:2044   */\n      tag_232\n      jump\t// in\n    tag_312:\n        /* \"#utility.yul\":2007:2044   */\n      swap1\n      pop\n        /* \"#utility.yul\":2099:2103   */\n      0x20\n        /* \"#utility.yul\":2093:2097   */\n      dup2\n        /* \"#utility.yul\":2089:2104   */\n      add\n        /* \"#utility.yul\":2081:2104   */\n      swap1\n      pop\n        /* \"#utility.yul\":1803:2111   */\n      swap2\n      swap1\n      pop\n      jump\t// out\n        /* \"#utility.yul\":2117:2263   */\n    tag_236:\n        /* \"#utility.yul\":2214:2220   */\n      dup3\n        /* \"#utility.yul\":2209:2212   */\n      dup2\n        /* \"#utility.yul\":2204:2207   */\n      dup4\n        /* \"#utility.yul\":2191:2221   */\n      calldatacopy\n        /* \"#utility.yul\":2255:2256   */\n      0x00\n        /* \"#utility.yul\":2246:2252   */\n      dup4\n        /* \"#utility.yul\":2241:2244   */\n      dup4\n        /* \"#utility.yul\":2237:2253   */\n      add\n        /* \"#utility.yul\":2230:2257   */\n      mstore\n        /* \"#utility.yul\":2117:2263   */\n      pop\n      pop\n      pop\n      jump\t// out\n        /* \"#utility.yul\":2269:2694   */\n    tag_237:\n        /* \"#utility.yul\":2347:2352   */\n      0x00\n        /* \"#utility.yul\":2372:2438   */\n      tag_315\n        /* \"#utility.yul\":2388:2437   */\n      tag_316\n        /* \"#utility.yul\":2430:2436   */\n      dup5\n        /* \"#utility.yul\":2388:2437   */\n      tag_235\n      jump\t// in\n    tag_316:\n        /* \"#utility.yul\":2372:2438   */\n      tag_234\n      jump\t// in\n    tag_315:\n        /* \"#utility.yul\":2363:2438   */\n      swap1\n      pop\n        /* \"#utility.yul\":2461:2467   */\n      dup3\n        /* \"#utility.yul\":2454:2459   */\n      dup2\n        /* \"#utility.yul\":2447:2468   */\n      mstore\n        /* \"#utility.yul\":2499:2503   */\n      0x20\n        /* \"#utility.yul\":2492:2497   */\n      dup2\n        /* \"#utility.yul\":2488:2504   */\n      add\n        /* \"#utility.yul\":2537:2540   */\n      dup5\n        /* \"#utility.yul\":2528:2534   */\n      dup5\n        /* \"#utility.yul\":2523:2526   */\n      dup5\n        /* \"#utility.yul\":2519:2535   */\n      add\n        /* \"#utility.yul\":2516:2541   */\n      gt\n        /* \"#utility.yul\":2513:2625   */\n      iszero\n      tag_317\n      jumpi\n        /* \"#utility.yul\":2544:2623   */\n      tag_318\n      tag_231\n      jump\t// in\n    tag_318:\n        /* \"#utility.yul\":2513:2625   */\n    tag_317:\n        /* \"#utility.yul\":2634:2688   */\n      tag_319\n        /* \"#utility.yul\":2681:2687   */\n      dup5\n        /* \"#utility.yul\":2676:2679   */\n      dup3\n        /* \"#utility.yul\":2671:2674   */\n      dup6\n        /* \"#utility.yul\":2634:2688   */\n      tag_236\n      jump\t// in\n    tag_319:\n        /* \"#utility.yul\":2353:2694   */\n      pop\n        /* \"#utility.yul\":2269:2694   */\n      swap4\n      swap3\n      pop\n      pop\n      pop\n      jump\t// out\n        /* \"#utility.yul\":2714:3054   */\n    tag_238:\n        /* \"#utility.yul\":2770:2775   */\n      0x00\n        /* \"#utility.yul\":2819:2822   */\n      dup3\n        /* \"#utility.yul\":2812:2816   */\n      0x1f\n        /* \"#utility.yul\":2804:2810   */\n      dup4\n        /* \"#utility.yul\":2800:2817   */\n      add\n        /* \"#utility.yul\":2796:2823   */\n      slt\n        /* \"#utility.yul\":2786:2908   */\n      tag_321\n      jumpi\n        /* \"#utility.yul\":2827:2906   */\n      tag_322\n      tag_230\n      jump\t// in\n    tag_322:\n        /* \"#utility.yul\":2786:2908   */\n    tag_321:\n        /* \"#utility.yul\":2944:2950   */\n      dup2\n        /* \"#utility.yul\":2931:2951   */\n      calldataload\n        /* \"#utility.yul\":2969:3048   */\n      tag_323\n        /* \"#utility.yul\":3044:3047   */\n      dup5\n        /* \"#utility.yul\":3036:3042   */\n      dup3\n        /* \"#utility.yul\":3029:3033   */\n      0x20\n        /* \"#utility.yul\":3021:3027   */\n      dup7\n        /* \"#utility.yul\":3017:3034   */\n      add\n        /* \"#utility.yul\":2969:3048   */\n      tag_237\n      jump\t// in\n    tag_323:\n        /* \"#utility.yul\":2960:3048   */\n      swap2\n      pop\n        /* \"#utility.yul\":2776:3054   */\n      pop\n        /* \"#utility.yul\":2714:3054   */\n      swap3\n      swap2\n      pop\n      pop\n      jump\t// out\n        /* \"#utility.yul\":3060:4365   */\n    tag_16:\n        /* \"#utility.yul\":3176:3182   */\n      0x00\n        /* \"#utility.yul\":3184:3190   */\n      dup1\n        /* \"#utility.yul\":3192:3198   */\n      0x00\n        /* \"#utility.yul\":3200:3206   */\n      dup1\n        /* \"#utility.yul\":3249:3252   */\n      0x80\n        /* \"#utility.yul\":3237:3246   */\n      dup6\n        /* \"#utility.yul\":3228:3235   */\n      dup8\n        /* \"#utility.yul\":3224:3247   */\n      sub\n        /* \"#utility.yul\":3220:3253   */\n      slt\n        /* \"#utility.yul\":3217:3337   */\n      iszero\n      tag_325\n      jumpi\n        /* \"#utility.yul\":3256:3335   */\n      tag_326\n      tag_224\n      jump\t// in\n    tag_326:\n        /* \"#utility.yul\":3217:3337   */\n    tag_325:\n        /* \"#utility.yul\":3376:3377   */\n      0x00\n        /* \"#utility.yul\":3401:3454   */\n      tag_327\n        /* \"#utility.yul\":3446:3453   */\n      dup8\n        /* \"#utility.yul\":3437:3443   */\n      dup3\n        /* \"#utility.yul\":3426:3435   */\n      dup9\n        /* \"#utility.yul\":3422:3444   */\n      add\n        /* \"#utility.yul\":3401:3454   */\n      tag_229\n      jump\t// in\n    tag_327:\n        /* \"#utility.yul\":3391:3454   */\n      swap5\n      pop\n        /* \"#utility.yul\":3347:3464   */\n      pop\n        /* \"#utility.yul\":3531:3533   */\n      0x20\n        /* \"#utility.yul\":3520:3529   */\n      dup6\n        /* \"#utility.yul\":3516:3534   */\n      add\n        /* \"#utility.yul\":3503:3535   */\n      calldataload\n        /* \"#utility.yul\":3562:3580   */\n      0xffffffffffffffff\n        /* \"#utility.yul\":3554:3560   */\n      dup2\n        /* \"#utility.yul\":3551:3581   */\n      gt\n        /* \"#utility.yul\":3548:3665   */\n      iszero\n      tag_328\n      jumpi\n        /* \"#utility.yul\":3584:3663   */\n      tag_329\n      tag_225\n      jump\t// in\n    tag_329:\n        /* \"#utility.yul\":3548:3665   */\n    tag_328:\n        /* \"#utility.yul\":3689:3752   */\n      tag_330\n        /* \"#utility.yul\":3744:3751   */\n      dup8\n        /* \"#utility.yul\":3735:3741   */\n      dup3\n        /* \"#utility.yul\":3724:3733   */\n      dup9\n        /* \"#utility.yul\":3720:3742   */\n      add\n        /* \"#utility.yul\":3689:3752   */\n      tag_238\n      jump\t// in\n    tag_330:\n        /* \"#utility.yul\":3679:3752   */\n      swap4\n      pop\n        /* \"#utility.yul\":3474:3762   */\n      pop\n        /* \"#utility.yul\":3829:3831   */\n      0x40\n        /* \"#utility.yul\":3818:3827   */\n      dup6\n        /* \"#utility.yul\":3814:3832   */\n      add\n        /* \"#utility.yul\":3801:3833   */\n      calldataload\n        /* \"#utility.yul\":3860:3878   */\n      0xffffffffffffffff\n        /* \"#utility.yul\":3852:3858   */\n      dup2\n        /* \"#utility.yul\":3849:3879   */\n      gt\n        /* \"#utility.yul\":3846:3963   */\n      iszero\n      tag_331\n      jumpi\n        /* \"#utility.yul\":3882:3961   */\n      tag_332\n      tag_225\n      jump\t// in\n    tag_332:\n        /* \"#utility.yul\":3846:3963   */\n    tag_331:\n        /* \"#utility.yul\":3987:4050   */\n      tag_333\n        /* \"#utility.yul\":4042:4049   */\n      dup8\n        /* \"#utility.yul\":4033:4039   */\n      dup3\n        /* \"#utility.yul\":4022:4031   */\n      dup9\n        /* \"#utility.yul\":4018:4040   */\n      add\n        /* \"#utility.yul\":3987:4050   */\n      tag_238\n      jump\t// in\n    tag_333:\n        /* \"#utility.yul\":3977:4050   */\n      swap3\n      pop\n        /* \"#utility.yul\":3772:4060   */\n      pop\n        /* \"#utility.yul\":4127:4129   */\n      0x60\n        /* \"#utility.yul\":4116:4125   */\n      dup6\n        /* \"#utility.yul\":4112:4130   */\n      add\n        /* \"#utility.yul\":4099:4131   */\n      calldataload\n        /* \"#utility.yul\":4158:4176   */\n      0xffffffffffffffff\n        /* \"#utility.yul\":4150:4156   */\n      dup2\n        /* \"#utility.yul\":4147:4177   */\n      gt\n        /* \"#utility.yul\":4144:4261   */\n      iszero\n      tag_334\n      jumpi\n        /* \"#utility.yul\":4180:4259   */\n      tag_335\n      tag_225\n      jump\t// in\n    tag_335:\n        /* \"#utility.yul\":4144:4261   */\n    tag_334:\n        /* \"#utility.yul\":4285:4348   */\n      tag_336\n        /* \"#utility.yul\":4340:4347   */\n      dup8\n        /* \"#utility.yul\":4331:4337   */\n      dup3\n        /* \"#utility.yul\":4320:4329   */\n      dup9\n        /* \"#utility.yul\":4316:4338   */\n      add\n        /* \"#utility.yul\":4285:4348   */\n      tag_238\n      jump\t// in\n    tag_336:\n        /* \"#utility.yul\":4275:4348   */\n      swap2\n      pop\n        /* \"#utility.yul\":4070:4358   */\n      pop\n        /* \"#utility.yul\":3060:4365   */\n      swap3\n      swap6\n      swap2\n      swap5\n      pop\n      swap3\n      pop\n      jump\t// out\n        /* \"#utility.yul\":4371:4700   */\n    tag_20:\n        /* \"#utility.yul\":4430:4436   */\n      0x00\n        /* \"#utility.yul\":4479:4481   */\n      0x20\n        /* \"#utility.yul\":4467:4476   */\n      dup3\n        /* \"#utility.yul\":4458:4465   */\n      dup5\n        /* \"#utility.yul\":4454:4477   */\n      sub\n        /* \"#utility.yul\":4450:4482   */\n      slt\n        /* \"#utility.yul\":4447:4566   */\n      iszero\n      tag_338\n      jumpi\n        /* \"#utility.yul\":4485:4564   */\n      tag_339\n      tag_224\n      jump\t// in\n    tag_339:\n        /* \"#utility.yul\":4447:4566   */\n    tag_338:\n        /* \"#utility.yul\":4605:4606   */\n      0x00\n        /* \"#utility.yul\":4630:4683   */\n      tag_340\n        /* \"#utility.yul\":4675:4682   */\n      dup5\n        /* \"#utility.yul\":4666:4672   */\n      dup3\n        /* \"#utility.yul\":4655:4664   */\n      dup6\n        /* \"#utility.yul\":4651:4673   */\n      add\n        /* \"#utility.yul\":4630:4683   */\n      tag_229\n      jump\t// in\n    tag_340:\n        /* \"#utility.yul\":4620:4683   */\n      swap2\n      pop\n        /* \"#utility.yul\":4576:4693   */\n      pop\n        /* \"#utility.yul\":4371:4700   */\n      swap3\n      swap2\n      pop\n      pop\n      jump\t// out\n        /* \"#utility.yul\":4706:4783   */\n    tag_239:\n        /* \"#utility.yul\":4743:4750   */\n      0x00\n        /* \"#utility.yul\":4772:4777   */\n      dup2\n        /* \"#utility.yul\":4761:4777   */\n      swap1\n      pop\n        /* \"#utility.yul\":4706:4783   */\n      swap2\n      swap1\n      pop\n      jump\t// out\n        /* \"#utility.yul\":4789:4911   */\n    tag_240:\n        /* \"#utility.yul\":4862:4886   */\n      tag_343\n        /* \"#utility.yul\":4880:4885   */\n      dup2\n        /* \"#utility.yul\":4862:4886   */\n      tag_239\n      jump\t// in\n    tag_343:\n        /* \"#utility.yul\":4855:4860   */\n      dup2\n        /* \"#utility.yul\":4852:4887   */\n      eq\n        /* \"#utility.yul\":4842:4905   */\n      tag_344\n      jumpi\n        /* \"#utility.yul\":4901:4902   */\n      0x00\n        /* \"#utility.yul\":4898:4899   */\n      dup1\n        /* \"#utility.yul\":4891:4903   */\n      revert\n        /* \"#utility.yul\":4842:4905   */\n    tag_344:\n        /* \"#utility.yul\":4789:4911   */\n      pop\n      jump\t// out\n        /* \"#utility.yul\":4917:5056   */\n    tag_241:\n        /* \"#utility.yul\":4963:4968   */\n      0x00\n        /* \"#utility.yul\":5001:5007   */\n      dup2\n        /* \"#utility.yul\":4988:5008   */\n      calldataload\n        /* \"#utility.yul\":4979:5008   */\n      swap1\n      pop\n        /* \"#utility.yul\":5017:5050   */\n      tag_346\n        /* \"#utility.yul\":5044:5049   */\n      dup2\n        /* \"#utility.yul\":5017:5050   */\n      tag_240\n      jump\t// in\n    tag_346:\n        /* \"#utility.yul\":4917:5056   */\n      swap3\n      swap2\n      pop\n      pop\n      jump\t// out\n        /* \"#utility.yul\":5062:5536   */\n    tag_24:\n        /* \"#utility.yul\":5130:5136   */\n      0x00\n        /* \"#utility.yul\":5138:5144   */\n      dup1\n        /* \"#utility.yul\":5187:5189   */\n      0x40\n        /* \"#utility.yul\":5175:5184   */\n      dup4\n        /* \"#utility.yul\":5166:5173   */\n      dup6\n        /* \"#utility.yul\":5162:5185   */\n      sub\n        /* \"#utility.yul\":5158:5190   */\n      slt\n        /* \"#utility.yul\":5155:5274   */\n      iszero\n      tag_348\n      jumpi\n        /* \"#utility.yul\":5193:5272   */\n      tag_349\n      tag_224\n      jump\t// in\n    tag_349:\n        /* \"#utility.yul\":5155:5274   */\n    tag_348:\n        /* \"#utility.yul\":5313:5314   */\n      0x00\n        /* \"#utility.yul\":5338:5391   */\n      tag_350\n        /* \"#utility.yul\":5383:5390   */\n      dup6\n        /* \"#utility.yul\":5374:5380   */\n      dup3\n        /* \"#utility.yul\":5363:5372   */\n      dup7\n        /* \"#utility.yul\":5359:5381   */\n      add\n        /* \"#utility.yul\":5338:5391   */\n      tag_229\n      jump\t// in\n    tag_350:\n        /* \"#utility.yul\":5328:5391   */\n      swap3\n      pop\n        /* \"#utility.yul\":5284:5401   */\n      pop\n        /* \"#utility.yul\":5440:5442   */\n      0x20\n        /* \"#utility.yul\":5466:5519   */\n      tag_351\n        /* \"#utility.yul\":5511:5518   */\n      dup6\n        /* \"#utility.yul\":5502:5508   */\n      dup3\n        /* \"#utility.yul\":5491:5500   */\n      dup7\n        /* \"#utility.yul\":5487:5509   */\n      add\n        /* \"#utility.yul\":5466:5519   */\n      tag_241\n      jump\t// in\n    tag_351:\n        /* \"#utility.yul\":5456:5519   */\n      swap2\n      pop\n        /* \"#utility.yul\":5411:5529   */\n      pop\n        /* \"#utility.yul\":5062:5536   */\n      swap3\n      pop\n      swap3\n      swap1\n      pop\n      jump\t// out\n        /* \"#utility.yul\":5542:5641   */\n    tag_242:\n        /* \"#utility.yul\":5594:5600   */\n      0x00\n        /* \"#utility.yul\":5628:5633   */\n      dup2\n        /* \"#utility.yul\":5622:5634   */\n      mload\n        /* \"#utility.yul\":5612:5634   */\n      swap1\n      pop\n        /* \"#utility.yul\":5542:5641   */\n      swap2\n      swap1\n      pop\n      jump\t// out\n        /* \"#utility.yul\":5647:5816   */\n    tag_243:\n        /* \"#utility.yul\":5731:5742   */\n      0x00\n        /* \"#utility.yul\":5765:5771   */\n      dup3\n        /* \"#utility.yul\":5760:5763   */\n      dup3\n        /* \"#utility.yul\":5753:5772   */\n      mstore\n        /* \"#utility.yul\":5805:5809   */\n      0x20\n        /* \"#utility.yul\":5800:5803   */\n      dup3\n        /* \"#utility.yul\":5796:5810   */\n      add\n        /* \"#utility.yul\":5781:5810   */\n      swap1\n      pop\n        /* \"#utility.yul\":5647:5816   */\n      swap3\n      swap2\n      pop\n      pop\n      jump\t// out\n        /* \"#utility.yul\":5822:6068   */\n    tag_244:\n        /* \"#utility.yul\":5903:5904   */\n      0x00\n        /* \"#utility.yul\":5913:6026   */\n    tag_355:\n        /* \"#utility.yul\":5927:5933   */\n      dup4\n        /* \"#utility.yul\":5924:5925   */\n      dup2\n        /* \"#utility.yul\":5921:5934   */\n      lt\n        /* \"#utility.yul\":5913:6026   */\n      iszero\n      tag_357\n      jumpi\n        /* \"#utility.yul\":6012:6013   */\n      dup1\n        /* \"#utility.yul\":6007:6010   */\n      dup3\n        /* \"#utility.yul\":6003:6014   */\n      add\n        /* \"#utility.yul\":5997:6015   */\n      mload\n        /* \"#utility.yul\":5993:5994   */\n      dup2\n        /* \"#utility.yul\":5988:5991   */\n      dup5\n        /* \"#utility.yul\":5984:5995   */\n      add\n        /* \"#utility.yul\":5977:6016   */\n      mstore\n        /* \"#utility.yul\":5949:5951   */\n      0x20\n        /* \"#utility.yul\":5946:5947   */\n      dup2\n        /* \"#utility.yul\":5942:5952   */\n      add\n        /* \"#utility.yul\":5937:5952   */\n      swap1\n      pop\n        /* \"#utility.yul\":5913:6026   */\n      jump(tag_355)\n    tag_357:\n        /* \"#utility.yul\":6060:6061   */\n      0x00\n        /* \"#utility.yul\":6051:6057   */\n      dup5\n        /* \"#utility.yul\":6046:6049   */\n      dup5\n        /* \"#utility.yul\":6042:6058   */\n      add\n        /* \"#utility.yul\":6035:6062   */\n      mstore\n        /* \"#utility.yul\":5884:6068   */\n      pop\n        /* \"#utility.yul\":5822:6068   */\n      pop\n      pop\n      pop\n      jump\t// out\n        /* \"#utility.yul\":6074:6451   */\n    tag_245:\n        /* \"#utility.yul\":6162:6165   */\n      0x00\n        /* \"#utility.yul\":6190:6229   */\n      tag_359\n        /* \"#utility.yul\":6223:6228   */\n      dup3\n        /* \"#utility.yul\":6190:6229   */\n      tag_242\n      jump\t// in\n    tag_359:\n        /* \"#utility.yul\":6245:6316   */\n      tag_360\n        /* \"#utility.yul\":6309:6315   */\n      dup2\n        /* \"#utility.yul\":6304:6307   */\n      dup6\n        /* \"#utility.yul\":6245:6316   */\n      tag_243\n      jump\t// in\n    tag_360:\n        /* \"#utility.yul\":6238:6316   */\n      swap4\n      pop\n        /* \"#utility.yul\":6325:6390   */\n      tag_361\n        /* \"#utility.yul\":6383:6389   */\n      dup2\n        /* \"#utility.yul\":6378:6381   */\n      dup6\n        /* \"#utility.yul\":6371:6375   */\n      0x20\n        /* \"#utility.yul\":6364:6369   */\n      dup7\n        /* \"#utility.yul\":6360:6376   */\n      add\n        /* \"#utility.yul\":6325:6390   */\n      tag_244\n      jump\t// in\n    tag_361:\n        /* \"#utility.yul\":6415:6444   */\n      tag_362\n        /* \"#utility.yul\":6437:6443   */\n      dup2\n        /* \"#utility.yul\":6415:6444   */\n      tag_232\n      jump\t// in\n    tag_362:\n        /* \"#utility.yul\":6410:6413   */\n      dup5\n        /* \"#utility.yul\":6406:6445   */\n      add\n        /* \"#utility.yul\":6399:6445   */\n      swap2\n      pop\n        /* \"#utility.yul\":6166:6451   */\n      pop\n        /* \"#utility.yul\":6074:6451   */\n      swap3\n      swap2\n      pop\n      pop\n      jump\t// out\n        /* \"#utility.yul\":6457:6575   */\n    tag_246:\n        /* \"#utility.yul\":6544:6568   */\n      tag_364\n        /* \"#utility.yul\":6562:6567   */\n      dup2\n        /* \"#utility.yul\":6544:6568   */\n      tag_239\n      jump\t// in\n    tag_364:\n        /* \"#utility.yul\":6539:6542   */\n      dup3\n        /* \"#utility.yul\":6532:6569   */\n      mstore\n        /* \"#utility.yul\":6457:6575   */\n      pop\n      pop\n      jump\t// out\n        /* \"#utility.yul\":6581:7609   */\n    tag_30:\n        /* \"#utility.yul\":6866:6870   */\n      0x00\n        /* \"#utility.yul\":6904:6907   */\n      0xa0\n        /* \"#utility.yul\":6893:6902   */\n      dup3\n        /* \"#utility.yul\":6889:6908   */\n      add\n        /* \"#utility.yul\":6881:6908   */\n      swap1\n      pop\n        /* \"#utility.yul\":6954:6963   */\n      dup2\n        /* \"#utility.yul\":6948:6952   */\n      dup2\n        /* \"#utility.yul\":6944:6964   */\n      sub\n        /* \"#utility.yul\":6940:6941   */\n      0x00\n        /* \"#utility.yul\":6929:6938   */\n      dup4\n        /* \"#utility.yul\":6925:6942   */\n      add\n        /* \"#utility.yul\":6918:6965   */\n      mstore\n        /* \"#utility.yul\":6982:7060   */\n      tag_366\n        /* \"#utility.yul\":7055:7059   */\n      dup2\n        /* \"#utility.yul\":7046:7052   */\n      dup9\n        /* \"#utility.yul\":6982:7060   */\n      tag_245\n      jump\t// in\n    tag_366:\n        /* \"#utility.yul\":6974:7060   */\n      swap1\n      pop\n        /* \"#utility.yul\":7107:7116   */\n      dup2\n        /* \"#utility.yul\":7101:7105   */\n      dup2\n        /* \"#utility.yul\":7097:7117   */\n      sub\n        /* \"#utility.yul\":7092:7094   */\n      0x20\n        /* \"#utility.yul\":7081:7090   */\n      dup4\n        /* \"#utility.yul\":7077:7095   */\n      add\n        /* \"#utility.yul\":7070:7118   */\n      mstore\n        /* \"#utility.yul\":7135:7213   */\n      tag_367\n        /* \"#utility.yul\":7208:7212   */\n      dup2\n        /* \"#utility.yul\":7199:7205   */\n      dup8\n        /* \"#utility.yul\":7135:7213   */\n      tag_245\n      jump\t// in\n    tag_367:\n        /* \"#utility.yul\":7127:7213   */\n      swap1\n      pop\n        /* \"#utility.yul\":7260:7269   */\n      dup2\n        /* \"#utility.yul\":7254:7258   */\n      dup2\n        /* \"#utility.yul\":7250:7270   */\n      sub\n        /* \"#utility.yul\":7245:7247   */\n      0x40\n        /* \"#utility.yul\":7234:7243   */\n      dup4\n        /* \"#utility.yul\":7230:7248   */\n      add\n        /* \"#utility.yul\":7223:7271   */\n      mstore\n        /* \"#utility.yul\":7288:7366   */\n      tag_368\n        /* \"#utility.yul\":7361:7365   */\n      dup2\n        /* \"#utility.yul\":7352:7358   */\n      dup7\n        /* \"#utility.yul\":7288:7366   */\n      tag_245\n      jump\t// in\n    tag_368:\n        /* \"#utility.yul\":7280:7366   */\n      swap1\n      pop\n        /* \"#utility.yul\":7413:7422   */\n      dup2\n        /* \"#utility.yul\":7407:7411   */\n      dup2\n        /* \"#utility.yul\":7403:7423   */\n      sub\n        /* \"#utility.yul\":7398:7400   */\n      0x60\n        /* \"#utility.yul\":7387:7396   */\n      dup4\n        /* \"#utility.yul\":7383:7401   */\n      add\n        /* \"#utility.yul\":7376:7424   */\n      mstore\n        /* \"#utility.yul\":7441:7519   */\n      tag_369\n        /* \"#utility.yul\":7514:7518   */\n      dup2\n        /* \"#utility.yul\":7505:7511   */\n      dup6\n        /* \"#utility.yul\":7441:7519   */\n      tag_245\n      jump\t// in\n    tag_369:\n        /* \"#utility.yul\":7433:7519   */\n      swap1\n      pop\n        /* \"#utility.yul\":7529:7602   */\n      tag_370\n        /* \"#utility.yul\":7597:7600   */\n      0x80\n        /* \"#utility.yul\":7586:7595   */\n      dup4\n        /* \"#utility.yul\":7582:7601   */\n      add\n        /* \"#utility.yul\":7573:7579   */\n      dup5\n        /* \"#utility.yul\":7529:7602   */\n      tag_246\n      jump\t// in\n    tag_370:\n        /* \"#utility.yul\":6581:7609   */\n      swap7\n      swap6\n      pop\n      pop\n      pop\n      pop\n      pop\n      pop\n      jump\t// out\n        /* \"#utility.yul\":7615:8330   */\n    tag_34:\n        /* \"#utility.yul\":7824:7828   */\n      0x00\n        /* \"#utility.yul\":7862:7864   */\n      0x60\n        /* \"#utility.yul\":7851:7860   */\n      dup3\n        /* \"#utility.yul\":7847:7865   */\n      add\n        /* \"#utility.yul\":7839:7865   */\n      swap1\n      pop\n        /* \"#utility.yul\":7911:7920   */\n      dup2\n        /* \"#utility.yul\":7905:7909   */\n      dup2\n        /* \"#utility.yul\":7901:7921   */\n      sub\n        /* \"#utility.yul\":7897:7898   */\n      0x00\n        /* \"#utility.yul\":7886:7895   */\n      dup4\n        /* \"#utility.yul\":7882:7899   */\n      add\n        /* \"#utility.yul\":7875:7922   */\n      mstore\n        /* \"#utility.yul\":7939:8017   */\n      tag_372\n        /* \"#utility.yul\":8012:8016   */\n      dup2\n        /* \"#utility.yul\":8003:8009   */\n      dup7\n        /* \"#utility.yul\":7939:8017   */\n      tag_245\n      jump\t// in\n    tag_372:\n        /* \"#utility.yul\":7931:8017   */\n      swap1\n      pop\n        /* \"#utility.yul\":8064:8073   */\n      dup2\n        /* \"#utility.yul\":8058:8062   */\n      dup2\n        /* \"#utility.yul\":8054:8074   */\n      sub\n        /* \"#utility.yul\":8049:8051   */\n      0x20\n        /* \"#utility.yul\":8038:8047   */\n      dup4\n        /* \"#utility.yul\":8034:8052   */\n      add\n        /* \"#utility.yul\":8027:8075   */\n      mstore\n        /* \"#utility.yul\":8092:8170   */\n      tag_373\n        /* \"#utility.yul\":8165:8169   */\n      dup2\n        /* \"#utility.yul\":8156:8162   */\n      dup6\n        /* \"#utility.yul\":8092:8170   */\n      tag_245\n      jump\t// in\n    tag_373:\n        /* \"#utility.yul\":8084:8170   */\n      swap1\n      pop\n        /* \"#utility.yul\":8217:8226   */\n      dup2\n        /* \"#utility.yul\":8211:8215   */\n      dup2\n        /* \"#utility.yul\":8207:8227   */\n      sub\n        /* \"#utility.yul\":8202:8204   */\n      0x40\n        /* \"#utility.yul\":8191:8200   */\n      dup4\n        /* \"#utility.yul\":8187:8205   */\n      add\n        /* \"#utility.yul\":8180:8228   */\n      mstore\n        /* \"#utility.yul\":8245:8323   */\n      tag_374\n        /* \"#utility.yul\":8318:8322   */\n      dup2\n        /* \"#utility.yul\":8309:8315   */\n      dup5\n        /* \"#utility.yul\":8245:8323   */\n      tag_245\n      jump\t// in\n    tag_374:\n        /* \"#utility.yul\":8237:8323   */\n      swap1\n      pop\n        /* \"#utility.yul\":7615:8330   */\n      swap5\n      swap4\n      pop\n      pop\n      pop\n      pop\n      jump\t// out\n        /* \"#utility.yul\":8336:8665   */\n    tag_37:\n        /* \"#utility.yul\":8395:8401   */\n      0x00\n        /* \"#utility.yul\":8444:8446   */\n      0x20\n        /* \"#utility.yul\":8432:8441   */\n      dup3\n        /* \"#utility.yul\":8423:8430   */\n      dup5\n        /* \"#utility.yul\":8419:8442   */\n      sub\n        /* \"#utility.yul\":8415:8447   */\n      slt\n        /* \"#utility.yul\":8412:8531   */\n      iszero\n      tag_376\n      jumpi\n        /* \"#utility.yul\":8450:8529   */\n      tag_377\n      tag_224\n      jump\t// in\n    tag_377:\n        /* \"#utility.yul\":8412:8531   */\n    tag_376:\n        /* \"#utility.yul\":8570:8571   */\n      0x00\n        /* \"#utility.yul\":8595:8648   */\n      tag_378\n        /* \"#utility.yul\":8640:8647   */\n      dup5\n        /* \"#utility.yul\":8631:8637   */\n      dup3\n        /* \"#utility.yul\":8620:8629   */\n      dup6\n        /* \"#utility.yul\":8616:8638   */\n      add\n        /* \"#utility.yul\":8595:8648   */\n      tag_241\n      jump\t// in\n    tag_378:\n        /* \"#utility.yul\":8585:8648   */\n      swap2\n      pop\n        /* \"#utility.yul\":8541:8658   */\n      pop\n        /* \"#utility.yul\":8336:8665   */\n      swap3\n      swap2\n      pop\n      pop\n      jump\t// out\n        /* \"#utility.yul\":8671:9588   */\n    tag_43:\n        /* \"#utility.yul\":8928:8932   */\n      0x00\n        /* \"#utility.yul\":8966:8969   */\n      0x80\n        /* \"#utility.yul\":8955:8964   */\n      dup3\n        /* \"#utility.yul\":8951:8970   */\n      add\n        /* \"#utility.yul\":8943:8970   */\n      swap1\n      pop\n        /* \"#utility.yul\":9016:9025   */\n      dup2\n        /* \"#utility.yul\":9010:9014   */\n      dup2\n        /* \"#utility.yul\":9006:9026   */\n      sub\n        /* \"#utility.yul\":9002:9003   */\n      0x00\n        /* \"#utility.yul\":8991:9000   */\n      dup4\n        /* \"#utility.yul\":8987:9004   */\n      add\n        /* \"#utility.yul\":8980:9027   */\n      mstore\n        /* \"#utility.yul\":9044:9122   */\n      tag_380\n        /* \"#utility.yul\":9117:9121   */\n      dup2\n        /* \"#utility.yul\":9108:9114   */\n      dup8\n        /* \"#utility.yul\":9044:9122   */\n      tag_245\n      jump\t// in\n    tag_380:\n        /* \"#utility.yul\":9036:9122   */\n      swap1\n      pop\n        /* \"#utility.yul\":9169:9178   */\n      dup2\n        /* \"#utility.yul\":9163:9167   */\n      dup2\n        /* \"#utility.yul\":9159:9179   */\n      sub\n        /* \"#utility.yul\":9154:9156   */\n      0x20\n        /* \"#utility.yul\":9143:9152   */\n      dup4\n        /* \"#utility.yul\":9139:9157   */\n      add\n        /* \"#utility.yul\":9132:9180   */\n      mstore\n        /* \"#utility.yul\":9197:9275   */\n      tag_381\n        /* \"#utility.yul\":9270:9274   */\n      dup2\n        /* \"#utility.yul\":9261:9267   */\n      dup7\n        /* \"#utility.yul\":9197:9275   */\n      tag_245\n      jump\t// in\n    tag_381:\n        /* \"#utility.yul\":9189:9275   */\n      swap1\n      pop\n        /* \"#utility.yul\":9322:9331   */\n      dup2\n        /* \"#utility.yul\":9316:9320   */\n      dup2\n        /* \"#utility.yul\":9312:9332   */\n      sub\n        /* \"#utility.yul\":9307:9309   */\n      0x40\n        /* \"#utility.yul\":9296:9305   */\n      dup4\n        /* \"#utility.yul\":9292:9310   */\n      add\n        /* \"#utility.yul\":9285:9333   */\n      mstore\n        /* \"#utility.yul\":9350:9428   */\n      tag_382\n        /* \"#utility.yul\":9423:9427   */\n      dup2\n        /* \"#utility.yul\":9414:9420   */\n      dup6\n        /* \"#utility.yul\":9350:9428   */\n      tag_245\n      jump\t// in\n    tag_382:\n        /* \"#utility.yul\":9342:9428   */\n      swap1\n      pop\n        /* \"#utility.yul\":9475:9484   */\n      dup2\n        /* \"#utility.yul\":9469:9473   */\n      dup2\n        /* \"#utility.yul\":9465:9485   */\n      sub\n        /* \"#utility.yul\":9460:9462   */\n      0x60\n        /* \"#utility.yul\":9449:9458   */\n      dup4\n        /* \"#utility.yul\":9445:9463   */\n      add\n        /* \"#utility.yul\":9438:9486   */\n      mstore\n        /* \"#utility.yul\":9503:9581   */\n      tag_383\n        /* \"#utility.yul\":9576:9580   */\n      dup2\n        /* \"#utility.yul\":9567:9573   */\n      dup5\n        /* \"#utility.yul\":9503:9581   */\n      tag_245\n      jump\t// in\n    tag_383:\n        /* \"#utility.yul\":9495:9581   */\n      swap1\n      pop\n        /* \"#utility.yul\":8671:9588   */\n      swap6\n      swap5\n      pop\n      pop\n      pop\n      pop\n      pop\n      jump\t// out\n        /* \"#utility.yul\":9594:9731   */\n    tag_247:\n        /* \"#utility.yul\":9684:9690   */\n      0x00\n        /* \"#utility.yul\":9718:9723   */\n      dup2\n        /* \"#utility.yul\":9712:9724   */\n      mload\n        /* \"#utility.yul\":9702:9724   */\n      swap1\n      pop\n        /* \"#utility.yul\":9594:9731   */\n      swap2\n      swap1\n      pop\n      jump\t// out\n        /* \"#utility.yul\":9737:9944   */\n    tag_248:\n        /* \"#utility.yul\":9859:9870   */\n      0x00\n        /* \"#utility.yul\":9893:9899   */\n      dup3\n        /* \"#utility.yul\":9888:9891   */\n      dup3\n        /* \"#utility.yul\":9881:9900   */\n      mstore\n        /* \"#utility.yul\":9933:9937   */\n      0x20\n        /* \"#utility.yul\":9928:9931   */\n      dup3\n        /* \"#utility.yul\":9924:9938   */\n      add\n        /* \"#utility.yul\":9909:9938   */\n      swap1\n      pop\n        /* \"#utility.yul\":9737:9944   */\n      swap3\n      swap2\n      pop\n      pop\n      jump\t// out\n        /* \"#utility.yul\":9950:10105   */\n    tag_249:\n        /* \"#utility.yul\":10040:10044   */\n      0x00\n        /* \"#utility.yul\":10063:10066   */\n      dup2\n        /* \"#utility.yul\":10055:10066   */\n      swap1\n      pop\n        /* \"#utility.yul\":10093:10097   */\n      0x20\n        /* \"#utility.yul\":10088:10091   */\n      dup3\n        /* \"#utility.yul\":10084:10098   */\n      add\n        /* \"#utility.yul\":10076:10098   */\n      swap1\n      pop\n        /* \"#utility.yul\":9950:10105   */\n      swap2\n      swap1\n      pop\n      jump\t// out\n        /* \"#utility.yul\":10111:10270   */\n    tag_250:\n        /* \"#utility.yul\":10185:10196   */\n      0x00\n        /* \"#utility.yul\":10219:10225   */\n      dup3\n        /* \"#utility.yul\":10214:10217   */\n      dup3\n        /* \"#utility.yul\":10207:10226   */\n      mstore\n        /* \"#utility.yul\":10259:10263   */\n      0x20\n        /* \"#utility.yul\":10254:10257   */\n      dup3\n        /* \"#utility.yul\":10250:10264   */\n      add\n        /* \"#utility.yul\":10235:10264   */\n      swap1\n      pop\n        /* \"#utility.yul\":10111:10270   */\n      swap3\n      swap2\n      pop\n      pop\n      jump\t// out\n        /* \"#utility.yul\":10276:10633   */\n    tag_251:\n        /* \"#utility.yul\":10354:10357   */\n      0x00\n        /* \"#utility.yul\":10382:10421   */\n      tag_389\n        /* \"#utility.yul\":10415:10420   */\n      dup3\n        /* \"#utility.yul\":10382:10421   */\n      tag_242\n      jump\t// in\n    tag_389:\n        /* \"#utility.yul\":10437:10498   */\n      tag_390\n        /* \"#utility.yul\":10491:10497   */\n      dup2\n        /* \"#utility.yul\":10486:10489   */\n      dup6\n        /* \"#utility.yul\":10437:10498   */\n      tag_250\n      jump\t// in\n    tag_390:\n        /* \"#utility.yul\":10430:10498   */\n      swap4\n      pop\n        /* \"#utility.yul\":10507:10572   */\n      tag_391\n        /* \"#utility.yul\":10565:10571   */\n      dup2\n        /* \"#utility.yul\":10560:10563   */\n      dup6\n        /* \"#utility.yul\":10553:10557   */\n      0x20\n        /* \"#utility.yul\":10546:10551   */\n      dup7\n        /* \"#utility.yul\":10542:10558   */\n      add\n        /* \"#utility.yul\":10507:10572   */\n      tag_244\n      jump\t// in\n    tag_391:\n        /* \"#utility.yul\":10597:10626   */\n      tag_392\n        /* \"#utility.yul\":10619:10625   */\n      dup2\n        /* \"#utility.yul\":10597:10626   */\n      tag_232\n      jump\t// in\n    tag_392:\n        /* \"#utility.yul\":10592:10595   */\n      dup5\n        /* \"#utility.yul\":10588:10627   */\n      add\n        /* \"#utility.yul\":10581:10627   */\n      swap2\n      pop\n        /* \"#utility.yul\":10358:10633   */\n      pop\n        /* \"#utility.yul\":10276:10633   */\n      swap3\n      swap2\n      pop\n      pop\n      jump\t// out\n        /* \"#utility.yul\":10639:10747   */\n    tag_252:\n        /* \"#utility.yul\":10716:10740   */\n      tag_394\n        /* \"#utility.yul\":10734:10739   */\n      dup2\n        /* \"#utility.yul\":10716:10740   */\n      tag_239\n      jump\t// in\n    tag_394:\n        /* \"#utility.yul\":10711:10714   */\n      dup3\n        /* \"#utility.yul\":10704:10741   */\n      mstore\n        /* \"#utility.yul\":10639:10747   */\n      pop\n      pop\n      jump\t// out\n        /* \"#utility.yul\":10817:12171   */\n    tag_253:\n        /* \"#utility.yul\":10922:10925   */\n      0x00\n        /* \"#utility.yul\":10958:10962   */\n      0xa0\n        /* \"#utility.yul\":10953:10956   */\n      dup4\n        /* \"#utility.yul\":10949:10963   */\n      add\n        /* \"#utility.yul\":11052:11056   */\n      0x00\n        /* \"#utility.yul\":11045:11050   */\n      dup4\n        /* \"#utility.yul\":11041:11057   */\n      add\n        /* \"#utility.yul\":11035:11058   */\n      mload\n        /* \"#utility.yul\":11105:11108   */\n      dup5\n        /* \"#utility.yul\":11099:11103   */\n      dup3\n        /* \"#utility.yul\":11095:11109   */\n      sub\n        /* \"#utility.yul\":11088:11092   */\n      0x00\n        /* \"#utility.yul\":11083:11086   */\n      dup7\n        /* \"#utility.yul\":11079:11093   */\n      add\n        /* \"#utility.yul\":11072:11110   */\n      mstore\n        /* \"#utility.yul\":11131:11204   */\n      tag_396\n        /* \"#utility.yul\":11199:11203   */\n      dup3\n        /* \"#utility.yul\":11185:11197   */\n      dup3\n        /* \"#utility.yul\":11131:11204   */\n      tag_251\n      jump\t// in\n    tag_396:\n        /* \"#utility.yul\":11123:11204   */\n      swap2\n      pop\n        /* \"#utility.yul\":10973:11215   */\n      pop\n        /* \"#utility.yul\":11302:11306   */\n      0x20\n        /* \"#utility.yul\":11295:11300   */\n      dup4\n        /* \"#utility.yul\":11291:11307   */\n      add\n        /* \"#utility.yul\":11285:11308   */\n      mload\n        /* \"#utility.yul\":11355:11358   */\n      dup5\n        /* \"#utility.yul\":11349:11353   */\n      dup3\n        /* \"#utility.yul\":11345:11359   */\n      sub\n        /* \"#utility.yul\":11338:11342   */\n      0x20\n        /* \"#utility.yul\":11333:11336   */\n      dup7\n        /* \"#utility.yul\":11329:11343   */\n      add\n        /* \"#utility.yul\":11322:11360   */\n      mstore\n        /* \"#utility.yul\":11381:11454   */\n      tag_397\n        /* \"#utility.yul\":11449:11453   */\n      dup3\n        /* \"#utility.yul\":11435:11447   */\n      dup3\n        /* \"#utility.yul\":11381:11454   */\n      tag_251\n      jump\t// in\n    tag_397:\n        /* \"#utility.yul\":11373:11454   */\n      swap2\n      pop\n        /* \"#utility.yul\":11225:11465   */\n      pop\n        /* \"#utility.yul\":11550:11554   */\n      0x40\n        /* \"#utility.yul\":11543:11548   */\n      dup4\n        /* \"#utility.yul\":11539:11555   */\n      add\n        /* \"#utility.yul\":11533:11556   */\n      mload\n        /* \"#utility.yul\":11603:11606   */\n      dup5\n        /* \"#utility.yul\":11597:11601   */\n      dup3\n        /* \"#utility.yul\":11593:11607   */\n      sub\n        /* \"#utility.yul\":11586:11590   */\n      0x40\n        /* \"#utility.yul\":11581:11584   */\n      dup7\n        /* \"#utility.yul\":11577:11591   */\n      add\n        /* \"#utility.yul\":11570:11608   */\n      mstore\n        /* \"#utility.yul\":11629:11702   */\n      tag_398\n        /* \"#utility.yul\":11697:11701   */\n      dup3\n        /* \"#utility.yul\":11683:11695   */\n      dup3\n        /* \"#utility.yul\":11629:11702   */\n      tag_251\n      jump\t// in\n    tag_398:\n        /* \"#utility.yul\":11621:11702   */\n      swap2\n      pop\n        /* \"#utility.yul\":11475:11713   */\n      pop\n        /* \"#utility.yul\":11801:11805   */\n      0x60\n        /* \"#utility.yul\":11794:11799   */\n      dup4\n        /* \"#utility.yul\":11790:11806   */\n      add\n        /* \"#utility.yul\":11784:11807   */\n      mload\n        /* \"#utility.yul\":11854:11857   */\n      dup5\n        /* \"#utility.yul\":11848:11852   */\n      dup3\n        /* \"#utility.yul\":11844:11858   */\n      sub\n        /* \"#utility.yul\":11837:11841   */\n      0x60\n        /* \"#utility.yul\":11832:11835   */\n      dup7\n        /* \"#utility.yul\":11828:11842   */\n      add\n        /* \"#utility.yul\":11821:11859   */\n      mstore\n        /* \"#utility.yul\":11880:11953   */\n      tag_399\n        /* \"#utility.yul\":11948:11952   */\n      dup3\n        /* \"#utility.yul\":11934:11946   */\n      dup3\n        /* \"#utility.yul\":11880:11953   */\n      tag_251\n      jump\t// in\n    tag_399:\n        /* \"#utility.yul\":11872:11953   */\n      swap2\n      pop\n        /* \"#utility.yul\":11723:11964   */\n      pop\n        /* \"#utility.yul\":12052:12056   */\n      0x80\n        /* \"#utility.yul\":12045:12050   */\n      dup4\n        /* \"#utility.yul\":12041:12057   */\n      add\n        /* \"#utility.yul\":12035:12058   */\n      mload\n        /* \"#utility.yul\":12071:12134   */\n      tag_400\n        /* \"#utility.yul\":12128:12132   */\n      0x80\n        /* \"#utility.yul\":12123:12126   */\n      dup7\n        /* \"#utility.yul\":12119:12133   */\n      add\n        /* \"#utility.yul\":12105:12117   */\n      dup3\n        /* \"#utility.yul\":12071:12134   */\n      tag_252\n      jump\t// in\n    tag_400:\n        /* \"#utility.yul\":11974:12144   */\n      pop\n        /* \"#utility.yul\":12161:12165   */\n      dup1\n        /* \"#utility.yul\":12154:12165   */\n      swap2\n      pop\n        /* \"#utility.yul\":10927:12171   */\n      pop\n        /* \"#utility.yul\":10817:12171   */\n      swap3\n      swap2\n      pop\n      pop\n      jump\t// out\n        /* \"#utility.yul\":12177:12425   */\n    tag_254:\n        /* \"#utility.yul\":12292:12302   */\n      0x00\n        /* \"#utility.yul\":12327:12419   */\n      tag_402\n        /* \"#utility.yul\":12415:12418   */\n      dup4\n        /* \"#utility.yul\":12407:12413   */\n      dup4\n        /* \"#utility.yul\":12327:12419   */\n      tag_253\n      jump\t// in\n    tag_402:\n        /* \"#utility.yul\":12313:12419   */\n      swap1\n      pop\n        /* \"#utility.yul\":12177:12425   */\n      swap3\n      swap2\n      pop\n      pop\n      jump\t// out\n        /* \"#utility.yul\":12431:12567   */\n    tag_255:\n        /* \"#utility.yul\":12524:12528   */\n      0x00\n        /* \"#utility.yul\":12556:12560   */\n      0x20\n        /* \"#utility.yul\":12551:12554   */\n      dup3\n        /* \"#utility.yul\":12547:12561   */\n      add\n        /* \"#utility.yul\":12539:12561   */\n      swap1\n      pop\n        /* \"#utility.yul\":12431:12567   */\n      swap2\n      swap1\n      pop\n      jump\t// out\n        /* \"#utility.yul\":12641:13736   */\n    tag_256:\n        /* \"#utility.yul\":12806:12809   */\n      0x00\n        /* \"#utility.yul\":12835:12912   */\n      tag_405\n        /* \"#utility.yul\":12906:12911   */\n      dup3\n        /* \"#utility.yul\":12835:12912   */\n      tag_247\n      jump\t// in\n    tag_405:\n        /* \"#utility.yul\":12928:13037   */\n      tag_406\n        /* \"#utility.yul\":13030:13036   */\n      dup2\n        /* \"#utility.yul\":13025:13028   */\n      dup6\n        /* \"#utility.yul\":12928:13037   */\n      tag_248\n      jump\t// in\n    tag_406:\n        /* \"#utility.yul\":12921:13037   */\n      swap4\n      pop\n        /* \"#utility.yul\":13063:13066   */\n      dup4\n        /* \"#utility.yul\":13108:13112   */\n      0x20\n        /* \"#utility.yul\":13100:13106   */\n      dup3\n        /* \"#utility.yul\":13096:13113   */\n      mul\n        /* \"#utility.yul\":13091:13094   */\n      dup6\n        /* \"#utility.yul\":13087:13114   */\n      add\n        /* \"#utility.yul\":13138:13217   */\n      tag_407\n        /* \"#utility.yul\":13211:13216   */\n      dup6\n        /* \"#utility.yul\":13138:13217   */\n      tag_249\n      jump\t// in\n    tag_407:\n        /* \"#utility.yul\":13240:13247   */\n      dup1\n        /* \"#utility.yul\":13271:13272   */\n      0x00\n        /* \"#utility.yul\":13256:13691   */\n    tag_408:\n        /* \"#utility.yul\":13281:13287   */\n      dup6\n        /* \"#utility.yul\":13278:13279   */\n      dup2\n        /* \"#utility.yul\":13275:13288   */\n      lt\n        /* \"#utility.yul\":13256:13691   */\n      iszero\n      tag_410\n      jumpi\n        /* \"#utility.yul\":13352:13361   */\n      dup5\n        /* \"#utility.yul\":13346:13350   */\n      dup5\n        /* \"#utility.yul\":13342:13362   */\n      sub\n        /* \"#utility.yul\":13337:13340   */\n      dup10\n        /* \"#utility.yul\":13330:13363   */\n      mstore\n        /* \"#utility.yul\":13403:13409   */\n      dup2\n        /* \"#utility.yul\":13397:13410   */\n      mload\n        /* \"#utility.yul\":13431:13541   */\n      tag_411\n        /* \"#utility.yul\":13536:13540   */\n      dup6\n        /* \"#utility.yul\":13521:13534   */\n      dup3\n        /* \"#utility.yul\":13431:13541   */\n      tag_254\n      jump\t// in\n    tag_411:\n        /* \"#utility.yul\":13423:13541   */\n      swap5\n      pop\n        /* \"#utility.yul\":13564:13647   */\n      tag_412\n        /* \"#utility.yul\":13640:13646   */\n      dup4\n        /* \"#utility.yul\":13564:13647   */\n      tag_255\n      jump\t// in\n    tag_412:\n        /* \"#utility.yul\":13554:13647   */\n      swap3\n      pop\n        /* \"#utility.yul\":13676:13680   */\n      0x20\n        /* \"#utility.yul\":13671:13674   */\n      dup11\n        /* \"#utility.yul\":13667:13681   */\n      add\n        /* \"#utility.yul\":13660:13681   */\n      swap10\n      pop\n        /* \"#utility.yul\":13316:13691   */\n      pop\n        /* \"#utility.yul\":13303:13304   */\n      0x01\n        /* \"#utility.yul\":13300:13301   */\n      dup2\n        /* \"#utility.yul\":13296:13305   */\n      add\n        /* \"#utility.yul\":13291:13305   */\n      swap1\n      pop\n        /* \"#utility.yul\":13256:13691   */\n      jump(tag_408)\n    tag_410:\n        /* \"#utility.yul\":13260:13274   */\n      pop\n        /* \"#utility.yul\":13707:13711   */\n      dup3\n        /* \"#utility.yul\":13700:13711   */\n      swap8\n      pop\n        /* \"#utility.yul\":13727:13730   */\n      dup8\n        /* \"#utility.yul\":13720:13730   */\n      swap6\n      pop\n        /* \"#utility.yul\":12811:13736   */\n      pop\n      pop\n      pop\n      pop\n      pop\n        /* \"#utility.yul\":12641:13736   */\n      swap3\n      swap2\n      pop\n      pop\n      jump\t// out\n        /* \"#utility.yul\":13742:14207   */\n    tag_47:\n        /* \"#utility.yul\":13931:13935   */\n      0x00\n        /* \"#utility.yul\":13969:13971   */\n      0x20\n        /* \"#utility.yul\":13958:13967   */\n      dup3\n        /* \"#utility.yul\":13954:13972   */\n      add\n        /* \"#utility.yul\":13946:13972   */\n      swap1\n      pop\n        /* \"#utility.yul\":14018:14027   */\n      dup2\n        /* \"#utility.yul\":14012:14016   */\n      dup2\n        /* \"#utility.yul\":14008:14028   */\n      sub\n        /* \"#utility.yul\":14004:14005   */\n      0x00\n        /* \"#utility.yul\":13993:14002   */\n      dup4\n        /* \"#utility.yul\":13989:14006   */\n      add\n        /* \"#utility.yul\":13982:14029   */\n      mstore\n        /* \"#utility.yul\":14046:14200   */\n      tag_414\n        /* \"#utility.yul\":14195:14199   */\n      dup2\n        /* \"#utility.yul\":14186:14192   */\n      dup5\n        /* \"#utility.yul\":14046:14200   */\n      tag_256\n      jump\t// in\n    tag_414:\n        /* \"#utility.yul\":14038:14200   */\n      swap1\n      pop\n        /* \"#utility.yul\":13742:14207   */\n      swap3\n      swap2\n      pop\n      pop\n      jump\t// out\n        /* \"#utility.yul\":14213:15844   */\n    tag_50:\n        /* \"#utility.yul\":14348:14354   */\n      0x00\n        /* \"#utility.yul\":14356:14362   */\n      dup1\n        /* \"#utility.yul\":14364:14370   */\n      0x00\n        /* \"#utility.yul\":14372:14378   */\n      dup1\n        /* \"#utility.yul\":14380:14386   */\n      0x00\n        /* \"#utility.yul\":14429:14432   */\n      0xa0\n        /* \"#utility.yul\":14417:14426   */\n      dup7\n        /* \"#utility.yul\":14408:14415   */\n      dup9\n        /* \"#utility.yul\":14404:14427   */\n      sub\n        /* \"#utility.yul\":14400:14433   */\n      slt\n        /* \"#utility.yul\":14397:14517   */\n      iszero\n      tag_416\n      jumpi\n        /* \"#utility.yul\":14436:14515   */\n      tag_417\n      tag_224\n      jump\t// in\n    tag_417:\n        /* \"#utility.yul\":14397:14517   */\n    tag_416:\n        /* \"#utility.yul\":14556:14557   */\n      0x00\n        /* \"#utility.yul\":14581:14634   */\n      tag_418\n        /* \"#utility.yul\":14626:14633   */\n      dup9\n        /* \"#utility.yul\":14617:14623   */\n      dup3\n        /* \"#utility.yul\":14606:14615   */\n      dup10\n        /* \"#utility.yul\":14602:14624   */\n      add\n        /* \"#utility.yul\":14581:14634   */\n      tag_229\n      jump\t// in\n    tag_418:\n        /* \"#utility.yul\":14571:14634   */\n      swap6\n      pop\n        /* \"#utility.yul\":14527:14644   */\n      pop\n        /* \"#utility.yul\":14711:14713   */\n      0x20\n        /* \"#utility.yul\":14700:14709   */\n      dup7\n        /* \"#utility.yul\":14696:14714   */\n      add\n        /* \"#utility.yul\":14683:14715   */\n      calldataload\n        /* \"#utility.yul\":14742:14760   */\n      0xffffffffffffffff\n        /* \"#utility.yul\":14734:14740   */\n      dup2\n        /* \"#utility.yul\":14731:14761   */\n      gt\n        /* \"#utility.yul\":14728:14845   */\n      iszero\n      tag_419\n      jumpi\n        /* \"#utility.yul\":14764:14843   */\n      tag_420\n      tag_225\n      jump\t// in\n    tag_420:\n        /* \"#utility.yul\":14728:14845   */\n    tag_419:\n        /* \"#utility.yul\":14869:14932   */\n      tag_421\n        /* \"#utility.yul\":14924:14931   */\n      dup9\n        /* \"#utility.yul\":14915:14921   */\n      dup3\n        /* \"#utility.yul\":14904:14913   */\n      dup10\n        /* \"#utility.yul\":14900:14922   */\n      add\n        /* \"#utility.yul\":14869:14932   */\n      tag_238\n      jump\t// in\n    tag_421:\n        /* \"#utility.yul\":14859:14932   */\n      swap5\n      pop\n        /* \"#utility.yul\":14654:14942   */\n      pop\n        /* \"#utility.yul\":15009:15011   */\n      0x40\n        /* \"#utility.yul\":14998:15007   */\n      dup7\n        /* \"#utility.yul\":14994:15012   */\n      add\n        /* \"#utility.yul\":14981:15013   */\n      calldataload\n        /* \"#utility.yul\":15040:15058   */\n      0xffffffffffffffff\n        /* \"#utility.yul\":15032:15038   */\n      dup2\n        /* \"#utility.yul\":15029:15059   */\n      gt\n        /* \"#utility.yul\":15026:15143   */\n      iszero\n      tag_422\n      jumpi\n        /* \"#utility.yul\":15062:15141   */\n      tag_423\n      tag_225\n      jump\t// in\n    tag_423:\n        /* \"#utility.yul\":15026:15143   */\n    tag_422:\n        /* \"#utility.yul\":15167:15230   */\n      tag_424\n        /* \"#utility.yul\":15222:15229   */\n      dup9\n        /* \"#utility.yul\":15213:15219   */\n      dup3\n        /* \"#utility.yul\":15202:15211   */\n      dup10\n        /* \"#utility.yul\":15198:15220   */\n      add\n        /* \"#utility.yul\":15167:15230   */\n      tag_238\n      jump\t// in\n    tag_424:\n        /* \"#utility.yul\":15157:15230   */\n      swap4\n      pop\n        /* \"#utility.yul\":14952:15240   */\n      pop\n        /* \"#utility.yul\":15307:15309   */\n      0x60\n        /* \"#utility.yul\":15296:15305   */\n      dup7\n        /* \"#utility.yul\":15292:15310   */\n      add\n        /* \"#utility.yul\":15279:15311   */\n      calldataload\n        /* \"#utility.yul\":15338:15356   */\n      0xffffffffffffffff\n        /* \"#utility.yul\":15330:15336   */\n      dup2\n        /* \"#utility.yul\":15327:15357   */\n      gt\n        /* \"#utility.yul\":15324:15441   */\n      iszero\n      tag_425\n      jumpi\n        /* \"#utility.yul\":15360:15439   */\n      tag_426\n      tag_225\n      jump\t// in\n    tag_426:\n        /* \"#utility.yul\":15324:15441   */\n    tag_425:\n        /* \"#utility.yul\":15465:15528   */\n      tag_427\n        /* \"#utility.yul\":15520:15527   */\n      dup9\n        /* \"#utility.yul\":15511:15517   */\n      dup3\n        /* \"#utility.yul\":15500:15509   */\n      dup10\n        /* \"#utility.yul\":15496:15518   */\n      add\n        /* \"#utility.yul\":15465:15528   */\n      tag_238\n      jump\t// in\n    tag_427:\n        /* \"#utility.yul\":15455:15528   */\n      swap3\n      pop\n        /* \"#utility.yul\":15250:15538   */\n      pop\n        /* \"#utility.yul\":15605:15608   */\n      0x80\n        /* \"#utility.yul\":15594:15603   */\n      dup7\n        /* \"#utility.yul\":15590:15609   */\n      add\n        /* \"#utility.yul\":15577:15610   */\n      calldataload\n        /* \"#utility.yul\":15637:15655   */\n      0xffffffffffffffff\n        /* \"#utility.yul\":15629:15635   */\n      dup2\n        /* \"#utility.yul\":15626:15656   */\n      gt\n        /* \"#utility.yul\":15623:15740   */\n      iszero\n      tag_428\n      jumpi\n        /* \"#utility.yul\":15659:15738   */\n      tag_429\n      tag_225\n      jump\t// in\n    tag_429:\n        /* \"#utility.yul\":15623:15740   */\n    tag_428:\n        /* \"#utility.yul\":15764:15827   */\n      tag_430\n        /* \"#utility.yul\":15819:15826   */\n      dup9\n        /* \"#utility.yul\":15810:15816   */\n      dup3\n        /* \"#utility.yul\":15799:15808   */\n      dup10\n        /* \"#utility.yul\":15795:15817   */\n      add\n        /* \"#utility.yul\":15764:15827   */\n      tag_238\n      jump\t// in\n    tag_430:\n        /* \"#utility.yul\":15754:15827   */\n      swap2\n      pop\n        /* \"#utility.yul\":15548:15837   */\n      pop\n        /* \"#utility.yul\":14213:15844   */\n      swap3\n      swap6\n      pop\n      swap3\n      swap6\n      swap1\n      swap4\n      pop\n      jump\t// out\n        /* \"#utility.yul\":15850:15940   */\n    tag_257:\n        /* \"#utility.yul\":15884:15891   */\n      0x00\n        /* \"#utility.yul\":15927:15932   */\n      dup2\n        /* \"#utility.yul\":15920:15933   */\n      iszero\n        /* \"#utility.yul\":15913:15934   */\n      iszero\n        /* \"#utility.yul\":15902:15934   */\n      swap1\n      pop\n        /* \"#utility.yul\":15850:15940   */\n      swap2\n      swap1\n      pop\n      jump\t// out\n        /* \"#utility.yul\":15946:16055   */\n    tag_258:\n        /* \"#utility.yul\":16027:16048   */\n      tag_433\n        /* \"#utility.yul\":16042:16047   */\n      dup2\n        /* \"#utility.yul\":16027:16048   */\n      tag_257\n      jump\t// in\n    tag_433:\n        /* \"#utility.yul\":16022:16025   */\n      dup3\n        /* \"#utility.yul\":16015:16049   */\n      mstore\n        /* \"#utility.yul\":15946:16055   */\n      pop\n      pop\n      jump\t// out\n        /* \"#utility.yul\":16061:16271   */\n    tag_56:\n        /* \"#utility.yul\":16148:16152   */\n      0x00\n        /* \"#utility.yul\":16186:16188   */\n      0x20\n        /* \"#utility.yul\":16175:16184   */\n      dup3\n        /* \"#utility.yul\":16171:16189   */\n      add\n        /* \"#utility.yul\":16163:16189   */\n      swap1\n      pop\n        /* \"#utility.yul\":16199:16264   */\n      tag_435\n        /* \"#utility.yul\":16261:16262   */\n      0x00\n        /* \"#utility.yul\":16250:16259   */\n      dup4\n        /* \"#utility.yul\":16246:16263   */\n      add\n        /* \"#utility.yul\":16237:16243   */\n      dup5\n        /* \"#utility.yul\":16199:16264   */\n      tag_258\n      jump\t// in\n    tag_435:\n        /* \"#utility.yul\":16061:16271   */\n      swap3\n      swap2\n      pop\n      pop\n      jump\t// out\n        /* \"#utility.yul\":16277:16510   */\n    tag_259:\n        /* \"#utility.yul\":16417:16451   */\n      0x4f6e6c7920617574686f72697a656420697373756572732063616e2063616c6c\n        /* \"#utility.yul\":16413:16414   */\n      0x00\n        /* \"#utility.yul\":16405:16411   */\n      dup3\n        /* \"#utility.yul\":16401:16415   */\n      add\n        /* \"#utility.yul\":16394:16452   */\n      mstore\n        /* \"#utility.yul\":16486:16502   */\n      0x20746869732066756e6374696f6e000000000000000000000000000000000000\n        /* \"#utility.yul\":16481:16483   */\n      0x20\n        /* \"#utility.yul\":16473:16479   */\n      dup3\n        /* \"#utility.yul\":16469:16484   */\n      add\n        /* \"#utility.yul\":16462:16503   */\n      mstore\n        /* \"#utility.yul\":16277:16510   */\n      pop\n      jump\t// out\n        /* \"#utility.yul\":16516:16882   */\n    tag_260:\n        /* \"#utility.yul\":16658:16661   */\n      0x00\n        /* \"#utility.yul\":16679:16746   */\n      tag_438\n        /* \"#utility.yul\":16743:16745   */\n      0x2e\n        /* \"#utility.yul\":16738:16741   */\n      dup4\n        /* \"#utility.yul\":16679:16746   */\n      tag_243\n      jump\t// in\n    tag_438:\n        /* \"#utility.yul\":16672:16746   */\n      swap2\n      pop\n        /* \"#utility.yul\":16755:16848   */\n      tag_439\n        /* \"#utility.yul\":16844:16847   */\n      dup3\n        /* \"#utility.yul\":16755:16848   */\n      tag_259\n      jump\t// in\n    tag_439:\n        /* \"#utility.yul\":16873:16875   */\n      0x40\n        /* \"#utility.yul\":16868:16871   */\n      dup3\n        /* \"#utility.yul\":16864:16876   */\n      add\n        /* \"#utility.yul\":16857:16876   */\n      swap1\n      pop\n        /* \"#utility.yul\":16516:16882   */\n      swap2\n      swap1\n      pop\n      jump\t// out\n        /* \"#utility.yul\":16888:17307   */\n    tag_60:\n        /* \"#utility.yul\":17054:17058   */\n      0x00\n        /* \"#utility.yul\":17092:17094   */\n      0x20\n        /* \"#utility.yul\":17081:17090   */\n      dup3\n        /* \"#utility.yul\":17077:17095   */\n      add\n        /* \"#utility.yul\":17069:17095   */\n      swap1\n      pop\n        /* \"#utility.yul\":17141:17150   */\n      dup2\n        /* \"#utility.yul\":17135:17139   */\n      dup2\n        /* \"#utility.yul\":17131:17151   */\n      sub\n        /* \"#utility.yul\":17127:17128   */\n      0x00\n        /* \"#utility.yul\":17116:17125   */\n      dup4\n        /* \"#utility.yul\":17112:17129   */\n      add\n        /* \"#utility.yul\":17105:17152   */\n      mstore\n        /* \"#utility.yul\":17169:17300   */\n      tag_441\n        /* \"#utility.yul\":17295:17299   */\n      dup2\n        /* \"#utility.yul\":17169:17300   */\n      tag_260\n      jump\t// in\n    tag_441:\n        /* \"#utility.yul\":17161:17300   */\n      swap1\n      pop\n        /* \"#utility.yul\":16888:17307   */\n      swap2\n      swap1\n      pop\n      jump\t// out\n        /* \"#utility.yul\":17313:17493   */\n    tag_261:\n        /* \"#utility.yul\":17361:17438   */\n      0x4e487b7100000000000000000000000000000000000000000000000000000000\n        /* \"#utility.yul\":17358:17359   */\n      0x00\n        /* \"#utility.yul\":17351:17439   */\n      mstore\n        /* \"#utility.yul\":17458:17462   */\n      0x22\n        /* \"#utility.yul\":17455:17456   */\n      0x04\n        /* \"#utility.yul\":17448:17463   */\n      mstore\n        /* \"#utility.yul\":17482:17486   */\n      0x24\n        /* \"#utility.yul\":17479:17480   */\n      0x00\n        /* \"#utility.yul\":17472:17487   */\n      revert\n        /* \"#utility.yul\":17499:17819   */\n    tag_86:\n        /* \"#utility.yul\":17543:17549   */\n      0x00\n        /* \"#utility.yul\":17580:17581   */\n      0x02\n        /* \"#utility.yul\":17574:17578   */\n      dup3\n        /* \"#utility.yul\":17570:17582   */\n      div\n        /* \"#utility.yul\":17560:17582   */\n      swap1\n      pop\n        /* \"#utility.yul\":17627:17628   */\n      0x01\n        /* \"#utility.yul\":17621:17625   */\n      dup3\n        /* \"#utility.yul\":17617:17629   */\n      and\n        /* \"#utility.yul\":17648:17666   */\n      dup1\n        /* \"#utility.yul\":17638:17719   */\n      tag_444\n      jumpi\n        /* \"#utility.yul\":17704:17708   */\n      0x7f\n        /* \"#utility.yul\":17696:17702   */\n      dup3\n        /* \"#utility.yul\":17692:17709   */\n      and\n        /* \"#utility.yul\":17682:17709   */\n      swap2\n      pop\n        /* \"#utility.yul\":17638:17719   */\n    tag_444:\n        /* \"#utility.yul\":17766:17768   */\n      0x20\n        /* \"#utility.yul\":17758:17764   */\n      dup3\n        /* \"#utility.yul\":17755:17769   */\n      lt\n        /* \"#utility.yul\":17735:17753   */\n      dup2\n        /* \"#utility.yul\":17732:17770   */\n      sub\n        /* \"#utility.yul\":17729:17813   */\n      tag_445\n      jumpi\n        /* \"#utility.yul\":17785:17803   */\n      tag_446\n      tag_261\n      jump\t// in\n    tag_446:\n        /* \"#utility.yul\":17729:17813   */\n    tag_445:\n        /* \"#utility.yul\":17550:17819   */\n      pop\n        /* \"#utility.yul\":17499:17819   */\n      swap2\n      swap1\n      pop\n      jump\t// out\n        /* \"#utility.yul\":17825:17966   */\n    tag_262:\n        /* \"#utility.yul\":17874:17878   */\n      0x00\n        /* \"#utility.yul\":17897:17900   */\n      dup2\n        /* \"#utility.yul\":17889:17900   */\n      swap1\n      pop\n        /* \"#utility.yul\":17920:17923   */\n      dup2\n        /* \"#utility.yul\":17917:17918   */\n      0x00\n        /* \"#utility.yul\":17910:17924   */\n      mstore\n        /* \"#utility.yul\":17954:17958   */\n      0x20\n        /* \"#utility.yul\":17951:17952   */\n      0x00\n        /* \"#utility.yul\":17941:17959   */\n      keccak256\n        /* \"#utility.yul\":17933:17959   */\n      swap1\n      pop\n        /* \"#utility.yul\":17825:17966   */\n      swap2\n      swap1\n      pop\n      jump\t// out\n        /* \"#utility.yul\":17972:18065   */\n    tag_263:\n        /* \"#utility.yul\":18009:18015   */\n      0x00\n        /* \"#utility.yul\":18056:18058   */\n      0x20\n        /* \"#utility.yul\":18051:18053   */\n      0x1f\n        /* \"#utility.yul\":18044:18049   */\n      dup4\n        /* \"#utility.yul\":18040:18054   */\n      add\n        /* \"#utility.yul\":18036:18059   */\n      div\n        /* \"#utility.yul\":18026:18059   */\n      swap1\n      pop\n        /* \"#utility.yul\":17972:18065   */\n      swap2\n      swap1\n      pop\n      jump\t// out\n        /* \"#utility.yul\":18071:18178   */\n    tag_264:\n        /* \"#utility.yul\":18115:18123   */\n      0x00\n        /* \"#utility.yul\":18165:18170   */\n      dup3\n        /* \"#utility.yul\":18159:18163   */\n      dup3\n        /* \"#utility.yul\":18155:18171   */\n      shl\n        /* \"#utility.yul\":18134:18171   */\n      swap1\n      pop\n        /* \"#utility.yul\":18071:18178   */\n      swap3\n      swap2\n      pop\n      pop\n      jump\t// out\n        /* \"#utility.yul\":18184:18577   */\n    tag_265:\n        /* \"#utility.yul\":18253:18259   */\n      0x00\n        /* \"#utility.yul\":18303:18304   */\n      0x08\n        /* \"#utility.yul\":18291:18301   */\n      dup4\n        /* \"#utility.yul\":18287:18305   */\n      mul\n        /* \"#utility.yul\":18326:18423   */\n      tag_451\n        /* \"#utility.yul\":18356:18422   */\n      0xffffffffffffffffffffffffffffffffffffffffffffffffffffffffffffffff\n        /* \"#utility.yul\":18345:18354   */\n      dup3\n        /* \"#utility.yul\":18326:18423   */\n      tag_264\n      jump\t// in\n    tag_451:\n        /* \"#utility.yul\":18444:18483   */\n      tag_452\n        /* \"#utility.yul\":18474:18482   */\n      dup7\n        /* \"#utility.yul\":18463:18472   */\n      dup4\n        /* \"#utility.yul\":18444:18483   */\n      tag_264\n      jump\t// in\n    tag_452:\n        /* \"#utility.yul\":18432:18483   */\n      swap6\n      pop\n        /* \"#utility.yul\":18516:18520   */\n      dup1\n        /* \"#utility.yul\":18512:18521   */\n      not\n        /* \"#utility.yul\":18505:18510   */\n      dup5\n        /* \"#utility.yul\":18501:18522   */\n      and\n        /* \"#utility.yul\":18492:18522   */\n      swap4\n      pop\n        /* \"#utility.yul\":18565:18569   */\n      dup1\n        /* \"#utility.yul\":18555:18563   */\n      dup7\n        /* \"#utility.yul\":18551:18570   */\n      and\n        /* \"#utility.yul\":18544:18549   */\n      dup5\n        /* \"#utility.yul\":18541:18571   */\n      or\n        /* \"#utility.yul\":18531:18571   */\n      swap3\n      pop\n        /* \"#utility.yul\":18260:18577   */\n      pop\n      pop\n        /* \"#utility.yul\":18184:18577   */\n      swap4\n      swap3\n      pop\n      pop\n      pop\n      jump\t// out\n        /* \"#utility.yul\":18583:18643   */\n    tag_266:\n        /* \"#utility.yul\":18611:18614   */\n      0x00\n        /* \"#utility.yul\":18632:18637   */\n      dup2\n        /* \"#utility.yul\":18625:18637   */\n      swap1\n      pop\n        /* \"#utility.yul\":18583:18643   */\n      swap2\n      swap1\n      pop\n      jump\t// out\n        /* \"#utility.yul\":18649:18791   */\n    tag_267:\n        /* \"#utility.yul\":18699:18708   */\n      0x00\n        /* \"#utility.yul\":18732:18785   */\n      tag_455\n        /* \"#utility.yul\":18750:18784   */\n      tag_456\n        /* \"#utility.yul\":18759:18783   */\n      tag_457\n        /* \"#utility.yul\":18777:18782   */\n      dup5\n        /* \"#utility.yul\":18759:18783   */\n      tag_239\n      jump\t// in\n    tag_457:\n        /* \"#utility.yul\":18750:18784   */\n      tag_266\n      jump\t// in\n    tag_456:\n        /* \"#utility.yul\":18732:18785   */\n      tag_239\n      jump\t// in\n    tag_455:\n        /* \"#utility.yul\":18719:18785   */\n      swap1\n      pop\n        /* \"#utility.yul\":18649:18791   */\n      swap2\n      swap1\n      pop\n      jump\t// out\n        /* \"#utility.yul\":18797:18872   */\n    tag_268:\n        /* \"#utility.yul\":18840:18843   */\n      0x00\n        /* \"#utility.yul\":18861:18866   */\n      dup2\n        /* \"#utility.yul\":18854:18866   */\n      swap1\n      pop\n        /* \"#utility.yul\":18797:18872   */\n      swap2\n      swap1\n      pop\n      jump\t// out\n        /* \"#utility.yul\":18878:19147   */\n    tag_269:\n        /* \"#utility.yul\":18988:19027   */\n      tag_460\n        /* \"#utility.yul\":19019:19026   */\n      dup4\n        /* \"#utility.yul\":18988:19027   */\n      tag_267\n      jump\t// in\n    tag_460:\n        /* \"#utility.yul\":19049:19140   */\n      tag_461\n        /* \"#utility.yul\":19098:19139   */\n      tag_462\n        /* \"#utility.yul\":19122:19138   */\n      dup3\n        /* \"#utility.yul\":19098:19139   */\n      tag_268\n      jump\t// in\n    tag_462:\n        /* \"#utility.yul\":19090:19096   */\n      dup5\n        /* \"#utility.yul\":19083:19087   */\n      dup5\n        /* \"#utility.yul\":19077:19088   */\n      sload\n        /* \"#utility.yul\":19049:19140   */\n      tag_265\n      jump\t// in\n    tag_461:\n        /* \"#utility.yul\":19043:19047   */\n      dup3\n        /* \"#utility.yul\":19036:19141   */\n      sstore\n        /* \"#utility.yul\":18954:19147   */\n      pop\n        /* \"#utility.yul\":18878:19147   */\n      pop\n      pop\n      pop\n      jump\t// out\n        /* \"#utility.yul\":19153:19226   */\n    tag_270:\n        /* \"#utility.yul\":19198:19201   */\n      0x00\n        /* \"#utility.yul\":19153:19226   */\n      swap1\n      jump\t// out\n        /* \"#utility.yul\":19232:19421   */\n    tag_271:\n        /* \"#utility.yul\":19309:19341   */\n      tag_465\n      tag_270\n      jump\t// in\n    tag_465:\n        /* \"#utility.yul\":19350:19415   */\n      tag_466\n        /* \"#utility.yul\":19408:19414   */\n      dup2\n        /* \"#utility.yul\":19400:19406   */\n      dup5\n        /* \"#utility.yul\":19394:19398   */\n      dup5\n        /* \"#utility.yul\":19350:19415   */\n      tag_269\n      jump\t// in\n    tag_466:\n        /* \"#utility.yul\":19285:19421   */\n      pop\n        /* \"#utility.yul\":19232:19421   */\n      pop\n      pop\n      jump\t// out\n        /* \"#utility.yul\":19427:19613   */\n    tag_272:\n        /* \"#utility.yul\":19487:19607   */\n    tag_468:\n        /* \"#utility.yul\":19504:19507   */\n      dup2\n        /* \"#utility.yul\":19497:19502   */\n      dup2\n        /* \"#utility.yul\":19494:19508   */\n      lt\n        /* \"#utility.yul\":19487:19607   */\n      iszero\n      tag_470\n      jumpi\n        /* \"#utility.yul\":19558:19597   */\n      tag_471\n        /* \"#utility.yul\":19595:19596   */\n      0x00\n        /* \"#utility.yul\":19588:19593   */\n      dup3\n        /* \"#utility.yul\":19558:19597   */\n      tag_271\n      jump\t// in\n    tag_471:\n        /* \"#utility.yul\":19531:19532   */\n      0x01\n        /* \"#utility.yul\":19524:19529   */\n      dup2\n        /* \"#utility.yul\":19520:19533   */\n      add\n        /* \"#utility.yul\":19511:19533   */\n      swap1\n      pop\n        /* \"#utility.yul\":19487:19607   */\n      jump(tag_468)\n    tag_470:\n        /* \"#utility.yul\":19427:19613   */\n      pop\n      pop\n      jump\t// out\n        /* \"#utility.yul\":19619:20162   */\n    tag_273:\n        /* \"#utility.yul\":19720:19722   */\n      0x1f\n        /* \"#utility.yul\":19715:19718   */\n      dup3\n        /* \"#utility.yul\":19712:19723   */\n      gt\n        /* \"#utility.yul\":19709:20155   */\n      iszero\n      tag_473\n      jumpi\n        /* \"#utility.yul\":19754:19792   */\n      tag_474\n        /* \"#utility.yul\":19786:19791   */\n      dup2\n        /* \"#utility.yul\":19754:19792   */\n      tag_262\n      jump\t// in\n    tag_474:\n        /* \"#utility.yul\":19838:19867   */\n      tag_475\n        /* \"#utility.yul\":19856:19866   */\n      dup5\n        /* \"#utility.yul\":19838:19867   */\n      tag_263\n      jump\t// in\n    tag_475:\n        /* \"#utility.yul\":19828:19836   */\n      dup2\n        /* \"#utility.yul\":19824:19868   */\n      add\n        /* \"#utility.yul\":20021:20023   */\n      0x20\n        /* \"#utility.yul\":20009:20019   */\n      dup6\n        /* \"#utility.yul\":20006:20024   */\n      lt\n        /* \"#utility.yul\":20003:20052   */\n      iszero\n      tag_476\n      jumpi\n        /* \"#utility.yul\":20042:20050   */\n      dup2\n        /* \"#utility.yul\":20027:20050   */\n      swap1\n      pop\n        /* \"#utility.yul\":20003:20052   */\n    tag_476:\n        /* \"#utility.yul\":20065:20145   */\n      tag_477\n        /* \"#utility.yul\":20121:20143   */\n      tag_478\n        /* \"#utility.yul\":20139:20142   */\n      dup6\n        /* \"#utility.yul\":20121:20143   */\n      tag_263\n      jump\t// in\n    tag_478:\n        /* \"#utility.yul\":20111:20119   */\n      dup4\n        /* \"#utility.yul\":20107:20144   */\n      add\n        /* \"#utility.yul\":20094:20105   */\n      dup3\n        /* \"#utility.yul\":20065:20145   */\n      tag_272\n      jump\t// in\n    tag_477:\n        /* \"#utility.yul\":19724:20155   */\n      pop\n      pop\n        /* \"#utility.yul\":19709:20155   */\n    tag_473:\n        /* \"#utility.yul\":19619:20162   */\n      pop\n      pop\n      pop\n      jump\t// out\n        /* \"#utility.yul\":20168:20285   */\n    tag_274:\n        /* \"#utility.yul\":20222:20230   */\n      0x00\n        /* \"#utility.yul\":20272:20277   */\n      dup3\n        /* \"#utility.yul\":20266:20270   */\n      dup3\n        /* \"#utility.yul\":20262:20278   */\n      shr\n        /* \"#utility.yul\":20241:20278   */\n      swap1\n      pop\n        /* \"#utility.yul\":20168:20285   */\n      swap3\n      swap2\n      pop\n      pop\n      jump\t// out\n        /* \"#utility.yul\":20291:20460   */\n    tag_275:\n        /* \"#utility.yul\":20335:20341   */\n      0x00\n        /* \"#utility.yul\":20368:20419   */\n      tag_481\n        /* \"#utility.yul\":20416:20417   */\n      0x00\n        /* \"#utility.yul\":20412:20418   */\n      not\n        /* \"#utility.yul\":20404:20409   */\n      dup5\n        /* \"#utility.yul\":20401:20402   */\n      0x08\n        /* \"#utility.yul\":20397:20410   */\n      mul\n        /* \"#utility.yul\":20368:20419   */\n      tag_274\n      jump\t// in\n    tag_481:\n        /* \"#utility.yul\":20364:20420   */\n      not\n        /* \"#utility.yul\":20449:20453   */\n      dup1\n        /* \"#utility.yul\":20443:20447   */\n      dup4\n        /* \"#utility.yul\":20439:20454   */\n      and\n        /* \"#utility.yul\":20429:20454   */\n      swap2\n      pop\n        /* \"#utility.yul\":20342:20460   */\n      pop\n        /* \"#utility.yul\":20291:20460   */\n      swap3\n      swap2\n      pop\n      pop\n      jump\t// out\n        /* \"#utility.yul\":20465:20760   */\n    tag_276:\n        /* \"#utility.yul\":20541:20545   */\n      0x00\n        /* \"#utility.yul\":20687:20716   */\n      tag_483\n        /* \"#utility.yul\":20712:20715   */\n      dup4\n        /* \"#utility.yul\":20706:20710   */\n      dup4\n        /* \"#utility.yul\":20687:20716   */\n      tag_275\n      jump\t// in\n    tag_483:\n        /* \"#utility.yul\":20679:20716   */\n      swap2\n      pop\n        /* \"#utility.yul\":20749:20752   */\n      dup3\n        /* \"#utility.yul\":20746:20747   */\n      0x02\n        /* \"#utility.yul\":20742:20753   */\n      mul\n        /* \"#utility.yul\":20736:20740   */\n      dup3\n        /* \"#utility.yul\":20733:20754   */\n      or\n        /* \"#utility.yul\":20725:20754   */\n      swap1\n      pop\n        /* \"#utility.yul\":20465:20760   */\n      swap3\n      swap2\n      pop\n      pop\n      jump\t// out\n        /* \"#utility.yul\":20765:22160   */\n    tag_63:\n        /* \"#utility.yul\":20882:20919   */\n      tag_485\n        /* \"#utility.yul\":20915:20918   */\n      dup3\n        /* \"#utility.yul\":20882:20919   */\n      tag_242\n      jump\t// in\n    tag_485:\n        /* \"#utility.yul\":20984:21002   */\n      0xffffffffffffffff\n        /* \"#utility.yul\":20976:20982   */\n      dup2\n        /* \"#utility.yul\":20973:21003   */\n      gt\n        /* \"#utility.yul\":20970:21026   */\n      iszero\n      tag_486\n      jumpi\n        /* \"#utility.yul\":21006:21024   */\n      tag_487\n      tag_174\n      jump\t// in\n    tag_487:\n        /* \"#utility.yul\":20970:21026   */\n    tag_486:\n        /* \"#utility.yul\":21050:21088   */\n      tag_488\n        /* \"#utility.yul\":21082:21086   */\n      dup3\n        /* \"#utility.yul\":21076:21087   */\n      sload\n        /* \"#utility.yul\":21050:21088   */\n      tag_86\n      jump\t// in\n    tag_488:\n        /* \"#utility.yul\":21135:21202   */\n      tag_489\n        /* \"#utility.yul\":21195:21201   */\n      dup3\n        /* \"#utility.yul\":21187:21193   */\n      dup3\n        /* \"#utility.yul\":21181:21185   */\n      dup6\n        /* \"#utility.yul\":21135:21202   */\n      tag_273\n      jump\t// in\n    tag_489:\n        /* \"#utility.yul\":21229:21230   */\n      0x00\n        /* \"#utility.yul\":21253:21257   */\n      0x20\n        /* \"#utility.yul\":21240:21257   */\n      swap1\n      pop\n        /* \"#utility.yul\":21285:21287   */\n      0x1f\n        /* \"#utility.yul\":21277:21283   */\n      dup4\n        /* \"#utility.yul\":21274:21288   */\n      gt\n        /* \"#utility.yul\":21302:21303   */\n      0x01\n        /* \"#utility.yul\":21297:21915   */\n      dup2\n      eq\n      tag_491\n      jumpi\n        /* \"#utility.yul\":21959:21960   */\n      0x00\n        /* \"#utility.yul\":21976:21982   */\n      dup5\n        /* \"#utility.yul\":21973:22050   */\n      iszero\n      tag_492\n      jumpi\n        /* \"#utility.yul\":22025:22034   */\n      dup3\n        /* \"#utility.yul\":22020:22023   */\n      dup8\n        /* \"#utility.yul\":22016:22035   */\n      add\n        /* \"#utility.yul\":22010:22036   */\n      mload\n        /* \"#utility.yul\":22001:22036   */\n      swap1\n      pop\n        /* \"#utility.yul\":21973:22050   */\n    tag_492:\n        /* \"#utility.yul\":22076:22143   */\n      tag_493\n        /* \"#utility.yul\":22136:22142   */\n      dup6\n        /* \"#utility.yul\":22129:22134   */\n      dup3\n        /* \"#utility.yul\":22076:22143   */\n      tag_276\n      jump\t// in\n    tag_493:\n        /* \"#utility.yul\":22070:22074   */\n      dup7\n        /* \"#utility.yul\":22063:22144   */\n      sstore\n        /* \"#utility.yul\":21932:22154   */\n      pop\n        /* \"#utility.yul\":21267:22154   */\n      jump(tag_490)\n        /* \"#utility.yul\":21297:21915   */\n    tag_491:\n        /* \"#utility.yul\":21349:21353   */\n      0x1f\n        /* \"#utility.yul\":21345:21354   */\n      not\n        /* \"#utility.yul\":21337:21343   */\n      dup5\n        /* \"#utility.yul\":21333:21355   */\n      and\n        /* \"#utility.yul\":21383:21420   */\n      tag_494\n        /* \"#utility.yul\":21415:21419   */\n      dup7\n        /* \"#utility.yul\":21383:21420   */\n      tag_262\n      jump\t// in\n    tag_494:\n        /* \"#utility.yul\":21442:21443   */\n      0x00\n        /* \"#utility.yul\":21456:21664   */\n    tag_495:\n        /* \"#utility.yul\":21470:21477   */\n      dup3\n        /* \"#utility.yul\":21467:21468   */\n      dup2\n        /* \"#utility.yul\":21464:21478   */\n      lt\n        /* \"#utility.yul\":21456:21664   */\n      iszero\n      tag_497\n      jumpi\n        /* \"#utility.yul\":21549:21558   */\n      dup5\n        /* \"#utility.yul\":21544:21547   */\n      dup10\n        /* \"#utility.yul\":21540:21559   */\n      add\n        /* \"#utility.yul\":21534:21560   */\n      mload\n        /* \"#utility.yul\":21526:21532   */\n      dup3\n        /* \"#utility.yul\":21519:21561   */\n      sstore\n        /* \"#utility.yul\":21600:21601   */\n      0x01\n        /* \"#utility.yul\":21592:21598   */\n      dup3\n        /* \"#utility.yul\":21588:21602   */\n      add\n        /* \"#utility.yul\":21578:21602   */\n      swap2\n      pop\n        /* \"#utility.yul\":21647:21649   */\n      0x20\n        /* \"#utility.yul\":21636:21645   */\n      dup6\n        /* \"#utility.yul\":21632:21650   */\n      add\n        /* \"#utility.yul\":21619:21650   */\n      swap5\n      pop\n        /* \"#utility.yul\":21493:21497   */\n      0x20\n        /* \"#utility.yul\":21490:21491   */\n      dup2\n        /* \"#utility.yul\":21486:21498   */\n      add\n        /* \"#utility.yul\":21481:21498   */\n      swap1\n      pop\n        /* \"#utility.yul\":21456:21664   */\n      jump(tag_495)\n    tag_497:\n        /* \"#utility.yul\":21692:21698   */\n      dup7\n        /* \"#utility.yul\":21683:21690   */\n      dup4\n        /* \"#utility.yul\":21680:21699   */\n      lt\n        /* \"#utility.yul\":21677:21856   */\n      iszero\n      tag_498\n      jumpi\n        /* \"#utility.yul\":21750:21759   */\n      dup5\n        /* \"#utility.yul\":21745:21748   */\n      dup10\n        /* \"#utility.yul\":21741:21760   */\n      add\n        /* \"#utility.yul\":21735:21761   */\n      mload\n        /* \"#utility.yul\":21793:21841   */\n      tag_499\n        /* \"#utility.yul\":21835:21839   */\n      0x1f\n        /* \"#utility.yul\":21827:21833   */\n      dup10\n        /* \"#utility.yul\":21823:21840   */\n      and\n        /* \"#utility.yul\":21812:21821   */\n      dup3\n        /* \"#utility.yul\":21793:21841   */\n      tag_275\n      jump\t// in\n    tag_499:\n        /* \"#utility.yul\":21785:21791   */\n      dup4\n        /* \"#utility.yul\":21778:21842   */\n      sstore\n        /* \"#utility.yul\":21700:21856   */\n      pop\n        /* \"#utility.yul\":21677:21856   */\n    tag_498:\n        /* \"#utility.yul\":21902:21903   */\n      0x01\n        /* \"#utility.yul\":21898:21899   */\n      0x02\n        /* \"#utility.yul\":21890:21896   */\n      dup9\n        /* \"#utility.yul\":21886:21900   */\n      mul\n        /* \"#utility.yul\":21882:21904   */\n      add\n        /* \"#utility.yul\":21876:21880   */\n      dup9\n        /* \"#utility.yul\":21869:21905   */\n      sstore\n        /* \"#utility.yul\":21304:21915   */\n      pop\n      pop\n      pop\n        /* \"#utility.yul\":21267:22154   */\n    tag_490:\n      pop\n        /* \"#utility.yul\":20857:22160   */\n      pop\n      pop\n      pop\n        /* \"#utility.yul\":20765:22160   */\n      pop\n      pop\n      jump\t// out\n        /* \"#utility.yul\":22166:22388   */\n    tag_277:\n        /* \"#utility.yul\":22306:22340   */\n      0x4f6e6c792073747564656e742063616e2063616c6c20746869732066756e6374\n        /* \"#utility.yul\":22302:22303   */\n      0x00\n        /* \"#utility.yul\":22294:22300   */\n      dup3\n        /* \"#utility.yul\":22290:22304   */\n      add\n        /* \"#utility.yul\":22283:22341   */\n      mstore\n        /* \"#utility.yul\":22375:22380   */\n      0x696f6e0000000000000000000000000000000000000000000000000000000000\n        /* \"#utility.yul\":22370:22372   */\n      0x20\n        /* \"#utility.yul\":22362:22368   */\n      dup3\n        /* \"#utility.yul\":22358:22373   */\n      add\n        /* \"#utility.yul\":22351:22381   */\n      mstore\n        /* \"#utility.yul\":22166:22388   */\n      pop\n      jump\t// out\n        /* \"#utility.yul\":22394:22760   */\n    tag_278:\n        /* \"#utility.yul\":22536:22539   */\n      0x00\n        /* \"#utility.yul\":22557:22624   */\n      tag_502\n        /* \"#utility.yul\":22621:22623   */\n      0x23\n        /* \"#utility.yul\":22616:22619   */\n      dup4\n        /* \"#utility.yul\":22557:22624   */\n      tag_243\n      jump\t// in\n    tag_502:\n        /* \"#utility.yul\":22550:22624   */\n      swap2\n      pop\n        /* \"#utility.yul\":22633:22726   */\n      tag_503\n        /* \"#utility.yul\":22722:22725   */\n      dup3\n        /* \"#utility.yul\":22633:22726   */\n      tag_277\n      jump\t// in\n    tag_503:\n        /* \"#utility.yul\":22751:22753   */\n      0x40\n        /* \"#utility.yul\":22746:22749   */\n      dup3\n        /* \"#utility.yul\":22742:22754   */\n      add\n        /* \"#utility.yul\":22735:22754   */\n      swap1\n      pop\n        /* \"#utility.yul\":22394:22760   */\n      swap2\n      swap1\n      pop\n      jump\t// out\n        /* \"#utility.yul\":22766:23185   */\n    tag_73:\n        /* \"#utility.yul\":22932:22936   */\n      0x00\n        /* \"#utility.yul\":22970:22972   */\n      0x20\n        /* \"#utility.yul\":22959:22968   */\n      dup3\n        /* \"#utility.yul\":22955:22973   */\n      add\n        /* \"#utility.yul\":22947:22973   */\n      swap1\n      pop\n        /* \"#utility.yul\":23019:23028   */\n      dup2\n        /* \"#utility.yul\":23013:23017   */\n      dup2\n        /* \"#utility.yul\":23009:23029   */\n      sub\n        /* \"#utility.yul\":23005:23006   */\n      0x00\n        /* \"#utility.yul\":22994:23003   */\n      dup4\n        /* \"#utility.yul\":22990:23007   */\n      add\n        /* \"#utility.yul\":22983:23030   */\n      mstore\n        /* \"#utility.yul\":23047:23178   */\n      tag_505\n        /* \"#utility.yul\":23173:23177   */\n      dup2\n        /* \"#utility.yul\":23047:23178   */\n      tag_278\n      jump\t// in\n    tag_505:\n        /* \"#utility.yul\":23039:23178   */\n      swap1\n      pop\n        /* \"#utility.yul\":22766:23185   */\n      swap2\n      swap1\n      pop\n      jump\t// out\n        /* \"#utility.yul\":23191:23371   */\n    tag_279:\n        /* \"#utility.yul\":23239:23316   */\n      0x4e487b7100000000000000000000000000000000000000000000000000000000\n        /* \"#utility.yul\":23236:23237   */\n      0x00\n        /* \"#utility.yul\":23229:23317   */\n      mstore\n        /* \"#utility.yul\":23336:23340   */\n      0x11\n        /* \"#utility.yul\":23333:23334   */\n      0x04\n        /* \"#utility.yul\":23326:23341   */\n      mstore\n        /* \"#utility.yul\":23360:23364   */\n      0x24\n        /* \"#utility.yul\":23357:23358   */\n      0x00\n        /* \"#utility.yul\":23350:23365   */\n      revert\n        /* \"#utility.yul\":23377:23568   */\n    tag_76:\n        /* \"#utility.yul\":23417:23420   */\n      0x00\n        /* \"#utility.yul\":23436:23456   */\n      tag_508\n        /* \"#utility.yul\":23454:23455   */\n      dup3\n        /* \"#utility.yul\":23436:23456   */\n      tag_239\n      jump\t// in\n    tag_508:\n        /* \"#utility.yul\":23431:23456   */\n      swap2\n      pop\n        /* \"#utility.yul\":23470:23490   */\n      tag_509\n        /* \"#utility.yul\":23488:23489   */\n      dup4\n        /* \"#utility.yul\":23470:23490   */\n      tag_239\n      jump\t// in\n    tag_509:\n        /* \"#utility.yul\":23465:23490   */\n      swap3\n      pop\n        /* \"#utility.yul\":23513:23514   */\n      dup3\n        /* \"#utility.yul\":23510:23511   */\n      dup3\n        /* \"#utility.yul\":23506:23515   */\n      add\n        /* \"#utility.yul\":23499:23515   */\n      swap1\n      pop\n        /* \"#utility.yul\":23534:23537   */\n      dup1\n        /* \"#utility.yul\":23531:23532   */\n      dup3\n        /* \"#utility.yul\":23528:23538   */\n      gt\n        /* \"#utility.yul\":23525:23561   */\n      iszero\n      tag_510\n      jumpi\n        /* \"#utility.yul\":23541:23559   */\n      tag_511\n      tag_279\n      jump\t// in\n    tag_511:\n        /* \"#utility.yul\":23525:23561   */\n    tag_510:\n        /* \"#utility.yul\":23377:23568   */\n      swap3\n      swap2\n      pop\n      pop\n      jump\t// out\n        /* \"#utility.yul\":23574:23807   */\n    tag_280:\n        /* \"#utility.yul\":23714:23748   */\n      0x4f6e6c7920617574686f72697a656420766965776572732063616e2063616c6c\n        /* \"#utility.yul\":23710:23711   */\n      0x00\n        /* \"#utility.yul\":23702:23708   */\n      dup3\n        /* \"#utility.yul\":23698:23712   */\n      add\n        /* \"#utility.yul\":23691:23749   */\n      mstore\n        /* \"#utility.yul\":23783:23799   */\n      0x20746869732066756e6374696f6e000000000000000000000000000000000000\n        /* \"#utility.yul\":23778:23780   */\n      0x20\n        /* \"#utility.yul\":23770:23776   */\n      dup3\n        /* \"#utility.yul\":23766:23781   */\n      add\n        /* \"#utility.yul\":23759:23800   */\n      mstore\n        /* \"#utility.yul\":23574:23807   */\n      pop\n      jump\t// out\n        /* \"#utility.yul\":23813:24179   */\n    tag_281:\n        /* \"#utility.yul\":23955:23958   */\n      0x00\n        /* \"#utility.yul\":23976:24043   */\n      tag_514\n        /* \"#utility.yul\":24040:24042   */\n      0x2e\n        /* \"#utility.yul\":24035:24038   */\n      dup4\n        /* \"#utility.yul\":23976:24043   */\n      tag_243\n      jump\t// in\n    tag_514:\n        /* \"#utility.yul\":23969:24043   */\n      swap2\n      pop\n        /* \"#utility.yul\":24052:24145   */\n      tag_515\n        /* \"#utility.yul\":24141:24144   */\n      dup3\n        /* \"#utility.yul\":24052:24145   */\n      tag_280\n      jump\t// in\n    tag_515:\n        /* \"#utility.yul\":24170:24172   */\n      0x40\n        /* \"#utility.yul\":24165:24168   */\n      dup3\n        /* \"#utility.yul\":24161:24173   */\n      add\n        /* \"#utility.yul\":24154:24173   */\n      swap1\n      pop\n        /* \"#utility.yul\":23813:24179   */\n      swap2\n      swap1\n      pop\n      jump\t// out\n        /* \"#utility.yul\":24185:24604   */\n    tag_80:\n        /* \"#utility.yul\":24351:24355   */\n      0x00\n        /* \"#utility.yul\":24389:24391   */\n      0x20\n        /* \"#utility.yul\":24378:24387   */\n      dup3\n        /* \"#utility.yul\":24374:24392   */\n      add\n        /* \"#utility.yul\":24366:24392   */\n      swap1\n      pop\n        /* \"#utility.yul\":24438:24447   */\n      dup2\n        /* \"#utility.yul\":24432:24436   */\n      dup2\n        /* \"#utility.yul\":24428:24448   */\n      sub\n        /* \"#utility.yul\":24424:24425   */\n      0x00\n        /* \"#utility.yul\":24413:24422   */\n      dup4\n        /* \"#utility.yul\":24409:24426   */\n      add\n        /* \"#utility.yul\":24402:24449   */\n      mstore\n        /* \"#utility.yul\":24466:24597   */\n      tag_517\n        /* \"#utility.yul\":24592:24596   */\n      dup2\n        /* \"#utility.yul\":24466:24597   */\n      tag_281\n      jump\t// in\n    tag_517:\n        /* \"#utility.yul\":24458:24597   */\n      swap1\n      pop\n        /* \"#utility.yul\":24185:24604   */\n      swap2\n      swap1\n      pop\n      jump\t// out\n        /* \"#utility.yul\":24610:24831   */\n    tag_282:\n        /* \"#utility.yul\":24750:24784   */\n      0x53747564656e74206e6f7420666f756e64206f7220756e617574686f72697a65\n        /* \"#utility.yul\":24746:24747   */\n      0x00\n        /* \"#utility.yul\":24738:24744   */\n      dup3\n        /* \"#utility.yul\":24734:24748   */\n      add\n        /* \"#utility.yul\":24727:24785   */\n      mstore\n        /* \"#utility.yul\":24819:24823   */\n      0x642e000000000000000000000000000000000000000000000000000000000000\n        /* \"#utility.yul\":24814:24816   */\n      0x20\n        /* \"#utility.yul\":24806:24812   */\n      dup3\n        /* \"#utility.yul\":24802:24817   */\n      add\n        /* \"#utility.yul\":24795:24824   */\n      mstore\n        /* \"#utility.yul\":24610:24831   */\n      pop\n      jump\t// out\n        /* \"#utility.yul\":24837:25203   */\n    tag_283:\n        /* \"#utility.yul\":24979:24982   */\n      0x00\n        /* \"#utility.yul\":25000:25067   */\n      tag_520\n        /* \"#utility.yul\":25064:25066   */\n      0x22\n        /* \"#utility.yul\":25059:25062   */\n      dup4\n        /* \"#utility.yul\":25000:25067   */\n      tag_243\n      jump\t// in\n    tag_520:\n        /* \"#utility.yul\":24993:25067   */\n      swap2\n      pop\n        /* \"#utility.yul\":25076:25169   */\n      tag_521\n        /* \"#utility.yul\":25165:25168   */\n      dup3\n        /* \"#utility.yul\":25076:25169   */\n      tag_282\n      jump\t// in\n    tag_521:\n        /* \"#utility.yul\":25194:25196   */\n      0x40\n        /* \"#utility.yul\":25189:25192   */\n      dup3\n        /* \"#utility.yul\":25185:25197   */\n      add\n        /* \"#utility.yul\":25178:25197   */\n      swap1\n      pop\n        /* \"#utility.yul\":24837:25203   */\n      swap2\n      swap1\n      pop\n      jump\t// out\n        /* \"#utility.yul\":25209:25628   */\n    tag_84:\n        /* \"#utility.yul\":25375:25379   */\n      0x00\n        /* \"#utility.yul\":25413:25415   */\n      0x20\n        /* \"#utility.yul\":25402:25411   */\n      dup3\n        /* \"#utility.yul\":25398:25416   */\n      add\n        /* \"#utility.yul\":25390:25416   */\n      swap1\n      pop\n        /* \"#utility.yul\":25462:25471   */\n      dup2\n        /* \"#utility.yul\":25456:25460   */\n      dup2\n        /* \"#utility.yul\":25452:25472   */\n      sub\n        /* \"#utility.yul\":25448:25449   */\n      0x00\n        /* \"#utility.yul\":25437:25446   */\n      dup4\n        /* \"#utility.yul\":25433:25450   */\n      add\n        /* \"#utility.yul\":25426:25473   */\n      mstore\n        /* \"#utility.yul\":25490:25621   */\n      tag_523\n        /* \"#utility.yul\":25616:25620   */\n      dup2\n        /* \"#utility.yul\":25490:25621   */\n      tag_283\n      jump\t// in\n    tag_523:\n        /* \"#utility.yul\":25482:25621   */\n      swap1\n      pop\n        /* \"#utility.yul\":25209:25628   */\n      swap2\n      swap1\n      pop\n      jump\t// out\n        /* \"#utility.yul\":25634:25865   */\n    tag_284:\n        /* \"#utility.yul\":25774:25808   */\n      0x596f7520617265206e6f7420617574686f72697a656420746f2072756e207468\n        /* \"#utility.yul\":25770:25771   */\n      0x00\n        /* \"#utility.yul\":25762:25768   */\n      dup3\n        /* \"#utility.yul\":25758:25772   */\n      add\n        /* \"#utility.yul\":25751:25809   */\n      mstore\n        /* \"#utility.yul\":25843:25857   */\n      0x69732066756e6374696f6e2e0000000000000000000000000000000000000000\n        /* \"#utility.yul\":25838:25840   */\n      0x20\n        /* \"#utility.yul\":25830:25836   */\n      dup3\n        /* \"#utility.yul\":25826:25841   */\n      add\n        /* \"#utility.yul\":25819:25858   */\n      mstore\n        /* \"#utility.yul\":25634:25865   */\n      pop\n      jump\t// out\n        /* \"#utility.yul\":25871:26237   */\n    tag_285:\n        /* \"#utility.yul\":26013:26016   */\n      0x00\n        /* \"#utility.yul\":26034:26101   */\n      tag_526\n        /* \"#utility.yul\":26098:26100   */\n      0x2c\n        /* \"#utility.yul\":26093:26096   */\n      dup4\n        /* \"#utility.yul\":26034:26101   */\n      tag_243\n      jump\t// in\n    tag_526:\n        /* \"#utility.yul\":26027:26101   */\n      swap2\n      pop\n        /* \"#utility.yul\":26110:26203   */\n      tag_527\n        /* \"#utility.yul\":26199:26202   */\n      dup3\n        /* \"#utility.yul\":26110:26203   */\n      tag_284\n      jump\t// in\n    tag_527:\n        /* \"#utility.yul\":26228:26230   */\n      0x40\n        /* \"#utility.yul\":26223:26226   */\n      dup3\n        /* \"#utility.yul\":26219:26231   */\n      add\n        /* \"#utility.yul\":26212:26231   */\n      swap1\n      pop\n        /* \"#utility.yul\":25871:26237   */\n      swap2\n      swap1\n      pop\n      jump\t// out\n        /* \"#utility.yul\":26243:26662   */\n    tag_109:\n        /* \"#utility.yul\":26409:26413   */\n      0x00\n        /* \"#utility.yul\":26447:26449   */\n      0x20\n        /* \"#utility.yul\":26436:26445   */\n      dup3\n        /* \"#utility.yul\":26432:26450   */\n      add\n        /* \"#utility.yul\":26424:26450   */\n      swap1\n      pop\n        /* \"#utility.yul\":26496:26505   */\n      dup2\n        /* \"#utility.yul\":26490:26494   */\n      dup2\n        /* \"#utility.yul\":26486:26506   */\n      sub\n        /* \"#utility.yul\":26482:26483   */\n      0x00\n        /* \"#utility.yul\":26471:26480   */\n      dup4\n        /* \"#utility.yul\":26467:26484   */\n      add\n        /* \"#utility.yul\":26460:26507   */\n      mstore\n        /* \"#utility.yul\":26524:26655   */\n      tag_529\n        /* \"#utility.yul\":26650:26654   */\n      dup2\n        /* \"#utility.yul\":26524:26655   */\n      tag_285\n      jump\t// in\n    tag_529:\n        /* \"#utility.yul\":26516:26655   */\n      swap1\n      pop\n        /* \"#utility.yul\":26243:26662   */\n      swap2\n      swap1\n      pop\n      jump\t// out\n        /* \"#utility.yul\":26668:26848   */\n    tag_184:\n        /* \"#utility.yul\":26716:26793   */\n      0x4e487b7100000000000000000000000000000000000000000000000000000000\n        /* \"#utility.yul\":26713:26714   */\n      0x00\n        /* \"#utility.yul\":26706:26794   */\n      mstore\n        /* \"#utility.yul\":26813:26817   */\n      0x32\n        /* \"#utility.yul\":26810:26811   */\n      0x04\n        /* \"#utility.yul\":26803:26818   */\n      mstore\n        /* \"#utility.yul\":26837:26841   */\n      0x24\n        /* \"#utility.yul\":26834:26835   */\n      0x00\n        /* \"#utility.yul\":26827:26842   */\n      revert\n        /* \"#utility.yul\":26854:27087   */\n    tag_209:\n        /* \"#utility.yul\":26893:26896   */\n      0x00\n        /* \"#utility.yul\":26916:26940   */\n      tag_532\n        /* \"#utility.yul\":26934:26939   */\n      dup3\n        /* \"#utility.yul\":26916:26940   */\n      tag_239\n      jump\t// in\n    tag_532:\n        /* \"#utility.yul\":26907:26940   */\n      swap2\n      pop\n        /* \"#utility.yul\":26962:27028   */\n      0xffffffffffffffffffffffffffffffffffffffffffffffffffffffffffffffff\n        /* \"#utility.yul\":26955:26960   */\n      dup3\n        /* \"#utility.yul\":26952:27029   */\n      sub\n        /* \"#utility.yul\":26949:27052   */\n      tag_533\n      jumpi\n        /* \"#utility.yul\":27032:27050   */\n      tag_534\n      tag_279\n      jump\t// in\n    tag_534:\n        /* \"#utility.yul\":26949:27052   */\n    tag_533:\n        /* \"#utility.yul\":27079:27080   */\n      0x01\n        /* \"#utility.yul\":27072:27077   */\n      dup3\n        /* \"#utility.yul\":27068:27081   */\n      add\n        /* \"#utility.yul\":27061:27081   */\n      swap1\n      pop\n        /* \"#utility.yul\":26854:27087   */\n      swap2\n      swap1\n      pop\n      jump\t// out\n\n    auxdata: 0xa264697066735822122089e9ff3b3d86cc3414ca8fd1ec2e025344945499bea7618ec7e0b751def6811364736f6c63430008120033\n}\n",
				"bytecode": {
					"linkReferences": {},
					"object": "608060405234801561001057600080fd5b5060018060003373ffffffffffffffffffffffffffffffffffffffff1673ffffffffffffffffffffffffffffffffffffffff16815260200190815260200160002060006101000a81548160ff021916908315150217905550612600806100776000396000f3fe608060405234801561001057600080fd5b506004361061009e5760003560e01c80639da60e49116100665780639da60e491461014b578063ae15eb8e1461017f578063b05e0626146101a0578063e9dd92ee146101be578063f731fa0f146101da5761009e565b806303825d6c146100a35780631785f53c146100bf5780631b1d639d146100db57806364dbbaa2146100f75780636e9960c31461012b575b600080fd5b6100bd60048036038101906100b8919061191a565b61020a565b005b6100d960048036038101906100d491906119d5565b61036d565b005b6100f560048036038101906100f09190611a38565b610454565b005b610111600480360381019061010c91906119d5565b610594565b604051610122959493929190611b06565b60405180910390f35b610133610950565b60405161014293929190611b75565b60405180910390f35b61016560048036038101906101609190611bc1565b610be0565b604051610176959493929190611b06565b60405180910390f35b610187610e46565b6040516101979493929190611bee565b60405180910390f35b6101a86111be565b6040516101b59190611df5565b60405180910390f35b6101d860048036038101906101d39190611e17565b6114e5565b005b6101f460048036038101906101ef91906119d5565b611713565b6040516102019190611f1d565b60405180910390f35b600160003373ffffffffffffffffffffffffffffffffffffffff1673ffffffffffffffffffffffffffffffffffffffff16815260200190815260200160002060009054906101000a900460ff16610296576040517f08c379a000000000000000000000000000000000000000000000000000000000815260040161028d90611faa565b60405180910390fd5b60018060008673ffffffffffffffffffffffffffffffffffffffff1673ffffffffffffffffffffffffffffffffffffffff16815260200190815260200160002060006101000a81548160ff0219169083151502179055506000600560008673ffffffffffffffffffffffffffffffffffffffff1673ffffffffffffffffffffffffffffffffffffffff16815260200190815260200160002090508381600001908161034191906121d6565b508281600101908161035391906121d6565b508181600201908161036591906121d6565b505050505050565b600160003373ffffffffffffffffffffffffffffffffffffffff1673ffffffffffffffffffffffffffffffffffffffff16815260200190815260200160002060009054906101000a900460ff166103f9576040517f08c379a00000000000000000000000000000000000000000000000000000000081526004016103f090611faa565b60405180910390fd5b6000600160008373ffffffffffffffffffffffffffffffffffffffff1673ffffffffffffffffffffffffffffffffffffffff16815260200190815260200160002060006101000a81548160ff02191690831515021790555050565b600360003373ffffffffffffffffffffffffffffffffffffffff1673ffffffffffffffffffffffffffffffffffffffff16815260200190815260200160002060009054906101000a900460ff166104e0576040517f08c379a00000000000000000000000000000000000000000000000000000000081526004016104d79061231a565b60405180910390fd5b6000600460003373ffffffffffffffffffffffffffffffffffffffff1673ffffffffffffffffffffffffffffffffffffffff1681526020019081526020016000209050814261052f9190612369565b81600401819055506001600260008573ffffffffffffffffffffffffffffffffffffffff1673ffffffffffffffffffffffffffffffffffffffff16815260200190815260200160002060006101000a81548160ff021916908315150217905550505050565b6060806060806000600260003373ffffffffffffffffffffffffffffffffffffffff1673ffffffffffffffffffffffffffffffffffffffff16815260200190815260200160002060009054906101000a900460ff16610628576040517f08c379a000000000000000000000000000000000000000000000000000000000815260040161061f9061240f565b60405180910390fd5b600360008773ffffffffffffffffffffffffffffffffffffffff1673ffffffffffffffffffffffffffffffffffffffff16815260200190815260200160002060009054906101000a900460ff166106b4576040517f08c379a00000000000000000000000000000000000000000000000000000000081526004016106ab906124a1565b60405180910390fd5b6000600460008873ffffffffffffffffffffffffffffffffffffffff1673ffffffffffffffffffffffffffffffffffffffff168152602001908152602001600020905080600001816001018260020183600301846004015484805461071890611ff9565b80601f016020809104026020016040519081016040528092919081815260200182805461074490611ff9565b80156107915780601f1061076657610100808354040283529160200191610791565b820191906000526020600020905b81548152906001019060200180831161077457829003601f168201915b505050505094508380546107a490611ff9565b80601f01602080910402602001604051908101604052809291908181526020018280546107d090611ff9565b801561081d5780601f106107f25761010080835404028352916020019161081d565b820191906000526020600020905b81548152906001019060200180831161080057829003601f168201915b5050505050935082805461083090611ff9565b80601f016020809104026020016040519081016040528092919081815260200182805461085c90611ff9565b80156108a95780601f1061087e576101008083540402835291602001916108a9565b820191906000526020600020905b81548152906001019060200180831161088c57829003601f168201915b505050505092508180546108bc90611ff9565b80601f01602080910402602001604051908101604052809291908181526020018280546108e890611ff9565b80156109355780601f1061090a57610100808354040283529160200191610935565b820191906000526020600020905b81548152906001019060200180831161091857829003601f168201915b50505050509150955095509550955095505091939590929450565b6060806060600160003373ffffffffffffffffffffffffffffffffffffffff1673ffffffffffffffffffffffffffffffffffffffff16815260200190815260200160002060009054906101000a900460ff166109e1576040517f08c379a00000000000000000000000000000000000000000000000000000000081526004016109d890612533565b60405180910390fd5b6000600560003373ffffffffffffffffffffffffffffffffffffffff1673ffffffffffffffffffffffffffffffffffffffff1681526020019081526020016000209050806000018160010182600201828054610a3c90611ff9565b80601f0160208091040260200160405190810160405280929190818152602001828054610a6890611ff9565b8015610ab55780601f10610a8a57610100808354040283529160200191610ab5565b820191906000526020600020905b815481529060010190602001808311610a9857829003601f168201915b50505050509250818054610ac890611ff9565b80601f0160208091040260200160405190810160405280929190818152602001828054610af490611ff9565b8015610b415780601f10610b1657610100808354040283529160200191610b41565b820191906000526020600020905b815481529060010190602001808311610b2457829003601f168201915b50505050509150808054610b5490611ff9565b80601f0160208091040260200160405190810160405280929190818152602001828054610b8090611ff9565b8015610bcd5780601f10610ba257610100808354040283529160200191610bcd565b820191906000526020600020905b815481529060010190602001808311610bb057829003601f168201915b5050505050905093509350935050909192565b60008181548110610bf057600080fd5b9060005260206000209060050201600091509050806000018054610c1390611ff9565b80601f0160208091040260200160405190810160405280929190818152602001828054610c3f90611ff9565b8015610c8c5780601f10610c6157610100808354040283529160200191610c8c565b820191906000526020600020905b815481529060010190602001808311610c6f57829003601f168201915b505050505090806001018054610ca190611ff9565b80601f0160208091040260200160405190810160405280929190818152602001828054610ccd90611ff9565b8015610d1a5780601f10610cef57610100808354040283529160200191610d1a565b820191906000526020600020905b815481529060010190602001808311610cfd57829003601f168201915b505050505090806002018054610d2f90611ff9565b80601f0160208091040260200160405190810160405280929190818152602001828054610d5b90611ff9565b8015610da85780601f10610d7d57610100808354040283529160200191610da8565b820191906000526020600020905b815481529060010190602001808311610d8b57829003601f168201915b505050505090806003018054610dbd90611ff9565b80601f0160208091040260200160405190810160405280929190818152602001828054610de990611ff9565b8015610e365780601f10610e0b57610100808354040283529160200191610e36565b820191906000526020600020905b815481529060010190602001808311610e1957829003601f168201915b5050505050908060040154905085565b606080606080600360003373ffffffffffffffffffffffffffffffffffffffff1673ffffffffffffffffffffffffffffffffffffffff16815260200190815260200160002060009054906101000a900460ff1680610eed5750600160003373ffffffffffffffffffffffffffffffffffffffff1673ffffffffffffffffffffffffffffffffffffffff16815260200190815260200160002060009054906101000a900460ff165b610f2c576040517f08c379a0000000000000000000000000000000000000000000000000000000008152600401610f2390612533565b60405180910390fd5b6000600460003373ffffffffffffffffffffffffffffffffffffffff1673ffffffffffffffffffffffffffffffffffffffff168152602001908152602001600020905080600001816001018260020183600301838054610f8b90611ff9565b80601f0160208091040260200160405190810160405280929190818152602001828054610fb790611ff9565b80156110045780601f10610fd957610100808354040283529160200191611004565b820191906000526020600020905b815481529060010190602001808311610fe757829003601f168201915b5050505050935082805461101790611ff9565b80601f016020809104026020016040519081016040528092919081815260200182805461104390611ff9565b80156110905780601f1061106557610100808354040283529160200191611090565b820191906000526020600020905b81548152906001019060200180831161107357829003601f168201915b505050505092508180546110a390611ff9565b80601f01602080910402602001604051908101604052809291908181526020018280546110cf90611ff9565b801561111c5780601f106110f15761010080835404028352916020019161111c565b820191906000526020600020905b8154815290600101906020018083116110ff57829003601f168201915b5050505050915080805461112f90611ff9565b80601f016020809104026020016040519081016040528092919081815260200182805461115b90611ff9565b80156111a85780601f1061117d576101008083540402835291602001916111a8565b820191906000526020600020905b81548152906001019060200180831161118b57829003601f168201915b5050505050905094509450945094505090919293565b606060008080549050905060008167ffffffffffffffff8111156111e5576111e46117ef565b5b60405190808252806020026020018201604052801561121e57816020015b61120b611733565b8152602001906001900390816112035790505b50905060005b828110156114dc57600081815481106112405761123f612553565b5b90600052602060002090600502016040518060a001604052908160008201805461126990611ff9565b80601f016020809104026020016040519081016040528092919081815260200182805461129590611ff9565b80156112e25780601f106112b7576101008083540402835291602001916112e2565b820191906000526020600020905b8154815290600101906020018083116112c557829003601f168201915b505050505081526020016001820180546112fb90611ff9565b80601f016020809104026020016040519081016040528092919081815260200182805461132790611ff9565b80156113745780601f1061134957610100808354040283529160200191611374565b820191906000526020600020905b81548152906001019060200180831161135757829003601f168201915b5050505050815260200160028201805461138d90611ff9565b80601f01602080910402602001604051908101604052809291908181526020018280546113b990611ff9565b80156114065780601f106113db57610100808354040283529160200191611406565b820191906000526020600020905b8154815290600101906020018083116113e957829003601f168201915b5050505050815260200160038201805461141f90611ff9565b80601f016020809104026020016040519081016040528092919081815260200182805461144b90611ff9565b80156114985780601f1061146d57610100808354040283529160200191611498565b820191906000526020600020905b81548152906001019060200180831161147b57829003601f168201915b505050505081526020016004820154815250508282815181106114be576114bd612553565b5b602002602001018190525080806114d490612582565b915050611224565b50809250505090565b600160003373ffffffffffffffffffffffffffffffffffffffff1673ffffffffffffffffffffffffffffffffffffffff16815260200190815260200160002060009054906101000a900460ff16611571576040517f08c379a000000000000000000000000000000000000000000000000000000000815260040161156890611faa565b60405180910390fd5b6001600360008773ffffffffffffffffffffffffffffffffffffffff1673ffffffffffffffffffffffffffffffffffffffff16815260200190815260200160002060006101000a81548160ff0219169083151502179055506000600460008773ffffffffffffffffffffffffffffffffffffffff1673ffffffffffffffffffffffffffffffffffffffff16815260200190815260200160002090508481600001908161161d91906121d6565b508381600101908161162f91906121d6565b508281600201908161164191906121d6565b508181600301908161165391906121d6565b5060006040518060a001604052808781526020018681526020018581526020018481526020016000815250908060018154018082558091505060019003906000526020600020906005020160009091909190915060008201518160000190816116bc91906121d6565b5060208201518160010190816116d291906121d6565b5060408201518160020190816116e891906121d6565b5060608201518160030190816116fe91906121d6565b50608082015181600401555050505050505050565b60016020528060005260406000206000915054906101000a900460ff1681565b6040518060a0016040528060608152602001606081526020016060815260200160608152602001600081525090565b6000604051905090565b600080fd5b600080fd5b600073ffffffffffffffffffffffffffffffffffffffff82169050919050565b60006117a182611776565b9050919050565b6117b181611796565b81146117bc57600080fd5b50565b6000813590506117ce816117a8565b92915050565b600080fd5b600080fd5b6000601f19601f8301169050919050565b7f4e487b7100000000000000000000000000000000000000000000000000000000600052604160045260246000fd5b611827826117de565b810181811067ffffffffffffffff82111715611846576118456117ef565b5b80604052505050565b6000611859611762565b9050611865828261181e565b919050565b600067ffffffffffffffff821115611885576118846117ef565b5b61188e826117de565b9050602081019050919050565b82818337600083830152505050565b60006118bd6118b88461186a565b61184f565b9050828152602081018484840111156118d9576118d86117d9565b5b6118e484828561189b565b509392505050565b600082601f830112611901576119006117d4565b5b81356119118482602086016118aa565b91505092915050565b600080600080608085870312156119345761193361176c565b5b6000611942878288016117bf565b945050602085013567ffffffffffffffff81111561196357611962611771565b5b61196f878288016118ec565b935050604085013567ffffffffffffffff8111156119905761198f611771565b5b61199c878288016118ec565b925050606085013567ffffffffffffffff8111156119bd576119bc611771565b5b6119c9878288016118ec565b91505092959194509250565b6000602082840312156119eb576119ea61176c565b5b60006119f9848285016117bf565b91505092915050565b6000819050919050565b611a1581611a02565b8114611a2057600080fd5b50565b600081359050611a3281611a0c565b92915050565b60008060408385031215611a4f57611a4e61176c565b5b6000611a5d858286016117bf565b9250506020611a6e85828601611a23565b9150509250929050565b600081519050919050565b600082825260208201905092915050565b60005b83811015611ab2578082015181840152602081019050611a97565b60008484015250505050565b6000611ac982611a78565b611ad38185611a83565b9350611ae3818560208601611a94565b611aec816117de565b840191505092915050565b611b0081611a02565b82525050565b600060a0820190508181036000830152611b208188611abe565b90508181036020830152611b348187611abe565b90508181036040830152611b488186611abe565b90508181036060830152611b5c8185611abe565b9050611b6b6080830184611af7565b9695505050505050565b60006060820190508181036000830152611b8f8186611abe565b90508181036020830152611ba38185611abe565b90508181036040830152611bb78184611abe565b9050949350505050565b600060208284031215611bd757611bd661176c565b5b6000611be584828501611a23565b91505092915050565b60006080820190508181036000830152611c088187611abe565b90508181036020830152611c1c8186611abe565b90508181036040830152611c308185611abe565b90508181036060830152611c448184611abe565b905095945050505050565b600081519050919050565b600082825260208201905092915050565b6000819050602082019050919050565b600082825260208201905092915050565b6000611c9782611a78565b611ca18185611c7b565b9350611cb1818560208601611a94565b611cba816117de565b840191505092915050565b611cce81611a02565b82525050565b600060a0830160008301518482036000860152611cf18282611c8c565b91505060208301518482036020860152611d0b8282611c8c565b91505060408301518482036040860152611d258282611c8c565b91505060608301518482036060860152611d3f8282611c8c565b9150506080830151611d546080860182611cc5565b508091505092915050565b6000611d6b8383611cd4565b905092915050565b6000602082019050919050565b6000611d8b82611c4f565b611d958185611c5a565b935083602082028501611da785611c6b565b8060005b85811015611de35784840389528151611dc48582611d5f565b9450611dcf83611d73565b925060208a01995050600181019050611dab565b50829750879550505050505092915050565b60006020820190508181036000830152611e0f8184611d80565b905092915050565b600080600080600060a08688031215611e3357611e3261176c565b5b6000611e41888289016117bf565b955050602086013567ffffffffffffffff811115611e6257611e61611771565b5b611e6e888289016118ec565b945050604086013567ffffffffffffffff811115611e8f57611e8e611771565b5b611e9b888289016118ec565b935050606086013567ffffffffffffffff811115611ebc57611ebb611771565b5b611ec8888289016118ec565b925050608086013567ffffffffffffffff811115611ee957611ee8611771565b5b611ef5888289016118ec565b9150509295509295909350565b60008115159050919050565b611f1781611f02565b82525050565b6000602082019050611f326000830184611f0e565b92915050565b7f4f6e6c7920617574686f72697a656420697373756572732063616e2063616c6c60008201527f20746869732066756e6374696f6e000000000000000000000000000000000000602082015250565b6000611f94602e83611a83565b9150611f9f82611f38565b604082019050919050565b60006020820190508181036000830152611fc381611f87565b9050919050565b7f4e487b7100000000000000000000000000000000000000000000000000000000600052602260045260246000fd5b6000600282049050600182168061201157607f821691505b60208210810361202457612023611fca565b5b50919050565b60008190508160005260206000209050919050565b60006020601f8301049050919050565b600082821b905092915050565b60006008830261208c7fffffffffffffffffffffffffffffffffffffffffffffffffffffffffffffffff8261204f565b612096868361204f565b95508019841693508086168417925050509392505050565b6000819050919050565b60006120d36120ce6120c984611a02565b6120ae565b611a02565b9050919050565b6000819050919050565b6120ed836120b8565b6121016120f9826120da565b84845461205c565b825550505050565b600090565b612116612109565b6121218184846120e4565b505050565b5b818110156121455761213a60008261210e565b600181019050612127565b5050565b601f82111561218a5761215b8161202a565b6121648461203f565b81016020851015612173578190505b61218761217f8561203f565b830182612126565b50505b505050565b600082821c905092915050565b60006121ad6000198460080261218f565b1980831691505092915050565b60006121c6838361219c565b9150826002028217905092915050565b6121df82611a78565b67ffffffffffffffff8111156121f8576121f76117ef565b5b6122028254611ff9565b61220d828285612149565b600060209050601f831160018114612240576000841561222e578287015190505b61223885826121ba565b8655506122a0565b601f19841661224e8661202a565b60005b8281101561227657848901518255600182019150602085019450602081019050612251565b86831015612293578489015161228f601f89168261219c565b8355505b6001600288020188555050505b505050505050565b7f4f6e6c792073747564656e742063616e2063616c6c20746869732066756e637460008201527f696f6e0000000000000000000000000000000000000000000000000000000000602082015250565b6000612304602383611a83565b915061230f826122a8565b604082019050919050565b60006020820190508181036000830152612333816122f7565b9050919050565b7f4e487b7100000000000000000000000000000000000000000000000000000000600052601160045260246000fd5b600061237482611a02565b915061237f83611a02565b92508282019050808211156123975761239661233a565b5b92915050565b7f4f6e6c7920617574686f72697a656420766965776572732063616e2063616c6c60008201527f20746869732066756e6374696f6e000000000000000000000000000000000000602082015250565b60006123f9602e83611a83565b91506124048261239d565b604082019050919050565b60006020820190508181036000830152612428816123ec565b9050919050565b7f53747564656e74206e6f7420666f756e64206f7220756e617574686f72697a6560008201527f642e000000000000000000000000000000000000000000000000000000000000602082015250565b600061248b602283611a83565b91506124968261242f565b604082019050919050565b600060208201905081810360008301526124ba8161247e565b9050919050565b7f596f7520617265206e6f7420617574686f72697a656420746f2072756e20746860008201527f69732066756e6374696f6e2e0000000000000000000000000000000000000000602082015250565b600061251d602c83611a83565b9150612528826124c1565b604082019050919050565b6000602082019050818103600083015261254c81612510565b9050919050565b7f4e487b7100000000000000000000000000000000000000000000000000000000600052603260045260246000fd5b600061258d82611a02565b91507fffffffffffffffffffffffffffffffffffffffffffffffffffffffffffffffff82036125bf576125be61233a565b5b60018201905091905056fea264697066735822122089e9ff3b3d86cc3414ca8fd1ec2e025344945499bea7618ec7e0b751def6811364736f6c63430008120033",
					"opcodes": "PUSH1 0x80 PUSH1 0x40 MSTORE CALLVALUE DUP1 ISZERO PUSH2 0x10 JUMPI PUSH1 0x0 DUP1 REVERT JUMPDEST POP PUSH1 0x1 DUP1 PUSH1 0x0 CALLER PUSH20 0xFFFFFFFFFFFFFFFFFFFFFFFFFFFFFFFFFFFFFFFF AND PUSH20 0xFFFFFFFFFFFFFFFFFFFFFFFFFFFFFFFFFFFFFFFF AND DUP2 MSTORE PUSH1 0x20 ADD SWAP1 DUP2 MSTORE PUSH1 0x20 ADD PUSH1 0x0 KECCAK256 PUSH1 0x0 PUSH2 0x100 EXP DUP2 SLOAD DUP2 PUSH1 0xFF MUL NOT AND SWAP1 DUP4 ISZERO ISZERO MUL OR SWAP1 SSTORE POP PUSH2 0x2600 DUP1 PUSH2 0x77 PUSH1 0x0 CODECOPY PUSH1 0x0 RETURN INVALID PUSH1 0x80 PUSH1 0x40 MSTORE CALLVALUE DUP1 ISZERO PUSH2 0x10 JUMPI PUSH1 0x0 DUP1 REVERT JUMPDEST POP PUSH1 0x4 CALLDATASIZE LT PUSH2 0x9E JUMPI PUSH1 0x0 CALLDATALOAD PUSH1 0xE0 SHR DUP1 PUSH4 0x9DA60E49 GT PUSH2 0x66 JUMPI DUP1 PUSH4 0x9DA60E49 EQ PUSH2 0x14B JUMPI DUP1 PUSH4 0xAE15EB8E EQ PUSH2 0x17F JUMPI DUP1 PUSH4 0xB05E0626 EQ PUSH2 0x1A0 JUMPI DUP1 PUSH4 0xE9DD92EE EQ PUSH2 0x1BE JUMPI DUP1 PUSH4 0xF731FA0F EQ PUSH2 0x1DA JUMPI PUSH2 0x9E JUMP JUMPDEST DUP1 PUSH4 0x3825D6C EQ PUSH2 0xA3 JUMPI DUP1 PUSH4 0x1785F53C EQ PUSH2 0xBF JUMPI DUP1 PUSH4 0x1B1D639D EQ PUSH2 0xDB JUMPI DUP1 PUSH4 0x64DBBAA2 EQ PUSH2 0xF7 JUMPI DUP1 PUSH4 0x6E9960C3 EQ PUSH2 0x12B JUMPI JUMPDEST PUSH1 0x0 DUP1 REVERT JUMPDEST PUSH2 0xBD PUSH1 0x4 DUP1 CALLDATASIZE SUB DUP2 ADD SWAP1 PUSH2 0xB8 SWAP2 SWAP1 PUSH2 0x191A JUMP JUMPDEST PUSH2 0x20A JUMP JUMPDEST STOP JUMPDEST PUSH2 0xD9 PUSH1 0x4 DUP1 CALLDATASIZE SUB DUP2 ADD SWAP1 PUSH2 0xD4 SWAP2 SWAP1 PUSH2 0x19D5 JUMP JUMPDEST PUSH2 0x36D JUMP JUMPDEST STOP JUMPDEST PUSH2 0xF5 PUSH1 0x4 DUP1 CALLDATASIZE SUB DUP2 ADD SWAP1 PUSH2 0xF0 SWAP2 SWAP1 PUSH2 0x1A38 JUMP JUMPDEST PUSH2 0x454 JUMP JUMPDEST STOP JUMPDEST PUSH2 0x111 PUSH1 0x4 DUP1 CALLDATASIZE SUB DUP2 ADD SWAP1 PUSH2 0x10C SWAP2 SWAP1 PUSH2 0x19D5 JUMP JUMPDEST PUSH2 0x594 JUMP JUMPDEST PUSH1 0x40 MLOAD PUSH2 0x122 SWAP6 SWAP5 SWAP4 SWAP3 SWAP2 SWAP1 PUSH2 0x1B06 JUMP JUMPDEST PUSH1 0x40 MLOAD DUP1 SWAP2 SUB SWAP1 RETURN JUMPDEST PUSH2 0x133 PUSH2 0x950 JUMP JUMPDEST PUSH1 0x40 MLOAD PUSH2 0x142 SWAP4 SWAP3 SWAP2 SWAP1 PUSH2 0x1B75 JUMP JUMPDEST PUSH1 0x40 MLOAD DUP1 SWAP2 SUB SWAP1 RETURN JUMPDEST PUSH2 0x165 PUSH1 0x4 DUP1 CALLDATASIZE SUB DUP2 ADD SWAP1 PUSH2 0x160 SWAP2 SWAP1 PUSH2 0x1BC1 JUMP JUMPDEST PUSH2 0xBE0 JUMP JUMPDEST PUSH1 0x40 MLOAD PUSH2 0x176 SWAP6 SWAP5 SWAP4 SWAP3 SWAP2 SWAP1 PUSH2 0x1B06 JUMP JUMPDEST PUSH1 0x40 MLOAD DUP1 SWAP2 SUB SWAP1 RETURN JUMPDEST PUSH2 0x187 PUSH2 0xE46 JUMP JUMPDEST PUSH1 0x40 MLOAD PUSH2 0x197 SWAP5 SWAP4 SWAP3 SWAP2 SWAP1 PUSH2 0x1BEE JUMP JUMPDEST PUSH1 0x40 MLOAD DUP1 SWAP2 SUB SWAP1 RETURN JUMPDEST PUSH2 0x1A8 PUSH2 0x11BE JUMP JUMPDEST PUSH1 0x40 MLOAD PUSH2 0x1B5 SWAP2 SWAP1 PUSH2 0x1DF5 JUMP JUMPDEST PUSH1 0x40 MLOAD DUP1 SWAP2 SUB SWAP1 RETURN JUMPDEST PUSH2 0x1D8 PUSH1 0x4 DUP1 CALLDATASIZE SUB DUP2 ADD SWAP1 PUSH2 0x1D3 SWAP2 SWAP1 PUSH2 0x1E17 JUMP JUMPDEST PUSH2 0x14E5 JUMP JUMPDEST STOP JUMPDEST PUSH2 0x1F4 PUSH1 0x4 DUP1 CALLDATASIZE SUB DUP2 ADD SWAP1 PUSH2 0x1EF SWAP2 SWAP1 PUSH2 0x19D5 JUMP JUMPDEST PUSH2 0x1713 JUMP JUMPDEST PUSH1 0x40 MLOAD PUSH2 0x201 SWAP2 SWAP1 PUSH2 0x1F1D JUMP JUMPDEST PUSH1 0x40 MLOAD DUP1 SWAP2 SUB SWAP1 RETURN JUMPDEST PUSH1 0x1 PUSH1 0x0 CALLER PUSH20 0xFFFFFFFFFFFFFFFFFFFFFFFFFFFFFFFFFFFFFFFF AND PUSH20 0xFFFFFFFFFFFFFFFFFFFFFFFFFFFFFFFFFFFFFFFF AND DUP2 MSTORE PUSH1 0x20 ADD SWAP1 DUP2 MSTORE PUSH1 0x20 ADD PUSH1 0x0 KECCAK256 PUSH1 0x0 SWAP1 SLOAD SWAP1 PUSH2 0x100 EXP SWAP1 DIV PUSH1 0xFF AND PUSH2 0x296 JUMPI PUSH1 0x40 MLOAD PUSH32 0x8C379A000000000000000000000000000000000000000000000000000000000 DUP2 MSTORE PUSH1 0x4 ADD PUSH2 0x28D SWAP1 PUSH2 0x1FAA JUMP JUMPDEST PUSH1 0x40 MLOAD DUP1 SWAP2 SUB SWAP1 REVERT JUMPDEST PUSH1 0x1 DUP1 PUSH1 0x0 DUP7 PUSH20 0xFFFFFFFFFFFFFFFFFFFFFFFFFFFFFFFFFFFFFFFF AND PUSH20 0xFFFFFFFFFFFFFFFFFFFFFFFFFFFFFFFFFFFFFFFF AND DUP2 MSTORE PUSH1 0x20 ADD SWAP1 DUP2 MSTORE PUSH1 0x20 ADD PUSH1 0x0 KECCAK256 PUSH1 0x0 PUSH2 0x100 EXP DUP2 SLOAD DUP2 PUSH1 0xFF MUL NOT AND SWAP1 DUP4 ISZERO ISZERO MUL OR SWAP1 SSTORE POP PUSH1 0x0 PUSH1 0x5 PUSH1 0x0 DUP7 PUSH20 0xFFFFFFFFFFFFFFFFFFFFFFFFFFFFFFFFFFFFFFFF AND PUSH20 0xFFFFFFFFFFFFFFFFFFFFFFFFFFFFFFFFFFFFFFFF AND DUP2 MSTORE PUSH1 0x20 ADD SWAP1 DUP2 MSTORE PUSH1 0x20 ADD PUSH1 0x0 KECCAK256 SWAP1 POP DUP4 DUP2 PUSH1 0x0 ADD SWAP1 DUP2 PUSH2 0x341 SWAP2 SWAP1 PUSH2 0x21D6 JUMP JUMPDEST POP DUP3 DUP2 PUSH1 0x1 ADD SWAP1 DUP2 PUSH2 0x353 SWAP2 SWAP1 PUSH2 0x21D6 JUMP JUMPDEST POP DUP2 DUP2 PUSH1 0x2 ADD SWAP1 DUP2 PUSH2 0x365 SWAP2 SWAP1 PUSH2 0x21D6 JUMP JUMPDEST POP POP POP POP POP POP JUMP JUMPDEST PUSH1 0x1 PUSH1 0x0 CALLER PUSH20 0xFFFFFFFFFFFFFFFFFFFFFFFFFFFFFFFFFFFFFFFF AND PUSH20 0xFFFFFFFFFFFFFFFFFFFFFFFFFFFFFFFFFFFFFFFF AND DUP2 MSTORE PUSH1 0x20 ADD SWAP1 DUP2 MSTORE PUSH1 0x20 ADD PUSH1 0x0 KECCAK256 PUSH1 0x0 SWAP1 SLOAD SWAP1 PUSH2 0x100 EXP SWAP1 DIV PUSH1 0xFF AND PUSH2 0x3F9 JUMPI PUSH1 0x40 MLOAD PUSH32 0x8C379A000000000000000000000000000000000000000000000000000000000 DUP2 MSTORE PUSH1 0x4 ADD PUSH2 0x3F0 SWAP1 PUSH2 0x1FAA JUMP JUMPDEST PUSH1 0x40 MLOAD DUP1 SWAP2 SUB SWAP1 REVERT JUMPDEST PUSH1 0x0 PUSH1 0x1 PUSH1 0x0 DUP4 PUSH20 0xFFFFFFFFFFFFFFFFFFFFFFFFFFFFFFFFFFFFFFFF AND PUSH20 0xFFFFFFFFFFFFFFFFFFFFFFFFFFFFFFFFFFFFFFFF AND DUP2 MSTORE PUSH1 0x20 ADD SWAP1 DUP2 MSTORE PUSH1 0x20 ADD PUSH1 0x0 KECCAK256 PUSH1 0x0 PUSH2 0x100 EXP DUP2 SLOAD DUP2 PUSH1 0xFF MUL NOT AND SWAP1 DUP4 ISZERO ISZERO MUL OR SWAP1 SSTORE POP POP JUMP JUMPDEST PUSH1 0x3 PUSH1 0x0 CALLER PUSH20 0xFFFFFFFFFFFFFFFFFFFFFFFFFFFFFFFFFFFFFFFF AND PUSH20 0xFFFFFFFFFFFFFFFFFFFFFFFFFFFFFFFFFFFFFFFF AND DUP2 MSTORE PUSH1 0x20 ADD SWAP1 DUP2 MSTORE PUSH1 0x20 ADD PUSH1 0x0 KECCAK256 PUSH1 0x0 SWAP1 SLOAD SWAP1 PUSH2 0x100 EXP SWAP1 DIV PUSH1 0xFF AND PUSH2 0x4E0 JUMPI PUSH1 0x40 MLOAD PUSH32 0x8C379A000000000000000000000000000000000000000000000000000000000 DUP2 MSTORE PUSH1 0x4 ADD PUSH2 0x4D7 SWAP1 PUSH2 0x231A JUMP JUMPDEST PUSH1 0x40 MLOAD DUP1 SWAP2 SUB SWAP1 REVERT JUMPDEST PUSH1 0x0 PUSH1 0x4 PUSH1 0x0 CALLER PUSH20 0xFFFFFFFFFFFFFFFFFFFFFFFFFFFFFFFFFFFFFFFF AND PUSH20 0xFFFFFFFFFFFFFFFFFFFFFFFFFFFFFFFFFFFFFFFF AND DUP2 MSTORE PUSH1 0x20 ADD SWAP1 DUP2 MSTORE PUSH1 0x20 ADD PUSH1 0x0 KECCAK256 SWAP1 POP DUP2 TIMESTAMP PUSH2 0x52F SWAP2 SWAP1 PUSH2 0x2369 JUMP JUMPDEST DUP2 PUSH1 0x4 ADD DUP2 SWAP1 SSTORE POP PUSH1 0x1 PUSH1 0x2 PUSH1 0x0 DUP6 PUSH20 0xFFFFFFFFFFFFFFFFFFFFFFFFFFFFFFFFFFFFFFFF AND PUSH20 0xFFFFFFFFFFFFFFFFFFFFFFFFFFFFFFFFFFFFFFFF AND DUP2 MSTORE PUSH1 0x20 ADD SWAP1 DUP2 MSTORE PUSH1 0x20 ADD PUSH1 0x0 KECCAK256 PUSH1 0x0 PUSH2 0x100 EXP DUP2 SLOAD DUP2 PUSH1 0xFF MUL NOT AND SWAP1 DUP4 ISZERO ISZERO MUL OR SWAP1 SSTORE POP POP POP POP JUMP JUMPDEST PUSH1 0x60 DUP1 PUSH1 0x60 DUP1 PUSH1 0x0 PUSH1 0x2 PUSH1 0x0 CALLER PUSH20 0xFFFFFFFFFFFFFFFFFFFFFFFFFFFFFFFFFFFFFFFF AND PUSH20 0xFFFFFFFFFFFFFFFFFFFFFFFFFFFFFFFFFFFFFFFF AND DUP2 MSTORE PUSH1 0x20 ADD SWAP1 DUP2 MSTORE PUSH1 0x20 ADD PUSH1 0x0 KECCAK256 PUSH1 0x0 SWAP1 SLOAD SWAP1 PUSH2 0x100 EXP SWAP1 DIV PUSH1 0xFF AND PUSH2 0x628 JUMPI PUSH1 0x40 MLOAD PUSH32 0x8C379A000000000000000000000000000000000000000000000000000000000 DUP2 MSTORE PUSH1 0x4 ADD PUSH2 0x61F SWAP1 PUSH2 0x240F JUMP JUMPDEST PUSH1 0x40 MLOAD DUP1 SWAP2 SUB SWAP1 REVERT JUMPDEST PUSH1 0x3 PUSH1 0x0 DUP8 PUSH20 0xFFFFFFFFFFFFFFFFFFFFFFFFFFFFFFFFFFFFFFFF AND PUSH20 0xFFFFFFFFFFFFFFFFFFFFFFFFFFFFFFFFFFFFFFFF AND DUP2 MSTORE PUSH1 0x20 ADD SWAP1 DUP2 MSTORE PUSH1 0x20 ADD PUSH1 0x0 KECCAK256 PUSH1 0x0 SWAP1 SLOAD SWAP1 PUSH2 0x100 EXP SWAP1 DIV PUSH1 0xFF AND PUSH2 0x6B4 JUMPI PUSH1 0x40 MLOAD PUSH32 0x8C379A000000000000000000000000000000000000000000000000000000000 DUP2 MSTORE PUSH1 0x4 ADD PUSH2 0x6AB SWAP1 PUSH2 0x24A1 JUMP JUMPDEST PUSH1 0x40 MLOAD DUP1 SWAP2 SUB SWAP1 REVERT JUMPDEST PUSH1 0x0 PUSH1 0x4 PUSH1 0x0 DUP9 PUSH20 0xFFFFFFFFFFFFFFFFFFFFFFFFFFFFFFFFFFFFFFFF AND PUSH20 0xFFFFFFFFFFFFFFFFFFFFFFFFFFFFFFFFFFFFFFFF AND DUP2 MSTORE PUSH1 0x20 ADD SWAP1 DUP2 MSTORE PUSH1 0x20 ADD PUSH1 0x0 KECCAK256 SWAP1 POP DUP1 PUSH1 0x0 ADD DUP2 PUSH1 0x1 ADD DUP3 PUSH1 0x2 ADD DUP4 PUSH1 0x3 ADD DUP5 PUSH1 0x4 ADD SLOAD DUP5 DUP1 SLOAD PUSH2 0x718 SWAP1 PUSH2 0x1FF9 JUMP JUMPDEST DUP1 PUSH1 0x1F ADD PUSH1 0x20 DUP1 SWAP2 DIV MUL PUSH1 0x20 ADD PUSH1 0x40 MLOAD SWAP1 DUP2 ADD PUSH1 0x40 MSTORE DUP1 SWAP3 SWAP2 SWAP1 DUP2 DUP2 MSTORE PUSH1 0x20 ADD DUP3 DUP1 SLOAD PUSH2 0x744 SWAP1 PUSH2 0x1FF9 JUMP JUMPDEST DUP1 ISZERO PUSH2 0x791 JUMPI DUP1 PUSH1 0x1F LT PUSH2 0x766 JUMPI PUSH2 0x100 DUP1 DUP4 SLOAD DIV MUL DUP4 MSTORE SWAP2 PUSH1 0x20 ADD SWAP2 PUSH2 0x791 JUMP JUMPDEST DUP3 ADD SWAP2 SWAP1 PUSH1 0x0 MSTORE PUSH1 0x20 PUSH1 0x0 KECCAK256 SWAP1 JUMPDEST DUP2 SLOAD DUP2 MSTORE SWAP1 PUSH1 0x1 ADD SWAP1 PUSH1 0x20 ADD DUP1 DUP4 GT PUSH2 0x774 JUMPI DUP3 SWAP1 SUB PUSH1 0x1F AND DUP3 ADD SWAP2 JUMPDEST POP POP POP POP POP SWAP5 POP DUP4 DUP1 SLOAD PUSH2 0x7A4 SWAP1 PUSH2 0x1FF9 JUMP JUMPDEST DUP1 PUSH1 0x1F ADD PUSH1 0x20 DUP1 SWAP2 DIV MUL PUSH1 0x20 ADD PUSH1 0x40 MLOAD SWAP1 DUP2 ADD PUSH1 0x40 MSTORE DUP1 SWAP3 SWAP2 SWAP1 DUP2 DUP2 MSTORE PUSH1 0x20 ADD DUP3 DUP1 SLOAD PUSH2 0x7D0 SWAP1 PUSH2 0x1FF9 JUMP JUMPDEST DUP1 ISZERO PUSH2 0x81D JUMPI DUP1 PUSH1 0x1F LT PUSH2 0x7F2 JUMPI PUSH2 0x100 DUP1 DUP4 SLOAD DIV MUL DUP4 MSTORE SWAP2 PUSH1 0x20 ADD SWAP2 PUSH2 0x81D JUMP JUMPDEST DUP3 ADD SWAP2 SWAP1 PUSH1 0x0 MSTORE PUSH1 0x20 PUSH1 0x0 KECCAK256 SWAP1 JUMPDEST DUP2 SLOAD DUP2 MSTORE SWAP1 PUSH1 0x1 ADD SWAP1 PUSH1 0x20 ADD DUP1 DUP4 GT PUSH2 0x800 JUMPI DUP3 SWAP1 SUB PUSH1 0x1F AND DUP3 ADD SWAP2 JUMPDEST POP POP POP POP POP SWAP4 POP DUP3 DUP1 SLOAD PUSH2 0x830 SWAP1 PUSH2 0x1FF9 JUMP JUMPDEST DUP1 PUSH1 0x1F ADD PUSH1 0x20 DUP1 SWAP2 DIV MUL PUSH1 0x20 ADD PUSH1 0x40 MLOAD SWAP1 DUP2 ADD PUSH1 0x40 MSTORE DUP1 SWAP3 SWAP2 SWAP1 DUP2 DUP2 MSTORE PUSH1 0x20 ADD DUP3 DUP1 SLOAD PUSH2 0x85C SWAP1 PUSH2 0x1FF9 JUMP JUMPDEST DUP1 ISZERO PUSH2 0x8A9 JUMPI DUP1 PUSH1 0x1F LT PUSH2 0x87E JUMPI PUSH2 0x100 DUP1 DUP4 SLOAD DIV MUL DUP4 MSTORE SWAP2 PUSH1 0x20 ADD SWAP2 PUSH2 0x8A9 JUMP JUMPDEST DUP3 ADD SWAP2 SWAP1 PUSH1 0x0 MSTORE PUSH1 0x20 PUSH1 0x0 KECCAK256 SWAP1 JUMPDEST DUP2 SLOAD DUP2 MSTORE SWAP1 PUSH1 0x1 ADD SWAP1 PUSH1 0x20 ADD DUP1 DUP4 GT PUSH2 0x88C JUMPI DUP3 SWAP1 SUB PUSH1 0x1F AND DUP3 ADD SWAP2 JUMPDEST POP POP POP POP POP SWAP3 POP DUP2 DUP1 SLOAD PUSH2 0x8BC SWAP1 PUSH2 0x1FF9 JUMP JUMPDEST DUP1 PUSH1 0x1F ADD PUSH1 0x20 DUP1 SWAP2 DIV MUL PUSH1 0x20 ADD PUSH1 0x40 MLOAD SWAP1 DUP2 ADD PUSH1 0x40 MSTORE DUP1 SWAP3 SWAP2 SWAP1 DUP2 DUP2 MSTORE PUSH1 0x20 ADD DUP3 DUP1 SLOAD PUSH2 0x8E8 SWAP1 PUSH2 0x1FF9 JUMP JUMPDEST DUP1 ISZERO PUSH2 0x935 JUMPI DUP1 PUSH1 0x1F LT PUSH2 0x90A JUMPI PUSH2 0x100 DUP1 DUP4 SLOAD DIV MUL DUP4 MSTORE SWAP2 PUSH1 0x20 ADD SWAP2 PUSH2 0x935 JUMP JUMPDEST DUP3 ADD SWAP2 SWAP1 PUSH1 0x0 MSTORE PUSH1 0x20 PUSH1 0x0 KECCAK256 SWAP1 JUMPDEST DUP2 SLOAD DUP2 MSTORE SWAP1 PUSH1 0x1 ADD SWAP1 PUSH1 0x20 ADD DUP1 DUP4 GT PUSH2 0x918 JUMPI DUP3 SWAP1 SUB PUSH1 0x1F AND DUP3 ADD SWAP2 JUMPDEST POP POP POP POP POP SWAP2 POP SWAP6 POP SWAP6 POP SWAP6 POP SWAP6 POP SWAP6 POP POP SWAP2 SWAP4 SWAP6 SWAP1 SWAP3 SWAP5 POP JUMP JUMPDEST PUSH1 0x60 DUP1 PUSH1 0x60 PUSH1 0x1 PUSH1 0x0 CALLER PUSH20 0xFFFFFFFFFFFFFFFFFFFFFFFFFFFFFFFFFFFFFFFF AND PUSH20 0xFFFFFFFFFFFFFFFFFFFFFFFFFFFFFFFFFFFFFFFF AND DUP2 MSTORE PUSH1 0x20 ADD SWAP1 DUP2 MSTORE PUSH1 0x20 ADD PUSH1 0x0 KECCAK256 PUSH1 0x0 SWAP1 SLOAD SWAP1 PUSH2 0x100 EXP SWAP1 DIV PUSH1 0xFF AND PUSH2 0x9E1 JUMPI PUSH1 0x40 MLOAD PUSH32 0x8C379A000000000000000000000000000000000000000000000000000000000 DUP2 MSTORE PUSH1 0x4 ADD PUSH2 0x9D8 SWAP1 PUSH2 0x2533 JUMP JUMPDEST PUSH1 0x40 MLOAD DUP1 SWAP2 SUB SWAP1 REVERT JUMPDEST PUSH1 0x0 PUSH1 0x5 PUSH1 0x0 CALLER PUSH20 0xFFFFFFFFFFFFFFFFFFFFFFFFFFFFFFFFFFFFFFFF AND PUSH20 0xFFFFFFFFFFFFFFFFFFFFFFFFFFFFFFFFFFFFFFFF AND DUP2 MSTORE PUSH1 0x20 ADD SWAP1 DUP2 MSTORE PUSH1 0x20 ADD PUSH1 0x0 KECCAK256 SWAP1 POP DUP1 PUSH1 0x0 ADD DUP2 PUSH1 0x1 ADD DUP3 PUSH1 0x2 ADD DUP3 DUP1 SLOAD PUSH2 0xA3C SWAP1 PUSH2 0x1FF9 JUMP JUMPDEST DUP1 PUSH1 0x1F ADD PUSH1 0x20 DUP1 SWAP2 DIV MUL PUSH1 0x20 ADD PUSH1 0x40 MLOAD SWAP1 DUP2 ADD PUSH1 0x40 MSTORE DUP1 SWAP3 SWAP2 SWAP1 DUP2 DUP2 MSTORE PUSH1 0x20 ADD DUP3 DUP1 SLOAD PUSH2 0xA68 SWAP1 PUSH2 0x1FF9 JUMP JUMPDEST DUP1 ISZERO PUSH2 0xAB5 JUMPI DUP1 PUSH1 0x1F LT PUSH2 0xA8A JUMPI PUSH2 0x100 DUP1 DUP4 SLOAD DIV MUL DUP4 MSTORE SWAP2 PUSH1 0x20 ADD SWAP2 PUSH2 0xAB5 JUMP JUMPDEST DUP3 ADD SWAP2 SWAP1 PUSH1 0x0 MSTORE PUSH1 0x20 PUSH1 0x0 KECCAK256 SWAP1 JUMPDEST DUP2 SLOAD DUP2 MSTORE SWAP1 PUSH1 0x1 ADD SWAP1 PUSH1 0x20 ADD DUP1 DUP4 GT PUSH2 0xA98 JUMPI DUP3 SWAP1 SUB PUSH1 0x1F AND DUP3 ADD SWAP2 JUMPDEST POP POP POP POP POP SWAP3 POP DUP2 DUP1 SLOAD PUSH2 0xAC8 SWAP1 PUSH2 0x1FF9 JUMP JUMPDEST DUP1 PUSH1 0x1F ADD PUSH1 0x20 DUP1 SWAP2 DIV MUL PUSH1 0x20 ADD PUSH1 0x40 MLOAD SWAP1 DUP2 ADD PUSH1 0x40 MSTORE DUP1 SWAP3 SWAP2 SWAP1 DUP2 DUP2 MSTORE PUSH1 0x20 ADD DUP3 DUP1 SLOAD PUSH2 0xAF4 SWAP1 PUSH2 0x1FF9 JUMP JUMPDEST DUP1 ISZERO PUSH2 0xB41 JUMPI DUP1 PUSH1 0x1F LT PUSH2 0xB16 JUMPI PUSH2 0x100 DUP1 DUP4 SLOAD DIV MUL DUP4 MSTORE SWAP2 PUSH1 0x20 ADD SWAP2 PUSH2 0xB41 JUMP JUMPDEST DUP3 ADD SWAP2 SWAP1 PUSH1 0x0 MSTORE PUSH1 0x20 PUSH1 0x0 KECCAK256 SWAP1 JUMPDEST DUP2 SLOAD DUP2 MSTORE SWAP1 PUSH1 0x1 ADD SWAP1 PUSH1 0x20 ADD DUP1 DUP4 GT PUSH2 0xB24 JUMPI DUP3 SWAP1 SUB PUSH1 0x1F AND DUP3 ADD SWAP2 JUMPDEST POP POP POP POP POP SWAP2 POP DUP1 DUP1 SLOAD PUSH2 0xB54 SWAP1 PUSH2 0x1FF9 JUMP JUMPDEST DUP1 PUSH1 0x1F ADD PUSH1 0x20 DUP1 SWAP2 DIV MUL PUSH1 0x20 ADD PUSH1 0x40 MLOAD SWAP1 DUP2 ADD PUSH1 0x40 MSTORE DUP1 SWAP3 SWAP2 SWAP1 DUP2 DUP2 MSTORE PUSH1 0x20 ADD DUP3 DUP1 SLOAD PUSH2 0xB80 SWAP1 PUSH2 0x1FF9 JUMP JUMPDEST DUP1 ISZERO PUSH2 0xBCD JUMPI DUP1 PUSH1 0x1F LT PUSH2 0xBA2 JUMPI PUSH2 0x100 DUP1 DUP4 SLOAD DIV MUL DUP4 MSTORE SWAP2 PUSH1 0x20 ADD SWAP2 PUSH2 0xBCD JUMP JUMPDEST DUP3 ADD SWAP2 SWAP1 PUSH1 0x0 MSTORE PUSH1 0x20 PUSH1 0x0 KECCAK256 SWAP1 JUMPDEST DUP2 SLOAD DUP2 MSTORE SWAP1 PUSH1 0x1 ADD SWAP1 PUSH1 0x20 ADD DUP1 DUP4 GT PUSH2 0xBB0 JUMPI DUP3 SWAP1 SUB PUSH1 0x1F AND DUP3 ADD SWAP2 JUMPDEST POP POP POP POP POP SWAP1 POP SWAP4 POP SWAP4 POP SWAP4 POP POP SWAP1 SWAP2 SWAP3 JUMP JUMPDEST PUSH1 0x0 DUP2 DUP2 SLOAD DUP2 LT PUSH2 0xBF0 JUMPI PUSH1 0x0 DUP1 REVERT JUMPDEST SWAP1 PUSH1 0x0 MSTORE PUSH1 0x20 PUSH1 0x0 KECCAK256 SWAP1 PUSH1 0x5 MUL ADD PUSH1 0x0 SWAP2 POP SWAP1 POP DUP1 PUSH1 0x0 ADD DUP1 SLOAD PUSH2 0xC13 SWAP1 PUSH2 0x1FF9 JUMP JUMPDEST DUP1 PUSH1 0x1F ADD PUSH1 0x20 DUP1 SWAP2 DIV MUL PUSH1 0x20 ADD PUSH1 0x40 MLOAD SWAP1 DUP2 ADD PUSH1 0x40 MSTORE DUP1 SWAP3 SWAP2 SWAP1 DUP2 DUP2 MSTORE PUSH1 0x20 ADD DUP3 DUP1 SLOAD PUSH2 0xC3F SWAP1 PUSH2 0x1FF9 JUMP JUMPDEST DUP1 ISZERO PUSH2 0xC8C JUMPI DUP1 PUSH1 0x1F LT PUSH2 0xC61 JUMPI PUSH2 0x100 DUP1 DUP4 SLOAD DIV MUL DUP4 MSTORE SWAP2 PUSH1 0x20 ADD SWAP2 PUSH2 0xC8C JUMP JUMPDEST DUP3 ADD SWAP2 SWAP1 PUSH1 0x0 MSTORE PUSH1 0x20 PUSH1 0x0 KECCAK256 SWAP1 JUMPDEST DUP2 SLOAD DUP2 MSTORE SWAP1 PUSH1 0x1 ADD SWAP1 PUSH1 0x20 ADD DUP1 DUP4 GT PUSH2 0xC6F JUMPI DUP3 SWAP1 SUB PUSH1 0x1F AND DUP3 ADD SWAP2 JUMPDEST POP POP POP POP POP SWAP1 DUP1 PUSH1 0x1 ADD DUP1 SLOAD PUSH2 0xCA1 SWAP1 PUSH2 0x1FF9 JUMP JUMPDEST DUP1 PUSH1 0x1F ADD PUSH1 0x20 DUP1 SWAP2 DIV MUL PUSH1 0x20 ADD PUSH1 0x40 MLOAD SWAP1 DUP2 ADD PUSH1 0x40 MSTORE DUP1 SWAP3 SWAP2 SWAP1 DUP2 DUP2 MSTORE PUSH1 0x20 ADD DUP3 DUP1 SLOAD PUSH2 0xCCD SWAP1 PUSH2 0x1FF9 JUMP JUMPDEST DUP1 ISZERO PUSH2 0xD1A JUMPI DUP1 PUSH1 0x1F LT PUSH2 0xCEF JUMPI PUSH2 0x100 DUP1 DUP4 SLOAD DIV MUL DUP4 MSTORE SWAP2 PUSH1 0x20 ADD SWAP2 PUSH2 0xD1A JUMP JUMPDEST DUP3 ADD SWAP2 SWAP1 PUSH1 0x0 MSTORE PUSH1 0x20 PUSH1 0x0 KECCAK256 SWAP1 JUMPDEST DUP2 SLOAD DUP2 MSTORE SWAP1 PUSH1 0x1 ADD SWAP1 PUSH1 0x20 ADD DUP1 DUP4 GT PUSH2 0xCFD JUMPI DUP3 SWAP1 SUB PUSH1 0x1F AND DUP3 ADD SWAP2 JUMPDEST POP POP POP POP POP SWAP1 DUP1 PUSH1 0x2 ADD DUP1 SLOAD PUSH2 0xD2F SWAP1 PUSH2 0x1FF9 JUMP JUMPDEST DUP1 PUSH1 0x1F ADD PUSH1 0x20 DUP1 SWAP2 DIV MUL PUSH1 0x20 ADD PUSH1 0x40 MLOAD SWAP1 DUP2 ADD PUSH1 0x40 MSTORE DUP1 SWAP3 SWAP2 SWAP1 DUP2 DUP2 MSTORE PUSH1 0x20 ADD DUP3 DUP1 SLOAD PUSH2 0xD5B SWAP1 PUSH2 0x1FF9 JUMP JUMPDEST DUP1 ISZERO PUSH2 0xDA8 JUMPI DUP1 PUSH1 0x1F LT PUSH2 0xD7D JUMPI PUSH2 0x100 DUP1 DUP4 SLOAD DIV MUL DUP4 MSTORE SWAP2 PUSH1 0x20 ADD SWAP2 PUSH2 0xDA8 JUMP JUMPDEST DUP3 ADD SWAP2 SWAP1 PUSH1 0x0 MSTORE PUSH1 0x20 PUSH1 0x0 KECCAK256 SWAP1 JUMPDEST DUP2 SLOAD DUP2 MSTORE SWAP1 PUSH1 0x1 ADD SWAP1 PUSH1 0x20 ADD DUP1 DUP4 GT PUSH2 0xD8B JUMPI DUP3 SWAP1 SUB PUSH1 0x1F AND DUP3 ADD SWAP2 JUMPDEST POP POP POP POP POP SWAP1 DUP1 PUSH1 0x3 ADD DUP1 SLOAD PUSH2 0xDBD SWAP1 PUSH2 0x1FF9 JUMP JUMPDEST DUP1 PUSH1 0x1F ADD PUSH1 0x20 DUP1 SWAP2 DIV MUL PUSH1 0x20 ADD PUSH1 0x40 MLOAD SWAP1 DUP2 ADD PUSH1 0x40 MSTORE DUP1 SWAP3 SWAP2 SWAP1 DUP2 DUP2 MSTORE PUSH1 0x20 ADD DUP3 DUP1 SLOAD PUSH2 0xDE9 SWAP1 PUSH2 0x1FF9 JUMP JUMPDEST DUP1 ISZERO PUSH2 0xE36 JUMPI DUP1 PUSH1 0x1F LT PUSH2 0xE0B JUMPI PUSH2 0x100 DUP1 DUP4 SLOAD DIV MUL DUP4 MSTORE SWAP2 PUSH1 0x20 ADD SWAP2 PUSH2 0xE36 JUMP JUMPDEST DUP3 ADD SWAP2 SWAP1 PUSH1 0x0 MSTORE PUSH1 0x20 PUSH1 0x0 KECCAK256 SWAP1 JUMPDEST DUP2 SLOAD DUP2 MSTORE SWAP1 PUSH1 0x1 ADD SWAP1 PUSH1 0x20 ADD DUP1 DUP4 GT PUSH2 0xE19 JUMPI DUP3 SWAP1 SUB PUSH1 0x1F AND DUP3 ADD SWAP2 JUMPDEST POP POP POP POP POP SWAP1 DUP1 PUSH1 0x4 ADD SLOAD SWAP1 POP DUP6 JUMP JUMPDEST PUSH1 0x60 DUP1 PUSH1 0x60 DUP1 PUSH1 0x3 PUSH1 0x0 CALLER PUSH20 0xFFFFFFFFFFFFFFFFFFFFFFFFFFFFFFFFFFFFFFFF AND PUSH20 0xFFFFFFFFFFFFFFFFFFFFFFFFFFFFFFFFFFFFFFFF AND DUP2 MSTORE PUSH1 0x20 ADD SWAP1 DUP2 MSTORE PUSH1 0x20 ADD PUSH1 0x0 KECCAK256 PUSH1 0x0 SWAP1 SLOAD SWAP1 PUSH2 0x100 EXP SWAP1 DIV PUSH1 0xFF AND DUP1 PUSH2 0xEED JUMPI POP PUSH1 0x1 PUSH1 0x0 CALLER PUSH20 0xFFFFFFFFFFFFFFFFFFFFFFFFFFFFFFFFFFFFFFFF AND PUSH20 0xFFFFFFFFFFFFFFFFFFFFFFFFFFFFFFFFFFFFFFFF AND DUP2 MSTORE PUSH1 0x20 ADD SWAP1 DUP2 MSTORE PUSH1 0x20 ADD PUSH1 0x0 KECCAK256 PUSH1 0x0 SWAP1 SLOAD SWAP1 PUSH2 0x100 EXP SWAP1 DIV PUSH1 0xFF AND JUMPDEST PUSH2 0xF2C JUMPI PUSH1 0x40 MLOAD PUSH32 0x8C379A000000000000000000000000000000000000000000000000000000000 DUP2 MSTORE PUSH1 0x4 ADD PUSH2 0xF23 SWAP1 PUSH2 0x2533 JUMP JUMPDEST PUSH1 0x40 MLOAD DUP1 SWAP2 SUB SWAP1 REVERT JUMPDEST PUSH1 0x0 PUSH1 0x4 PUSH1 0x0 CALLER PUSH20 0xFFFFFFFFFFFFFFFFFFFFFFFFFFFFFFFFFFFFFFFF AND PUSH20 0xFFFFFFFFFFFFFFFFFFFFFFFFFFFFFFFFFFFFFFFF AND DUP2 MSTORE PUSH1 0x20 ADD SWAP1 DUP2 MSTORE PUSH1 0x20 ADD PUSH1 0x0 KECCAK256 SWAP1 POP DUP1 PUSH1 0x0 ADD DUP2 PUSH1 0x1 ADD DUP3 PUSH1 0x2 ADD DUP4 PUSH1 0x3 ADD DUP4 DUP1 SLOAD PUSH2 0xF8B SWAP1 PUSH2 0x1FF9 JUMP JUMPDEST DUP1 PUSH1 0x1F ADD PUSH1 0x20 DUP1 SWAP2 DIV MUL PUSH1 0x20 ADD PUSH1 0x40 MLOAD SWAP1 DUP2 ADD PUSH1 0x40 MSTORE DUP1 SWAP3 SWAP2 SWAP1 DUP2 DUP2 MSTORE PUSH1 0x20 ADD DUP3 DUP1 SLOAD PUSH2 0xFB7 SWAP1 PUSH2 0x1FF9 JUMP JUMPDEST DUP1 ISZERO PUSH2 0x1004 JUMPI DUP1 PUSH1 0x1F LT PUSH2 0xFD9 JUMPI PUSH2 0x100 DUP1 DUP4 SLOAD DIV MUL DUP4 MSTORE SWAP2 PUSH1 0x20 ADD SWAP2 PUSH2 0x1004 JUMP JUMPDEST DUP3 ADD SWAP2 SWAP1 PUSH1 0x0 MSTORE PUSH1 0x20 PUSH1 0x0 KECCAK256 SWAP1 JUMPDEST DUP2 SLOAD DUP2 MSTORE SWAP1 PUSH1 0x1 ADD SWAP1 PUSH1 0x20 ADD DUP1 DUP4 GT PUSH2 0xFE7 JUMPI DUP3 SWAP1 SUB PUSH1 0x1F AND DUP3 ADD SWAP2 JUMPDEST POP POP POP POP POP SWAP4 POP DUP3 DUP1 SLOAD PUSH2 0x1017 SWAP1 PUSH2 0x1FF9 JUMP JUMPDEST DUP1 PUSH1 0x1F ADD PUSH1 0x20 DUP1 SWAP2 DIV MUL PUSH1 0x20 ADD PUSH1 0x40 MLOAD SWAP1 DUP2 ADD PUSH1 0x40 MSTORE DUP1 SWAP3 SWAP2 SWAP1 DUP2 DUP2 MSTORE PUSH1 0x20 ADD DUP3 DUP1 SLOAD PUSH2 0x1043 SWAP1 PUSH2 0x1FF9 JUMP JUMPDEST DUP1 ISZERO PUSH2 0x1090 JUMPI DUP1 PUSH1 0x1F LT PUSH2 0x1065 JUMPI PUSH2 0x100 DUP1 DUP4 SLOAD DIV MUL DUP4 MSTORE SWAP2 PUSH1 0x20 ADD SWAP2 PUSH2 0x1090 JUMP JUMPDEST DUP3 ADD SWAP2 SWAP1 PUSH1 0x0 MSTORE PUSH1 0x20 PUSH1 0x0 KECCAK256 SWAP1 JUMPDEST DUP2 SLOAD DUP2 MSTORE SWAP1 PUSH1 0x1 ADD SWAP1 PUSH1 0x20 ADD DUP1 DUP4 GT PUSH2 0x1073 JUMPI DUP3 SWAP1 SUB PUSH1 0x1F AND DUP3 ADD SWAP2 JUMPDEST POP POP POP POP POP SWAP3 POP DUP2 DUP1 SLOAD PUSH2 0x10A3 SWAP1 PUSH2 0x1FF9 JUMP JUMPDEST DUP1 PUSH1 0x1F ADD PUSH1 0x20 DUP1 SWAP2 DIV MUL PUSH1 0x20 ADD PUSH1 0x40 MLOAD SWAP1 DUP2 ADD PUSH1 0x40 MSTORE DUP1 SWAP3 SWAP2 SWAP1 DUP2 DUP2 MSTORE PUSH1 0x20 ADD DUP3 DUP1 SLOAD PUSH2 0x10CF SWAP1 PUSH2 0x1FF9 JUMP JUMPDEST DUP1 ISZERO PUSH2 0x111C JUMPI DUP1 PUSH1 0x1F LT PUSH2 0x10F1 JUMPI PUSH2 0x100 DUP1 DUP4 SLOAD DIV MUL DUP4 MSTORE SWAP2 PUSH1 0x20 ADD SWAP2 PUSH2 0x111C JUMP JUMPDEST DUP3 ADD SWAP2 SWAP1 PUSH1 0x0 MSTORE PUSH1 0x20 PUSH1 0x0 KECCAK256 SWAP1 JUMPDEST DUP2 SLOAD DUP2 MSTORE SWAP1 PUSH1 0x1 ADD SWAP1 PUSH1 0x20 ADD DUP1 DUP4 GT PUSH2 0x10FF JUMPI DUP3 SWAP1 SUB PUSH1 0x1F AND DUP3 ADD SWAP2 JUMPDEST POP POP POP POP POP SWAP2 POP DUP1 DUP1 SLOAD PUSH2 0x112F SWAP1 PUSH2 0x1FF9 JUMP JUMPDEST DUP1 PUSH1 0x1F ADD PUSH1 0x20 DUP1 SWAP2 DIV MUL PUSH1 0x20 ADD PUSH1 0x40 MLOAD SWAP1 DUP2 ADD PUSH1 0x40 MSTORE DUP1 SWAP3 SWAP2 SWAP1 DUP2 DUP2 MSTORE PUSH1 0x20 ADD DUP3 DUP1 SLOAD PUSH2 0x115B SWAP1 PUSH2 0x1FF9 JUMP JUMPDEST DUP1 ISZERO PUSH2 0x11A8 JUMPI DUP1 PUSH1 0x1F LT PUSH2 0x117D JUMPI PUSH2 0x100 DUP1 DUP4 SLOAD DIV MUL DUP4 MSTORE SWAP2 PUSH1 0x20 ADD SWAP2 PUSH2 0x11A8 JUMP JUMPDEST DUP3 ADD SWAP2 SWAP1 PUSH1 0x0 MSTORE PUSH1 0x20 PUSH1 0x0 KECCAK256 SWAP1 JUMPDEST DUP2 SLOAD DUP2 MSTORE SWAP1 PUSH1 0x1 ADD SWAP1 PUSH1 0x20 ADD DUP1 DUP4 GT PUSH2 0x118B JUMPI DUP3 SWAP1 SUB PUSH1 0x1F AND DUP3 ADD SWAP2 JUMPDEST POP POP POP POP POP SWAP1 POP SWAP5 POP SWAP5 POP SWAP5 POP SWAP5 POP POP SWAP1 SWAP2 SWAP3 SWAP4 JUMP JUMPDEST PUSH1 0x60 PUSH1 0x0 DUP1 DUP1 SLOAD SWAP1 POP SWAP1 POP PUSH1 0x0 DUP2 PUSH8 0xFFFFFFFFFFFFFFFF DUP2 GT ISZERO PUSH2 0x11E5 JUMPI PUSH2 0x11E4 PUSH2 0x17EF JUMP JUMPDEST JUMPDEST PUSH1 0x40 MLOAD SWAP1 DUP1 DUP3 MSTORE DUP1 PUSH1 0x20 MUL PUSH1 0x20 ADD DUP3 ADD PUSH1 0x40 MSTORE DUP1 ISZERO PUSH2 0x121E JUMPI DUP2 PUSH1 0x20 ADD JUMPDEST PUSH2 0x120B PUSH2 0x1733 JUMP JUMPDEST DUP2 MSTORE PUSH1 0x20 ADD SWAP1 PUSH1 0x1 SWAP1 SUB SWAP1 DUP2 PUSH2 0x1203 JUMPI SWAP1 POP JUMPDEST POP SWAP1 POP PUSH1 0x0 JUMPDEST DUP3 DUP2 LT ISZERO PUSH2 0x14DC JUMPI PUSH1 0x0 DUP2 DUP2 SLOAD DUP2 LT PUSH2 0x1240 JUMPI PUSH2 0x123F PUSH2 0x2553 JUMP JUMPDEST JUMPDEST SWAP1 PUSH1 0x0 MSTORE PUSH1 0x20 PUSH1 0x0 KECCAK256 SWAP1 PUSH1 0x5 MUL ADD PUSH1 0x40 MLOAD DUP1 PUSH1 0xA0 ADD PUSH1 0x40 MSTORE SWAP1 DUP2 PUSH1 0x0 DUP3 ADD DUP1 SLOAD PUSH2 0x1269 SWAP1 PUSH2 0x1FF9 JUMP JUMPDEST DUP1 PUSH1 0x1F ADD PUSH1 0x20 DUP1 SWAP2 DIV MUL PUSH1 0x20 ADD PUSH1 0x40 MLOAD SWAP1 DUP2 ADD PUSH1 0x40 MSTORE DUP1 SWAP3 SWAP2 SWAP1 DUP2 DUP2 MSTORE PUSH1 0x20 ADD DUP3 DUP1 SLOAD PUSH2 0x1295 SWAP1 PUSH2 0x1FF9 JUMP JUMPDEST DUP1 ISZERO PUSH2 0x12E2 JUMPI DUP1 PUSH1 0x1F LT PUSH2 0x12B7 JUMPI PUSH2 0x100 DUP1 DUP4 SLOAD DIV MUL DUP4 MSTORE SWAP2 PUSH1 0x20 ADD SWAP2 PUSH2 0x12E2 JUMP JUMPDEST DUP3 ADD SWAP2 SWAP1 PUSH1 0x0 MSTORE PUSH1 0x20 PUSH1 0x0 KECCAK256 SWAP1 JUMPDEST DUP2 SLOAD DUP2 MSTORE SWAP1 PUSH1 0x1 ADD SWAP1 PUSH1 0x20 ADD DUP1 DUP4 GT PUSH2 0x12C5 JUMPI DUP3 SWAP1 SUB PUSH1 0x1F AND DUP3 ADD SWAP2 JUMPDEST POP POP POP POP POP DUP2 MSTORE PUSH1 0x20 ADD PUSH1 0x1 DUP3 ADD DUP1 SLOAD PUSH2 0x12FB SWAP1 PUSH2 0x1FF9 JUMP JUMPDEST DUP1 PUSH1 0x1F ADD PUSH1 0x20 DUP1 SWAP2 DIV MUL PUSH1 0x20 ADD PUSH1 0x40 MLOAD SWAP1 DUP2 ADD PUSH1 0x40 MSTORE DUP1 SWAP3 SWAP2 SWAP1 DUP2 DUP2 MSTORE PUSH1 0x20 ADD DUP3 DUP1 SLOAD PUSH2 0x1327 SWAP1 PUSH2 0x1FF9 JUMP JUMPDEST DUP1 ISZERO PUSH2 0x1374 JUMPI DUP1 PUSH1 0x1F LT PUSH2 0x1349 JUMPI PUSH2 0x100 DUP1 DUP4 SLOAD DIV MUL DUP4 MSTORE SWAP2 PUSH1 0x20 ADD SWAP2 PUSH2 0x1374 JUMP JUMPDEST DUP3 ADD SWAP2 SWAP1 PUSH1 0x0 MSTORE PUSH1 0x20 PUSH1 0x0 KECCAK256 SWAP1 JUMPDEST DUP2 SLOAD DUP2 MSTORE SWAP1 PUSH1 0x1 ADD SWAP1 PUSH1 0x20 ADD DUP1 DUP4 GT PUSH2 0x1357 JUMPI DUP3 SWAP1 SUB PUSH1 0x1F AND DUP3 ADD SWAP2 JUMPDEST POP POP POP POP POP DUP2 MSTORE PUSH1 0x20 ADD PUSH1 0x2 DUP3 ADD DUP1 SLOAD PUSH2 0x138D SWAP1 PUSH2 0x1FF9 JUMP JUMPDEST DUP1 PUSH1 0x1F ADD PUSH1 0x20 DUP1 SWAP2 DIV MUL PUSH1 0x20 ADD PUSH1 0x40 MLOAD SWAP1 DUP2 ADD PUSH1 0x40 MSTORE DUP1 SWAP3 SWAP2 SWAP1 DUP2 DUP2 MSTORE PUSH1 0x20 ADD DUP3 DUP1 SLOAD PUSH2 0x13B9 SWAP1 PUSH2 0x1FF9 JUMP JUMPDEST DUP1 ISZERO PUSH2 0x1406 JUMPI DUP1 PUSH1 0x1F LT PUSH2 0x13DB JUMPI PUSH2 0x100 DUP1 DUP4 SLOAD DIV MUL DUP4 MSTORE SWAP2 PUSH1 0x20 ADD SWAP2 PUSH2 0x1406 JUMP JUMPDEST DUP3 ADD SWAP2 SWAP1 PUSH1 0x0 MSTORE PUSH1 0x20 PUSH1 0x0 KECCAK256 SWAP1 JUMPDEST DUP2 SLOAD DUP2 MSTORE SWAP1 PUSH1 0x1 ADD SWAP1 PUSH1 0x20 ADD DUP1 DUP4 GT PUSH2 0x13E9 JUMPI DUP3 SWAP1 SUB PUSH1 0x1F AND DUP3 ADD SWAP2 JUMPDEST POP POP POP POP POP DUP2 MSTORE PUSH1 0x20 ADD PUSH1 0x3 DUP3 ADD DUP1 SLOAD PUSH2 0x141F SWAP1 PUSH2 0x1FF9 JUMP JUMPDEST DUP1 PUSH1 0x1F ADD PUSH1 0x20 DUP1 SWAP2 DIV MUL PUSH1 0x20 ADD PUSH1 0x40 MLOAD SWAP1 DUP2 ADD PUSH1 0x40 MSTORE DUP1 SWAP3 SWAP2 SWAP1 DUP2 DUP2 MSTORE PUSH1 0x20 ADD DUP3 DUP1 SLOAD PUSH2 0x144B SWAP1 PUSH2 0x1FF9 JUMP JUMPDEST DUP1 ISZERO PUSH2 0x1498 JUMPI DUP1 PUSH1 0x1F LT PUSH2 0x146D JUMPI PUSH2 0x100 DUP1 DUP4 SLOAD DIV MUL DUP4 MSTORE SWAP2 PUSH1 0x20 ADD SWAP2 PUSH2 0x1498 JUMP JUMPDEST DUP3 ADD SWAP2 SWAP1 PUSH1 0x0 MSTORE PUSH1 0x20 PUSH1 0x0 KECCAK256 SWAP1 JUMPDEST DUP2 SLOAD DUP2 MSTORE SWAP1 PUSH1 0x1 ADD SWAP1 PUSH1 0x20 ADD DUP1 DUP4 GT PUSH2 0x147B JUMPI DUP3 SWAP1 SUB PUSH1 0x1F AND DUP3 ADD SWAP2 JUMPDEST POP POP POP POP POP DUP2 MSTORE PUSH1 0x20 ADD PUSH1 0x4 DUP3 ADD SLOAD DUP2 MSTORE POP POP DUP3 DUP3 DUP2 MLOAD DUP2 LT PUSH2 0x14BE JUMPI PUSH2 0x14BD PUSH2 0x2553 JUMP JUMPDEST JUMPDEST PUSH1 0x20 MUL PUSH1 0x20 ADD ADD DUP2 SWAP1 MSTORE POP DUP1 DUP1 PUSH2 0x14D4 SWAP1 PUSH2 0x2582 JUMP JUMPDEST SWAP2 POP POP PUSH2 0x1224 JUMP JUMPDEST POP DUP1 SWAP3 POP POP POP SWAP1 JUMP JUMPDEST PUSH1 0x1 PUSH1 0x0 CALLER PUSH20 0xFFFFFFFFFFFFFFFFFFFFFFFFFFFFFFFFFFFFFFFF AND PUSH20 0xFFFFFFFFFFFFFFFFFFFFFFFFFFFFFFFFFFFFFFFF AND DUP2 MSTORE PUSH1 0x20 ADD SWAP1 DUP2 MSTORE PUSH1 0x20 ADD PUSH1 0x0 KECCAK256 PUSH1 0x0 SWAP1 SLOAD SWAP1 PUSH2 0x100 EXP SWAP1 DIV PUSH1 0xFF AND PUSH2 0x1571 JUMPI PUSH1 0x40 MLOAD PUSH32 0x8C379A000000000000000000000000000000000000000000000000000000000 DUP2 MSTORE PUSH1 0x4 ADD PUSH2 0x1568 SWAP1 PUSH2 0x1FAA JUMP JUMPDEST PUSH1 0x40 MLOAD DUP1 SWAP2 SUB SWAP1 REVERT JUMPDEST PUSH1 0x1 PUSH1 0x3 PUSH1 0x0 DUP8 PUSH20 0xFFFFFFFFFFFFFFFFFFFFFFFFFFFFFFFFFFFFFFFF AND PUSH20 0xFFFFFFFFFFFFFFFFFFFFFFFFFFFFFFFFFFFFFFFF AND DUP2 MSTORE PUSH1 0x20 ADD SWAP1 DUP2 MSTORE PUSH1 0x20 ADD PUSH1 0x0 KECCAK256 PUSH1 0x0 PUSH2 0x100 EXP DUP2 SLOAD DUP2 PUSH1 0xFF MUL NOT AND SWAP1 DUP4 ISZERO ISZERO MUL OR SWAP1 SSTORE POP PUSH1 0x0 PUSH1 0x4 PUSH1 0x0 DUP8 PUSH20 0xFFFFFFFFFFFFFFFFFFFFFFFFFFFFFFFFFFFFFFFF AND PUSH20 0xFFFFFFFFFFFFFFFFFFFFFFFFFFFFFFFFFFFFFFFF AND DUP2 MSTORE PUSH1 0x20 ADD SWAP1 DUP2 MSTORE PUSH1 0x20 ADD PUSH1 0x0 KECCAK256 SWAP1 POP DUP5 DUP2 PUSH1 0x0 ADD SWAP1 DUP2 PUSH2 0x161D SWAP2 SWAP1 PUSH2 0x21D6 JUMP JUMPDEST POP DUP4 DUP2 PUSH1 0x1 ADD SWAP1 DUP2 PUSH2 0x162F SWAP2 SWAP1 PUSH2 0x21D6 JUMP JUMPDEST POP DUP3 DUP2 PUSH1 0x2 ADD SWAP1 DUP2 PUSH2 0x1641 SWAP2 SWAP1 PUSH2 0x21D6 JUMP JUMPDEST POP DUP2 DUP2 PUSH1 0x3 ADD SWAP1 DUP2 PUSH2 0x1653 SWAP2 SWAP1 PUSH2 0x21D6 JUMP JUMPDEST POP PUSH1 0x0 PUSH1 0x40 MLOAD DUP1 PUSH1 0xA0 ADD PUSH1 0x40 MSTORE DUP1 DUP8 DUP2 MSTORE PUSH1 0x20 ADD DUP7 DUP2 MSTORE PUSH1 0x20 ADD DUP6 DUP2 MSTORE PUSH1 0x20 ADD DUP5 DUP2 MSTORE PUSH1 0x20 ADD PUSH1 0x0 DUP2 MSTORE POP SWAP1 DUP1 PUSH1 0x1 DUP2 SLOAD ADD DUP1 DUP3 SSTORE DUP1 SWAP2 POP POP PUSH1 0x1 SWAP1 SUB SWAP1 PUSH1 0x0 MSTORE PUSH1 0x20 PUSH1 0x0 KECCAK256 SWAP1 PUSH1 0x5 MUL ADD PUSH1 0x0 SWAP1 SWAP2 SWAP1 SWAP2 SWAP1 SWAP2 POP PUSH1 0x0 DUP3 ADD MLOAD DUP2 PUSH1 0x0 ADD SWAP1 DUP2 PUSH2 0x16BC SWAP2 SWAP1 PUSH2 0x21D6 JUMP JUMPDEST POP PUSH1 0x20 DUP3 ADD MLOAD DUP2 PUSH1 0x1 ADD SWAP1 DUP2 PUSH2 0x16D2 SWAP2 SWAP1 PUSH2 0x21D6 JUMP JUMPDEST POP PUSH1 0x40 DUP3 ADD MLOAD DUP2 PUSH1 0x2 ADD SWAP1 DUP2 PUSH2 0x16E8 SWAP2 SWAP1 PUSH2 0x21D6 JUMP JUMPDEST POP PUSH1 0x60 DUP3 ADD MLOAD DUP2 PUSH1 0x3 ADD SWAP1 DUP2 PUSH2 0x16FE SWAP2 SWAP1 PUSH2 0x21D6 JUMP JUMPDEST POP PUSH1 0x80 DUP3 ADD MLOAD DUP2 PUSH1 0x4 ADD SSTORE POP POP POP POP POP POP POP POP JUMP JUMPDEST PUSH1 0x1 PUSH1 0x20 MSTORE DUP1 PUSH1 0x0 MSTORE PUSH1 0x40 PUSH1 0x0 KECCAK256 PUSH1 0x0 SWAP2 POP SLOAD SWAP1 PUSH2 0x100 EXP SWAP1 DIV PUSH1 0xFF AND DUP2 JUMP JUMPDEST PUSH1 0x40 MLOAD DUP1 PUSH1 0xA0 ADD PUSH1 0x40 MSTORE DUP1 PUSH1 0x60 DUP2 MSTORE PUSH1 0x20 ADD PUSH1 0x60 DUP2 MSTORE PUSH1 0x20 ADD PUSH1 0x60 DUP2 MSTORE PUSH1 0x20 ADD PUSH1 0x60 DUP2 MSTORE PUSH1 0x20 ADD PUSH1 0x0 DUP2 MSTORE POP SWAP1 JUMP JUMPDEST PUSH1 0x0 PUSH1 0x40 MLOAD SWAP1 POP SWAP1 JUMP JUMPDEST PUSH1 0x0 DUP1 REVERT JUMPDEST PUSH1 0x0 DUP1 REVERT JUMPDEST PUSH1 0x0 PUSH20 0xFFFFFFFFFFFFFFFFFFFFFFFFFFFFFFFFFFFFFFFF DUP3 AND SWAP1 POP SWAP2 SWAP1 POP JUMP JUMPDEST PUSH1 0x0 PUSH2 0x17A1 DUP3 PUSH2 0x1776 JUMP JUMPDEST SWAP1 POP SWAP2 SWAP1 POP JUMP JUMPDEST PUSH2 0x17B1 DUP2 PUSH2 0x1796 JUMP JUMPDEST DUP2 EQ PUSH2 0x17BC JUMPI PUSH1 0x0 DUP1 REVERT JUMPDEST POP JUMP JUMPDEST PUSH1 0x0 DUP2 CALLDATALOAD SWAP1 POP PUSH2 0x17CE DUP2 PUSH2 0x17A8 JUMP JUMPDEST SWAP3 SWAP2 POP POP JUMP JUMPDEST PUSH1 0x0 DUP1 REVERT JUMPDEST PUSH1 0x0 DUP1 REVERT JUMPDEST PUSH1 0x0 PUSH1 0x1F NOT PUSH1 0x1F DUP4 ADD AND SWAP1 POP SWAP2 SWAP1 POP JUMP JUMPDEST PUSH32 0x4E487B7100000000000000000000000000000000000000000000000000000000 PUSH1 0x0 MSTORE PUSH1 0x41 PUSH1 0x4 MSTORE PUSH1 0x24 PUSH1 0x0 REVERT JUMPDEST PUSH2 0x1827 DUP3 PUSH2 0x17DE JUMP JUMPDEST DUP2 ADD DUP2 DUP2 LT PUSH8 0xFFFFFFFFFFFFFFFF DUP3 GT OR ISZERO PUSH2 0x1846 JUMPI PUSH2 0x1845 PUSH2 0x17EF JUMP JUMPDEST JUMPDEST DUP1 PUSH1 0x40 MSTORE POP POP POP JUMP JUMPDEST PUSH1 0x0 PUSH2 0x1859 PUSH2 0x1762 JUMP JUMPDEST SWAP1 POP PUSH2 0x1865 DUP3 DUP3 PUSH2 0x181E JUMP JUMPDEST SWAP2 SWAP1 POP JUMP JUMPDEST PUSH1 0x0 PUSH8 0xFFFFFFFFFFFFFFFF DUP3 GT ISZERO PUSH2 0x1885 JUMPI PUSH2 0x1884 PUSH2 0x17EF JUMP JUMPDEST JUMPDEST PUSH2 0x188E DUP3 PUSH2 0x17DE JUMP JUMPDEST SWAP1 POP PUSH1 0x20 DUP2 ADD SWAP1 POP SWAP2 SWAP1 POP JUMP JUMPDEST DUP3 DUP2 DUP4 CALLDATACOPY PUSH1 0x0 DUP4 DUP4 ADD MSTORE POP POP POP JUMP JUMPDEST PUSH1 0x0 PUSH2 0x18BD PUSH2 0x18B8 DUP5 PUSH2 0x186A JUMP JUMPDEST PUSH2 0x184F JUMP JUMPDEST SWAP1 POP DUP3 DUP2 MSTORE PUSH1 0x20 DUP2 ADD DUP5 DUP5 DUP5 ADD GT ISZERO PUSH2 0x18D9 JUMPI PUSH2 0x18D8 PUSH2 0x17D9 JUMP JUMPDEST JUMPDEST PUSH2 0x18E4 DUP5 DUP3 DUP6 PUSH2 0x189B JUMP JUMPDEST POP SWAP4 SWAP3 POP POP POP JUMP JUMPDEST PUSH1 0x0 DUP3 PUSH1 0x1F DUP4 ADD SLT PUSH2 0x1901 JUMPI PUSH2 0x1900 PUSH2 0x17D4 JUMP JUMPDEST JUMPDEST DUP2 CALLDATALOAD PUSH2 0x1911 DUP5 DUP3 PUSH1 0x20 DUP7 ADD PUSH2 0x18AA JUMP JUMPDEST SWAP2 POP POP SWAP3 SWAP2 POP POP JUMP JUMPDEST PUSH1 0x0 DUP1 PUSH1 0x0 DUP1 PUSH1 0x80 DUP6 DUP8 SUB SLT ISZERO PUSH2 0x1934 JUMPI PUSH2 0x1933 PUSH2 0x176C JUMP JUMPDEST JUMPDEST PUSH1 0x0 PUSH2 0x1942 DUP8 DUP3 DUP9 ADD PUSH2 0x17BF JUMP JUMPDEST SWAP5 POP POP PUSH1 0x20 DUP6 ADD CALLDATALOAD PUSH8 0xFFFFFFFFFFFFFFFF DUP2 GT ISZERO PUSH2 0x1963 JUMPI PUSH2 0x1962 PUSH2 0x1771 JUMP JUMPDEST JUMPDEST PUSH2 0x196F DUP8 DUP3 DUP9 ADD PUSH2 0x18EC JUMP JUMPDEST SWAP4 POP POP PUSH1 0x40 DUP6 ADD CALLDATALOAD PUSH8 0xFFFFFFFFFFFFFFFF DUP2 GT ISZERO PUSH2 0x1990 JUMPI PUSH2 0x198F PUSH2 0x1771 JUMP JUMPDEST JUMPDEST PUSH2 0x199C DUP8 DUP3 DUP9 ADD PUSH2 0x18EC JUMP JUMPDEST SWAP3 POP POP PUSH1 0x60 DUP6 ADD CALLDATALOAD PUSH8 0xFFFFFFFFFFFFFFFF DUP2 GT ISZERO PUSH2 0x19BD JUMPI PUSH2 0x19BC PUSH2 0x1771 JUMP JUMPDEST JUMPDEST PUSH2 0x19C9 DUP8 DUP3 DUP9 ADD PUSH2 0x18EC JUMP JUMPDEST SWAP2 POP POP SWAP3 SWAP6 SWAP2 SWAP5 POP SWAP3 POP JUMP JUMPDEST PUSH1 0x0 PUSH1 0x20 DUP3 DUP5 SUB SLT ISZERO PUSH2 0x19EB JUMPI PUSH2 0x19EA PUSH2 0x176C JUMP JUMPDEST JUMPDEST PUSH1 0x0 PUSH2 0x19F9 DUP5 DUP3 DUP6 ADD PUSH2 0x17BF JUMP JUMPDEST SWAP2 POP POP SWAP3 SWAP2 POP POP JUMP JUMPDEST PUSH1 0x0 DUP2 SWAP1 POP SWAP2 SWAP1 POP JUMP JUMPDEST PUSH2 0x1A15 DUP2 PUSH2 0x1A02 JUMP JUMPDEST DUP2 EQ PUSH2 0x1A20 JUMPI PUSH1 0x0 DUP1 REVERT JUMPDEST POP JUMP JUMPDEST PUSH1 0x0 DUP2 CALLDATALOAD SWAP1 POP PUSH2 0x1A32 DUP2 PUSH2 0x1A0C JUMP JUMPDEST SWAP3 SWAP2 POP POP JUMP JUMPDEST PUSH1 0x0 DUP1 PUSH1 0x40 DUP4 DUP6 SUB SLT ISZERO PUSH2 0x1A4F JUMPI PUSH2 0x1A4E PUSH2 0x176C JUMP JUMPDEST JUMPDEST PUSH1 0x0 PUSH2 0x1A5D DUP6 DUP3 DUP7 ADD PUSH2 0x17BF JUMP JUMPDEST SWAP3 POP POP PUSH1 0x20 PUSH2 0x1A6E DUP6 DUP3 DUP7 ADD PUSH2 0x1A23 JUMP JUMPDEST SWAP2 POP POP SWAP3 POP SWAP3 SWAP1 POP JUMP JUMPDEST PUSH1 0x0 DUP2 MLOAD SWAP1 POP SWAP2 SWAP1 POP JUMP JUMPDEST PUSH1 0x0 DUP3 DUP3 MSTORE PUSH1 0x20 DUP3 ADD SWAP1 POP SWAP3 SWAP2 POP POP JUMP JUMPDEST PUSH1 0x0 JUMPDEST DUP4 DUP2 LT ISZERO PUSH2 0x1AB2 JUMPI DUP1 DUP3 ADD MLOAD DUP2 DUP5 ADD MSTORE PUSH1 0x20 DUP2 ADD SWAP1 POP PUSH2 0x1A97 JUMP JUMPDEST PUSH1 0x0 DUP5 DUP5 ADD MSTORE POP POP POP POP JUMP JUMPDEST PUSH1 0x0 PUSH2 0x1AC9 DUP3 PUSH2 0x1A78 JUMP JUMPDEST PUSH2 0x1AD3 DUP2 DUP6 PUSH2 0x1A83 JUMP JUMPDEST SWAP4 POP PUSH2 0x1AE3 DUP2 DUP6 PUSH1 0x20 DUP7 ADD PUSH2 0x1A94 JUMP JUMPDEST PUSH2 0x1AEC DUP2 PUSH2 0x17DE JUMP JUMPDEST DUP5 ADD SWAP2 POP POP SWAP3 SWAP2 POP POP JUMP JUMPDEST PUSH2 0x1B00 DUP2 PUSH2 0x1A02 JUMP JUMPDEST DUP3 MSTORE POP POP JUMP JUMPDEST PUSH1 0x0 PUSH1 0xA0 DUP3 ADD SWAP1 POP DUP2 DUP2 SUB PUSH1 0x0 DUP4 ADD MSTORE PUSH2 0x1B20 DUP2 DUP9 PUSH2 0x1ABE JUMP JUMPDEST SWAP1 POP DUP2 DUP2 SUB PUSH1 0x20 DUP4 ADD MSTORE PUSH2 0x1B34 DUP2 DUP8 PUSH2 0x1ABE JUMP JUMPDEST SWAP1 POP DUP2 DUP2 SUB PUSH1 0x40 DUP4 ADD MSTORE PUSH2 0x1B48 DUP2 DUP7 PUSH2 0x1ABE JUMP JUMPDEST SWAP1 POP DUP2 DUP2 SUB PUSH1 0x60 DUP4 ADD MSTORE PUSH2 0x1B5C DUP2 DUP6 PUSH2 0x1ABE JUMP JUMPDEST SWAP1 POP PUSH2 0x1B6B PUSH1 0x80 DUP4 ADD DUP5 PUSH2 0x1AF7 JUMP JUMPDEST SWAP7 SWAP6 POP POP POP POP POP POP JUMP JUMPDEST PUSH1 0x0 PUSH1 0x60 DUP3 ADD SWAP1 POP DUP2 DUP2 SUB PUSH1 0x0 DUP4 ADD MSTORE PUSH2 0x1B8F DUP2 DUP7 PUSH2 0x1ABE JUMP JUMPDEST SWAP1 POP DUP2 DUP2 SUB PUSH1 0x20 DUP4 ADD MSTORE PUSH2 0x1BA3 DUP2 DUP6 PUSH2 0x1ABE JUMP JUMPDEST SWAP1 POP DUP2 DUP2 SUB PUSH1 0x40 DUP4 ADD MSTORE PUSH2 0x1BB7 DUP2 DUP5 PUSH2 0x1ABE JUMP JUMPDEST SWAP1 POP SWAP5 SWAP4 POP POP POP POP JUMP JUMPDEST PUSH1 0x0 PUSH1 0x20 DUP3 DUP5 SUB SLT ISZERO PUSH2 0x1BD7 JUMPI PUSH2 0x1BD6 PUSH2 0x176C JUMP JUMPDEST JUMPDEST PUSH1 0x0 PUSH2 0x1BE5 DUP5 DUP3 DUP6 ADD PUSH2 0x1A23 JUMP JUMPDEST SWAP2 POP POP SWAP3 SWAP2 POP POP JUMP JUMPDEST PUSH1 0x0 PUSH1 0x80 DUP3 ADD SWAP1 POP DUP2 DUP2 SUB PUSH1 0x0 DUP4 ADD MSTORE PUSH2 0x1C08 DUP2 DUP8 PUSH2 0x1ABE JUMP JUMPDEST SWAP1 POP DUP2 DUP2 SUB PUSH1 0x20 DUP4 ADD MSTORE PUSH2 0x1C1C DUP2 DUP7 PUSH2 0x1ABE JUMP JUMPDEST SWAP1 POP DUP2 DUP2 SUB PUSH1 0x40 DUP4 ADD MSTORE PUSH2 0x1C30 DUP2 DUP6 PUSH2 0x1ABE JUMP JUMPDEST SWAP1 POP DUP2 DUP2 SUB PUSH1 0x60 DUP4 ADD MSTORE PUSH2 0x1C44 DUP2 DUP5 PUSH2 0x1ABE JUMP JUMPDEST SWAP1 POP SWAP6 SWAP5 POP POP POP POP POP JUMP JUMPDEST PUSH1 0x0 DUP2 MLOAD SWAP1 POP SWAP2 SWAP1 POP JUMP JUMPDEST PUSH1 0x0 DUP3 DUP3 MSTORE PUSH1 0x20 DUP3 ADD SWAP1 POP SWAP3 SWAP2 POP POP JUMP JUMPDEST PUSH1 0x0 DUP2 SWAP1 POP PUSH1 0x20 DUP3 ADD SWAP1 POP SWAP2 SWAP1 POP JUMP JUMPDEST PUSH1 0x0 DUP3 DUP3 MSTORE PUSH1 0x20 DUP3 ADD SWAP1 POP SWAP3 SWAP2 POP POP JUMP JUMPDEST PUSH1 0x0 PUSH2 0x1C97 DUP3 PUSH2 0x1A78 JUMP JUMPDEST PUSH2 0x1CA1 DUP2 DUP6 PUSH2 0x1C7B JUMP JUMPDEST SWAP4 POP PUSH2 0x1CB1 DUP2 DUP6 PUSH1 0x20 DUP7 ADD PUSH2 0x1A94 JUMP JUMPDEST PUSH2 0x1CBA DUP2 PUSH2 0x17DE JUMP JUMPDEST DUP5 ADD SWAP2 POP POP SWAP3 SWAP2 POP POP JUMP JUMPDEST PUSH2 0x1CCE DUP2 PUSH2 0x1A02 JUMP JUMPDEST DUP3 MSTORE POP POP JUMP JUMPDEST PUSH1 0x0 PUSH1 0xA0 DUP4 ADD PUSH1 0x0 DUP4 ADD MLOAD DUP5 DUP3 SUB PUSH1 0x0 DUP7 ADD MSTORE PUSH2 0x1CF1 DUP3 DUP3 PUSH2 0x1C8C JUMP JUMPDEST SWAP2 POP POP PUSH1 0x20 DUP4 ADD MLOAD DUP5 DUP3 SUB PUSH1 0x20 DUP7 ADD MSTORE PUSH2 0x1D0B DUP3 DUP3 PUSH2 0x1C8C JUMP JUMPDEST SWAP2 POP POP PUSH1 0x40 DUP4 ADD MLOAD DUP5 DUP3 SUB PUSH1 0x40 DUP7 ADD MSTORE PUSH2 0x1D25 DUP3 DUP3 PUSH2 0x1C8C JUMP JUMPDEST SWAP2 POP POP PUSH1 0x60 DUP4 ADD MLOAD DUP5 DUP3 SUB PUSH1 0x60 DUP7 ADD MSTORE PUSH2 0x1D3F DUP3 DUP3 PUSH2 0x1C8C JUMP JUMPDEST SWAP2 POP POP PUSH1 0x80 DUP4 ADD MLOAD PUSH2 0x1D54 PUSH1 0x80 DUP7 ADD DUP3 PUSH2 0x1CC5 JUMP JUMPDEST POP DUP1 SWAP2 POP POP SWAP3 SWAP2 POP POP JUMP JUMPDEST PUSH1 0x0 PUSH2 0x1D6B DUP4 DUP4 PUSH2 0x1CD4 JUMP JUMPDEST SWAP1 POP SWAP3 SWAP2 POP POP JUMP JUMPDEST PUSH1 0x0 PUSH1 0x20 DUP3 ADD SWAP1 POP SWAP2 SWAP1 POP JUMP JUMPDEST PUSH1 0x0 PUSH2 0x1D8B DUP3 PUSH2 0x1C4F JUMP JUMPDEST PUSH2 0x1D95 DUP2 DUP6 PUSH2 0x1C5A JUMP JUMPDEST SWAP4 POP DUP4 PUSH1 0x20 DUP3 MUL DUP6 ADD PUSH2 0x1DA7 DUP6 PUSH2 0x1C6B JUMP JUMPDEST DUP1 PUSH1 0x0 JUMPDEST DUP6 DUP2 LT ISZERO PUSH2 0x1DE3 JUMPI DUP5 DUP5 SUB DUP10 MSTORE DUP2 MLOAD PUSH2 0x1DC4 DUP6 DUP3 PUSH2 0x1D5F JUMP JUMPDEST SWAP5 POP PUSH2 0x1DCF DUP4 PUSH2 0x1D73 JUMP JUMPDEST SWAP3 POP PUSH1 0x20 DUP11 ADD SWAP10 POP POP PUSH1 0x1 DUP2 ADD SWAP1 POP PUSH2 0x1DAB JUMP JUMPDEST POP DUP3 SWAP8 POP DUP8 SWAP6 POP POP POP POP POP POP SWAP3 SWAP2 POP POP JUMP JUMPDEST PUSH1 0x0 PUSH1 0x20 DUP3 ADD SWAP1 POP DUP2 DUP2 SUB PUSH1 0x0 DUP4 ADD MSTORE PUSH2 0x1E0F DUP2 DUP5 PUSH2 0x1D80 JUMP JUMPDEST SWAP1 POP SWAP3 SWAP2 POP POP JUMP JUMPDEST PUSH1 0x0 DUP1 PUSH1 0x0 DUP1 PUSH1 0x0 PUSH1 0xA0 DUP7 DUP9 SUB SLT ISZERO PUSH2 0x1E33 JUMPI PUSH2 0x1E32 PUSH2 0x176C JUMP JUMPDEST JUMPDEST PUSH1 0x0 PUSH2 0x1E41 DUP9 DUP3 DUP10 ADD PUSH2 0x17BF JUMP JUMPDEST SWAP6 POP POP PUSH1 0x20 DUP7 ADD CALLDATALOAD PUSH8 0xFFFFFFFFFFFFFFFF DUP2 GT ISZERO PUSH2 0x1E62 JUMPI PUSH2 0x1E61 PUSH2 0x1771 JUMP JUMPDEST JUMPDEST PUSH2 0x1E6E DUP9 DUP3 DUP10 ADD PUSH2 0x18EC JUMP JUMPDEST SWAP5 POP POP PUSH1 0x40 DUP7 ADD CALLDATALOAD PUSH8 0xFFFFFFFFFFFFFFFF DUP2 GT ISZERO PUSH2 0x1E8F JUMPI PUSH2 0x1E8E PUSH2 0x1771 JUMP JUMPDEST JUMPDEST PUSH2 0x1E9B DUP9 DUP3 DUP10 ADD PUSH2 0x18EC JUMP JUMPDEST SWAP4 POP POP PUSH1 0x60 DUP7 ADD CALLDATALOAD PUSH8 0xFFFFFFFFFFFFFFFF DUP2 GT ISZERO PUSH2 0x1EBC JUMPI PUSH2 0x1EBB PUSH2 0x1771 JUMP JUMPDEST JUMPDEST PUSH2 0x1EC8 DUP9 DUP3 DUP10 ADD PUSH2 0x18EC JUMP JUMPDEST SWAP3 POP POP PUSH1 0x80 DUP7 ADD CALLDATALOAD PUSH8 0xFFFFFFFFFFFFFFFF DUP2 GT ISZERO PUSH2 0x1EE9 JUMPI PUSH2 0x1EE8 PUSH2 0x1771 JUMP JUMPDEST JUMPDEST PUSH2 0x1EF5 DUP9 DUP3 DUP10 ADD PUSH2 0x18EC JUMP JUMPDEST SWAP2 POP POP SWAP3 SWAP6 POP SWAP3 SWAP6 SWAP1 SWAP4 POP JUMP JUMPDEST PUSH1 0x0 DUP2 ISZERO ISZERO SWAP1 POP SWAP2 SWAP1 POP JUMP JUMPDEST PUSH2 0x1F17 DUP2 PUSH2 0x1F02 JUMP JUMPDEST DUP3 MSTORE POP POP JUMP JUMPDEST PUSH1 0x0 PUSH1 0x20 DUP3 ADD SWAP1 POP PUSH2 0x1F32 PUSH1 0x0 DUP4 ADD DUP5 PUSH2 0x1F0E JUMP JUMPDEST SWAP3 SWAP2 POP POP JUMP JUMPDEST PUSH32 0x4F6E6C7920617574686F72697A656420697373756572732063616E2063616C6C PUSH1 0x0 DUP3 ADD MSTORE PUSH32 0x20746869732066756E6374696F6E000000000000000000000000000000000000 PUSH1 0x20 DUP3 ADD MSTORE POP JUMP JUMPDEST PUSH1 0x0 PUSH2 0x1F94 PUSH1 0x2E DUP4 PUSH2 0x1A83 JUMP JUMPDEST SWAP2 POP PUSH2 0x1F9F DUP3 PUSH2 0x1F38 JUMP JUMPDEST PUSH1 0x40 DUP3 ADD SWAP1 POP SWAP2 SWAP1 POP JUMP JUMPDEST PUSH1 0x0 PUSH1 0x20 DUP3 ADD SWAP1 POP DUP2 DUP2 SUB PUSH1 0x0 DUP4 ADD MSTORE PUSH2 0x1FC3 DUP2 PUSH2 0x1F87 JUMP JUMPDEST SWAP1 POP SWAP2 SWAP1 POP JUMP JUMPDEST PUSH32 0x4E487B7100000000000000000000000000000000000000000000000000000000 PUSH1 0x0 MSTORE PUSH1 0x22 PUSH1 0x4 MSTORE PUSH1 0x24 PUSH1 0x0 REVERT JUMPDEST PUSH1 0x0 PUSH1 0x2 DUP3 DIV SWAP1 POP PUSH1 0x1 DUP3 AND DUP1 PUSH2 0x2011 JUMPI PUSH1 0x7F DUP3 AND SWAP2 POP JUMPDEST PUSH1 0x20 DUP3 LT DUP2 SUB PUSH2 0x2024 JUMPI PUSH2 0x2023 PUSH2 0x1FCA JUMP JUMPDEST JUMPDEST POP SWAP2 SWAP1 POP JUMP JUMPDEST PUSH1 0x0 DUP2 SWAP1 POP DUP2 PUSH1 0x0 MSTORE PUSH1 0x20 PUSH1 0x0 KECCAK256 SWAP1 POP SWAP2 SWAP1 POP JUMP JUMPDEST PUSH1 0x0 PUSH1 0x20 PUSH1 0x1F DUP4 ADD DIV SWAP1 POP SWAP2 SWAP1 POP JUMP JUMPDEST PUSH1 0x0 DUP3 DUP3 SHL SWAP1 POP SWAP3 SWAP2 POP POP JUMP JUMPDEST PUSH1 0x0 PUSH1 0x8 DUP4 MUL PUSH2 0x208C PUSH32 0xFFFFFFFFFFFFFFFFFFFFFFFFFFFFFFFFFFFFFFFFFFFFFFFFFFFFFFFFFFFFFFFF DUP3 PUSH2 0x204F JUMP JUMPDEST PUSH2 0x2096 DUP7 DUP4 PUSH2 0x204F JUMP JUMPDEST SWAP6 POP DUP1 NOT DUP5 AND SWAP4 POP DUP1 DUP7 AND DUP5 OR SWAP3 POP POP POP SWAP4 SWAP3 POP POP POP JUMP JUMPDEST PUSH1 0x0 DUP2 SWAP1 POP SWAP2 SWAP1 POP JUMP JUMPDEST PUSH1 0x0 PUSH2 0x20D3 PUSH2 0x20CE PUSH2 0x20C9 DUP5 PUSH2 0x1A02 JUMP JUMPDEST PUSH2 0x20AE JUMP JUMPDEST PUSH2 0x1A02 JUMP JUMPDEST SWAP1 POP SWAP2 SWAP1 POP JUMP JUMPDEST PUSH1 0x0 DUP2 SWAP1 POP SWAP2 SWAP1 POP JUMP JUMPDEST PUSH2 0x20ED DUP4 PUSH2 0x20B8 JUMP JUMPDEST PUSH2 0x2101 PUSH2 0x20F9 DUP3 PUSH2 0x20DA JUMP JUMPDEST DUP5 DUP5 SLOAD PUSH2 0x205C JUMP JUMPDEST DUP3 SSTORE POP POP POP POP JUMP JUMPDEST PUSH1 0x0 SWAP1 JUMP JUMPDEST PUSH2 0x2116 PUSH2 0x2109 JUMP JUMPDEST PUSH2 0x2121 DUP2 DUP5 DUP5 PUSH2 0x20E4 JUMP JUMPDEST POP POP POP JUMP JUMPDEST JUMPDEST DUP2 DUP2 LT ISZERO PUSH2 0x2145 JUMPI PUSH2 0x213A PUSH1 0x0 DUP3 PUSH2 0x210E JUMP JUMPDEST PUSH1 0x1 DUP2 ADD SWAP1 POP PUSH2 0x2127 JUMP JUMPDEST POP POP JUMP JUMPDEST PUSH1 0x1F DUP3 GT ISZERO PUSH2 0x218A JUMPI PUSH2 0x215B DUP2 PUSH2 0x202A JUMP JUMPDEST PUSH2 0x2164 DUP5 PUSH2 0x203F JUMP JUMPDEST DUP2 ADD PUSH1 0x20 DUP6 LT ISZERO PUSH2 0x2173 JUMPI DUP2 SWAP1 POP JUMPDEST PUSH2 0x2187 PUSH2 0x217F DUP6 PUSH2 0x203F JUMP JUMPDEST DUP4 ADD DUP3 PUSH2 0x2126 JUMP JUMPDEST POP POP JUMPDEST POP POP POP JUMP JUMPDEST PUSH1 0x0 DUP3 DUP3 SHR SWAP1 POP SWAP3 SWAP2 POP POP JUMP JUMPDEST PUSH1 0x0 PUSH2 0x21AD PUSH1 0x0 NOT DUP5 PUSH1 0x8 MUL PUSH2 0x218F JUMP JUMPDEST NOT DUP1 DUP4 AND SWAP2 POP POP SWAP3 SWAP2 POP POP JUMP JUMPDEST PUSH1 0x0 PUSH2 0x21C6 DUP4 DUP4 PUSH2 0x219C JUMP JUMPDEST SWAP2 POP DUP3 PUSH1 0x2 MUL DUP3 OR SWAP1 POP SWAP3 SWAP2 POP POP JUMP JUMPDEST PUSH2 0x21DF DUP3 PUSH2 0x1A78 JUMP JUMPDEST PUSH8 0xFFFFFFFFFFFFFFFF DUP2 GT ISZERO PUSH2 0x21F8 JUMPI PUSH2 0x21F7 PUSH2 0x17EF JUMP JUMPDEST JUMPDEST PUSH2 0x2202 DUP3 SLOAD PUSH2 0x1FF9 JUMP JUMPDEST PUSH2 0x220D DUP3 DUP3 DUP6 PUSH2 0x2149 JUMP JUMPDEST PUSH1 0x0 PUSH1 0x20 SWAP1 POP PUSH1 0x1F DUP4 GT PUSH1 0x1 DUP2 EQ PUSH2 0x2240 JUMPI PUSH1 0x0 DUP5 ISZERO PUSH2 0x222E JUMPI DUP3 DUP8 ADD MLOAD SWAP1 POP JUMPDEST PUSH2 0x2238 DUP6 DUP3 PUSH2 0x21BA JUMP JUMPDEST DUP7 SSTORE POP PUSH2 0x22A0 JUMP JUMPDEST PUSH1 0x1F NOT DUP5 AND PUSH2 0x224E DUP7 PUSH2 0x202A JUMP JUMPDEST PUSH1 0x0 JUMPDEST DUP3 DUP2 LT ISZERO PUSH2 0x2276 JUMPI DUP5 DUP10 ADD MLOAD DUP3 SSTORE PUSH1 0x1 DUP3 ADD SWAP2 POP PUSH1 0x20 DUP6 ADD SWAP5 POP PUSH1 0x20 DUP2 ADD SWAP1 POP PUSH2 0x2251 JUMP JUMPDEST DUP7 DUP4 LT ISZERO PUSH2 0x2293 JUMPI DUP5 DUP10 ADD MLOAD PUSH2 0x228F PUSH1 0x1F DUP10 AND DUP3 PUSH2 0x219C JUMP JUMPDEST DUP4 SSTORE POP JUMPDEST PUSH1 0x1 PUSH1 0x2 DUP9 MUL ADD DUP9 SSTORE POP POP POP JUMPDEST POP POP POP POP POP POP JUMP JUMPDEST PUSH32 0x4F6E6C792073747564656E742063616E2063616C6C20746869732066756E6374 PUSH1 0x0 DUP3 ADD MSTORE PUSH32 0x696F6E0000000000000000000000000000000000000000000000000000000000 PUSH1 0x20 DUP3 ADD MSTORE POP JUMP JUMPDEST PUSH1 0x0 PUSH2 0x2304 PUSH1 0x23 DUP4 PUSH2 0x1A83 JUMP JUMPDEST SWAP2 POP PUSH2 0x230F DUP3 PUSH2 0x22A8 JUMP JUMPDEST PUSH1 0x40 DUP3 ADD SWAP1 POP SWAP2 SWAP1 POP JUMP JUMPDEST PUSH1 0x0 PUSH1 0x20 DUP3 ADD SWAP1 POP DUP2 DUP2 SUB PUSH1 0x0 DUP4 ADD MSTORE PUSH2 0x2333 DUP2 PUSH2 0x22F7 JUMP JUMPDEST SWAP1 POP SWAP2 SWAP1 POP JUMP JUMPDEST PUSH32 0x4E487B7100000000000000000000000000000000000000000000000000000000 PUSH1 0x0 MSTORE PUSH1 0x11 PUSH1 0x4 MSTORE PUSH1 0x24 PUSH1 0x0 REVERT JUMPDEST PUSH1 0x0 PUSH2 0x2374 DUP3 PUSH2 0x1A02 JUMP JUMPDEST SWAP2 POP PUSH2 0x237F DUP4 PUSH2 0x1A02 JUMP JUMPDEST SWAP3 POP DUP3 DUP3 ADD SWAP1 POP DUP1 DUP3 GT ISZERO PUSH2 0x2397 JUMPI PUSH2 0x2396 PUSH2 0x233A JUMP JUMPDEST JUMPDEST SWAP3 SWAP2 POP POP JUMP JUMPDEST PUSH32 0x4F6E6C7920617574686F72697A656420766965776572732063616E2063616C6C PUSH1 0x0 DUP3 ADD MSTORE PUSH32 0x20746869732066756E6374696F6E000000000000000000000000000000000000 PUSH1 0x20 DUP3 ADD MSTORE POP JUMP JUMPDEST PUSH1 0x0 PUSH2 0x23F9 PUSH1 0x2E DUP4 PUSH2 0x1A83 JUMP JUMPDEST SWAP2 POP PUSH2 0x2404 DUP3 PUSH2 0x239D JUMP JUMPDEST PUSH1 0x40 DUP3 ADD SWAP1 POP SWAP2 SWAP1 POP JUMP JUMPDEST PUSH1 0x0 PUSH1 0x20 DUP3 ADD SWAP1 POP DUP2 DUP2 SUB PUSH1 0x0 DUP4 ADD MSTORE PUSH2 0x2428 DUP2 PUSH2 0x23EC JUMP JUMPDEST SWAP1 POP SWAP2 SWAP1 POP JUMP JUMPDEST PUSH32 0x53747564656E74206E6F7420666F756E64206F7220756E617574686F72697A65 PUSH1 0x0 DUP3 ADD MSTORE PUSH32 0x642E000000000000000000000000000000000000000000000000000000000000 PUSH1 0x20 DUP3 ADD MSTORE POP JUMP JUMPDEST PUSH1 0x0 PUSH2 0x248B PUSH1 0x22 DUP4 PUSH2 0x1A83 JUMP JUMPDEST SWAP2 POP PUSH2 0x2496 DUP3 PUSH2 0x242F JUMP JUMPDEST PUSH1 0x40 DUP3 ADD SWAP1 POP SWAP2 SWAP1 POP JUMP JUMPDEST PUSH1 0x0 PUSH1 0x20 DUP3 ADD SWAP1 POP DUP2 DUP2 SUB PUSH1 0x0 DUP4 ADD MSTORE PUSH2 0x24BA DUP2 PUSH2 0x247E JUMP JUMPDEST SWAP1 POP SWAP2 SWAP1 POP JUMP JUMPDEST PUSH32 0x596F7520617265206E6F7420617574686F72697A656420746F2072756E207468 PUSH1 0x0 DUP3 ADD MSTORE PUSH32 0x69732066756E6374696F6E2E0000000000000000000000000000000000000000 PUSH1 0x20 DUP3 ADD MSTORE POP JUMP JUMPDEST PUSH1 0x0 PUSH2 0x251D PUSH1 0x2C DUP4 PUSH2 0x1A83 JUMP JUMPDEST SWAP2 POP PUSH2 0x2528 DUP3 PUSH2 0x24C1 JUMP JUMPDEST PUSH1 0x40 DUP3 ADD SWAP1 POP SWAP2 SWAP1 POP JUMP JUMPDEST PUSH1 0x0 PUSH1 0x20 DUP3 ADD SWAP1 POP DUP2 DUP2 SUB PUSH1 0x0 DUP4 ADD MSTORE PUSH2 0x254C DUP2 PUSH2 0x2510 JUMP JUMPDEST SWAP1 POP SWAP2 SWAP1 POP JUMP JUMPDEST PUSH32 0x4E487B7100000000000000000000000000000000000000000000000000000000 PUSH1 0x0 MSTORE PUSH1 0x32 PUSH1 0x4 MSTORE PUSH1 0x24 PUSH1 0x0 REVERT JUMPDEST PUSH1 0x0 PUSH2 0x258D DUP3 PUSH2 0x1A02 JUMP JUMPDEST SWAP2 POP PUSH32 0xFFFFFFFFFFFFFFFFFFFFFFFFFFFFFFFFFFFFFFFFFFFFFFFFFFFFFFFFFFFFFFFF DUP3 SUB PUSH2 0x25BF JUMPI PUSH2 0x25BE PUSH2 0x233A JUMP JUMPDEST JUMPDEST PUSH1 0x1 DUP3 ADD SWAP1 POP SWAP2 SWAP1 POP JUMP INVALID LOG2 PUSH5 0x6970667358 0x22 SLT KECCAK256 DUP10 0xE9 SELFDESTRUCT EXTCODESIZE RETURNDATASIZE DUP7 0xCC CALLVALUE EQ 0xCA DUP16 0xD1 0xEC 0x2E MUL MSTORE8 PREVRANDAO SWAP5 SLOAD SWAP10 0xBE 0xA7 PUSH2 0x8EC7 0xE0 0xB7 MLOAD 0xDE 0xF6 DUP2 SGT PUSH5 0x736F6C6343 STOP ADDMOD SLT STOP CALLER "
				},
				"gasEstimates": {
					"creation": {
						"codeDepositCost": "1945600",
						"executionCost": "26411",
						"totalCost": "1972011"
					},
					"external": {
						"StudentCertificate(uint256)": "infinite",
						"addAdmin(address,string,string,string)": "infinite",
						"addViewer(address,uint256)": "infinite",
						"authorizedIssuers(address)": "2933",
						"getAdmin()": "infinite",
						"getCertificate()": "infinite",
						"issueCertificate(address,string,string,string,string)": "infinite",
						"removeAdmin(address)": "27077",
						"viewCertificate(address)": "infinite",
						"viewStudent()": "infinite"
					}
				},
				"methodIdentifiers": {
					"StudentCertificate(uint256)": "9da60e49",
					"addAdmin(address,string,string,string)": "03825d6c",
					"addViewer(address,uint256)": "1b1d639d",
					"authorizedIssuers(address)": "f731fa0f",
					"getAdmin()": "6e9960c3",
					"getCertificate()": "ae15eb8e",
					"issueCertificate(address,string,string,string,string)": "e9dd92ee",
					"removeAdmin(address)": "1785f53c",
					"viewCertificate(address)": "64dbbaa2",
					"viewStudent()": "b05e0626"
				}
			},
			"storageLayout": {
				"storage": [
					{
						"astId": 23,
						"contract": "contracts/setAccessTime.sol:Certificate",
						"label": "StudentCertificate",
						"offset": 0,
						"slot": "0",
						"type": "t_array(t_struct(Student)12_storage)dyn_storage"
					},
					{
						"astId": 27,
						"contract": "contracts/setAccessTime.sol:Certificate",
						"label": "authorizedIssuers",
						"offset": 0,
						"slot": "1",
						"type": "t_mapping(t_address,t_bool)"
					},
					{
						"astId": 31,
						"contract": "contracts/setAccessTime.sol:Certificate",
						"label": "authorizedViewers",
						"offset": 0,
						"slot": "2",
						"type": "t_mapping(t_address,t_bool)"
					},
					{
						"astId": 35,
						"contract": "contracts/setAccessTime.sol:Certificate",
						"label": "authorizedStudent",
						"offset": 0,
						"slot": "3",
						"type": "t_mapping(t_address,t_bool)"
					},
					{
						"astId": 40,
						"contract": "contracts/setAccessTime.sol:Certificate",
						"label": "students",
						"offset": 0,
						"slot": "4",
						"type": "t_mapping(t_address,t_struct(Student)12_storage)"
					},
					{
						"astId": 45,
						"contract": "contracts/setAccessTime.sol:Certificate",
						"label": "admins",
						"offset": 0,
						"slot": "5",
						"type": "t_mapping(t_address,t_struct(Admin)19_storage)"
					},
					{
						"astId": 49,
						"contract": "contracts/setAccessTime.sol:Certificate",
						"label": "viewerAccessTimes",
						"offset": 0,
						"slot": "6",
						"type": "t_mapping(t_address,t_uint256)"
					}
				],
				"types": {
					"t_address": {
						"encoding": "inplace",
						"label": "address",
						"numberOfBytes": "20"
					},
					"t_array(t_struct(Student)12_storage)dyn_storage": {
						"base": "t_struct(Student)12_storage",
						"encoding": "dynamic_array",
						"label": "struct Certificate.Student[]",
						"numberOfBytes": "32"
					},
					"t_bool": {
						"encoding": "inplace",
						"label": "bool",
						"numberOfBytes": "1"
					},
					"t_mapping(t_address,t_bool)": {
						"encoding": "mapping",
						"key": "t_address",
						"label": "mapping(address => bool)",
						"numberOfBytes": "32",
						"value": "t_bool"
					},
					"t_mapping(t_address,t_struct(Admin)19_storage)": {
						"encoding": "mapping",
						"key": "t_address",
						"label": "mapping(address => struct Certificate.Admin)",
						"numberOfBytes": "32",
						"value": "t_struct(Admin)19_storage"
					},
					"t_mapping(t_address,t_struct(Student)12_storage)": {
						"encoding": "mapping",
						"key": "t_address",
						"label": "mapping(address => struct Certificate.Student)",
						"numberOfBytes": "32",
						"value": "t_struct(Student)12_storage"
					},
					"t_mapping(t_address,t_uint256)": {
						"encoding": "mapping",
						"key": "t_address",
						"label": "mapping(address => uint256)",
						"numberOfBytes": "32",
						"value": "t_uint256"
					},
					"t_string_storage": {
						"encoding": "bytes",
						"label": "string",
						"numberOfBytes": "32"
					},
					"t_struct(Admin)19_storage": {
						"encoding": "inplace",
						"label": "struct Certificate.Admin",
						"members": [
							{
								"astId": 14,
								"contract": "contracts/setAccessTime.sol:Certificate",
								"label": "name",
								"offset": 0,
								"slot": "0",
								"type": "t_string_storage"
							},
							{
								"astId": 16,
								"contract": "contracts/setAccessTime.sol:Certificate",
								"label": "adminId",
								"offset": 0,
								"slot": "1",
								"type": "t_string_storage"
							},
							{
								"astId": 18,
								"contract": "contracts/setAccessTime.sol:Certificate",
								"label": "position",
								"offset": 0,
								"slot": "2",
								"type": "t_string_storage"
							}
						],
						"numberOfBytes": "96"
					},
					"t_struct(Student)12_storage": {
						"encoding": "inplace",
						"label": "struct Certificate.Student",
						"members": [
							{
								"astId": 3,
								"contract": "contracts/setAccessTime.sol:Certificate",
								"label": "studentName",
								"offset": 0,
								"slot": "0",
								"type": "t_string_storage"
							},
							{
								"astId": 5,
								"contract": "contracts/setAccessTime.sol:Certificate",
								"label": "studentId",
								"offset": 0,
								"slot": "1",
								"type": "t_string_storage"
							},
							{
								"astId": 7,
								"contract": "contracts/setAccessTime.sol:Certificate",
								"label": "faculty",
								"offset": 0,
								"slot": "2",
								"type": "t_string_storage"
							},
							{
								"astId": 9,
								"contract": "contracts/setAccessTime.sol:Certificate",
								"label": "department",
								"offset": 0,
								"slot": "3",
								"type": "t_string_storage"
							},
							{
								"astId": 11,
								"contract": "contracts/setAccessTime.sol:Certificate",
								"label": "accessTime",
								"offset": 0,
								"slot": "4",
								"type": "t_uint256"
							}
						],
						"numberOfBytes": "160"
					},
					"t_uint256": {
						"encoding": "inplace",
						"label": "uint256",
						"numberOfBytes": "32"
					}
				}
			},
			"userdoc": {
				"kind": "user",
				"methods": {},
				"version": 1
			}
		}
	}
}