{
	"contracts/test.sol": {
		"Certificate": {
			"abi": [
				{
					"anonymous": false,
					"inputs": [
						{
							"indexed": true,
							"internalType": "address",
							"name": "studentAddress",
							"type": "address"
						},
						{
							"indexed": false,
							"internalType": "string",
							"name": "name",
							"type": "string"
						},
						{
							"indexed": false,
							"internalType": "uint256",
							"name": "studentID",
							"type": "uint256"
						},
						{
							"indexed": false,
							"internalType": "string",
							"name": "faculty",
							"type": "string"
						},
						{
							"indexed": false,
							"internalType": "string",
							"name": "department",
							"type": "string"
						}
					],
					"name": "CertificateIssued",
					"type": "event"
				},
				{
					"inputs": [
						{
							"internalType": "string",
							"name": "name",
							"type": "string"
						},
						{
							"internalType": "uint256",
							"name": "studentID",
							"type": "uint256"
						},
						{
							"internalType": "string",
							"name": "faculty",
							"type": "string"
						},
						{
							"internalType": "string",
							"name": "department",
							"type": "string"
						}
					],
					"name": "issueCertificate",
					"outputs": [],
					"stateMutability": "nonpayable",
					"type": "function"
				},
				{
					"inputs": [
						{
							"internalType": "address",
							"name": "",
							"type": "address"
						}
					],
					"name": "students",
					"outputs": [
						{
							"internalType": "string",
							"name": "name",
							"type": "string"
						},
						{
							"internalType": "uint256",
							"name": "studentID",
							"type": "uint256"
						},
						{
							"internalType": "string",
							"name": "faculty",
							"type": "string"
						},
						{
							"internalType": "string",
							"name": "department",
							"type": "string"
						},
						{
							"internalType": "bool",
							"name": "certificateIssued",
							"type": "bool"
						}
					],
					"stateMutability": "view",
					"type": "function"
				}
			],
			"devdoc": {
				"kind": "dev",
				"methods": {},
				"version": 1
			},
			"evm": {
				"assembly": "    /* \"contracts/test.sol\":62:1907  contract Certificate {... */\n  mstore(0x40, 0x80)\n  callvalue\n  dup1\n  iszero\n  tag_1\n  jumpi\n  0x00\n  dup1\n  revert\ntag_1:\n  pop\n  dataSize(sub_0)\n  dup1\n  dataOffset(sub_0)\n  0x00\n  codecopy\n  0x00\n  return\nstop\n\nsub_0: assembly {\n        /* \"contracts/test.sol\":62:1907  contract Certificate {... */\n      mstore(0x40, 0x80)\n      callvalue\n      dup1\n      iszero\n      tag_1\n      jumpi\n      0x00\n      dup1\n      revert\n    tag_1:\n      pop\n      jumpi(tag_2, lt(calldatasize, 0x04))\n      shr(0xe0, calldataload(0x00))\n      dup1\n      0x05748495\n      eq\n      tag_3\n      jumpi\n      dup1\n      0xa6c807a9\n      eq\n      tag_4\n      jumpi\n    tag_2:\n      0x00\n      dup1\n      revert\n        /* \"contracts/test.sol\":1127:1904  function issueCertificate(string memory name, uint studentID, string memory faculty, string memory department) public {... */\n    tag_3:\n      tag_5\n      0x04\n      dup1\n      calldatasize\n      sub\n      dup2\n      add\n      swap1\n      tag_6\n      swap2\n      swap1\n      tag_7\n      jump\t// in\n    tag_6:\n      tag_8\n      jump\t// in\n    tag_5:\n      stop\n        /* \"contracts/test.sol\":674:717  mapping(address => Student) public students */\n    tag_4:\n      tag_9\n      0x04\n      dup1\n      calldatasize\n      sub\n      dup2\n      add\n      swap1\n      tag_10\n      swap2\n      swap1\n      tag_11\n      jump\t// in\n    tag_10:\n      tag_12\n      jump\t// in\n    tag_9:\n      mload(0x40)\n      tag_13\n      swap6\n      swap5\n      swap4\n      swap3\n      swap2\n      swap1\n      tag_14\n      jump\t// in\n    tag_13:\n      mload(0x40)\n      dup1\n      swap2\n      sub\n      swap1\n      return\n        /* \"contracts/test.sol\":1127:1904  function issueCertificate(string memory name, uint studentID, string memory faculty, string memory department) public {... */\n    tag_8:\n        /* \"contracts/test.sol\":1472:1477  false */\n      0x00\n        /* \"contracts/test.sol\":1430:1477  students[msg.sender].certificateIssued == false */\n      iszero\n      iszero\n        /* \"contracts/test.sol\":1430:1438  students */\n      0x00\n        /* \"contracts/test.sol\":1430:1450  students[msg.sender] */\n      dup1\n        /* \"contracts/test.sol\":1439:1449  msg.sender */\n      caller\n        /* \"contracts/test.sol\":1430:1450  students[msg.sender] */\n      0xffffffffffffffffffffffffffffffffffffffff\n      and\n      0xffffffffffffffffffffffffffffffffffffffff\n      and\n      dup2\n      mstore\n      0x20\n      add\n      swap1\n      dup2\n      mstore\n      0x20\n      add\n      0x00\n      keccak256\n        /* \"contracts/test.sol\":1430:1468  students[msg.sender].certificateIssued */\n      0x04\n      add\n      0x00\n      swap1\n      sload\n      swap1\n      0x0100\n      exp\n      swap1\n      div\n      0xff\n      and\n        /* \"contracts/test.sol\":1430:1477  students[msg.sender].certificateIssued == false */\n      iszero\n      iszero\n      eq\n        /* \"contracts/test.sol\":1422:1509  require(students[msg.sender].certificateIssued == false, \"Certificate already issued.\") */\n      tag_16\n      jumpi\n      mload(0x40)\n      0x08c379a000000000000000000000000000000000000000000000000000000000\n      dup2\n      mstore\n      0x04\n      add\n      tag_17\n      swap1\n      tag_18\n      jump\t// in\n    tag_17:\n      mload(0x40)\n      dup1\n      swap2\n      sub\n      swap1\n      revert\n    tag_16:\n        /* \"contracts/test.sol\":1638:1689  Student(name, studentID, faculty, department, true) */\n      mload(0x40)\n      dup1\n      0xa0\n      add\n      0x40\n      mstore\n      dup1\n        /* \"contracts/test.sol\":1646:1650  name */\n      dup6\n        /* \"contracts/test.sol\":1638:1689  Student(name, studentID, faculty, department, true) */\n      dup2\n      mstore\n      0x20\n      add\n        /* \"contracts/test.sol\":1652:1661  studentID */\n      dup5\n        /* \"contracts/test.sol\":1638:1689  Student(name, studentID, faculty, department, true) */\n      dup2\n      mstore\n      0x20\n      add\n        /* \"contracts/test.sol\":1663:1670  faculty */\n      dup4\n        /* \"contracts/test.sol\":1638:1689  Student(name, studentID, faculty, department, true) */\n      dup2\n      mstore\n      0x20\n      add\n        /* \"contracts/test.sol\":1672:1682  department */\n      dup3\n        /* \"contracts/test.sol\":1638:1689  Student(name, studentID, faculty, department, true) */\n      dup2\n      mstore\n      0x20\n      add\n        /* \"contracts/test.sol\":1684:1688  true */\n      0x01\n        /* \"contracts/test.sol\":1638:1689  Student(name, studentID, faculty, department, true) */\n      iszero\n      iszero\n      dup2\n      mstore\n      pop\n        /* \"contracts/test.sol\":1615:1623  students */\n      0x00\n        /* \"contracts/test.sol\":1615:1635  students[msg.sender] */\n      dup1\n        /* \"contracts/test.sol\":1624:1634  msg.sender */\n      caller\n        /* \"contracts/test.sol\":1615:1635  students[msg.sender] */\n      0xffffffffffffffffffffffffffffffffffffffff\n      and\n      0xffffffffffffffffffffffffffffffffffffffff\n      and\n      dup2\n      mstore\n      0x20\n      add\n      swap1\n      dup2\n      mstore\n      0x20\n      add\n      0x00\n      keccak256\n        /* \"contracts/test.sol\":1615:1689  students[msg.sender] = Student(name, studentID, faculty, department, true) */\n      0x00\n      dup3\n      add\n      mload\n      dup2\n      0x00\n      add\n      swap1\n      dup2\n      tag_19\n      swap2\n      swap1\n      tag_20\n      jump\t// in\n    tag_19:\n      pop\n      0x20\n      dup3\n      add\n      mload\n      dup2\n      0x01\n      add\n      sstore\n      0x40\n      dup3\n      add\n      mload\n      dup2\n      0x02\n      add\n      swap1\n      dup2\n      tag_21\n      swap2\n      swap1\n      tag_20\n      jump\t// in\n    tag_21:\n      pop\n      0x60\n      dup3\n      add\n      mload\n      dup2\n      0x03\n      add\n      swap1\n      dup2\n      tag_22\n      swap2\n      swap1\n      tag_20\n      jump\t// in\n    tag_22:\n      pop\n      0x80\n      dup3\n      add\n      mload\n      dup2\n      0x04\n      add\n      exp(0x0100, 0x00)\n      dup2\n      sload\n      dup2\n      0xff\n      mul\n      not\n      and\n      swap1\n      dup4\n      iszero\n      iszero\n      mul\n      or\n      swap1\n      sstore\n      pop\n      swap1\n      pop\n      pop\n        /* \"contracts/test.sol\":1847:1857  msg.sender */\n      caller\n        /* \"contracts/test.sol\":1829:1896  CertificateIssued(msg.sender, name, studentID, faculty, department) */\n      0xffffffffffffffffffffffffffffffffffffffff\n      and\n      0x7432be22ee2b859a92d9f53dccaa0be2b10b6e7794afb8176a1a7871a547a992\n        /* \"contracts/test.sol\":1859:1863  name */\n      dup6\n        /* \"contracts/test.sol\":1865:1874  studentID */\n      dup6\n        /* \"contracts/test.sol\":1876:1883  faculty */\n      dup6\n        /* \"contracts/test.sol\":1885:1895  department */\n      dup6\n        /* \"contracts/test.sol\":1829:1896  CertificateIssued(msg.sender, name, studentID, faculty, department) */\n      mload(0x40)\n      tag_23\n      swap5\n      swap4\n      swap3\n      swap2\n      swap1\n      tag_24\n      jump\t// in\n    tag_23:\n      mload(0x40)\n      dup1\n      swap2\n      sub\n      swap1\n      log2\n        /* \"contracts/test.sol\":1127:1904  function issueCertificate(string memory name, uint studentID, string memory faculty, string memory department) public {... */\n      pop\n      pop\n      pop\n      pop\n      jump\t// out\n        /* \"contracts/test.sol\":674:717  mapping(address => Student) public students */\n    tag_12:\n      mstore(0x20, 0x00)\n      dup1\n      0x00\n      mstore\n      keccak256(0x00, 0x40)\n      0x00\n      swap2\n      pop\n      swap1\n      pop\n      dup1\n      0x00\n      add\n      dup1\n      sload\n      tag_25\n      swap1\n      tag_26\n      jump\t// in\n    tag_25:\n      dup1\n      0x1f\n      add\n      0x20\n      dup1\n      swap2\n      div\n      mul\n      0x20\n      add\n      mload(0x40)\n      swap1\n      dup2\n      add\n      0x40\n      mstore\n      dup1\n      swap3\n      swap2\n      swap1\n      dup2\n      dup2\n      mstore\n      0x20\n      add\n      dup3\n      dup1\n      sload\n      tag_27\n      swap1\n      tag_26\n      jump\t// in\n    tag_27:\n      dup1\n      iszero\n      tag_28\n      jumpi\n      dup1\n      0x1f\n      lt\n      tag_29\n      jumpi\n      0x0100\n      dup1\n      dup4\n      sload\n      div\n      mul\n      dup4\n      mstore\n      swap2\n      0x20\n      add\n      swap2\n      jump(tag_28)\n    tag_29:\n      dup3\n      add\n      swap2\n      swap1\n      0x00\n      mstore\n      keccak256(0x00, 0x20)\n      swap1\n    tag_30:\n      dup2\n      sload\n      dup2\n      mstore\n      swap1\n      0x01\n      add\n      swap1\n      0x20\n      add\n      dup1\n      dup4\n      gt\n      tag_30\n      jumpi\n      dup3\n      swap1\n      sub\n      0x1f\n      and\n      dup3\n      add\n      swap2\n    tag_28:\n      pop\n      pop\n      pop\n      pop\n      pop\n      swap1\n      dup1\n      0x01\n      add\n      sload\n      swap1\n      dup1\n      0x02\n      add\n      dup1\n      sload\n      tag_31\n      swap1\n      tag_26\n      jump\t// in\n    tag_31:\n      dup1\n      0x1f\n      add\n      0x20\n      dup1\n      swap2\n      div\n      mul\n      0x20\n      add\n      mload(0x40)\n      swap1\n      dup2\n      add\n      0x40\n      mstore\n      dup1\n      swap3\n      swap2\n      swap1\n      dup2\n      dup2\n      mstore\n      0x20\n      add\n      dup3\n      dup1\n      sload\n      tag_32\n      swap1\n      tag_26\n      jump\t// in\n    tag_32:\n      dup1\n      iszero\n      tag_33\n      jumpi\n      dup1\n      0x1f\n      lt\n      tag_34\n      jumpi\n      0x0100\n      dup1\n      dup4\n      sload\n      div\n      mul\n      dup4\n      mstore\n      swap2\n      0x20\n      add\n      swap2\n      jump(tag_33)\n    tag_34:\n      dup3\n      add\n      swap2\n      swap1\n      0x00\n      mstore\n      keccak256(0x00, 0x20)\n      swap1\n    tag_35:\n      dup2\n      sload\n      dup2\n      mstore\n      swap1\n      0x01\n      add\n      swap1\n      0x20\n      add\n      dup1\n      dup4\n      gt\n      tag_35\n      jumpi\n      dup3\n      swap1\n      sub\n      0x1f\n      and\n      dup3\n      add\n      swap2\n    tag_33:\n      pop\n      pop\n      pop\n      pop\n      pop\n      swap1\n      dup1\n      0x03\n      add\n      dup1\n      sload\n      tag_36\n      swap1\n      tag_26\n      jump\t// in\n    tag_36:\n      dup1\n      0x1f\n      add\n      0x20\n      dup1\n      swap2\n      div\n      mul\n      0x20\n      add\n      mload(0x40)\n      swap1\n      dup2\n      add\n      0x40\n      mstore\n      dup1\n      swap3\n      swap2\n      swap1\n      dup2\n      dup2\n      mstore\n      0x20\n      add\n      dup3\n      dup1\n      sload\n      tag_37\n      swap1\n      tag_26\n      jump\t// in\n    tag_37:\n      dup1\n      iszero\n      tag_38\n      jumpi\n      dup1\n      0x1f\n      lt\n      tag_39\n      jumpi\n      0x0100\n      dup1\n      dup4\n      sload\n      div\n      mul\n      dup4\n      mstore\n      swap2\n      0x20\n      add\n      swap2\n      jump(tag_38)\n    tag_39:\n      dup3\n      add\n      swap2\n      swap1\n      0x00\n      mstore\n      keccak256(0x00, 0x20)\n      swap1\n    tag_40:\n      dup2\n      sload\n      dup2\n      mstore\n      swap1\n      0x01\n      add\n      swap1\n      0x20\n      add\n      dup1\n      dup4\n      gt\n      tag_40\n      jumpi\n      dup3\n      swap1\n      sub\n      0x1f\n      and\n      dup3\n      add\n      swap2\n    tag_38:\n      pop\n      pop\n      pop\n      pop\n      pop\n      swap1\n      dup1\n      0x04\n      add\n      0x00\n      swap1\n      sload\n      swap1\n      0x0100\n      exp\n      swap1\n      div\n      0xff\n      and\n      swap1\n      pop\n      dup6\n      jump\t// out\n        /* \"#utility.yul\":7:82   */\n    tag_41:\n        /* \"#utility.yul\":40:46   */\n      0x00\n        /* \"#utility.yul\":73:75   */\n      0x40\n        /* \"#utility.yul\":67:76   */\n      mload\n        /* \"#utility.yul\":57:76   */\n      swap1\n      pop\n        /* \"#utility.yul\":7:82   */\n      swap1\n      jump\t// out\n        /* \"#utility.yul\":88:205   */\n    tag_42:\n        /* \"#utility.yul\":197:198   */\n      0x00\n        /* \"#utility.yul\":194:195   */\n      dup1\n        /* \"#utility.yul\":187:199   */\n      revert\n        /* \"#utility.yul\":211:328   */\n    tag_43:\n        /* \"#utility.yul\":320:321   */\n      0x00\n        /* \"#utility.yul\":317:318   */\n      dup1\n        /* \"#utility.yul\":310:322   */\n      revert\n        /* \"#utility.yul\":334:451   */\n    tag_44:\n        /* \"#utility.yul\":443:444   */\n      0x00\n        /* \"#utility.yul\":440:441   */\n      dup1\n        /* \"#utility.yul\":433:445   */\n      revert\n        /* \"#utility.yul\":457:574   */\n    tag_45:\n        /* \"#utility.yul\":566:567   */\n      0x00\n        /* \"#utility.yul\":563:564   */\n      dup1\n        /* \"#utility.yul\":556:568   */\n      revert\n        /* \"#utility.yul\":580:682   */\n    tag_46:\n        /* \"#utility.yul\":621:627   */\n      0x00\n        /* \"#utility.yul\":672:674   */\n      0x1f\n        /* \"#utility.yul\":668:675   */\n      not\n        /* \"#utility.yul\":663:665   */\n      0x1f\n        /* \"#utility.yul\":656:661   */\n      dup4\n        /* \"#utility.yul\":652:666   */\n      add\n        /* \"#utility.yul\":648:676   */\n      and\n        /* \"#utility.yul\":638:676   */\n      swap1\n      pop\n        /* \"#utility.yul\":580:682   */\n      swap2\n      swap1\n      pop\n      jump\t// out\n        /* \"#utility.yul\":688:868   */\n    tag_47:\n        /* \"#utility.yul\":736:813   */\n      0x4e487b7100000000000000000000000000000000000000000000000000000000\n        /* \"#utility.yul\":733:734   */\n      0x00\n        /* \"#utility.yul\":726:814   */\n      mstore\n        /* \"#utility.yul\":833:837   */\n      0x41\n        /* \"#utility.yul\":830:831   */\n      0x04\n        /* \"#utility.yul\":823:838   */\n      mstore\n        /* \"#utility.yul\":857:861   */\n      0x24\n        /* \"#utility.yul\":854:855   */\n      0x00\n        /* \"#utility.yul\":847:862   */\n      revert\n        /* \"#utility.yul\":874:1155   */\n    tag_48:\n        /* \"#utility.yul\":957:984   */\n      tag_95\n        /* \"#utility.yul\":979:983   */\n      dup3\n        /* \"#utility.yul\":957:984   */\n      tag_46\n      jump\t// in\n    tag_95:\n        /* \"#utility.yul\":949:955   */\n      dup2\n        /* \"#utility.yul\":945:985   */\n      add\n        /* \"#utility.yul\":1087:1093   */\n      dup2\n        /* \"#utility.yul\":1075:1085   */\n      dup2\n        /* \"#utility.yul\":1072:1094   */\n      lt\n        /* \"#utility.yul\":1051:1069   */\n      0xffffffffffffffff\n        /* \"#utility.yul\":1039:1049   */\n      dup3\n        /* \"#utility.yul\":1036:1070   */\n      gt\n        /* \"#utility.yul\":1033:1095   */\n      or\n        /* \"#utility.yul\":1030:1118   */\n      iszero\n      tag_96\n      jumpi\n        /* \"#utility.yul\":1098:1116   */\n      tag_97\n      tag_47\n      jump\t// in\n    tag_97:\n        /* \"#utility.yul\":1030:1118   */\n    tag_96:\n        /* \"#utility.yul\":1138:1148   */\n      dup1\n        /* \"#utility.yul\":1134:1136   */\n      0x40\n        /* \"#utility.yul\":1127:1149   */\n      mstore\n        /* \"#utility.yul\":917:1155   */\n      pop\n        /* \"#utility.yul\":874:1155   */\n      pop\n      pop\n      jump\t// out\n        /* \"#utility.yul\":1161:1290   */\n    tag_49:\n        /* \"#utility.yul\":1195:1201   */\n      0x00\n        /* \"#utility.yul\":1222:1242   */\n      tag_99\n      tag_41\n      jump\t// in\n    tag_99:\n        /* \"#utility.yul\":1212:1242   */\n      swap1\n      pop\n        /* \"#utility.yul\":1251:1284   */\n      tag_100\n        /* \"#utility.yul\":1279:1283   */\n      dup3\n        /* \"#utility.yul\":1271:1277   */\n      dup3\n        /* \"#utility.yul\":1251:1284   */\n      tag_48\n      jump\t// in\n    tag_100:\n        /* \"#utility.yul\":1161:1290   */\n      swap2\n      swap1\n      pop\n      jump\t// out\n        /* \"#utility.yul\":1296:1604   */\n    tag_50:\n        /* \"#utility.yul\":1358:1362   */\n      0x00\n        /* \"#utility.yul\":1448:1466   */\n      0xffffffffffffffff\n        /* \"#utility.yul\":1440:1446   */\n      dup3\n        /* \"#utility.yul\":1437:1467   */\n      gt\n        /* \"#utility.yul\":1434:1490   */\n      iszero\n      tag_102\n      jumpi\n        /* \"#utility.yul\":1470:1488   */\n      tag_103\n      tag_47\n      jump\t// in\n    tag_103:\n        /* \"#utility.yul\":1434:1490   */\n    tag_102:\n        /* \"#utility.yul\":1508:1537   */\n      tag_104\n        /* \"#utility.yul\":1530:1536   */\n      dup3\n        /* \"#utility.yul\":1508:1537   */\n      tag_46\n      jump\t// in\n    tag_104:\n        /* \"#utility.yul\":1500:1537   */\n      swap1\n      pop\n        /* \"#utility.yul\":1592:1596   */\n      0x20\n        /* \"#utility.yul\":1586:1590   */\n      dup2\n        /* \"#utility.yul\":1582:1597   */\n      add\n        /* \"#utility.yul\":1574:1597   */\n      swap1\n      pop\n        /* \"#utility.yul\":1296:1604   */\n      swap2\n      swap1\n      pop\n      jump\t// out\n        /* \"#utility.yul\":1610:1756   */\n    tag_51:\n        /* \"#utility.yul\":1707:1713   */\n      dup3\n        /* \"#utility.yul\":1702:1705   */\n      dup2\n        /* \"#utility.yul\":1697:1700   */\n      dup4\n        /* \"#utility.yul\":1684:1714   */\n      calldatacopy\n        /* \"#utility.yul\":1748:1749   */\n      0x00\n        /* \"#utility.yul\":1739:1745   */\n      dup4\n        /* \"#utility.yul\":1734:1737   */\n      dup4\n        /* \"#utility.yul\":1730:1746   */\n      add\n        /* \"#utility.yul\":1723:1750   */\n      mstore\n        /* \"#utility.yul\":1610:1756   */\n      pop\n      pop\n      pop\n      jump\t// out\n        /* \"#utility.yul\":1762:2187   */\n    tag_52:\n        /* \"#utility.yul\":1840:1845   */\n      0x00\n        /* \"#utility.yul\":1865:1931   */\n      tag_107\n        /* \"#utility.yul\":1881:1930   */\n      tag_108\n        /* \"#utility.yul\":1923:1929   */\n      dup5\n        /* \"#utility.yul\":1881:1930   */\n      tag_50\n      jump\t// in\n    tag_108:\n        /* \"#utility.yul\":1865:1931   */\n      tag_49\n      jump\t// in\n    tag_107:\n        /* \"#utility.yul\":1856:1931   */\n      swap1\n      pop\n        /* \"#utility.yul\":1954:1960   */\n      dup3\n        /* \"#utility.yul\":1947:1952   */\n      dup2\n        /* \"#utility.yul\":1940:1961   */\n      mstore\n        /* \"#utility.yul\":1992:1996   */\n      0x20\n        /* \"#utility.yul\":1985:1990   */\n      dup2\n        /* \"#utility.yul\":1981:1997   */\n      add\n        /* \"#utility.yul\":2030:2033   */\n      dup5\n        /* \"#utility.yul\":2021:2027   */\n      dup5\n        /* \"#utility.yul\":2016:2019   */\n      dup5\n        /* \"#utility.yul\":2012:2028   */\n      add\n        /* \"#utility.yul\":2009:2034   */\n      gt\n        /* \"#utility.yul\":2006:2118   */\n      iszero\n      tag_109\n      jumpi\n        /* \"#utility.yul\":2037:2116   */\n      tag_110\n      tag_45\n      jump\t// in\n    tag_110:\n        /* \"#utility.yul\":2006:2118   */\n    tag_109:\n        /* \"#utility.yul\":2127:2181   */\n      tag_111\n        /* \"#utility.yul\":2174:2180   */\n      dup5\n        /* \"#utility.yul\":2169:2172   */\n      dup3\n        /* \"#utility.yul\":2164:2167   */\n      dup6\n        /* \"#utility.yul\":2127:2181   */\n      tag_51\n      jump\t// in\n    tag_111:\n        /* \"#utility.yul\":1846:2187   */\n      pop\n        /* \"#utility.yul\":1762:2187   */\n      swap4\n      swap3\n      pop\n      pop\n      pop\n      jump\t// out\n        /* \"#utility.yul\":2207:2547   */\n    tag_53:\n        /* \"#utility.yul\":2263:2268   */\n      0x00\n        /* \"#utility.yul\":2312:2315   */\n      dup3\n        /* \"#utility.yul\":2305:2309   */\n      0x1f\n        /* \"#utility.yul\":2297:2303   */\n      dup4\n        /* \"#utility.yul\":2293:2310   */\n      add\n        /* \"#utility.yul\":2289:2316   */\n      slt\n        /* \"#utility.yul\":2279:2401   */\n      tag_113\n      jumpi\n        /* \"#utility.yul\":2320:2399   */\n      tag_114\n      tag_44\n      jump\t// in\n    tag_114:\n        /* \"#utility.yul\":2279:2401   */\n    tag_113:\n        /* \"#utility.yul\":2437:2443   */\n      dup2\n        /* \"#utility.yul\":2424:2444   */\n      calldataload\n        /* \"#utility.yul\":2462:2541   */\n      tag_115\n        /* \"#utility.yul\":2537:2540   */\n      dup5\n        /* \"#utility.yul\":2529:2535   */\n      dup3\n        /* \"#utility.yul\":2522:2526   */\n      0x20\n        /* \"#utility.yul\":2514:2520   */\n      dup7\n        /* \"#utility.yul\":2510:2527   */\n      add\n        /* \"#utility.yul\":2462:2541   */\n      tag_52\n      jump\t// in\n    tag_115:\n        /* \"#utility.yul\":2453:2541   */\n      swap2\n      pop\n        /* \"#utility.yul\":2269:2547   */\n      pop\n        /* \"#utility.yul\":2207:2547   */\n      swap3\n      swap2\n      pop\n      pop\n      jump\t// out\n        /* \"#utility.yul\":2553:2630   */\n    tag_54:\n        /* \"#utility.yul\":2590:2597   */\n      0x00\n        /* \"#utility.yul\":2619:2624   */\n      dup2\n        /* \"#utility.yul\":2608:2624   */\n      swap1\n      pop\n        /* \"#utility.yul\":2553:2630   */\n      swap2\n      swap1\n      pop\n      jump\t// out\n        /* \"#utility.yul\":2636:2758   */\n    tag_55:\n        /* \"#utility.yul\":2709:2733   */\n      tag_118\n        /* \"#utility.yul\":2727:2732   */\n      dup2\n        /* \"#utility.yul\":2709:2733   */\n      tag_54\n      jump\t// in\n    tag_118:\n        /* \"#utility.yul\":2702:2707   */\n      dup2\n        /* \"#utility.yul\":2699:2734   */\n      eq\n        /* \"#utility.yul\":2689:2752   */\n      tag_119\n      jumpi\n        /* \"#utility.yul\":2748:2749   */\n      0x00\n        /* \"#utility.yul\":2745:2746   */\n      dup1\n        /* \"#utility.yul\":2738:2750   */\n      revert\n        /* \"#utility.yul\":2689:2752   */\n    tag_119:\n        /* \"#utility.yul\":2636:2758   */\n      pop\n      jump\t// out\n        /* \"#utility.yul\":2764:2903   */\n    tag_56:\n        /* \"#utility.yul\":2810:2815   */\n      0x00\n        /* \"#utility.yul\":2848:2854   */\n      dup2\n        /* \"#utility.yul\":2835:2855   */\n      calldataload\n        /* \"#utility.yul\":2826:2855   */\n      swap1\n      pop\n        /* \"#utility.yul\":2864:2897   */\n      tag_121\n        /* \"#utility.yul\":2891:2896   */\n      dup2\n        /* \"#utility.yul\":2864:2897   */\n      tag_55\n      jump\t// in\n    tag_121:\n        /* \"#utility.yul\":2764:2903   */\n      swap3\n      swap2\n      pop\n      pop\n      jump\t// out\n        /* \"#utility.yul\":2909:4214   */\n    tag_7:\n        /* \"#utility.yul\":3025:3031   */\n      0x00\n        /* \"#utility.yul\":3033:3039   */\n      dup1\n        /* \"#utility.yul\":3041:3047   */\n      0x00\n        /* \"#utility.yul\":3049:3055   */\n      dup1\n        /* \"#utility.yul\":3098:3101   */\n      0x80\n        /* \"#utility.yul\":3086:3095   */\n      dup6\n        /* \"#utility.yul\":3077:3084   */\n      dup8\n        /* \"#utility.yul\":3073:3096   */\n      sub\n        /* \"#utility.yul\":3069:3102   */\n      slt\n        /* \"#utility.yul\":3066:3186   */\n      iszero\n      tag_123\n      jumpi\n        /* \"#utility.yul\":3105:3184   */\n      tag_124\n      tag_42\n      jump\t// in\n    tag_124:\n        /* \"#utility.yul\":3066:3186   */\n    tag_123:\n        /* \"#utility.yul\":3253:3254   */\n      0x00\n        /* \"#utility.yul\":3242:3251   */\n      dup6\n        /* \"#utility.yul\":3238:3255   */\n      add\n        /* \"#utility.yul\":3225:3256   */\n      calldataload\n        /* \"#utility.yul\":3283:3301   */\n      0xffffffffffffffff\n        /* \"#utility.yul\":3275:3281   */\n      dup2\n        /* \"#utility.yul\":3272:3302   */\n      gt\n        /* \"#utility.yul\":3269:3386   */\n      iszero\n      tag_125\n      jumpi\n        /* \"#utility.yul\":3305:3384   */\n      tag_126\n      tag_43\n      jump\t// in\n    tag_126:\n        /* \"#utility.yul\":3269:3386   */\n    tag_125:\n        /* \"#utility.yul\":3410:3473   */\n      tag_127\n        /* \"#utility.yul\":3465:3472   */\n      dup8\n        /* \"#utility.yul\":3456:3462   */\n      dup3\n        /* \"#utility.yul\":3445:3454   */\n      dup9\n        /* \"#utility.yul\":3441:3463   */\n      add\n        /* \"#utility.yul\":3410:3473   */\n      tag_53\n      jump\t// in\n    tag_127:\n        /* \"#utility.yul\":3400:3473   */\n      swap5\n      pop\n        /* \"#utility.yul\":3196:3483   */\n      pop\n        /* \"#utility.yul\":3522:3524   */\n      0x20\n        /* \"#utility.yul\":3548:3601   */\n      tag_128\n        /* \"#utility.yul\":3593:3600   */\n      dup8\n        /* \"#utility.yul\":3584:3590   */\n      dup3\n        /* \"#utility.yul\":3573:3582   */\n      dup9\n        /* \"#utility.yul\":3569:3591   */\n      add\n        /* \"#utility.yul\":3548:3601   */\n      tag_56\n      jump\t// in\n    tag_128:\n        /* \"#utility.yul\":3538:3601   */\n      swap4\n      pop\n        /* \"#utility.yul\":3493:3611   */\n      pop\n        /* \"#utility.yul\":3678:3680   */\n      0x40\n        /* \"#utility.yul\":3667:3676   */\n      dup6\n        /* \"#utility.yul\":3663:3681   */\n      add\n        /* \"#utility.yul\":3650:3682   */\n      calldataload\n        /* \"#utility.yul\":3709:3727   */\n      0xffffffffffffffff\n        /* \"#utility.yul\":3701:3707   */\n      dup2\n        /* \"#utility.yul\":3698:3728   */\n      gt\n        /* \"#utility.yul\":3695:3812   */\n      iszero\n      tag_129\n      jumpi\n        /* \"#utility.yul\":3731:3810   */\n      tag_130\n      tag_43\n      jump\t// in\n    tag_130:\n        /* \"#utility.yul\":3695:3812   */\n    tag_129:\n        /* \"#utility.yul\":3836:3899   */\n      tag_131\n        /* \"#utility.yul\":3891:3898   */\n      dup8\n        /* \"#utility.yul\":3882:3888   */\n      dup3\n        /* \"#utility.yul\":3871:3880   */\n      dup9\n        /* \"#utility.yul\":3867:3889   */\n      add\n        /* \"#utility.yul\":3836:3899   */\n      tag_53\n      jump\t// in\n    tag_131:\n        /* \"#utility.yul\":3826:3899   */\n      swap3\n      pop\n        /* \"#utility.yul\":3621:3909   */\n      pop\n        /* \"#utility.yul\":3976:3978   */\n      0x60\n        /* \"#utility.yul\":3965:3974   */\n      dup6\n        /* \"#utility.yul\":3961:3979   */\n      add\n        /* \"#utility.yul\":3948:3980   */\n      calldataload\n        /* \"#utility.yul\":4007:4025   */\n      0xffffffffffffffff\n        /* \"#utility.yul\":3999:4005   */\n      dup2\n        /* \"#utility.yul\":3996:4026   */\n      gt\n        /* \"#utility.yul\":3993:4110   */\n      iszero\n      tag_132\n      jumpi\n        /* \"#utility.yul\":4029:4108   */\n      tag_133\n      tag_43\n      jump\t// in\n    tag_133:\n        /* \"#utility.yul\":3993:4110   */\n    tag_132:\n        /* \"#utility.yul\":4134:4197   */\n      tag_134\n        /* \"#utility.yul\":4189:4196   */\n      dup8\n        /* \"#utility.yul\":4180:4186   */\n      dup3\n        /* \"#utility.yul\":4169:4178   */\n      dup9\n        /* \"#utility.yul\":4165:4187   */\n      add\n        /* \"#utility.yul\":4134:4197   */\n      tag_53\n      jump\t// in\n    tag_134:\n        /* \"#utility.yul\":4124:4197   */\n      swap2\n      pop\n        /* \"#utility.yul\":3919:4207   */\n      pop\n        /* \"#utility.yul\":2909:4214   */\n      swap3\n      swap6\n      swap2\n      swap5\n      pop\n      swap3\n      pop\n      jump\t// out\n        /* \"#utility.yul\":4220:4346   */\n    tag_57:\n        /* \"#utility.yul\":4257:4264   */\n      0x00\n        /* \"#utility.yul\":4297:4339   */\n      0xffffffffffffffffffffffffffffffffffffffff\n        /* \"#utility.yul\":4290:4295   */\n      dup3\n        /* \"#utility.yul\":4286:4340   */\n      and\n        /* \"#utility.yul\":4275:4340   */\n      swap1\n      pop\n        /* \"#utility.yul\":4220:4346   */\n      swap2\n      swap1\n      pop\n      jump\t// out\n        /* \"#utility.yul\":4352:4448   */\n    tag_58:\n        /* \"#utility.yul\":4389:4396   */\n      0x00\n        /* \"#utility.yul\":4418:4442   */\n      tag_137\n        /* \"#utility.yul\":4436:4441   */\n      dup3\n        /* \"#utility.yul\":4418:4442   */\n      tag_57\n      jump\t// in\n    tag_137:\n        /* \"#utility.yul\":4407:4442   */\n      swap1\n      pop\n        /* \"#utility.yul\":4352:4448   */\n      swap2\n      swap1\n      pop\n      jump\t// out\n        /* \"#utility.yul\":4454:4576   */\n    tag_59:\n        /* \"#utility.yul\":4527:4551   */\n      tag_139\n        /* \"#utility.yul\":4545:4550   */\n      dup2\n        /* \"#utility.yul\":4527:4551   */\n      tag_58\n      jump\t// in\n    tag_139:\n        /* \"#utility.yul\":4520:4525   */\n      dup2\n        /* \"#utility.yul\":4517:4552   */\n      eq\n        /* \"#utility.yul\":4507:4570   */\n      tag_140\n      jumpi\n        /* \"#utility.yul\":4566:4567   */\n      0x00\n        /* \"#utility.yul\":4563:4564   */\n      dup1\n        /* \"#utility.yul\":4556:4568   */\n      revert\n        /* \"#utility.yul\":4507:4570   */\n    tag_140:\n        /* \"#utility.yul\":4454:4576   */\n      pop\n      jump\t// out\n        /* \"#utility.yul\":4582:4721   */\n    tag_60:\n        /* \"#utility.yul\":4628:4633   */\n      0x00\n        /* \"#utility.yul\":4666:4672   */\n      dup2\n        /* \"#utility.yul\":4653:4673   */\n      calldataload\n        /* \"#utility.yul\":4644:4673   */\n      swap1\n      pop\n        /* \"#utility.yul\":4682:4715   */\n      tag_142\n        /* \"#utility.yul\":4709:4714   */\n      dup2\n        /* \"#utility.yul\":4682:4715   */\n      tag_59\n      jump\t// in\n    tag_142:\n        /* \"#utility.yul\":4582:4721   */\n      swap3\n      swap2\n      pop\n      pop\n      jump\t// out\n        /* \"#utility.yul\":4727:5056   */\n    tag_11:\n        /* \"#utility.yul\":4786:4792   */\n      0x00\n        /* \"#utility.yul\":4835:4837   */\n      0x20\n        /* \"#utility.yul\":4823:4832   */\n      dup3\n        /* \"#utility.yul\":4814:4821   */\n      dup5\n        /* \"#utility.yul\":4810:4833   */\n      sub\n        /* \"#utility.yul\":4806:4838   */\n      slt\n        /* \"#utility.yul\":4803:4922   */\n      iszero\n      tag_144\n      jumpi\n        /* \"#utility.yul\":4841:4920   */\n      tag_145\n      tag_42\n      jump\t// in\n    tag_145:\n        /* \"#utility.yul\":4803:4922   */\n    tag_144:\n        /* \"#utility.yul\":4961:4962   */\n      0x00\n        /* \"#utility.yul\":4986:5039   */\n      tag_146\n        /* \"#utility.yul\":5031:5038   */\n      dup5\n        /* \"#utility.yul\":5022:5028   */\n      dup3\n        /* \"#utility.yul\":5011:5020   */\n      dup6\n        /* \"#utility.yul\":5007:5029   */\n      add\n        /* \"#utility.yul\":4986:5039   */\n      tag_60\n      jump\t// in\n    tag_146:\n        /* \"#utility.yul\":4976:5039   */\n      swap2\n      pop\n        /* \"#utility.yul\":4932:5049   */\n      pop\n        /* \"#utility.yul\":4727:5056   */\n      swap3\n      swap2\n      pop\n      pop\n      jump\t// out\n        /* \"#utility.yul\":5062:5161   */\n    tag_61:\n        /* \"#utility.yul\":5114:5120   */\n      0x00\n        /* \"#utility.yul\":5148:5153   */\n      dup2\n        /* \"#utility.yul\":5142:5154   */\n      mload\n        /* \"#utility.yul\":5132:5154   */\n      swap1\n      pop\n        /* \"#utility.yul\":5062:5161   */\n      swap2\n      swap1\n      pop\n      jump\t// out\n        /* \"#utility.yul\":5167:5336   */\n    tag_62:\n        /* \"#utility.yul\":5251:5262   */\n      0x00\n        /* \"#utility.yul\":5285:5291   */\n      dup3\n        /* \"#utility.yul\":5280:5283   */\n      dup3\n        /* \"#utility.yul\":5273:5292   */\n      mstore\n        /* \"#utility.yul\":5325:5329   */\n      0x20\n        /* \"#utility.yul\":5320:5323   */\n      dup3\n        /* \"#utility.yul\":5316:5330   */\n      add\n        /* \"#utility.yul\":5301:5330   */\n      swap1\n      pop\n        /* \"#utility.yul\":5167:5336   */\n      swap3\n      swap2\n      pop\n      pop\n      jump\t// out\n        /* \"#utility.yul\":5342:5588   */\n    tag_63:\n        /* \"#utility.yul\":5423:5424   */\n      0x00\n        /* \"#utility.yul\":5433:5546   */\n    tag_150:\n        /* \"#utility.yul\":5447:5453   */\n      dup4\n        /* \"#utility.yul\":5444:5445   */\n      dup2\n        /* \"#utility.yul\":5441:5454   */\n      lt\n        /* \"#utility.yul\":5433:5546   */\n      iszero\n      tag_152\n      jumpi\n        /* \"#utility.yul\":5532:5533   */\n      dup1\n        /* \"#utility.yul\":5527:5530   */\n      dup3\n        /* \"#utility.yul\":5523:5534   */\n      add\n        /* \"#utility.yul\":5517:5535   */\n      mload\n        /* \"#utility.yul\":5513:5514   */\n      dup2\n        /* \"#utility.yul\":5508:5511   */\n      dup5\n        /* \"#utility.yul\":5504:5515   */\n      add\n        /* \"#utility.yul\":5497:5536   */\n      mstore\n        /* \"#utility.yul\":5469:5471   */\n      0x20\n        /* \"#utility.yul\":5466:5467   */\n      dup2\n        /* \"#utility.yul\":5462:5472   */\n      add\n        /* \"#utility.yul\":5457:5472   */\n      swap1\n      pop\n        /* \"#utility.yul\":5433:5546   */\n      jump(tag_150)\n    tag_152:\n        /* \"#utility.yul\":5580:5581   */\n      0x00\n        /* \"#utility.yul\":5571:5577   */\n      dup5\n        /* \"#utility.yul\":5566:5569   */\n      dup5\n        /* \"#utility.yul\":5562:5578   */\n      add\n        /* \"#utility.yul\":5555:5582   */\n      mstore\n        /* \"#utility.yul\":5404:5588   */\n      pop\n        /* \"#utility.yul\":5342:5588   */\n      pop\n      pop\n      pop\n      jump\t// out\n        /* \"#utility.yul\":5594:5971   */\n    tag_64:\n        /* \"#utility.yul\":5682:5685   */\n      0x00\n        /* \"#utility.yul\":5710:5749   */\n      tag_154\n        /* \"#utility.yul\":5743:5748   */\n      dup3\n        /* \"#utility.yul\":5710:5749   */\n      tag_61\n      jump\t// in\n    tag_154:\n        /* \"#utility.yul\":5765:5836   */\n      tag_155\n        /* \"#utility.yul\":5829:5835   */\n      dup2\n        /* \"#utility.yul\":5824:5827   */\n      dup6\n        /* \"#utility.yul\":5765:5836   */\n      tag_62\n      jump\t// in\n    tag_155:\n        /* \"#utility.yul\":5758:5836   */\n      swap4\n      pop\n        /* \"#utility.yul\":5845:5910   */\n      tag_156\n        /* \"#utility.yul\":5903:5909   */\n      dup2\n        /* \"#utility.yul\":5898:5901   */\n      dup6\n        /* \"#utility.yul\":5891:5895   */\n      0x20\n        /* \"#utility.yul\":5884:5889   */\n      dup7\n        /* \"#utility.yul\":5880:5896   */\n      add\n        /* \"#utility.yul\":5845:5910   */\n      tag_63\n      jump\t// in\n    tag_156:\n        /* \"#utility.yul\":5935:5964   */\n      tag_157\n        /* \"#utility.yul\":5957:5963   */\n      dup2\n        /* \"#utility.yul\":5935:5964   */\n      tag_46\n      jump\t// in\n    tag_157:\n        /* \"#utility.yul\":5930:5933   */\n      dup5\n        /* \"#utility.yul\":5926:5965   */\n      add\n        /* \"#utility.yul\":5919:5965   */\n      swap2\n      pop\n        /* \"#utility.yul\":5686:5971   */\n      pop\n        /* \"#utility.yul\":5594:5971   */\n      swap3\n      swap2\n      pop\n      pop\n      jump\t// out\n        /* \"#utility.yul\":5977:6095   */\n    tag_65:\n        /* \"#utility.yul\":6064:6088   */\n      tag_159\n        /* \"#utility.yul\":6082:6087   */\n      dup2\n        /* \"#utility.yul\":6064:6088   */\n      tag_54\n      jump\t// in\n    tag_159:\n        /* \"#utility.yul\":6059:6062   */\n      dup3\n        /* \"#utility.yul\":6052:6089   */\n      mstore\n        /* \"#utility.yul\":5977:6095   */\n      pop\n      pop\n      jump\t// out\n        /* \"#utility.yul\":6101:6191   */\n    tag_66:\n        /* \"#utility.yul\":6135:6142   */\n      0x00\n        /* \"#utility.yul\":6178:6183   */\n      dup2\n        /* \"#utility.yul\":6171:6184   */\n      iszero\n        /* \"#utility.yul\":6164:6185   */\n      iszero\n        /* \"#utility.yul\":6153:6185   */\n      swap1\n      pop\n        /* \"#utility.yul\":6101:6191   */\n      swap2\n      swap1\n      pop\n      jump\t// out\n        /* \"#utility.yul\":6197:6306   */\n    tag_67:\n        /* \"#utility.yul\":6278:6299   */\n      tag_162\n        /* \"#utility.yul\":6293:6298   */\n      dup2\n        /* \"#utility.yul\":6278:6299   */\n      tag_66\n      jump\t// in\n    tag_162:\n        /* \"#utility.yul\":6273:6276   */\n      dup3\n        /* \"#utility.yul\":6266:6300   */\n      mstore\n        /* \"#utility.yul\":6197:6306   */\n      pop\n      pop\n      jump\t// out\n        /* \"#utility.yul\":6312:7237   */\n    tag_14:\n        /* \"#utility.yul\":6571:6575   */\n      0x00\n        /* \"#utility.yul\":6609:6612   */\n      0xa0\n        /* \"#utility.yul\":6598:6607   */\n      dup3\n        /* \"#utility.yul\":6594:6613   */\n      add\n        /* \"#utility.yul\":6586:6613   */\n      swap1\n      pop\n        /* \"#utility.yul\":6659:6668   */\n      dup2\n        /* \"#utility.yul\":6653:6657   */\n      dup2\n        /* \"#utility.yul\":6649:6669   */\n      sub\n        /* \"#utility.yul\":6645:6646   */\n      0x00\n        /* \"#utility.yul\":6634:6643   */\n      dup4\n        /* \"#utility.yul\":6630:6647   */\n      add\n        /* \"#utility.yul\":6623:6670   */\n      mstore\n        /* \"#utility.yul\":6687:6765   */\n      tag_164\n        /* \"#utility.yul\":6760:6764   */\n      dup2\n        /* \"#utility.yul\":6751:6757   */\n      dup9\n        /* \"#utility.yul\":6687:6765   */\n      tag_64\n      jump\t// in\n    tag_164:\n        /* \"#utility.yul\":6679:6765   */\n      swap1\n      pop\n        /* \"#utility.yul\":6775:6847   */\n      tag_165\n        /* \"#utility.yul\":6843:6845   */\n      0x20\n        /* \"#utility.yul\":6832:6841   */\n      dup4\n        /* \"#utility.yul\":6828:6846   */\n      add\n        /* \"#utility.yul\":6819:6825   */\n      dup8\n        /* \"#utility.yul\":6775:6847   */\n      tag_65\n      jump\t// in\n    tag_165:\n        /* \"#utility.yul\":6894:6903   */\n      dup2\n        /* \"#utility.yul\":6888:6892   */\n      dup2\n        /* \"#utility.yul\":6884:6904   */\n      sub\n        /* \"#utility.yul\":6879:6881   */\n      0x40\n        /* \"#utility.yul\":6868:6877   */\n      dup4\n        /* \"#utility.yul\":6864:6882   */\n      add\n        /* \"#utility.yul\":6857:6905   */\n      mstore\n        /* \"#utility.yul\":6922:7000   */\n      tag_166\n        /* \"#utility.yul\":6995:6999   */\n      dup2\n        /* \"#utility.yul\":6986:6992   */\n      dup7\n        /* \"#utility.yul\":6922:7000   */\n      tag_64\n      jump\t// in\n    tag_166:\n        /* \"#utility.yul\":6914:7000   */\n      swap1\n      pop\n        /* \"#utility.yul\":7047:7056   */\n      dup2\n        /* \"#utility.yul\":7041:7045   */\n      dup2\n        /* \"#utility.yul\":7037:7057   */\n      sub\n        /* \"#utility.yul\":7032:7034   */\n      0x60\n        /* \"#utility.yul\":7021:7030   */\n      dup4\n        /* \"#utility.yul\":7017:7035   */\n      add\n        /* \"#utility.yul\":7010:7058   */\n      mstore\n        /* \"#utility.yul\":7075:7153   */\n      tag_167\n        /* \"#utility.yul\":7148:7152   */\n      dup2\n        /* \"#utility.yul\":7139:7145   */\n      dup6\n        /* \"#utility.yul\":7075:7153   */\n      tag_64\n      jump\t// in\n    tag_167:\n        /* \"#utility.yul\":7067:7153   */\n      swap1\n      pop\n        /* \"#utility.yul\":7163:7230   */\n      tag_168\n        /* \"#utility.yul\":7225:7228   */\n      0x80\n        /* \"#utility.yul\":7214:7223   */\n      dup4\n        /* \"#utility.yul\":7210:7229   */\n      add\n        /* \"#utility.yul\":7201:7207   */\n      dup5\n        /* \"#utility.yul\":7163:7230   */\n      tag_67\n      jump\t// in\n    tag_168:\n        /* \"#utility.yul\":6312:7237   */\n      swap7\n      swap6\n      pop\n      pop\n      pop\n      pop\n      pop\n      pop\n      jump\t// out\n        /* \"#utility.yul\":7243:7420   */\n    tag_68:\n        /* \"#utility.yul\":7383:7412   */\n      0x436572746966696361746520616c7265616479206973737565642e0000000000\n        /* \"#utility.yul\":7379:7380   */\n      0x00\n        /* \"#utility.yul\":7371:7377   */\n      dup3\n        /* \"#utility.yul\":7367:7381   */\n      add\n        /* \"#utility.yul\":7360:7413   */\n      mstore\n        /* \"#utility.yul\":7243:7420   */\n      pop\n      jump\t// out\n        /* \"#utility.yul\":7426:7792   */\n    tag_69:\n        /* \"#utility.yul\":7568:7571   */\n      0x00\n        /* \"#utility.yul\":7589:7656   */\n      tag_171\n        /* \"#utility.yul\":7653:7655   */\n      0x1b\n        /* \"#utility.yul\":7648:7651   */\n      dup4\n        /* \"#utility.yul\":7589:7656   */\n      tag_62\n      jump\t// in\n    tag_171:\n        /* \"#utility.yul\":7582:7656   */\n      swap2\n      pop\n        /* \"#utility.yul\":7665:7758   */\n      tag_172\n        /* \"#utility.yul\":7754:7757   */\n      dup3\n        /* \"#utility.yul\":7665:7758   */\n      tag_68\n      jump\t// in\n    tag_172:\n        /* \"#utility.yul\":7783:7785   */\n      0x20\n        /* \"#utility.yul\":7778:7781   */\n      dup3\n        /* \"#utility.yul\":7774:7786   */\n      add\n        /* \"#utility.yul\":7767:7786   */\n      swap1\n      pop\n        /* \"#utility.yul\":7426:7792   */\n      swap2\n      swap1\n      pop\n      jump\t// out\n        /* \"#utility.yul\":7798:8217   */\n    tag_18:\n        /* \"#utility.yul\":7964:7968   */\n      0x00\n        /* \"#utility.yul\":8002:8004   */\n      0x20\n        /* \"#utility.yul\":7991:8000   */\n      dup3\n        /* \"#utility.yul\":7987:8005   */\n      add\n        /* \"#utility.yul\":7979:8005   */\n      swap1\n      pop\n        /* \"#utility.yul\":8051:8060   */\n      dup2\n        /* \"#utility.yul\":8045:8049   */\n      dup2\n        /* \"#utility.yul\":8041:8061   */\n      sub\n        /* \"#utility.yul\":8037:8038   */\n      0x00\n        /* \"#utility.yul\":8026:8035   */\n      dup4\n        /* \"#utility.yul\":8022:8039   */\n      add\n        /* \"#utility.yul\":8015:8062   */\n      mstore\n        /* \"#utility.yul\":8079:8210   */\n      tag_174\n        /* \"#utility.yul\":8205:8209   */\n      dup2\n        /* \"#utility.yul\":8079:8210   */\n      tag_69\n      jump\t// in\n    tag_174:\n        /* \"#utility.yul\":8071:8210   */\n      swap1\n      pop\n        /* \"#utility.yul\":7798:8217   */\n      swap2\n      swap1\n      pop\n      jump\t// out\n        /* \"#utility.yul\":8223:8403   */\n    tag_70:\n        /* \"#utility.yul\":8271:8348   */\n      0x4e487b7100000000000000000000000000000000000000000000000000000000\n        /* \"#utility.yul\":8268:8269   */\n      0x00\n        /* \"#utility.yul\":8261:8349   */\n      mstore\n        /* \"#utility.yul\":8368:8372   */\n      0x22\n        /* \"#utility.yul\":8365:8366   */\n      0x04\n        /* \"#utility.yul\":8358:8373   */\n      mstore\n        /* \"#utility.yul\":8392:8396   */\n      0x24\n        /* \"#utility.yul\":8389:8390   */\n      0x00\n        /* \"#utility.yul\":8382:8397   */\n      revert\n        /* \"#utility.yul\":8409:8729   */\n    tag_26:\n        /* \"#utility.yul\":8453:8459   */\n      0x00\n        /* \"#utility.yul\":8490:8491   */\n      0x02\n        /* \"#utility.yul\":8484:8488   */\n      dup3\n        /* \"#utility.yul\":8480:8492   */\n      div\n        /* \"#utility.yul\":8470:8492   */\n      swap1\n      pop\n        /* \"#utility.yul\":8537:8538   */\n      0x01\n        /* \"#utility.yul\":8531:8535   */\n      dup3\n        /* \"#utility.yul\":8527:8539   */\n      and\n        /* \"#utility.yul\":8558:8576   */\n      dup1\n        /* \"#utility.yul\":8548:8629   */\n      tag_177\n      jumpi\n        /* \"#utility.yul\":8614:8618   */\n      0x7f\n        /* \"#utility.yul\":8606:8612   */\n      dup3\n        /* \"#utility.yul\":8602:8619   */\n      and\n        /* \"#utility.yul\":8592:8619   */\n      swap2\n      pop\n        /* \"#utility.yul\":8548:8629   */\n    tag_177:\n        /* \"#utility.yul\":8676:8678   */\n      0x20\n        /* \"#utility.yul\":8668:8674   */\n      dup3\n        /* \"#utility.yul\":8665:8679   */\n      lt\n        /* \"#utility.yul\":8645:8663   */\n      dup2\n        /* \"#utility.yul\":8642:8680   */\n      sub\n        /* \"#utility.yul\":8639:8723   */\n      tag_178\n      jumpi\n        /* \"#utility.yul\":8695:8713   */\n      tag_179\n      tag_70\n      jump\t// in\n    tag_179:\n        /* \"#utility.yul\":8639:8723   */\n    tag_178:\n        /* \"#utility.yul\":8460:8729   */\n      pop\n        /* \"#utility.yul\":8409:8729   */\n      swap2\n      swap1\n      pop\n      jump\t// out\n        /* \"#utility.yul\":8735:8876   */\n    tag_71:\n        /* \"#utility.yul\":8784:8788   */\n      0x00\n        /* \"#utility.yul\":8807:8810   */\n      dup2\n        /* \"#utility.yul\":8799:8810   */\n      swap1\n      pop\n        /* \"#utility.yul\":8830:8833   */\n      dup2\n        /* \"#utility.yul\":8827:8828   */\n      0x00\n        /* \"#utility.yul\":8820:8834   */\n      mstore\n        /* \"#utility.yul\":8864:8868   */\n      0x20\n        /* \"#utility.yul\":8861:8862   */\n      0x00\n        /* \"#utility.yul\":8851:8869   */\n      keccak256\n        /* \"#utility.yul\":8843:8869   */\n      swap1\n      pop\n        /* \"#utility.yul\":8735:8876   */\n      swap2\n      swap1\n      pop\n      jump\t// out\n        /* \"#utility.yul\":8882:8975   */\n    tag_72:\n        /* \"#utility.yul\":8919:8925   */\n      0x00\n        /* \"#utility.yul\":8966:8968   */\n      0x20\n        /* \"#utility.yul\":8961:8963   */\n      0x1f\n        /* \"#utility.yul\":8954:8959   */\n      dup4\n        /* \"#utility.yul\":8950:8964   */\n      add\n        /* \"#utility.yul\":8946:8969   */\n      div\n        /* \"#utility.yul\":8936:8969   */\n      swap1\n      pop\n        /* \"#utility.yul\":8882:8975   */\n      swap2\n      swap1\n      pop\n      jump\t// out\n        /* \"#utility.yul\":8981:9088   */\n    tag_73:\n        /* \"#utility.yul\":9025:9033   */\n      0x00\n        /* \"#utility.yul\":9075:9080   */\n      dup3\n        /* \"#utility.yul\":9069:9073   */\n      dup3\n        /* \"#utility.yul\":9065:9081   */\n      shl\n        /* \"#utility.yul\":9044:9081   */\n      swap1\n      pop\n        /* \"#utility.yul\":8981:9088   */\n      swap3\n      swap2\n      pop\n      pop\n      jump\t// out\n        /* \"#utility.yul\":9094:9487   */\n    tag_74:\n        /* \"#utility.yul\":9163:9169   */\n      0x00\n        /* \"#utility.yul\":9213:9214   */\n      0x08\n        /* \"#utility.yul\":9201:9211   */\n      dup4\n        /* \"#utility.yul\":9197:9215   */\n      mul\n        /* \"#utility.yul\":9236:9333   */\n      tag_184\n        /* \"#utility.yul\":9266:9332   */\n      0xffffffffffffffffffffffffffffffffffffffffffffffffffffffffffffffff\n        /* \"#utility.yul\":9255:9264   */\n      dup3\n        /* \"#utility.yul\":9236:9333   */\n      tag_73\n      jump\t// in\n    tag_184:\n        /* \"#utility.yul\":9354:9393   */\n      tag_185\n        /* \"#utility.yul\":9384:9392   */\n      dup7\n        /* \"#utility.yul\":9373:9382   */\n      dup4\n        /* \"#utility.yul\":9354:9393   */\n      tag_73\n      jump\t// in\n    tag_185:\n        /* \"#utility.yul\":9342:9393   */\n      swap6\n      pop\n        /* \"#utility.yul\":9426:9430   */\n      dup1\n        /* \"#utility.yul\":9422:9431   */\n      not\n        /* \"#utility.yul\":9415:9420   */\n      dup5\n        /* \"#utility.yul\":9411:9432   */\n      and\n        /* \"#utility.yul\":9402:9432   */\n      swap4\n      pop\n        /* \"#utility.yul\":9475:9479   */\n      dup1\n        /* \"#utility.yul\":9465:9473   */\n      dup7\n        /* \"#utility.yul\":9461:9480   */\n      and\n        /* \"#utility.yul\":9454:9459   */\n      dup5\n        /* \"#utility.yul\":9451:9481   */\n      or\n        /* \"#utility.yul\":9441:9481   */\n      swap3\n      pop\n        /* \"#utility.yul\":9170:9487   */\n      pop\n      pop\n        /* \"#utility.yul\":9094:9487   */\n      swap4\n      swap3\n      pop\n      pop\n      pop\n      jump\t// out\n        /* \"#utility.yul\":9493:9553   */\n    tag_75:\n        /* \"#utility.yul\":9521:9524   */\n      0x00\n        /* \"#utility.yul\":9542:9547   */\n      dup2\n        /* \"#utility.yul\":9535:9547   */\n      swap1\n      pop\n        /* \"#utility.yul\":9493:9553   */\n      swap2\n      swap1\n      pop\n      jump\t// out\n        /* \"#utility.yul\":9559:9701   */\n    tag_76:\n        /* \"#utility.yul\":9609:9618   */\n      0x00\n        /* \"#utility.yul\":9642:9695   */\n      tag_188\n        /* \"#utility.yul\":9660:9694   */\n      tag_189\n        /* \"#utility.yul\":9669:9693   */\n      tag_190\n        /* \"#utility.yul\":9687:9692   */\n      dup5\n        /* \"#utility.yul\":9669:9693   */\n      tag_54\n      jump\t// in\n    tag_190:\n        /* \"#utility.yul\":9660:9694   */\n      tag_75\n      jump\t// in\n    tag_189:\n        /* \"#utility.yul\":9642:9695   */\n      tag_54\n      jump\t// in\n    tag_188:\n        /* \"#utility.yul\":9629:9695   */\n      swap1\n      pop\n        /* \"#utility.yul\":9559:9701   */\n      swap2\n      swap1\n      pop\n      jump\t// out\n        /* \"#utility.yul\":9707:9782   */\n    tag_77:\n        /* \"#utility.yul\":9750:9753   */\n      0x00\n        /* \"#utility.yul\":9771:9776   */\n      dup2\n        /* \"#utility.yul\":9764:9776   */\n      swap1\n      pop\n        /* \"#utility.yul\":9707:9782   */\n      swap2\n      swap1\n      pop\n      jump\t// out\n        /* \"#utility.yul\":9788:10057   */\n    tag_78:\n        /* \"#utility.yul\":9898:9937   */\n      tag_193\n        /* \"#utility.yul\":9929:9936   */\n      dup4\n        /* \"#utility.yul\":9898:9937   */\n      tag_76\n      jump\t// in\n    tag_193:\n        /* \"#utility.yul\":9959:10050   */\n      tag_194\n        /* \"#utility.yul\":10008:10049   */\n      tag_195\n        /* \"#utility.yul\":10032:10048   */\n      dup3\n        /* \"#utility.yul\":10008:10049   */\n      tag_77\n      jump\t// in\n    tag_195:\n        /* \"#utility.yul\":10000:10006   */\n      dup5\n        /* \"#utility.yul\":9993:9997   */\n      dup5\n        /* \"#utility.yul\":9987:9998   */\n      sload\n        /* \"#utility.yul\":9959:10050   */\n      tag_74\n      jump\t// in\n    tag_194:\n        /* \"#utility.yul\":9953:9957   */\n      dup3\n        /* \"#utility.yul\":9946:10051   */\n      sstore\n        /* \"#utility.yul\":9864:10057   */\n      pop\n        /* \"#utility.yul\":9788:10057   */\n      pop\n      pop\n      pop\n      jump\t// out\n        /* \"#utility.yul\":10063:10136   */\n    tag_79:\n        /* \"#utility.yul\":10108:10111   */\n      0x00\n        /* \"#utility.yul\":10063:10136   */\n      swap1\n      jump\t// out\n        /* \"#utility.yul\":10142:10331   */\n    tag_80:\n        /* \"#utility.yul\":10219:10251   */\n      tag_198\n      tag_79\n      jump\t// in\n    tag_198:\n        /* \"#utility.yul\":10260:10325   */\n      tag_199\n        /* \"#utility.yul\":10318:10324   */\n      dup2\n        /* \"#utility.yul\":10310:10316   */\n      dup5\n        /* \"#utility.yul\":10304:10308   */\n      dup5\n        /* \"#utility.yul\":10260:10325   */\n      tag_78\n      jump\t// in\n    tag_199:\n        /* \"#utility.yul\":10195:10331   */\n      pop\n        /* \"#utility.yul\":10142:10331   */\n      pop\n      pop\n      jump\t// out\n        /* \"#utility.yul\":10337:10523   */\n    tag_81:\n        /* \"#utility.yul\":10397:10517   */\n    tag_201:\n        /* \"#utility.yul\":10414:10417   */\n      dup2\n        /* \"#utility.yul\":10407:10412   */\n      dup2\n        /* \"#utility.yul\":10404:10418   */\n      lt\n        /* \"#utility.yul\":10397:10517   */\n      iszero\n      tag_203\n      jumpi\n        /* \"#utility.yul\":10468:10507   */\n      tag_204\n        /* \"#utility.yul\":10505:10506   */\n      0x00\n        /* \"#utility.yul\":10498:10503   */\n      dup3\n        /* \"#utility.yul\":10468:10507   */\n      tag_80\n      jump\t// in\n    tag_204:\n        /* \"#utility.yul\":10441:10442   */\n      0x01\n        /* \"#utility.yul\":10434:10439   */\n      dup2\n        /* \"#utility.yul\":10430:10443   */\n      add\n        /* \"#utility.yul\":10421:10443   */\n      swap1\n      pop\n        /* \"#utility.yul\":10397:10517   */\n      jump(tag_201)\n    tag_203:\n        /* \"#utility.yul\":10337:10523   */\n      pop\n      pop\n      jump\t// out\n        /* \"#utility.yul\":10529:11072   */\n    tag_82:\n        /* \"#utility.yul\":10630:10632   */\n      0x1f\n        /* \"#utility.yul\":10625:10628   */\n      dup3\n        /* \"#utility.yul\":10622:10633   */\n      gt\n        /* \"#utility.yul\":10619:11065   */\n      iszero\n      tag_206\n      jumpi\n        /* \"#utility.yul\":10664:10702   */\n      tag_207\n        /* \"#utility.yul\":10696:10701   */\n      dup2\n        /* \"#utility.yul\":10664:10702   */\n      tag_71\n      jump\t// in\n    tag_207:\n        /* \"#utility.yul\":10748:10777   */\n      tag_208\n        /* \"#utility.yul\":10766:10776   */\n      dup5\n        /* \"#utility.yul\":10748:10777   */\n      tag_72\n      jump\t// in\n    tag_208:\n        /* \"#utility.yul\":10738:10746   */\n      dup2\n        /* \"#utility.yul\":10734:10778   */\n      add\n        /* \"#utility.yul\":10931:10933   */\n      0x20\n        /* \"#utility.yul\":10919:10929   */\n      dup6\n        /* \"#utility.yul\":10916:10934   */\n      lt\n        /* \"#utility.yul\":10913:10962   */\n      iszero\n      tag_209\n      jumpi\n        /* \"#utility.yul\":10952:10960   */\n      dup2\n        /* \"#utility.yul\":10937:10960   */\n      swap1\n      pop\n        /* \"#utility.yul\":10913:10962   */\n    tag_209:\n        /* \"#utility.yul\":10975:11055   */\n      tag_210\n        /* \"#utility.yul\":11031:11053   */\n      tag_211\n        /* \"#utility.yul\":11049:11052   */\n      dup6\n        /* \"#utility.yul\":11031:11053   */\n      tag_72\n      jump\t// in\n    tag_211:\n        /* \"#utility.yul\":11021:11029   */\n      dup4\n        /* \"#utility.yul\":11017:11054   */\n      add\n        /* \"#utility.yul\":11004:11015   */\n      dup3\n        /* \"#utility.yul\":10975:11055   */\n      tag_81\n      jump\t// in\n    tag_210:\n        /* \"#utility.yul\":10634:11065   */\n      pop\n      pop\n        /* \"#utility.yul\":10619:11065   */\n    tag_206:\n        /* \"#utility.yul\":10529:11072   */\n      pop\n      pop\n      pop\n      jump\t// out\n        /* \"#utility.yul\":11078:11195   */\n    tag_83:\n        /* \"#utility.yul\":11132:11140   */\n      0x00\n        /* \"#utility.yul\":11182:11187   */\n      dup3\n        /* \"#utility.yul\":11176:11180   */\n      dup3\n        /* \"#utility.yul\":11172:11188   */\n      shr\n        /* \"#utility.yul\":11151:11188   */\n      swap1\n      pop\n        /* \"#utility.yul\":11078:11195   */\n      swap3\n      swap2\n      pop\n      pop\n      jump\t// out\n        /* \"#utility.yul\":11201:11370   */\n    tag_84:\n        /* \"#utility.yul\":11245:11251   */\n      0x00\n        /* \"#utility.yul\":11278:11329   */\n      tag_214\n        /* \"#utility.yul\":11326:11327   */\n      0x00\n        /* \"#utility.yul\":11322:11328   */\n      not\n        /* \"#utility.yul\":11314:11319   */\n      dup5\n        /* \"#utility.yul\":11311:11312   */\n      0x08\n        /* \"#utility.yul\":11307:11320   */\n      mul\n        /* \"#utility.yul\":11278:11329   */\n      tag_83\n      jump\t// in\n    tag_214:\n        /* \"#utility.yul\":11274:11330   */\n      not\n        /* \"#utility.yul\":11359:11363   */\n      dup1\n        /* \"#utility.yul\":11353:11357   */\n      dup4\n        /* \"#utility.yul\":11349:11364   */\n      and\n        /* \"#utility.yul\":11339:11364   */\n      swap2\n      pop\n        /* \"#utility.yul\":11252:11370   */\n      pop\n        /* \"#utility.yul\":11201:11370   */\n      swap3\n      swap2\n      pop\n      pop\n      jump\t// out\n        /* \"#utility.yul\":11375:11670   */\n    tag_85:\n        /* \"#utility.yul\":11451:11455   */\n      0x00\n        /* \"#utility.yul\":11597:11626   */\n      tag_216\n        /* \"#utility.yul\":11622:11625   */\n      dup4\n        /* \"#utility.yul\":11616:11620   */\n      dup4\n        /* \"#utility.yul\":11597:11626   */\n      tag_84\n      jump\t// in\n    tag_216:\n        /* \"#utility.yul\":11589:11626   */\n      swap2\n      pop\n        /* \"#utility.yul\":11659:11662   */\n      dup3\n        /* \"#utility.yul\":11656:11657   */\n      0x02\n        /* \"#utility.yul\":11652:11663   */\n      mul\n        /* \"#utility.yul\":11646:11650   */\n      dup3\n        /* \"#utility.yul\":11643:11664   */\n      or\n        /* \"#utility.yul\":11635:11664   */\n      swap1\n      pop\n        /* \"#utility.yul\":11375:11670   */\n      swap3\n      swap2\n      pop\n      pop\n      jump\t// out\n        /* \"#utility.yul\":11675:13070   */\n    tag_20:\n        /* \"#utility.yul\":11792:11829   */\n      tag_218\n        /* \"#utility.yul\":11825:11828   */\n      dup3\n        /* \"#utility.yul\":11792:11829   */\n      tag_61\n      jump\t// in\n    tag_218:\n        /* \"#utility.yul\":11894:11912   */\n      0xffffffffffffffff\n        /* \"#utility.yul\":11886:11892   */\n      dup2\n        /* \"#utility.yul\":11883:11913   */\n      gt\n        /* \"#utility.yul\":11880:11936   */\n      iszero\n      tag_219\n      jumpi\n        /* \"#utility.yul\":11916:11934   */\n      tag_220\n      tag_47\n      jump\t// in\n    tag_220:\n        /* \"#utility.yul\":11880:11936   */\n    tag_219:\n        /* \"#utility.yul\":11960:11998   */\n      tag_221\n        /* \"#utility.yul\":11992:11996   */\n      dup3\n        /* \"#utility.yul\":11986:11997   */\n      sload\n        /* \"#utility.yul\":11960:11998   */\n      tag_26\n      jump\t// in\n    tag_221:\n        /* \"#utility.yul\":12045:12112   */\n      tag_222\n        /* \"#utility.yul\":12105:12111   */\n      dup3\n        /* \"#utility.yul\":12097:12103   */\n      dup3\n        /* \"#utility.yul\":12091:12095   */\n      dup6\n        /* \"#utility.yul\":12045:12112   */\n      tag_82\n      jump\t// in\n    tag_222:\n        /* \"#utility.yul\":12139:12140   */\n      0x00\n        /* \"#utility.yul\":12163:12167   */\n      0x20\n        /* \"#utility.yul\":12150:12167   */\n      swap1\n      pop\n        /* \"#utility.yul\":12195:12197   */\n      0x1f\n        /* \"#utility.yul\":12187:12193   */\n      dup4\n        /* \"#utility.yul\":12184:12198   */\n      gt\n        /* \"#utility.yul\":12212:12213   */\n      0x01\n        /* \"#utility.yul\":12207:12825   */\n      dup2\n      eq\n      tag_224\n      jumpi\n        /* \"#utility.yul\":12869:12870   */\n      0x00\n        /* \"#utility.yul\":12886:12892   */\n      dup5\n        /* \"#utility.yul\":12883:12960   */\n      iszero\n      tag_225\n      jumpi\n        /* \"#utility.yul\":12935:12944   */\n      dup3\n        /* \"#utility.yul\":12930:12933   */\n      dup8\n        /* \"#utility.yul\":12926:12945   */\n      add\n        /* \"#utility.yul\":12920:12946   */\n      mload\n        /* \"#utility.yul\":12911:12946   */\n      swap1\n      pop\n        /* \"#utility.yul\":12883:12960   */\n    tag_225:\n        /* \"#utility.yul\":12986:13053   */\n      tag_226\n        /* \"#utility.yul\":13046:13052   */\n      dup6\n        /* \"#utility.yul\":13039:13044   */\n      dup3\n        /* \"#utility.yul\":12986:13053   */\n      tag_85\n      jump\t// in\n    tag_226:\n        /* \"#utility.yul\":12980:12984   */\n      dup7\n        /* \"#utility.yul\":12973:13054   */\n      sstore\n        /* \"#utility.yul\":12842:13064   */\n      pop\n        /* \"#utility.yul\":12177:13064   */\n      jump(tag_223)\n        /* \"#utility.yul\":12207:12825   */\n    tag_224:\n        /* \"#utility.yul\":12259:12263   */\n      0x1f\n        /* \"#utility.yul\":12255:12264   */\n      not\n        /* \"#utility.yul\":12247:12253   */\n      dup5\n        /* \"#utility.yul\":12243:12265   */\n      and\n        /* \"#utility.yul\":12293:12330   */\n      tag_227\n        /* \"#utility.yul\":12325:12329   */\n      dup7\n        /* \"#utility.yul\":12293:12330   */\n      tag_71\n      jump\t// in\n    tag_227:\n        /* \"#utility.yul\":12352:12353   */\n      0x00\n        /* \"#utility.yul\":12366:12574   */\n    tag_228:\n        /* \"#utility.yul\":12380:12387   */\n      dup3\n        /* \"#utility.yul\":12377:12378   */\n      dup2\n        /* \"#utility.yul\":12374:12388   */\n      lt\n        /* \"#utility.yul\":12366:12574   */\n      iszero\n      tag_230\n      jumpi\n        /* \"#utility.yul\":12459:12468   */\n      dup5\n        /* \"#utility.yul\":12454:12457   */\n      dup10\n        /* \"#utility.yul\":12450:12469   */\n      add\n        /* \"#utility.yul\":12444:12470   */\n      mload\n        /* \"#utility.yul\":12436:12442   */\n      dup3\n        /* \"#utility.yul\":12429:12471   */\n      sstore\n        /* \"#utility.yul\":12510:12511   */\n      0x01\n        /* \"#utility.yul\":12502:12508   */\n      dup3\n        /* \"#utility.yul\":12498:12512   */\n      add\n        /* \"#utility.yul\":12488:12512   */\n      swap2\n      pop\n        /* \"#utility.yul\":12557:12559   */\n      0x20\n        /* \"#utility.yul\":12546:12555   */\n      dup6\n        /* \"#utility.yul\":12542:12560   */\n      add\n        /* \"#utility.yul\":12529:12560   */\n      swap5\n      pop\n        /* \"#utility.yul\":12403:12407   */\n      0x20\n        /* \"#utility.yul\":12400:12401   */\n      dup2\n        /* \"#utility.yul\":12396:12408   */\n      add\n        /* \"#utility.yul\":12391:12408   */\n      swap1\n      pop\n        /* \"#utility.yul\":12366:12574   */\n      jump(tag_228)\n    tag_230:\n        /* \"#utility.yul\":12602:12608   */\n      dup7\n        /* \"#utility.yul\":12593:12600   */\n      dup4\n        /* \"#utility.yul\":12590:12609   */\n      lt\n        /* \"#utility.yul\":12587:12766   */\n      iszero\n      tag_231\n      jumpi\n        /* \"#utility.yul\":12660:12669   */\n      dup5\n        /* \"#utility.yul\":12655:12658   */\n      dup10\n        /* \"#utility.yul\":12651:12670   */\n      add\n        /* \"#utility.yul\":12645:12671   */\n      mload\n        /* \"#utility.yul\":12703:12751   */\n      tag_232\n        /* \"#utility.yul\":12745:12749   */\n      0x1f\n        /* \"#utility.yul\":12737:12743   */\n      dup10\n        /* \"#utility.yul\":12733:12750   */\n      and\n        /* \"#utility.yul\":12722:12731   */\n      dup3\n        /* \"#utility.yul\":12703:12751   */\n      tag_84\n      jump\t// in\n    tag_232:\n        /* \"#utility.yul\":12695:12701   */\n      dup4\n        /* \"#utility.yul\":12688:12752   */\n      sstore\n        /* \"#utility.yul\":12610:12766   */\n      pop\n        /* \"#utility.yul\":12587:12766   */\n    tag_231:\n        /* \"#utility.yul\":12812:12813   */\n      0x01\n        /* \"#utility.yul\":12808:12809   */\n      0x02\n        /* \"#utility.yul\":12800:12806   */\n      dup9\n        /* \"#utility.yul\":12796:12810   */\n      mul\n        /* \"#utility.yul\":12792:12814   */\n      add\n        /* \"#utility.yul\":12786:12790   */\n      dup9\n        /* \"#utility.yul\":12779:12815   */\n      sstore\n        /* \"#utility.yul\":12214:12825   */\n      pop\n      pop\n      pop\n        /* \"#utility.yul\":12177:13064   */\n    tag_223:\n      pop\n        /* \"#utility.yul\":11767:13070   */\n      pop\n      pop\n      pop\n        /* \"#utility.yul\":11675:13070   */\n      pop\n      pop\n      jump\t// out\n        /* \"#utility.yul\":13076:13902   */\n    tag_24:\n        /* \"#utility.yul\":13313:13317   */\n      0x00\n        /* \"#utility.yul\":13351:13354   */\n      0x80\n        /* \"#utility.yul\":13340:13349   */\n      dup3\n        /* \"#utility.yul\":13336:13355   */\n      add\n        /* \"#utility.yul\":13328:13355   */\n      swap1\n      pop\n        /* \"#utility.yul\":13401:13410   */\n      dup2\n        /* \"#utility.yul\":13395:13399   */\n      dup2\n        /* \"#utility.yul\":13391:13411   */\n      sub\n        /* \"#utility.yul\":13387:13388   */\n      0x00\n        /* \"#utility.yul\":13376:13385   */\n      dup4\n        /* \"#utility.yul\":13372:13389   */\n      add\n        /* \"#utility.yul\":13365:13412   */\n      mstore\n        /* \"#utility.yul\":13429:13507   */\n      tag_234\n        /* \"#utility.yul\":13502:13506   */\n      dup2\n        /* \"#utility.yul\":13493:13499   */\n      dup8\n        /* \"#utility.yul\":13429:13507   */\n      tag_64\n      jump\t// in\n    tag_234:\n        /* \"#utility.yul\":13421:13507   */\n      swap1\n      pop\n        /* \"#utility.yul\":13517:13589   */\n      tag_235\n        /* \"#utility.yul\":13585:13587   */\n      0x20\n        /* \"#utility.yul\":13574:13583   */\n      dup4\n        /* \"#utility.yul\":13570:13588   */\n      add\n        /* \"#utility.yul\":13561:13567   */\n      dup7\n        /* \"#utility.yul\":13517:13589   */\n      tag_65\n      jump\t// in\n    tag_235:\n        /* \"#utility.yul\":13636:13645   */\n      dup2\n        /* \"#utility.yul\":13630:13634   */\n      dup2\n        /* \"#utility.yul\":13626:13646   */\n      sub\n        /* \"#utility.yul\":13621:13623   */\n      0x40\n        /* \"#utility.yul\":13610:13619   */\n      dup4\n        /* \"#utility.yul\":13606:13624   */\n      add\n        /* \"#utility.yul\":13599:13647   */\n      mstore\n        /* \"#utility.yul\":13664:13742   */\n      tag_236\n        /* \"#utility.yul\":13737:13741   */\n      dup2\n        /* \"#utility.yul\":13728:13734   */\n      dup6\n        /* \"#utility.yul\":13664:13742   */\n      tag_64\n      jump\t// in\n    tag_236:\n        /* \"#utility.yul\":13656:13742   */\n      swap1\n      pop\n        /* \"#utility.yul\":13789:13798   */\n      dup2\n        /* \"#utility.yul\":13783:13787   */\n      dup2\n        /* \"#utility.yul\":13779:13799   */\n      sub\n        /* \"#utility.yul\":13774:13776   */\n      0x60\n        /* \"#utility.yul\":13763:13772   */\n      dup4\n        /* \"#utility.yul\":13759:13777   */\n      add\n        /* \"#utility.yul\":13752:13800   */\n      mstore\n        /* \"#utility.yul\":13817:13895   */\n      tag_237\n        /* \"#utility.yul\":13890:13894   */\n      dup2\n        /* \"#utility.yul\":13881:13887   */\n      dup5\n        /* \"#utility.yul\":13817:13895   */\n      tag_64\n      jump\t// in\n    tag_237:\n        /* \"#utility.yul\":13809:13895   */\n      swap1\n      pop\n        /* \"#utility.yul\":13076:13902   */\n      swap6\n      swap5\n      pop\n      pop\n      pop\n      pop\n      pop\n      jump\t// out\n\n    auxdata: 0xa26469706673582212202ba790f6ad931ac396a92c307cdce5c25bbd8e1b32b9cc7901aec1b7ac2c723064736f6c63430008120033\n}\n",
				"bytecode": {
					"linkReferences": {},
					"object": "608060405234801561001057600080fd5b50610bed806100206000396000f3fe608060405234801561001057600080fd5b50600436106100365760003560e01c8063057484951461003b578063a6c807a914610057575b600080fd5b610055600480360381019061005091906105bc565b61008b565b005b610071600480360381019061006c91906106d5565b610251565b6040516100829594939291906107ab565b60405180910390f35b600015156000803373ffffffffffffffffffffffffffffffffffffffff1673ffffffffffffffffffffffffffffffffffffffff16815260200190815260200160002060040160009054906101000a900460ff16151514610120576040517f08c379a00000000000000000000000000000000000000000000000000000000081526004016101179061085f565b60405180910390fd5b6040518060a00160405280858152602001848152602001838152602001828152602001600115158152506000803373ffffffffffffffffffffffffffffffffffffffff1673ffffffffffffffffffffffffffffffffffffffff168152602001908152602001600020600082015181600001908161019d9190610a8b565b506020820151816001015560408201518160020190816101bd9190610a8b565b5060608201518160030190816101d39190610a8b565b5060808201518160040160006101000a81548160ff0219169083151502179055509050503373ffffffffffffffffffffffffffffffffffffffff167f7432be22ee2b859a92d9f53dccaa0be2b10b6e7794afb8176a1a7871a547a992858585856040516102439493929190610b5d565b60405180910390a250505050565b6000602052806000526040600020600091509050806000018054610274906108ae565b80601f01602080910402602001604051908101604052809291908181526020018280546102a0906108ae565b80156102ed5780601f106102c2576101008083540402835291602001916102ed565b820191906000526020600020905b8154815290600101906020018083116102d057829003601f168201915b505050505090806001015490806002018054610308906108ae565b80601f0160208091040260200160405190810160405280929190818152602001828054610334906108ae565b80156103815780601f1061035657610100808354040283529160200191610381565b820191906000526020600020905b81548152906001019060200180831161036457829003601f168201915b505050505090806003018054610396906108ae565b80601f01602080910402602001604051908101604052809291908181526020018280546103c2906108ae565b801561040f5780601f106103e45761010080835404028352916020019161040f565b820191906000526020600020905b8154815290600101906020018083116103f257829003601f168201915b5050505050908060040160009054906101000a900460ff16905085565b6000604051905090565b600080fd5b600080fd5b600080fd5b600080fd5b6000601f19601f8301169050919050565b7f4e487b7100000000000000000000000000000000000000000000000000000000600052604160045260246000fd5b6104938261044a565b810181811067ffffffffffffffff821117156104b2576104b161045b565b5b80604052505050565b60006104c561042c565b90506104d1828261048a565b919050565b600067ffffffffffffffff8211156104f1576104f061045b565b5b6104fa8261044a565b9050602081019050919050565b82818337600083830152505050565b6000610529610524846104d6565b6104bb565b90508281526020810184848401111561054557610544610445565b5b610550848285610507565b509392505050565b600082601f83011261056d5761056c610440565b5b813561057d848260208601610516565b91505092915050565b6000819050919050565b61059981610586565b81146105a457600080fd5b50565b6000813590506105b681610590565b92915050565b600080600080608085870312156105d6576105d5610436565b5b600085013567ffffffffffffffff8111156105f4576105f361043b565b5b61060087828801610558565b9450506020610611878288016105a7565b935050604085013567ffffffffffffffff8111156106325761063161043b565b5b61063e87828801610558565b925050606085013567ffffffffffffffff81111561065f5761065e61043b565b5b61066b87828801610558565b91505092959194509250565b600073ffffffffffffffffffffffffffffffffffffffff82169050919050565b60006106a282610677565b9050919050565b6106b281610697565b81146106bd57600080fd5b50565b6000813590506106cf816106a9565b92915050565b6000602082840312156106eb576106ea610436565b5b60006106f9848285016106c0565b91505092915050565b600081519050919050565b600082825260208201905092915050565b60005b8381101561073c578082015181840152602081019050610721565b60008484015250505050565b600061075382610702565b61075d818561070d565b935061076d81856020860161071e565b6107768161044a565b840191505092915050565b61078a81610586565b82525050565b60008115159050919050565b6107a581610790565b82525050565b600060a08201905081810360008301526107c58188610748565b90506107d46020830187610781565b81810360408301526107e68186610748565b905081810360608301526107fa8185610748565b9050610809608083018461079c565b9695505050505050565b7f436572746966696361746520616c7265616479206973737565642e0000000000600082015250565b6000610849601b8361070d565b915061085482610813565b602082019050919050565b600060208201905081810360008301526108788161083c565b9050919050565b7f4e487b7100000000000000000000000000000000000000000000000000000000600052602260045260246000fd5b600060028204905060018216806108c657607f821691505b6020821081036108d9576108d861087f565b5b50919050565b60008190508160005260206000209050919050565b60006020601f8301049050919050565b600082821b905092915050565b6000600883026109417fffffffffffffffffffffffffffffffffffffffffffffffffffffffffffffffff82610904565b61094b8683610904565b95508019841693508086168417925050509392505050565b6000819050919050565b600061098861098361097e84610586565b610963565b610586565b9050919050565b6000819050919050565b6109a28361096d565b6109b66109ae8261098f565b848454610911565b825550505050565b600090565b6109cb6109be565b6109d6818484610999565b505050565b5b818110156109fa576109ef6000826109c3565b6001810190506109dc565b5050565b601f821115610a3f57610a10816108df565b610a19846108f4565b81016020851015610a28578190505b610a3c610a34856108f4565b8301826109db565b50505b505050565b600082821c905092915050565b6000610a6260001984600802610a44565b1980831691505092915050565b6000610a7b8383610a51565b9150826002028217905092915050565b610a9482610702565b67ffffffffffffffff811115610aad57610aac61045b565b5b610ab782546108ae565b610ac28282856109fe565b600060209050601f831160018114610af55760008415610ae3578287015190505b610aed8582610a6f565b865550610b55565b601f198416610b03866108df565b60005b82811015610b2b57848901518255600182019150602085019450602081019050610b06565b86831015610b485784890151610b44601f891682610a51565b8355505b6001600288020188555050505b505050505050565b60006080820190508181036000830152610b778187610748565b9050610b866020830186610781565b8181036040830152610b988185610748565b90508181036060830152610bac8184610748565b90509594505050505056fea26469706673582212202ba790f6ad931ac396a92c307cdce5c25bbd8e1b32b9cc7901aec1b7ac2c723064736f6c63430008120033",
					"opcodes": "PUSH1 0x80 PUSH1 0x40 MSTORE CALLVALUE DUP1 ISZERO PUSH2 0x10 JUMPI PUSH1 0x0 DUP1 REVERT JUMPDEST POP PUSH2 0xBED DUP1 PUSH2 0x20 PUSH1 0x0 CODECOPY PUSH1 0x0 RETURN INVALID PUSH1 0x80 PUSH1 0x40 MSTORE CALLVALUE DUP1 ISZERO PUSH2 0x10 JUMPI PUSH1 0x0 DUP1 REVERT JUMPDEST POP PUSH1 0x4 CALLDATASIZE LT PUSH2 0x36 JUMPI PUSH1 0x0 CALLDATALOAD PUSH1 0xE0 SHR DUP1 PUSH4 0x5748495 EQ PUSH2 0x3B JUMPI DUP1 PUSH4 0xA6C807A9 EQ PUSH2 0x57 JUMPI JUMPDEST PUSH1 0x0 DUP1 REVERT JUMPDEST PUSH2 0x55 PUSH1 0x4 DUP1 CALLDATASIZE SUB DUP2 ADD SWAP1 PUSH2 0x50 SWAP2 SWAP1 PUSH2 0x5BC JUMP JUMPDEST PUSH2 0x8B JUMP JUMPDEST STOP JUMPDEST PUSH2 0x71 PUSH1 0x4 DUP1 CALLDATASIZE SUB DUP2 ADD SWAP1 PUSH2 0x6C SWAP2 SWAP1 PUSH2 0x6D5 JUMP JUMPDEST PUSH2 0x251 JUMP JUMPDEST PUSH1 0x40 MLOAD PUSH2 0x82 SWAP6 SWAP5 SWAP4 SWAP3 SWAP2 SWAP1 PUSH2 0x7AB JUMP JUMPDEST PUSH1 0x40 MLOAD DUP1 SWAP2 SUB SWAP1 RETURN JUMPDEST PUSH1 0x0 ISZERO ISZERO PUSH1 0x0 DUP1 CALLER PUSH20 0xFFFFFFFFFFFFFFFFFFFFFFFFFFFFFFFFFFFFFFFF AND PUSH20 0xFFFFFFFFFFFFFFFFFFFFFFFFFFFFFFFFFFFFFFFF AND DUP2 MSTORE PUSH1 0x20 ADD SWAP1 DUP2 MSTORE PUSH1 0x20 ADD PUSH1 0x0 KECCAK256 PUSH1 0x4 ADD PUSH1 0x0 SWAP1 SLOAD SWAP1 PUSH2 0x100 EXP SWAP1 DIV PUSH1 0xFF AND ISZERO ISZERO EQ PUSH2 0x120 JUMPI PUSH1 0x40 MLOAD PUSH32 0x8C379A000000000000000000000000000000000000000000000000000000000 DUP2 MSTORE PUSH1 0x4 ADD PUSH2 0x117 SWAP1 PUSH2 0x85F JUMP JUMPDEST PUSH1 0x40 MLOAD DUP1 SWAP2 SUB SWAP1 REVERT JUMPDEST PUSH1 0x40 MLOAD DUP1 PUSH1 0xA0 ADD PUSH1 0x40 MSTORE DUP1 DUP6 DUP2 MSTORE PUSH1 0x20 ADD DUP5 DUP2 MSTORE PUSH1 0x20 ADD DUP4 DUP2 MSTORE PUSH1 0x20 ADD DUP3 DUP2 MSTORE PUSH1 0x20 ADD PUSH1 0x1 ISZERO ISZERO DUP2 MSTORE POP PUSH1 0x0 DUP1 CALLER PUSH20 0xFFFFFFFFFFFFFFFFFFFFFFFFFFFFFFFFFFFFFFFF AND PUSH20 0xFFFFFFFFFFFFFFFFFFFFFFFFFFFFFFFFFFFFFFFF AND DUP2 MSTORE PUSH1 0x20 ADD SWAP1 DUP2 MSTORE PUSH1 0x20 ADD PUSH1 0x0 KECCAK256 PUSH1 0x0 DUP3 ADD MLOAD DUP2 PUSH1 0x0 ADD SWAP1 DUP2 PUSH2 0x19D SWAP2 SWAP1 PUSH2 0xA8B JUMP JUMPDEST POP PUSH1 0x20 DUP3 ADD MLOAD DUP2 PUSH1 0x1 ADD SSTORE PUSH1 0x40 DUP3 ADD MLOAD DUP2 PUSH1 0x2 ADD SWAP1 DUP2 PUSH2 0x1BD SWAP2 SWAP1 PUSH2 0xA8B JUMP JUMPDEST POP PUSH1 0x60 DUP3 ADD MLOAD DUP2 PUSH1 0x3 ADD SWAP1 DUP2 PUSH2 0x1D3 SWAP2 SWAP1 PUSH2 0xA8B JUMP JUMPDEST POP PUSH1 0x80 DUP3 ADD MLOAD DUP2 PUSH1 0x4 ADD PUSH1 0x0 PUSH2 0x100 EXP DUP2 SLOAD DUP2 PUSH1 0xFF MUL NOT AND SWAP1 DUP4 ISZERO ISZERO MUL OR SWAP1 SSTORE POP SWAP1 POP POP CALLER PUSH20 0xFFFFFFFFFFFFFFFFFFFFFFFFFFFFFFFFFFFFFFFF AND PUSH32 0x7432BE22EE2B859A92D9F53DCCAA0BE2B10B6E7794AFB8176A1A7871A547A992 DUP6 DUP6 DUP6 DUP6 PUSH1 0x40 MLOAD PUSH2 0x243 SWAP5 SWAP4 SWAP3 SWAP2 SWAP1 PUSH2 0xB5D JUMP JUMPDEST PUSH1 0x40 MLOAD DUP1 SWAP2 SUB SWAP1 LOG2 POP POP POP POP JUMP JUMPDEST PUSH1 0x0 PUSH1 0x20 MSTORE DUP1 PUSH1 0x0 MSTORE PUSH1 0x40 PUSH1 0x0 KECCAK256 PUSH1 0x0 SWAP2 POP SWAP1 POP DUP1 PUSH1 0x0 ADD DUP1 SLOAD PUSH2 0x274 SWAP1 PUSH2 0x8AE JUMP JUMPDEST DUP1 PUSH1 0x1F ADD PUSH1 0x20 DUP1 SWAP2 DIV MUL PUSH1 0x20 ADD PUSH1 0x40 MLOAD SWAP1 DUP2 ADD PUSH1 0x40 MSTORE DUP1 SWAP3 SWAP2 SWAP1 DUP2 DUP2 MSTORE PUSH1 0x20 ADD DUP3 DUP1 SLOAD PUSH2 0x2A0 SWAP1 PUSH2 0x8AE JUMP JUMPDEST DUP1 ISZERO PUSH2 0x2ED JUMPI DUP1 PUSH1 0x1F LT PUSH2 0x2C2 JUMPI PUSH2 0x100 DUP1 DUP4 SLOAD DIV MUL DUP4 MSTORE SWAP2 PUSH1 0x20 ADD SWAP2 PUSH2 0x2ED JUMP JUMPDEST DUP3 ADD SWAP2 SWAP1 PUSH1 0x0 MSTORE PUSH1 0x20 PUSH1 0x0 KECCAK256 SWAP1 JUMPDEST DUP2 SLOAD DUP2 MSTORE SWAP1 PUSH1 0x1 ADD SWAP1 PUSH1 0x20 ADD DUP1 DUP4 GT PUSH2 0x2D0 JUMPI DUP3 SWAP1 SUB PUSH1 0x1F AND DUP3 ADD SWAP2 JUMPDEST POP POP POP POP POP SWAP1 DUP1 PUSH1 0x1 ADD SLOAD SWAP1 DUP1 PUSH1 0x2 ADD DUP1 SLOAD PUSH2 0x308 SWAP1 PUSH2 0x8AE JUMP JUMPDEST DUP1 PUSH1 0x1F ADD PUSH1 0x20 DUP1 SWAP2 DIV MUL PUSH1 0x20 ADD PUSH1 0x40 MLOAD SWAP1 DUP2 ADD PUSH1 0x40 MSTORE DUP1 SWAP3 SWAP2 SWAP1 DUP2 DUP2 MSTORE PUSH1 0x20 ADD DUP3 DUP1 SLOAD PUSH2 0x334 SWAP1 PUSH2 0x8AE JUMP JUMPDEST DUP1 ISZERO PUSH2 0x381 JUMPI DUP1 PUSH1 0x1F LT PUSH2 0x356 JUMPI PUSH2 0x100 DUP1 DUP4 SLOAD DIV MUL DUP4 MSTORE SWAP2 PUSH1 0x20 ADD SWAP2 PUSH2 0x381 JUMP JUMPDEST DUP3 ADD SWAP2 SWAP1 PUSH1 0x0 MSTORE PUSH1 0x20 PUSH1 0x0 KECCAK256 SWAP1 JUMPDEST DUP2 SLOAD DUP2 MSTORE SWAP1 PUSH1 0x1 ADD SWAP1 PUSH1 0x20 ADD DUP1 DUP4 GT PUSH2 0x364 JUMPI DUP3 SWAP1 SUB PUSH1 0x1F AND DUP3 ADD SWAP2 JUMPDEST POP POP POP POP POP SWAP1 DUP1 PUSH1 0x3 ADD DUP1 SLOAD PUSH2 0x396 SWAP1 PUSH2 0x8AE JUMP JUMPDEST DUP1 PUSH1 0x1F ADD PUSH1 0x20 DUP1 SWAP2 DIV MUL PUSH1 0x20 ADD PUSH1 0x40 MLOAD SWAP1 DUP2 ADD PUSH1 0x40 MSTORE DUP1 SWAP3 SWAP2 SWAP1 DUP2 DUP2 MSTORE PUSH1 0x20 ADD DUP3 DUP1 SLOAD PUSH2 0x3C2 SWAP1 PUSH2 0x8AE JUMP JUMPDEST DUP1 ISZERO PUSH2 0x40F JUMPI DUP1 PUSH1 0x1F LT PUSH2 0x3E4 JUMPI PUSH2 0x100 DUP1 DUP4 SLOAD DIV MUL DUP4 MSTORE SWAP2 PUSH1 0x20 ADD SWAP2 PUSH2 0x40F JUMP JUMPDEST DUP3 ADD SWAP2 SWAP1 PUSH1 0x0 MSTORE PUSH1 0x20 PUSH1 0x0 KECCAK256 SWAP1 JUMPDEST DUP2 SLOAD DUP2 MSTORE SWAP1 PUSH1 0x1 ADD SWAP1 PUSH1 0x20 ADD DUP1 DUP4 GT PUSH2 0x3F2 JUMPI DUP3 SWAP1 SUB PUSH1 0x1F AND DUP3 ADD SWAP2 JUMPDEST POP POP POP POP POP SWAP1 DUP1 PUSH1 0x4 ADD PUSH1 0x0 SWAP1 SLOAD SWAP1 PUSH2 0x100 EXP SWAP1 DIV PUSH1 0xFF AND SWAP1 POP DUP6 JUMP JUMPDEST PUSH1 0x0 PUSH1 0x40 MLOAD SWAP1 POP SWAP1 JUMP JUMPDEST PUSH1 0x0 DUP1 REVERT JUMPDEST PUSH1 0x0 DUP1 REVERT JUMPDEST PUSH1 0x0 DUP1 REVERT JUMPDEST PUSH1 0x0 DUP1 REVERT JUMPDEST PUSH1 0x0 PUSH1 0x1F NOT PUSH1 0x1F DUP4 ADD AND SWAP1 POP SWAP2 SWAP1 POP JUMP JUMPDEST PUSH32 0x4E487B7100000000000000000000000000000000000000000000000000000000 PUSH1 0x0 MSTORE PUSH1 0x41 PUSH1 0x4 MSTORE PUSH1 0x24 PUSH1 0x0 REVERT JUMPDEST PUSH2 0x493 DUP3 PUSH2 0x44A JUMP JUMPDEST DUP2 ADD DUP2 DUP2 LT PUSH8 0xFFFFFFFFFFFFFFFF DUP3 GT OR ISZERO PUSH2 0x4B2 JUMPI PUSH2 0x4B1 PUSH2 0x45B JUMP JUMPDEST JUMPDEST DUP1 PUSH1 0x40 MSTORE POP POP POP JUMP JUMPDEST PUSH1 0x0 PUSH2 0x4C5 PUSH2 0x42C JUMP JUMPDEST SWAP1 POP PUSH2 0x4D1 DUP3 DUP3 PUSH2 0x48A JUMP JUMPDEST SWAP2 SWAP1 POP JUMP JUMPDEST PUSH1 0x0 PUSH8 0xFFFFFFFFFFFFFFFF DUP3 GT ISZERO PUSH2 0x4F1 JUMPI PUSH2 0x4F0 PUSH2 0x45B JUMP JUMPDEST JUMPDEST PUSH2 0x4FA DUP3 PUSH2 0x44A JUMP JUMPDEST SWAP1 POP PUSH1 0x20 DUP2 ADD SWAP1 POP SWAP2 SWAP1 POP JUMP JUMPDEST DUP3 DUP2 DUP4 CALLDATACOPY PUSH1 0x0 DUP4 DUP4 ADD MSTORE POP POP POP JUMP JUMPDEST PUSH1 0x0 PUSH2 0x529 PUSH2 0x524 DUP5 PUSH2 0x4D6 JUMP JUMPDEST PUSH2 0x4BB JUMP JUMPDEST SWAP1 POP DUP3 DUP2 MSTORE PUSH1 0x20 DUP2 ADD DUP5 DUP5 DUP5 ADD GT ISZERO PUSH2 0x545 JUMPI PUSH2 0x544 PUSH2 0x445 JUMP JUMPDEST JUMPDEST PUSH2 0x550 DUP5 DUP3 DUP6 PUSH2 0x507 JUMP JUMPDEST POP SWAP4 SWAP3 POP POP POP JUMP JUMPDEST PUSH1 0x0 DUP3 PUSH1 0x1F DUP4 ADD SLT PUSH2 0x56D JUMPI PUSH2 0x56C PUSH2 0x440 JUMP JUMPDEST JUMPDEST DUP2 CALLDATALOAD PUSH2 0x57D DUP5 DUP3 PUSH1 0x20 DUP7 ADD PUSH2 0x516 JUMP JUMPDEST SWAP2 POP POP SWAP3 SWAP2 POP POP JUMP JUMPDEST PUSH1 0x0 DUP2 SWAP1 POP SWAP2 SWAP1 POP JUMP JUMPDEST PUSH2 0x599 DUP2 PUSH2 0x586 JUMP JUMPDEST DUP2 EQ PUSH2 0x5A4 JUMPI PUSH1 0x0 DUP1 REVERT JUMPDEST POP JUMP JUMPDEST PUSH1 0x0 DUP2 CALLDATALOAD SWAP1 POP PUSH2 0x5B6 DUP2 PUSH2 0x590 JUMP JUMPDEST SWAP3 SWAP2 POP POP JUMP JUMPDEST PUSH1 0x0 DUP1 PUSH1 0x0 DUP1 PUSH1 0x80 DUP6 DUP8 SUB SLT ISZERO PUSH2 0x5D6 JUMPI PUSH2 0x5D5 PUSH2 0x436 JUMP JUMPDEST JUMPDEST PUSH1 0x0 DUP6 ADD CALLDATALOAD PUSH8 0xFFFFFFFFFFFFFFFF DUP2 GT ISZERO PUSH2 0x5F4 JUMPI PUSH2 0x5F3 PUSH2 0x43B JUMP JUMPDEST JUMPDEST PUSH2 0x600 DUP8 DUP3 DUP9 ADD PUSH2 0x558 JUMP JUMPDEST SWAP5 POP POP PUSH1 0x20 PUSH2 0x611 DUP8 DUP3 DUP9 ADD PUSH2 0x5A7 JUMP JUMPDEST SWAP4 POP POP PUSH1 0x40 DUP6 ADD CALLDATALOAD PUSH8 0xFFFFFFFFFFFFFFFF DUP2 GT ISZERO PUSH2 0x632 JUMPI PUSH2 0x631 PUSH2 0x43B JUMP JUMPDEST JUMPDEST PUSH2 0x63E DUP8 DUP3 DUP9 ADD PUSH2 0x558 JUMP JUMPDEST SWAP3 POP POP PUSH1 0x60 DUP6 ADD CALLDATALOAD PUSH8 0xFFFFFFFFFFFFFFFF DUP2 GT ISZERO PUSH2 0x65F JUMPI PUSH2 0x65E PUSH2 0x43B JUMP JUMPDEST JUMPDEST PUSH2 0x66B DUP8 DUP3 DUP9 ADD PUSH2 0x558 JUMP JUMPDEST SWAP2 POP POP SWAP3 SWAP6 SWAP2 SWAP5 POP SWAP3 POP JUMP JUMPDEST PUSH1 0x0 PUSH20 0xFFFFFFFFFFFFFFFFFFFFFFFFFFFFFFFFFFFFFFFF DUP3 AND SWAP1 POP SWAP2 SWAP1 POP JUMP JUMPDEST PUSH1 0x0 PUSH2 0x6A2 DUP3 PUSH2 0x677 JUMP JUMPDEST SWAP1 POP SWAP2 SWAP1 POP JUMP JUMPDEST PUSH2 0x6B2 DUP2 PUSH2 0x697 JUMP JUMPDEST DUP2 EQ PUSH2 0x6BD JUMPI PUSH1 0x0 DUP1 REVERT JUMPDEST POP JUMP JUMPDEST PUSH1 0x0 DUP2 CALLDATALOAD SWAP1 POP PUSH2 0x6CF DUP2 PUSH2 0x6A9 JUMP JUMPDEST SWAP3 SWAP2 POP POP JUMP JUMPDEST PUSH1 0x0 PUSH1 0x20 DUP3 DUP5 SUB SLT ISZERO PUSH2 0x6EB JUMPI PUSH2 0x6EA PUSH2 0x436 JUMP JUMPDEST JUMPDEST PUSH1 0x0 PUSH2 0x6F9 DUP5 DUP3 DUP6 ADD PUSH2 0x6C0 JUMP JUMPDEST SWAP2 POP POP SWAP3 SWAP2 POP POP JUMP JUMPDEST PUSH1 0x0 DUP2 MLOAD SWAP1 POP SWAP2 SWAP1 POP JUMP JUMPDEST PUSH1 0x0 DUP3 DUP3 MSTORE PUSH1 0x20 DUP3 ADD SWAP1 POP SWAP3 SWAP2 POP POP JUMP JUMPDEST PUSH1 0x0 JUMPDEST DUP4 DUP2 LT ISZERO PUSH2 0x73C JUMPI DUP1 DUP3 ADD MLOAD DUP2 DUP5 ADD MSTORE PUSH1 0x20 DUP2 ADD SWAP1 POP PUSH2 0x721 JUMP JUMPDEST PUSH1 0x0 DUP5 DUP5 ADD MSTORE POP POP POP POP JUMP JUMPDEST PUSH1 0x0 PUSH2 0x753 DUP3 PUSH2 0x702 JUMP JUMPDEST PUSH2 0x75D DUP2 DUP6 PUSH2 0x70D JUMP JUMPDEST SWAP4 POP PUSH2 0x76D DUP2 DUP6 PUSH1 0x20 DUP7 ADD PUSH2 0x71E JUMP JUMPDEST PUSH2 0x776 DUP2 PUSH2 0x44A JUMP JUMPDEST DUP5 ADD SWAP2 POP POP SWAP3 SWAP2 POP POP JUMP JUMPDEST PUSH2 0x78A DUP2 PUSH2 0x586 JUMP JUMPDEST DUP3 MSTORE POP POP JUMP JUMPDEST PUSH1 0x0 DUP2 ISZERO ISZERO SWAP1 POP SWAP2 SWAP1 POP JUMP JUMPDEST PUSH2 0x7A5 DUP2 PUSH2 0x790 JUMP JUMPDEST DUP3 MSTORE POP POP JUMP JUMPDEST PUSH1 0x0 PUSH1 0xA0 DUP3 ADD SWAP1 POP DUP2 DUP2 SUB PUSH1 0x0 DUP4 ADD MSTORE PUSH2 0x7C5 DUP2 DUP9 PUSH2 0x748 JUMP JUMPDEST SWAP1 POP PUSH2 0x7D4 PUSH1 0x20 DUP4 ADD DUP8 PUSH2 0x781 JUMP JUMPDEST DUP2 DUP2 SUB PUSH1 0x40 DUP4 ADD MSTORE PUSH2 0x7E6 DUP2 DUP7 PUSH2 0x748 JUMP JUMPDEST SWAP1 POP DUP2 DUP2 SUB PUSH1 0x60 DUP4 ADD MSTORE PUSH2 0x7FA DUP2 DUP6 PUSH2 0x748 JUMP JUMPDEST SWAP1 POP PUSH2 0x809 PUSH1 0x80 DUP4 ADD DUP5 PUSH2 0x79C JUMP JUMPDEST SWAP7 SWAP6 POP POP POP POP POP POP JUMP JUMPDEST PUSH32 0x436572746966696361746520616C7265616479206973737565642E0000000000 PUSH1 0x0 DUP3 ADD MSTORE POP JUMP JUMPDEST PUSH1 0x0 PUSH2 0x849 PUSH1 0x1B DUP4 PUSH2 0x70D JUMP JUMPDEST SWAP2 POP PUSH2 0x854 DUP3 PUSH2 0x813 JUMP JUMPDEST PUSH1 0x20 DUP3 ADD SWAP1 POP SWAP2 SWAP1 POP JUMP JUMPDEST PUSH1 0x0 PUSH1 0x20 DUP3 ADD SWAP1 POP DUP2 DUP2 SUB PUSH1 0x0 DUP4 ADD MSTORE PUSH2 0x878 DUP2 PUSH2 0x83C JUMP JUMPDEST SWAP1 POP SWAP2 SWAP1 POP JUMP JUMPDEST PUSH32 0x4E487B7100000000000000000000000000000000000000000000000000000000 PUSH1 0x0 MSTORE PUSH1 0x22 PUSH1 0x4 MSTORE PUSH1 0x24 PUSH1 0x0 REVERT JUMPDEST PUSH1 0x0 PUSH1 0x2 DUP3 DIV SWAP1 POP PUSH1 0x1 DUP3 AND DUP1 PUSH2 0x8C6 JUMPI PUSH1 0x7F DUP3 AND SWAP2 POP JUMPDEST PUSH1 0x20 DUP3 LT DUP2 SUB PUSH2 0x8D9 JUMPI PUSH2 0x8D8 PUSH2 0x87F JUMP JUMPDEST JUMPDEST POP SWAP2 SWAP1 POP JUMP JUMPDEST PUSH1 0x0 DUP2 SWAP1 POP DUP2 PUSH1 0x0 MSTORE PUSH1 0x20 PUSH1 0x0 KECCAK256 SWAP1 POP SWAP2 SWAP1 POP JUMP JUMPDEST PUSH1 0x0 PUSH1 0x20 PUSH1 0x1F DUP4 ADD DIV SWAP1 POP SWAP2 SWAP1 POP JUMP JUMPDEST PUSH1 0x0 DUP3 DUP3 SHL SWAP1 POP SWAP3 SWAP2 POP POP JUMP JUMPDEST PUSH1 0x0 PUSH1 0x8 DUP4 MUL PUSH2 0x941 PUSH32 0xFFFFFFFFFFFFFFFFFFFFFFFFFFFFFFFFFFFFFFFFFFFFFFFFFFFFFFFFFFFFFFFF DUP3 PUSH2 0x904 JUMP JUMPDEST PUSH2 0x94B DUP7 DUP4 PUSH2 0x904 JUMP JUMPDEST SWAP6 POP DUP1 NOT DUP5 AND SWAP4 POP DUP1 DUP7 AND DUP5 OR SWAP3 POP POP POP SWAP4 SWAP3 POP POP POP JUMP JUMPDEST PUSH1 0x0 DUP2 SWAP1 POP SWAP2 SWAP1 POP JUMP JUMPDEST PUSH1 0x0 PUSH2 0x988 PUSH2 0x983 PUSH2 0x97E DUP5 PUSH2 0x586 JUMP JUMPDEST PUSH2 0x963 JUMP JUMPDEST PUSH2 0x586 JUMP JUMPDEST SWAP1 POP SWAP2 SWAP1 POP JUMP JUMPDEST PUSH1 0x0 DUP2 SWAP1 POP SWAP2 SWAP1 POP JUMP JUMPDEST PUSH2 0x9A2 DUP4 PUSH2 0x96D JUMP JUMPDEST PUSH2 0x9B6 PUSH2 0x9AE DUP3 PUSH2 0x98F JUMP JUMPDEST DUP5 DUP5 SLOAD PUSH2 0x911 JUMP JUMPDEST DUP3 SSTORE POP POP POP POP JUMP JUMPDEST PUSH1 0x0 SWAP1 JUMP JUMPDEST PUSH2 0x9CB PUSH2 0x9BE JUMP JUMPDEST PUSH2 0x9D6 DUP2 DUP5 DUP5 PUSH2 0x999 JUMP JUMPDEST POP POP POP JUMP JUMPDEST JUMPDEST DUP2 DUP2 LT ISZERO PUSH2 0x9FA JUMPI PUSH2 0x9EF PUSH1 0x0 DUP3 PUSH2 0x9C3 JUMP JUMPDEST PUSH1 0x1 DUP2 ADD SWAP1 POP PUSH2 0x9DC JUMP JUMPDEST POP POP JUMP JUMPDEST PUSH1 0x1F DUP3 GT ISZERO PUSH2 0xA3F JUMPI PUSH2 0xA10 DUP2 PUSH2 0x8DF JUMP JUMPDEST PUSH2 0xA19 DUP5 PUSH2 0x8F4 JUMP JUMPDEST DUP2 ADD PUSH1 0x20 DUP6 LT ISZERO PUSH2 0xA28 JUMPI DUP2 SWAP1 POP JUMPDEST PUSH2 0xA3C PUSH2 0xA34 DUP6 PUSH2 0x8F4 JUMP JUMPDEST DUP4 ADD DUP3 PUSH2 0x9DB JUMP JUMPDEST POP POP JUMPDEST POP POP POP JUMP JUMPDEST PUSH1 0x0 DUP3 DUP3 SHR SWAP1 POP SWAP3 SWAP2 POP POP JUMP JUMPDEST PUSH1 0x0 PUSH2 0xA62 PUSH1 0x0 NOT DUP5 PUSH1 0x8 MUL PUSH2 0xA44 JUMP JUMPDEST NOT DUP1 DUP4 AND SWAP2 POP POP SWAP3 SWAP2 POP POP JUMP JUMPDEST PUSH1 0x0 PUSH2 0xA7B DUP4 DUP4 PUSH2 0xA51 JUMP JUMPDEST SWAP2 POP DUP3 PUSH1 0x2 MUL DUP3 OR SWAP1 POP SWAP3 SWAP2 POP POP JUMP JUMPDEST PUSH2 0xA94 DUP3 PUSH2 0x702 JUMP JUMPDEST PUSH8 0xFFFFFFFFFFFFFFFF DUP2 GT ISZERO PUSH2 0xAAD JUMPI PUSH2 0xAAC PUSH2 0x45B JUMP JUMPDEST JUMPDEST PUSH2 0xAB7 DUP3 SLOAD PUSH2 0x8AE JUMP JUMPDEST PUSH2 0xAC2 DUP3 DUP3 DUP6 PUSH2 0x9FE JUMP JUMPDEST PUSH1 0x0 PUSH1 0x20 SWAP1 POP PUSH1 0x1F DUP4 GT PUSH1 0x1 DUP2 EQ PUSH2 0xAF5 JUMPI PUSH1 0x0 DUP5 ISZERO PUSH2 0xAE3 JUMPI DUP3 DUP8 ADD MLOAD SWAP1 POP JUMPDEST PUSH2 0xAED DUP6 DUP3 PUSH2 0xA6F JUMP JUMPDEST DUP7 SSTORE POP PUSH2 0xB55 JUMP JUMPDEST PUSH1 0x1F NOT DUP5 AND PUSH2 0xB03 DUP7 PUSH2 0x8DF JUMP JUMPDEST PUSH1 0x0 JUMPDEST DUP3 DUP2 LT ISZERO PUSH2 0xB2B JUMPI DUP5 DUP10 ADD MLOAD DUP3 SSTORE PUSH1 0x1 DUP3 ADD SWAP2 POP PUSH1 0x20 DUP6 ADD SWAP5 POP PUSH1 0x20 DUP2 ADD SWAP1 POP PUSH2 0xB06 JUMP JUMPDEST DUP7 DUP4 LT ISZERO PUSH2 0xB48 JUMPI DUP5 DUP10 ADD MLOAD PUSH2 0xB44 PUSH1 0x1F DUP10 AND DUP3 PUSH2 0xA51 JUMP JUMPDEST DUP4 SSTORE POP JUMPDEST PUSH1 0x1 PUSH1 0x2 DUP9 MUL ADD DUP9 SSTORE POP POP POP JUMPDEST POP POP POP POP POP POP JUMP JUMPDEST PUSH1 0x0 PUSH1 0x80 DUP3 ADD SWAP1 POP DUP2 DUP2 SUB PUSH1 0x0 DUP4 ADD MSTORE PUSH2 0xB77 DUP2 DUP8 PUSH2 0x748 JUMP JUMPDEST SWAP1 POP PUSH2 0xB86 PUSH1 0x20 DUP4 ADD DUP7 PUSH2 0x781 JUMP JUMPDEST DUP2 DUP2 SUB PUSH1 0x40 DUP4 ADD MSTORE PUSH2 0xB98 DUP2 DUP6 PUSH2 0x748 JUMP JUMPDEST SWAP1 POP DUP2 DUP2 SUB PUSH1 0x60 DUP4 ADD MSTORE PUSH2 0xBAC DUP2 DUP5 PUSH2 0x748 JUMP JUMPDEST SWAP1 POP SWAP6 SWAP5 POP POP POP POP POP JUMP INVALID LOG2 PUSH5 0x6970667358 0x22 SLT KECCAK256 0x2B 0xA7 SWAP1 0xF6 0xAD SWAP4 BYTE 0xC3 SWAP7 0xA9 0x2C ADDRESS PUSH29 0xDCE5C25BBD8E1B32B9CC7901AEC1B7AC2C723064736F6C634300081200 CALLER "
				},
				"gasEstimates": {
					"creation": {
						"codeDepositCost": "610600",
						"executionCost": "645",
						"totalCost": "611245"
					},
					"external": {
						"issueCertificate(string,uint256,string,string)": "infinite",
						"students(address)": "infinite"
					}
				},
				"methodIdentifiers": {
					"issueCertificate(string,uint256,string,string)": "05748495",
					"students(address)": "a6c807a9"
				}
			},
			"storageLayout": {
				"storage": [
					{
						"astId": 17,
						"contract": "contracts/test.sol:Certificate",
						"label": "students",
						"offset": 0,
						"slot": "0",
						"type": "t_mapping(t_address,t_struct(Student)12_storage)"
					}
				],
				"types": {
					"t_address": {
						"encoding": "inplace",
						"label": "address",
						"numberOfBytes": "20"
					},
					"t_bool": {
						"encoding": "inplace",
						"label": "bool",
						"numberOfBytes": "1"
					},
					"t_mapping(t_address,t_struct(Student)12_storage)": {
						"encoding": "mapping",
						"key": "t_address",
						"label": "mapping(address => struct Certificate.Student)",
						"numberOfBytes": "32",
						"value": "t_struct(Student)12_storage"
					},
					"t_string_storage": {
						"encoding": "bytes",
						"label": "string",
						"numberOfBytes": "32"
					},
					"t_struct(Student)12_storage": {
						"encoding": "inplace",
						"label": "struct Certificate.Student",
						"members": [
							{
								"astId": 3,
								"contract": "contracts/test.sol:Certificate",
								"label": "name",
								"offset": 0,
								"slot": "0",
								"type": "t_string_storage"
							},
							{
								"astId": 5,
								"contract": "contracts/test.sol:Certificate",
								"label": "studentID",
								"offset": 0,
								"slot": "1",
								"type": "t_uint256"
							},
							{
								"astId": 7,
								"contract": "contracts/test.sol:Certificate",
								"label": "faculty",
								"offset": 0,
								"slot": "2",
								"type": "t_string_storage"
							},
							{
								"astId": 9,
								"contract": "contracts/test.sol:Certificate",
								"label": "department",
								"offset": 0,
								"slot": "3",
								"type": "t_string_storage"
							},
							{
								"astId": 11,
								"contract": "contracts/test.sol:Certificate",
								"label": "certificateIssued",
								"offset": 0,
								"slot": "4",
								"type": "t_bool"
							}
						],
						"numberOfBytes": "160"
					},
					"t_uint256": {
						"encoding": "inplace",
						"label": "uint256",
						"numberOfBytes": "32"
					}
				}
			},
			"userdoc": {
				"kind": "user",
				"methods": {},
				"version": 1
			}
		}
	}
}