{
	"contracts/setAccessTime.sol": {
		"Certificate": {
			"abi": [
				{
					"inputs": [],
					"stateMutability": "nonpayable",
					"type": "constructor"
				},
				{
					"inputs": [
						{
							"internalType": "uint256",
							"name": "",
							"type": "uint256"
						}
					],
					"name": "_StudentCertificate",
					"outputs": [
						{
							"internalType": "address",
							"name": "studentAddress",
							"type": "address"
						},
						{
							"internalType": "string",
							"name": "certificateName",
							"type": "string"
						},
						{
							"internalType": "string",
							"name": "studentName",
							"type": "string"
						},
						{
							"internalType": "string",
							"name": "studentId",
							"type": "string"
						},
						{
							"internalType": "string",
							"name": "faculty",
							"type": "string"
						},
						{
							"internalType": "string",
							"name": "department",
							"type": "string"
						},
						{
							"internalType": "uint256",
							"name": "accessTime",
							"type": "uint256"
						},
						{
							"internalType": "bool",
							"name": "revokedStatus",
							"type": "bool"
						},
						{
							"internalType": "string",
							"name": "issuedName",
							"type": "string"
						},
						{
							"internalType": "address",
							"name": "issuedAddress",
							"type": "address"
						}
					],
					"stateMutability": "view",
					"type": "function"
				},
				{
					"inputs": [
						{
							"internalType": "uint256",
							"name": "",
							"type": "uint256"
						}
					],
					"name": "_allAdmin",
					"outputs": [
						{
							"internalType": "address",
							"name": "addminAddress",
							"type": "address"
						},
						{
							"internalType": "string",
							"name": "name",
							"type": "string"
						},
						{
							"internalType": "string",
							"name": "adminId",
							"type": "string"
						},
						{
							"internalType": "string",
							"name": "position",
							"type": "string"
						},
						{
							"internalType": "bool",
							"name": "adminStatus",
							"type": "bool"
						}
					],
					"stateMutability": "view",
					"type": "function"
				},
				{
					"inputs": [
						{
							"internalType": "address",
							"name": "addminAddress",
							"type": "address"
						},
						{
							"internalType": "string",
							"name": "name",
							"type": "string"
						},
						{
							"internalType": "string",
							"name": "adminId",
							"type": "string"
						},
						{
							"internalType": "string",
							"name": "position",
							"type": "string"
						}
					],
					"name": "addAdmin",
					"outputs": [],
					"stateMutability": "nonpayable",
					"type": "function"
				},
				{
					"inputs": [],
					"name": "checkRevokedCertificate",
					"outputs": [
						{
							"internalType": "address[]",
							"name": "",
							"type": "address[]"
						},
						{
							"internalType": "string[]",
							"name": "",
							"type": "string[]"
						}
					],
					"stateMutability": "view",
					"type": "function"
				},
				{
					"inputs": [
						{
							"internalType": "address",
							"name": "studentAddress",
							"type": "address"
						},
						{
							"internalType": "string",
							"name": "certificateName",
							"type": "string"
						},
						{
							"internalType": "string",
							"name": "studentName",
							"type": "string"
						},
						{
							"internalType": "string",
							"name": "studentId",
							"type": "string"
						},
						{
							"internalType": "string",
							"name": "faculty",
							"type": "string"
						},
						{
							"internalType": "string",
							"name": "department",
							"type": "string"
						}
					],
					"name": "issueCertificate",
					"outputs": [],
					"stateMutability": "nonpayable",
					"type": "function"
				},
				{
					"inputs": [
						{
							"internalType": "address",
							"name": "studentAddress",
							"type": "address"
						}
					],
					"name": "revokeCertificate",
					"outputs": [],
					"stateMutability": "nonpayable",
					"type": "function"
				}
			],
			"devdoc": {
				"kind": "dev",
				"methods": {},
				"version": 1
			},
			"evm": {
				"assembly": "    /* \"contracts/setAccessTime.sol\":58:12905  contract Certificate {... */\n  mstore(0x40, 0x80)\n    /* \"contracts/setAccessTime.sol\":2420:2528  constructor() {... */\n  callvalue\n  dup1\n  iszero\n  tag_1\n  jumpi\n  0x00\n  dup1\n  revert\ntag_1:\n  pop\n    /* \"contracts/setAccessTime.sol\":2476:2480  true */\n  0x01\n    /* \"contracts/setAccessTime.sol\":2444:2461  authorizedIssuers */\n  0x02\n    /* \"contracts/setAccessTime.sol\":2444:2473  authorizedIssuers[msg.sender] */\n  0x00\n    /* \"contracts/setAccessTime.sol\":2462:2472  msg.sender */\n  caller\n    /* \"contracts/setAccessTime.sol\":2444:2473  authorizedIssuers[msg.sender] */\n  0xffffffffffffffffffffffffffffffffffffffff\n  and\n  0xffffffffffffffffffffffffffffffffffffffff\n  and\n  dup2\n  mstore\n  0x20\n  add\n  swap1\n  dup2\n  mstore\n  0x20\n  add\n  0x00\n  keccak256\n  0x00\n    /* \"contracts/setAccessTime.sol\":2444:2480  authorizedIssuers[msg.sender] = true */\n  0x0100\n  exp\n  dup2\n  sload\n  dup2\n  0xff\n  mul\n  not\n  and\n  swap1\n  dup4\n  iszero\n  iszero\n  mul\n  or\n  swap1\n  sstore\n  pop\n    /* \"contracts/setAccessTime.sol\":58:12905  contract Certificate {... */\n  dataSize(sub_0)\n  dup1\n  dataOffset(sub_0)\n  0x00\n  codecopy\n  0x00\n  return\nstop\n\nsub_0: assembly {\n        /* \"contracts/setAccessTime.sol\":58:12905  contract Certificate {... */\n      mstore(0x40, 0x80)\n      callvalue\n      dup1\n      iszero\n      tag_1\n      jumpi\n      0x00\n      dup1\n      revert\n    tag_1:\n      pop\n      jumpi(tag_2, lt(calldatasize, 0x04))\n      shr(0xe0, calldataload(0x00))\n      dup1\n      0x02a3eb09\n      eq\n      tag_3\n      jumpi\n      dup1\n      0x03825d6c\n      eq\n      tag_4\n      jumpi\n      dup1\n      0x5f893bfa\n      eq\n      tag_5\n      jumpi\n      dup1\n      0x70f9ff87\n      eq\n      tag_6\n      jumpi\n      dup1\n      0xabafef87\n      eq\n      tag_7\n      jumpi\n      dup1\n      0xde8c98fd\n      eq\n      tag_8\n      jumpi\n    tag_2:\n      0x00\n      dup1\n      revert\n        /* \"contracts/setAccessTime.sol\":8950:10289  function checkRevokedCertificate() public view onlyAuthorizedIssuer returns (address[] memory, string[] memory)  {... */\n    tag_3:\n      tag_9\n      tag_10\n      jump\t// in\n    tag_9:\n      mload(0x40)\n      tag_11\n      swap3\n      swap2\n      swap1\n      tag_12\n      jump\t// in\n    tag_11:\n      mload(0x40)\n      dup1\n      swap2\n      sub\n      swap1\n      return\n        /* \"contracts/setAccessTime.sol\":3313:3849  function addAdmin(... */\n    tag_4:\n      tag_13\n      0x04\n      dup1\n      calldatasize\n      sub\n      dup2\n      add\n      swap1\n      tag_14\n      swap2\n      swap1\n      tag_15\n      jump\t// in\n    tag_14:\n      tag_16\n      jump\t// in\n    tag_13:\n      stop\n        /* \"contracts/setAccessTime.sol\":8044:8943  function revokeCertificate(address studentAddress) external onlyAuthorizedIssuer {... */\n    tag_5:\n      tag_17\n      0x04\n      dup1\n      calldatasize\n      sub\n      dup2\n      add\n      swap1\n      tag_18\n      swap2\n      swap1\n      tag_19\n      jump\t// in\n    tag_18:\n      tag_20\n      jump\t// in\n    tag_17:\n      stop\n        /* \"contracts/setAccessTime.sol\":1330:1354  Admin[] public _allAdmin */\n    tag_6:\n      tag_21\n      0x04\n      dup1\n      calldatasize\n      sub\n      dup2\n      add\n      swap1\n      tag_22\n      swap2\n      swap1\n      tag_23\n      jump\t// in\n    tag_22:\n      tag_24\n      jump\t// in\n    tag_21:\n      mload(0x40)\n      tag_25\n      swap6\n      swap5\n      swap4\n      swap3\n      swap2\n      swap1\n      tag_26\n      jump\t// in\n    tag_25:\n      mload(0x40)\n      dup1\n      swap2\n      sub\n      swap1\n      return\n        /* \"contracts/setAccessTime.sol\":1288:1324  Student[] public _StudentCertificate */\n    tag_7:\n      tag_27\n      0x04\n      dup1\n      calldatasize\n      sub\n      dup2\n      add\n      swap1\n      tag_28\n      swap2\n      swap1\n      tag_23\n      jump\t// in\n    tag_28:\n      tag_29\n      jump\t// in\n    tag_27:\n      mload(0x40)\n      tag_30\n      swap11\n      swap10\n      swap9\n      swap8\n      swap7\n      swap6\n      swap5\n      swap4\n      swap3\n      swap2\n      swap1\n      tag_31\n      jump\t// in\n    tag_30:\n      mload(0x40)\n      dup1\n      swap2\n      sub\n      swap1\n      return\n        /* \"contracts/setAccessTime.sol\":6596:7940  function issueCertificate(... */\n    tag_8:\n      tag_32\n      0x04\n      dup1\n      calldatasize\n      sub\n      dup2\n      add\n      swap1\n      tag_33\n      swap2\n      swap1\n      tag_34\n      jump\t// in\n    tag_33:\n      tag_35\n      jump\t// in\n    tag_32:\n      stop\n        /* \"contracts/setAccessTime.sol\":8950:10289  function checkRevokedCertificate() public view onlyAuthorizedIssuer returns (address[] memory, string[] memory)  {... */\n    tag_10:\n        /* \"contracts/setAccessTime.sol\":9027:9043  address[] memory */\n      0x60\n        /* \"contracts/setAccessTime.sol\":9045:9060  string[] memory */\n      dup1\n        /* \"contracts/setAccessTime.sol\":2597:2614  authorizedIssuers */\n      0x02\n        /* \"contracts/setAccessTime.sol\":2597:2626  authorizedIssuers[msg.sender] */\n      0x00\n        /* \"contracts/setAccessTime.sol\":2615:2625  msg.sender */\n      caller\n        /* \"contracts/setAccessTime.sol\":2597:2626  authorizedIssuers[msg.sender] */\n      0xffffffffffffffffffffffffffffffffffffffff\n      and\n      0xffffffffffffffffffffffffffffffffffffffff\n      and\n      dup2\n      mstore\n      0x20\n      add\n      swap1\n      dup2\n      mstore\n      0x20\n      add\n      0x00\n      keccak256\n      0x00\n      swap1\n      sload\n      swap1\n      0x0100\n      exp\n      swap1\n      div\n      0xff\n      and\n        /* \"contracts/setAccessTime.sol\":2576:2698  require(... */\n      tag_37\n      jumpi\n      mload(0x40)\n      0x08c379a000000000000000000000000000000000000000000000000000000000\n      dup2\n      mstore\n      0x04\n      add\n      tag_38\n      swap1\n      tag_39\n      jump\t// in\n    tag_38:\n      mload(0x40)\n      dup1\n      swap2\n      sub\n      swap1\n      revert\n    tag_37:\n        /* \"contracts/setAccessTime.sol\":9073:9090  uint revokedCount */\n      0x00\n        /* \"contracts/setAccessTime.sol\":9231:9237  uint i */\n      dup1\n        /* \"contracts/setAccessTime.sol\":9226:9393  for (uint i = 0; i < _StudentCertificate.length; i++) {... */\n    tag_41:\n        /* \"contracts/setAccessTime.sol\":9247:9266  _StudentCertificate */\n      0x00\n        /* \"contracts/setAccessTime.sol\":9247:9273  _StudentCertificate.length */\n      dup1\n      sload\n      swap1\n      pop\n        /* \"contracts/setAccessTime.sol\":9243:9244  i */\n      dup2\n        /* \"contracts/setAccessTime.sol\":9243:9273  i < _StudentCertificate.length */\n      lt\n        /* \"contracts/setAccessTime.sol\":9226:9393  for (uint i = 0; i < _StudentCertificate.length; i++) {... */\n      iszero\n      tag_42\n      jumpi\n        /* \"contracts/setAccessTime.sol\":9298:9317  _StudentCertificate */\n      0x00\n        /* \"contracts/setAccessTime.sol\":9318:9319  i */\n      dup2\n        /* \"contracts/setAccessTime.sol\":9298:9320  _StudentCertificate[i] */\n      dup2\n      sload\n      dup2\n      lt\n      tag_44\n      jumpi\n      tag_45\n      tag_46\n      jump\t// in\n    tag_45:\n    tag_44:\n      swap1\n      0x00\n      mstore\n      keccak256(0x00, 0x20)\n      swap1\n      0x0a\n      mul\n      add\n        /* \"contracts/setAccessTime.sol\":9298:9334  _StudentCertificate[i].revokedStatus */\n      0x07\n      add\n      0x00\n      swap1\n      sload\n      swap1\n      0x0100\n      exp\n      swap1\n      div\n      0xff\n      and\n        /* \"contracts/setAccessTime.sol\":9294:9383  if (_StudentCertificate[i].revokedStatus) {... */\n      iszero\n      tag_48\n      jumpi\n        /* \"contracts/setAccessTime.sol\":9354:9368  revokedCount++ */\n      dup2\n      dup1\n      tag_49\n      swap1\n      tag_50\n      jump\t// in\n    tag_49:\n      swap3\n      pop\n      pop\n        /* \"contracts/setAccessTime.sol\":9294:9383  if (_StudentCertificate[i].revokedStatus) {... */\n    tag_48:\n        /* \"contracts/setAccessTime.sol\":9275:9278  i++ */\n      dup1\n      dup1\n      tag_51\n      swap1\n      tag_50\n      jump\t// in\n    tag_51:\n      swap2\n      pop\n      pop\n        /* \"contracts/setAccessTime.sol\":9226:9393  for (uint i = 0; i < _StudentCertificate.length; i++) {... */\n      jump(tag_41)\n    tag_42:\n      pop\n        /* \"contracts/setAccessTime.sol\":9574:9607  address[] memory revokedAddresses */\n      0x00\n        /* \"contracts/setAccessTime.sol\":9624:9636  revokedCount */\n      dup2\n        /* \"contracts/setAccessTime.sol\":9610:9637  new address[](revokedCount) */\n      0xffffffffffffffff\n      dup2\n      gt\n      iszero\n      tag_52\n      jumpi\n      tag_53\n      tag_54\n      jump\t// in\n    tag_53:\n    tag_52:\n      mload(0x40)\n      swap1\n      dup1\n      dup3\n      mstore\n      dup1\n      0x20\n      mul\n      0x20\n      add\n      dup3\n      add\n      0x40\n      mstore\n      dup1\n      iszero\n      tag_55\n      jumpi\n      dup2\n      0x20\n      add\n      0x20\n      dup3\n      mul\n      dup1\n      calldatasize\n      dup4\n      calldatacopy\n      dup1\n      dup3\n      add\n      swap2\n      pop\n      pop\n      swap1\n      pop\n    tag_55:\n      pop\n        /* \"contracts/setAccessTime.sol\":9574:9637  address[] memory revokedAddresses = new address[](revokedCount) */\n      swap1\n      pop\n        /* \"contracts/setAccessTime.sol\":9647:9681  string[] memory revokedCertificate */\n      0x00\n        /* \"contracts/setAccessTime.sol\":9697:9709  revokedCount */\n      dup3\n        /* \"contracts/setAccessTime.sol\":9684:9710  new string[](revokedCount) */\n      0xffffffffffffffff\n      dup2\n      gt\n      iszero\n      tag_56\n      jumpi\n      tag_57\n      tag_54\n      jump\t// in\n    tag_57:\n    tag_56:\n      mload(0x40)\n      swap1\n      dup1\n      dup3\n      mstore\n      dup1\n      0x20\n      mul\n      0x20\n      add\n      dup3\n      add\n      0x40\n      mstore\n      dup1\n      iszero\n      tag_58\n      jumpi\n      dup2\n      0x20\n      add\n    tag_59:\n      0x60\n      dup2\n      mstore\n      0x20\n      add\n      swap1\n      0x01\n      swap1\n      sub\n      swap1\n      dup2\n      tag_59\n      jumpi\n      swap1\n      pop\n    tag_58:\n      pop\n        /* \"contracts/setAccessTime.sol\":9647:9710  string[] memory revokedCertificate = new string[](revokedCount) */\n      swap1\n      pop\n        /* \"contracts/setAccessTime.sol\":9725:9735  uint index */\n      0x00\n        /* \"contracts/setAccessTime.sol\":9913:9919  uint i */\n      dup1\n        /* \"contracts/setAccessTime.sol\":9908:10227  for (uint i = 0; i < _StudentCertificate.length; i++) {... */\n    tag_60:\n        /* \"contracts/setAccessTime.sol\":9929:9948  _StudentCertificate */\n      0x00\n        /* \"contracts/setAccessTime.sol\":9929:9955  _StudentCertificate.length */\n      dup1\n      sload\n      swap1\n      pop\n        /* \"contracts/setAccessTime.sol\":9925:9926  i */\n      dup2\n        /* \"contracts/setAccessTime.sol\":9925:9955  i < _StudentCertificate.length */\n      lt\n        /* \"contracts/setAccessTime.sol\":9908:10227  for (uint i = 0; i < _StudentCertificate.length; i++) {... */\n      iszero\n      tag_61\n      jumpi\n        /* \"contracts/setAccessTime.sol\":9980:9999  _StudentCertificate */\n      0x00\n        /* \"contracts/setAccessTime.sol\":10000:10001  i */\n      dup2\n        /* \"contracts/setAccessTime.sol\":9980:10002  _StudentCertificate[i] */\n      dup2\n      sload\n      dup2\n      lt\n      tag_63\n      jumpi\n      tag_64\n      tag_46\n      jump\t// in\n    tag_64:\n    tag_63:\n      swap1\n      0x00\n      mstore\n      keccak256(0x00, 0x20)\n      swap1\n      0x0a\n      mul\n      add\n        /* \"contracts/setAccessTime.sol\":9980:10016  _StudentCertificate[i].revokedStatus */\n      0x07\n      add\n      0x00\n      swap1\n      sload\n      swap1\n      0x0100\n      exp\n      swap1\n      div\n      0xff\n      and\n        /* \"contracts/setAccessTime.sol\":9976:10217  if (_StudentCertificate[i].revokedStatus) {... */\n      iszero\n      tag_66\n      jumpi\n        /* \"contracts/setAccessTime.sol\":10062:10081  _StudentCertificate */\n      0x00\n        /* \"contracts/setAccessTime.sol\":10082:10083  i */\n      dup2\n        /* \"contracts/setAccessTime.sol\":10062:10084  _StudentCertificate[i] */\n      dup2\n      sload\n      dup2\n      lt\n      tag_67\n      jumpi\n      tag_68\n      tag_46\n      jump\t// in\n    tag_68:\n    tag_67:\n      swap1\n      0x00\n      mstore\n      keccak256(0x00, 0x20)\n      swap1\n      0x0a\n      mul\n      add\n        /* \"contracts/setAccessTime.sol\":10062:10099  _StudentCertificate[i].studentAddress */\n      0x00\n      add\n      0x00\n      swap1\n      sload\n      swap1\n      0x0100\n      exp\n      swap1\n      div\n      0xffffffffffffffffffffffffffffffffffffffff\n      and\n        /* \"contracts/setAccessTime.sol\":10036:10052  revokedAddresses */\n      dup5\n        /* \"contracts/setAccessTime.sol\":10053:10058  index */\n      dup4\n        /* \"contracts/setAccessTime.sol\":10036:10059  revokedAddresses[index] */\n      dup2\n      mload\n      dup2\n      lt\n      tag_70\n      jumpi\n      tag_71\n      tag_46\n      jump\t// in\n    tag_71:\n    tag_70:\n      0x20\n      mul\n      0x20\n      add\n      add\n        /* \"contracts/setAccessTime.sol\":10036:10099  revokedAddresses[index] = _StudentCertificate[i].studentAddress */\n      swap1\n      0xffffffffffffffffffffffffffffffffffffffff\n      and\n      swap1\n      dup2\n      0xffffffffffffffffffffffffffffffffffffffff\n      and\n      dup2\n      mstore\n      pop\n      pop\n        /* \"contracts/setAccessTime.sol\":10145:10164  _StudentCertificate */\n      0x00\n        /* \"contracts/setAccessTime.sol\":10165:10166  i */\n      dup2\n        /* \"contracts/setAccessTime.sol\":10145:10167  _StudentCertificate[i] */\n      dup2\n      sload\n      dup2\n      lt\n      tag_72\n      jumpi\n      tag_73\n      tag_46\n      jump\t// in\n    tag_73:\n    tag_72:\n      swap1\n      0x00\n      mstore\n      keccak256(0x00, 0x20)\n      swap1\n      0x0a\n      mul\n      add\n        /* \"contracts/setAccessTime.sol\":10145:10177  _StudentCertificate[i].studentId */\n      0x03\n      add\n        /* \"contracts/setAccessTime.sol\":10117:10177  revokedCertificate[index] = _StudentCertificate[i].studentId */\n      dup1\n      sload\n      tag_75\n      swap1\n      tag_76\n      jump\t// in\n    tag_75:\n      dup1\n      0x1f\n      add\n      0x20\n      dup1\n      swap2\n      div\n      mul\n      0x20\n      add\n      mload(0x40)\n      swap1\n      dup2\n      add\n      0x40\n      mstore\n      dup1\n      swap3\n      swap2\n      swap1\n      dup2\n      dup2\n      mstore\n      0x20\n      add\n      dup3\n      dup1\n      sload\n      tag_77\n      swap1\n      tag_76\n      jump\t// in\n    tag_77:\n      dup1\n      iszero\n      tag_78\n      jumpi\n      dup1\n      0x1f\n      lt\n      tag_79\n      jumpi\n      0x0100\n      dup1\n      dup4\n      sload\n      div\n      mul\n      dup4\n      mstore\n      swap2\n      0x20\n      add\n      swap2\n      jump(tag_78)\n    tag_79:\n      dup3\n      add\n      swap2\n      swap1\n      0x00\n      mstore\n      keccak256(0x00, 0x20)\n      swap1\n    tag_80:\n      dup2\n      sload\n      dup2\n      mstore\n      swap1\n      0x01\n      add\n      swap1\n      0x20\n      add\n      dup1\n      dup4\n      gt\n      tag_80\n      jumpi\n      dup3\n      swap1\n      sub\n      0x1f\n      and\n      dup3\n      add\n      swap2\n    tag_78:\n      pop\n      pop\n      pop\n      pop\n      pop\n        /* \"contracts/setAccessTime.sol\":10117:10135  revokedCertificate */\n      dup4\n        /* \"contracts/setAccessTime.sol\":10136:10141  index */\n      dup4\n        /* \"contracts/setAccessTime.sol\":10117:10142  revokedCertificate[index] */\n      dup2\n      mload\n      dup2\n      lt\n      tag_81\n      jumpi\n      tag_82\n      tag_46\n      jump\t// in\n    tag_82:\n    tag_81:\n      0x20\n      mul\n      0x20\n      add\n      add\n        /* \"contracts/setAccessTime.sol\":10117:10177  revokedCertificate[index] = _StudentCertificate[i].studentId */\n      dup2\n      swap1\n      mstore\n      pop\n        /* \"contracts/setAccessTime.sol\":10195:10202  index++ */\n      dup2\n      dup1\n      tag_83\n      swap1\n      tag_50\n      jump\t// in\n    tag_83:\n      swap3\n      pop\n      pop\n        /* \"contracts/setAccessTime.sol\":9976:10217  if (_StudentCertificate[i].revokedStatus) {... */\n    tag_66:\n        /* \"contracts/setAccessTime.sol\":9957:9960  i++ */\n      dup1\n      dup1\n      tag_84\n      swap1\n      tag_50\n      jump\t// in\n    tag_84:\n      swap2\n      pop\n      pop\n        /* \"contracts/setAccessTime.sol\":9908:10227  for (uint i = 0; i < _StudentCertificate.length; i++) {... */\n      jump(tag_60)\n    tag_61:\n      pop\n        /* \"contracts/setAccessTime.sol\":10245:10261  revokedAddresses */\n      dup3\n        /* \"contracts/setAccessTime.sol\":10263:10281  revokedCertificate */\n      dup3\n        /* \"contracts/setAccessTime.sol\":10237:10282  return (revokedAddresses, revokedCertificate) */\n      swap6\n      pop\n      swap6\n      pop\n      pop\n      pop\n      pop\n      pop\n        /* \"contracts/setAccessTime.sol\":8950:10289  function checkRevokedCertificate() public view onlyAuthorizedIssuer returns (address[] memory, string[] memory)  {... */\n      swap1\n      swap2\n      jump\t// out\n        /* \"contracts/setAccessTime.sol\":3313:3849  function addAdmin(... */\n    tag_16:\n        /* \"contracts/setAccessTime.sol\":2597:2614  authorizedIssuers */\n      0x02\n        /* \"contracts/setAccessTime.sol\":2597:2626  authorizedIssuers[msg.sender] */\n      0x00\n        /* \"contracts/setAccessTime.sol\":2615:2625  msg.sender */\n      caller\n        /* \"contracts/setAccessTime.sol\":2597:2626  authorizedIssuers[msg.sender] */\n      0xffffffffffffffffffffffffffffffffffffffff\n      and\n      0xffffffffffffffffffffffffffffffffffffffff\n      and\n      dup2\n      mstore\n      0x20\n      add\n      swap1\n      dup2\n      mstore\n      0x20\n      add\n      0x00\n      keccak256\n      0x00\n      swap1\n      sload\n      swap1\n      0x0100\n      exp\n      swap1\n      div\n      0xff\n      and\n        /* \"contracts/setAccessTime.sol\":2576:2698  require(... */\n      tag_86\n      jumpi\n      mload(0x40)\n      0x08c379a000000000000000000000000000000000000000000000000000000000\n      dup2\n      mstore\n      0x04\n      add\n      tag_87\n      swap1\n      tag_39\n      jump\t// in\n    tag_87:\n      mload(0x40)\n      dup1\n      swap2\n      sub\n      swap1\n      revert\n    tag_86:\n        /* \"contracts/setAccessTime.sol\":3534:3538  true */\n      0x01\n        /* \"contracts/setAccessTime.sol\":3499:3516  authorizedIssuers */\n      0x02\n        /* \"contracts/setAccessTime.sol\":3499:3531  authorizedIssuers[addminAddress] */\n      0x00\n        /* \"contracts/setAccessTime.sol\":3517:3530  addminAddress */\n      dup7\n        /* \"contracts/setAccessTime.sol\":3499:3531  authorizedIssuers[addminAddress] */\n      0xffffffffffffffffffffffffffffffffffffffff\n      and\n      0xffffffffffffffffffffffffffffffffffffffff\n      and\n      dup2\n      mstore\n      0x20\n      add\n      swap1\n      dup2\n      mstore\n      0x20\n      add\n      0x00\n      keccak256\n      0x00\n        /* \"contracts/setAccessTime.sol\":3499:3538  authorizedIssuers[addminAddress] = true */\n      0x0100\n      exp\n      dup2\n      sload\n      dup2\n      0xff\n      mul\n      not\n      and\n      swap1\n      dup4\n      iszero\n      iszero\n      mul\n      or\n      swap1\n      sstore\n      pop\n        /* \"contracts/setAccessTime.sol\":3548:3567  Admin storage admin */\n      0x00\n        /* \"contracts/setAccessTime.sol\":3570:3576  admins */\n      0x06\n        /* \"contracts/setAccessTime.sol\":3570:3591  admins[addminAddress] */\n      0x00\n        /* \"contracts/setAccessTime.sol\":3577:3590  addminAddress */\n      dup7\n        /* \"contracts/setAccessTime.sol\":3570:3591  admins[addminAddress] */\n      0xffffffffffffffffffffffffffffffffffffffff\n      and\n      0xffffffffffffffffffffffffffffffffffffffff\n      and\n      dup2\n      mstore\n      0x20\n      add\n      swap1\n      dup2\n      mstore\n      0x20\n      add\n      0x00\n      keccak256\n        /* \"contracts/setAccessTime.sol\":3548:3591  Admin storage admin = admins[addminAddress] */\n      swap1\n      pop\n        /* \"contracts/setAccessTime.sol\":3623:3636  addminAddress */\n      dup5\n        /* \"contracts/setAccessTime.sol\":3601:3606  admin */\n      dup2\n        /* \"contracts/setAccessTime.sol\":3601:3620  admin.addminAddress */\n      0x00\n      add\n      0x00\n        /* \"contracts/setAccessTime.sol\":3601:3636  admin.addminAddress = addminAddress */\n      0x0100\n      exp\n      dup2\n      sload\n      dup2\n      0xffffffffffffffffffffffffffffffffffffffff\n      mul\n      not\n      and\n      swap1\n      dup4\n      0xffffffffffffffffffffffffffffffffffffffff\n      and\n      mul\n      or\n      swap1\n      sstore\n      pop\n        /* \"contracts/setAccessTime.sol\":3659:3663  name */\n      dup4\n        /* \"contracts/setAccessTime.sol\":3646:3651  admin */\n      dup2\n        /* \"contracts/setAccessTime.sol\":3646:3656  admin.name */\n      0x01\n      add\n        /* \"contracts/setAccessTime.sol\":3646:3663  admin.name = name */\n      swap1\n      dup2\n      tag_89\n      swap2\n      swap1\n      tag_90\n      jump\t// in\n    tag_89:\n      pop\n        /* \"contracts/setAccessTime.sol\":3689:3696  adminId */\n      dup3\n        /* \"contracts/setAccessTime.sol\":3673:3678  admin */\n      dup2\n        /* \"contracts/setAccessTime.sol\":3673:3686  admin.adminId */\n      0x02\n      add\n        /* \"contracts/setAccessTime.sol\":3673:3696  admin.adminId = adminId */\n      swap1\n      dup2\n      tag_91\n      swap2\n      swap1\n      tag_90\n      jump\t// in\n    tag_91:\n      pop\n        /* \"contracts/setAccessTime.sol\":3723:3731  position */\n      dup2\n        /* \"contracts/setAccessTime.sol\":3706:3711  admin */\n      dup2\n        /* \"contracts/setAccessTime.sol\":3706:3720  admin.position */\n      0x03\n      add\n        /* \"contracts/setAccessTime.sol\":3706:3731  admin.position = position */\n      swap1\n      dup2\n      tag_92\n      swap2\n      swap1\n      tag_90\n      jump\t// in\n    tag_92:\n      pop\n        /* \"contracts/setAccessTime.sol\":3761:3765  true */\n      0x01\n        /* \"contracts/setAccessTime.sol\":3741:3746  admin */\n      dup2\n        /* \"contracts/setAccessTime.sol\":3741:3758  admin.adminStatus */\n      0x04\n      add\n      0x00\n        /* \"contracts/setAccessTime.sol\":3741:3765  admin.adminStatus = true */\n      0x0100\n      exp\n      dup2\n      sload\n      dup2\n      0xff\n      mul\n      not\n      and\n      swap1\n      dup4\n      iszero\n      iszero\n      mul\n      or\n      swap1\n      sstore\n      pop\n        /* \"contracts/setAccessTime.sol\":3775:3784  _allAdmin */\n      0x01\n        /* \"contracts/setAccessTime.sol\":3790:3841  Admin(addminAddress, name, adminId, position, true) */\n      mload(0x40)\n      dup1\n      0xa0\n      add\n      0x40\n      mstore\n      dup1\n        /* \"contracts/setAccessTime.sol\":3796:3809  addminAddress */\n      dup8\n        /* \"contracts/setAccessTime.sol\":3790:3841  Admin(addminAddress, name, adminId, position, true) */\n      0xffffffffffffffffffffffffffffffffffffffff\n      and\n      dup2\n      mstore\n      0x20\n      add\n        /* \"contracts/setAccessTime.sol\":3811:3815  name */\n      dup7\n        /* \"contracts/setAccessTime.sol\":3790:3841  Admin(addminAddress, name, adminId, position, true) */\n      dup2\n      mstore\n      0x20\n      add\n        /* \"contracts/setAccessTime.sol\":3817:3824  adminId */\n      dup6\n        /* \"contracts/setAccessTime.sol\":3790:3841  Admin(addminAddress, name, adminId, position, true) */\n      dup2\n      mstore\n      0x20\n      add\n        /* \"contracts/setAccessTime.sol\":3826:3834  position */\n      dup5\n        /* \"contracts/setAccessTime.sol\":3790:3841  Admin(addminAddress, name, adminId, position, true) */\n      dup2\n      mstore\n      0x20\n      add\n        /* \"contracts/setAccessTime.sol\":3836:3840  true */\n      0x01\n        /* \"contracts/setAccessTime.sol\":3790:3841  Admin(addminAddress, name, adminId, position, true) */\n      iszero\n      iszero\n      dup2\n      mstore\n      pop\n        /* \"contracts/setAccessTime.sol\":3775:3842  _allAdmin.push(Admin(addminAddress, name, adminId, position, true)) */\n      swap1\n      dup1\n      0x01\n      dup2\n      sload\n      add\n      dup1\n      dup3\n      sstore\n      dup1\n      swap2\n      pop\n      pop\n      0x01\n      swap1\n      sub\n      swap1\n      0x00\n      mstore\n      keccak256(0x00, 0x20)\n      swap1\n      0x05\n      mul\n      add\n      0x00\n      swap1\n      swap2\n      swap1\n      swap2\n      swap1\n      swap2\n      pop\n      0x00\n      dup3\n      add\n      mload\n      dup2\n      0x00\n      add\n      exp(0x0100, 0x00)\n      dup2\n      sload\n      dup2\n      0xffffffffffffffffffffffffffffffffffffffff\n      mul\n      not\n      and\n      swap1\n      dup4\n      0xffffffffffffffffffffffffffffffffffffffff\n      and\n      mul\n      or\n      swap1\n      sstore\n      pop\n      0x20\n      dup3\n      add\n      mload\n      dup2\n      0x01\n      add\n      swap1\n      dup2\n      tag_94\n      swap2\n      swap1\n      tag_90\n      jump\t// in\n    tag_94:\n      pop\n      0x40\n      dup3\n      add\n      mload\n      dup2\n      0x02\n      add\n      swap1\n      dup2\n      tag_95\n      swap2\n      swap1\n      tag_90\n      jump\t// in\n    tag_95:\n      pop\n      0x60\n      dup3\n      add\n      mload\n      dup2\n      0x03\n      add\n      swap1\n      dup2\n      tag_96\n      swap2\n      swap1\n      tag_90\n      jump\t// in\n    tag_96:\n      pop\n      0x80\n      dup3\n      add\n      mload\n      dup2\n      0x04\n      add\n      exp(0x0100, 0x00)\n      dup2\n      sload\n      dup2\n      0xff\n      mul\n      not\n      and\n      swap1\n      dup4\n      iszero\n      iszero\n      mul\n      or\n      swap1\n      sstore\n      pop\n      pop\n      pop\n        /* \"contracts/setAccessTime.sol\":3489:3849  {... */\n      pop\n        /* \"contracts/setAccessTime.sol\":3313:3849  function addAdmin(... */\n      pop\n      pop\n      pop\n      pop\n      jump\t// out\n        /* \"contracts/setAccessTime.sol\":8044:8943  function revokeCertificate(address studentAddress) external onlyAuthorizedIssuer {... */\n    tag_20:\n        /* \"contracts/setAccessTime.sol\":2597:2614  authorizedIssuers */\n      0x02\n        /* \"contracts/setAccessTime.sol\":2597:2626  authorizedIssuers[msg.sender] */\n      0x00\n        /* \"contracts/setAccessTime.sol\":2615:2625  msg.sender */\n      caller\n        /* \"contracts/setAccessTime.sol\":2597:2626  authorizedIssuers[msg.sender] */\n      0xffffffffffffffffffffffffffffffffffffffff\n      and\n      0xffffffffffffffffffffffffffffffffffffffff\n      and\n      dup2\n      mstore\n      0x20\n      add\n      swap1\n      dup2\n      mstore\n      0x20\n      add\n      0x00\n      keccak256\n      0x00\n      swap1\n      sload\n      swap1\n      0x0100\n      exp\n      swap1\n      div\n      0xff\n      and\n        /* \"contracts/setAccessTime.sol\":2576:2698  require(... */\n      tag_98\n      jumpi\n      mload(0x40)\n      0x08c379a000000000000000000000000000000000000000000000000000000000\n      dup2\n      mstore\n      0x04\n      add\n      tag_99\n      swap1\n      tag_39\n      jump\t// in\n    tag_99:\n      mload(0x40)\n      dup1\n      swap2\n      sub\n      swap1\n      revert\n    tag_98:\n        /* \"contracts/setAccessTime.sol\":8233:8256  Student storage student */\n      0x00\n        /* \"contracts/setAccessTime.sol\":8259:8267  students */\n      0x05\n        /* \"contracts/setAccessTime.sol\":8259:8283  students[studentAddress] */\n      0x00\n        /* \"contracts/setAccessTime.sol\":8268:8282  studentAddress */\n      dup4\n        /* \"contracts/setAccessTime.sol\":8259:8283  students[studentAddress] */\n      0xffffffffffffffffffffffffffffffffffffffff\n      and\n      0xffffffffffffffffffffffffffffffffffffffff\n      and\n      dup2\n      mstore\n      0x20\n      add\n      swap1\n      dup2\n      mstore\n      0x20\n      add\n      0x00\n      keccak256\n        /* \"contracts/setAccessTime.sol\":8233:8283  Student storage student = students[studentAddress] */\n      swap1\n      pop\n        /* \"contracts/setAccessTime.sol\":8443:8447  true */\n      0x01\n        /* \"contracts/setAccessTime.sol\":8419:8426  student */\n      dup2\n        /* \"contracts/setAccessTime.sol\":8419:8440  student.revokedStatus */\n      0x07\n      add\n      0x00\n        /* \"contracts/setAccessTime.sol\":8419:8447  student.revokedStatus = true */\n      0x0100\n      exp\n      dup2\n      sload\n      dup2\n      0xff\n      mul\n      not\n      and\n      swap1\n      dup4\n      iszero\n      iszero\n      mul\n      or\n      swap1\n      sstore\n      pop\n        /* \"contracts/setAccessTime.sol\":8591:8600  uint256 i */\n      0x00\n        /* \"contracts/setAccessTime.sol\":8586:8937  for (uint256 i = 0; i < _StudentCertificate.length; i++) {... */\n    tag_101:\n        /* \"contracts/setAccessTime.sol\":8610:8629  _StudentCertificate */\n      0x00\n        /* \"contracts/setAccessTime.sol\":8610:8636  _StudentCertificate.length */\n      dup1\n      sload\n      swap1\n      pop\n        /* \"contracts/setAccessTime.sol\":8606:8607  i */\n      dup2\n        /* \"contracts/setAccessTime.sol\":8606:8636  i < _StudentCertificate.length */\n      lt\n        /* \"contracts/setAccessTime.sol\":8586:8937  for (uint256 i = 0; i < _StudentCertificate.length; i++) {... */\n      iszero\n      tag_102\n      jumpi\n        /* \"contracts/setAccessTime.sol\":8702:8716  studentAddress */\n      dup3\n        /* \"contracts/setAccessTime.sol\":8661:8716  _StudentCertificate[i].studentAddress == studentAddress */\n      0xffffffffffffffffffffffffffffffffffffffff\n      and\n        /* \"contracts/setAccessTime.sol\":8661:8680  _StudentCertificate */\n      0x00\n        /* \"contracts/setAccessTime.sol\":8681:8682  i */\n      dup3\n        /* \"contracts/setAccessTime.sol\":8661:8683  _StudentCertificate[i] */\n      dup2\n      sload\n      dup2\n      lt\n      tag_104\n      jumpi\n      tag_105\n      tag_46\n      jump\t// in\n    tag_105:\n    tag_104:\n      swap1\n      0x00\n      mstore\n      keccak256(0x00, 0x20)\n      swap1\n      0x0a\n      mul\n      add\n        /* \"contracts/setAccessTime.sol\":8661:8698  _StudentCertificate[i].studentAddress */\n      0x00\n      add\n      0x00\n      swap1\n      sload\n      swap1\n      0x0100\n      exp\n      swap1\n      div\n      0xffffffffffffffffffffffffffffffffffffffff\n      and\n        /* \"contracts/setAccessTime.sol\":8661:8716  _StudentCertificate[i].studentAddress == studentAddress */\n      0xffffffffffffffffffffffffffffffffffffffff\n      and\n      sub\n        /* \"contracts/setAccessTime.sol\":8657:8927  if (_StudentCertificate[i].studentAddress == studentAddress) {... */\n      tag_107\n      jumpi\n        /* \"contracts/setAccessTime.sol\":8885:8889  true */\n      0x01\n        /* \"contracts/setAccessTime.sol\":8846:8865  _StudentCertificate */\n      0x00\n        /* \"contracts/setAccessTime.sol\":8866:8867  i */\n      dup3\n        /* \"contracts/setAccessTime.sol\":8846:8868  _StudentCertificate[i] */\n      dup2\n      sload\n      dup2\n      lt\n      tag_108\n      jumpi\n      tag_109\n      tag_46\n      jump\t// in\n    tag_109:\n    tag_108:\n      swap1\n      0x00\n      mstore\n      keccak256(0x00, 0x20)\n      swap1\n      0x0a\n      mul\n      add\n        /* \"contracts/setAccessTime.sol\":8846:8882  _StudentCertificate[i].revokedStatus */\n      0x07\n      add\n      0x00\n        /* \"contracts/setAccessTime.sol\":8846:8889  _StudentCertificate[i].revokedStatus = true */\n      0x0100\n      exp\n      dup2\n      sload\n      dup2\n      0xff\n      mul\n      not\n      and\n      swap1\n      dup4\n      iszero\n      iszero\n      mul\n      or\n      swap1\n      sstore\n      pop\n        /* \"contracts/setAccessTime.sol\":8907:8912  break */\n      jump(tag_102)\n        /* \"contracts/setAccessTime.sol\":8657:8927  if (_StudentCertificate[i].studentAddress == studentAddress) {... */\n    tag_107:\n        /* \"contracts/setAccessTime.sol\":8638:8641  i++ */\n      dup1\n      dup1\n      tag_111\n      swap1\n      tag_50\n      jump\t// in\n    tag_111:\n      swap2\n      pop\n      pop\n        /* \"contracts/setAccessTime.sol\":8586:8937  for (uint256 i = 0; i < _StudentCertificate.length; i++) {... */\n      jump(tag_101)\n    tag_102:\n      pop\n        /* \"contracts/setAccessTime.sol\":8125:8943  {... */\n      pop\n        /* \"contracts/setAccessTime.sol\":8044:8943  function revokeCertificate(address studentAddress) external onlyAuthorizedIssuer {... */\n      pop\n      jump\t// out\n        /* \"contracts/setAccessTime.sol\":1330:1354  Admin[] public _allAdmin */\n    tag_24:\n      0x01\n      dup2\n      dup2\n      sload\n      dup2\n      lt\n      tag_112\n      jumpi\n      0x00\n      dup1\n      revert\n    tag_112:\n      swap1\n      0x00\n      mstore\n      keccak256(0x00, 0x20)\n      swap1\n      0x05\n      mul\n      add\n      0x00\n      swap2\n      pop\n      swap1\n      pop\n      dup1\n      0x00\n      add\n      0x00\n      swap1\n      sload\n      swap1\n      0x0100\n      exp\n      swap1\n      div\n      0xffffffffffffffffffffffffffffffffffffffff\n      and\n      swap1\n      dup1\n      0x01\n      add\n      dup1\n      sload\n      tag_114\n      swap1\n      tag_76\n      jump\t// in\n    tag_114:\n      dup1\n      0x1f\n      add\n      0x20\n      dup1\n      swap2\n      div\n      mul\n      0x20\n      add\n      mload(0x40)\n      swap1\n      dup2\n      add\n      0x40\n      mstore\n      dup1\n      swap3\n      swap2\n      swap1\n      dup2\n      dup2\n      mstore\n      0x20\n      add\n      dup3\n      dup1\n      sload\n      tag_115\n      swap1\n      tag_76\n      jump\t// in\n    tag_115:\n      dup1\n      iszero\n      tag_116\n      jumpi\n      dup1\n      0x1f\n      lt\n      tag_117\n      jumpi\n      0x0100\n      dup1\n      dup4\n      sload\n      div\n      mul\n      dup4\n      mstore\n      swap2\n      0x20\n      add\n      swap2\n      jump(tag_116)\n    tag_117:\n      dup3\n      add\n      swap2\n      swap1\n      0x00\n      mstore\n      keccak256(0x00, 0x20)\n      swap1\n    tag_118:\n      dup2\n      sload\n      dup2\n      mstore\n      swap1\n      0x01\n      add\n      swap1\n      0x20\n      add\n      dup1\n      dup4\n      gt\n      tag_118\n      jumpi\n      dup3\n      swap1\n      sub\n      0x1f\n      and\n      dup3\n      add\n      swap2\n    tag_116:\n      pop\n      pop\n      pop\n      pop\n      pop\n      swap1\n      dup1\n      0x02\n      add\n      dup1\n      sload\n      tag_119\n      swap1\n      tag_76\n      jump\t// in\n    tag_119:\n      dup1\n      0x1f\n      add\n      0x20\n      dup1\n      swap2\n      div\n      mul\n      0x20\n      add\n      mload(0x40)\n      swap1\n      dup2\n      add\n      0x40\n      mstore\n      dup1\n      swap3\n      swap2\n      swap1\n      dup2\n      dup2\n      mstore\n      0x20\n      add\n      dup3\n      dup1\n      sload\n      tag_120\n      swap1\n      tag_76\n      jump\t// in\n    tag_120:\n      dup1\n      iszero\n      tag_121\n      jumpi\n      dup1\n      0x1f\n      lt\n      tag_122\n      jumpi\n      0x0100\n      dup1\n      dup4\n      sload\n      div\n      mul\n      dup4\n      mstore\n      swap2\n      0x20\n      add\n      swap2\n      jump(tag_121)\n    tag_122:\n      dup3\n      add\n      swap2\n      swap1\n      0x00\n      mstore\n      keccak256(0x00, 0x20)\n      swap1\n    tag_123:\n      dup2\n      sload\n      dup2\n      mstore\n      swap1\n      0x01\n      add\n      swap1\n      0x20\n      add\n      dup1\n      dup4\n      gt\n      tag_123\n      jumpi\n      dup3\n      swap1\n      sub\n      0x1f\n      and\n      dup3\n      add\n      swap2\n    tag_121:\n      pop\n      pop\n      pop\n      pop\n      pop\n      swap1\n      dup1\n      0x03\n      add\n      dup1\n      sload\n      tag_124\n      swap1\n      tag_76\n      jump\t// in\n    tag_124:\n      dup1\n      0x1f\n      add\n      0x20\n      dup1\n      swap2\n      div\n      mul\n      0x20\n      add\n      mload(0x40)\n      swap1\n      dup2\n      add\n      0x40\n      mstore\n      dup1\n      swap3\n      swap2\n      swap1\n      dup2\n      dup2\n      mstore\n      0x20\n      add\n      dup3\n      dup1\n      sload\n      tag_125\n      swap1\n      tag_76\n      jump\t// in\n    tag_125:\n      dup1\n      iszero\n      tag_126\n      jumpi\n      dup1\n      0x1f\n      lt\n      tag_127\n      jumpi\n      0x0100\n      dup1\n      dup4\n      sload\n      div\n      mul\n      dup4\n      mstore\n      swap2\n      0x20\n      add\n      swap2\n      jump(tag_126)\n    tag_127:\n      dup3\n      add\n      swap2\n      swap1\n      0x00\n      mstore\n      keccak256(0x00, 0x20)\n      swap1\n    tag_128:\n      dup2\n      sload\n      dup2\n      mstore\n      swap1\n      0x01\n      add\n      swap1\n      0x20\n      add\n      dup1\n      dup4\n      gt\n      tag_128\n      jumpi\n      dup3\n      swap1\n      sub\n      0x1f\n      and\n      dup3\n      add\n      swap2\n    tag_126:\n      pop\n      pop\n      pop\n      pop\n      pop\n      swap1\n      dup1\n      0x04\n      add\n      0x00\n      swap1\n      sload\n      swap1\n      0x0100\n      exp\n      swap1\n      div\n      0xff\n      and\n      swap1\n      pop\n      dup6\n      jump\t// out\n        /* \"contracts/setAccessTime.sol\":1288:1324  Student[] public _StudentCertificate */\n    tag_29:\n      0x00\n      dup2\n      dup2\n      sload\n      dup2\n      lt\n      tag_129\n      jumpi\n      0x00\n      dup1\n      revert\n    tag_129:\n      swap1\n      0x00\n      mstore\n      keccak256(0x00, 0x20)\n      swap1\n      0x0a\n      mul\n      add\n      0x00\n      swap2\n      pop\n      swap1\n      pop\n      dup1\n      0x00\n      add\n      0x00\n      swap1\n      sload\n      swap1\n      0x0100\n      exp\n      swap1\n      div\n      0xffffffffffffffffffffffffffffffffffffffff\n      and\n      swap1\n      dup1\n      0x01\n      add\n      dup1\n      sload\n      tag_131\n      swap1\n      tag_76\n      jump\t// in\n    tag_131:\n      dup1\n      0x1f\n      add\n      0x20\n      dup1\n      swap2\n      div\n      mul\n      0x20\n      add\n      mload(0x40)\n      swap1\n      dup2\n      add\n      0x40\n      mstore\n      dup1\n      swap3\n      swap2\n      swap1\n      dup2\n      dup2\n      mstore\n      0x20\n      add\n      dup3\n      dup1\n      sload\n      tag_132\n      swap1\n      tag_76\n      jump\t// in\n    tag_132:\n      dup1\n      iszero\n      tag_133\n      jumpi\n      dup1\n      0x1f\n      lt\n      tag_134\n      jumpi\n      0x0100\n      dup1\n      dup4\n      sload\n      div\n      mul\n      dup4\n      mstore\n      swap2\n      0x20\n      add\n      swap2\n      jump(tag_133)\n    tag_134:\n      dup3\n      add\n      swap2\n      swap1\n      0x00\n      mstore\n      keccak256(0x00, 0x20)\n      swap1\n    tag_135:\n      dup2\n      sload\n      dup2\n      mstore\n      swap1\n      0x01\n      add\n      swap1\n      0x20\n      add\n      dup1\n      dup4\n      gt\n      tag_135\n      jumpi\n      dup3\n      swap1\n      sub\n      0x1f\n      and\n      dup3\n      add\n      swap2\n    tag_133:\n      pop\n      pop\n      pop\n      pop\n      pop\n      swap1\n      dup1\n      0x02\n      add\n      dup1\n      sload\n      tag_136\n      swap1\n      tag_76\n      jump\t// in\n    tag_136:\n      dup1\n      0x1f\n      add\n      0x20\n      dup1\n      swap2\n      div\n      mul\n      0x20\n      add\n      mload(0x40)\n      swap1\n      dup2\n      add\n      0x40\n      mstore\n      dup1\n      swap3\n      swap2\n      swap1\n      dup2\n      dup2\n      mstore\n      0x20\n      add\n      dup3\n      dup1\n      sload\n      tag_137\n      swap1\n      tag_76\n      jump\t// in\n    tag_137:\n      dup1\n      iszero\n      tag_138\n      jumpi\n      dup1\n      0x1f\n      lt\n      tag_139\n      jumpi\n      0x0100\n      dup1\n      dup4\n      sload\n      div\n      mul\n      dup4\n      mstore\n      swap2\n      0x20\n      add\n      swap2\n      jump(tag_138)\n    tag_139:\n      dup3\n      add\n      swap2\n      swap1\n      0x00\n      mstore\n      keccak256(0x00, 0x20)\n      swap1\n    tag_140:\n      dup2\n      sload\n      dup2\n      mstore\n      swap1\n      0x01\n      add\n      swap1\n      0x20\n      add\n      dup1\n      dup4\n      gt\n      tag_140\n      jumpi\n      dup3\n      swap1\n      sub\n      0x1f\n      and\n      dup3\n      add\n      swap2\n    tag_138:\n      pop\n      pop\n      pop\n      pop\n      pop\n      swap1\n      dup1\n      0x03\n      add\n      dup1\n      sload\n      tag_141\n      swap1\n      tag_76\n      jump\t// in\n    tag_141:\n      dup1\n      0x1f\n      add\n      0x20\n      dup1\n      swap2\n      div\n      mul\n      0x20\n      add\n      mload(0x40)\n      swap1\n      dup2\n      add\n      0x40\n      mstore\n      dup1\n      swap3\n      swap2\n      swap1\n      dup2\n      dup2\n      mstore\n      0x20\n      add\n      dup3\n      dup1\n      sload\n      tag_142\n      swap1\n      tag_76\n      jump\t// in\n    tag_142:\n      dup1\n      iszero\n      tag_143\n      jumpi\n      dup1\n      0x1f\n      lt\n      tag_144\n      jumpi\n      0x0100\n      dup1\n      dup4\n      sload\n      div\n      mul\n      dup4\n      mstore\n      swap2\n      0x20\n      add\n      swap2\n      jump(tag_143)\n    tag_144:\n      dup3\n      add\n      swap2\n      swap1\n      0x00\n      mstore\n      keccak256(0x00, 0x20)\n      swap1\n    tag_145:\n      dup2\n      sload\n      dup2\n      mstore\n      swap1\n      0x01\n      add\n      swap1\n      0x20\n      add\n      dup1\n      dup4\n      gt\n      tag_145\n      jumpi\n      dup3\n      swap1\n      sub\n      0x1f\n      and\n      dup3\n      add\n      swap2\n    tag_143:\n      pop\n      pop\n      pop\n      pop\n      pop\n      swap1\n      dup1\n      0x04\n      add\n      dup1\n      sload\n      tag_146\n      swap1\n      tag_76\n      jump\t// in\n    tag_146:\n      dup1\n      0x1f\n      add\n      0x20\n      dup1\n      swap2\n      div\n      mul\n      0x20\n      add\n      mload(0x40)\n      swap1\n      dup2\n      add\n      0x40\n      mstore\n      dup1\n      swap3\n      swap2\n      swap1\n      dup2\n      dup2\n      mstore\n      0x20\n      add\n      dup3\n      dup1\n      sload\n      tag_147\n      swap1\n      tag_76\n      jump\t// in\n    tag_147:\n      dup1\n      iszero\n      tag_148\n      jumpi\n      dup1\n      0x1f\n      lt\n      tag_149\n      jumpi\n      0x0100\n      dup1\n      dup4\n      sload\n      div\n      mul\n      dup4\n      mstore\n      swap2\n      0x20\n      add\n      swap2\n      jump(tag_148)\n    tag_149:\n      dup3\n      add\n      swap2\n      swap1\n      0x00\n      mstore\n      keccak256(0x00, 0x20)\n      swap1\n    tag_150:\n      dup2\n      sload\n      dup2\n      mstore\n      swap1\n      0x01\n      add\n      swap1\n      0x20\n      add\n      dup1\n      dup4\n      gt\n      tag_150\n      jumpi\n      dup3\n      swap1\n      sub\n      0x1f\n      and\n      dup3\n      add\n      swap2\n    tag_148:\n      pop\n      pop\n      pop\n      pop\n      pop\n      swap1\n      dup1\n      0x05\n      add\n      dup1\n      sload\n      tag_151\n      swap1\n      tag_76\n      jump\t// in\n    tag_151:\n      dup1\n      0x1f\n      add\n      0x20\n      dup1\n      swap2\n      div\n      mul\n      0x20\n      add\n      mload(0x40)\n      swap1\n      dup2\n      add\n      0x40\n      mstore\n      dup1\n      swap3\n      swap2\n      swap1\n      dup2\n      dup2\n      mstore\n      0x20\n      add\n      dup3\n      dup1\n      sload\n      tag_152\n      swap1\n      tag_76\n      jump\t// in\n    tag_152:\n      dup1\n      iszero\n      tag_153\n      jumpi\n      dup1\n      0x1f\n      lt\n      tag_154\n      jumpi\n      0x0100\n      dup1\n      dup4\n      sload\n      div\n      mul\n      dup4\n      mstore\n      swap2\n      0x20\n      add\n      swap2\n      jump(tag_153)\n    tag_154:\n      dup3\n      add\n      swap2\n      swap1\n      0x00\n      mstore\n      keccak256(0x00, 0x20)\n      swap1\n    tag_155:\n      dup2\n      sload\n      dup2\n      mstore\n      swap1\n      0x01\n      add\n      swap1\n      0x20\n      add\n      dup1\n      dup4\n      gt\n      tag_155\n      jumpi\n      dup3\n      swap1\n      sub\n      0x1f\n      and\n      dup3\n      add\n      swap2\n    tag_153:\n      pop\n      pop\n      pop\n      pop\n      pop\n      swap1\n      dup1\n      0x06\n      add\n      sload\n      swap1\n      dup1\n      0x07\n      add\n      0x00\n      swap1\n      sload\n      swap1\n      0x0100\n      exp\n      swap1\n      div\n      0xff\n      and\n      swap1\n      dup1\n      0x08\n      add\n      dup1\n      sload\n      tag_156\n      swap1\n      tag_76\n      jump\t// in\n    tag_156:\n      dup1\n      0x1f\n      add\n      0x20\n      dup1\n      swap2\n      div\n      mul\n      0x20\n      add\n      mload(0x40)\n      swap1\n      dup2\n      add\n      0x40\n      mstore\n      dup1\n      swap3\n      swap2\n      swap1\n      dup2\n      dup2\n      mstore\n      0x20\n      add\n      dup3\n      dup1\n      sload\n      tag_157\n      swap1\n      tag_76\n      jump\t// in\n    tag_157:\n      dup1\n      iszero\n      tag_158\n      jumpi\n      dup1\n      0x1f\n      lt\n      tag_159\n      jumpi\n      0x0100\n      dup1\n      dup4\n      sload\n      div\n      mul\n      dup4\n      mstore\n      swap2\n      0x20\n      add\n      swap2\n      jump(tag_158)\n    tag_159:\n      dup3\n      add\n      swap2\n      swap1\n      0x00\n      mstore\n      keccak256(0x00, 0x20)\n      swap1\n    tag_160:\n      dup2\n      sload\n      dup2\n      mstore\n      swap1\n      0x01\n      add\n      swap1\n      0x20\n      add\n      dup1\n      dup4\n      gt\n      tag_160\n      jumpi\n      dup3\n      swap1\n      sub\n      0x1f\n      and\n      dup3\n      add\n      swap2\n    tag_158:\n      pop\n      pop\n      pop\n      pop\n      pop\n      swap1\n      dup1\n      0x09\n      add\n      0x00\n      swap1\n      sload\n      swap1\n      0x0100\n      exp\n      swap1\n      div\n      0xffffffffffffffffffffffffffffffffffffffff\n      and\n      swap1\n      pop\n      dup11\n      jump\t// out\n        /* \"contracts/setAccessTime.sol\":6596:7940  function issueCertificate(... */\n    tag_35:\n        /* \"contracts/setAccessTime.sol\":2597:2614  authorizedIssuers */\n      0x02\n        /* \"contracts/setAccessTime.sol\":2597:2626  authorizedIssuers[msg.sender] */\n      0x00\n        /* \"contracts/setAccessTime.sol\":2615:2625  msg.sender */\n      caller\n        /* \"contracts/setAccessTime.sol\":2597:2626  authorizedIssuers[msg.sender] */\n      0xffffffffffffffffffffffffffffffffffffffff\n      and\n      0xffffffffffffffffffffffffffffffffffffffff\n      and\n      dup2\n      mstore\n      0x20\n      add\n      swap1\n      dup2\n      mstore\n      0x20\n      add\n      0x00\n      keccak256\n      0x00\n      swap1\n      sload\n      swap1\n      0x0100\n      exp\n      swap1\n      div\n      0xff\n      and\n        /* \"contracts/setAccessTime.sol\":2576:2698  require(... */\n      tag_162\n      jumpi\n      mload(0x40)\n      0x08c379a000000000000000000000000000000000000000000000000000000000\n      dup2\n      mstore\n      0x04\n      add\n      tag_163\n      swap1\n      tag_39\n      jump\t// in\n    tag_163:\n      mload(0x40)\n      dup1\n      swap2\n      sub\n      swap1\n      revert\n    tag_162:\n        /* \"contracts/setAccessTime.sol\":6908:6912  true */\n      0x01\n        /* \"contracts/setAccessTime.sol\":6872:6889  authorizedStudent */\n      0x04\n        /* \"contracts/setAccessTime.sol\":6872:6905  authorizedStudent[studentAddress] */\n      0x00\n        /* \"contracts/setAccessTime.sol\":6890:6904  studentAddress */\n      dup9\n        /* \"contracts/setAccessTime.sol\":6872:6905  authorizedStudent[studentAddress] */\n      0xffffffffffffffffffffffffffffffffffffffff\n      and\n      0xffffffffffffffffffffffffffffffffffffffff\n      and\n      dup2\n      mstore\n      0x20\n      add\n      swap1\n      dup2\n      mstore\n      0x20\n      add\n      0x00\n      keccak256\n      0x00\n        /* \"contracts/setAccessTime.sol\":6872:6912  authorizedStudent[studentAddress] = true */\n      0x0100\n      exp\n      dup2\n      sload\n      dup2\n      0xff\n      mul\n      not\n      and\n      swap1\n      dup4\n      iszero\n      iszero\n      mul\n      or\n      swap1\n      sstore\n      pop\n        /* \"contracts/setAccessTime.sol\":7082:7105  Student storage student */\n      0x00\n        /* \"contracts/setAccessTime.sol\":7108:7116  students */\n      0x05\n        /* \"contracts/setAccessTime.sol\":7108:7132  students[studentAddress] */\n      0x00\n        /* \"contracts/setAccessTime.sol\":7117:7131  studentAddress */\n      dup9\n        /* \"contracts/setAccessTime.sol\":7108:7132  students[studentAddress] */\n      0xffffffffffffffffffffffffffffffffffffffff\n      and\n      0xffffffffffffffffffffffffffffffffffffffff\n      and\n      dup2\n      mstore\n      0x20\n      add\n      swap1\n      dup2\n      mstore\n      0x20\n      add\n      0x00\n      keccak256\n        /* \"contracts/setAccessTime.sol\":7082:7132  Student storage student = students[studentAddress] */\n      swap1\n      pop\n        /* \"contracts/setAccessTime.sol\":7167:7181  studentAddress */\n      dup7\n        /* \"contracts/setAccessTime.sol\":7142:7149  student */\n      dup2\n        /* \"contracts/setAccessTime.sol\":7142:7164  student.studentAddress */\n      0x00\n      add\n      0x00\n        /* \"contracts/setAccessTime.sol\":7142:7181  student.studentAddress = studentAddress */\n      0x0100\n      exp\n      dup2\n      sload\n      dup2\n      0xffffffffffffffffffffffffffffffffffffffff\n      mul\n      not\n      and\n      swap1\n      dup4\n      0xffffffffffffffffffffffffffffffffffffffff\n      and\n      mul\n      or\n      swap1\n      sstore\n      pop\n        /* \"contracts/setAccessTime.sol\":7217:7232  certificateName */\n      dup6\n        /* \"contracts/setAccessTime.sol\":7191:7198  student */\n      dup2\n        /* \"contracts/setAccessTime.sol\":7191:7214  student.certificateName */\n      0x01\n      add\n        /* \"contracts/setAccessTime.sol\":7191:7232  student.certificateName = certificateName */\n      swap1\n      dup2\n      tag_165\n      swap2\n      swap1\n      tag_90\n      jump\t// in\n    tag_165:\n      pop\n        /* \"contracts/setAccessTime.sol\":7264:7275  studentName */\n      dup5\n        /* \"contracts/setAccessTime.sol\":7242:7249  student */\n      dup2\n        /* \"contracts/setAccessTime.sol\":7242:7261  student.studentName */\n      0x02\n      add\n        /* \"contracts/setAccessTime.sol\":7242:7275  student.studentName = studentName */\n      swap1\n      dup2\n      tag_166\n      swap2\n      swap1\n      tag_90\n      jump\t// in\n    tag_166:\n      pop\n        /* \"contracts/setAccessTime.sol\":7305:7314  studentId */\n      dup4\n        /* \"contracts/setAccessTime.sol\":7285:7292  student */\n      dup2\n        /* \"contracts/setAccessTime.sol\":7285:7302  student.studentId */\n      0x03\n      add\n        /* \"contracts/setAccessTime.sol\":7285:7314  student.studentId = studentId */\n      swap1\n      dup2\n      tag_167\n      swap2\n      swap1\n      tag_90\n      jump\t// in\n    tag_167:\n      pop\n        /* \"contracts/setAccessTime.sol\":7342:7349  faculty */\n      dup3\n        /* \"contracts/setAccessTime.sol\":7324:7331  student */\n      dup2\n        /* \"contracts/setAccessTime.sol\":7324:7339  student.faculty */\n      0x04\n      add\n        /* \"contracts/setAccessTime.sol\":7324:7349  student.faculty = faculty */\n      swap1\n      dup2\n      tag_168\n      swap2\n      swap1\n      tag_90\n      jump\t// in\n    tag_168:\n      pop\n        /* \"contracts/setAccessTime.sol\":7380:7390  department */\n      dup2\n        /* \"contracts/setAccessTime.sol\":7359:7366  student */\n      dup2\n        /* \"contracts/setAccessTime.sol\":7359:7377  student.department */\n      0x05\n      add\n        /* \"contracts/setAccessTime.sol\":7359:7390  student.department = department */\n      swap1\n      dup2\n      tag_169\n      swap2\n      swap1\n      tag_90\n      jump\t// in\n    tag_169:\n      pop\n        /* \"contracts/setAccessTime.sol\":7421:7422  0 */\n      0x00\n        /* \"contracts/setAccessTime.sol\":7400:7407  student */\n      dup2\n        /* \"contracts/setAccessTime.sol\":7400:7418  student.accessTime */\n      0x06\n      add\n        /* \"contracts/setAccessTime.sol\":7400:7422  student.accessTime = 0 */\n      dup2\n      swap1\n      sstore\n      pop\n        /* \"contracts/setAccessTime.sol\":7456:7461  false */\n      0x00\n        /* \"contracts/setAccessTime.sol\":7432:7439  student */\n      dup2\n        /* \"contracts/setAccessTime.sol\":7432:7453  student.revokedStatus */\n      0x07\n      add\n      0x00\n        /* \"contracts/setAccessTime.sol\":7432:7461  student.revokedStatus = false */\n      0x0100\n      exp\n      dup2\n      sload\n      dup2\n      0xff\n      mul\n      not\n      and\n      swap1\n      dup4\n      iszero\n      iszero\n      mul\n      or\n      swap1\n      sstore\n      pop\n        /* \"contracts/setAccessTime.sol\":7495:7505  msg.sender */\n      caller\n        /* \"contracts/setAccessTime.sol\":7471:7478  student */\n      dup2\n        /* \"contracts/setAccessTime.sol\":7471:7492  student.issuedAddress */\n      0x09\n      add\n      0x00\n        /* \"contracts/setAccessTime.sol\":7471:7505  student.issuedAddress = msg.sender */\n      0x0100\n      exp\n      dup2\n      sload\n      dup2\n      0xffffffffffffffffffffffffffffffffffffffff\n      mul\n      not\n      and\n      swap1\n      dup4\n      0xffffffffffffffffffffffffffffffffffffffff\n      and\n      mul\n      or\n      swap1\n      sstore\n      pop\n        /* \"contracts/setAccessTime.sol\":7536:7542  admins */\n      0x06\n        /* \"contracts/setAccessTime.sol\":7536:7554  admins[msg.sender] */\n      0x00\n        /* \"contracts/setAccessTime.sol\":7543:7553  msg.sender */\n      caller\n        /* \"contracts/setAccessTime.sol\":7536:7554  admins[msg.sender] */\n      0xffffffffffffffffffffffffffffffffffffffff\n      and\n      0xffffffffffffffffffffffffffffffffffffffff\n      and\n      dup2\n      mstore\n      0x20\n      add\n      swap1\n      dup2\n      mstore\n      0x20\n      add\n      0x00\n      keccak256\n        /* \"contracts/setAccessTime.sol\":7536:7559  admins[msg.sender].name */\n      0x01\n      add\n        /* \"contracts/setAccessTime.sol\":7515:7522  student */\n      dup2\n        /* \"contracts/setAccessTime.sol\":7515:7533  student.issuedName */\n      0x08\n      add\n        /* \"contracts/setAccessTime.sol\":7515:7559  student.issuedName = admins[msg.sender].name */\n      swap1\n      dup2\n      tag_170\n      swap2\n      swap1\n      tag_171\n      jump\t// in\n    tag_170:\n      pop\n        /* \"contracts/setAccessTime.sol\":7570:7589  _StudentCertificate */\n      0x00\n        /* \"contracts/setAccessTime.sol\":7608:7923  Student(... */\n      mload(0x40)\n      dup1\n      0x0140\n      add\n      0x40\n      mstore\n      dup1\n        /* \"contracts/setAccessTime.sol\":7633:7647  studentAddress */\n      dup10\n        /* \"contracts/setAccessTime.sol\":7608:7923  Student(... */\n      0xffffffffffffffffffffffffffffffffffffffff\n      and\n      dup2\n      mstore\n      0x20\n      add\n        /* \"contracts/setAccessTime.sol\":7665:7680  certificateName */\n      dup9\n        /* \"contracts/setAccessTime.sol\":7608:7923  Student(... */\n      dup2\n      mstore\n      0x20\n      add\n        /* \"contracts/setAccessTime.sol\":7698:7709  studentName */\n      dup8\n        /* \"contracts/setAccessTime.sol\":7608:7923  Student(... */\n      dup2\n      mstore\n      0x20\n      add\n        /* \"contracts/setAccessTime.sol\":7727:7736  studentId */\n      dup7\n        /* \"contracts/setAccessTime.sol\":7608:7923  Student(... */\n      dup2\n      mstore\n      0x20\n      add\n        /* \"contracts/setAccessTime.sol\":7754:7761  faculty */\n      dup6\n        /* \"contracts/setAccessTime.sol\":7608:7923  Student(... */\n      dup2\n      mstore\n      0x20\n      add\n        /* \"contracts/setAccessTime.sol\":7779:7789  department */\n      dup5\n        /* \"contracts/setAccessTime.sol\":7608:7923  Student(... */\n      dup2\n      mstore\n      0x20\n      add\n        /* \"contracts/setAccessTime.sol\":7807:7808  0 */\n      0x00\n        /* \"contracts/setAccessTime.sol\":7608:7923  Student(... */\n      dup2\n      mstore\n      0x20\n      add\n        /* \"contracts/setAccessTime.sol\":7826:7831  false */\n      0x00\n        /* \"contracts/setAccessTime.sol\":7608:7923  Student(... */\n      iszero\n      iszero\n      dup2\n      mstore\n      0x20\n      add\n        /* \"contracts/setAccessTime.sol\":7849:7855  admins */\n      0x06\n        /* \"contracts/setAccessTime.sol\":7849:7867  admins[msg.sender] */\n      0x00\n        /* \"contracts/setAccessTime.sol\":7856:7866  msg.sender */\n      caller\n        /* \"contracts/setAccessTime.sol\":7849:7867  admins[msg.sender] */\n      0xffffffffffffffffffffffffffffffffffffffff\n      and\n      0xffffffffffffffffffffffffffffffffffffffff\n      and\n      dup2\n      mstore\n      0x20\n      add\n      swap1\n      dup2\n      mstore\n      0x20\n      add\n      0x00\n      keccak256\n        /* \"contracts/setAccessTime.sol\":7849:7872  admins[msg.sender].name */\n      0x01\n      add\n        /* \"contracts/setAccessTime.sol\":7608:7923  Student(... */\n      dup1\n      sload\n      tag_172\n      swap1\n      tag_76\n      jump\t// in\n    tag_172:\n      dup1\n      0x1f\n      add\n      0x20\n      dup1\n      swap2\n      div\n      mul\n      0x20\n      add\n      mload(0x40)\n      swap1\n      dup2\n      add\n      0x40\n      mstore\n      dup1\n      swap3\n      swap2\n      swap1\n      dup2\n      dup2\n      mstore\n      0x20\n      add\n      dup3\n      dup1\n      sload\n      tag_173\n      swap1\n      tag_76\n      jump\t// in\n    tag_173:\n      dup1\n      iszero\n      tag_174\n      jumpi\n      dup1\n      0x1f\n      lt\n      tag_175\n      jumpi\n      0x0100\n      dup1\n      dup4\n      sload\n      div\n      mul\n      dup4\n      mstore\n      swap2\n      0x20\n      add\n      swap2\n      jump(tag_174)\n    tag_175:\n      dup3\n      add\n      swap2\n      swap1\n      0x00\n      mstore\n      keccak256(0x00, 0x20)\n      swap1\n    tag_176:\n      dup2\n      sload\n      dup2\n      mstore\n      swap1\n      0x01\n      add\n      swap1\n      0x20\n      add\n      dup1\n      dup4\n      gt\n      tag_176\n      jumpi\n      dup3\n      swap1\n      sub\n      0x1f\n      and\n      dup3\n      add\n      swap2\n    tag_174:\n      pop\n      pop\n      pop\n      pop\n      pop\n      dup2\n      mstore\n      0x20\n      add\n        /* \"contracts/setAccessTime.sol\":7898:7908  msg.sender */\n      caller\n        /* \"contracts/setAccessTime.sol\":7608:7923  Student(... */\n      0xffffffffffffffffffffffffffffffffffffffff\n      and\n      dup2\n      mstore\n      pop\n        /* \"contracts/setAccessTime.sol\":7570:7933  _StudentCertificate.push(... */\n      swap1\n      dup1\n      0x01\n      dup2\n      sload\n      add\n      dup1\n      dup3\n      sstore\n      dup1\n      swap2\n      pop\n      pop\n      0x01\n      swap1\n      sub\n      swap1\n      0x00\n      mstore\n      keccak256(0x00, 0x20)\n      swap1\n      0x0a\n      mul\n      add\n      0x00\n      swap1\n      swap2\n      swap1\n      swap2\n      swap1\n      swap2\n      pop\n      0x00\n      dup3\n      add\n      mload\n      dup2\n      0x00\n      add\n      exp(0x0100, 0x00)\n      dup2\n      sload\n      dup2\n      0xffffffffffffffffffffffffffffffffffffffff\n      mul\n      not\n      and\n      swap1\n      dup4\n      0xffffffffffffffffffffffffffffffffffffffff\n      and\n      mul\n      or\n      swap1\n      sstore\n      pop\n      0x20\n      dup3\n      add\n      mload\n      dup2\n      0x01\n      add\n      swap1\n      dup2\n      tag_178\n      swap2\n      swap1\n      tag_90\n      jump\t// in\n    tag_178:\n      pop\n      0x40\n      dup3\n      add\n      mload\n      dup2\n      0x02\n      add\n      swap1\n      dup2\n      tag_179\n      swap2\n      swap1\n      tag_90\n      jump\t// in\n    tag_179:\n      pop\n      0x60\n      dup3\n      add\n      mload\n      dup2\n      0x03\n      add\n      swap1\n      dup2\n      tag_180\n      swap2\n      swap1\n      tag_90\n      jump\t// in\n    tag_180:\n      pop\n      0x80\n      dup3\n      add\n      mload\n      dup2\n      0x04\n      add\n      swap1\n      dup2\n      tag_181\n      swap2\n      swap1\n      tag_90\n      jump\t// in\n    tag_181:\n      pop\n      0xa0\n      dup3\n      add\n      mload\n      dup2\n      0x05\n      add\n      swap1\n      dup2\n      tag_182\n      swap2\n      swap1\n      tag_90\n      jump\t// in\n    tag_182:\n      pop\n      0xc0\n      dup3\n      add\n      mload\n      dup2\n      0x06\n      add\n      sstore\n      0xe0\n      dup3\n      add\n      mload\n      dup2\n      0x07\n      add\n      exp(0x0100, 0x00)\n      dup2\n      sload\n      dup2\n      0xff\n      mul\n      not\n      and\n      swap1\n      dup4\n      iszero\n      iszero\n      mul\n      or\n      swap1\n      sstore\n      pop\n      0x0100\n      dup3\n      add\n      mload\n      dup2\n      0x08\n      add\n      swap1\n      dup2\n      tag_183\n      swap2\n      swap1\n      tag_90\n      jump\t// in\n    tag_183:\n      pop\n      0x0120\n      dup3\n      add\n      mload\n      dup2\n      0x09\n      add\n      exp(0x0100, 0x00)\n      dup2\n      sload\n      dup2\n      0xffffffffffffffffffffffffffffffffffffffff\n      mul\n      not\n      and\n      swap1\n      dup4\n      0xffffffffffffffffffffffffffffffffffffffff\n      and\n      mul\n      or\n      swap1\n      sstore\n      pop\n      pop\n      pop\n        /* \"contracts/setAccessTime.sol\":6862:7940  {... */\n      pop\n        /* \"contracts/setAccessTime.sol\":6596:7940  function issueCertificate(... */\n      pop\n      pop\n      pop\n      pop\n      pop\n      pop\n      jump\t// out\n        /* \"#utility.yul\":7:121   */\n    tag_184:\n        /* \"#utility.yul\":74:80   */\n      0x00\n        /* \"#utility.yul\":108:113   */\n      dup2\n        /* \"#utility.yul\":102:114   */\n      mload\n        /* \"#utility.yul\":92:114   */\n      swap1\n      pop\n        /* \"#utility.yul\":7:121   */\n      swap2\n      swap1\n      pop\n      jump\t// out\n        /* \"#utility.yul\":127:311   */\n    tag_185:\n        /* \"#utility.yul\":226:237   */\n      0x00\n        /* \"#utility.yul\":260:266   */\n      dup3\n        /* \"#utility.yul\":255:258   */\n      dup3\n        /* \"#utility.yul\":248:267   */\n      mstore\n        /* \"#utility.yul\":300:304   */\n      0x20\n        /* \"#utility.yul\":295:298   */\n      dup3\n        /* \"#utility.yul\":291:305   */\n      add\n        /* \"#utility.yul\":276:305   */\n      swap1\n      pop\n        /* \"#utility.yul\":127:311   */\n      swap3\n      swap2\n      pop\n      pop\n      jump\t// out\n        /* \"#utility.yul\":317:449   */\n    tag_186:\n        /* \"#utility.yul\":384:388   */\n      0x00\n        /* \"#utility.yul\":407:410   */\n      dup2\n        /* \"#utility.yul\":399:410   */\n      swap1\n      pop\n        /* \"#utility.yul\":437:441   */\n      0x20\n        /* \"#utility.yul\":432:435   */\n      dup3\n        /* \"#utility.yul\":428:442   */\n      add\n        /* \"#utility.yul\":420:442   */\n      swap1\n      pop\n        /* \"#utility.yul\":317:449   */\n      swap2\n      swap1\n      pop\n      jump\t// out\n        /* \"#utility.yul\":455:581   */\n    tag_187:\n        /* \"#utility.yul\":492:499   */\n      0x00\n        /* \"#utility.yul\":532:574   */\n      0xffffffffffffffffffffffffffffffffffffffff\n        /* \"#utility.yul\":525:530   */\n      dup3\n        /* \"#utility.yul\":521:575   */\n      and\n        /* \"#utility.yul\":510:575   */\n      swap1\n      pop\n        /* \"#utility.yul\":455:581   */\n      swap2\n      swap1\n      pop\n      jump\t// out\n        /* \"#utility.yul\":587:683   */\n    tag_188:\n        /* \"#utility.yul\":624:631   */\n      0x00\n        /* \"#utility.yul\":653:677   */\n      tag_253\n        /* \"#utility.yul\":671:676   */\n      dup3\n        /* \"#utility.yul\":653:677   */\n      tag_187\n      jump\t// in\n    tag_253:\n        /* \"#utility.yul\":642:677   */\n      swap1\n      pop\n        /* \"#utility.yul\":587:683   */\n      swap2\n      swap1\n      pop\n      jump\t// out\n        /* \"#utility.yul\":689:797   */\n    tag_189:\n        /* \"#utility.yul\":766:790   */\n      tag_255\n        /* \"#utility.yul\":784:789   */\n      dup2\n        /* \"#utility.yul\":766:790   */\n      tag_188\n      jump\t// in\n    tag_255:\n        /* \"#utility.yul\":761:764   */\n      dup3\n        /* \"#utility.yul\":754:791   */\n      mstore\n        /* \"#utility.yul\":689:797   */\n      pop\n      pop\n      jump\t// out\n        /* \"#utility.yul\":803:982   */\n    tag_190:\n        /* \"#utility.yul\":872:882   */\n      0x00\n        /* \"#utility.yul\":893:939   */\n      tag_257\n        /* \"#utility.yul\":935:938   */\n      dup4\n        /* \"#utility.yul\":927:933   */\n      dup4\n        /* \"#utility.yul\":893:939   */\n      tag_189\n      jump\t// in\n    tag_257:\n        /* \"#utility.yul\":971:975   */\n      0x20\n        /* \"#utility.yul\":966:969   */\n      dup4\n        /* \"#utility.yul\":962:976   */\n      add\n        /* \"#utility.yul\":948:976   */\n      swap1\n      pop\n        /* \"#utility.yul\":803:982   */\n      swap3\n      swap2\n      pop\n      pop\n      jump\t// out\n        /* \"#utility.yul\":988:1101   */\n    tag_191:\n        /* \"#utility.yul\":1058:1062   */\n      0x00\n        /* \"#utility.yul\":1090:1094   */\n      0x20\n        /* \"#utility.yul\":1085:1088   */\n      dup3\n        /* \"#utility.yul\":1081:1095   */\n      add\n        /* \"#utility.yul\":1073:1095   */\n      swap1\n      pop\n        /* \"#utility.yul\":988:1101   */\n      swap2\n      swap1\n      pop\n      jump\t// out\n        /* \"#utility.yul\":1137:1869   */\n    tag_192:\n        /* \"#utility.yul\":1256:1259   */\n      0x00\n        /* \"#utility.yul\":1285:1339   */\n      tag_260\n        /* \"#utility.yul\":1333:1338   */\n      dup3\n        /* \"#utility.yul\":1285:1339   */\n      tag_184\n      jump\t// in\n    tag_260:\n        /* \"#utility.yul\":1355:1441   */\n      tag_261\n        /* \"#utility.yul\":1434:1440   */\n      dup2\n        /* \"#utility.yul\":1429:1432   */\n      dup6\n        /* \"#utility.yul\":1355:1441   */\n      tag_185\n      jump\t// in\n    tag_261:\n        /* \"#utility.yul\":1348:1441   */\n      swap4\n      pop\n        /* \"#utility.yul\":1465:1521   */\n      tag_262\n        /* \"#utility.yul\":1515:1520   */\n      dup4\n        /* \"#utility.yul\":1465:1521   */\n      tag_186\n      jump\t// in\n    tag_262:\n        /* \"#utility.yul\":1544:1551   */\n      dup1\n        /* \"#utility.yul\":1575:1576   */\n      0x00\n        /* \"#utility.yul\":1560:1844   */\n    tag_263:\n        /* \"#utility.yul\":1585:1591   */\n      dup4\n        /* \"#utility.yul\":1582:1583   */\n      dup2\n        /* \"#utility.yul\":1579:1592   */\n      lt\n        /* \"#utility.yul\":1560:1844   */\n      iszero\n      tag_265\n      jumpi\n        /* \"#utility.yul\":1661:1667   */\n      dup2\n        /* \"#utility.yul\":1655:1668   */\n      mload\n        /* \"#utility.yul\":1688:1751   */\n      tag_266\n        /* \"#utility.yul\":1747:1750   */\n      dup9\n        /* \"#utility.yul\":1732:1745   */\n      dup3\n        /* \"#utility.yul\":1688:1751   */\n      tag_190\n      jump\t// in\n    tag_266:\n        /* \"#utility.yul\":1681:1751   */\n      swap8\n      pop\n        /* \"#utility.yul\":1774:1834   */\n      tag_267\n        /* \"#utility.yul\":1827:1833   */\n      dup4\n        /* \"#utility.yul\":1774:1834   */\n      tag_191\n      jump\t// in\n    tag_267:\n        /* \"#utility.yul\":1764:1834   */\n      swap3\n      pop\n        /* \"#utility.yul\":1620:1844   */\n      pop\n        /* \"#utility.yul\":1607:1608   */\n      0x01\n        /* \"#utility.yul\":1604:1605   */\n      dup2\n        /* \"#utility.yul\":1600:1609   */\n      add\n        /* \"#utility.yul\":1595:1609   */\n      swap1\n      pop\n        /* \"#utility.yul\":1560:1844   */\n      jump(tag_263)\n    tag_265:\n        /* \"#utility.yul\":1564:1578   */\n      pop\n        /* \"#utility.yul\":1860:1863   */\n      dup6\n        /* \"#utility.yul\":1853:1863   */\n      swap4\n      pop\n        /* \"#utility.yul\":1261:1869   */\n      pop\n      pop\n      pop\n        /* \"#utility.yul\":1137:1869   */\n      swap3\n      swap2\n      pop\n      pop\n      jump\t// out\n        /* \"#utility.yul\":1875:1999   */\n    tag_193:\n        /* \"#utility.yul\":1952:1958   */\n      0x00\n        /* \"#utility.yul\":1986:1991   */\n      dup2\n        /* \"#utility.yul\":1980:1992   */\n      mload\n        /* \"#utility.yul\":1970:1992   */\n      swap1\n      pop\n        /* \"#utility.yul\":1875:1999   */\n      swap2\n      swap1\n      pop\n      jump\t// out\n        /* \"#utility.yul\":2005:2199   */\n    tag_194:\n        /* \"#utility.yul\":2114:2125   */\n      0x00\n        /* \"#utility.yul\":2148:2154   */\n      dup3\n        /* \"#utility.yul\":2143:2146   */\n      dup3\n        /* \"#utility.yul\":2136:2155   */\n      mstore\n        /* \"#utility.yul\":2188:2192   */\n      0x20\n        /* \"#utility.yul\":2183:2186   */\n      dup3\n        /* \"#utility.yul\":2179:2193   */\n      add\n        /* \"#utility.yul\":2164:2193   */\n      swap1\n      pop\n        /* \"#utility.yul\":2005:2199   */\n      swap3\n      swap2\n      pop\n      pop\n      jump\t// out\n        /* \"#utility.yul\":2205:2347   */\n    tag_195:\n        /* \"#utility.yul\":2282:2286   */\n      0x00\n        /* \"#utility.yul\":2305:2308   */\n      dup2\n        /* \"#utility.yul\":2297:2308   */\n      swap1\n      pop\n        /* \"#utility.yul\":2335:2339   */\n      0x20\n        /* \"#utility.yul\":2330:2333   */\n      dup3\n        /* \"#utility.yul\":2326:2340   */\n      add\n        /* \"#utility.yul\":2318:2340   */\n      swap1\n      pop\n        /* \"#utility.yul\":2205:2347   */\n      swap2\n      swap1\n      pop\n      jump\t// out\n        /* \"#utility.yul\":2353:2452   */\n    tag_196:\n        /* \"#utility.yul\":2405:2411   */\n      0x00\n        /* \"#utility.yul\":2439:2444   */\n      dup2\n        /* \"#utility.yul\":2433:2445   */\n      mload\n        /* \"#utility.yul\":2423:2445   */\n      swap1\n      pop\n        /* \"#utility.yul\":2353:2452   */\n      swap2\n      swap1\n      pop\n      jump\t// out\n        /* \"#utility.yul\":2458:2617   */\n    tag_197:\n        /* \"#utility.yul\":2532:2543   */\n      0x00\n        /* \"#utility.yul\":2566:2572   */\n      dup3\n        /* \"#utility.yul\":2561:2564   */\n      dup3\n        /* \"#utility.yul\":2554:2573   */\n      mstore\n        /* \"#utility.yul\":2606:2610   */\n      0x20\n        /* \"#utility.yul\":2601:2604   */\n      dup3\n        /* \"#utility.yul\":2597:2611   */\n      add\n        /* \"#utility.yul\":2582:2611   */\n      swap1\n      pop\n        /* \"#utility.yul\":2458:2617   */\n      swap3\n      swap2\n      pop\n      pop\n      jump\t// out\n        /* \"#utility.yul\":2623:2869   */\n    tag_198:\n        /* \"#utility.yul\":2704:2705   */\n      0x00\n        /* \"#utility.yul\":2714:2827   */\n    tag_274:\n        /* \"#utility.yul\":2728:2734   */\n      dup4\n        /* \"#utility.yul\":2725:2726   */\n      dup2\n        /* \"#utility.yul\":2722:2735   */\n      lt\n        /* \"#utility.yul\":2714:2827   */\n      iszero\n      tag_276\n      jumpi\n        /* \"#utility.yul\":2813:2814   */\n      dup1\n        /* \"#utility.yul\":2808:2811   */\n      dup3\n        /* \"#utility.yul\":2804:2815   */\n      add\n        /* \"#utility.yul\":2798:2816   */\n      mload\n        /* \"#utility.yul\":2794:2795   */\n      dup2\n        /* \"#utility.yul\":2789:2792   */\n      dup5\n        /* \"#utility.yul\":2785:2796   */\n      add\n        /* \"#utility.yul\":2778:2817   */\n      mstore\n        /* \"#utility.yul\":2750:2752   */\n      0x20\n        /* \"#utility.yul\":2747:2748   */\n      dup2\n        /* \"#utility.yul\":2743:2753   */\n      add\n        /* \"#utility.yul\":2738:2753   */\n      swap1\n      pop\n        /* \"#utility.yul\":2714:2827   */\n      jump(tag_274)\n    tag_276:\n        /* \"#utility.yul\":2861:2862   */\n      0x00\n        /* \"#utility.yul\":2852:2858   */\n      dup5\n        /* \"#utility.yul\":2847:2850   */\n      dup5\n        /* \"#utility.yul\":2843:2859   */\n      add\n        /* \"#utility.yul\":2836:2863   */\n      mstore\n        /* \"#utility.yul\":2685:2869   */\n      pop\n        /* \"#utility.yul\":2623:2869   */\n      pop\n      pop\n      pop\n      jump\t// out\n        /* \"#utility.yul\":2875:2977   */\n    tag_199:\n        /* \"#utility.yul\":2916:2922   */\n      0x00\n        /* \"#utility.yul\":2967:2969   */\n      0x1f\n        /* \"#utility.yul\":2963:2970   */\n      not\n        /* \"#utility.yul\":2958:2960   */\n      0x1f\n        /* \"#utility.yul\":2951:2956   */\n      dup4\n        /* \"#utility.yul\":2947:2961   */\n      add\n        /* \"#utility.yul\":2943:2971   */\n      and\n        /* \"#utility.yul\":2933:2971   */\n      swap1\n      pop\n        /* \"#utility.yul\":2875:2977   */\n      swap2\n      swap1\n      pop\n      jump\t// out\n        /* \"#utility.yul\":2983:3340   */\n    tag_200:\n        /* \"#utility.yul\":3061:3064   */\n      0x00\n        /* \"#utility.yul\":3089:3128   */\n      tag_279\n        /* \"#utility.yul\":3122:3127   */\n      dup3\n        /* \"#utility.yul\":3089:3128   */\n      tag_196\n      jump\t// in\n    tag_279:\n        /* \"#utility.yul\":3144:3205   */\n      tag_280\n        /* \"#utility.yul\":3198:3204   */\n      dup2\n        /* \"#utility.yul\":3193:3196   */\n      dup6\n        /* \"#utility.yul\":3144:3205   */\n      tag_197\n      jump\t// in\n    tag_280:\n        /* \"#utility.yul\":3137:3205   */\n      swap4\n      pop\n        /* \"#utility.yul\":3214:3279   */\n      tag_281\n        /* \"#utility.yul\":3272:3278   */\n      dup2\n        /* \"#utility.yul\":3267:3270   */\n      dup6\n        /* \"#utility.yul\":3260:3264   */\n      0x20\n        /* \"#utility.yul\":3253:3258   */\n      dup7\n        /* \"#utility.yul\":3249:3265   */\n      add\n        /* \"#utility.yul\":3214:3279   */\n      tag_198\n      jump\t// in\n    tag_281:\n        /* \"#utility.yul\":3304:3333   */\n      tag_282\n        /* \"#utility.yul\":3326:3332   */\n      dup2\n        /* \"#utility.yul\":3304:3333   */\n      tag_199\n      jump\t// in\n    tag_282:\n        /* \"#utility.yul\":3299:3302   */\n      dup5\n        /* \"#utility.yul\":3295:3334   */\n      add\n        /* \"#utility.yul\":3288:3334   */\n      swap2\n      pop\n        /* \"#utility.yul\":3065:3340   */\n      pop\n        /* \"#utility.yul\":2983:3340   */\n      swap3\n      swap2\n      pop\n      pop\n      jump\t// out\n        /* \"#utility.yul\":3346:3542   */\n    tag_201:\n        /* \"#utility.yul\":3435:3445   */\n      0x00\n        /* \"#utility.yul\":3470:3536   */\n      tag_284\n        /* \"#utility.yul\":3532:3535   */\n      dup4\n        /* \"#utility.yul\":3524:3530   */\n      dup4\n        /* \"#utility.yul\":3470:3536   */\n      tag_200\n      jump\t// in\n    tag_284:\n        /* \"#utility.yul\":3456:3536   */\n      swap1\n      pop\n        /* \"#utility.yul\":3346:3542   */\n      swap3\n      swap2\n      pop\n      pop\n      jump\t// out\n        /* \"#utility.yul\":3548:3671   */\n    tag_202:\n        /* \"#utility.yul\":3628:3632   */\n      0x00\n        /* \"#utility.yul\":3660:3664   */\n      0x20\n        /* \"#utility.yul\":3655:3658   */\n      dup3\n        /* \"#utility.yul\":3651:3665   */\n      add\n        /* \"#utility.yul\":3643:3665   */\n      swap1\n      pop\n        /* \"#utility.yul\":3548:3671   */\n      swap2\n      swap1\n      pop\n      jump\t// out\n        /* \"#utility.yul\":3705:4696   */\n    tag_203:\n        /* \"#utility.yul\":3844:3847   */\n      0x00\n        /* \"#utility.yul\":3873:3937   */\n      tag_287\n        /* \"#utility.yul\":3931:3936   */\n      dup3\n        /* \"#utility.yul\":3873:3937   */\n      tag_193\n      jump\t// in\n    tag_287:\n        /* \"#utility.yul\":3953:4049   */\n      tag_288\n        /* \"#utility.yul\":4042:4048   */\n      dup2\n        /* \"#utility.yul\":4037:4040   */\n      dup6\n        /* \"#utility.yul\":3953:4049   */\n      tag_194\n      jump\t// in\n    tag_288:\n        /* \"#utility.yul\":3946:4049   */\n      swap4\n      pop\n        /* \"#utility.yul\":4075:4078   */\n      dup4\n        /* \"#utility.yul\":4120:4124   */\n      0x20\n        /* \"#utility.yul\":4112:4118   */\n      dup3\n        /* \"#utility.yul\":4108:4125   */\n      mul\n        /* \"#utility.yul\":4103:4106   */\n      dup6\n        /* \"#utility.yul\":4099:4126   */\n      add\n        /* \"#utility.yul\":4150:4216   */\n      tag_289\n        /* \"#utility.yul\":4210:4215   */\n      dup6\n        /* \"#utility.yul\":4150:4216   */\n      tag_195\n      jump\t// in\n    tag_289:\n        /* \"#utility.yul\":4239:4246   */\n      dup1\n        /* \"#utility.yul\":4270:4271   */\n      0x00\n        /* \"#utility.yul\":4255:4651   */\n    tag_290:\n        /* \"#utility.yul\":4280:4286   */\n      dup6\n        /* \"#utility.yul\":4277:4278   */\n      dup2\n        /* \"#utility.yul\":4274:4287   */\n      lt\n        /* \"#utility.yul\":4255:4651   */\n      iszero\n      tag_292\n      jumpi\n        /* \"#utility.yul\":4351:4360   */\n      dup5\n        /* \"#utility.yul\":4345:4349   */\n      dup5\n        /* \"#utility.yul\":4341:4361   */\n      sub\n        /* \"#utility.yul\":4336:4339   */\n      dup10\n        /* \"#utility.yul\":4329:4362   */\n      mstore\n        /* \"#utility.yul\":4402:4408   */\n      dup2\n        /* \"#utility.yul\":4396:4409   */\n      mload\n        /* \"#utility.yul\":4430:4514   */\n      tag_293\n        /* \"#utility.yul\":4509:4513   */\n      dup6\n        /* \"#utility.yul\":4494:4507   */\n      dup3\n        /* \"#utility.yul\":4430:4514   */\n      tag_201\n      jump\t// in\n    tag_293:\n        /* \"#utility.yul\":4422:4514   */\n      swap5\n      pop\n        /* \"#utility.yul\":4537:4607   */\n      tag_294\n        /* \"#utility.yul\":4600:4606   */\n      dup4\n        /* \"#utility.yul\":4537:4607   */\n      tag_202\n      jump\t// in\n    tag_294:\n        /* \"#utility.yul\":4527:4607   */\n      swap3\n      pop\n        /* \"#utility.yul\":4636:4640   */\n      0x20\n        /* \"#utility.yul\":4631:4634   */\n      dup11\n        /* \"#utility.yul\":4627:4641   */\n      add\n        /* \"#utility.yul\":4620:4641   */\n      swap10\n      pop\n        /* \"#utility.yul\":4315:4651   */\n      pop\n        /* \"#utility.yul\":4302:4303   */\n      0x01\n        /* \"#utility.yul\":4299:4300   */\n      dup2\n        /* \"#utility.yul\":4295:4304   */\n      add\n        /* \"#utility.yul\":4290:4304   */\n      swap1\n      pop\n        /* \"#utility.yul\":4255:4651   */\n      jump(tag_290)\n    tag_292:\n        /* \"#utility.yul\":4259:4273   */\n      pop\n        /* \"#utility.yul\":4667:4671   */\n      dup3\n        /* \"#utility.yul\":4660:4671   */\n      swap8\n      pop\n        /* \"#utility.yul\":4687:4690   */\n      dup8\n        /* \"#utility.yul\":4680:4690   */\n      swap6\n      pop\n        /* \"#utility.yul\":3849:4696   */\n      pop\n      pop\n      pop\n      pop\n      pop\n        /* \"#utility.yul\":3705:4696   */\n      swap3\n      swap2\n      pop\n      pop\n      jump\t// out\n        /* \"#utility.yul\":4702:5376   */\n    tag_12:\n        /* \"#utility.yul\":4943:4947   */\n      0x00\n        /* \"#utility.yul\":4981:4983   */\n      0x40\n        /* \"#utility.yul\":4970:4979   */\n      dup3\n        /* \"#utility.yul\":4966:4984   */\n      add\n        /* \"#utility.yul\":4958:4984   */\n      swap1\n      pop\n        /* \"#utility.yul\":5030:5039   */\n      dup2\n        /* \"#utility.yul\":5024:5028   */\n      dup2\n        /* \"#utility.yul\":5020:5040   */\n      sub\n        /* \"#utility.yul\":5016:5017   */\n      0x00\n        /* \"#utility.yul\":5005:5014   */\n      dup4\n        /* \"#utility.yul\":5001:5018   */\n      add\n        /* \"#utility.yul\":4994:5041   */\n      mstore\n        /* \"#utility.yul\":5058:5166   */\n      tag_296\n        /* \"#utility.yul\":5161:5165   */\n      dup2\n        /* \"#utility.yul\":5152:5158   */\n      dup6\n        /* \"#utility.yul\":5058:5166   */\n      tag_192\n      jump\t// in\n    tag_296:\n        /* \"#utility.yul\":5050:5166   */\n      swap1\n      pop\n        /* \"#utility.yul\":5213:5222   */\n      dup2\n        /* \"#utility.yul\":5207:5211   */\n      dup2\n        /* \"#utility.yul\":5203:5223   */\n      sub\n        /* \"#utility.yul\":5198:5200   */\n      0x20\n        /* \"#utility.yul\":5187:5196   */\n      dup4\n        /* \"#utility.yul\":5183:5201   */\n      add\n        /* \"#utility.yul\":5176:5224   */\n      mstore\n        /* \"#utility.yul\":5241:5369   */\n      tag_297\n        /* \"#utility.yul\":5364:5368   */\n      dup2\n        /* \"#utility.yul\":5355:5361   */\n      dup5\n        /* \"#utility.yul\":5241:5369   */\n      tag_203\n      jump\t// in\n    tag_297:\n        /* \"#utility.yul\":5233:5369   */\n      swap1\n      pop\n        /* \"#utility.yul\":4702:5376   */\n      swap4\n      swap3\n      pop\n      pop\n      pop\n      jump\t// out\n        /* \"#utility.yul\":5382:5457   */\n    tag_204:\n        /* \"#utility.yul\":5415:5421   */\n      0x00\n        /* \"#utility.yul\":5448:5450   */\n      0x40\n        /* \"#utility.yul\":5442:5451   */\n      mload\n        /* \"#utility.yul\":5432:5451   */\n      swap1\n      pop\n        /* \"#utility.yul\":5382:5457   */\n      swap1\n      jump\t// out\n        /* \"#utility.yul\":5463:5580   */\n    tag_205:\n        /* \"#utility.yul\":5572:5573   */\n      0x00\n        /* \"#utility.yul\":5569:5570   */\n      dup1\n        /* \"#utility.yul\":5562:5574   */\n      revert\n        /* \"#utility.yul\":5586:5703   */\n    tag_206:\n        /* \"#utility.yul\":5695:5696   */\n      0x00\n        /* \"#utility.yul\":5692:5693   */\n      dup1\n        /* \"#utility.yul\":5685:5697   */\n      revert\n        /* \"#utility.yul\":5709:5831   */\n    tag_207:\n        /* \"#utility.yul\":5782:5806   */\n      tag_302\n        /* \"#utility.yul\":5800:5805   */\n      dup2\n        /* \"#utility.yul\":5782:5806   */\n      tag_188\n      jump\t// in\n    tag_302:\n        /* \"#utility.yul\":5775:5780   */\n      dup2\n        /* \"#utility.yul\":5772:5807   */\n      eq\n        /* \"#utility.yul\":5762:5825   */\n      tag_303\n      jumpi\n        /* \"#utility.yul\":5821:5822   */\n      0x00\n        /* \"#utility.yul\":5818:5819   */\n      dup1\n        /* \"#utility.yul\":5811:5823   */\n      revert\n        /* \"#utility.yul\":5762:5825   */\n    tag_303:\n        /* \"#utility.yul\":5709:5831   */\n      pop\n      jump\t// out\n        /* \"#utility.yul\":5837:5976   */\n    tag_208:\n        /* \"#utility.yul\":5883:5888   */\n      0x00\n        /* \"#utility.yul\":5921:5927   */\n      dup2\n        /* \"#utility.yul\":5908:5928   */\n      calldataload\n        /* \"#utility.yul\":5899:5928   */\n      swap1\n      pop\n        /* \"#utility.yul\":5937:5970   */\n      tag_305\n        /* \"#utility.yul\":5964:5969   */\n      dup2\n        /* \"#utility.yul\":5937:5970   */\n      tag_207\n      jump\t// in\n    tag_305:\n        /* \"#utility.yul\":5837:5976   */\n      swap3\n      swap2\n      pop\n      pop\n      jump\t// out\n        /* \"#utility.yul\":5982:6099   */\n    tag_209:\n        /* \"#utility.yul\":6091:6092   */\n      0x00\n        /* \"#utility.yul\":6088:6089   */\n      dup1\n        /* \"#utility.yul\":6081:6093   */\n      revert\n        /* \"#utility.yul\":6105:6222   */\n    tag_210:\n        /* \"#utility.yul\":6214:6215   */\n      0x00\n        /* \"#utility.yul\":6211:6212   */\n      dup1\n        /* \"#utility.yul\":6204:6216   */\n      revert\n        /* \"#utility.yul\":6228:6408   */\n    tag_54:\n        /* \"#utility.yul\":6276:6353   */\n      0x4e487b7100000000000000000000000000000000000000000000000000000000\n        /* \"#utility.yul\":6273:6274   */\n      0x00\n        /* \"#utility.yul\":6266:6354   */\n      mstore\n        /* \"#utility.yul\":6373:6377   */\n      0x41\n        /* \"#utility.yul\":6370:6371   */\n      0x04\n        /* \"#utility.yul\":6363:6378   */\n      mstore\n        /* \"#utility.yul\":6397:6401   */\n      0x24\n        /* \"#utility.yul\":6394:6395   */\n      0x00\n        /* \"#utility.yul\":6387:6402   */\n      revert\n        /* \"#utility.yul\":6414:6695   */\n    tag_211:\n        /* \"#utility.yul\":6497:6524   */\n      tag_310\n        /* \"#utility.yul\":6519:6523   */\n      dup3\n        /* \"#utility.yul\":6497:6524   */\n      tag_199\n      jump\t// in\n    tag_310:\n        /* \"#utility.yul\":6489:6495   */\n      dup2\n        /* \"#utility.yul\":6485:6525   */\n      add\n        /* \"#utility.yul\":6627:6633   */\n      dup2\n        /* \"#utility.yul\":6615:6625   */\n      dup2\n        /* \"#utility.yul\":6612:6634   */\n      lt\n        /* \"#utility.yul\":6591:6609   */\n      0xffffffffffffffff\n        /* \"#utility.yul\":6579:6589   */\n      dup3\n        /* \"#utility.yul\":6576:6610   */\n      gt\n        /* \"#utility.yul\":6573:6635   */\n      or\n        /* \"#utility.yul\":6570:6658   */\n      iszero\n      tag_311\n      jumpi\n        /* \"#utility.yul\":6638:6656   */\n      tag_312\n      tag_54\n      jump\t// in\n    tag_312:\n        /* \"#utility.yul\":6570:6658   */\n    tag_311:\n        /* \"#utility.yul\":6678:6688   */\n      dup1\n        /* \"#utility.yul\":6674:6676   */\n      0x40\n        /* \"#utility.yul\":6667:6689   */\n      mstore\n        /* \"#utility.yul\":6457:6695   */\n      pop\n        /* \"#utility.yul\":6414:6695   */\n      pop\n      pop\n      jump\t// out\n        /* \"#utility.yul\":6701:6830   */\n    tag_212:\n        /* \"#utility.yul\":6735:6741   */\n      0x00\n        /* \"#utility.yul\":6762:6782   */\n      tag_314\n      tag_204\n      jump\t// in\n    tag_314:\n        /* \"#utility.yul\":6752:6782   */\n      swap1\n      pop\n        /* \"#utility.yul\":6791:6824   */\n      tag_315\n        /* \"#utility.yul\":6819:6823   */\n      dup3\n        /* \"#utility.yul\":6811:6817   */\n      dup3\n        /* \"#utility.yul\":6791:6824   */\n      tag_211\n      jump\t// in\n    tag_315:\n        /* \"#utility.yul\":6701:6830   */\n      swap2\n      swap1\n      pop\n      jump\t// out\n        /* \"#utility.yul\":6836:7144   */\n    tag_213:\n        /* \"#utility.yul\":6898:6902   */\n      0x00\n        /* \"#utility.yul\":6988:7006   */\n      0xffffffffffffffff\n        /* \"#utility.yul\":6980:6986   */\n      dup3\n        /* \"#utility.yul\":6977:7007   */\n      gt\n        /* \"#utility.yul\":6974:7030   */\n      iszero\n      tag_317\n      jumpi\n        /* \"#utility.yul\":7010:7028   */\n      tag_318\n      tag_54\n      jump\t// in\n    tag_318:\n        /* \"#utility.yul\":6974:7030   */\n    tag_317:\n        /* \"#utility.yul\":7048:7077   */\n      tag_319\n        /* \"#utility.yul\":7070:7076   */\n      dup3\n        /* \"#utility.yul\":7048:7077   */\n      tag_199\n      jump\t// in\n    tag_319:\n        /* \"#utility.yul\":7040:7077   */\n      swap1\n      pop\n        /* \"#utility.yul\":7132:7136   */\n      0x20\n        /* \"#utility.yul\":7126:7130   */\n      dup2\n        /* \"#utility.yul\":7122:7137   */\n      add\n        /* \"#utility.yul\":7114:7137   */\n      swap1\n      pop\n        /* \"#utility.yul\":6836:7144   */\n      swap2\n      swap1\n      pop\n      jump\t// out\n        /* \"#utility.yul\":7150:7296   */\n    tag_214:\n        /* \"#utility.yul\":7247:7253   */\n      dup3\n        /* \"#utility.yul\":7242:7245   */\n      dup2\n        /* \"#utility.yul\":7237:7240   */\n      dup4\n        /* \"#utility.yul\":7224:7254   */\n      calldatacopy\n        /* \"#utility.yul\":7288:7289   */\n      0x00\n        /* \"#utility.yul\":7279:7285   */\n      dup4\n        /* \"#utility.yul\":7274:7277   */\n      dup4\n        /* \"#utility.yul\":7270:7286   */\n      add\n        /* \"#utility.yul\":7263:7290   */\n      mstore\n        /* \"#utility.yul\":7150:7296   */\n      pop\n      pop\n      pop\n      jump\t// out\n        /* \"#utility.yul\":7302:7727   */\n    tag_215:\n        /* \"#utility.yul\":7380:7385   */\n      0x00\n        /* \"#utility.yul\":7405:7471   */\n      tag_322\n        /* \"#utility.yul\":7421:7470   */\n      tag_323\n        /* \"#utility.yul\":7463:7469   */\n      dup5\n        /* \"#utility.yul\":7421:7470   */\n      tag_213\n      jump\t// in\n    tag_323:\n        /* \"#utility.yul\":7405:7471   */\n      tag_212\n      jump\t// in\n    tag_322:\n        /* \"#utility.yul\":7396:7471   */\n      swap1\n      pop\n        /* \"#utility.yul\":7494:7500   */\n      dup3\n        /* \"#utility.yul\":7487:7492   */\n      dup2\n        /* \"#utility.yul\":7480:7501   */\n      mstore\n        /* \"#utility.yul\":7532:7536   */\n      0x20\n        /* \"#utility.yul\":7525:7530   */\n      dup2\n        /* \"#utility.yul\":7521:7537   */\n      add\n        /* \"#utility.yul\":7570:7573   */\n      dup5\n        /* \"#utility.yul\":7561:7567   */\n      dup5\n        /* \"#utility.yul\":7556:7559   */\n      dup5\n        /* \"#utility.yul\":7552:7568   */\n      add\n        /* \"#utility.yul\":7549:7574   */\n      gt\n        /* \"#utility.yul\":7546:7658   */\n      iszero\n      tag_324\n      jumpi\n        /* \"#utility.yul\":7577:7656   */\n      tag_325\n      tag_210\n      jump\t// in\n    tag_325:\n        /* \"#utility.yul\":7546:7658   */\n    tag_324:\n        /* \"#utility.yul\":7667:7721   */\n      tag_326\n        /* \"#utility.yul\":7714:7720   */\n      dup5\n        /* \"#utility.yul\":7709:7712   */\n      dup3\n        /* \"#utility.yul\":7704:7707   */\n      dup6\n        /* \"#utility.yul\":7667:7721   */\n      tag_214\n      jump\t// in\n    tag_326:\n        /* \"#utility.yul\":7386:7727   */\n      pop\n        /* \"#utility.yul\":7302:7727   */\n      swap4\n      swap3\n      pop\n      pop\n      pop\n      jump\t// out\n        /* \"#utility.yul\":7747:8087   */\n    tag_216:\n        /* \"#utility.yul\":7803:7808   */\n      0x00\n        /* \"#utility.yul\":7852:7855   */\n      dup3\n        /* \"#utility.yul\":7845:7849   */\n      0x1f\n        /* \"#utility.yul\":7837:7843   */\n      dup4\n        /* \"#utility.yul\":7833:7850   */\n      add\n        /* \"#utility.yul\":7829:7856   */\n      slt\n        /* \"#utility.yul\":7819:7941   */\n      tag_328\n      jumpi\n        /* \"#utility.yul\":7860:7939   */\n      tag_329\n      tag_209\n      jump\t// in\n    tag_329:\n        /* \"#utility.yul\":7819:7941   */\n    tag_328:\n        /* \"#utility.yul\":7977:7983   */\n      dup2\n        /* \"#utility.yul\":7964:7984   */\n      calldataload\n        /* \"#utility.yul\":8002:8081   */\n      tag_330\n        /* \"#utility.yul\":8077:8080   */\n      dup5\n        /* \"#utility.yul\":8069:8075   */\n      dup3\n        /* \"#utility.yul\":8062:8066   */\n      0x20\n        /* \"#utility.yul\":8054:8060   */\n      dup7\n        /* \"#utility.yul\":8050:8067   */\n      add\n        /* \"#utility.yul\":8002:8081   */\n      tag_215\n      jump\t// in\n    tag_330:\n        /* \"#utility.yul\":7993:8081   */\n      swap2\n      pop\n        /* \"#utility.yul\":7809:8087   */\n      pop\n        /* \"#utility.yul\":7747:8087   */\n      swap3\n      swap2\n      pop\n      pop\n      jump\t// out\n        /* \"#utility.yul\":8093:9398   */\n    tag_15:\n        /* \"#utility.yul\":8209:8215   */\n      0x00\n        /* \"#utility.yul\":8217:8223   */\n      dup1\n        /* \"#utility.yul\":8225:8231   */\n      0x00\n        /* \"#utility.yul\":8233:8239   */\n      dup1\n        /* \"#utility.yul\":8282:8285   */\n      0x80\n        /* \"#utility.yul\":8270:8279   */\n      dup6\n        /* \"#utility.yul\":8261:8268   */\n      dup8\n        /* \"#utility.yul\":8257:8280   */\n      sub\n        /* \"#utility.yul\":8253:8286   */\n      slt\n        /* \"#utility.yul\":8250:8370   */\n      iszero\n      tag_332\n      jumpi\n        /* \"#utility.yul\":8289:8368   */\n      tag_333\n      tag_205\n      jump\t// in\n    tag_333:\n        /* \"#utility.yul\":8250:8370   */\n    tag_332:\n        /* \"#utility.yul\":8409:8410   */\n      0x00\n        /* \"#utility.yul\":8434:8487   */\n      tag_334\n        /* \"#utility.yul\":8479:8486   */\n      dup8\n        /* \"#utility.yul\":8470:8476   */\n      dup3\n        /* \"#utility.yul\":8459:8468   */\n      dup9\n        /* \"#utility.yul\":8455:8477   */\n      add\n        /* \"#utility.yul\":8434:8487   */\n      tag_208\n      jump\t// in\n    tag_334:\n        /* \"#utility.yul\":8424:8487   */\n      swap5\n      pop\n        /* \"#utility.yul\":8380:8497   */\n      pop\n        /* \"#utility.yul\":8564:8566   */\n      0x20\n        /* \"#utility.yul\":8553:8562   */\n      dup6\n        /* \"#utility.yul\":8549:8567   */\n      add\n        /* \"#utility.yul\":8536:8568   */\n      calldataload\n        /* \"#utility.yul\":8595:8613   */\n      0xffffffffffffffff\n        /* \"#utility.yul\":8587:8593   */\n      dup2\n        /* \"#utility.yul\":8584:8614   */\n      gt\n        /* \"#utility.yul\":8581:8698   */\n      iszero\n      tag_335\n      jumpi\n        /* \"#utility.yul\":8617:8696   */\n      tag_336\n      tag_206\n      jump\t// in\n    tag_336:\n        /* \"#utility.yul\":8581:8698   */\n    tag_335:\n        /* \"#utility.yul\":8722:8785   */\n      tag_337\n        /* \"#utility.yul\":8777:8784   */\n      dup8\n        /* \"#utility.yul\":8768:8774   */\n      dup3\n        /* \"#utility.yul\":8757:8766   */\n      dup9\n        /* \"#utility.yul\":8753:8775   */\n      add\n        /* \"#utility.yul\":8722:8785   */\n      tag_216\n      jump\t// in\n    tag_337:\n        /* \"#utility.yul\":8712:8785   */\n      swap4\n      pop\n        /* \"#utility.yul\":8507:8795   */\n      pop\n        /* \"#utility.yul\":8862:8864   */\n      0x40\n        /* \"#utility.yul\":8851:8860   */\n      dup6\n        /* \"#utility.yul\":8847:8865   */\n      add\n        /* \"#utility.yul\":8834:8866   */\n      calldataload\n        /* \"#utility.yul\":8893:8911   */\n      0xffffffffffffffff\n        /* \"#utility.yul\":8885:8891   */\n      dup2\n        /* \"#utility.yul\":8882:8912   */\n      gt\n        /* \"#utility.yul\":8879:8996   */\n      iszero\n      tag_338\n      jumpi\n        /* \"#utility.yul\":8915:8994   */\n      tag_339\n      tag_206\n      jump\t// in\n    tag_339:\n        /* \"#utility.yul\":8879:8996   */\n    tag_338:\n        /* \"#utility.yul\":9020:9083   */\n      tag_340\n        /* \"#utility.yul\":9075:9082   */\n      dup8\n        /* \"#utility.yul\":9066:9072   */\n      dup3\n        /* \"#utility.yul\":9055:9064   */\n      dup9\n        /* \"#utility.yul\":9051:9073   */\n      add\n        /* \"#utility.yul\":9020:9083   */\n      tag_216\n      jump\t// in\n    tag_340:\n        /* \"#utility.yul\":9010:9083   */\n      swap3\n      pop\n        /* \"#utility.yul\":8805:9093   */\n      pop\n        /* \"#utility.yul\":9160:9162   */\n      0x60\n        /* \"#utility.yul\":9149:9158   */\n      dup6\n        /* \"#utility.yul\":9145:9163   */\n      add\n        /* \"#utility.yul\":9132:9164   */\n      calldataload\n        /* \"#utility.yul\":9191:9209   */\n      0xffffffffffffffff\n        /* \"#utility.yul\":9183:9189   */\n      dup2\n        /* \"#utility.yul\":9180:9210   */\n      gt\n        /* \"#utility.yul\":9177:9294   */\n      iszero\n      tag_341\n      jumpi\n        /* \"#utility.yul\":9213:9292   */\n      tag_342\n      tag_206\n      jump\t// in\n    tag_342:\n        /* \"#utility.yul\":9177:9294   */\n    tag_341:\n        /* \"#utility.yul\":9318:9381   */\n      tag_343\n        /* \"#utility.yul\":9373:9380   */\n      dup8\n        /* \"#utility.yul\":9364:9370   */\n      dup3\n        /* \"#utility.yul\":9353:9362   */\n      dup9\n        /* \"#utility.yul\":9349:9371   */\n      add\n        /* \"#utility.yul\":9318:9381   */\n      tag_216\n      jump\t// in\n    tag_343:\n        /* \"#utility.yul\":9308:9381   */\n      swap2\n      pop\n        /* \"#utility.yul\":9103:9391   */\n      pop\n        /* \"#utility.yul\":8093:9398   */\n      swap3\n      swap6\n      swap2\n      swap5\n      pop\n      swap3\n      pop\n      jump\t// out\n        /* \"#utility.yul\":9404:9733   */\n    tag_19:\n        /* \"#utility.yul\":9463:9469   */\n      0x00\n        /* \"#utility.yul\":9512:9514   */\n      0x20\n        /* \"#utility.yul\":9500:9509   */\n      dup3\n        /* \"#utility.yul\":9491:9498   */\n      dup5\n        /* \"#utility.yul\":9487:9510   */\n      sub\n        /* \"#utility.yul\":9483:9515   */\n      slt\n        /* \"#utility.yul\":9480:9599   */\n      iszero\n      tag_345\n      jumpi\n        /* \"#utility.yul\":9518:9597   */\n      tag_346\n      tag_205\n      jump\t// in\n    tag_346:\n        /* \"#utility.yul\":9480:9599   */\n    tag_345:\n        /* \"#utility.yul\":9638:9639   */\n      0x00\n        /* \"#utility.yul\":9663:9716   */\n      tag_347\n        /* \"#utility.yul\":9708:9715   */\n      dup5\n        /* \"#utility.yul\":9699:9705   */\n      dup3\n        /* \"#utility.yul\":9688:9697   */\n      dup6\n        /* \"#utility.yul\":9684:9706   */\n      add\n        /* \"#utility.yul\":9663:9716   */\n      tag_208\n      jump\t// in\n    tag_347:\n        /* \"#utility.yul\":9653:9716   */\n      swap2\n      pop\n        /* \"#utility.yul\":9609:9726   */\n      pop\n        /* \"#utility.yul\":9404:9733   */\n      swap3\n      swap2\n      pop\n      pop\n      jump\t// out\n        /* \"#utility.yul\":9739:9816   */\n    tag_217:\n        /* \"#utility.yul\":9776:9783   */\n      0x00\n        /* \"#utility.yul\":9805:9810   */\n      dup2\n        /* \"#utility.yul\":9794:9810   */\n      swap1\n      pop\n        /* \"#utility.yul\":9739:9816   */\n      swap2\n      swap1\n      pop\n      jump\t// out\n        /* \"#utility.yul\":9822:9944   */\n    tag_218:\n        /* \"#utility.yul\":9895:9919   */\n      tag_350\n        /* \"#utility.yul\":9913:9918   */\n      dup2\n        /* \"#utility.yul\":9895:9919   */\n      tag_217\n      jump\t// in\n    tag_350:\n        /* \"#utility.yul\":9888:9893   */\n      dup2\n        /* \"#utility.yul\":9885:9920   */\n      eq\n        /* \"#utility.yul\":9875:9938   */\n      tag_351\n      jumpi\n        /* \"#utility.yul\":9934:9935   */\n      0x00\n        /* \"#utility.yul\":9931:9932   */\n      dup1\n        /* \"#utility.yul\":9924:9936   */\n      revert\n        /* \"#utility.yul\":9875:9938   */\n    tag_351:\n        /* \"#utility.yul\":9822:9944   */\n      pop\n      jump\t// out\n        /* \"#utility.yul\":9950:10089   */\n    tag_219:\n        /* \"#utility.yul\":9996:10001   */\n      0x00\n        /* \"#utility.yul\":10034:10040   */\n      dup2\n        /* \"#utility.yul\":10021:10041   */\n      calldataload\n        /* \"#utility.yul\":10012:10041   */\n      swap1\n      pop\n        /* \"#utility.yul\":10050:10083   */\n      tag_353\n        /* \"#utility.yul\":10077:10082   */\n      dup2\n        /* \"#utility.yul\":10050:10083   */\n      tag_218\n      jump\t// in\n    tag_353:\n        /* \"#utility.yul\":9950:10089   */\n      swap3\n      swap2\n      pop\n      pop\n      jump\t// out\n        /* \"#utility.yul\":10095:10424   */\n    tag_23:\n        /* \"#utility.yul\":10154:10160   */\n      0x00\n        /* \"#utility.yul\":10203:10205   */\n      0x20\n        /* \"#utility.yul\":10191:10200   */\n      dup3\n        /* \"#utility.yul\":10182:10189   */\n      dup5\n        /* \"#utility.yul\":10178:10201   */\n      sub\n        /* \"#utility.yul\":10174:10206   */\n      slt\n        /* \"#utility.yul\":10171:10290   */\n      iszero\n      tag_355\n      jumpi\n        /* \"#utility.yul\":10209:10288   */\n      tag_356\n      tag_205\n      jump\t// in\n    tag_356:\n        /* \"#utility.yul\":10171:10290   */\n    tag_355:\n        /* \"#utility.yul\":10329:10330   */\n      0x00\n        /* \"#utility.yul\":10354:10407   */\n      tag_357\n        /* \"#utility.yul\":10399:10406   */\n      dup5\n        /* \"#utility.yul\":10390:10396   */\n      dup3\n        /* \"#utility.yul\":10379:10388   */\n      dup6\n        /* \"#utility.yul\":10375:10397   */\n      add\n        /* \"#utility.yul\":10354:10407   */\n      tag_219\n      jump\t// in\n    tag_357:\n        /* \"#utility.yul\":10344:10407   */\n      swap2\n      pop\n        /* \"#utility.yul\":10300:10417   */\n      pop\n        /* \"#utility.yul\":10095:10424   */\n      swap3\n      swap2\n      pop\n      pop\n      jump\t// out\n        /* \"#utility.yul\":10430:10548   */\n    tag_220:\n        /* \"#utility.yul\":10517:10541   */\n      tag_359\n        /* \"#utility.yul\":10535:10540   */\n      dup2\n        /* \"#utility.yul\":10517:10541   */\n      tag_188\n      jump\t// in\n    tag_359:\n        /* \"#utility.yul\":10512:10515   */\n      dup3\n        /* \"#utility.yul\":10505:10542   */\n      mstore\n        /* \"#utility.yul\":10430:10548   */\n      pop\n      pop\n      jump\t// out\n        /* \"#utility.yul\":10554:10723   */\n    tag_221:\n        /* \"#utility.yul\":10638:10649   */\n      0x00\n        /* \"#utility.yul\":10672:10678   */\n      dup3\n        /* \"#utility.yul\":10667:10670   */\n      dup3\n        /* \"#utility.yul\":10660:10679   */\n      mstore\n        /* \"#utility.yul\":10712:10716   */\n      0x20\n        /* \"#utility.yul\":10707:10710   */\n      dup3\n        /* \"#utility.yul\":10703:10717   */\n      add\n        /* \"#utility.yul\":10688:10717   */\n      swap1\n      pop\n        /* \"#utility.yul\":10554:10723   */\n      swap3\n      swap2\n      pop\n      pop\n      jump\t// out\n        /* \"#utility.yul\":10729:11106   */\n    tag_222:\n        /* \"#utility.yul\":10817:10820   */\n      0x00\n        /* \"#utility.yul\":10845:10884   */\n      tag_362\n        /* \"#utility.yul\":10878:10883   */\n      dup3\n        /* \"#utility.yul\":10845:10884   */\n      tag_196\n      jump\t// in\n    tag_362:\n        /* \"#utility.yul\":10900:10971   */\n      tag_363\n        /* \"#utility.yul\":10964:10970   */\n      dup2\n        /* \"#utility.yul\":10959:10962   */\n      dup6\n        /* \"#utility.yul\":10900:10971   */\n      tag_221\n      jump\t// in\n    tag_363:\n        /* \"#utility.yul\":10893:10971   */\n      swap4\n      pop\n        /* \"#utility.yul\":10980:11045   */\n      tag_364\n        /* \"#utility.yul\":11038:11044   */\n      dup2\n        /* \"#utility.yul\":11033:11036   */\n      dup6\n        /* \"#utility.yul\":11026:11030   */\n      0x20\n        /* \"#utility.yul\":11019:11024   */\n      dup7\n        /* \"#utility.yul\":11015:11031   */\n      add\n        /* \"#utility.yul\":10980:11045   */\n      tag_198\n      jump\t// in\n    tag_364:\n        /* \"#utility.yul\":11070:11099   */\n      tag_365\n        /* \"#utility.yul\":11092:11098   */\n      dup2\n        /* \"#utility.yul\":11070:11099   */\n      tag_199\n      jump\t// in\n    tag_365:\n        /* \"#utility.yul\":11065:11068   */\n      dup5\n        /* \"#utility.yul\":11061:11100   */\n      add\n        /* \"#utility.yul\":11054:11100   */\n      swap2\n      pop\n        /* \"#utility.yul\":10821:11106   */\n      pop\n        /* \"#utility.yul\":10729:11106   */\n      swap3\n      swap2\n      pop\n      pop\n      jump\t// out\n        /* \"#utility.yul\":11112:11202   */\n    tag_223:\n        /* \"#utility.yul\":11146:11153   */\n      0x00\n        /* \"#utility.yul\":11189:11194   */\n      dup2\n        /* \"#utility.yul\":11182:11195   */\n      iszero\n        /* \"#utility.yul\":11175:11196   */\n      iszero\n        /* \"#utility.yul\":11164:11196   */\n      swap1\n      pop\n        /* \"#utility.yul\":11112:11202   */\n      swap2\n      swap1\n      pop\n      jump\t// out\n        /* \"#utility.yul\":11208:11317   */\n    tag_224:\n        /* \"#utility.yul\":11289:11310   */\n      tag_368\n        /* \"#utility.yul\":11304:11309   */\n      dup2\n        /* \"#utility.yul\":11289:11310   */\n      tag_223\n      jump\t// in\n    tag_368:\n        /* \"#utility.yul\":11284:11287   */\n      dup3\n        /* \"#utility.yul\":11277:11311   */\n      mstore\n        /* \"#utility.yul\":11208:11317   */\n      pop\n      pop\n      jump\t// out\n        /* \"#utility.yul\":11323:12248   */\n    tag_26:\n        /* \"#utility.yul\":11582:11586   */\n      0x00\n        /* \"#utility.yul\":11620:11623   */\n      0xa0\n        /* \"#utility.yul\":11609:11618   */\n      dup3\n        /* \"#utility.yul\":11605:11624   */\n      add\n        /* \"#utility.yul\":11597:11624   */\n      swap1\n      pop\n        /* \"#utility.yul\":11634:11705   */\n      tag_370\n        /* \"#utility.yul\":11702:11703   */\n      0x00\n        /* \"#utility.yul\":11691:11700   */\n      dup4\n        /* \"#utility.yul\":11687:11704   */\n      add\n        /* \"#utility.yul\":11678:11684   */\n      dup9\n        /* \"#utility.yul\":11634:11705   */\n      tag_220\n      jump\t// in\n    tag_370:\n        /* \"#utility.yul\":11752:11761   */\n      dup2\n        /* \"#utility.yul\":11746:11750   */\n      dup2\n        /* \"#utility.yul\":11742:11762   */\n      sub\n        /* \"#utility.yul\":11737:11739   */\n      0x20\n        /* \"#utility.yul\":11726:11735   */\n      dup4\n        /* \"#utility.yul\":11722:11740   */\n      add\n        /* \"#utility.yul\":11715:11763   */\n      mstore\n        /* \"#utility.yul\":11780:11858   */\n      tag_371\n        /* \"#utility.yul\":11853:11857   */\n      dup2\n        /* \"#utility.yul\":11844:11850   */\n      dup8\n        /* \"#utility.yul\":11780:11858   */\n      tag_222\n      jump\t// in\n    tag_371:\n        /* \"#utility.yul\":11772:11858   */\n      swap1\n      pop\n        /* \"#utility.yul\":11905:11914   */\n      dup2\n        /* \"#utility.yul\":11899:11903   */\n      dup2\n        /* \"#utility.yul\":11895:11915   */\n      sub\n        /* \"#utility.yul\":11890:11892   */\n      0x40\n        /* \"#utility.yul\":11879:11888   */\n      dup4\n        /* \"#utility.yul\":11875:11893   */\n      add\n        /* \"#utility.yul\":11868:11916   */\n      mstore\n        /* \"#utility.yul\":11933:12011   */\n      tag_372\n        /* \"#utility.yul\":12006:12010   */\n      dup2\n        /* \"#utility.yul\":11997:12003   */\n      dup7\n        /* \"#utility.yul\":11933:12011   */\n      tag_222\n      jump\t// in\n    tag_372:\n        /* \"#utility.yul\":11925:12011   */\n      swap1\n      pop\n        /* \"#utility.yul\":12058:12067   */\n      dup2\n        /* \"#utility.yul\":12052:12056   */\n      dup2\n        /* \"#utility.yul\":12048:12068   */\n      sub\n        /* \"#utility.yul\":12043:12045   */\n      0x60\n        /* \"#utility.yul\":12032:12041   */\n      dup4\n        /* \"#utility.yul\":12028:12046   */\n      add\n        /* \"#utility.yul\":12021:12069   */\n      mstore\n        /* \"#utility.yul\":12086:12164   */\n      tag_373\n        /* \"#utility.yul\":12159:12163   */\n      dup2\n        /* \"#utility.yul\":12150:12156   */\n      dup6\n        /* \"#utility.yul\":12086:12164   */\n      tag_222\n      jump\t// in\n    tag_373:\n        /* \"#utility.yul\":12078:12164   */\n      swap1\n      pop\n        /* \"#utility.yul\":12174:12241   */\n      tag_374\n        /* \"#utility.yul\":12236:12239   */\n      0x80\n        /* \"#utility.yul\":12225:12234   */\n      dup4\n        /* \"#utility.yul\":12221:12240   */\n      add\n        /* \"#utility.yul\":12212:12218   */\n      dup5\n        /* \"#utility.yul\":12174:12241   */\n      tag_224\n      jump\t// in\n    tag_374:\n        /* \"#utility.yul\":11323:12248   */\n      swap7\n      swap6\n      pop\n      pop\n      pop\n      pop\n      pop\n      pop\n      jump\t// out\n        /* \"#utility.yul\":12254:12372   */\n    tag_225:\n        /* \"#utility.yul\":12341:12365   */\n      tag_376\n        /* \"#utility.yul\":12359:12364   */\n      dup2\n        /* \"#utility.yul\":12341:12365   */\n      tag_217\n      jump\t// in\n    tag_376:\n        /* \"#utility.yul\":12336:12339   */\n      dup3\n        /* \"#utility.yul\":12329:12366   */\n      mstore\n        /* \"#utility.yul\":12254:12372   */\n      pop\n      pop\n      jump\t// out\n        /* \"#utility.yul\":12378:14131   */\n    tag_31:\n        /* \"#utility.yul\":12837:12841   */\n      0x00\n        /* \"#utility.yul\":12875:12878   */\n      0x0140\n        /* \"#utility.yul\":12864:12873   */\n      dup3\n        /* \"#utility.yul\":12860:12879   */\n      add\n        /* \"#utility.yul\":12852:12879   */\n      swap1\n      pop\n        /* \"#utility.yul\":12889:12960   */\n      tag_378\n        /* \"#utility.yul\":12957:12958   */\n      0x00\n        /* \"#utility.yul\":12946:12955   */\n      dup4\n        /* \"#utility.yul\":12942:12959   */\n      add\n        /* \"#utility.yul\":12933:12939   */\n      dup14\n        /* \"#utility.yul\":12889:12960   */\n      tag_220\n      jump\t// in\n    tag_378:\n        /* \"#utility.yul\":13007:13016   */\n      dup2\n        /* \"#utility.yul\":13001:13005   */\n      dup2\n        /* \"#utility.yul\":12997:13017   */\n      sub\n        /* \"#utility.yul\":12992:12994   */\n      0x20\n        /* \"#utility.yul\":12981:12990   */\n      dup4\n        /* \"#utility.yul\":12977:12995   */\n      add\n        /* \"#utility.yul\":12970:13018   */\n      mstore\n        /* \"#utility.yul\":13035:13113   */\n      tag_379\n        /* \"#utility.yul\":13108:13112   */\n      dup2\n        /* \"#utility.yul\":13099:13105   */\n      dup13\n        /* \"#utility.yul\":13035:13113   */\n      tag_222\n      jump\t// in\n    tag_379:\n        /* \"#utility.yul\":13027:13113   */\n      swap1\n      pop\n        /* \"#utility.yul\":13160:13169   */\n      dup2\n        /* \"#utility.yul\":13154:13158   */\n      dup2\n        /* \"#utility.yul\":13150:13170   */\n      sub\n        /* \"#utility.yul\":13145:13147   */\n      0x40\n        /* \"#utility.yul\":13134:13143   */\n      dup4\n        /* \"#utility.yul\":13130:13148   */\n      add\n        /* \"#utility.yul\":13123:13171   */\n      mstore\n        /* \"#utility.yul\":13188:13266   */\n      tag_380\n        /* \"#utility.yul\":13261:13265   */\n      dup2\n        /* \"#utility.yul\":13252:13258   */\n      dup12\n        /* \"#utility.yul\":13188:13266   */\n      tag_222\n      jump\t// in\n    tag_380:\n        /* \"#utility.yul\":13180:13266   */\n      swap1\n      pop\n        /* \"#utility.yul\":13313:13322   */\n      dup2\n        /* \"#utility.yul\":13307:13311   */\n      dup2\n        /* \"#utility.yul\":13303:13323   */\n      sub\n        /* \"#utility.yul\":13298:13300   */\n      0x60\n        /* \"#utility.yul\":13287:13296   */\n      dup4\n        /* \"#utility.yul\":13283:13301   */\n      add\n        /* \"#utility.yul\":13276:13324   */\n      mstore\n        /* \"#utility.yul\":13341:13419   */\n      tag_381\n        /* \"#utility.yul\":13414:13418   */\n      dup2\n        /* \"#utility.yul\":13405:13411   */\n      dup11\n        /* \"#utility.yul\":13341:13419   */\n      tag_222\n      jump\t// in\n    tag_381:\n        /* \"#utility.yul\":13333:13419   */\n      swap1\n      pop\n        /* \"#utility.yul\":13467:13476   */\n      dup2\n        /* \"#utility.yul\":13461:13465   */\n      dup2\n        /* \"#utility.yul\":13457:13477   */\n      sub\n        /* \"#utility.yul\":13451:13454   */\n      0x80\n        /* \"#utility.yul\":13440:13449   */\n      dup4\n        /* \"#utility.yul\":13436:13455   */\n      add\n        /* \"#utility.yul\":13429:13478   */\n      mstore\n        /* \"#utility.yul\":13495:13573   */\n      tag_382\n        /* \"#utility.yul\":13568:13572   */\n      dup2\n        /* \"#utility.yul\":13559:13565   */\n      dup10\n        /* \"#utility.yul\":13495:13573   */\n      tag_222\n      jump\t// in\n    tag_382:\n        /* \"#utility.yul\":13487:13573   */\n      swap1\n      pop\n        /* \"#utility.yul\":13621:13630   */\n      dup2\n        /* \"#utility.yul\":13615:13619   */\n      dup2\n        /* \"#utility.yul\":13611:13631   */\n      sub\n        /* \"#utility.yul\":13605:13608   */\n      0xa0\n        /* \"#utility.yul\":13594:13603   */\n      dup4\n        /* \"#utility.yul\":13590:13609   */\n      add\n        /* \"#utility.yul\":13583:13632   */\n      mstore\n        /* \"#utility.yul\":13649:13727   */\n      tag_383\n        /* \"#utility.yul\":13722:13726   */\n      dup2\n        /* \"#utility.yul\":13713:13719   */\n      dup9\n        /* \"#utility.yul\":13649:13727   */\n      tag_222\n      jump\t// in\n    tag_383:\n        /* \"#utility.yul\":13641:13727   */\n      swap1\n      pop\n        /* \"#utility.yul\":13737:13810   */\n      tag_384\n        /* \"#utility.yul\":13805:13808   */\n      0xc0\n        /* \"#utility.yul\":13794:13803   */\n      dup4\n        /* \"#utility.yul\":13790:13809   */\n      add\n        /* \"#utility.yul\":13781:13787   */\n      dup8\n        /* \"#utility.yul\":13737:13810   */\n      tag_225\n      jump\t// in\n    tag_384:\n        /* \"#utility.yul\":13820:13887   */\n      tag_385\n        /* \"#utility.yul\":13882:13885   */\n      0xe0\n        /* \"#utility.yul\":13871:13880   */\n      dup4\n        /* \"#utility.yul\":13867:13886   */\n      add\n        /* \"#utility.yul\":13858:13864   */\n      dup7\n        /* \"#utility.yul\":13820:13887   */\n      tag_224\n      jump\t// in\n    tag_385:\n        /* \"#utility.yul\":13935:13944   */\n      dup2\n        /* \"#utility.yul\":13929:13933   */\n      dup2\n        /* \"#utility.yul\":13925:13945   */\n      sub\n        /* \"#utility.yul\":13919:13922   */\n      0x0100\n        /* \"#utility.yul\":13908:13917   */\n      dup4\n        /* \"#utility.yul\":13904:13923   */\n      add\n        /* \"#utility.yul\":13897:13946   */\n      mstore\n        /* \"#utility.yul\":13963:14041   */\n      tag_386\n        /* \"#utility.yul\":14036:14040   */\n      dup2\n        /* \"#utility.yul\":14027:14033   */\n      dup6\n        /* \"#utility.yul\":13963:14041   */\n      tag_222\n      jump\t// in\n    tag_386:\n        /* \"#utility.yul\":13955:14041   */\n      swap1\n      pop\n        /* \"#utility.yul\":14051:14124   */\n      tag_387\n        /* \"#utility.yul\":14119:14122   */\n      0x0120\n        /* \"#utility.yul\":14108:14117   */\n      dup4\n        /* \"#utility.yul\":14104:14123   */\n      add\n        /* \"#utility.yul\":14095:14101   */\n      dup5\n        /* \"#utility.yul\":14051:14124   */\n      tag_220\n      jump\t// in\n    tag_387:\n        /* \"#utility.yul\":12378:14131   */\n      swap12\n      swap11\n      pop\n      pop\n      pop\n      pop\n      pop\n      pop\n      pop\n      pop\n      pop\n      pop\n      pop\n      jump\t// out\n        /* \"#utility.yul\":14137:16094   */\n    tag_34:\n        /* \"#utility.yul\":14291:14297   */\n      0x00\n        /* \"#utility.yul\":14299:14305   */\n      dup1\n        /* \"#utility.yul\":14307:14313   */\n      0x00\n        /* \"#utility.yul\":14315:14321   */\n      dup1\n        /* \"#utility.yul\":14323:14329   */\n      0x00\n        /* \"#utility.yul\":14331:14337   */\n      dup1\n        /* \"#utility.yul\":14380:14383   */\n      0xc0\n        /* \"#utility.yul\":14368:14377   */\n      dup8\n        /* \"#utility.yul\":14359:14366   */\n      dup10\n        /* \"#utility.yul\":14355:14378   */\n      sub\n        /* \"#utility.yul\":14351:14384   */\n      slt\n        /* \"#utility.yul\":14348:14468   */\n      iszero\n      tag_389\n      jumpi\n        /* \"#utility.yul\":14387:14466   */\n      tag_390\n      tag_205\n      jump\t// in\n    tag_390:\n        /* \"#utility.yul\":14348:14468   */\n    tag_389:\n        /* \"#utility.yul\":14507:14508   */\n      0x00\n        /* \"#utility.yul\":14532:14585   */\n      tag_391\n        /* \"#utility.yul\":14577:14584   */\n      dup10\n        /* \"#utility.yul\":14568:14574   */\n      dup3\n        /* \"#utility.yul\":14557:14566   */\n      dup11\n        /* \"#utility.yul\":14553:14575   */\n      add\n        /* \"#utility.yul\":14532:14585   */\n      tag_208\n      jump\t// in\n    tag_391:\n        /* \"#utility.yul\":14522:14585   */\n      swap7\n      pop\n        /* \"#utility.yul\":14478:14595   */\n      pop\n        /* \"#utility.yul\":14662:14664   */\n      0x20\n        /* \"#utility.yul\":14651:14660   */\n      dup8\n        /* \"#utility.yul\":14647:14665   */\n      add\n        /* \"#utility.yul\":14634:14666   */\n      calldataload\n        /* \"#utility.yul\":14693:14711   */\n      0xffffffffffffffff\n        /* \"#utility.yul\":14685:14691   */\n      dup2\n        /* \"#utility.yul\":14682:14712   */\n      gt\n        /* \"#utility.yul\":14679:14796   */\n      iszero\n      tag_392\n      jumpi\n        /* \"#utility.yul\":14715:14794   */\n      tag_393\n      tag_206\n      jump\t// in\n    tag_393:\n        /* \"#utility.yul\":14679:14796   */\n    tag_392:\n        /* \"#utility.yul\":14820:14883   */\n      tag_394\n        /* \"#utility.yul\":14875:14882   */\n      dup10\n        /* \"#utility.yul\":14866:14872   */\n      dup3\n        /* \"#utility.yul\":14855:14864   */\n      dup11\n        /* \"#utility.yul\":14851:14873   */\n      add\n        /* \"#utility.yul\":14820:14883   */\n      tag_216\n      jump\t// in\n    tag_394:\n        /* \"#utility.yul\":14810:14883   */\n      swap6\n      pop\n        /* \"#utility.yul\":14605:14893   */\n      pop\n        /* \"#utility.yul\":14960:14962   */\n      0x40\n        /* \"#utility.yul\":14949:14958   */\n      dup8\n        /* \"#utility.yul\":14945:14963   */\n      add\n        /* \"#utility.yul\":14932:14964   */\n      calldataload\n        /* \"#utility.yul\":14991:15009   */\n      0xffffffffffffffff\n        /* \"#utility.yul\":14983:14989   */\n      dup2\n        /* \"#utility.yul\":14980:15010   */\n      gt\n        /* \"#utility.yul\":14977:15094   */\n      iszero\n      tag_395\n      jumpi\n        /* \"#utility.yul\":15013:15092   */\n      tag_396\n      tag_206\n      jump\t// in\n    tag_396:\n        /* \"#utility.yul\":14977:15094   */\n    tag_395:\n        /* \"#utility.yul\":15118:15181   */\n      tag_397\n        /* \"#utility.yul\":15173:15180   */\n      dup10\n        /* \"#utility.yul\":15164:15170   */\n      dup3\n        /* \"#utility.yul\":15153:15162   */\n      dup11\n        /* \"#utility.yul\":15149:15171   */\n      add\n        /* \"#utility.yul\":15118:15181   */\n      tag_216\n      jump\t// in\n    tag_397:\n        /* \"#utility.yul\":15108:15181   */\n      swap5\n      pop\n        /* \"#utility.yul\":14903:15191   */\n      pop\n        /* \"#utility.yul\":15258:15260   */\n      0x60\n        /* \"#utility.yul\":15247:15256   */\n      dup8\n        /* \"#utility.yul\":15243:15261   */\n      add\n        /* \"#utility.yul\":15230:15262   */\n      calldataload\n        /* \"#utility.yul\":15289:15307   */\n      0xffffffffffffffff\n        /* \"#utility.yul\":15281:15287   */\n      dup2\n        /* \"#utility.yul\":15278:15308   */\n      gt\n        /* \"#utility.yul\":15275:15392   */\n      iszero\n      tag_398\n      jumpi\n        /* \"#utility.yul\":15311:15390   */\n      tag_399\n      tag_206\n      jump\t// in\n    tag_399:\n        /* \"#utility.yul\":15275:15392   */\n    tag_398:\n        /* \"#utility.yul\":15416:15479   */\n      tag_400\n        /* \"#utility.yul\":15471:15478   */\n      dup10\n        /* \"#utility.yul\":15462:15468   */\n      dup3\n        /* \"#utility.yul\":15451:15460   */\n      dup11\n        /* \"#utility.yul\":15447:15469   */\n      add\n        /* \"#utility.yul\":15416:15479   */\n      tag_216\n      jump\t// in\n    tag_400:\n        /* \"#utility.yul\":15406:15479   */\n      swap4\n      pop\n        /* \"#utility.yul\":15201:15489   */\n      pop\n        /* \"#utility.yul\":15556:15559   */\n      0x80\n        /* \"#utility.yul\":15545:15554   */\n      dup8\n        /* \"#utility.yul\":15541:15560   */\n      add\n        /* \"#utility.yul\":15528:15561   */\n      calldataload\n        /* \"#utility.yul\":15588:15606   */\n      0xffffffffffffffff\n        /* \"#utility.yul\":15580:15586   */\n      dup2\n        /* \"#utility.yul\":15577:15607   */\n      gt\n        /* \"#utility.yul\":15574:15691   */\n      iszero\n      tag_401\n      jumpi\n        /* \"#utility.yul\":15610:15689   */\n      tag_402\n      tag_206\n      jump\t// in\n    tag_402:\n        /* \"#utility.yul\":15574:15691   */\n    tag_401:\n        /* \"#utility.yul\":15715:15778   */\n      tag_403\n        /* \"#utility.yul\":15770:15777   */\n      dup10\n        /* \"#utility.yul\":15761:15767   */\n      dup3\n        /* \"#utility.yul\":15750:15759   */\n      dup11\n        /* \"#utility.yul\":15746:15768   */\n      add\n        /* \"#utility.yul\":15715:15778   */\n      tag_216\n      jump\t// in\n    tag_403:\n        /* \"#utility.yul\":15705:15778   */\n      swap3\n      pop\n        /* \"#utility.yul\":15499:15788   */\n      pop\n        /* \"#utility.yul\":15855:15858   */\n      0xa0\n        /* \"#utility.yul\":15844:15853   */\n      dup8\n        /* \"#utility.yul\":15840:15859   */\n      add\n        /* \"#utility.yul\":15827:15860   */\n      calldataload\n        /* \"#utility.yul\":15887:15905   */\n      0xffffffffffffffff\n        /* \"#utility.yul\":15879:15885   */\n      dup2\n        /* \"#utility.yul\":15876:15906   */\n      gt\n        /* \"#utility.yul\":15873:15990   */\n      iszero\n      tag_404\n      jumpi\n        /* \"#utility.yul\":15909:15988   */\n      tag_405\n      tag_206\n      jump\t// in\n    tag_405:\n        /* \"#utility.yul\":15873:15990   */\n    tag_404:\n        /* \"#utility.yul\":16014:16077   */\n      tag_406\n        /* \"#utility.yul\":16069:16076   */\n      dup10\n        /* \"#utility.yul\":16060:16066   */\n      dup3\n        /* \"#utility.yul\":16049:16058   */\n      dup11\n        /* \"#utility.yul\":16045:16067   */\n      add\n        /* \"#utility.yul\":16014:16077   */\n      tag_216\n      jump\t// in\n    tag_406:\n        /* \"#utility.yul\":16004:16077   */\n      swap2\n      pop\n        /* \"#utility.yul\":15798:16087   */\n      pop\n        /* \"#utility.yul\":14137:16094   */\n      swap3\n      swap6\n      pop\n      swap3\n      swap6\n      pop\n      swap3\n      swap6\n      jump\t// out\n        /* \"#utility.yul\":16100:16333   */\n    tag_226:\n        /* \"#utility.yul\":16240:16274   */\n      0x4f6e6c7920617574686f72697a656420697373756572732063616e2063616c6c\n        /* \"#utility.yul\":16236:16237   */\n      0x00\n        /* \"#utility.yul\":16228:16234   */\n      dup3\n        /* \"#utility.yul\":16224:16238   */\n      add\n        /* \"#utility.yul\":16217:16275   */\n      mstore\n        /* \"#utility.yul\":16309:16325   */\n      0x20746869732066756e6374696f6e000000000000000000000000000000000000\n        /* \"#utility.yul\":16304:16306   */\n      0x20\n        /* \"#utility.yul\":16296:16302   */\n      dup3\n        /* \"#utility.yul\":16292:16307   */\n      add\n        /* \"#utility.yul\":16285:16326   */\n      mstore\n        /* \"#utility.yul\":16100:16333   */\n      pop\n      jump\t// out\n        /* \"#utility.yul\":16339:16705   */\n    tag_227:\n        /* \"#utility.yul\":16481:16484   */\n      0x00\n        /* \"#utility.yul\":16502:16569   */\n      tag_409\n        /* \"#utility.yul\":16566:16568   */\n      0x2e\n        /* \"#utility.yul\":16561:16564   */\n      dup4\n        /* \"#utility.yul\":16502:16569   */\n      tag_221\n      jump\t// in\n    tag_409:\n        /* \"#utility.yul\":16495:16569   */\n      swap2\n      pop\n        /* \"#utility.yul\":16578:16671   */\n      tag_410\n        /* \"#utility.yul\":16667:16670   */\n      dup3\n        /* \"#utility.yul\":16578:16671   */\n      tag_226\n      jump\t// in\n    tag_410:\n        /* \"#utility.yul\":16696:16698   */\n      0x40\n        /* \"#utility.yul\":16691:16694   */\n      dup3\n        /* \"#utility.yul\":16687:16699   */\n      add\n        /* \"#utility.yul\":16680:16699   */\n      swap1\n      pop\n        /* \"#utility.yul\":16339:16705   */\n      swap2\n      swap1\n      pop\n      jump\t// out\n        /* \"#utility.yul\":16711:17130   */\n    tag_39:\n        /* \"#utility.yul\":16877:16881   */\n      0x00\n        /* \"#utility.yul\":16915:16917   */\n      0x20\n        /* \"#utility.yul\":16904:16913   */\n      dup3\n        /* \"#utility.yul\":16900:16918   */\n      add\n        /* \"#utility.yul\":16892:16918   */\n      swap1\n      pop\n        /* \"#utility.yul\":16964:16973   */\n      dup2\n        /* \"#utility.yul\":16958:16962   */\n      dup2\n        /* \"#utility.yul\":16954:16974   */\n      sub\n        /* \"#utility.yul\":16950:16951   */\n      0x00\n        /* \"#utility.yul\":16939:16948   */\n      dup4\n        /* \"#utility.yul\":16935:16952   */\n      add\n        /* \"#utility.yul\":16928:16975   */\n      mstore\n        /* \"#utility.yul\":16992:17123   */\n      tag_412\n        /* \"#utility.yul\":17118:17122   */\n      dup2\n        /* \"#utility.yul\":16992:17123   */\n      tag_227\n      jump\t// in\n    tag_412:\n        /* \"#utility.yul\":16984:17123   */\n      swap1\n      pop\n        /* \"#utility.yul\":16711:17130   */\n      swap2\n      swap1\n      pop\n      jump\t// out\n        /* \"#utility.yul\":17136:17316   */\n    tag_46:\n        /* \"#utility.yul\":17184:17261   */\n      0x4e487b7100000000000000000000000000000000000000000000000000000000\n        /* \"#utility.yul\":17181:17182   */\n      0x00\n        /* \"#utility.yul\":17174:17262   */\n      mstore\n        /* \"#utility.yul\":17281:17285   */\n      0x32\n        /* \"#utility.yul\":17278:17279   */\n      0x04\n        /* \"#utility.yul\":17271:17286   */\n      mstore\n        /* \"#utility.yul\":17305:17309   */\n      0x24\n        /* \"#utility.yul\":17302:17303   */\n      0x00\n        /* \"#utility.yul\":17295:17310   */\n      revert\n        /* \"#utility.yul\":17322:17502   */\n    tag_228:\n        /* \"#utility.yul\":17370:17447   */\n      0x4e487b7100000000000000000000000000000000000000000000000000000000\n        /* \"#utility.yul\":17367:17368   */\n      0x00\n        /* \"#utility.yul\":17360:17448   */\n      mstore\n        /* \"#utility.yul\":17467:17471   */\n      0x11\n        /* \"#utility.yul\":17464:17465   */\n      0x04\n        /* \"#utility.yul\":17457:17472   */\n      mstore\n        /* \"#utility.yul\":17491:17495   */\n      0x24\n        /* \"#utility.yul\":17488:17489   */\n      0x00\n        /* \"#utility.yul\":17481:17496   */\n      revert\n        /* \"#utility.yul\":17508:17741   */\n    tag_50:\n        /* \"#utility.yul\":17547:17550   */\n      0x00\n        /* \"#utility.yul\":17570:17594   */\n      tag_416\n        /* \"#utility.yul\":17588:17593   */\n      dup3\n        /* \"#utility.yul\":17570:17594   */\n      tag_217\n      jump\t// in\n    tag_416:\n        /* \"#utility.yul\":17561:17594   */\n      swap2\n      pop\n        /* \"#utility.yul\":17616:17682   */\n      0xffffffffffffffffffffffffffffffffffffffffffffffffffffffffffffffff\n        /* \"#utility.yul\":17609:17614   */\n      dup3\n        /* \"#utility.yul\":17606:17683   */\n      sub\n        /* \"#utility.yul\":17603:17706   */\n      tag_417\n      jumpi\n        /* \"#utility.yul\":17686:17704   */\n      tag_418\n      tag_228\n      jump\t// in\n    tag_418:\n        /* \"#utility.yul\":17603:17706   */\n    tag_417:\n        /* \"#utility.yul\":17733:17734   */\n      0x01\n        /* \"#utility.yul\":17726:17731   */\n      dup3\n        /* \"#utility.yul\":17722:17735   */\n      add\n        /* \"#utility.yul\":17715:17735   */\n      swap1\n      pop\n        /* \"#utility.yul\":17508:17741   */\n      swap2\n      swap1\n      pop\n      jump\t// out\n        /* \"#utility.yul\":17747:17927   */\n    tag_229:\n        /* \"#utility.yul\":17795:17872   */\n      0x4e487b7100000000000000000000000000000000000000000000000000000000\n        /* \"#utility.yul\":17792:17793   */\n      0x00\n        /* \"#utility.yul\":17785:17873   */\n      mstore\n        /* \"#utility.yul\":17892:17896   */\n      0x22\n        /* \"#utility.yul\":17889:17890   */\n      0x04\n        /* \"#utility.yul\":17882:17897   */\n      mstore\n        /* \"#utility.yul\":17916:17920   */\n      0x24\n        /* \"#utility.yul\":17913:17914   */\n      0x00\n        /* \"#utility.yul\":17906:17921   */\n      revert\n        /* \"#utility.yul\":17933:18253   */\n    tag_76:\n        /* \"#utility.yul\":17977:17983   */\n      0x00\n        /* \"#utility.yul\":18014:18015   */\n      0x02\n        /* \"#utility.yul\":18008:18012   */\n      dup3\n        /* \"#utility.yul\":18004:18016   */\n      div\n        /* \"#utility.yul\":17994:18016   */\n      swap1\n      pop\n        /* \"#utility.yul\":18061:18062   */\n      0x01\n        /* \"#utility.yul\":18055:18059   */\n      dup3\n        /* \"#utility.yul\":18051:18063   */\n      and\n        /* \"#utility.yul\":18082:18100   */\n      dup1\n        /* \"#utility.yul\":18072:18153   */\n      tag_421\n      jumpi\n        /* \"#utility.yul\":18138:18142   */\n      0x7f\n        /* \"#utility.yul\":18130:18136   */\n      dup3\n        /* \"#utility.yul\":18126:18143   */\n      and\n        /* \"#utility.yul\":18116:18143   */\n      swap2\n      pop\n        /* \"#utility.yul\":18072:18153   */\n    tag_421:\n        /* \"#utility.yul\":18200:18202   */\n      0x20\n        /* \"#utility.yul\":18192:18198   */\n      dup3\n        /* \"#utility.yul\":18189:18203   */\n      lt\n        /* \"#utility.yul\":18169:18187   */\n      dup2\n        /* \"#utility.yul\":18166:18204   */\n      sub\n        /* \"#utility.yul\":18163:18247   */\n      tag_422\n      jumpi\n        /* \"#utility.yul\":18219:18237   */\n      tag_423\n      tag_229\n      jump\t// in\n    tag_423:\n        /* \"#utility.yul\":18163:18247   */\n    tag_422:\n        /* \"#utility.yul\":17984:18253   */\n      pop\n        /* \"#utility.yul\":17933:18253   */\n      swap2\n      swap1\n      pop\n      jump\t// out\n        /* \"#utility.yul\":18259:18400   */\n    tag_230:\n        /* \"#utility.yul\":18308:18312   */\n      0x00\n        /* \"#utility.yul\":18331:18334   */\n      dup2\n        /* \"#utility.yul\":18323:18334   */\n      swap1\n      pop\n        /* \"#utility.yul\":18354:18357   */\n      dup2\n        /* \"#utility.yul\":18351:18352   */\n      0x00\n        /* \"#utility.yul\":18344:18358   */\n      mstore\n        /* \"#utility.yul\":18388:18392   */\n      0x20\n        /* \"#utility.yul\":18385:18386   */\n      0x00\n        /* \"#utility.yul\":18375:18393   */\n      keccak256\n        /* \"#utility.yul\":18367:18393   */\n      swap1\n      pop\n        /* \"#utility.yul\":18259:18400   */\n      swap2\n      swap1\n      pop\n      jump\t// out\n        /* \"#utility.yul\":18406:18499   */\n    tag_231:\n        /* \"#utility.yul\":18443:18449   */\n      0x00\n        /* \"#utility.yul\":18490:18492   */\n      0x20\n        /* \"#utility.yul\":18485:18487   */\n      0x1f\n        /* \"#utility.yul\":18478:18483   */\n      dup4\n        /* \"#utility.yul\":18474:18488   */\n      add\n        /* \"#utility.yul\":18470:18493   */\n      div\n        /* \"#utility.yul\":18460:18493   */\n      swap1\n      pop\n        /* \"#utility.yul\":18406:18499   */\n      swap2\n      swap1\n      pop\n      jump\t// out\n        /* \"#utility.yul\":18505:18612   */\n    tag_232:\n        /* \"#utility.yul\":18549:18557   */\n      0x00\n        /* \"#utility.yul\":18599:18604   */\n      dup3\n        /* \"#utility.yul\":18593:18597   */\n      dup3\n        /* \"#utility.yul\":18589:18605   */\n      shl\n        /* \"#utility.yul\":18568:18605   */\n      swap1\n      pop\n        /* \"#utility.yul\":18505:18612   */\n      swap3\n      swap2\n      pop\n      pop\n      jump\t// out\n        /* \"#utility.yul\":18618:19011   */\n    tag_233:\n        /* \"#utility.yul\":18687:18693   */\n      0x00\n        /* \"#utility.yul\":18737:18738   */\n      0x08\n        /* \"#utility.yul\":18725:18735   */\n      dup4\n        /* \"#utility.yul\":18721:18739   */\n      mul\n        /* \"#utility.yul\":18760:18857   */\n      tag_428\n        /* \"#utility.yul\":18790:18856   */\n      0xffffffffffffffffffffffffffffffffffffffffffffffffffffffffffffffff\n        /* \"#utility.yul\":18779:18788   */\n      dup3\n        /* \"#utility.yul\":18760:18857   */\n      tag_232\n      jump\t// in\n    tag_428:\n        /* \"#utility.yul\":18878:18917   */\n      tag_429\n        /* \"#utility.yul\":18908:18916   */\n      dup7\n        /* \"#utility.yul\":18897:18906   */\n      dup4\n        /* \"#utility.yul\":18878:18917   */\n      tag_232\n      jump\t// in\n    tag_429:\n        /* \"#utility.yul\":18866:18917   */\n      swap6\n      pop\n        /* \"#utility.yul\":18950:18954   */\n      dup1\n        /* \"#utility.yul\":18946:18955   */\n      not\n        /* \"#utility.yul\":18939:18944   */\n      dup5\n        /* \"#utility.yul\":18935:18956   */\n      and\n        /* \"#utility.yul\":18926:18956   */\n      swap4\n      pop\n        /* \"#utility.yul\":18999:19003   */\n      dup1\n        /* \"#utility.yul\":18989:18997   */\n      dup7\n        /* \"#utility.yul\":18985:19004   */\n      and\n        /* \"#utility.yul\":18978:18983   */\n      dup5\n        /* \"#utility.yul\":18975:19005   */\n      or\n        /* \"#utility.yul\":18965:19005   */\n      swap3\n      pop\n        /* \"#utility.yul\":18694:19011   */\n      pop\n      pop\n        /* \"#utility.yul\":18618:19011   */\n      swap4\n      swap3\n      pop\n      pop\n      pop\n      jump\t// out\n        /* \"#utility.yul\":19017:19077   */\n    tag_234:\n        /* \"#utility.yul\":19045:19048   */\n      0x00\n        /* \"#utility.yul\":19066:19071   */\n      dup2\n        /* \"#utility.yul\":19059:19071   */\n      swap1\n      pop\n        /* \"#utility.yul\":19017:19077   */\n      swap2\n      swap1\n      pop\n      jump\t// out\n        /* \"#utility.yul\":19083:19225   */\n    tag_235:\n        /* \"#utility.yul\":19133:19142   */\n      0x00\n        /* \"#utility.yul\":19166:19219   */\n      tag_432\n        /* \"#utility.yul\":19184:19218   */\n      tag_433\n        /* \"#utility.yul\":19193:19217   */\n      tag_434\n        /* \"#utility.yul\":19211:19216   */\n      dup5\n        /* \"#utility.yul\":19193:19217   */\n      tag_217\n      jump\t// in\n    tag_434:\n        /* \"#utility.yul\":19184:19218   */\n      tag_234\n      jump\t// in\n    tag_433:\n        /* \"#utility.yul\":19166:19219   */\n      tag_217\n      jump\t// in\n    tag_432:\n        /* \"#utility.yul\":19153:19219   */\n      swap1\n      pop\n        /* \"#utility.yul\":19083:19225   */\n      swap2\n      swap1\n      pop\n      jump\t// out\n        /* \"#utility.yul\":19231:19306   */\n    tag_236:\n        /* \"#utility.yul\":19274:19277   */\n      0x00\n        /* \"#utility.yul\":19295:19300   */\n      dup2\n        /* \"#utility.yul\":19288:19300   */\n      swap1\n      pop\n        /* \"#utility.yul\":19231:19306   */\n      swap2\n      swap1\n      pop\n      jump\t// out\n        /* \"#utility.yul\":19312:19581   */\n    tag_237:\n        /* \"#utility.yul\":19422:19461   */\n      tag_437\n        /* \"#utility.yul\":19453:19460   */\n      dup4\n        /* \"#utility.yul\":19422:19461   */\n      tag_235\n      jump\t// in\n    tag_437:\n        /* \"#utility.yul\":19483:19574   */\n      tag_438\n        /* \"#utility.yul\":19532:19573   */\n      tag_439\n        /* \"#utility.yul\":19556:19572   */\n      dup3\n        /* \"#utility.yul\":19532:19573   */\n      tag_236\n      jump\t// in\n    tag_439:\n        /* \"#utility.yul\":19524:19530   */\n      dup5\n        /* \"#utility.yul\":19517:19521   */\n      dup5\n        /* \"#utility.yul\":19511:19522   */\n      sload\n        /* \"#utility.yul\":19483:19574   */\n      tag_233\n      jump\t// in\n    tag_438:\n        /* \"#utility.yul\":19477:19481   */\n      dup3\n        /* \"#utility.yul\":19470:19575   */\n      sstore\n        /* \"#utility.yul\":19388:19581   */\n      pop\n        /* \"#utility.yul\":19312:19581   */\n      pop\n      pop\n      pop\n      jump\t// out\n        /* \"#utility.yul\":19587:19660   */\n    tag_238:\n        /* \"#utility.yul\":19632:19635   */\n      0x00\n        /* \"#utility.yul\":19587:19660   */\n      swap1\n      jump\t// out\n        /* \"#utility.yul\":19666:19855   */\n    tag_239:\n        /* \"#utility.yul\":19743:19775   */\n      tag_442\n      tag_238\n      jump\t// in\n    tag_442:\n        /* \"#utility.yul\":19784:19849   */\n      tag_443\n        /* \"#utility.yul\":19842:19848   */\n      dup2\n        /* \"#utility.yul\":19834:19840   */\n      dup5\n        /* \"#utility.yul\":19828:19832   */\n      dup5\n        /* \"#utility.yul\":19784:19849   */\n      tag_237\n      jump\t// in\n    tag_443:\n        /* \"#utility.yul\":19719:19855   */\n      pop\n        /* \"#utility.yul\":19666:19855   */\n      pop\n      pop\n      jump\t// out\n        /* \"#utility.yul\":19861:20047   */\n    tag_240:\n        /* \"#utility.yul\":19921:20041   */\n    tag_445:\n        /* \"#utility.yul\":19938:19941   */\n      dup2\n        /* \"#utility.yul\":19931:19936   */\n      dup2\n        /* \"#utility.yul\":19928:19942   */\n      lt\n        /* \"#utility.yul\":19921:20041   */\n      iszero\n      tag_447\n      jumpi\n        /* \"#utility.yul\":19992:20031   */\n      tag_448\n        /* \"#utility.yul\":20029:20030   */\n      0x00\n        /* \"#utility.yul\":20022:20027   */\n      dup3\n        /* \"#utility.yul\":19992:20031   */\n      tag_239\n      jump\t// in\n    tag_448:\n        /* \"#utility.yul\":19965:19966   */\n      0x01\n        /* \"#utility.yul\":19958:19963   */\n      dup2\n        /* \"#utility.yul\":19954:19967   */\n      add\n        /* \"#utility.yul\":19945:19967   */\n      swap1\n      pop\n        /* \"#utility.yul\":19921:20041   */\n      jump(tag_445)\n    tag_447:\n        /* \"#utility.yul\":19861:20047   */\n      pop\n      pop\n      jump\t// out\n        /* \"#utility.yul\":20053:20596   */\n    tag_241:\n        /* \"#utility.yul\":20154:20156   */\n      0x1f\n        /* \"#utility.yul\":20149:20152   */\n      dup3\n        /* \"#utility.yul\":20146:20157   */\n      gt\n        /* \"#utility.yul\":20143:20589   */\n      iszero\n      tag_450\n      jumpi\n        /* \"#utility.yul\":20188:20226   */\n      tag_451\n        /* \"#utility.yul\":20220:20225   */\n      dup2\n        /* \"#utility.yul\":20188:20226   */\n      tag_230\n      jump\t// in\n    tag_451:\n        /* \"#utility.yul\":20272:20301   */\n      tag_452\n        /* \"#utility.yul\":20290:20300   */\n      dup5\n        /* \"#utility.yul\":20272:20301   */\n      tag_231\n      jump\t// in\n    tag_452:\n        /* \"#utility.yul\":20262:20270   */\n      dup2\n        /* \"#utility.yul\":20258:20302   */\n      add\n        /* \"#utility.yul\":20455:20457   */\n      0x20\n        /* \"#utility.yul\":20443:20453   */\n      dup6\n        /* \"#utility.yul\":20440:20458   */\n      lt\n        /* \"#utility.yul\":20437:20486   */\n      iszero\n      tag_453\n      jumpi\n        /* \"#utility.yul\":20476:20484   */\n      dup2\n        /* \"#utility.yul\":20461:20484   */\n      swap1\n      pop\n        /* \"#utility.yul\":20437:20486   */\n    tag_453:\n        /* \"#utility.yul\":20499:20579   */\n      tag_454\n        /* \"#utility.yul\":20555:20577   */\n      tag_455\n        /* \"#utility.yul\":20573:20576   */\n      dup6\n        /* \"#utility.yul\":20555:20577   */\n      tag_231\n      jump\t// in\n    tag_455:\n        /* \"#utility.yul\":20545:20553   */\n      dup4\n        /* \"#utility.yul\":20541:20578   */\n      add\n        /* \"#utility.yul\":20528:20539   */\n      dup3\n        /* \"#utility.yul\":20499:20579   */\n      tag_240\n      jump\t// in\n    tag_454:\n        /* \"#utility.yul\":20158:20589   */\n      pop\n      pop\n        /* \"#utility.yul\":20143:20589   */\n    tag_450:\n        /* \"#utility.yul\":20053:20596   */\n      pop\n      pop\n      pop\n      jump\t// out\n        /* \"#utility.yul\":20602:20719   */\n    tag_242:\n        /* \"#utility.yul\":20656:20664   */\n      0x00\n        /* \"#utility.yul\":20706:20711   */\n      dup3\n        /* \"#utility.yul\":20700:20704   */\n      dup3\n        /* \"#utility.yul\":20696:20712   */\n      shr\n        /* \"#utility.yul\":20675:20712   */\n      swap1\n      pop\n        /* \"#utility.yul\":20602:20719   */\n      swap3\n      swap2\n      pop\n      pop\n      jump\t// out\n        /* \"#utility.yul\":20725:20894   */\n    tag_243:\n        /* \"#utility.yul\":20769:20775   */\n      0x00\n        /* \"#utility.yul\":20802:20853   */\n      tag_458\n        /* \"#utility.yul\":20850:20851   */\n      0x00\n        /* \"#utility.yul\":20846:20852   */\n      not\n        /* \"#utility.yul\":20838:20843   */\n      dup5\n        /* \"#utility.yul\":20835:20836   */\n      0x08\n        /* \"#utility.yul\":20831:20844   */\n      mul\n        /* \"#utility.yul\":20802:20853   */\n      tag_242\n      jump\t// in\n    tag_458:\n        /* \"#utility.yul\":20798:20854   */\n      not\n        /* \"#utility.yul\":20883:20887   */\n      dup1\n        /* \"#utility.yul\":20877:20881   */\n      dup4\n        /* \"#utility.yul\":20873:20888   */\n      and\n        /* \"#utility.yul\":20863:20888   */\n      swap2\n      pop\n        /* \"#utility.yul\":20776:20894   */\n      pop\n        /* \"#utility.yul\":20725:20894   */\n      swap3\n      swap2\n      pop\n      pop\n      jump\t// out\n        /* \"#utility.yul\":20899:21194   */\n    tag_244:\n        /* \"#utility.yul\":20975:20979   */\n      0x00\n        /* \"#utility.yul\":21121:21150   */\n      tag_460\n        /* \"#utility.yul\":21146:21149   */\n      dup4\n        /* \"#utility.yul\":21140:21144   */\n      dup4\n        /* \"#utility.yul\":21121:21150   */\n      tag_243\n      jump\t// in\n    tag_460:\n        /* \"#utility.yul\":21113:21150   */\n      swap2\n      pop\n        /* \"#utility.yul\":21183:21186   */\n      dup3\n        /* \"#utility.yul\":21180:21181   */\n      0x02\n        /* \"#utility.yul\":21176:21187   */\n      mul\n        /* \"#utility.yul\":21170:21174   */\n      dup3\n        /* \"#utility.yul\":21167:21188   */\n      or\n        /* \"#utility.yul\":21159:21188   */\n      swap1\n      pop\n        /* \"#utility.yul\":20899:21194   */\n      swap3\n      swap2\n      pop\n      pop\n      jump\t// out\n        /* \"#utility.yul\":21199:22594   */\n    tag_90:\n        /* \"#utility.yul\":21316:21353   */\n      tag_462\n        /* \"#utility.yul\":21349:21352   */\n      dup3\n        /* \"#utility.yul\":21316:21353   */\n      tag_196\n      jump\t// in\n    tag_462:\n        /* \"#utility.yul\":21418:21436   */\n      0xffffffffffffffff\n        /* \"#utility.yul\":21410:21416   */\n      dup2\n        /* \"#utility.yul\":21407:21437   */\n      gt\n        /* \"#utility.yul\":21404:21460   */\n      iszero\n      tag_463\n      jumpi\n        /* \"#utility.yul\":21440:21458   */\n      tag_464\n      tag_54\n      jump\t// in\n    tag_464:\n        /* \"#utility.yul\":21404:21460   */\n    tag_463:\n        /* \"#utility.yul\":21484:21522   */\n      tag_465\n        /* \"#utility.yul\":21516:21520   */\n      dup3\n        /* \"#utility.yul\":21510:21521   */\n      sload\n        /* \"#utility.yul\":21484:21522   */\n      tag_76\n      jump\t// in\n    tag_465:\n        /* \"#utility.yul\":21569:21636   */\n      tag_466\n        /* \"#utility.yul\":21629:21635   */\n      dup3\n        /* \"#utility.yul\":21621:21627   */\n      dup3\n        /* \"#utility.yul\":21615:21619   */\n      dup6\n        /* \"#utility.yul\":21569:21636   */\n      tag_241\n      jump\t// in\n    tag_466:\n        /* \"#utility.yul\":21663:21664   */\n      0x00\n        /* \"#utility.yul\":21687:21691   */\n      0x20\n        /* \"#utility.yul\":21674:21691   */\n      swap1\n      pop\n        /* \"#utility.yul\":21719:21721   */\n      0x1f\n        /* \"#utility.yul\":21711:21717   */\n      dup4\n        /* \"#utility.yul\":21708:21722   */\n      gt\n        /* \"#utility.yul\":21736:21737   */\n      0x01\n        /* \"#utility.yul\":21731:22349   */\n      dup2\n      eq\n      tag_468\n      jumpi\n        /* \"#utility.yul\":22393:22394   */\n      0x00\n        /* \"#utility.yul\":22410:22416   */\n      dup5\n        /* \"#utility.yul\":22407:22484   */\n      iszero\n      tag_469\n      jumpi\n        /* \"#utility.yul\":22459:22468   */\n      dup3\n        /* \"#utility.yul\":22454:22457   */\n      dup8\n        /* \"#utility.yul\":22450:22469   */\n      add\n        /* \"#utility.yul\":22444:22470   */\n      mload\n        /* \"#utility.yul\":22435:22470   */\n      swap1\n      pop\n        /* \"#utility.yul\":22407:22484   */\n    tag_469:\n        /* \"#utility.yul\":22510:22577   */\n      tag_470\n        /* \"#utility.yul\":22570:22576   */\n      dup6\n        /* \"#utility.yul\":22563:22568   */\n      dup3\n        /* \"#utility.yul\":22510:22577   */\n      tag_244\n      jump\t// in\n    tag_470:\n        /* \"#utility.yul\":22504:22508   */\n      dup7\n        /* \"#utility.yul\":22497:22578   */\n      sstore\n        /* \"#utility.yul\":22366:22588   */\n      pop\n        /* \"#utility.yul\":21701:22588   */\n      jump(tag_467)\n        /* \"#utility.yul\":21731:22349   */\n    tag_468:\n        /* \"#utility.yul\":21783:21787   */\n      0x1f\n        /* \"#utility.yul\":21779:21788   */\n      not\n        /* \"#utility.yul\":21771:21777   */\n      dup5\n        /* \"#utility.yul\":21767:21789   */\n      and\n        /* \"#utility.yul\":21817:21854   */\n      tag_471\n        /* \"#utility.yul\":21849:21853   */\n      dup7\n        /* \"#utility.yul\":21817:21854   */\n      tag_230\n      jump\t// in\n    tag_471:\n        /* \"#utility.yul\":21876:21877   */\n      0x00\n        /* \"#utility.yul\":21890:22098   */\n    tag_472:\n        /* \"#utility.yul\":21904:21911   */\n      dup3\n        /* \"#utility.yul\":21901:21902   */\n      dup2\n        /* \"#utility.yul\":21898:21912   */\n      lt\n        /* \"#utility.yul\":21890:22098   */\n      iszero\n      tag_474\n      jumpi\n        /* \"#utility.yul\":21983:21992   */\n      dup5\n        /* \"#utility.yul\":21978:21981   */\n      dup10\n        /* \"#utility.yul\":21974:21993   */\n      add\n        /* \"#utility.yul\":21968:21994   */\n      mload\n        /* \"#utility.yul\":21960:21966   */\n      dup3\n        /* \"#utility.yul\":21953:21995   */\n      sstore\n        /* \"#utility.yul\":22034:22035   */\n      0x01\n        /* \"#utility.yul\":22026:22032   */\n      dup3\n        /* \"#utility.yul\":22022:22036   */\n      add\n        /* \"#utility.yul\":22012:22036   */\n      swap2\n      pop\n        /* \"#utility.yul\":22081:22083   */\n      0x20\n        /* \"#utility.yul\":22070:22079   */\n      dup6\n        /* \"#utility.yul\":22066:22084   */\n      add\n        /* \"#utility.yul\":22053:22084   */\n      swap5\n      pop\n        /* \"#utility.yul\":21927:21931   */\n      0x20\n        /* \"#utility.yul\":21924:21925   */\n      dup2\n        /* \"#utility.yul\":21920:21932   */\n      add\n        /* \"#utility.yul\":21915:21932   */\n      swap1\n      pop\n        /* \"#utility.yul\":21890:22098   */\n      jump(tag_472)\n    tag_474:\n        /* \"#utility.yul\":22126:22132   */\n      dup7\n        /* \"#utility.yul\":22117:22124   */\n      dup4\n        /* \"#utility.yul\":22114:22133   */\n      lt\n        /* \"#utility.yul\":22111:22290   */\n      iszero\n      tag_475\n      jumpi\n        /* \"#utility.yul\":22184:22193   */\n      dup5\n        /* \"#utility.yul\":22179:22182   */\n      dup10\n        /* \"#utility.yul\":22175:22194   */\n      add\n        /* \"#utility.yul\":22169:22195   */\n      mload\n        /* \"#utility.yul\":22227:22275   */\n      tag_476\n        /* \"#utility.yul\":22269:22273   */\n      0x1f\n        /* \"#utility.yul\":22261:22267   */\n      dup10\n        /* \"#utility.yul\":22257:22274   */\n      and\n        /* \"#utility.yul\":22246:22255   */\n      dup3\n        /* \"#utility.yul\":22227:22275   */\n      tag_243\n      jump\t// in\n    tag_476:\n        /* \"#utility.yul\":22219:22225   */\n      dup4\n        /* \"#utility.yul\":22212:22276   */\n      sstore\n        /* \"#utility.yul\":22134:22290   */\n      pop\n        /* \"#utility.yul\":22111:22290   */\n    tag_475:\n        /* \"#utility.yul\":22336:22337   */\n      0x01\n        /* \"#utility.yul\":22332:22333   */\n      0x02\n        /* \"#utility.yul\":22324:22330   */\n      dup9\n        /* \"#utility.yul\":22320:22334   */\n      mul\n        /* \"#utility.yul\":22316:22338   */\n      add\n        /* \"#utility.yul\":22310:22314   */\n      dup9\n        /* \"#utility.yul\":22303:22339   */\n      sstore\n        /* \"#utility.yul\":21738:22349   */\n      pop\n      pop\n      pop\n        /* \"#utility.yul\":21701:22588   */\n    tag_467:\n      pop\n        /* \"#utility.yul\":21291:22594   */\n      pop\n      pop\n      pop\n        /* \"#utility.yul\":21199:22594   */\n      pop\n      pop\n      jump\t// out\n        /* \"#utility.yul\":22600:22753   */\n    tag_245:\n        /* \"#utility.yul\":22653:22659   */\n      0x00\n        /* \"#utility.yul\":22687:22692   */\n      dup2\n        /* \"#utility.yul\":22681:22693   */\n      sload\n        /* \"#utility.yul\":22671:22693   */\n      swap1\n      pop\n        /* \"#utility.yul\":22713:22746   */\n      tag_478\n        /* \"#utility.yul\":22739:22745   */\n      dup2\n        /* \"#utility.yul\":22713:22746   */\n      tag_76\n      jump\t// in\n    tag_478:\n        /* \"#utility.yul\":22703:22746   */\n      swap1\n      pop\n        /* \"#utility.yul\":22600:22753   */\n      swap2\n      swap1\n      pop\n      jump\t// out\n        /* \"#utility.yul\":22759:22904   */\n    tag_246:\n        /* \"#utility.yul\":22812:22816   */\n      0x00\n        /* \"#utility.yul\":22835:22838   */\n      dup2\n        /* \"#utility.yul\":22827:22838   */\n      swap1\n      pop\n        /* \"#utility.yul\":22858:22861   */\n      dup2\n        /* \"#utility.yul\":22855:22856   */\n      0x00\n        /* \"#utility.yul\":22848:22862   */\n      mstore\n        /* \"#utility.yul\":22892:22896   */\n      0x20\n        /* \"#utility.yul\":22889:22890   */\n      0x00\n        /* \"#utility.yul\":22879:22897   */\n      keccak256\n        /* \"#utility.yul\":22871:22897   */\n      swap1\n      pop\n        /* \"#utility.yul\":22759:22904   */\n      swap2\n      swap1\n      pop\n      jump\t// out\n        /* \"#utility.yul\":22910:24373   */\n    tag_171:\n        /* \"#utility.yul\":23025:23028   */\n      dup2\n        /* \"#utility.yul\":23019:23023   */\n      dup2\n        /* \"#utility.yul\":23016:23029   */\n      sub\n        /* \"#utility.yul\":23013:23039   */\n      tag_481\n      jumpi\n        /* \"#utility.yul\":23032:23037   */\n      pop\n      pop\n      jump(tag_480)\n        /* \"#utility.yul\":23013:23039   */\n    tag_481:\n        /* \"#utility.yul\":23063:23101   */\n      tag_482\n        /* \"#utility.yul\":23097:23100   */\n      dup3\n        /* \"#utility.yul\":23063:23101   */\n      tag_245\n      jump\t// in\n    tag_482:\n        /* \"#utility.yul\":23166:23184   */\n      0xffffffffffffffff\n        /* \"#utility.yul\":23158:23164   */\n      dup2\n        /* \"#utility.yul\":23155:23185   */\n      gt\n        /* \"#utility.yul\":23152:23208   */\n      iszero\n      tag_483\n      jumpi\n        /* \"#utility.yul\":23188:23206   */\n      tag_484\n      tag_54\n      jump\t// in\n    tag_484:\n        /* \"#utility.yul\":23152:23208   */\n    tag_483:\n        /* \"#utility.yul\":23232:23270   */\n      tag_485\n        /* \"#utility.yul\":23264:23268   */\n      dup3\n        /* \"#utility.yul\":23258:23269   */\n      sload\n        /* \"#utility.yul\":23232:23270   */\n      tag_76\n      jump\t// in\n    tag_485:\n        /* \"#utility.yul\":23317:23384   */\n      tag_486\n        /* \"#utility.yul\":23377:23383   */\n      dup3\n        /* \"#utility.yul\":23369:23375   */\n      dup3\n        /* \"#utility.yul\":23363:23367   */\n      dup6\n        /* \"#utility.yul\":23317:23384   */\n      tag_241\n      jump\t// in\n    tag_486:\n        /* \"#utility.yul\":23411:23412   */\n      0x00\n        /* \"#utility.yul\":23440:23442   */\n      0x1f\n        /* \"#utility.yul\":23432:23438   */\n      dup4\n        /* \"#utility.yul\":23429:23443   */\n      gt\n        /* \"#utility.yul\":23457:23458   */\n      0x01\n        /* \"#utility.yul\":23452:24128   */\n      dup2\n      eq\n      tag_488\n      jumpi\n        /* \"#utility.yul\":24172:24173   */\n      0x00\n        /* \"#utility.yul\":24189:24195   */\n      dup5\n        /* \"#utility.yul\":24186:24263   */\n      iszero\n      tag_489\n      jumpi\n        /* \"#utility.yul\":24238:24247   */\n      dup3\n        /* \"#utility.yul\":24233:24236   */\n      dup8\n        /* \"#utility.yul\":24229:24248   */\n      add\n        /* \"#utility.yul\":24223:24249   */\n      sload\n        /* \"#utility.yul\":24214:24249   */\n      swap1\n      pop\n        /* \"#utility.yul\":24186:24263   */\n    tag_489:\n        /* \"#utility.yul\":24289:24356   */\n      tag_490\n        /* \"#utility.yul\":24349:24355   */\n      dup6\n        /* \"#utility.yul\":24342:24347   */\n      dup3\n        /* \"#utility.yul\":24289:24356   */\n      tag_244\n      jump\t// in\n    tag_490:\n        /* \"#utility.yul\":24283:24287   */\n      dup7\n        /* \"#utility.yul\":24276:24357   */\n      sstore\n        /* \"#utility.yul\":24145:24367   */\n      pop\n        /* \"#utility.yul\":23422:24367   */\n      jump(tag_487)\n        /* \"#utility.yul\":23452:24128   */\n    tag_488:\n        /* \"#utility.yul\":23504:23508   */\n      0x1f\n        /* \"#utility.yul\":23500:23509   */\n      not\n        /* \"#utility.yul\":23492:23498   */\n      dup5\n        /* \"#utility.yul\":23488:23510   */\n      and\n        /* \"#utility.yul\":23530:23570   */\n      tag_491\n        /* \"#utility.yul\":23566:23569   */\n      dup8\n        /* \"#utility.yul\":23530:23570   */\n      tag_246\n      jump\t// in\n    tag_491:\n        /* \"#utility.yul\":23523:23570   */\n      swap7\n      pop\n        /* \"#utility.yul\":23597:23634   */\n      tag_492\n        /* \"#utility.yul\":23629:23633   */\n      dup7\n        /* \"#utility.yul\":23597:23634   */\n      tag_230\n      jump\t// in\n    tag_492:\n        /* \"#utility.yul\":23656:23657   */\n      0x00\n        /* \"#utility.yul\":23670:23877   */\n    tag_493:\n        /* \"#utility.yul\":23684:23691   */\n      dup3\n        /* \"#utility.yul\":23681:23682   */\n      dup2\n        /* \"#utility.yul\":23678:23692   */\n      lt\n        /* \"#utility.yul\":23670:23877   */\n      iszero\n      tag_495\n      jumpi\n        /* \"#utility.yul\":23763:23772   */\n      dup5\n        /* \"#utility.yul\":23758:23761   */\n      dup10\n        /* \"#utility.yul\":23754:23773   */\n      add\n        /* \"#utility.yul\":23748:23774   */\n      sload\n        /* \"#utility.yul\":23740:23746   */\n      dup3\n        /* \"#utility.yul\":23733:23775   */\n      sstore\n        /* \"#utility.yul\":23814:23815   */\n      0x01\n        /* \"#utility.yul\":23806:23812   */\n      dup3\n        /* \"#utility.yul\":23802:23816   */\n      add\n        /* \"#utility.yul\":23792:23816   */\n      swap2\n      pop\n        /* \"#utility.yul\":23861:23862   */\n      0x01\n        /* \"#utility.yul\":23850:23859   */\n      dup6\n        /* \"#utility.yul\":23846:23863   */\n      add\n        /* \"#utility.yul\":23833:23863   */\n      swap5\n      pop\n        /* \"#utility.yul\":23707:23711   */\n      0x20\n        /* \"#utility.yul\":23704:23705   */\n      dup2\n        /* \"#utility.yul\":23700:23712   */\n      add\n        /* \"#utility.yul\":23695:23712   */\n      swap1\n      pop\n        /* \"#utility.yul\":23670:23877   */\n      jump(tag_493)\n    tag_495:\n        /* \"#utility.yul\":23905:23911   */\n      dup7\n        /* \"#utility.yul\":23896:23903   */\n      dup4\n        /* \"#utility.yul\":23893:23912   */\n      lt\n        /* \"#utility.yul\":23890:24069   */\n      iszero\n      tag_496\n      jumpi\n        /* \"#utility.yul\":23963:23972   */\n      dup5\n        /* \"#utility.yul\":23958:23961   */\n      dup10\n        /* \"#utility.yul\":23954:23973   */\n      add\n        /* \"#utility.yul\":23948:23974   */\n      sload\n        /* \"#utility.yul\":24006:24054   */\n      tag_497\n        /* \"#utility.yul\":24048:24052   */\n      0x1f\n        /* \"#utility.yul\":24040:24046   */\n      dup10\n        /* \"#utility.yul\":24036:24053   */\n      and\n        /* \"#utility.yul\":24025:24034   */\n      dup3\n        /* \"#utility.yul\":24006:24054   */\n      tag_243\n      jump\t// in\n    tag_497:\n        /* \"#utility.yul\":23998:24004   */\n      dup4\n        /* \"#utility.yul\":23991:24055   */\n      sstore\n        /* \"#utility.yul\":23913:24069   */\n      pop\n        /* \"#utility.yul\":23890:24069   */\n    tag_496:\n        /* \"#utility.yul\":24115:24116   */\n      0x01\n        /* \"#utility.yul\":24111:24112   */\n      0x02\n        /* \"#utility.yul\":24103:24109   */\n      dup9\n        /* \"#utility.yul\":24099:24113   */\n      mul\n        /* \"#utility.yul\":24095:24117   */\n      add\n        /* \"#utility.yul\":24089:24093   */\n      dup9\n        /* \"#utility.yul\":24082:24118   */\n      sstore\n        /* \"#utility.yul\":23459:24128   */\n      pop\n      pop\n      pop\n        /* \"#utility.yul\":23422:24367   */\n    tag_487:\n      pop\n        /* \"#utility.yul\":23003:24373   */\n      pop\n      pop\n      pop\n        /* \"#utility.yul\":22910:24373   */\n      pop\n      pop\n    tag_480:\n      jump\t// out\n\n    auxdata: 0xa2646970667358221220e685a6ec2f67618a720110eb68ffeec234ecd9c6bab9a24b764793e61289abe064736f6c63430008120033\n}\n",
				"bytecode": {
					"linkReferences": {},
					"object": "608060405234801561001057600080fd5b506001600260003373ffffffffffffffffffffffffffffffffffffffff1673ffffffffffffffffffffffffffffffffffffffff16815260200190815260200160002060006101000a81548160ff0219169083151502179055506121e6806100786000396000f3fe608060405234801561001057600080fd5b50600436106100625760003560e01c806302a3eb091461006757806303825d6c146100865780635f893bfa146100a257806370f9ff87146100be578063abafef87146100f2578063de8c98fd1461012b575b600080fd5b61006f610147565b60405161007d9291906116c6565b60405180910390f35b6100a0600480360381019061009b9190611872565b6104ba565b005b6100bc60048036038101906100b7919061192d565b610794565b005b6100d860048036038101906100d39190611990565b610963565b6040516100e9959493929190611a31565b60405180910390f35b61010c60048036038101906101079190611990565b610b6e565b6040516101229a99989796959493929190611aa8565b60405180910390f35b61014560048036038101906101409190611b6e565b610f4f565b005b606080600260003373ffffffffffffffffffffffffffffffffffffffff1673ffffffffffffffffffffffffffffffffffffffff16815260200190815260200160002060009054906101000a900460ff166101d6576040517f08c379a00000000000000000000000000000000000000000000000000000000081526004016101cd90611cf9565b60405180910390fd5b6000805b60008054905081101561024157600081815481106101fb576101fa611d19565b5b90600052602060002090600a020160070160009054906101000a900460ff161561022e57818061022a90611d77565b9250505b808061023990611d77565b9150506101da565b5060008167ffffffffffffffff81111561025e5761025d611747565b5b60405190808252806020026020018201604052801561028c5781602001602082028036833780820191505090505b50905060008267ffffffffffffffff8111156102ab576102aa611747565b5b6040519080825280602002602001820160405280156102de57816020015b60608152602001906001900390816102c95790505b5090506000805b6000805490508110156104ab576000818154811061030657610305611d19565b5b90600052602060002090600a020160070160009054906101000a900460ff1615610498576000818154811061033e5761033d611d19565b5b90600052602060002090600a020160000160009054906101000a900473ffffffffffffffffffffffffffffffffffffffff1684838151811061038357610382611d19565b5b602002602001019073ffffffffffffffffffffffffffffffffffffffff16908173ffffffffffffffffffffffffffffffffffffffff1681525050600081815481106103d1576103d0611d19565b5b90600052602060002090600a020160030180546103ed90611dee565b80601f016020809104026020016040519081016040528092919081815260200182805461041990611dee565b80156104665780601f1061043b57610100808354040283529160200191610466565b820191906000526020600020905b81548152906001019060200180831161044957829003601f168201915b505050505083838151811061047e5761047d611d19565b5b6020026020010181905250818061049490611d77565b9250505b80806104a390611d77565b9150506102e5565b50828295509550505050509091565b600260003373ffffffffffffffffffffffffffffffffffffffff1673ffffffffffffffffffffffffffffffffffffffff16815260200190815260200160002060009054906101000a900460ff16610546576040517f08c379a000000000000000000000000000000000000000000000000000000000815260040161053d90611cf9565b60405180910390fd5b6001600260008673ffffffffffffffffffffffffffffffffffffffff1673ffffffffffffffffffffffffffffffffffffffff16815260200190815260200160002060006101000a81548160ff0219169083151502179055506000600660008673ffffffffffffffffffffffffffffffffffffffff1673ffffffffffffffffffffffffffffffffffffffff1681526020019081526020016000209050848160000160006101000a81548173ffffffffffffffffffffffffffffffffffffffff021916908373ffffffffffffffffffffffffffffffffffffffff160217905550838160010190816106359190611fcb565b50828160020190816106479190611fcb565b50818160030190816106599190611fcb565b5060018160040160006101000a81548160ff02191690831515021790555060016040518060a001604052808773ffffffffffffffffffffffffffffffffffffffff16815260200186815260200185815260200184815260200160011515815250908060018154018082558091505060019003906000526020600020906005020160009091909190915060008201518160000160006101000a81548173ffffffffffffffffffffffffffffffffffffffff021916908373ffffffffffffffffffffffffffffffffffffffff160217905550602082015181600101908161073e9190611fcb565b5060408201518160020190816107549190611fcb565b50606082015181600301908161076a9190611fcb565b5060808201518160040160006101000a81548160ff02191690831515021790555050505050505050565b600260003373ffffffffffffffffffffffffffffffffffffffff1673ffffffffffffffffffffffffffffffffffffffff16815260200190815260200160002060009054906101000a900460ff16610820576040517f08c379a000000000000000000000000000000000000000000000000000000000815260040161081790611cf9565b60405180910390fd5b6000600560008373ffffffffffffffffffffffffffffffffffffffff1673ffffffffffffffffffffffffffffffffffffffff168152602001908152602001600020905060018160070160006101000a81548160ff02191690831515021790555060005b60008054905081101561095e578273ffffffffffffffffffffffffffffffffffffffff16600082815481106108bb576108ba611d19565b5b90600052602060002090600a020160000160009054906101000a900473ffffffffffffffffffffffffffffffffffffffff1673ffffffffffffffffffffffffffffffffffffffff160361094b5760016000828154811061091e5761091d611d19565b5b90600052602060002090600a020160070160006101000a81548160ff02191690831515021790555061095e565b808061095690611d77565b915050610883565b505050565b6001818154811061097357600080fd5b90600052602060002090600502016000915090508060000160009054906101000a900473ffffffffffffffffffffffffffffffffffffffff16908060010180546109bc90611dee565b80601f01602080910402602001604051908101604052809291908181526020018280546109e890611dee565b8015610a355780601f10610a0a57610100808354040283529160200191610a35565b820191906000526020600020905b815481529060010190602001808311610a1857829003601f168201915b505050505090806002018054610a4a90611dee565b80601f0160208091040260200160405190810160405280929190818152602001828054610a7690611dee565b8015610ac35780601f10610a9857610100808354040283529160200191610ac3565b820191906000526020600020905b815481529060010190602001808311610aa657829003601f168201915b505050505090806003018054610ad890611dee565b80601f0160208091040260200160405190810160405280929190818152602001828054610b0490611dee565b8015610b515780601f10610b2657610100808354040283529160200191610b51565b820191906000526020600020905b815481529060010190602001808311610b3457829003601f168201915b5050505050908060040160009054906101000a900460ff16905085565b60008181548110610b7e57600080fd5b90600052602060002090600a02016000915090508060000160009054906101000a900473ffffffffffffffffffffffffffffffffffffffff1690806001018054610bc790611dee565b80601f0160208091040260200160405190810160405280929190818152602001828054610bf390611dee565b8015610c405780601f10610c1557610100808354040283529160200191610c40565b820191906000526020600020905b815481529060010190602001808311610c2357829003601f168201915b505050505090806002018054610c5590611dee565b80601f0160208091040260200160405190810160405280929190818152602001828054610c8190611dee565b8015610cce5780601f10610ca357610100808354040283529160200191610cce565b820191906000526020600020905b815481529060010190602001808311610cb157829003601f168201915b505050505090806003018054610ce390611dee565b80601f0160208091040260200160405190810160405280929190818152602001828054610d0f90611dee565b8015610d5c5780601f10610d3157610100808354040283529160200191610d5c565b820191906000526020600020905b815481529060010190602001808311610d3f57829003601f168201915b505050505090806004018054610d7190611dee565b80601f0160208091040260200160405190810160405280929190818152602001828054610d9d90611dee565b8015610dea5780601f10610dbf57610100808354040283529160200191610dea565b820191906000526020600020905b815481529060010190602001808311610dcd57829003601f168201915b505050505090806005018054610dff90611dee565b80601f0160208091040260200160405190810160405280929190818152602001828054610e2b90611dee565b8015610e785780601f10610e4d57610100808354040283529160200191610e78565b820191906000526020600020905b815481529060010190602001808311610e5b57829003601f168201915b5050505050908060060154908060070160009054906101000a900460ff1690806008018054610ea690611dee565b80601f0160208091040260200160405190810160405280929190818152602001828054610ed290611dee565b8015610f1f5780601f10610ef457610100808354040283529160200191610f1f565b820191906000526020600020905b815481529060010190602001808311610f0257829003601f168201915b5050505050908060090160009054906101000a900473ffffffffffffffffffffffffffffffffffffffff1690508a565b600260003373ffffffffffffffffffffffffffffffffffffffff1673ffffffffffffffffffffffffffffffffffffffff16815260200190815260200160002060009054906101000a900460ff16610fdb576040517f08c379a0000000000000000000000000000000000000000000000000000000008152600401610fd290611cf9565b60405180910390fd5b6001600460008873ffffffffffffffffffffffffffffffffffffffff1673ffffffffffffffffffffffffffffffffffffffff16815260200190815260200160002060006101000a81548160ff0219169083151502179055506000600560008873ffffffffffffffffffffffffffffffffffffffff1673ffffffffffffffffffffffffffffffffffffffff1681526020019081526020016000209050868160000160006101000a81548173ffffffffffffffffffffffffffffffffffffffff021916908373ffffffffffffffffffffffffffffffffffffffff160217905550858160010190816110ca9190611fcb565b50848160020190816110dc9190611fcb565b50838160030190816110ee9190611fcb565b50828160040190816111009190611fcb565b50818160050190816111129190611fcb565b506000816006018190555060008160070160006101000a81548160ff021916908315150217905550338160090160006101000a81548173ffffffffffffffffffffffffffffffffffffffff021916908373ffffffffffffffffffffffffffffffffffffffff160217905550600660003373ffffffffffffffffffffffffffffffffffffffff1673ffffffffffffffffffffffffffffffffffffffff1681526020019081526020016000206001018160080190816111cf91906120c8565b5060006040518061014001604052808973ffffffffffffffffffffffffffffffffffffffff16815260200188815260200187815260200186815260200185815260200184815260200160008152602001600015158152602001600660003373ffffffffffffffffffffffffffffffffffffffff1673ffffffffffffffffffffffffffffffffffffffff168152602001908152602001600020600101805461127590611dee565b80601f01602080910402602001604051908101604052809291908181526020018280546112a190611dee565b80156112ee5780601f106112c3576101008083540402835291602001916112ee565b820191906000526020600020905b8154815290600101906020018083116112d157829003601f168201915b505050505081526020013373ffffffffffffffffffffffffffffffffffffffff1681525090806001815401808255809150506001900390600052602060002090600a020160009091909190915060008201518160000160006101000a81548173ffffffffffffffffffffffffffffffffffffffff021916908373ffffffffffffffffffffffffffffffffffffffff16021790555060208201518160010190816113979190611fcb565b5060408201518160020190816113ad9190611fcb565b5060608201518160030190816113c39190611fcb565b5060808201518160040190816113d99190611fcb565b5060a08201518160050190816113ef9190611fcb565b5060c0820151816006015560e08201518160070160006101000a81548160ff0219169083151502179055506101008201518160080190816114309190611fcb565b506101208201518160090160006101000a81548173ffffffffffffffffffffffffffffffffffffffff021916908373ffffffffffffffffffffffffffffffffffffffff160217905550505050505050505050565b600081519050919050565b600082825260208201905092915050565b6000819050602082019050919050565b600073ffffffffffffffffffffffffffffffffffffffff82169050919050565b60006114db826114b0565b9050919050565b6114eb816114d0565b82525050565b60006114fd83836114e2565b60208301905092915050565b6000602082019050919050565b600061152182611484565b61152b818561148f565b9350611536836114a0565b8060005b8381101561156757815161154e88826114f1565b975061155983611509565b92505060018101905061153a565b5085935050505092915050565b600081519050919050565b600082825260208201905092915050565b6000819050602082019050919050565b600081519050919050565b600082825260208201905092915050565b60005b838110156115da5780820151818401526020810190506115bf565b60008484015250505050565b6000601f19601f8301169050919050565b6000611602826115a0565b61160c81856115ab565b935061161c8185602086016115bc565b611625816115e6565b840191505092915050565b600061163c83836115f7565b905092915050565b6000602082019050919050565b600061165c82611574565b611666818561157f565b93508360208202850161167885611590565b8060005b858110156116b457848403895281516116958582611630565b94506116a083611644565b925060208a0199505060018101905061167c565b50829750879550505050505092915050565b600060408201905081810360008301526116e08185611516565b905081810360208301526116f48184611651565b90509392505050565b6000604051905090565b600080fd5b600080fd5b61171a816114d0565b811461172557600080fd5b50565b60008135905061173781611711565b92915050565b600080fd5b600080fd5b7f4e487b7100000000000000000000000000000000000000000000000000000000600052604160045260246000fd5b61177f826115e6565b810181811067ffffffffffffffff8211171561179e5761179d611747565b5b80604052505050565b60006117b16116fd565b90506117bd8282611776565b919050565b600067ffffffffffffffff8211156117dd576117dc611747565b5b6117e6826115e6565b9050602081019050919050565b82818337600083830152505050565b6000611815611810846117c2565b6117a7565b90508281526020810184848401111561183157611830611742565b5b61183c8482856117f3565b509392505050565b600082601f8301126118595761185861173d565b5b8135611869848260208601611802565b91505092915050565b6000806000806080858703121561188c5761188b611707565b5b600061189a87828801611728565b945050602085013567ffffffffffffffff8111156118bb576118ba61170c565b5b6118c787828801611844565b935050604085013567ffffffffffffffff8111156118e8576118e761170c565b5b6118f487828801611844565b925050606085013567ffffffffffffffff8111156119155761191461170c565b5b61192187828801611844565b91505092959194509250565b60006020828403121561194357611942611707565b5b600061195184828501611728565b91505092915050565b6000819050919050565b61196d8161195a565b811461197857600080fd5b50565b60008135905061198a81611964565b92915050565b6000602082840312156119a6576119a5611707565b5b60006119b48482850161197b565b91505092915050565b6119c6816114d0565b82525050565b600082825260208201905092915050565b60006119e8826115a0565b6119f281856119cc565b9350611a028185602086016115bc565b611a0b816115e6565b840191505092915050565b60008115159050919050565b611a2b81611a16565b82525050565b600060a082019050611a4660008301886119bd565b8181036020830152611a5881876119dd565b90508181036040830152611a6c81866119dd565b90508181036060830152611a8081856119dd565b9050611a8f6080830184611a22565b9695505050505050565b611aa28161195a565b82525050565b600061014082019050611abe600083018d6119bd565b8181036020830152611ad0818c6119dd565b90508181036040830152611ae4818b6119dd565b90508181036060830152611af8818a6119dd565b90508181036080830152611b0c81896119dd565b905081810360a0830152611b2081886119dd565b9050611b2f60c0830187611a99565b611b3c60e0830186611a22565b818103610100830152611b4f81856119dd565b9050611b5f6101208301846119bd565b9b9a5050505050505050505050565b60008060008060008060c08789031215611b8b57611b8a611707565b5b6000611b9989828a01611728565b965050602087013567ffffffffffffffff811115611bba57611bb961170c565b5b611bc689828a01611844565b955050604087013567ffffffffffffffff811115611be757611be661170c565b5b611bf389828a01611844565b945050606087013567ffffffffffffffff811115611c1457611c1361170c565b5b611c2089828a01611844565b935050608087013567ffffffffffffffff811115611c4157611c4061170c565b5b611c4d89828a01611844565b92505060a087013567ffffffffffffffff811115611c6e57611c6d61170c565b5b611c7a89828a01611844565b9150509295509295509295565b7f4f6e6c7920617574686f72697a656420697373756572732063616e2063616c6c60008201527f20746869732066756e6374696f6e000000000000000000000000000000000000602082015250565b6000611ce3602e836119cc565b9150611cee82611c87565b604082019050919050565b60006020820190508181036000830152611d1281611cd6565b9050919050565b7f4e487b7100000000000000000000000000000000000000000000000000000000600052603260045260246000fd5b7f4e487b7100000000000000000000000000000000000000000000000000000000600052601160045260246000fd5b6000611d828261195a565b91507fffffffffffffffffffffffffffffffffffffffffffffffffffffffffffffffff8203611db457611db3611d48565b5b600182019050919050565b7f4e487b7100000000000000000000000000000000000000000000000000000000600052602260045260246000fd5b60006002820490506001821680611e0657607f821691505b602082108103611e1957611e18611dbf565b5b50919050565b60008190508160005260206000209050919050565b60006020601f8301049050919050565b600082821b905092915050565b600060088302611e817fffffffffffffffffffffffffffffffffffffffffffffffffffffffffffffffff82611e44565b611e8b8683611e44565b95508019841693508086168417925050509392505050565b6000819050919050565b6000611ec8611ec3611ebe8461195a565b611ea3565b61195a565b9050919050565b6000819050919050565b611ee283611ead565b611ef6611eee82611ecf565b848454611e51565b825550505050565b600090565b611f0b611efe565b611f16818484611ed9565b505050565b5b81811015611f3a57611f2f600082611f03565b600181019050611f1c565b5050565b601f821115611f7f57611f5081611e1f565b611f5984611e34565b81016020851015611f68578190505b611f7c611f7485611e34565b830182611f1b565b50505b505050565b600082821c905092915050565b6000611fa260001984600802611f84565b1980831691505092915050565b6000611fbb8383611f91565b9150826002028217905092915050565b611fd4826115a0565b67ffffffffffffffff811115611fed57611fec611747565b5b611ff78254611dee565b612002828285611f3e565b600060209050601f8311600181146120355760008415612023578287015190505b61202d8582611faf565b865550612095565b601f19841661204386611e1f565b60005b8281101561206b57848901518255600182019150602085019450602081019050612046565b868310156120885784890151612084601f891682611f91565b8355505b6001600288020188555050505b505050505050565b6000815490506120ac81611dee565b9050919050565b60008190508160005260206000209050919050565b8181036120d65750506121ae565b6120df8261209d565b67ffffffffffffffff8111156120f8576120f7611747565b5b6121028254611dee565b61210d828285611f3e565b6000601f83116001811461213c576000841561212a578287015490505b6121348582611faf565b8655506121a7565b601f19841661214a876120b3565b965061215586611e1f565b60005b8281101561217d57848901548255600182019150600185019450602081019050612158565b8683101561219a5784890154612196601f891682611f91565b8355505b6001600288020188555050505b5050505050505b56fea2646970667358221220e685a6ec2f67618a720110eb68ffeec234ecd9c6bab9a24b764793e61289abe064736f6c63430008120033",
					"opcodes": "PUSH1 0x80 PUSH1 0x40 MSTORE CALLVALUE DUP1 ISZERO PUSH2 0x10 JUMPI PUSH1 0x0 DUP1 REVERT JUMPDEST POP PUSH1 0x1 PUSH1 0x2 PUSH1 0x0 CALLER PUSH20 0xFFFFFFFFFFFFFFFFFFFFFFFFFFFFFFFFFFFFFFFF AND PUSH20 0xFFFFFFFFFFFFFFFFFFFFFFFFFFFFFFFFFFFFFFFF AND DUP2 MSTORE PUSH1 0x20 ADD SWAP1 DUP2 MSTORE PUSH1 0x20 ADD PUSH1 0x0 KECCAK256 PUSH1 0x0 PUSH2 0x100 EXP DUP2 SLOAD DUP2 PUSH1 0xFF MUL NOT AND SWAP1 DUP4 ISZERO ISZERO MUL OR SWAP1 SSTORE POP PUSH2 0x21E6 DUP1 PUSH2 0x78 PUSH1 0x0 CODECOPY PUSH1 0x0 RETURN INVALID PUSH1 0x80 PUSH1 0x40 MSTORE CALLVALUE DUP1 ISZERO PUSH2 0x10 JUMPI PUSH1 0x0 DUP1 REVERT JUMPDEST POP PUSH1 0x4 CALLDATASIZE LT PUSH2 0x62 JUMPI PUSH1 0x0 CALLDATALOAD PUSH1 0xE0 SHR DUP1 PUSH4 0x2A3EB09 EQ PUSH2 0x67 JUMPI DUP1 PUSH4 0x3825D6C EQ PUSH2 0x86 JUMPI DUP1 PUSH4 0x5F893BFA EQ PUSH2 0xA2 JUMPI DUP1 PUSH4 0x70F9FF87 EQ PUSH2 0xBE JUMPI DUP1 PUSH4 0xABAFEF87 EQ PUSH2 0xF2 JUMPI DUP1 PUSH4 0xDE8C98FD EQ PUSH2 0x12B JUMPI JUMPDEST PUSH1 0x0 DUP1 REVERT JUMPDEST PUSH2 0x6F PUSH2 0x147 JUMP JUMPDEST PUSH1 0x40 MLOAD PUSH2 0x7D SWAP3 SWAP2 SWAP1 PUSH2 0x16C6 JUMP JUMPDEST PUSH1 0x40 MLOAD DUP1 SWAP2 SUB SWAP1 RETURN JUMPDEST PUSH2 0xA0 PUSH1 0x4 DUP1 CALLDATASIZE SUB DUP2 ADD SWAP1 PUSH2 0x9B SWAP2 SWAP1 PUSH2 0x1872 JUMP JUMPDEST PUSH2 0x4BA JUMP JUMPDEST STOP JUMPDEST PUSH2 0xBC PUSH1 0x4 DUP1 CALLDATASIZE SUB DUP2 ADD SWAP1 PUSH2 0xB7 SWAP2 SWAP1 PUSH2 0x192D JUMP JUMPDEST PUSH2 0x794 JUMP JUMPDEST STOP JUMPDEST PUSH2 0xD8 PUSH1 0x4 DUP1 CALLDATASIZE SUB DUP2 ADD SWAP1 PUSH2 0xD3 SWAP2 SWAP1 PUSH2 0x1990 JUMP JUMPDEST PUSH2 0x963 JUMP JUMPDEST PUSH1 0x40 MLOAD PUSH2 0xE9 SWAP6 SWAP5 SWAP4 SWAP3 SWAP2 SWAP1 PUSH2 0x1A31 JUMP JUMPDEST PUSH1 0x40 MLOAD DUP1 SWAP2 SUB SWAP1 RETURN JUMPDEST PUSH2 0x10C PUSH1 0x4 DUP1 CALLDATASIZE SUB DUP2 ADD SWAP1 PUSH2 0x107 SWAP2 SWAP1 PUSH2 0x1990 JUMP JUMPDEST PUSH2 0xB6E JUMP JUMPDEST PUSH1 0x40 MLOAD PUSH2 0x122 SWAP11 SWAP10 SWAP9 SWAP8 SWAP7 SWAP6 SWAP5 SWAP4 SWAP3 SWAP2 SWAP1 PUSH2 0x1AA8 JUMP JUMPDEST PUSH1 0x40 MLOAD DUP1 SWAP2 SUB SWAP1 RETURN JUMPDEST PUSH2 0x145 PUSH1 0x4 DUP1 CALLDATASIZE SUB DUP2 ADD SWAP1 PUSH2 0x140 SWAP2 SWAP1 PUSH2 0x1B6E JUMP JUMPDEST PUSH2 0xF4F JUMP JUMPDEST STOP JUMPDEST PUSH1 0x60 DUP1 PUSH1 0x2 PUSH1 0x0 CALLER PUSH20 0xFFFFFFFFFFFFFFFFFFFFFFFFFFFFFFFFFFFFFFFF AND PUSH20 0xFFFFFFFFFFFFFFFFFFFFFFFFFFFFFFFFFFFFFFFF AND DUP2 MSTORE PUSH1 0x20 ADD SWAP1 DUP2 MSTORE PUSH1 0x20 ADD PUSH1 0x0 KECCAK256 PUSH1 0x0 SWAP1 SLOAD SWAP1 PUSH2 0x100 EXP SWAP1 DIV PUSH1 0xFF AND PUSH2 0x1D6 JUMPI PUSH1 0x40 MLOAD PUSH32 0x8C379A000000000000000000000000000000000000000000000000000000000 DUP2 MSTORE PUSH1 0x4 ADD PUSH2 0x1CD SWAP1 PUSH2 0x1CF9 JUMP JUMPDEST PUSH1 0x40 MLOAD DUP1 SWAP2 SUB SWAP1 REVERT JUMPDEST PUSH1 0x0 DUP1 JUMPDEST PUSH1 0x0 DUP1 SLOAD SWAP1 POP DUP2 LT ISZERO PUSH2 0x241 JUMPI PUSH1 0x0 DUP2 DUP2 SLOAD DUP2 LT PUSH2 0x1FB JUMPI PUSH2 0x1FA PUSH2 0x1D19 JUMP JUMPDEST JUMPDEST SWAP1 PUSH1 0x0 MSTORE PUSH1 0x20 PUSH1 0x0 KECCAK256 SWAP1 PUSH1 0xA MUL ADD PUSH1 0x7 ADD PUSH1 0x0 SWAP1 SLOAD SWAP1 PUSH2 0x100 EXP SWAP1 DIV PUSH1 0xFF AND ISZERO PUSH2 0x22E JUMPI DUP2 DUP1 PUSH2 0x22A SWAP1 PUSH2 0x1D77 JUMP JUMPDEST SWAP3 POP POP JUMPDEST DUP1 DUP1 PUSH2 0x239 SWAP1 PUSH2 0x1D77 JUMP JUMPDEST SWAP2 POP POP PUSH2 0x1DA JUMP JUMPDEST POP PUSH1 0x0 DUP2 PUSH8 0xFFFFFFFFFFFFFFFF DUP2 GT ISZERO PUSH2 0x25E JUMPI PUSH2 0x25D PUSH2 0x1747 JUMP JUMPDEST JUMPDEST PUSH1 0x40 MLOAD SWAP1 DUP1 DUP3 MSTORE DUP1 PUSH1 0x20 MUL PUSH1 0x20 ADD DUP3 ADD PUSH1 0x40 MSTORE DUP1 ISZERO PUSH2 0x28C JUMPI DUP2 PUSH1 0x20 ADD PUSH1 0x20 DUP3 MUL DUP1 CALLDATASIZE DUP4 CALLDATACOPY DUP1 DUP3 ADD SWAP2 POP POP SWAP1 POP JUMPDEST POP SWAP1 POP PUSH1 0x0 DUP3 PUSH8 0xFFFFFFFFFFFFFFFF DUP2 GT ISZERO PUSH2 0x2AB JUMPI PUSH2 0x2AA PUSH2 0x1747 JUMP JUMPDEST JUMPDEST PUSH1 0x40 MLOAD SWAP1 DUP1 DUP3 MSTORE DUP1 PUSH1 0x20 MUL PUSH1 0x20 ADD DUP3 ADD PUSH1 0x40 MSTORE DUP1 ISZERO PUSH2 0x2DE JUMPI DUP2 PUSH1 0x20 ADD JUMPDEST PUSH1 0x60 DUP2 MSTORE PUSH1 0x20 ADD SWAP1 PUSH1 0x1 SWAP1 SUB SWAP1 DUP2 PUSH2 0x2C9 JUMPI SWAP1 POP JUMPDEST POP SWAP1 POP PUSH1 0x0 DUP1 JUMPDEST PUSH1 0x0 DUP1 SLOAD SWAP1 POP DUP2 LT ISZERO PUSH2 0x4AB JUMPI PUSH1 0x0 DUP2 DUP2 SLOAD DUP2 LT PUSH2 0x306 JUMPI PUSH2 0x305 PUSH2 0x1D19 JUMP JUMPDEST JUMPDEST SWAP1 PUSH1 0x0 MSTORE PUSH1 0x20 PUSH1 0x0 KECCAK256 SWAP1 PUSH1 0xA MUL ADD PUSH1 0x7 ADD PUSH1 0x0 SWAP1 SLOAD SWAP1 PUSH2 0x100 EXP SWAP1 DIV PUSH1 0xFF AND ISZERO PUSH2 0x498 JUMPI PUSH1 0x0 DUP2 DUP2 SLOAD DUP2 LT PUSH2 0x33E JUMPI PUSH2 0x33D PUSH2 0x1D19 JUMP JUMPDEST JUMPDEST SWAP1 PUSH1 0x0 MSTORE PUSH1 0x20 PUSH1 0x0 KECCAK256 SWAP1 PUSH1 0xA MUL ADD PUSH1 0x0 ADD PUSH1 0x0 SWAP1 SLOAD SWAP1 PUSH2 0x100 EXP SWAP1 DIV PUSH20 0xFFFFFFFFFFFFFFFFFFFFFFFFFFFFFFFFFFFFFFFF AND DUP5 DUP4 DUP2 MLOAD DUP2 LT PUSH2 0x383 JUMPI PUSH2 0x382 PUSH2 0x1D19 JUMP JUMPDEST JUMPDEST PUSH1 0x20 MUL PUSH1 0x20 ADD ADD SWAP1 PUSH20 0xFFFFFFFFFFFFFFFFFFFFFFFFFFFFFFFFFFFFFFFF AND SWAP1 DUP2 PUSH20 0xFFFFFFFFFFFFFFFFFFFFFFFFFFFFFFFFFFFFFFFF AND DUP2 MSTORE POP POP PUSH1 0x0 DUP2 DUP2 SLOAD DUP2 LT PUSH2 0x3D1 JUMPI PUSH2 0x3D0 PUSH2 0x1D19 JUMP JUMPDEST JUMPDEST SWAP1 PUSH1 0x0 MSTORE PUSH1 0x20 PUSH1 0x0 KECCAK256 SWAP1 PUSH1 0xA MUL ADD PUSH1 0x3 ADD DUP1 SLOAD PUSH2 0x3ED SWAP1 PUSH2 0x1DEE JUMP JUMPDEST DUP1 PUSH1 0x1F ADD PUSH1 0x20 DUP1 SWAP2 DIV MUL PUSH1 0x20 ADD PUSH1 0x40 MLOAD SWAP1 DUP2 ADD PUSH1 0x40 MSTORE DUP1 SWAP3 SWAP2 SWAP1 DUP2 DUP2 MSTORE PUSH1 0x20 ADD DUP3 DUP1 SLOAD PUSH2 0x419 SWAP1 PUSH2 0x1DEE JUMP JUMPDEST DUP1 ISZERO PUSH2 0x466 JUMPI DUP1 PUSH1 0x1F LT PUSH2 0x43B JUMPI PUSH2 0x100 DUP1 DUP4 SLOAD DIV MUL DUP4 MSTORE SWAP2 PUSH1 0x20 ADD SWAP2 PUSH2 0x466 JUMP JUMPDEST DUP3 ADD SWAP2 SWAP1 PUSH1 0x0 MSTORE PUSH1 0x20 PUSH1 0x0 KECCAK256 SWAP1 JUMPDEST DUP2 SLOAD DUP2 MSTORE SWAP1 PUSH1 0x1 ADD SWAP1 PUSH1 0x20 ADD DUP1 DUP4 GT PUSH2 0x449 JUMPI DUP3 SWAP1 SUB PUSH1 0x1F AND DUP3 ADD SWAP2 JUMPDEST POP POP POP POP POP DUP4 DUP4 DUP2 MLOAD DUP2 LT PUSH2 0x47E JUMPI PUSH2 0x47D PUSH2 0x1D19 JUMP JUMPDEST JUMPDEST PUSH1 0x20 MUL PUSH1 0x20 ADD ADD DUP2 SWAP1 MSTORE POP DUP2 DUP1 PUSH2 0x494 SWAP1 PUSH2 0x1D77 JUMP JUMPDEST SWAP3 POP POP JUMPDEST DUP1 DUP1 PUSH2 0x4A3 SWAP1 PUSH2 0x1D77 JUMP JUMPDEST SWAP2 POP POP PUSH2 0x2E5 JUMP JUMPDEST POP DUP3 DUP3 SWAP6 POP SWAP6 POP POP POP POP POP SWAP1 SWAP2 JUMP JUMPDEST PUSH1 0x2 PUSH1 0x0 CALLER PUSH20 0xFFFFFFFFFFFFFFFFFFFFFFFFFFFFFFFFFFFFFFFF AND PUSH20 0xFFFFFFFFFFFFFFFFFFFFFFFFFFFFFFFFFFFFFFFF AND DUP2 MSTORE PUSH1 0x20 ADD SWAP1 DUP2 MSTORE PUSH1 0x20 ADD PUSH1 0x0 KECCAK256 PUSH1 0x0 SWAP1 SLOAD SWAP1 PUSH2 0x100 EXP SWAP1 DIV PUSH1 0xFF AND PUSH2 0x546 JUMPI PUSH1 0x40 MLOAD PUSH32 0x8C379A000000000000000000000000000000000000000000000000000000000 DUP2 MSTORE PUSH1 0x4 ADD PUSH2 0x53D SWAP1 PUSH2 0x1CF9 JUMP JUMPDEST PUSH1 0x40 MLOAD DUP1 SWAP2 SUB SWAP1 REVERT JUMPDEST PUSH1 0x1 PUSH1 0x2 PUSH1 0x0 DUP7 PUSH20 0xFFFFFFFFFFFFFFFFFFFFFFFFFFFFFFFFFFFFFFFF AND PUSH20 0xFFFFFFFFFFFFFFFFFFFFFFFFFFFFFFFFFFFFFFFF AND DUP2 MSTORE PUSH1 0x20 ADD SWAP1 DUP2 MSTORE PUSH1 0x20 ADD PUSH1 0x0 KECCAK256 PUSH1 0x0 PUSH2 0x100 EXP DUP2 SLOAD DUP2 PUSH1 0xFF MUL NOT AND SWAP1 DUP4 ISZERO ISZERO MUL OR SWAP1 SSTORE POP PUSH1 0x0 PUSH1 0x6 PUSH1 0x0 DUP7 PUSH20 0xFFFFFFFFFFFFFFFFFFFFFFFFFFFFFFFFFFFFFFFF AND PUSH20 0xFFFFFFFFFFFFFFFFFFFFFFFFFFFFFFFFFFFFFFFF AND DUP2 MSTORE PUSH1 0x20 ADD SWAP1 DUP2 MSTORE PUSH1 0x20 ADD PUSH1 0x0 KECCAK256 SWAP1 POP DUP5 DUP2 PUSH1 0x0 ADD PUSH1 0x0 PUSH2 0x100 EXP DUP2 SLOAD DUP2 PUSH20 0xFFFFFFFFFFFFFFFFFFFFFFFFFFFFFFFFFFFFFFFF MUL NOT AND SWAP1 DUP4 PUSH20 0xFFFFFFFFFFFFFFFFFFFFFFFFFFFFFFFFFFFFFFFF AND MUL OR SWAP1 SSTORE POP DUP4 DUP2 PUSH1 0x1 ADD SWAP1 DUP2 PUSH2 0x635 SWAP2 SWAP1 PUSH2 0x1FCB JUMP JUMPDEST POP DUP3 DUP2 PUSH1 0x2 ADD SWAP1 DUP2 PUSH2 0x647 SWAP2 SWAP1 PUSH2 0x1FCB JUMP JUMPDEST POP DUP2 DUP2 PUSH1 0x3 ADD SWAP1 DUP2 PUSH2 0x659 SWAP2 SWAP1 PUSH2 0x1FCB JUMP JUMPDEST POP PUSH1 0x1 DUP2 PUSH1 0x4 ADD PUSH1 0x0 PUSH2 0x100 EXP DUP2 SLOAD DUP2 PUSH1 0xFF MUL NOT AND SWAP1 DUP4 ISZERO ISZERO MUL OR SWAP1 SSTORE POP PUSH1 0x1 PUSH1 0x40 MLOAD DUP1 PUSH1 0xA0 ADD PUSH1 0x40 MSTORE DUP1 DUP8 PUSH20 0xFFFFFFFFFFFFFFFFFFFFFFFFFFFFFFFFFFFFFFFF AND DUP2 MSTORE PUSH1 0x20 ADD DUP7 DUP2 MSTORE PUSH1 0x20 ADD DUP6 DUP2 MSTORE PUSH1 0x20 ADD DUP5 DUP2 MSTORE PUSH1 0x20 ADD PUSH1 0x1 ISZERO ISZERO DUP2 MSTORE POP SWAP1 DUP1 PUSH1 0x1 DUP2 SLOAD ADD DUP1 DUP3 SSTORE DUP1 SWAP2 POP POP PUSH1 0x1 SWAP1 SUB SWAP1 PUSH1 0x0 MSTORE PUSH1 0x20 PUSH1 0x0 KECCAK256 SWAP1 PUSH1 0x5 MUL ADD PUSH1 0x0 SWAP1 SWAP2 SWAP1 SWAP2 SWAP1 SWAP2 POP PUSH1 0x0 DUP3 ADD MLOAD DUP2 PUSH1 0x0 ADD PUSH1 0x0 PUSH2 0x100 EXP DUP2 SLOAD DUP2 PUSH20 0xFFFFFFFFFFFFFFFFFFFFFFFFFFFFFFFFFFFFFFFF MUL NOT AND SWAP1 DUP4 PUSH20 0xFFFFFFFFFFFFFFFFFFFFFFFFFFFFFFFFFFFFFFFF AND MUL OR SWAP1 SSTORE POP PUSH1 0x20 DUP3 ADD MLOAD DUP2 PUSH1 0x1 ADD SWAP1 DUP2 PUSH2 0x73E SWAP2 SWAP1 PUSH2 0x1FCB JUMP JUMPDEST POP PUSH1 0x40 DUP3 ADD MLOAD DUP2 PUSH1 0x2 ADD SWAP1 DUP2 PUSH2 0x754 SWAP2 SWAP1 PUSH2 0x1FCB JUMP JUMPDEST POP PUSH1 0x60 DUP3 ADD MLOAD DUP2 PUSH1 0x3 ADD SWAP1 DUP2 PUSH2 0x76A SWAP2 SWAP1 PUSH2 0x1FCB JUMP JUMPDEST POP PUSH1 0x80 DUP3 ADD MLOAD DUP2 PUSH1 0x4 ADD PUSH1 0x0 PUSH2 0x100 EXP DUP2 SLOAD DUP2 PUSH1 0xFF MUL NOT AND SWAP1 DUP4 ISZERO ISZERO MUL OR SWAP1 SSTORE POP POP POP POP POP POP POP POP JUMP JUMPDEST PUSH1 0x2 PUSH1 0x0 CALLER PUSH20 0xFFFFFFFFFFFFFFFFFFFFFFFFFFFFFFFFFFFFFFFF AND PUSH20 0xFFFFFFFFFFFFFFFFFFFFFFFFFFFFFFFFFFFFFFFF AND DUP2 MSTORE PUSH1 0x20 ADD SWAP1 DUP2 MSTORE PUSH1 0x20 ADD PUSH1 0x0 KECCAK256 PUSH1 0x0 SWAP1 SLOAD SWAP1 PUSH2 0x100 EXP SWAP1 DIV PUSH1 0xFF AND PUSH2 0x820 JUMPI PUSH1 0x40 MLOAD PUSH32 0x8C379A000000000000000000000000000000000000000000000000000000000 DUP2 MSTORE PUSH1 0x4 ADD PUSH2 0x817 SWAP1 PUSH2 0x1CF9 JUMP JUMPDEST PUSH1 0x40 MLOAD DUP1 SWAP2 SUB SWAP1 REVERT JUMPDEST PUSH1 0x0 PUSH1 0x5 PUSH1 0x0 DUP4 PUSH20 0xFFFFFFFFFFFFFFFFFFFFFFFFFFFFFFFFFFFFFFFF AND PUSH20 0xFFFFFFFFFFFFFFFFFFFFFFFFFFFFFFFFFFFFFFFF AND DUP2 MSTORE PUSH1 0x20 ADD SWAP1 DUP2 MSTORE PUSH1 0x20 ADD PUSH1 0x0 KECCAK256 SWAP1 POP PUSH1 0x1 DUP2 PUSH1 0x7 ADD PUSH1 0x0 PUSH2 0x100 EXP DUP2 SLOAD DUP2 PUSH1 0xFF MUL NOT AND SWAP1 DUP4 ISZERO ISZERO MUL OR SWAP1 SSTORE POP PUSH1 0x0 JUMPDEST PUSH1 0x0 DUP1 SLOAD SWAP1 POP DUP2 LT ISZERO PUSH2 0x95E JUMPI DUP3 PUSH20 0xFFFFFFFFFFFFFFFFFFFFFFFFFFFFFFFFFFFFFFFF AND PUSH1 0x0 DUP3 DUP2 SLOAD DUP2 LT PUSH2 0x8BB JUMPI PUSH2 0x8BA PUSH2 0x1D19 JUMP JUMPDEST JUMPDEST SWAP1 PUSH1 0x0 MSTORE PUSH1 0x20 PUSH1 0x0 KECCAK256 SWAP1 PUSH1 0xA MUL ADD PUSH1 0x0 ADD PUSH1 0x0 SWAP1 SLOAD SWAP1 PUSH2 0x100 EXP SWAP1 DIV PUSH20 0xFFFFFFFFFFFFFFFFFFFFFFFFFFFFFFFFFFFFFFFF AND PUSH20 0xFFFFFFFFFFFFFFFFFFFFFFFFFFFFFFFFFFFFFFFF AND SUB PUSH2 0x94B JUMPI PUSH1 0x1 PUSH1 0x0 DUP3 DUP2 SLOAD DUP2 LT PUSH2 0x91E JUMPI PUSH2 0x91D PUSH2 0x1D19 JUMP JUMPDEST JUMPDEST SWAP1 PUSH1 0x0 MSTORE PUSH1 0x20 PUSH1 0x0 KECCAK256 SWAP1 PUSH1 0xA MUL ADD PUSH1 0x7 ADD PUSH1 0x0 PUSH2 0x100 EXP DUP2 SLOAD DUP2 PUSH1 0xFF MUL NOT AND SWAP1 DUP4 ISZERO ISZERO MUL OR SWAP1 SSTORE POP PUSH2 0x95E JUMP JUMPDEST DUP1 DUP1 PUSH2 0x956 SWAP1 PUSH2 0x1D77 JUMP JUMPDEST SWAP2 POP POP PUSH2 0x883 JUMP JUMPDEST POP POP POP JUMP JUMPDEST PUSH1 0x1 DUP2 DUP2 SLOAD DUP2 LT PUSH2 0x973 JUMPI PUSH1 0x0 DUP1 REVERT JUMPDEST SWAP1 PUSH1 0x0 MSTORE PUSH1 0x20 PUSH1 0x0 KECCAK256 SWAP1 PUSH1 0x5 MUL ADD PUSH1 0x0 SWAP2 POP SWAP1 POP DUP1 PUSH1 0x0 ADD PUSH1 0x0 SWAP1 SLOAD SWAP1 PUSH2 0x100 EXP SWAP1 DIV PUSH20 0xFFFFFFFFFFFFFFFFFFFFFFFFFFFFFFFFFFFFFFFF AND SWAP1 DUP1 PUSH1 0x1 ADD DUP1 SLOAD PUSH2 0x9BC SWAP1 PUSH2 0x1DEE JUMP JUMPDEST DUP1 PUSH1 0x1F ADD PUSH1 0x20 DUP1 SWAP2 DIV MUL PUSH1 0x20 ADD PUSH1 0x40 MLOAD SWAP1 DUP2 ADD PUSH1 0x40 MSTORE DUP1 SWAP3 SWAP2 SWAP1 DUP2 DUP2 MSTORE PUSH1 0x20 ADD DUP3 DUP1 SLOAD PUSH2 0x9E8 SWAP1 PUSH2 0x1DEE JUMP JUMPDEST DUP1 ISZERO PUSH2 0xA35 JUMPI DUP1 PUSH1 0x1F LT PUSH2 0xA0A JUMPI PUSH2 0x100 DUP1 DUP4 SLOAD DIV MUL DUP4 MSTORE SWAP2 PUSH1 0x20 ADD SWAP2 PUSH2 0xA35 JUMP JUMPDEST DUP3 ADD SWAP2 SWAP1 PUSH1 0x0 MSTORE PUSH1 0x20 PUSH1 0x0 KECCAK256 SWAP1 JUMPDEST DUP2 SLOAD DUP2 MSTORE SWAP1 PUSH1 0x1 ADD SWAP1 PUSH1 0x20 ADD DUP1 DUP4 GT PUSH2 0xA18 JUMPI DUP3 SWAP1 SUB PUSH1 0x1F AND DUP3 ADD SWAP2 JUMPDEST POP POP POP POP POP SWAP1 DUP1 PUSH1 0x2 ADD DUP1 SLOAD PUSH2 0xA4A SWAP1 PUSH2 0x1DEE JUMP JUMPDEST DUP1 PUSH1 0x1F ADD PUSH1 0x20 DUP1 SWAP2 DIV MUL PUSH1 0x20 ADD PUSH1 0x40 MLOAD SWAP1 DUP2 ADD PUSH1 0x40 MSTORE DUP1 SWAP3 SWAP2 SWAP1 DUP2 DUP2 MSTORE PUSH1 0x20 ADD DUP3 DUP1 SLOAD PUSH2 0xA76 SWAP1 PUSH2 0x1DEE JUMP JUMPDEST DUP1 ISZERO PUSH2 0xAC3 JUMPI DUP1 PUSH1 0x1F LT PUSH2 0xA98 JUMPI PUSH2 0x100 DUP1 DUP4 SLOAD DIV MUL DUP4 MSTORE SWAP2 PUSH1 0x20 ADD SWAP2 PUSH2 0xAC3 JUMP JUMPDEST DUP3 ADD SWAP2 SWAP1 PUSH1 0x0 MSTORE PUSH1 0x20 PUSH1 0x0 KECCAK256 SWAP1 JUMPDEST DUP2 SLOAD DUP2 MSTORE SWAP1 PUSH1 0x1 ADD SWAP1 PUSH1 0x20 ADD DUP1 DUP4 GT PUSH2 0xAA6 JUMPI DUP3 SWAP1 SUB PUSH1 0x1F AND DUP3 ADD SWAP2 JUMPDEST POP POP POP POP POP SWAP1 DUP1 PUSH1 0x3 ADD DUP1 SLOAD PUSH2 0xAD8 SWAP1 PUSH2 0x1DEE JUMP JUMPDEST DUP1 PUSH1 0x1F ADD PUSH1 0x20 DUP1 SWAP2 DIV MUL PUSH1 0x20 ADD PUSH1 0x40 MLOAD SWAP1 DUP2 ADD PUSH1 0x40 MSTORE DUP1 SWAP3 SWAP2 SWAP1 DUP2 DUP2 MSTORE PUSH1 0x20 ADD DUP3 DUP1 SLOAD PUSH2 0xB04 SWAP1 PUSH2 0x1DEE JUMP JUMPDEST DUP1 ISZERO PUSH2 0xB51 JUMPI DUP1 PUSH1 0x1F LT PUSH2 0xB26 JUMPI PUSH2 0x100 DUP1 DUP4 SLOAD DIV MUL DUP4 MSTORE SWAP2 PUSH1 0x20 ADD SWAP2 PUSH2 0xB51 JUMP JUMPDEST DUP3 ADD SWAP2 SWAP1 PUSH1 0x0 MSTORE PUSH1 0x20 PUSH1 0x0 KECCAK256 SWAP1 JUMPDEST DUP2 SLOAD DUP2 MSTORE SWAP1 PUSH1 0x1 ADD SWAP1 PUSH1 0x20 ADD DUP1 DUP4 GT PUSH2 0xB34 JUMPI DUP3 SWAP1 SUB PUSH1 0x1F AND DUP3 ADD SWAP2 JUMPDEST POP POP POP POP POP SWAP1 DUP1 PUSH1 0x4 ADD PUSH1 0x0 SWAP1 SLOAD SWAP1 PUSH2 0x100 EXP SWAP1 DIV PUSH1 0xFF AND SWAP1 POP DUP6 JUMP JUMPDEST PUSH1 0x0 DUP2 DUP2 SLOAD DUP2 LT PUSH2 0xB7E JUMPI PUSH1 0x0 DUP1 REVERT JUMPDEST SWAP1 PUSH1 0x0 MSTORE PUSH1 0x20 PUSH1 0x0 KECCAK256 SWAP1 PUSH1 0xA MUL ADD PUSH1 0x0 SWAP2 POP SWAP1 POP DUP1 PUSH1 0x0 ADD PUSH1 0x0 SWAP1 SLOAD SWAP1 PUSH2 0x100 EXP SWAP1 DIV PUSH20 0xFFFFFFFFFFFFFFFFFFFFFFFFFFFFFFFFFFFFFFFF AND SWAP1 DUP1 PUSH1 0x1 ADD DUP1 SLOAD PUSH2 0xBC7 SWAP1 PUSH2 0x1DEE JUMP JUMPDEST DUP1 PUSH1 0x1F ADD PUSH1 0x20 DUP1 SWAP2 DIV MUL PUSH1 0x20 ADD PUSH1 0x40 MLOAD SWAP1 DUP2 ADD PUSH1 0x40 MSTORE DUP1 SWAP3 SWAP2 SWAP1 DUP2 DUP2 MSTORE PUSH1 0x20 ADD DUP3 DUP1 SLOAD PUSH2 0xBF3 SWAP1 PUSH2 0x1DEE JUMP JUMPDEST DUP1 ISZERO PUSH2 0xC40 JUMPI DUP1 PUSH1 0x1F LT PUSH2 0xC15 JUMPI PUSH2 0x100 DUP1 DUP4 SLOAD DIV MUL DUP4 MSTORE SWAP2 PUSH1 0x20 ADD SWAP2 PUSH2 0xC40 JUMP JUMPDEST DUP3 ADD SWAP2 SWAP1 PUSH1 0x0 MSTORE PUSH1 0x20 PUSH1 0x0 KECCAK256 SWAP1 JUMPDEST DUP2 SLOAD DUP2 MSTORE SWAP1 PUSH1 0x1 ADD SWAP1 PUSH1 0x20 ADD DUP1 DUP4 GT PUSH2 0xC23 JUMPI DUP3 SWAP1 SUB PUSH1 0x1F AND DUP3 ADD SWAP2 JUMPDEST POP POP POP POP POP SWAP1 DUP1 PUSH1 0x2 ADD DUP1 SLOAD PUSH2 0xC55 SWAP1 PUSH2 0x1DEE JUMP JUMPDEST DUP1 PUSH1 0x1F ADD PUSH1 0x20 DUP1 SWAP2 DIV MUL PUSH1 0x20 ADD PUSH1 0x40 MLOAD SWAP1 DUP2 ADD PUSH1 0x40 MSTORE DUP1 SWAP3 SWAP2 SWAP1 DUP2 DUP2 MSTORE PUSH1 0x20 ADD DUP3 DUP1 SLOAD PUSH2 0xC81 SWAP1 PUSH2 0x1DEE JUMP JUMPDEST DUP1 ISZERO PUSH2 0xCCE JUMPI DUP1 PUSH1 0x1F LT PUSH2 0xCA3 JUMPI PUSH2 0x100 DUP1 DUP4 SLOAD DIV MUL DUP4 MSTORE SWAP2 PUSH1 0x20 ADD SWAP2 PUSH2 0xCCE JUMP JUMPDEST DUP3 ADD SWAP2 SWAP1 PUSH1 0x0 MSTORE PUSH1 0x20 PUSH1 0x0 KECCAK256 SWAP1 JUMPDEST DUP2 SLOAD DUP2 MSTORE SWAP1 PUSH1 0x1 ADD SWAP1 PUSH1 0x20 ADD DUP1 DUP4 GT PUSH2 0xCB1 JUMPI DUP3 SWAP1 SUB PUSH1 0x1F AND DUP3 ADD SWAP2 JUMPDEST POP POP POP POP POP SWAP1 DUP1 PUSH1 0x3 ADD DUP1 SLOAD PUSH2 0xCE3 SWAP1 PUSH2 0x1DEE JUMP JUMPDEST DUP1 PUSH1 0x1F ADD PUSH1 0x20 DUP1 SWAP2 DIV MUL PUSH1 0x20 ADD PUSH1 0x40 MLOAD SWAP1 DUP2 ADD PUSH1 0x40 MSTORE DUP1 SWAP3 SWAP2 SWAP1 DUP2 DUP2 MSTORE PUSH1 0x20 ADD DUP3 DUP1 SLOAD PUSH2 0xD0F SWAP1 PUSH2 0x1DEE JUMP JUMPDEST DUP1 ISZERO PUSH2 0xD5C JUMPI DUP1 PUSH1 0x1F LT PUSH2 0xD31 JUMPI PUSH2 0x100 DUP1 DUP4 SLOAD DIV MUL DUP4 MSTORE SWAP2 PUSH1 0x20 ADD SWAP2 PUSH2 0xD5C JUMP JUMPDEST DUP3 ADD SWAP2 SWAP1 PUSH1 0x0 MSTORE PUSH1 0x20 PUSH1 0x0 KECCAK256 SWAP1 JUMPDEST DUP2 SLOAD DUP2 MSTORE SWAP1 PUSH1 0x1 ADD SWAP1 PUSH1 0x20 ADD DUP1 DUP4 GT PUSH2 0xD3F JUMPI DUP3 SWAP1 SUB PUSH1 0x1F AND DUP3 ADD SWAP2 JUMPDEST POP POP POP POP POP SWAP1 DUP1 PUSH1 0x4 ADD DUP1 SLOAD PUSH2 0xD71 SWAP1 PUSH2 0x1DEE JUMP JUMPDEST DUP1 PUSH1 0x1F ADD PUSH1 0x20 DUP1 SWAP2 DIV MUL PUSH1 0x20 ADD PUSH1 0x40 MLOAD SWAP1 DUP2 ADD PUSH1 0x40 MSTORE DUP1 SWAP3 SWAP2 SWAP1 DUP2 DUP2 MSTORE PUSH1 0x20 ADD DUP3 DUP1 SLOAD PUSH2 0xD9D SWAP1 PUSH2 0x1DEE JUMP JUMPDEST DUP1 ISZERO PUSH2 0xDEA JUMPI DUP1 PUSH1 0x1F LT PUSH2 0xDBF JUMPI PUSH2 0x100 DUP1 DUP4 SLOAD DIV MUL DUP4 MSTORE SWAP2 PUSH1 0x20 ADD SWAP2 PUSH2 0xDEA JUMP JUMPDEST DUP3 ADD SWAP2 SWAP1 PUSH1 0x0 MSTORE PUSH1 0x20 PUSH1 0x0 KECCAK256 SWAP1 JUMPDEST DUP2 SLOAD DUP2 MSTORE SWAP1 PUSH1 0x1 ADD SWAP1 PUSH1 0x20 ADD DUP1 DUP4 GT PUSH2 0xDCD JUMPI DUP3 SWAP1 SUB PUSH1 0x1F AND DUP3 ADD SWAP2 JUMPDEST POP POP POP POP POP SWAP1 DUP1 PUSH1 0x5 ADD DUP1 SLOAD PUSH2 0xDFF SWAP1 PUSH2 0x1DEE JUMP JUMPDEST DUP1 PUSH1 0x1F ADD PUSH1 0x20 DUP1 SWAP2 DIV MUL PUSH1 0x20 ADD PUSH1 0x40 MLOAD SWAP1 DUP2 ADD PUSH1 0x40 MSTORE DUP1 SWAP3 SWAP2 SWAP1 DUP2 DUP2 MSTORE PUSH1 0x20 ADD DUP3 DUP1 SLOAD PUSH2 0xE2B SWAP1 PUSH2 0x1DEE JUMP JUMPDEST DUP1 ISZERO PUSH2 0xE78 JUMPI DUP1 PUSH1 0x1F LT PUSH2 0xE4D JUMPI PUSH2 0x100 DUP1 DUP4 SLOAD DIV MUL DUP4 MSTORE SWAP2 PUSH1 0x20 ADD SWAP2 PUSH2 0xE78 JUMP JUMPDEST DUP3 ADD SWAP2 SWAP1 PUSH1 0x0 MSTORE PUSH1 0x20 PUSH1 0x0 KECCAK256 SWAP1 JUMPDEST DUP2 SLOAD DUP2 MSTORE SWAP1 PUSH1 0x1 ADD SWAP1 PUSH1 0x20 ADD DUP1 DUP4 GT PUSH2 0xE5B JUMPI DUP3 SWAP1 SUB PUSH1 0x1F AND DUP3 ADD SWAP2 JUMPDEST POP POP POP POP POP SWAP1 DUP1 PUSH1 0x6 ADD SLOAD SWAP1 DUP1 PUSH1 0x7 ADD PUSH1 0x0 SWAP1 SLOAD SWAP1 PUSH2 0x100 EXP SWAP1 DIV PUSH1 0xFF AND SWAP1 DUP1 PUSH1 0x8 ADD DUP1 SLOAD PUSH2 0xEA6 SWAP1 PUSH2 0x1DEE JUMP JUMPDEST DUP1 PUSH1 0x1F ADD PUSH1 0x20 DUP1 SWAP2 DIV MUL PUSH1 0x20 ADD PUSH1 0x40 MLOAD SWAP1 DUP2 ADD PUSH1 0x40 MSTORE DUP1 SWAP3 SWAP2 SWAP1 DUP2 DUP2 MSTORE PUSH1 0x20 ADD DUP3 DUP1 SLOAD PUSH2 0xED2 SWAP1 PUSH2 0x1DEE JUMP JUMPDEST DUP1 ISZERO PUSH2 0xF1F JUMPI DUP1 PUSH1 0x1F LT PUSH2 0xEF4 JUMPI PUSH2 0x100 DUP1 DUP4 SLOAD DIV MUL DUP4 MSTORE SWAP2 PUSH1 0x20 ADD SWAP2 PUSH2 0xF1F JUMP JUMPDEST DUP3 ADD SWAP2 SWAP1 PUSH1 0x0 MSTORE PUSH1 0x20 PUSH1 0x0 KECCAK256 SWAP1 JUMPDEST DUP2 SLOAD DUP2 MSTORE SWAP1 PUSH1 0x1 ADD SWAP1 PUSH1 0x20 ADD DUP1 DUP4 GT PUSH2 0xF02 JUMPI DUP3 SWAP1 SUB PUSH1 0x1F AND DUP3 ADD SWAP2 JUMPDEST POP POP POP POP POP SWAP1 DUP1 PUSH1 0x9 ADD PUSH1 0x0 SWAP1 SLOAD SWAP1 PUSH2 0x100 EXP SWAP1 DIV PUSH20 0xFFFFFFFFFFFFFFFFFFFFFFFFFFFFFFFFFFFFFFFF AND SWAP1 POP DUP11 JUMP JUMPDEST PUSH1 0x2 PUSH1 0x0 CALLER PUSH20 0xFFFFFFFFFFFFFFFFFFFFFFFFFFFFFFFFFFFFFFFF AND PUSH20 0xFFFFFFFFFFFFFFFFFFFFFFFFFFFFFFFFFFFFFFFF AND DUP2 MSTORE PUSH1 0x20 ADD SWAP1 DUP2 MSTORE PUSH1 0x20 ADD PUSH1 0x0 KECCAK256 PUSH1 0x0 SWAP1 SLOAD SWAP1 PUSH2 0x100 EXP SWAP1 DIV PUSH1 0xFF AND PUSH2 0xFDB JUMPI PUSH1 0x40 MLOAD PUSH32 0x8C379A000000000000000000000000000000000000000000000000000000000 DUP2 MSTORE PUSH1 0x4 ADD PUSH2 0xFD2 SWAP1 PUSH2 0x1CF9 JUMP JUMPDEST PUSH1 0x40 MLOAD DUP1 SWAP2 SUB SWAP1 REVERT JUMPDEST PUSH1 0x1 PUSH1 0x4 PUSH1 0x0 DUP9 PUSH20 0xFFFFFFFFFFFFFFFFFFFFFFFFFFFFFFFFFFFFFFFF AND PUSH20 0xFFFFFFFFFFFFFFFFFFFFFFFFFFFFFFFFFFFFFFFF AND DUP2 MSTORE PUSH1 0x20 ADD SWAP1 DUP2 MSTORE PUSH1 0x20 ADD PUSH1 0x0 KECCAK256 PUSH1 0x0 PUSH2 0x100 EXP DUP2 SLOAD DUP2 PUSH1 0xFF MUL NOT AND SWAP1 DUP4 ISZERO ISZERO MUL OR SWAP1 SSTORE POP PUSH1 0x0 PUSH1 0x5 PUSH1 0x0 DUP9 PUSH20 0xFFFFFFFFFFFFFFFFFFFFFFFFFFFFFFFFFFFFFFFF AND PUSH20 0xFFFFFFFFFFFFFFFFFFFFFFFFFFFFFFFFFFFFFFFF AND DUP2 MSTORE PUSH1 0x20 ADD SWAP1 DUP2 MSTORE PUSH1 0x20 ADD PUSH1 0x0 KECCAK256 SWAP1 POP DUP7 DUP2 PUSH1 0x0 ADD PUSH1 0x0 PUSH2 0x100 EXP DUP2 SLOAD DUP2 PUSH20 0xFFFFFFFFFFFFFFFFFFFFFFFFFFFFFFFFFFFFFFFF MUL NOT AND SWAP1 DUP4 PUSH20 0xFFFFFFFFFFFFFFFFFFFFFFFFFFFFFFFFFFFFFFFF AND MUL OR SWAP1 SSTORE POP DUP6 DUP2 PUSH1 0x1 ADD SWAP1 DUP2 PUSH2 0x10CA SWAP2 SWAP1 PUSH2 0x1FCB JUMP JUMPDEST POP DUP5 DUP2 PUSH1 0x2 ADD SWAP1 DUP2 PUSH2 0x10DC SWAP2 SWAP1 PUSH2 0x1FCB JUMP JUMPDEST POP DUP4 DUP2 PUSH1 0x3 ADD SWAP1 DUP2 PUSH2 0x10EE SWAP2 SWAP1 PUSH2 0x1FCB JUMP JUMPDEST POP DUP3 DUP2 PUSH1 0x4 ADD SWAP1 DUP2 PUSH2 0x1100 SWAP2 SWAP1 PUSH2 0x1FCB JUMP JUMPDEST POP DUP2 DUP2 PUSH1 0x5 ADD SWAP1 DUP2 PUSH2 0x1112 SWAP2 SWAP1 PUSH2 0x1FCB JUMP JUMPDEST POP PUSH1 0x0 DUP2 PUSH1 0x6 ADD DUP2 SWAP1 SSTORE POP PUSH1 0x0 DUP2 PUSH1 0x7 ADD PUSH1 0x0 PUSH2 0x100 EXP DUP2 SLOAD DUP2 PUSH1 0xFF MUL NOT AND SWAP1 DUP4 ISZERO ISZERO MUL OR SWAP1 SSTORE POP CALLER DUP2 PUSH1 0x9 ADD PUSH1 0x0 PUSH2 0x100 EXP DUP2 SLOAD DUP2 PUSH20 0xFFFFFFFFFFFFFFFFFFFFFFFFFFFFFFFFFFFFFFFF MUL NOT AND SWAP1 DUP4 PUSH20 0xFFFFFFFFFFFFFFFFFFFFFFFFFFFFFFFFFFFFFFFF AND MUL OR SWAP1 SSTORE POP PUSH1 0x6 PUSH1 0x0 CALLER PUSH20 0xFFFFFFFFFFFFFFFFFFFFFFFFFFFFFFFFFFFFFFFF AND PUSH20 0xFFFFFFFFFFFFFFFFFFFFFFFFFFFFFFFFFFFFFFFF AND DUP2 MSTORE PUSH1 0x20 ADD SWAP1 DUP2 MSTORE PUSH1 0x20 ADD PUSH1 0x0 KECCAK256 PUSH1 0x1 ADD DUP2 PUSH1 0x8 ADD SWAP1 DUP2 PUSH2 0x11CF SWAP2 SWAP1 PUSH2 0x20C8 JUMP JUMPDEST POP PUSH1 0x0 PUSH1 0x40 MLOAD DUP1 PUSH2 0x140 ADD PUSH1 0x40 MSTORE DUP1 DUP10 PUSH20 0xFFFFFFFFFFFFFFFFFFFFFFFFFFFFFFFFFFFFFFFF AND DUP2 MSTORE PUSH1 0x20 ADD DUP9 DUP2 MSTORE PUSH1 0x20 ADD DUP8 DUP2 MSTORE PUSH1 0x20 ADD DUP7 DUP2 MSTORE PUSH1 0x20 ADD DUP6 DUP2 MSTORE PUSH1 0x20 ADD DUP5 DUP2 MSTORE PUSH1 0x20 ADD PUSH1 0x0 DUP2 MSTORE PUSH1 0x20 ADD PUSH1 0x0 ISZERO ISZERO DUP2 MSTORE PUSH1 0x20 ADD PUSH1 0x6 PUSH1 0x0 CALLER PUSH20 0xFFFFFFFFFFFFFFFFFFFFFFFFFFFFFFFFFFFFFFFF AND PUSH20 0xFFFFFFFFFFFFFFFFFFFFFFFFFFFFFFFFFFFFFFFF AND DUP2 MSTORE PUSH1 0x20 ADD SWAP1 DUP2 MSTORE PUSH1 0x20 ADD PUSH1 0x0 KECCAK256 PUSH1 0x1 ADD DUP1 SLOAD PUSH2 0x1275 SWAP1 PUSH2 0x1DEE JUMP JUMPDEST DUP1 PUSH1 0x1F ADD PUSH1 0x20 DUP1 SWAP2 DIV MUL PUSH1 0x20 ADD PUSH1 0x40 MLOAD SWAP1 DUP2 ADD PUSH1 0x40 MSTORE DUP1 SWAP3 SWAP2 SWAP1 DUP2 DUP2 MSTORE PUSH1 0x20 ADD DUP3 DUP1 SLOAD PUSH2 0x12A1 SWAP1 PUSH2 0x1DEE JUMP JUMPDEST DUP1 ISZERO PUSH2 0x12EE JUMPI DUP1 PUSH1 0x1F LT PUSH2 0x12C3 JUMPI PUSH2 0x100 DUP1 DUP4 SLOAD DIV MUL DUP4 MSTORE SWAP2 PUSH1 0x20 ADD SWAP2 PUSH2 0x12EE JUMP JUMPDEST DUP3 ADD SWAP2 SWAP1 PUSH1 0x0 MSTORE PUSH1 0x20 PUSH1 0x0 KECCAK256 SWAP1 JUMPDEST DUP2 SLOAD DUP2 MSTORE SWAP1 PUSH1 0x1 ADD SWAP1 PUSH1 0x20 ADD DUP1 DUP4 GT PUSH2 0x12D1 JUMPI DUP3 SWAP1 SUB PUSH1 0x1F AND DUP3 ADD SWAP2 JUMPDEST POP POP POP POP POP DUP2 MSTORE PUSH1 0x20 ADD CALLER PUSH20 0xFFFFFFFFFFFFFFFFFFFFFFFFFFFFFFFFFFFFFFFF AND DUP2 MSTORE POP SWAP1 DUP1 PUSH1 0x1 DUP2 SLOAD ADD DUP1 DUP3 SSTORE DUP1 SWAP2 POP POP PUSH1 0x1 SWAP1 SUB SWAP1 PUSH1 0x0 MSTORE PUSH1 0x20 PUSH1 0x0 KECCAK256 SWAP1 PUSH1 0xA MUL ADD PUSH1 0x0 SWAP1 SWAP2 SWAP1 SWAP2 SWAP1 SWAP2 POP PUSH1 0x0 DUP3 ADD MLOAD DUP2 PUSH1 0x0 ADD PUSH1 0x0 PUSH2 0x100 EXP DUP2 SLOAD DUP2 PUSH20 0xFFFFFFFFFFFFFFFFFFFFFFFFFFFFFFFFFFFFFFFF MUL NOT AND SWAP1 DUP4 PUSH20 0xFFFFFFFFFFFFFFFFFFFFFFFFFFFFFFFFFFFFFFFF AND MUL OR SWAP1 SSTORE POP PUSH1 0x20 DUP3 ADD MLOAD DUP2 PUSH1 0x1 ADD SWAP1 DUP2 PUSH2 0x1397 SWAP2 SWAP1 PUSH2 0x1FCB JUMP JUMPDEST POP PUSH1 0x40 DUP3 ADD MLOAD DUP2 PUSH1 0x2 ADD SWAP1 DUP2 PUSH2 0x13AD SWAP2 SWAP1 PUSH2 0x1FCB JUMP JUMPDEST POP PUSH1 0x60 DUP3 ADD MLOAD DUP2 PUSH1 0x3 ADD SWAP1 DUP2 PUSH2 0x13C3 SWAP2 SWAP1 PUSH2 0x1FCB JUMP JUMPDEST POP PUSH1 0x80 DUP3 ADD MLOAD DUP2 PUSH1 0x4 ADD SWAP1 DUP2 PUSH2 0x13D9 SWAP2 SWAP1 PUSH2 0x1FCB JUMP JUMPDEST POP PUSH1 0xA0 DUP3 ADD MLOAD DUP2 PUSH1 0x5 ADD SWAP1 DUP2 PUSH2 0x13EF SWAP2 SWAP1 PUSH2 0x1FCB JUMP JUMPDEST POP PUSH1 0xC0 DUP3 ADD MLOAD DUP2 PUSH1 0x6 ADD SSTORE PUSH1 0xE0 DUP3 ADD MLOAD DUP2 PUSH1 0x7 ADD PUSH1 0x0 PUSH2 0x100 EXP DUP2 SLOAD DUP2 PUSH1 0xFF MUL NOT AND SWAP1 DUP4 ISZERO ISZERO MUL OR SWAP1 SSTORE POP PUSH2 0x100 DUP3 ADD MLOAD DUP2 PUSH1 0x8 ADD SWAP1 DUP2 PUSH2 0x1430 SWAP2 SWAP1 PUSH2 0x1FCB JUMP JUMPDEST POP PUSH2 0x120 DUP3 ADD MLOAD DUP2 PUSH1 0x9 ADD PUSH1 0x0 PUSH2 0x100 EXP DUP2 SLOAD DUP2 PUSH20 0xFFFFFFFFFFFFFFFFFFFFFFFFFFFFFFFFFFFFFFFF MUL NOT AND SWAP1 DUP4 PUSH20 0xFFFFFFFFFFFFFFFFFFFFFFFFFFFFFFFFFFFFFFFF AND MUL OR SWAP1 SSTORE POP POP POP POP POP POP POP POP POP POP JUMP JUMPDEST PUSH1 0x0 DUP2 MLOAD SWAP1 POP SWAP2 SWAP1 POP JUMP JUMPDEST PUSH1 0x0 DUP3 DUP3 MSTORE PUSH1 0x20 DUP3 ADD SWAP1 POP SWAP3 SWAP2 POP POP JUMP JUMPDEST PUSH1 0x0 DUP2 SWAP1 POP PUSH1 0x20 DUP3 ADD SWAP1 POP SWAP2 SWAP1 POP JUMP JUMPDEST PUSH1 0x0 PUSH20 0xFFFFFFFFFFFFFFFFFFFFFFFFFFFFFFFFFFFFFFFF DUP3 AND SWAP1 POP SWAP2 SWAP1 POP JUMP JUMPDEST PUSH1 0x0 PUSH2 0x14DB DUP3 PUSH2 0x14B0 JUMP JUMPDEST SWAP1 POP SWAP2 SWAP1 POP JUMP JUMPDEST PUSH2 0x14EB DUP2 PUSH2 0x14D0 JUMP JUMPDEST DUP3 MSTORE POP POP JUMP JUMPDEST PUSH1 0x0 PUSH2 0x14FD DUP4 DUP4 PUSH2 0x14E2 JUMP JUMPDEST PUSH1 0x20 DUP4 ADD SWAP1 POP SWAP3 SWAP2 POP POP JUMP JUMPDEST PUSH1 0x0 PUSH1 0x20 DUP3 ADD SWAP1 POP SWAP2 SWAP1 POP JUMP JUMPDEST PUSH1 0x0 PUSH2 0x1521 DUP3 PUSH2 0x1484 JUMP JUMPDEST PUSH2 0x152B DUP2 DUP6 PUSH2 0x148F JUMP JUMPDEST SWAP4 POP PUSH2 0x1536 DUP4 PUSH2 0x14A0 JUMP JUMPDEST DUP1 PUSH1 0x0 JUMPDEST DUP4 DUP2 LT ISZERO PUSH2 0x1567 JUMPI DUP2 MLOAD PUSH2 0x154E DUP9 DUP3 PUSH2 0x14F1 JUMP JUMPDEST SWAP8 POP PUSH2 0x1559 DUP4 PUSH2 0x1509 JUMP JUMPDEST SWAP3 POP POP PUSH1 0x1 DUP2 ADD SWAP1 POP PUSH2 0x153A JUMP JUMPDEST POP DUP6 SWAP4 POP POP POP POP SWAP3 SWAP2 POP POP JUMP JUMPDEST PUSH1 0x0 DUP2 MLOAD SWAP1 POP SWAP2 SWAP1 POP JUMP JUMPDEST PUSH1 0x0 DUP3 DUP3 MSTORE PUSH1 0x20 DUP3 ADD SWAP1 POP SWAP3 SWAP2 POP POP JUMP JUMPDEST PUSH1 0x0 DUP2 SWAP1 POP PUSH1 0x20 DUP3 ADD SWAP1 POP SWAP2 SWAP1 POP JUMP JUMPDEST PUSH1 0x0 DUP2 MLOAD SWAP1 POP SWAP2 SWAP1 POP JUMP JUMPDEST PUSH1 0x0 DUP3 DUP3 MSTORE PUSH1 0x20 DUP3 ADD SWAP1 POP SWAP3 SWAP2 POP POP JUMP JUMPDEST PUSH1 0x0 JUMPDEST DUP4 DUP2 LT ISZERO PUSH2 0x15DA JUMPI DUP1 DUP3 ADD MLOAD DUP2 DUP5 ADD MSTORE PUSH1 0x20 DUP2 ADD SWAP1 POP PUSH2 0x15BF JUMP JUMPDEST PUSH1 0x0 DUP5 DUP5 ADD MSTORE POP POP POP POP JUMP JUMPDEST PUSH1 0x0 PUSH1 0x1F NOT PUSH1 0x1F DUP4 ADD AND SWAP1 POP SWAP2 SWAP1 POP JUMP JUMPDEST PUSH1 0x0 PUSH2 0x1602 DUP3 PUSH2 0x15A0 JUMP JUMPDEST PUSH2 0x160C DUP2 DUP6 PUSH2 0x15AB JUMP JUMPDEST SWAP4 POP PUSH2 0x161C DUP2 DUP6 PUSH1 0x20 DUP7 ADD PUSH2 0x15BC JUMP JUMPDEST PUSH2 0x1625 DUP2 PUSH2 0x15E6 JUMP JUMPDEST DUP5 ADD SWAP2 POP POP SWAP3 SWAP2 POP POP JUMP JUMPDEST PUSH1 0x0 PUSH2 0x163C DUP4 DUP4 PUSH2 0x15F7 JUMP JUMPDEST SWAP1 POP SWAP3 SWAP2 POP POP JUMP JUMPDEST PUSH1 0x0 PUSH1 0x20 DUP3 ADD SWAP1 POP SWAP2 SWAP1 POP JUMP JUMPDEST PUSH1 0x0 PUSH2 0x165C DUP3 PUSH2 0x1574 JUMP JUMPDEST PUSH2 0x1666 DUP2 DUP6 PUSH2 0x157F JUMP JUMPDEST SWAP4 POP DUP4 PUSH1 0x20 DUP3 MUL DUP6 ADD PUSH2 0x1678 DUP6 PUSH2 0x1590 JUMP JUMPDEST DUP1 PUSH1 0x0 JUMPDEST DUP6 DUP2 LT ISZERO PUSH2 0x16B4 JUMPI DUP5 DUP5 SUB DUP10 MSTORE DUP2 MLOAD PUSH2 0x1695 DUP6 DUP3 PUSH2 0x1630 JUMP JUMPDEST SWAP5 POP PUSH2 0x16A0 DUP4 PUSH2 0x1644 JUMP JUMPDEST SWAP3 POP PUSH1 0x20 DUP11 ADD SWAP10 POP POP PUSH1 0x1 DUP2 ADD SWAP1 POP PUSH2 0x167C JUMP JUMPDEST POP DUP3 SWAP8 POP DUP8 SWAP6 POP POP POP POP POP POP SWAP3 SWAP2 POP POP JUMP JUMPDEST PUSH1 0x0 PUSH1 0x40 DUP3 ADD SWAP1 POP DUP2 DUP2 SUB PUSH1 0x0 DUP4 ADD MSTORE PUSH2 0x16E0 DUP2 DUP6 PUSH2 0x1516 JUMP JUMPDEST SWAP1 POP DUP2 DUP2 SUB PUSH1 0x20 DUP4 ADD MSTORE PUSH2 0x16F4 DUP2 DUP5 PUSH2 0x1651 JUMP JUMPDEST SWAP1 POP SWAP4 SWAP3 POP POP POP JUMP JUMPDEST PUSH1 0x0 PUSH1 0x40 MLOAD SWAP1 POP SWAP1 JUMP JUMPDEST PUSH1 0x0 DUP1 REVERT JUMPDEST PUSH1 0x0 DUP1 REVERT JUMPDEST PUSH2 0x171A DUP2 PUSH2 0x14D0 JUMP JUMPDEST DUP2 EQ PUSH2 0x1725 JUMPI PUSH1 0x0 DUP1 REVERT JUMPDEST POP JUMP JUMPDEST PUSH1 0x0 DUP2 CALLDATALOAD SWAP1 POP PUSH2 0x1737 DUP2 PUSH2 0x1711 JUMP JUMPDEST SWAP3 SWAP2 POP POP JUMP JUMPDEST PUSH1 0x0 DUP1 REVERT JUMPDEST PUSH1 0x0 DUP1 REVERT JUMPDEST PUSH32 0x4E487B7100000000000000000000000000000000000000000000000000000000 PUSH1 0x0 MSTORE PUSH1 0x41 PUSH1 0x4 MSTORE PUSH1 0x24 PUSH1 0x0 REVERT JUMPDEST PUSH2 0x177F DUP3 PUSH2 0x15E6 JUMP JUMPDEST DUP2 ADD DUP2 DUP2 LT PUSH8 0xFFFFFFFFFFFFFFFF DUP3 GT OR ISZERO PUSH2 0x179E JUMPI PUSH2 0x179D PUSH2 0x1747 JUMP JUMPDEST JUMPDEST DUP1 PUSH1 0x40 MSTORE POP POP POP JUMP JUMPDEST PUSH1 0x0 PUSH2 0x17B1 PUSH2 0x16FD JUMP JUMPDEST SWAP1 POP PUSH2 0x17BD DUP3 DUP3 PUSH2 0x1776 JUMP JUMPDEST SWAP2 SWAP1 POP JUMP JUMPDEST PUSH1 0x0 PUSH8 0xFFFFFFFFFFFFFFFF DUP3 GT ISZERO PUSH2 0x17DD JUMPI PUSH2 0x17DC PUSH2 0x1747 JUMP JUMPDEST JUMPDEST PUSH2 0x17E6 DUP3 PUSH2 0x15E6 JUMP JUMPDEST SWAP1 POP PUSH1 0x20 DUP2 ADD SWAP1 POP SWAP2 SWAP1 POP JUMP JUMPDEST DUP3 DUP2 DUP4 CALLDATACOPY PUSH1 0x0 DUP4 DUP4 ADD MSTORE POP POP POP JUMP JUMPDEST PUSH1 0x0 PUSH2 0x1815 PUSH2 0x1810 DUP5 PUSH2 0x17C2 JUMP JUMPDEST PUSH2 0x17A7 JUMP JUMPDEST SWAP1 POP DUP3 DUP2 MSTORE PUSH1 0x20 DUP2 ADD DUP5 DUP5 DUP5 ADD GT ISZERO PUSH2 0x1831 JUMPI PUSH2 0x1830 PUSH2 0x1742 JUMP JUMPDEST JUMPDEST PUSH2 0x183C DUP5 DUP3 DUP6 PUSH2 0x17F3 JUMP JUMPDEST POP SWAP4 SWAP3 POP POP POP JUMP JUMPDEST PUSH1 0x0 DUP3 PUSH1 0x1F DUP4 ADD SLT PUSH2 0x1859 JUMPI PUSH2 0x1858 PUSH2 0x173D JUMP JUMPDEST JUMPDEST DUP2 CALLDATALOAD PUSH2 0x1869 DUP5 DUP3 PUSH1 0x20 DUP7 ADD PUSH2 0x1802 JUMP JUMPDEST SWAP2 POP POP SWAP3 SWAP2 POP POP JUMP JUMPDEST PUSH1 0x0 DUP1 PUSH1 0x0 DUP1 PUSH1 0x80 DUP6 DUP8 SUB SLT ISZERO PUSH2 0x188C JUMPI PUSH2 0x188B PUSH2 0x1707 JUMP JUMPDEST JUMPDEST PUSH1 0x0 PUSH2 0x189A DUP8 DUP3 DUP9 ADD PUSH2 0x1728 JUMP JUMPDEST SWAP5 POP POP PUSH1 0x20 DUP6 ADD CALLDATALOAD PUSH8 0xFFFFFFFFFFFFFFFF DUP2 GT ISZERO PUSH2 0x18BB JUMPI PUSH2 0x18BA PUSH2 0x170C JUMP JUMPDEST JUMPDEST PUSH2 0x18C7 DUP8 DUP3 DUP9 ADD PUSH2 0x1844 JUMP JUMPDEST SWAP4 POP POP PUSH1 0x40 DUP6 ADD CALLDATALOAD PUSH8 0xFFFFFFFFFFFFFFFF DUP2 GT ISZERO PUSH2 0x18E8 JUMPI PUSH2 0x18E7 PUSH2 0x170C JUMP JUMPDEST JUMPDEST PUSH2 0x18F4 DUP8 DUP3 DUP9 ADD PUSH2 0x1844 JUMP JUMPDEST SWAP3 POP POP PUSH1 0x60 DUP6 ADD CALLDATALOAD PUSH8 0xFFFFFFFFFFFFFFFF DUP2 GT ISZERO PUSH2 0x1915 JUMPI PUSH2 0x1914 PUSH2 0x170C JUMP JUMPDEST JUMPDEST PUSH2 0x1921 DUP8 DUP3 DUP9 ADD PUSH2 0x1844 JUMP JUMPDEST SWAP2 POP POP SWAP3 SWAP6 SWAP2 SWAP5 POP SWAP3 POP JUMP JUMPDEST PUSH1 0x0 PUSH1 0x20 DUP3 DUP5 SUB SLT ISZERO PUSH2 0x1943 JUMPI PUSH2 0x1942 PUSH2 0x1707 JUMP JUMPDEST JUMPDEST PUSH1 0x0 PUSH2 0x1951 DUP5 DUP3 DUP6 ADD PUSH2 0x1728 JUMP JUMPDEST SWAP2 POP POP SWAP3 SWAP2 POP POP JUMP JUMPDEST PUSH1 0x0 DUP2 SWAP1 POP SWAP2 SWAP1 POP JUMP JUMPDEST PUSH2 0x196D DUP2 PUSH2 0x195A JUMP JUMPDEST DUP2 EQ PUSH2 0x1978 JUMPI PUSH1 0x0 DUP1 REVERT JUMPDEST POP JUMP JUMPDEST PUSH1 0x0 DUP2 CALLDATALOAD SWAP1 POP PUSH2 0x198A DUP2 PUSH2 0x1964 JUMP JUMPDEST SWAP3 SWAP2 POP POP JUMP JUMPDEST PUSH1 0x0 PUSH1 0x20 DUP3 DUP5 SUB SLT ISZERO PUSH2 0x19A6 JUMPI PUSH2 0x19A5 PUSH2 0x1707 JUMP JUMPDEST JUMPDEST PUSH1 0x0 PUSH2 0x19B4 DUP5 DUP3 DUP6 ADD PUSH2 0x197B JUMP JUMPDEST SWAP2 POP POP SWAP3 SWAP2 POP POP JUMP JUMPDEST PUSH2 0x19C6 DUP2 PUSH2 0x14D0 JUMP JUMPDEST DUP3 MSTORE POP POP JUMP JUMPDEST PUSH1 0x0 DUP3 DUP3 MSTORE PUSH1 0x20 DUP3 ADD SWAP1 POP SWAP3 SWAP2 POP POP JUMP JUMPDEST PUSH1 0x0 PUSH2 0x19E8 DUP3 PUSH2 0x15A0 JUMP JUMPDEST PUSH2 0x19F2 DUP2 DUP6 PUSH2 0x19CC JUMP JUMPDEST SWAP4 POP PUSH2 0x1A02 DUP2 DUP6 PUSH1 0x20 DUP7 ADD PUSH2 0x15BC JUMP JUMPDEST PUSH2 0x1A0B DUP2 PUSH2 0x15E6 JUMP JUMPDEST DUP5 ADD SWAP2 POP POP SWAP3 SWAP2 POP POP JUMP JUMPDEST PUSH1 0x0 DUP2 ISZERO ISZERO SWAP1 POP SWAP2 SWAP1 POP JUMP JUMPDEST PUSH2 0x1A2B DUP2 PUSH2 0x1A16 JUMP JUMPDEST DUP3 MSTORE POP POP JUMP JUMPDEST PUSH1 0x0 PUSH1 0xA0 DUP3 ADD SWAP1 POP PUSH2 0x1A46 PUSH1 0x0 DUP4 ADD DUP9 PUSH2 0x19BD JUMP JUMPDEST DUP2 DUP2 SUB PUSH1 0x20 DUP4 ADD MSTORE PUSH2 0x1A58 DUP2 DUP8 PUSH2 0x19DD JUMP JUMPDEST SWAP1 POP DUP2 DUP2 SUB PUSH1 0x40 DUP4 ADD MSTORE PUSH2 0x1A6C DUP2 DUP7 PUSH2 0x19DD JUMP JUMPDEST SWAP1 POP DUP2 DUP2 SUB PUSH1 0x60 DUP4 ADD MSTORE PUSH2 0x1A80 DUP2 DUP6 PUSH2 0x19DD JUMP JUMPDEST SWAP1 POP PUSH2 0x1A8F PUSH1 0x80 DUP4 ADD DUP5 PUSH2 0x1A22 JUMP JUMPDEST SWAP7 SWAP6 POP POP POP POP POP POP JUMP JUMPDEST PUSH2 0x1AA2 DUP2 PUSH2 0x195A JUMP JUMPDEST DUP3 MSTORE POP POP JUMP JUMPDEST PUSH1 0x0 PUSH2 0x140 DUP3 ADD SWAP1 POP PUSH2 0x1ABE PUSH1 0x0 DUP4 ADD DUP14 PUSH2 0x19BD JUMP JUMPDEST DUP2 DUP2 SUB PUSH1 0x20 DUP4 ADD MSTORE PUSH2 0x1AD0 DUP2 DUP13 PUSH2 0x19DD JUMP JUMPDEST SWAP1 POP DUP2 DUP2 SUB PUSH1 0x40 DUP4 ADD MSTORE PUSH2 0x1AE4 DUP2 DUP12 PUSH2 0x19DD JUMP JUMPDEST SWAP1 POP DUP2 DUP2 SUB PUSH1 0x60 DUP4 ADD MSTORE PUSH2 0x1AF8 DUP2 DUP11 PUSH2 0x19DD JUMP JUMPDEST SWAP1 POP DUP2 DUP2 SUB PUSH1 0x80 DUP4 ADD MSTORE PUSH2 0x1B0C DUP2 DUP10 PUSH2 0x19DD JUMP JUMPDEST SWAP1 POP DUP2 DUP2 SUB PUSH1 0xA0 DUP4 ADD MSTORE PUSH2 0x1B20 DUP2 DUP9 PUSH2 0x19DD JUMP JUMPDEST SWAP1 POP PUSH2 0x1B2F PUSH1 0xC0 DUP4 ADD DUP8 PUSH2 0x1A99 JUMP JUMPDEST PUSH2 0x1B3C PUSH1 0xE0 DUP4 ADD DUP7 PUSH2 0x1A22 JUMP JUMPDEST DUP2 DUP2 SUB PUSH2 0x100 DUP4 ADD MSTORE PUSH2 0x1B4F DUP2 DUP6 PUSH2 0x19DD JUMP JUMPDEST SWAP1 POP PUSH2 0x1B5F PUSH2 0x120 DUP4 ADD DUP5 PUSH2 0x19BD JUMP JUMPDEST SWAP12 SWAP11 POP POP POP POP POP POP POP POP POP POP POP JUMP JUMPDEST PUSH1 0x0 DUP1 PUSH1 0x0 DUP1 PUSH1 0x0 DUP1 PUSH1 0xC0 DUP8 DUP10 SUB SLT ISZERO PUSH2 0x1B8B JUMPI PUSH2 0x1B8A PUSH2 0x1707 JUMP JUMPDEST JUMPDEST PUSH1 0x0 PUSH2 0x1B99 DUP10 DUP3 DUP11 ADD PUSH2 0x1728 JUMP JUMPDEST SWAP7 POP POP PUSH1 0x20 DUP8 ADD CALLDATALOAD PUSH8 0xFFFFFFFFFFFFFFFF DUP2 GT ISZERO PUSH2 0x1BBA JUMPI PUSH2 0x1BB9 PUSH2 0x170C JUMP JUMPDEST JUMPDEST PUSH2 0x1BC6 DUP10 DUP3 DUP11 ADD PUSH2 0x1844 JUMP JUMPDEST SWAP6 POP POP PUSH1 0x40 DUP8 ADD CALLDATALOAD PUSH8 0xFFFFFFFFFFFFFFFF DUP2 GT ISZERO PUSH2 0x1BE7 JUMPI PUSH2 0x1BE6 PUSH2 0x170C JUMP JUMPDEST JUMPDEST PUSH2 0x1BF3 DUP10 DUP3 DUP11 ADD PUSH2 0x1844 JUMP JUMPDEST SWAP5 POP POP PUSH1 0x60 DUP8 ADD CALLDATALOAD PUSH8 0xFFFFFFFFFFFFFFFF DUP2 GT ISZERO PUSH2 0x1C14 JUMPI PUSH2 0x1C13 PUSH2 0x170C JUMP JUMPDEST JUMPDEST PUSH2 0x1C20 DUP10 DUP3 DUP11 ADD PUSH2 0x1844 JUMP JUMPDEST SWAP4 POP POP PUSH1 0x80 DUP8 ADD CALLDATALOAD PUSH8 0xFFFFFFFFFFFFFFFF DUP2 GT ISZERO PUSH2 0x1C41 JUMPI PUSH2 0x1C40 PUSH2 0x170C JUMP JUMPDEST JUMPDEST PUSH2 0x1C4D DUP10 DUP3 DUP11 ADD PUSH2 0x1844 JUMP JUMPDEST SWAP3 POP POP PUSH1 0xA0 DUP8 ADD CALLDATALOAD PUSH8 0xFFFFFFFFFFFFFFFF DUP2 GT ISZERO PUSH2 0x1C6E JUMPI PUSH2 0x1C6D PUSH2 0x170C JUMP JUMPDEST JUMPDEST PUSH2 0x1C7A DUP10 DUP3 DUP11 ADD PUSH2 0x1844 JUMP JUMPDEST SWAP2 POP POP SWAP3 SWAP6 POP SWAP3 SWAP6 POP SWAP3 SWAP6 JUMP JUMPDEST PUSH32 0x4F6E6C7920617574686F72697A656420697373756572732063616E2063616C6C PUSH1 0x0 DUP3 ADD MSTORE PUSH32 0x20746869732066756E6374696F6E000000000000000000000000000000000000 PUSH1 0x20 DUP3 ADD MSTORE POP JUMP JUMPDEST PUSH1 0x0 PUSH2 0x1CE3 PUSH1 0x2E DUP4 PUSH2 0x19CC JUMP JUMPDEST SWAP2 POP PUSH2 0x1CEE DUP3 PUSH2 0x1C87 JUMP JUMPDEST PUSH1 0x40 DUP3 ADD SWAP1 POP SWAP2 SWAP1 POP JUMP JUMPDEST PUSH1 0x0 PUSH1 0x20 DUP3 ADD SWAP1 POP DUP2 DUP2 SUB PUSH1 0x0 DUP4 ADD MSTORE PUSH2 0x1D12 DUP2 PUSH2 0x1CD6 JUMP JUMPDEST SWAP1 POP SWAP2 SWAP1 POP JUMP JUMPDEST PUSH32 0x4E487B7100000000000000000000000000000000000000000000000000000000 PUSH1 0x0 MSTORE PUSH1 0x32 PUSH1 0x4 MSTORE PUSH1 0x24 PUSH1 0x0 REVERT JUMPDEST PUSH32 0x4E487B7100000000000000000000000000000000000000000000000000000000 PUSH1 0x0 MSTORE PUSH1 0x11 PUSH1 0x4 MSTORE PUSH1 0x24 PUSH1 0x0 REVERT JUMPDEST PUSH1 0x0 PUSH2 0x1D82 DUP3 PUSH2 0x195A JUMP JUMPDEST SWAP2 POP PUSH32 0xFFFFFFFFFFFFFFFFFFFFFFFFFFFFFFFFFFFFFFFFFFFFFFFFFFFFFFFFFFFFFFFF DUP3 SUB PUSH2 0x1DB4 JUMPI PUSH2 0x1DB3 PUSH2 0x1D48 JUMP JUMPDEST JUMPDEST PUSH1 0x1 DUP3 ADD SWAP1 POP SWAP2 SWAP1 POP JUMP JUMPDEST PUSH32 0x4E487B7100000000000000000000000000000000000000000000000000000000 PUSH1 0x0 MSTORE PUSH1 0x22 PUSH1 0x4 MSTORE PUSH1 0x24 PUSH1 0x0 REVERT JUMPDEST PUSH1 0x0 PUSH1 0x2 DUP3 DIV SWAP1 POP PUSH1 0x1 DUP3 AND DUP1 PUSH2 0x1E06 JUMPI PUSH1 0x7F DUP3 AND SWAP2 POP JUMPDEST PUSH1 0x20 DUP3 LT DUP2 SUB PUSH2 0x1E19 JUMPI PUSH2 0x1E18 PUSH2 0x1DBF JUMP JUMPDEST JUMPDEST POP SWAP2 SWAP1 POP JUMP JUMPDEST PUSH1 0x0 DUP2 SWAP1 POP DUP2 PUSH1 0x0 MSTORE PUSH1 0x20 PUSH1 0x0 KECCAK256 SWAP1 POP SWAP2 SWAP1 POP JUMP JUMPDEST PUSH1 0x0 PUSH1 0x20 PUSH1 0x1F DUP4 ADD DIV SWAP1 POP SWAP2 SWAP1 POP JUMP JUMPDEST PUSH1 0x0 DUP3 DUP3 SHL SWAP1 POP SWAP3 SWAP2 POP POP JUMP JUMPDEST PUSH1 0x0 PUSH1 0x8 DUP4 MUL PUSH2 0x1E81 PUSH32 0xFFFFFFFFFFFFFFFFFFFFFFFFFFFFFFFFFFFFFFFFFFFFFFFFFFFFFFFFFFFFFFFF DUP3 PUSH2 0x1E44 JUMP JUMPDEST PUSH2 0x1E8B DUP7 DUP4 PUSH2 0x1E44 JUMP JUMPDEST SWAP6 POP DUP1 NOT DUP5 AND SWAP4 POP DUP1 DUP7 AND DUP5 OR SWAP3 POP POP POP SWAP4 SWAP3 POP POP POP JUMP JUMPDEST PUSH1 0x0 DUP2 SWAP1 POP SWAP2 SWAP1 POP JUMP JUMPDEST PUSH1 0x0 PUSH2 0x1EC8 PUSH2 0x1EC3 PUSH2 0x1EBE DUP5 PUSH2 0x195A JUMP JUMPDEST PUSH2 0x1EA3 JUMP JUMPDEST PUSH2 0x195A JUMP JUMPDEST SWAP1 POP SWAP2 SWAP1 POP JUMP JUMPDEST PUSH1 0x0 DUP2 SWAP1 POP SWAP2 SWAP1 POP JUMP JUMPDEST PUSH2 0x1EE2 DUP4 PUSH2 0x1EAD JUMP JUMPDEST PUSH2 0x1EF6 PUSH2 0x1EEE DUP3 PUSH2 0x1ECF JUMP JUMPDEST DUP5 DUP5 SLOAD PUSH2 0x1E51 JUMP JUMPDEST DUP3 SSTORE POP POP POP POP JUMP JUMPDEST PUSH1 0x0 SWAP1 JUMP JUMPDEST PUSH2 0x1F0B PUSH2 0x1EFE JUMP JUMPDEST PUSH2 0x1F16 DUP2 DUP5 DUP5 PUSH2 0x1ED9 JUMP JUMPDEST POP POP POP JUMP JUMPDEST JUMPDEST DUP2 DUP2 LT ISZERO PUSH2 0x1F3A JUMPI PUSH2 0x1F2F PUSH1 0x0 DUP3 PUSH2 0x1F03 JUMP JUMPDEST PUSH1 0x1 DUP2 ADD SWAP1 POP PUSH2 0x1F1C JUMP JUMPDEST POP POP JUMP JUMPDEST PUSH1 0x1F DUP3 GT ISZERO PUSH2 0x1F7F JUMPI PUSH2 0x1F50 DUP2 PUSH2 0x1E1F JUMP JUMPDEST PUSH2 0x1F59 DUP5 PUSH2 0x1E34 JUMP JUMPDEST DUP2 ADD PUSH1 0x20 DUP6 LT ISZERO PUSH2 0x1F68 JUMPI DUP2 SWAP1 POP JUMPDEST PUSH2 0x1F7C PUSH2 0x1F74 DUP6 PUSH2 0x1E34 JUMP JUMPDEST DUP4 ADD DUP3 PUSH2 0x1F1B JUMP JUMPDEST POP POP JUMPDEST POP POP POP JUMP JUMPDEST PUSH1 0x0 DUP3 DUP3 SHR SWAP1 POP SWAP3 SWAP2 POP POP JUMP JUMPDEST PUSH1 0x0 PUSH2 0x1FA2 PUSH1 0x0 NOT DUP5 PUSH1 0x8 MUL PUSH2 0x1F84 JUMP JUMPDEST NOT DUP1 DUP4 AND SWAP2 POP POP SWAP3 SWAP2 POP POP JUMP JUMPDEST PUSH1 0x0 PUSH2 0x1FBB DUP4 DUP4 PUSH2 0x1F91 JUMP JUMPDEST SWAP2 POP DUP3 PUSH1 0x2 MUL DUP3 OR SWAP1 POP SWAP3 SWAP2 POP POP JUMP JUMPDEST PUSH2 0x1FD4 DUP3 PUSH2 0x15A0 JUMP JUMPDEST PUSH8 0xFFFFFFFFFFFFFFFF DUP2 GT ISZERO PUSH2 0x1FED JUMPI PUSH2 0x1FEC PUSH2 0x1747 JUMP JUMPDEST JUMPDEST PUSH2 0x1FF7 DUP3 SLOAD PUSH2 0x1DEE JUMP JUMPDEST PUSH2 0x2002 DUP3 DUP3 DUP6 PUSH2 0x1F3E JUMP JUMPDEST PUSH1 0x0 PUSH1 0x20 SWAP1 POP PUSH1 0x1F DUP4 GT PUSH1 0x1 DUP2 EQ PUSH2 0x2035 JUMPI PUSH1 0x0 DUP5 ISZERO PUSH2 0x2023 JUMPI DUP3 DUP8 ADD MLOAD SWAP1 POP JUMPDEST PUSH2 0x202D DUP6 DUP3 PUSH2 0x1FAF JUMP JUMPDEST DUP7 SSTORE POP PUSH2 0x2095 JUMP JUMPDEST PUSH1 0x1F NOT DUP5 AND PUSH2 0x2043 DUP7 PUSH2 0x1E1F JUMP JUMPDEST PUSH1 0x0 JUMPDEST DUP3 DUP2 LT ISZERO PUSH2 0x206B JUMPI DUP5 DUP10 ADD MLOAD DUP3 SSTORE PUSH1 0x1 DUP3 ADD SWAP2 POP PUSH1 0x20 DUP6 ADD SWAP5 POP PUSH1 0x20 DUP2 ADD SWAP1 POP PUSH2 0x2046 JUMP JUMPDEST DUP7 DUP4 LT ISZERO PUSH2 0x2088 JUMPI DUP5 DUP10 ADD MLOAD PUSH2 0x2084 PUSH1 0x1F DUP10 AND DUP3 PUSH2 0x1F91 JUMP JUMPDEST DUP4 SSTORE POP JUMPDEST PUSH1 0x1 PUSH1 0x2 DUP9 MUL ADD DUP9 SSTORE POP POP POP JUMPDEST POP POP POP POP POP POP JUMP JUMPDEST PUSH1 0x0 DUP2 SLOAD SWAP1 POP PUSH2 0x20AC DUP2 PUSH2 0x1DEE JUMP JUMPDEST SWAP1 POP SWAP2 SWAP1 POP JUMP JUMPDEST PUSH1 0x0 DUP2 SWAP1 POP DUP2 PUSH1 0x0 MSTORE PUSH1 0x20 PUSH1 0x0 KECCAK256 SWAP1 POP SWAP2 SWAP1 POP JUMP JUMPDEST DUP2 DUP2 SUB PUSH2 0x20D6 JUMPI POP POP PUSH2 0x21AE JUMP JUMPDEST PUSH2 0x20DF DUP3 PUSH2 0x209D JUMP JUMPDEST PUSH8 0xFFFFFFFFFFFFFFFF DUP2 GT ISZERO PUSH2 0x20F8 JUMPI PUSH2 0x20F7 PUSH2 0x1747 JUMP JUMPDEST JUMPDEST PUSH2 0x2102 DUP3 SLOAD PUSH2 0x1DEE JUMP JUMPDEST PUSH2 0x210D DUP3 DUP3 DUP6 PUSH2 0x1F3E JUMP JUMPDEST PUSH1 0x0 PUSH1 0x1F DUP4 GT PUSH1 0x1 DUP2 EQ PUSH2 0x213C JUMPI PUSH1 0x0 DUP5 ISZERO PUSH2 0x212A JUMPI DUP3 DUP8 ADD SLOAD SWAP1 POP JUMPDEST PUSH2 0x2134 DUP6 DUP3 PUSH2 0x1FAF JUMP JUMPDEST DUP7 SSTORE POP PUSH2 0x21A7 JUMP JUMPDEST PUSH1 0x1F NOT DUP5 AND PUSH2 0x214A DUP8 PUSH2 0x20B3 JUMP JUMPDEST SWAP7 POP PUSH2 0x2155 DUP7 PUSH2 0x1E1F JUMP JUMPDEST PUSH1 0x0 JUMPDEST DUP3 DUP2 LT ISZERO PUSH2 0x217D JUMPI DUP5 DUP10 ADD SLOAD DUP3 SSTORE PUSH1 0x1 DUP3 ADD SWAP2 POP PUSH1 0x1 DUP6 ADD SWAP5 POP PUSH1 0x20 DUP2 ADD SWAP1 POP PUSH2 0x2158 JUMP JUMPDEST DUP7 DUP4 LT ISZERO PUSH2 0x219A JUMPI DUP5 DUP10 ADD SLOAD PUSH2 0x2196 PUSH1 0x1F DUP10 AND DUP3 PUSH2 0x1F91 JUMP JUMPDEST DUP4 SSTORE POP JUMPDEST PUSH1 0x1 PUSH1 0x2 DUP9 MUL ADD DUP9 SSTORE POP POP POP JUMPDEST POP POP POP POP POP POP JUMPDEST JUMP INVALID LOG2 PUSH5 0x6970667358 0x22 SLT KECCAK256 0xE6 DUP6 0xA6 0xEC 0x2F PUSH8 0x618A720110EB68FF 0xEE 0xC2 CALLVALUE 0xEC 0xD9 0xC6 0xBA 0xB9 LOG2 0x4B PUSH23 0x4793E61289ABE064736F6C634300081200330000000000 "
				},
				"gasEstimates": {
					"creation": {
						"codeDepositCost": "1735600",
						"executionCost": "26183",
						"totalCost": "1761783"
					},
					"external": {
						"_StudentCertificate(uint256)": "infinite",
						"_allAdmin(uint256)": "infinite",
						"addAdmin(address,string,string,string)": "infinite",
						"checkRevokedCertificate()": "infinite",
						"issueCertificate(address,string,string,string,string,string)": "infinite",
						"revokeCertificate(address)": "infinite"
					}
				},
				"methodIdentifiers": {
					"_StudentCertificate(uint256)": "abafef87",
					"_allAdmin(uint256)": "70f9ff87",
					"addAdmin(address,string,string,string)": "03825d6c",
					"checkRevokedCertificate()": "02a3eb09",
					"issueCertificate(address,string,string,string,string,string)": "de8c98fd",
					"revokeCertificate(address)": "5f893bfa"
				}
			},
			"storageLayout": {
				"storage": [
					{
						"astId": 37,
						"contract": "contracts/setAccessTime.sol:Certificate",
						"label": "_StudentCertificate",
						"offset": 0,
						"slot": "0",
						"type": "t_array(t_struct(Student)22_storage)dyn_storage"
					},
					{
						"astId": 41,
						"contract": "contracts/setAccessTime.sol:Certificate",
						"label": "_allAdmin",
						"offset": 0,
						"slot": "1",
						"type": "t_array(t_struct(Admin)33_storage)dyn_storage"
					},
					{
						"astId": 45,
						"contract": "contracts/setAccessTime.sol:Certificate",
						"label": "authorizedIssuers",
						"offset": 0,
						"slot": "2",
						"type": "t_mapping(t_address,t_bool)"
					},
					{
						"astId": 49,
						"contract": "contracts/setAccessTime.sol:Certificate",
						"label": "authorizedViewers",
						"offset": 0,
						"slot": "3",
						"type": "t_mapping(t_address,t_bool)"
					},
					{
						"astId": 53,
						"contract": "contracts/setAccessTime.sol:Certificate",
						"label": "authorizedStudent",
						"offset": 0,
						"slot": "4",
						"type": "t_mapping(t_address,t_bool)"
					},
					{
						"astId": 58,
						"contract": "contracts/setAccessTime.sol:Certificate",
						"label": "students",
						"offset": 0,
						"slot": "5",
						"type": "t_mapping(t_address,t_struct(Student)22_storage)"
					},
					{
						"astId": 63,
						"contract": "contracts/setAccessTime.sol:Certificate",
						"label": "admins",
						"offset": 0,
						"slot": "6",
						"type": "t_mapping(t_address,t_struct(Admin)33_storage)"
					},
					{
						"astId": 67,
						"contract": "contracts/setAccessTime.sol:Certificate",
						"label": "viewerAccessTimes",
						"offset": 0,
						"slot": "7",
						"type": "t_mapping(t_address,t_uint256)"
					}
				],
				"types": {
					"t_address": {
						"encoding": "inplace",
						"label": "address",
						"numberOfBytes": "20"
					},
					"t_array(t_struct(Admin)33_storage)dyn_storage": {
						"base": "t_struct(Admin)33_storage",
						"encoding": "dynamic_array",
						"label": "struct Certificate.Admin[]",
						"numberOfBytes": "32"
					},
					"t_array(t_struct(Student)22_storage)dyn_storage": {
						"base": "t_struct(Student)22_storage",
						"encoding": "dynamic_array",
						"label": "struct Certificate.Student[]",
						"numberOfBytes": "32"
					},
					"t_bool": {
						"encoding": "inplace",
						"label": "bool",
						"numberOfBytes": "1"
					},
					"t_mapping(t_address,t_bool)": {
						"encoding": "mapping",
						"key": "t_address",
						"label": "mapping(address => bool)",
						"numberOfBytes": "32",
						"value": "t_bool"
					},
					"t_mapping(t_address,t_struct(Admin)33_storage)": {
						"encoding": "mapping",
						"key": "t_address",
						"label": "mapping(address => struct Certificate.Admin)",
						"numberOfBytes": "32",
						"value": "t_struct(Admin)33_storage"
					},
					"t_mapping(t_address,t_struct(Student)22_storage)": {
						"encoding": "mapping",
						"key": "t_address",
						"label": "mapping(address => struct Certificate.Student)",
						"numberOfBytes": "32",
						"value": "t_struct(Student)22_storage"
					},
					"t_mapping(t_address,t_uint256)": {
						"encoding": "mapping",
						"key": "t_address",
						"label": "mapping(address => uint256)",
						"numberOfBytes": "32",
						"value": "t_uint256"
					},
					"t_string_storage": {
						"encoding": "bytes",
						"label": "string",
						"numberOfBytes": "32"
					},
					"t_struct(Admin)33_storage": {
						"encoding": "inplace",
						"label": "struct Certificate.Admin",
						"members": [
							{
								"astId": 24,
								"contract": "contracts/setAccessTime.sol:Certificate",
								"label": "addminAddress",
								"offset": 0,
								"slot": "0",
								"type": "t_address"
							},
							{
								"astId": 26,
								"contract": "contracts/setAccessTime.sol:Certificate",
								"label": "name",
								"offset": 0,
								"slot": "1",
								"type": "t_string_storage"
							},
							{
								"astId": 28,
								"contract": "contracts/setAccessTime.sol:Certificate",
								"label": "adminId",
								"offset": 0,
								"slot": "2",
								"type": "t_string_storage"
							},
							{
								"astId": 30,
								"contract": "contracts/setAccessTime.sol:Certificate",
								"label": "position",
								"offset": 0,
								"slot": "3",
								"type": "t_string_storage"
							},
							{
								"astId": 32,
								"contract": "contracts/setAccessTime.sol:Certificate",
								"label": "adminStatus",
								"offset": 0,
								"slot": "4",
								"type": "t_bool"
							}
						],
						"numberOfBytes": "160"
					},
					"t_struct(Student)22_storage": {
						"encoding": "inplace",
						"label": "struct Certificate.Student",
						"members": [
							{
								"astId": 3,
								"contract": "contracts/setAccessTime.sol:Certificate",
								"label": "studentAddress",
								"offset": 0,
								"slot": "0",
								"type": "t_address"
							},
							{
								"astId": 5,
								"contract": "contracts/setAccessTime.sol:Certificate",
								"label": "certificateName",
								"offset": 0,
								"slot": "1",
								"type": "t_string_storage"
							},
							{
								"astId": 7,
								"contract": "contracts/setAccessTime.sol:Certificate",
								"label": "studentName",
								"offset": 0,
								"slot": "2",
								"type": "t_string_storage"
							},
							{
								"astId": 9,
								"contract": "contracts/setAccessTime.sol:Certificate",
								"label": "studentId",
								"offset": 0,
								"slot": "3",
								"type": "t_string_storage"
							},
							{
								"astId": 11,
								"contract": "contracts/setAccessTime.sol:Certificate",
								"label": "faculty",
								"offset": 0,
								"slot": "4",
								"type": "t_string_storage"
							},
							{
								"astId": 13,
								"contract": "contracts/setAccessTime.sol:Certificate",
								"label": "department",
								"offset": 0,
								"slot": "5",
								"type": "t_string_storage"
							},
							{
								"astId": 15,
								"contract": "contracts/setAccessTime.sol:Certificate",
								"label": "accessTime",
								"offset": 0,
								"slot": "6",
								"type": "t_uint256"
							},
							{
								"astId": 17,
								"contract": "contracts/setAccessTime.sol:Certificate",
								"label": "revokedStatus",
								"offset": 0,
								"slot": "7",
								"type": "t_bool"
							},
							{
								"astId": 19,
								"contract": "contracts/setAccessTime.sol:Certificate",
								"label": "issuedName",
								"offset": 0,
								"slot": "8",
								"type": "t_string_storage"
							},
							{
								"astId": 21,
								"contract": "contracts/setAccessTime.sol:Certificate",
								"label": "issuedAddress",
								"offset": 0,
								"slot": "9",
								"type": "t_address"
							}
						],
						"numberOfBytes": "320"
					},
					"t_uint256": {
						"encoding": "inplace",
						"label": "uint256",
						"numberOfBytes": "32"
					}
				}
			},
			"userdoc": {
				"kind": "user",
				"methods": {},
				"version": 1
			}
		}
	}
}