{
	"contracts/setAccessTime.sol": {
		"Certificate": {
			"abi": [
				{
					"inputs": [],
					"stateMutability": "nonpayable",
					"type": "constructor"
				},
				{
					"inputs": [
						{
							"internalType": "uint256",
							"name": "",
							"type": "uint256"
						}
					],
					"name": "_StudentCertificate",
					"outputs": [
						{
							"internalType": "address",
							"name": "studentAddress",
							"type": "address"
						},
						{
							"internalType": "string",
							"name": "certificateName",
							"type": "string"
						},
						{
							"internalType": "string",
							"name": "studentName",
							"type": "string"
						},
						{
							"internalType": "string",
							"name": "studentId",
							"type": "string"
						},
						{
							"internalType": "string",
							"name": "faculty",
							"type": "string"
						},
						{
							"internalType": "string",
							"name": "department",
							"type": "string"
						},
						{
							"internalType": "uint256",
							"name": "accessTime",
							"type": "uint256"
						},
						{
							"internalType": "bool",
							"name": "revokedStatus",
							"type": "bool"
						},
						{
							"internalType": "string",
							"name": "issuedName",
							"type": "string"
						},
						{
							"internalType": "address",
							"name": "issuedAddress",
							"type": "address"
						}
					],
					"stateMutability": "view",
					"type": "function"
				},
				{
					"inputs": [
						{
							"internalType": "uint256",
							"name": "",
							"type": "uint256"
						}
					],
					"name": "_allAdmin",
					"outputs": [
						{
							"internalType": "address",
							"name": "addminAddress",
							"type": "address"
						},
						{
							"internalType": "string",
							"name": "name",
							"type": "string"
						},
						{
							"internalType": "string",
							"name": "adminId",
							"type": "string"
						},
						{
							"internalType": "string",
							"name": "position",
							"type": "string"
						},
						{
							"internalType": "bool",
							"name": "adminStatus",
							"type": "bool"
						}
					],
					"stateMutability": "view",
					"type": "function"
				},
				{
					"inputs": [
						{
							"internalType": "address",
							"name": "addminAddress",
							"type": "address"
						},
						{
							"internalType": "string",
							"name": "name",
							"type": "string"
						},
						{
							"internalType": "string",
							"name": "adminId",
							"type": "string"
						},
						{
							"internalType": "string",
							"name": "position",
							"type": "string"
						}
					],
					"name": "addAdmin",
					"outputs": [],
					"stateMutability": "nonpayable",
					"type": "function"
				},
				{
					"inputs": [
						{
							"internalType": "address",
							"name": "studentAddress",
							"type": "address"
						},
						{
							"internalType": "string",
							"name": "certificateName",
							"type": "string"
						},
						{
							"internalType": "string",
							"name": "studentName",
							"type": "string"
						},
						{
							"internalType": "string",
							"name": "studentId",
							"type": "string"
						},
						{
							"internalType": "string",
							"name": "faculty",
							"type": "string"
						},
						{
							"internalType": "string",
							"name": "department",
							"type": "string"
						}
					],
					"name": "issueCertificate",
					"outputs": [],
					"stateMutability": "nonpayable",
					"type": "function"
				},
				{
					"inputs": [
						{
							"internalType": "address",
							"name": "addminAddress",
							"type": "address"
						}
					],
					"name": "removeAdmin",
					"outputs": [],
					"stateMutability": "nonpayable",
					"type": "function"
				},
				{
					"inputs": [
						{
							"internalType": "address",
							"name": "studentAddress",
							"type": "address"
						}
					],
					"name": "revokeCertificate",
					"outputs": [],
					"stateMutability": "nonpayable",
					"type": "function"
				}
			],
			"devdoc": {
				"kind": "dev",
				"methods": {},
				"version": 1
			},
			"evm": {
				"assembly": "    /* \"contracts/setAccessTime.sol\":58:10829  contract Certificate {... */\n  mstore(0x40, 0x80)\n    /* \"contracts/setAccessTime.sol\":2327:2435  constructor() {... */\n  callvalue\n  dup1\n  iszero\n  tag_1\n  jumpi\n  0x00\n  dup1\n  revert\ntag_1:\n  pop\n    /* \"contracts/setAccessTime.sol\":2383:2387  true */\n  0x01\n    /* \"contracts/setAccessTime.sol\":2351:2368  authorizedIssuers */\n  0x02\n    /* \"contracts/setAccessTime.sol\":2351:2380  authorizedIssuers[msg.sender] */\n  0x00\n    /* \"contracts/setAccessTime.sol\":2369:2379  msg.sender */\n  caller\n    /* \"contracts/setAccessTime.sol\":2351:2380  authorizedIssuers[msg.sender] */\n  0xffffffffffffffffffffffffffffffffffffffff\n  and\n  0xffffffffffffffffffffffffffffffffffffffff\n  and\n  dup2\n  mstore\n  0x20\n  add\n  swap1\n  dup2\n  mstore\n  0x20\n  add\n  0x00\n  keccak256\n  0x00\n    /* \"contracts/setAccessTime.sol\":2351:2387  authorizedIssuers[msg.sender] = true */\n  0x0100\n  exp\n  dup2\n  sload\n  dup2\n  0xff\n  mul\n  not\n  and\n  swap1\n  dup4\n  iszero\n  iszero\n  mul\n  or\n  swap1\n  sstore\n  pop\n    /* \"contracts/setAccessTime.sol\":58:10829  contract Certificate {... */\n  dataSize(sub_0)\n  dup1\n  dataOffset(sub_0)\n  0x00\n  codecopy\n  0x00\n  return\nstop\n\nsub_0: assembly {\n        /* \"contracts/setAccessTime.sol\":58:10829  contract Certificate {... */\n      mstore(0x40, 0x80)\n      callvalue\n      dup1\n      iszero\n      tag_1\n      jumpi\n      0x00\n      dup1\n      revert\n    tag_1:\n      pop\n      jumpi(tag_2, lt(calldatasize, 0x04))\n      shr(0xe0, calldataload(0x00))\n      dup1\n      0x03825d6c\n      eq\n      tag_3\n      jumpi\n      dup1\n      0x1785f53c\n      eq\n      tag_4\n      jumpi\n      dup1\n      0x5f893bfa\n      eq\n      tag_5\n      jumpi\n      dup1\n      0x70f9ff87\n      eq\n      tag_6\n      jumpi\n      dup1\n      0xabafef87\n      eq\n      tag_7\n      jumpi\n      dup1\n      0xde8c98fd\n      eq\n      tag_8\n      jumpi\n    tag_2:\n      0x00\n      dup1\n      revert\n        /* \"contracts/setAccessTime.sol\":3220:3718  function addAdmin(address addminAddress, string memory name, string memory adminId, string memory position) external onlyAuthorizedIssuer {... */\n    tag_3:\n      tag_9\n      0x04\n      dup1\n      calldatasize\n      sub\n      dup2\n      add\n      swap1\n      tag_10\n      swap2\n      swap1\n      tag_11\n      jump\t// in\n    tag_10:\n      tag_12\n      jump\t// in\n    tag_9:\n      stop\n        /* \"contracts/setAccessTime.sol\":3864:4366  function removeAdmin(address addminAddress) external onlyAuthorizedIssuer{... */\n    tag_4:\n      tag_13\n      0x04\n      dup1\n      calldatasize\n      sub\n      dup2\n      add\n      swap1\n      tag_14\n      swap2\n      swap1\n      tag_15\n      jump\t// in\n    tag_14:\n      tag_16\n      jump\t// in\n    tag_13:\n      stop\n        /* \"contracts/setAccessTime.sol\":7778:8214  function revokeCertificate(address studentAddress) external onlyAuthorizedIssuer{... */\n    tag_5:\n      tag_17\n      0x04\n      dup1\n      calldatasize\n      sub\n      dup2\n      add\n      swap1\n      tag_18\n      swap2\n      swap1\n      tag_15\n      jump\t// in\n    tag_18:\n      tag_19\n      jump\t// in\n    tag_17:\n      stop\n        /* \"contracts/setAccessTime.sol\":1237:1261  Admin[] public _allAdmin */\n    tag_6:\n      tag_20\n      0x04\n      dup1\n      calldatasize\n      sub\n      dup2\n      add\n      swap1\n      tag_21\n      swap2\n      swap1\n      tag_22\n      jump\t// in\n    tag_21:\n      tag_23\n      jump\t// in\n    tag_20:\n      mload(0x40)\n      tag_24\n      swap6\n      swap5\n      swap4\n      swap3\n      swap2\n      swap1\n      tag_25\n      jump\t// in\n    tag_24:\n      mload(0x40)\n      dup1\n      swap2\n      sub\n      swap1\n      return\n        /* \"contracts/setAccessTime.sol\":1195:1231  Student[] public _StudentCertificate */\n    tag_7:\n      tag_26\n      0x04\n      dup1\n      calldatasize\n      sub\n      dup2\n      add\n      swap1\n      tag_27\n      swap2\n      swap1\n      tag_22\n      jump\t// in\n    tag_27:\n      tag_28\n      jump\t// in\n    tag_26:\n      mload(0x40)\n      tag_29\n      swap11\n      swap10\n      swap9\n      swap8\n      swap7\n      swap6\n      swap5\n      swap4\n      swap3\n      swap2\n      swap1\n      tag_30\n      jump\t// in\n    tag_29:\n      mload(0x40)\n      dup1\n      swap2\n      sub\n      swap1\n      return\n        /* \"contracts/setAccessTime.sol\":6427:7772  function issueCertificate(... */\n    tag_8:\n      tag_31\n      0x04\n      dup1\n      calldatasize\n      sub\n      dup2\n      add\n      swap1\n      tag_32\n      swap2\n      swap1\n      tag_33\n      jump\t// in\n    tag_32:\n      tag_34\n      jump\t// in\n    tag_31:\n      stop\n        /* \"contracts/setAccessTime.sol\":3220:3718  function addAdmin(address addminAddress, string memory name, string memory adminId, string memory position) external onlyAuthorizedIssuer {... */\n    tag_12:\n        /* \"contracts/setAccessTime.sol\":2504:2521  authorizedIssuers */\n      0x02\n        /* \"contracts/setAccessTime.sol\":2504:2533  authorizedIssuers[msg.sender] */\n      0x00\n        /* \"contracts/setAccessTime.sol\":2522:2532  msg.sender */\n      caller\n        /* \"contracts/setAccessTime.sol\":2504:2533  authorizedIssuers[msg.sender] */\n      0xffffffffffffffffffffffffffffffffffffffff\n      and\n      0xffffffffffffffffffffffffffffffffffffffff\n      and\n      dup2\n      mstore\n      0x20\n      add\n      swap1\n      dup2\n      mstore\n      0x20\n      add\n      0x00\n      keccak256\n      0x00\n      swap1\n      sload\n      swap1\n      0x0100\n      exp\n      swap1\n      div\n      0xff\n      and\n        /* \"contracts/setAccessTime.sol\":2483:2605  require(... */\n      tag_36\n      jumpi\n      mload(0x40)\n      0x08c379a000000000000000000000000000000000000000000000000000000000\n      dup2\n      mstore\n      0x04\n      add\n      tag_37\n      swap1\n      tag_38\n      jump\t// in\n    tag_37:\n      mload(0x40)\n      dup1\n      swap2\n      sub\n      swap1\n      revert\n    tag_36:\n        /* \"contracts/setAccessTime.sol\":3403:3407  true */\n      0x01\n        /* \"contracts/setAccessTime.sol\":3368:3385  authorizedIssuers */\n      0x02\n        /* \"contracts/setAccessTime.sol\":3368:3400  authorizedIssuers[addminAddress] */\n      0x00\n        /* \"contracts/setAccessTime.sol\":3386:3399  addminAddress */\n      dup7\n        /* \"contracts/setAccessTime.sol\":3368:3400  authorizedIssuers[addminAddress] */\n      0xffffffffffffffffffffffffffffffffffffffff\n      and\n      0xffffffffffffffffffffffffffffffffffffffff\n      and\n      dup2\n      mstore\n      0x20\n      add\n      swap1\n      dup2\n      mstore\n      0x20\n      add\n      0x00\n      keccak256\n      0x00\n        /* \"contracts/setAccessTime.sol\":3368:3407  authorizedIssuers[addminAddress] = true */\n      0x0100\n      exp\n      dup2\n      sload\n      dup2\n      0xff\n      mul\n      not\n      and\n      swap1\n      dup4\n      iszero\n      iszero\n      mul\n      or\n      swap1\n      sstore\n      pop\n        /* \"contracts/setAccessTime.sol\":3417:3436  Admin storage admin */\n      0x00\n        /* \"contracts/setAccessTime.sol\":3439:3445  admins */\n      0x06\n        /* \"contracts/setAccessTime.sol\":3439:3460  admins[addminAddress] */\n      0x00\n        /* \"contracts/setAccessTime.sol\":3446:3459  addminAddress */\n      dup7\n        /* \"contracts/setAccessTime.sol\":3439:3460  admins[addminAddress] */\n      0xffffffffffffffffffffffffffffffffffffffff\n      and\n      0xffffffffffffffffffffffffffffffffffffffff\n      and\n      dup2\n      mstore\n      0x20\n      add\n      swap1\n      dup2\n      mstore\n      0x20\n      add\n      0x00\n      keccak256\n        /* \"contracts/setAccessTime.sol\":3417:3460  Admin storage admin = admins[addminAddress] */\n      swap1\n      pop\n        /* \"contracts/setAccessTime.sol\":3492:3505  addminAddress */\n      dup5\n        /* \"contracts/setAccessTime.sol\":3470:3475  admin */\n      dup2\n        /* \"contracts/setAccessTime.sol\":3470:3489  admin.addminAddress */\n      0x00\n      add\n      0x00\n        /* \"contracts/setAccessTime.sol\":3470:3505  admin.addminAddress = addminAddress */\n      0x0100\n      exp\n      dup2\n      sload\n      dup2\n      0xffffffffffffffffffffffffffffffffffffffff\n      mul\n      not\n      and\n      swap1\n      dup4\n      0xffffffffffffffffffffffffffffffffffffffff\n      and\n      mul\n      or\n      swap1\n      sstore\n      pop\n        /* \"contracts/setAccessTime.sol\":3528:3532  name */\n      dup4\n        /* \"contracts/setAccessTime.sol\":3515:3520  admin */\n      dup2\n        /* \"contracts/setAccessTime.sol\":3515:3525  admin.name */\n      0x01\n      add\n        /* \"contracts/setAccessTime.sol\":3515:3532  admin.name = name */\n      swap1\n      dup2\n      tag_40\n      swap2\n      swap1\n      tag_41\n      jump\t// in\n    tag_40:\n      pop\n        /* \"contracts/setAccessTime.sol\":3558:3565  adminId */\n      dup3\n        /* \"contracts/setAccessTime.sol\":3542:3547  admin */\n      dup2\n        /* \"contracts/setAccessTime.sol\":3542:3555  admin.adminId */\n      0x02\n      add\n        /* \"contracts/setAccessTime.sol\":3542:3565  admin.adminId = adminId */\n      swap1\n      dup2\n      tag_42\n      swap2\n      swap1\n      tag_41\n      jump\t// in\n    tag_42:\n      pop\n        /* \"contracts/setAccessTime.sol\":3592:3600  position */\n      dup2\n        /* \"contracts/setAccessTime.sol\":3575:3580  admin */\n      dup2\n        /* \"contracts/setAccessTime.sol\":3575:3589  admin.position */\n      0x03\n      add\n        /* \"contracts/setAccessTime.sol\":3575:3600  admin.position = position */\n      swap1\n      dup2\n      tag_43\n      swap2\n      swap1\n      tag_41\n      jump\t// in\n    tag_43:\n      pop\n        /* \"contracts/setAccessTime.sol\":3630:3634  true */\n      0x01\n        /* \"contracts/setAccessTime.sol\":3610:3615  admin */\n      dup2\n        /* \"contracts/setAccessTime.sol\":3610:3627  admin.adminStatus */\n      0x04\n      add\n      0x00\n        /* \"contracts/setAccessTime.sol\":3610:3634  admin.adminStatus = true */\n      0x0100\n      exp\n      dup2\n      sload\n      dup2\n      0xff\n      mul\n      not\n      and\n      swap1\n      dup4\n      iszero\n      iszero\n      mul\n      or\n      swap1\n      sstore\n      pop\n        /* \"contracts/setAccessTime.sol\":3644:3653  _allAdmin */\n      0x01\n        /* \"contracts/setAccessTime.sol\":3659:3710  Admin(addminAddress, name, adminId, position, true) */\n      mload(0x40)\n      dup1\n      0xa0\n      add\n      0x40\n      mstore\n      dup1\n        /* \"contracts/setAccessTime.sol\":3665:3678  addminAddress */\n      dup8\n        /* \"contracts/setAccessTime.sol\":3659:3710  Admin(addminAddress, name, adminId, position, true) */\n      0xffffffffffffffffffffffffffffffffffffffff\n      and\n      dup2\n      mstore\n      0x20\n      add\n        /* \"contracts/setAccessTime.sol\":3680:3684  name */\n      dup7\n        /* \"contracts/setAccessTime.sol\":3659:3710  Admin(addminAddress, name, adminId, position, true) */\n      dup2\n      mstore\n      0x20\n      add\n        /* \"contracts/setAccessTime.sol\":3686:3693  adminId */\n      dup6\n        /* \"contracts/setAccessTime.sol\":3659:3710  Admin(addminAddress, name, adminId, position, true) */\n      dup2\n      mstore\n      0x20\n      add\n        /* \"contracts/setAccessTime.sol\":3695:3703  position */\n      dup5\n        /* \"contracts/setAccessTime.sol\":3659:3710  Admin(addminAddress, name, adminId, position, true) */\n      dup2\n      mstore\n      0x20\n      add\n        /* \"contracts/setAccessTime.sol\":3705:3709  true */\n      0x01\n        /* \"contracts/setAccessTime.sol\":3659:3710  Admin(addminAddress, name, adminId, position, true) */\n      iszero\n      iszero\n      dup2\n      mstore\n      pop\n        /* \"contracts/setAccessTime.sol\":3644:3711  _allAdmin.push(Admin(addminAddress, name, adminId, position, true)) */\n      swap1\n      dup1\n      0x01\n      dup2\n      sload\n      add\n      dup1\n      dup3\n      sstore\n      dup1\n      swap2\n      pop\n      pop\n      0x01\n      swap1\n      sub\n      swap1\n      0x00\n      mstore\n      keccak256(0x00, 0x20)\n      swap1\n      0x05\n      mul\n      add\n      0x00\n      swap1\n      swap2\n      swap1\n      swap2\n      swap1\n      swap2\n      pop\n      0x00\n      dup3\n      add\n      mload\n      dup2\n      0x00\n      add\n      exp(0x0100, 0x00)\n      dup2\n      sload\n      dup2\n      0xffffffffffffffffffffffffffffffffffffffff\n      mul\n      not\n      and\n      swap1\n      dup4\n      0xffffffffffffffffffffffffffffffffffffffff\n      and\n      mul\n      or\n      swap1\n      sstore\n      pop\n      0x20\n      dup3\n      add\n      mload\n      dup2\n      0x01\n      add\n      swap1\n      dup2\n      tag_45\n      swap2\n      swap1\n      tag_41\n      jump\t// in\n    tag_45:\n      pop\n      0x40\n      dup3\n      add\n      mload\n      dup2\n      0x02\n      add\n      swap1\n      dup2\n      tag_46\n      swap2\n      swap1\n      tag_41\n      jump\t// in\n    tag_46:\n      pop\n      0x60\n      dup3\n      add\n      mload\n      dup2\n      0x03\n      add\n      swap1\n      dup2\n      tag_47\n      swap2\n      swap1\n      tag_41\n      jump\t// in\n    tag_47:\n      pop\n      0x80\n      dup3\n      add\n      mload\n      dup2\n      0x04\n      add\n      exp(0x0100, 0x00)\n      dup2\n      sload\n      dup2\n      0xff\n      mul\n      not\n      and\n      swap1\n      dup4\n      iszero\n      iszero\n      mul\n      or\n      swap1\n      sstore\n      pop\n      pop\n      pop\n        /* \"contracts/setAccessTime.sol\":3358:3718  {... */\n      pop\n        /* \"contracts/setAccessTime.sol\":3220:3718  function addAdmin(address addminAddress, string memory name, string memory adminId, string memory position) external onlyAuthorizedIssuer {... */\n      pop\n      pop\n      pop\n      pop\n      jump\t// out\n        /* \"contracts/setAccessTime.sol\":3864:4366  function removeAdmin(address addminAddress) external onlyAuthorizedIssuer{... */\n    tag_16:\n        /* \"contracts/setAccessTime.sol\":2504:2521  authorizedIssuers */\n      0x02\n        /* \"contracts/setAccessTime.sol\":2504:2533  authorizedIssuers[msg.sender] */\n      0x00\n        /* \"contracts/setAccessTime.sol\":2522:2532  msg.sender */\n      caller\n        /* \"contracts/setAccessTime.sol\":2504:2533  authorizedIssuers[msg.sender] */\n      0xffffffffffffffffffffffffffffffffffffffff\n      and\n      0xffffffffffffffffffffffffffffffffffffffff\n      and\n      dup2\n      mstore\n      0x20\n      add\n      swap1\n      dup2\n      mstore\n      0x20\n      add\n      0x00\n      keccak256\n      0x00\n      swap1\n      sload\n      swap1\n      0x0100\n      exp\n      swap1\n      div\n      0xff\n      and\n        /* \"contracts/setAccessTime.sol\":2483:2605  require(... */\n      tag_49\n      jumpi\n      mload(0x40)\n      0x08c379a000000000000000000000000000000000000000000000000000000000\n      dup2\n      mstore\n      0x04\n      add\n      tag_50\n      swap1\n      tag_38\n      jump\t// in\n    tag_50:\n      mload(0x40)\n      dup1\n      swap2\n      sub\n      swap1\n      revert\n    tag_49:\n        /* \"contracts/setAccessTime.sol\":3982:3987  false */\n      0x00\n        /* \"contracts/setAccessTime.sol\":3947:3964  authorizedIssuers */\n      0x02\n        /* \"contracts/setAccessTime.sol\":3947:3979  authorizedIssuers[addminAddress] */\n      0x00\n        /* \"contracts/setAccessTime.sol\":3965:3978  addminAddress */\n      dup4\n        /* \"contracts/setAccessTime.sol\":3947:3979  authorizedIssuers[addminAddress] */\n      0xffffffffffffffffffffffffffffffffffffffff\n      and\n      0xffffffffffffffffffffffffffffffffffffffff\n      and\n      dup2\n      mstore\n      0x20\n      add\n      swap1\n      dup2\n      mstore\n      0x20\n      add\n      0x00\n      keccak256\n      0x00\n        /* \"contracts/setAccessTime.sol\":3947:3987  authorizedIssuers[addminAddress] = false */\n      0x0100\n      exp\n      dup2\n      sload\n      dup2\n      0xff\n      mul\n      not\n      and\n      swap1\n      dup4\n      iszero\n      iszero\n      mul\n      or\n      swap1\n      sstore\n      pop\n        /* \"contracts/setAccessTime.sol\":3997:4016  Admin storage admin */\n      0x00\n        /* \"contracts/setAccessTime.sol\":4019:4025  admins */\n      0x06\n        /* \"contracts/setAccessTime.sol\":4019:4040  admins[addminAddress] */\n      0x00\n        /* \"contracts/setAccessTime.sol\":4026:4039  addminAddress */\n      dup4\n        /* \"contracts/setAccessTime.sol\":4019:4040  admins[addminAddress] */\n      0xffffffffffffffffffffffffffffffffffffffff\n      and\n      0xffffffffffffffffffffffffffffffffffffffff\n      and\n      dup2\n      mstore\n      0x20\n      add\n      swap1\n      dup2\n      mstore\n      0x20\n      add\n      0x00\n      keccak256\n        /* \"contracts/setAccessTime.sol\":3997:4040  Admin storage admin = admins[addminAddress] */\n      swap1\n      pop\n        /* \"contracts/setAccessTime.sol\":4070:4075  false */\n      0x00\n        /* \"contracts/setAccessTime.sol\":4050:4055  admin */\n      dup2\n        /* \"contracts/setAccessTime.sol\":4050:4067  admin.adminStatus */\n      0x04\n      add\n      0x00\n        /* \"contracts/setAccessTime.sol\":4050:4075  admin.adminStatus = false */\n      0x0100\n      exp\n      dup2\n      sload\n      dup2\n      0xff\n      mul\n      not\n      and\n      swap1\n      dup4\n      iszero\n      iszero\n      mul\n      or\n      swap1\n      sstore\n      pop\n        /* \"contracts/setAccessTime.sol\":4091:4097  uint i */\n      0x00\n        /* \"contracts/setAccessTime.sol\":4086:4360  for (uint i = 0; i < _allAdmin.length; i++) {... */\n    tag_52:\n        /* \"contracts/setAccessTime.sol\":4107:4116  _allAdmin */\n      0x01\n        /* \"contracts/setAccessTime.sol\":4107:4123  _allAdmin.length */\n      dup1\n      sload\n      swap1\n      pop\n        /* \"contracts/setAccessTime.sol\":4103:4104  i */\n      dup2\n        /* \"contracts/setAccessTime.sol\":4103:4123  i < _allAdmin.length */\n      lt\n        /* \"contracts/setAccessTime.sol\":4086:4360  for (uint i = 0; i < _allAdmin.length; i++) {... */\n      iszero\n      tag_53\n      jumpi\n        /* \"contracts/setAccessTime.sol\":4178:4191  addminAddress */\n      dup3\n        /* \"contracts/setAccessTime.sol\":4148:4191  _allAdmin[i].addminAddress == addminAddress */\n      0xffffffffffffffffffffffffffffffffffffffff\n      and\n        /* \"contracts/setAccessTime.sol\":4148:4157  _allAdmin */\n      0x01\n        /* \"contracts/setAccessTime.sol\":4158:4159  i */\n      dup3\n        /* \"contracts/setAccessTime.sol\":4148:4160  _allAdmin[i] */\n      dup2\n      sload\n      dup2\n      lt\n      tag_55\n      jumpi\n      tag_56\n      tag_57\n      jump\t// in\n    tag_56:\n    tag_55:\n      swap1\n      0x00\n      mstore\n      keccak256(0x00, 0x20)\n      swap1\n      0x05\n      mul\n      add\n        /* \"contracts/setAccessTime.sol\":4148:4174  _allAdmin[i].addminAddress */\n      0x00\n      add\n      0x00\n      swap1\n      sload\n      swap1\n      0x0100\n      exp\n      swap1\n      div\n      0xffffffffffffffffffffffffffffffffffffffff\n      and\n        /* \"contracts/setAccessTime.sol\":4148:4191  _allAdmin[i].addminAddress == addminAddress */\n      0xffffffffffffffffffffffffffffffffffffffff\n      and\n      sub\n        /* \"contracts/setAccessTime.sol\":4144:4350  if (_allAdmin[i].addminAddress == addminAddress) {... */\n      tag_59\n      jumpi\n        /* \"contracts/setAccessTime.sol\":4238:4243  false */\n      0x00\n        /* \"contracts/setAccessTime.sol\":4211:4220  _allAdmin */\n      0x01\n        /* \"contracts/setAccessTime.sol\":4221:4222  i */\n      dup3\n        /* \"contracts/setAccessTime.sol\":4211:4223  _allAdmin[i] */\n      dup2\n      sload\n      dup2\n      lt\n      tag_60\n      jumpi\n      tag_61\n      tag_57\n      jump\t// in\n    tag_61:\n    tag_60:\n      swap1\n      0x00\n      mstore\n      keccak256(0x00, 0x20)\n      swap1\n      0x05\n      mul\n      add\n        /* \"contracts/setAccessTime.sol\":4211:4235  _allAdmin[i].adminStatus */\n      0x04\n      add\n      0x00\n        /* \"contracts/setAccessTime.sol\":4211:4243  _allAdmin[i].adminStatus = false */\n      0x0100\n      exp\n      dup2\n      sload\n      dup2\n      0xff\n      mul\n      not\n      and\n      swap1\n      dup4\n      iszero\n      iszero\n      mul\n      or\n      swap1\n      sstore\n      pop\n        /* \"contracts/setAccessTime.sol\":4262:4267  break */\n      jump(tag_53)\n        /* \"contracts/setAccessTime.sol\":4144:4350  if (_allAdmin[i].addminAddress == addminAddress) {... */\n    tag_59:\n        /* \"contracts/setAccessTime.sol\":4125:4128  i++ */\n      dup1\n      dup1\n      tag_63\n      swap1\n      tag_64\n      jump\t// in\n    tag_63:\n      swap2\n      pop\n      pop\n        /* \"contracts/setAccessTime.sol\":4086:4360  for (uint i = 0; i < _allAdmin.length; i++) {... */\n      jump(tag_52)\n    tag_53:\n      pop\n        /* \"contracts/setAccessTime.sol\":3937:4366  {... */\n      pop\n        /* \"contracts/setAccessTime.sol\":3864:4366  function removeAdmin(address addminAddress) external onlyAuthorizedIssuer{... */\n      pop\n      jump\t// out\n        /* \"contracts/setAccessTime.sol\":7778:8214  function revokeCertificate(address studentAddress) external onlyAuthorizedIssuer{... */\n    tag_19:\n        /* \"contracts/setAccessTime.sol\":2504:2521  authorizedIssuers */\n      0x02\n        /* \"contracts/setAccessTime.sol\":2504:2533  authorizedIssuers[msg.sender] */\n      0x00\n        /* \"contracts/setAccessTime.sol\":2522:2532  msg.sender */\n      caller\n        /* \"contracts/setAccessTime.sol\":2504:2533  authorizedIssuers[msg.sender] */\n      0xffffffffffffffffffffffffffffffffffffffff\n      and\n      0xffffffffffffffffffffffffffffffffffffffff\n      and\n      dup2\n      mstore\n      0x20\n      add\n      swap1\n      dup2\n      mstore\n      0x20\n      add\n      0x00\n      keccak256\n      0x00\n      swap1\n      sload\n      swap1\n      0x0100\n      exp\n      swap1\n      div\n      0xff\n      and\n        /* \"contracts/setAccessTime.sol\":2483:2605  require(... */\n      tag_66\n      jumpi\n      mload(0x40)\n      0x08c379a000000000000000000000000000000000000000000000000000000000\n      dup2\n      mstore\n      0x04\n      add\n      tag_67\n      swap1\n      tag_38\n      jump\t// in\n    tag_67:\n      mload(0x40)\n      dup1\n      swap2\n      sub\n      swap1\n      revert\n    tag_66:\n        /* \"contracts/setAccessTime.sol\":7868:7891  Student storage student */\n      0x00\n        /* \"contracts/setAccessTime.sol\":7894:7902  students */\n      0x05\n        /* \"contracts/setAccessTime.sol\":7894:7918  students[studentAddress] */\n      0x00\n        /* \"contracts/setAccessTime.sol\":7903:7917  studentAddress */\n      dup4\n        /* \"contracts/setAccessTime.sol\":7894:7918  students[studentAddress] */\n      0xffffffffffffffffffffffffffffffffffffffff\n      and\n      0xffffffffffffffffffffffffffffffffffffffff\n      and\n      dup2\n      mstore\n      0x20\n      add\n      swap1\n      dup2\n      mstore\n      0x20\n      add\n      0x00\n      keccak256\n        /* \"contracts/setAccessTime.sol\":7868:7918  Student storage student = students[studentAddress] */\n      swap1\n      pop\n        /* \"contracts/setAccessTime.sol\":7952:7956  true */\n      0x01\n        /* \"contracts/setAccessTime.sol\":7928:7935  student */\n      dup2\n        /* \"contracts/setAccessTime.sol\":7928:7949  student.revokedStatus */\n      0x07\n      add\n      0x00\n        /* \"contracts/setAccessTime.sol\":7928:7956  student.revokedStatus = true */\n      0x0100\n      exp\n      dup2\n      sload\n      dup2\n      0xff\n      mul\n      not\n      and\n      swap1\n      dup4\n      iszero\n      iszero\n      mul\n      or\n      swap1\n      sstore\n      pop\n        /* \"contracts/setAccessTime.sol\":7972:7978  uint i */\n      0x00\n        /* \"contracts/setAccessTime.sol\":7967:8208  for (uint i = 0; i < _StudentCertificate.length; i++) {... */\n    tag_69:\n        /* \"contracts/setAccessTime.sol\":7988:8007  _StudentCertificate */\n      0x00\n        /* \"contracts/setAccessTime.sol\":7988:8014  _StudentCertificate.length */\n      dup1\n      sload\n      swap1\n      pop\n        /* \"contracts/setAccessTime.sol\":7984:7985  i */\n      dup2\n        /* \"contracts/setAccessTime.sol\":7984:8014  i < _StudentCertificate.length */\n      lt\n        /* \"contracts/setAccessTime.sol\":7967:8208  for (uint i = 0; i < _StudentCertificate.length; i++) {... */\n      iszero\n      tag_70\n      jumpi\n        /* \"contracts/setAccessTime.sol\":8080:8094  studentAddress */\n      dup3\n        /* \"contracts/setAccessTime.sol\":8039:8094  _StudentCertificate[i].studentAddress == studentAddress */\n      0xffffffffffffffffffffffffffffffffffffffff\n      and\n        /* \"contracts/setAccessTime.sol\":8039:8058  _StudentCertificate */\n      0x00\n        /* \"contracts/setAccessTime.sol\":8059:8060  i */\n      dup3\n        /* \"contracts/setAccessTime.sol\":8039:8061  _StudentCertificate[i] */\n      dup2\n      sload\n      dup2\n      lt\n      tag_72\n      jumpi\n      tag_73\n      tag_57\n      jump\t// in\n    tag_73:\n    tag_72:\n      swap1\n      0x00\n      mstore\n      keccak256(0x00, 0x20)\n      swap1\n      0x0a\n      mul\n      add\n        /* \"contracts/setAccessTime.sol\":8039:8076  _StudentCertificate[i].studentAddress */\n      0x00\n      add\n      0x00\n      swap1\n      sload\n      swap1\n      0x0100\n      exp\n      swap1\n      div\n      0xffffffffffffffffffffffffffffffffffffffff\n      and\n        /* \"contracts/setAccessTime.sol\":8039:8094  _StudentCertificate[i].studentAddress == studentAddress */\n      0xffffffffffffffffffffffffffffffffffffffff\n      and\n      sub\n        /* \"contracts/setAccessTime.sol\":8035:8198  if (_StudentCertificate[i].studentAddress == studentAddress) {... */\n      tag_75\n      jumpi\n        /* \"contracts/setAccessTime.sol\":8153:8157  true */\n      0x01\n        /* \"contracts/setAccessTime.sol\":8114:8133  _StudentCertificate */\n      0x00\n        /* \"contracts/setAccessTime.sol\":8134:8135  i */\n      dup3\n        /* \"contracts/setAccessTime.sol\":8114:8136  _StudentCertificate[i] */\n      dup2\n      sload\n      dup2\n      lt\n      tag_76\n      jumpi\n      tag_77\n      tag_57\n      jump\t// in\n    tag_77:\n    tag_76:\n      swap1\n      0x00\n      mstore\n      keccak256(0x00, 0x20)\n      swap1\n      0x0a\n      mul\n      add\n        /* \"contracts/setAccessTime.sol\":8114:8150  _StudentCertificate[i].revokedStatus */\n      0x07\n      add\n      0x00\n        /* \"contracts/setAccessTime.sol\":8114:8157  _StudentCertificate[i].revokedStatus = true */\n      0x0100\n      exp\n      dup2\n      sload\n      dup2\n      0xff\n      mul\n      not\n      and\n      swap1\n      dup4\n      iszero\n      iszero\n      mul\n      or\n      swap1\n      sstore\n      pop\n        /* \"contracts/setAccessTime.sol\":8176:8181  break */\n      jump(tag_70)\n        /* \"contracts/setAccessTime.sol\":8035:8198  if (_StudentCertificate[i].studentAddress == studentAddress) {... */\n    tag_75:\n        /* \"contracts/setAccessTime.sol\":8016:8019  i++ */\n      dup1\n      dup1\n      tag_79\n      swap1\n      tag_64\n      jump\t// in\n    tag_79:\n      swap2\n      pop\n      pop\n        /* \"contracts/setAccessTime.sol\":7967:8208  for (uint i = 0; i < _StudentCertificate.length; i++) {... */\n      jump(tag_69)\n    tag_70:\n      pop\n        /* \"contracts/setAccessTime.sol\":7858:8214  {... */\n      pop\n        /* \"contracts/setAccessTime.sol\":7778:8214  function revokeCertificate(address studentAddress) external onlyAuthorizedIssuer{... */\n      pop\n      jump\t// out\n        /* \"contracts/setAccessTime.sol\":1237:1261  Admin[] public _allAdmin */\n    tag_23:\n      0x01\n      dup2\n      dup2\n      sload\n      dup2\n      lt\n      tag_80\n      jumpi\n      0x00\n      dup1\n      revert\n    tag_80:\n      swap1\n      0x00\n      mstore\n      keccak256(0x00, 0x20)\n      swap1\n      0x05\n      mul\n      add\n      0x00\n      swap2\n      pop\n      swap1\n      pop\n      dup1\n      0x00\n      add\n      0x00\n      swap1\n      sload\n      swap1\n      0x0100\n      exp\n      swap1\n      div\n      0xffffffffffffffffffffffffffffffffffffffff\n      and\n      swap1\n      dup1\n      0x01\n      add\n      dup1\n      sload\n      tag_82\n      swap1\n      tag_83\n      jump\t// in\n    tag_82:\n      dup1\n      0x1f\n      add\n      0x20\n      dup1\n      swap2\n      div\n      mul\n      0x20\n      add\n      mload(0x40)\n      swap1\n      dup2\n      add\n      0x40\n      mstore\n      dup1\n      swap3\n      swap2\n      swap1\n      dup2\n      dup2\n      mstore\n      0x20\n      add\n      dup3\n      dup1\n      sload\n      tag_84\n      swap1\n      tag_83\n      jump\t// in\n    tag_84:\n      dup1\n      iszero\n      tag_85\n      jumpi\n      dup1\n      0x1f\n      lt\n      tag_86\n      jumpi\n      0x0100\n      dup1\n      dup4\n      sload\n      div\n      mul\n      dup4\n      mstore\n      swap2\n      0x20\n      add\n      swap2\n      jump(tag_85)\n    tag_86:\n      dup3\n      add\n      swap2\n      swap1\n      0x00\n      mstore\n      keccak256(0x00, 0x20)\n      swap1\n    tag_87:\n      dup2\n      sload\n      dup2\n      mstore\n      swap1\n      0x01\n      add\n      swap1\n      0x20\n      add\n      dup1\n      dup4\n      gt\n      tag_87\n      jumpi\n      dup3\n      swap1\n      sub\n      0x1f\n      and\n      dup3\n      add\n      swap2\n    tag_85:\n      pop\n      pop\n      pop\n      pop\n      pop\n      swap1\n      dup1\n      0x02\n      add\n      dup1\n      sload\n      tag_88\n      swap1\n      tag_83\n      jump\t// in\n    tag_88:\n      dup1\n      0x1f\n      add\n      0x20\n      dup1\n      swap2\n      div\n      mul\n      0x20\n      add\n      mload(0x40)\n      swap1\n      dup2\n      add\n      0x40\n      mstore\n      dup1\n      swap3\n      swap2\n      swap1\n      dup2\n      dup2\n      mstore\n      0x20\n      add\n      dup3\n      dup1\n      sload\n      tag_89\n      swap1\n      tag_83\n      jump\t// in\n    tag_89:\n      dup1\n      iszero\n      tag_90\n      jumpi\n      dup1\n      0x1f\n      lt\n      tag_91\n      jumpi\n      0x0100\n      dup1\n      dup4\n      sload\n      div\n      mul\n      dup4\n      mstore\n      swap2\n      0x20\n      add\n      swap2\n      jump(tag_90)\n    tag_91:\n      dup3\n      add\n      swap2\n      swap1\n      0x00\n      mstore\n      keccak256(0x00, 0x20)\n      swap1\n    tag_92:\n      dup2\n      sload\n      dup2\n      mstore\n      swap1\n      0x01\n      add\n      swap1\n      0x20\n      add\n      dup1\n      dup4\n      gt\n      tag_92\n      jumpi\n      dup3\n      swap1\n      sub\n      0x1f\n      and\n      dup3\n      add\n      swap2\n    tag_90:\n      pop\n      pop\n      pop\n      pop\n      pop\n      swap1\n      dup1\n      0x03\n      add\n      dup1\n      sload\n      tag_93\n      swap1\n      tag_83\n      jump\t// in\n    tag_93:\n      dup1\n      0x1f\n      add\n      0x20\n      dup1\n      swap2\n      div\n      mul\n      0x20\n      add\n      mload(0x40)\n      swap1\n      dup2\n      add\n      0x40\n      mstore\n      dup1\n      swap3\n      swap2\n      swap1\n      dup2\n      dup2\n      mstore\n      0x20\n      add\n      dup3\n      dup1\n      sload\n      tag_94\n      swap1\n      tag_83\n      jump\t// in\n    tag_94:\n      dup1\n      iszero\n      tag_95\n      jumpi\n      dup1\n      0x1f\n      lt\n      tag_96\n      jumpi\n      0x0100\n      dup1\n      dup4\n      sload\n      div\n      mul\n      dup4\n      mstore\n      swap2\n      0x20\n      add\n      swap2\n      jump(tag_95)\n    tag_96:\n      dup3\n      add\n      swap2\n      swap1\n      0x00\n      mstore\n      keccak256(0x00, 0x20)\n      swap1\n    tag_97:\n      dup2\n      sload\n      dup2\n      mstore\n      swap1\n      0x01\n      add\n      swap1\n      0x20\n      add\n      dup1\n      dup4\n      gt\n      tag_97\n      jumpi\n      dup3\n      swap1\n      sub\n      0x1f\n      and\n      dup3\n      add\n      swap2\n    tag_95:\n      pop\n      pop\n      pop\n      pop\n      pop\n      swap1\n      dup1\n      0x04\n      add\n      0x00\n      swap1\n      sload\n      swap1\n      0x0100\n      exp\n      swap1\n      div\n      0xff\n      and\n      swap1\n      pop\n      dup6\n      jump\t// out\n        /* \"contracts/setAccessTime.sol\":1195:1231  Student[] public _StudentCertificate */\n    tag_28:\n      0x00\n      dup2\n      dup2\n      sload\n      dup2\n      lt\n      tag_98\n      jumpi\n      0x00\n      dup1\n      revert\n    tag_98:\n      swap1\n      0x00\n      mstore\n      keccak256(0x00, 0x20)\n      swap1\n      0x0a\n      mul\n      add\n      0x00\n      swap2\n      pop\n      swap1\n      pop\n      dup1\n      0x00\n      add\n      0x00\n      swap1\n      sload\n      swap1\n      0x0100\n      exp\n      swap1\n      div\n      0xffffffffffffffffffffffffffffffffffffffff\n      and\n      swap1\n      dup1\n      0x01\n      add\n      dup1\n      sload\n      tag_100\n      swap1\n      tag_83\n      jump\t// in\n    tag_100:\n      dup1\n      0x1f\n      add\n      0x20\n      dup1\n      swap2\n      div\n      mul\n      0x20\n      add\n      mload(0x40)\n      swap1\n      dup2\n      add\n      0x40\n      mstore\n      dup1\n      swap3\n      swap2\n      swap1\n      dup2\n      dup2\n      mstore\n      0x20\n      add\n      dup3\n      dup1\n      sload\n      tag_101\n      swap1\n      tag_83\n      jump\t// in\n    tag_101:\n      dup1\n      iszero\n      tag_102\n      jumpi\n      dup1\n      0x1f\n      lt\n      tag_103\n      jumpi\n      0x0100\n      dup1\n      dup4\n      sload\n      div\n      mul\n      dup4\n      mstore\n      swap2\n      0x20\n      add\n      swap2\n      jump(tag_102)\n    tag_103:\n      dup3\n      add\n      swap2\n      swap1\n      0x00\n      mstore\n      keccak256(0x00, 0x20)\n      swap1\n    tag_104:\n      dup2\n      sload\n      dup2\n      mstore\n      swap1\n      0x01\n      add\n      swap1\n      0x20\n      add\n      dup1\n      dup4\n      gt\n      tag_104\n      jumpi\n      dup3\n      swap1\n      sub\n      0x1f\n      and\n      dup3\n      add\n      swap2\n    tag_102:\n      pop\n      pop\n      pop\n      pop\n      pop\n      swap1\n      dup1\n      0x02\n      add\n      dup1\n      sload\n      tag_105\n      swap1\n      tag_83\n      jump\t// in\n    tag_105:\n      dup1\n      0x1f\n      add\n      0x20\n      dup1\n      swap2\n      div\n      mul\n      0x20\n      add\n      mload(0x40)\n      swap1\n      dup2\n      add\n      0x40\n      mstore\n      dup1\n      swap3\n      swap2\n      swap1\n      dup2\n      dup2\n      mstore\n      0x20\n      add\n      dup3\n      dup1\n      sload\n      tag_106\n      swap1\n      tag_83\n      jump\t// in\n    tag_106:\n      dup1\n      iszero\n      tag_107\n      jumpi\n      dup1\n      0x1f\n      lt\n      tag_108\n      jumpi\n      0x0100\n      dup1\n      dup4\n      sload\n      div\n      mul\n      dup4\n      mstore\n      swap2\n      0x20\n      add\n      swap2\n      jump(tag_107)\n    tag_108:\n      dup3\n      add\n      swap2\n      swap1\n      0x00\n      mstore\n      keccak256(0x00, 0x20)\n      swap1\n    tag_109:\n      dup2\n      sload\n      dup2\n      mstore\n      swap1\n      0x01\n      add\n      swap1\n      0x20\n      add\n      dup1\n      dup4\n      gt\n      tag_109\n      jumpi\n      dup3\n      swap1\n      sub\n      0x1f\n      and\n      dup3\n      add\n      swap2\n    tag_107:\n      pop\n      pop\n      pop\n      pop\n      pop\n      swap1\n      dup1\n      0x03\n      add\n      dup1\n      sload\n      tag_110\n      swap1\n      tag_83\n      jump\t// in\n    tag_110:\n      dup1\n      0x1f\n      add\n      0x20\n      dup1\n      swap2\n      div\n      mul\n      0x20\n      add\n      mload(0x40)\n      swap1\n      dup2\n      add\n      0x40\n      mstore\n      dup1\n      swap3\n      swap2\n      swap1\n      dup2\n      dup2\n      mstore\n      0x20\n      add\n      dup3\n      dup1\n      sload\n      tag_111\n      swap1\n      tag_83\n      jump\t// in\n    tag_111:\n      dup1\n      iszero\n      tag_112\n      jumpi\n      dup1\n      0x1f\n      lt\n      tag_113\n      jumpi\n      0x0100\n      dup1\n      dup4\n      sload\n      div\n      mul\n      dup4\n      mstore\n      swap2\n      0x20\n      add\n      swap2\n      jump(tag_112)\n    tag_113:\n      dup3\n      add\n      swap2\n      swap1\n      0x00\n      mstore\n      keccak256(0x00, 0x20)\n      swap1\n    tag_114:\n      dup2\n      sload\n      dup2\n      mstore\n      swap1\n      0x01\n      add\n      swap1\n      0x20\n      add\n      dup1\n      dup4\n      gt\n      tag_114\n      jumpi\n      dup3\n      swap1\n      sub\n      0x1f\n      and\n      dup3\n      add\n      swap2\n    tag_112:\n      pop\n      pop\n      pop\n      pop\n      pop\n      swap1\n      dup1\n      0x04\n      add\n      dup1\n      sload\n      tag_115\n      swap1\n      tag_83\n      jump\t// in\n    tag_115:\n      dup1\n      0x1f\n      add\n      0x20\n      dup1\n      swap2\n      div\n      mul\n      0x20\n      add\n      mload(0x40)\n      swap1\n      dup2\n      add\n      0x40\n      mstore\n      dup1\n      swap3\n      swap2\n      swap1\n      dup2\n      dup2\n      mstore\n      0x20\n      add\n      dup3\n      dup1\n      sload\n      tag_116\n      swap1\n      tag_83\n      jump\t// in\n    tag_116:\n      dup1\n      iszero\n      tag_117\n      jumpi\n      dup1\n      0x1f\n      lt\n      tag_118\n      jumpi\n      0x0100\n      dup1\n      dup4\n      sload\n      div\n      mul\n      dup4\n      mstore\n      swap2\n      0x20\n      add\n      swap2\n      jump(tag_117)\n    tag_118:\n      dup3\n      add\n      swap2\n      swap1\n      0x00\n      mstore\n      keccak256(0x00, 0x20)\n      swap1\n    tag_119:\n      dup2\n      sload\n      dup2\n      mstore\n      swap1\n      0x01\n      add\n      swap1\n      0x20\n      add\n      dup1\n      dup4\n      gt\n      tag_119\n      jumpi\n      dup3\n      swap1\n      sub\n      0x1f\n      and\n      dup3\n      add\n      swap2\n    tag_117:\n      pop\n      pop\n      pop\n      pop\n      pop\n      swap1\n      dup1\n      0x05\n      add\n      dup1\n      sload\n      tag_120\n      swap1\n      tag_83\n      jump\t// in\n    tag_120:\n      dup1\n      0x1f\n      add\n      0x20\n      dup1\n      swap2\n      div\n      mul\n      0x20\n      add\n      mload(0x40)\n      swap1\n      dup2\n      add\n      0x40\n      mstore\n      dup1\n      swap3\n      swap2\n      swap1\n      dup2\n      dup2\n      mstore\n      0x20\n      add\n      dup3\n      dup1\n      sload\n      tag_121\n      swap1\n      tag_83\n      jump\t// in\n    tag_121:\n      dup1\n      iszero\n      tag_122\n      jumpi\n      dup1\n      0x1f\n      lt\n      tag_123\n      jumpi\n      0x0100\n      dup1\n      dup4\n      sload\n      div\n      mul\n      dup4\n      mstore\n      swap2\n      0x20\n      add\n      swap2\n      jump(tag_122)\n    tag_123:\n      dup3\n      add\n      swap2\n      swap1\n      0x00\n      mstore\n      keccak256(0x00, 0x20)\n      swap1\n    tag_124:\n      dup2\n      sload\n      dup2\n      mstore\n      swap1\n      0x01\n      add\n      swap1\n      0x20\n      add\n      dup1\n      dup4\n      gt\n      tag_124\n      jumpi\n      dup3\n      swap1\n      sub\n      0x1f\n      and\n      dup3\n      add\n      swap2\n    tag_122:\n      pop\n      pop\n      pop\n      pop\n      pop\n      swap1\n      dup1\n      0x06\n      add\n      sload\n      swap1\n      dup1\n      0x07\n      add\n      0x00\n      swap1\n      sload\n      swap1\n      0x0100\n      exp\n      swap1\n      div\n      0xff\n      and\n      swap1\n      dup1\n      0x08\n      add\n      dup1\n      sload\n      tag_125\n      swap1\n      tag_83\n      jump\t// in\n    tag_125:\n      dup1\n      0x1f\n      add\n      0x20\n      dup1\n      swap2\n      div\n      mul\n      0x20\n      add\n      mload(0x40)\n      swap1\n      dup2\n      add\n      0x40\n      mstore\n      dup1\n      swap3\n      swap2\n      swap1\n      dup2\n      dup2\n      mstore\n      0x20\n      add\n      dup3\n      dup1\n      sload\n      tag_126\n      swap1\n      tag_83\n      jump\t// in\n    tag_126:\n      dup1\n      iszero\n      tag_127\n      jumpi\n      dup1\n      0x1f\n      lt\n      tag_128\n      jumpi\n      0x0100\n      dup1\n      dup4\n      sload\n      div\n      mul\n      dup4\n      mstore\n      swap2\n      0x20\n      add\n      swap2\n      jump(tag_127)\n    tag_128:\n      dup3\n      add\n      swap2\n      swap1\n      0x00\n      mstore\n      keccak256(0x00, 0x20)\n      swap1\n    tag_129:\n      dup2\n      sload\n      dup2\n      mstore\n      swap1\n      0x01\n      add\n      swap1\n      0x20\n      add\n      dup1\n      dup4\n      gt\n      tag_129\n      jumpi\n      dup3\n      swap1\n      sub\n      0x1f\n      and\n      dup3\n      add\n      swap2\n    tag_127:\n      pop\n      pop\n      pop\n      pop\n      pop\n      swap1\n      dup1\n      0x09\n      add\n      0x00\n      swap1\n      sload\n      swap1\n      0x0100\n      exp\n      swap1\n      div\n      0xffffffffffffffffffffffffffffffffffffffff\n      and\n      swap1\n      pop\n      dup11\n      jump\t// out\n        /* \"contracts/setAccessTime.sol\":6427:7772  function issueCertificate(... */\n    tag_34:\n        /* \"contracts/setAccessTime.sol\":2504:2521  authorizedIssuers */\n      0x02\n        /* \"contracts/setAccessTime.sol\":2504:2533  authorizedIssuers[msg.sender] */\n      0x00\n        /* \"contracts/setAccessTime.sol\":2522:2532  msg.sender */\n      caller\n        /* \"contracts/setAccessTime.sol\":2504:2533  authorizedIssuers[msg.sender] */\n      0xffffffffffffffffffffffffffffffffffffffff\n      and\n      0xffffffffffffffffffffffffffffffffffffffff\n      and\n      dup2\n      mstore\n      0x20\n      add\n      swap1\n      dup2\n      mstore\n      0x20\n      add\n      0x00\n      keccak256\n      0x00\n      swap1\n      sload\n      swap1\n      0x0100\n      exp\n      swap1\n      div\n      0xff\n      and\n        /* \"contracts/setAccessTime.sol\":2483:2605  require(... */\n      tag_131\n      jumpi\n      mload(0x40)\n      0x08c379a000000000000000000000000000000000000000000000000000000000\n      dup2\n      mstore\n      0x04\n      add\n      tag_132\n      swap1\n      tag_38\n      jump\t// in\n    tag_132:\n      mload(0x40)\n      dup1\n      swap2\n      sub\n      swap1\n      revert\n    tag_131:\n        /* \"contracts/setAccessTime.sol\":6740:6744  true */\n      0x01\n        /* \"contracts/setAccessTime.sol\":6704:6721  authorizedStudent */\n      0x04\n        /* \"contracts/setAccessTime.sol\":6704:6737  authorizedStudent[studentAddress] */\n      0x00\n        /* \"contracts/setAccessTime.sol\":6722:6736  studentAddress */\n      dup9\n        /* \"contracts/setAccessTime.sol\":6704:6737  authorizedStudent[studentAddress] */\n      0xffffffffffffffffffffffffffffffffffffffff\n      and\n      0xffffffffffffffffffffffffffffffffffffffff\n      and\n      dup2\n      mstore\n      0x20\n      add\n      swap1\n      dup2\n      mstore\n      0x20\n      add\n      0x00\n      keccak256\n      0x00\n        /* \"contracts/setAccessTime.sol\":6704:6744  authorizedStudent[studentAddress] = true */\n      0x0100\n      exp\n      dup2\n      sload\n      dup2\n      0xff\n      mul\n      not\n      and\n      swap1\n      dup4\n      iszero\n      iszero\n      mul\n      or\n      swap1\n      sstore\n      pop\n        /* \"contracts/setAccessTime.sol\":6914:6937  Student storage student */\n      0x00\n        /* \"contracts/setAccessTime.sol\":6940:6948  students */\n      0x05\n        /* \"contracts/setAccessTime.sol\":6940:6964  students[studentAddress] */\n      0x00\n        /* \"contracts/setAccessTime.sol\":6949:6963  studentAddress */\n      dup9\n        /* \"contracts/setAccessTime.sol\":6940:6964  students[studentAddress] */\n      0xffffffffffffffffffffffffffffffffffffffff\n      and\n      0xffffffffffffffffffffffffffffffffffffffff\n      and\n      dup2\n      mstore\n      0x20\n      add\n      swap1\n      dup2\n      mstore\n      0x20\n      add\n      0x00\n      keccak256\n        /* \"contracts/setAccessTime.sol\":6914:6964  Student storage student = students[studentAddress] */\n      swap1\n      pop\n        /* \"contracts/setAccessTime.sol\":6999:7013  studentAddress */\n      dup7\n        /* \"contracts/setAccessTime.sol\":6974:6981  student */\n      dup2\n        /* \"contracts/setAccessTime.sol\":6974:6996  student.studentAddress */\n      0x00\n      add\n      0x00\n        /* \"contracts/setAccessTime.sol\":6974:7013  student.studentAddress = studentAddress */\n      0x0100\n      exp\n      dup2\n      sload\n      dup2\n      0xffffffffffffffffffffffffffffffffffffffff\n      mul\n      not\n      and\n      swap1\n      dup4\n      0xffffffffffffffffffffffffffffffffffffffff\n      and\n      mul\n      or\n      swap1\n      sstore\n      pop\n        /* \"contracts/setAccessTime.sol\":7049:7064  certificateName */\n      dup6\n        /* \"contracts/setAccessTime.sol\":7023:7030  student */\n      dup2\n        /* \"contracts/setAccessTime.sol\":7023:7046  student.certificateName */\n      0x01\n      add\n        /* \"contracts/setAccessTime.sol\":7023:7064  student.certificateName = certificateName */\n      swap1\n      dup2\n      tag_134\n      swap2\n      swap1\n      tag_41\n      jump\t// in\n    tag_134:\n      pop\n        /* \"contracts/setAccessTime.sol\":7096:7107  studentName */\n      dup5\n        /* \"contracts/setAccessTime.sol\":7074:7081  student */\n      dup2\n        /* \"contracts/setAccessTime.sol\":7074:7093  student.studentName */\n      0x02\n      add\n        /* \"contracts/setAccessTime.sol\":7074:7107  student.studentName = studentName */\n      swap1\n      dup2\n      tag_135\n      swap2\n      swap1\n      tag_41\n      jump\t// in\n    tag_135:\n      pop\n        /* \"contracts/setAccessTime.sol\":7137:7146  studentId */\n      dup4\n        /* \"contracts/setAccessTime.sol\":7117:7124  student */\n      dup2\n        /* \"contracts/setAccessTime.sol\":7117:7134  student.studentId */\n      0x03\n      add\n        /* \"contracts/setAccessTime.sol\":7117:7146  student.studentId = studentId */\n      swap1\n      dup2\n      tag_136\n      swap2\n      swap1\n      tag_41\n      jump\t// in\n    tag_136:\n      pop\n        /* \"contracts/setAccessTime.sol\":7174:7181  faculty */\n      dup3\n        /* \"contracts/setAccessTime.sol\":7156:7163  student */\n      dup2\n        /* \"contracts/setAccessTime.sol\":7156:7171  student.faculty */\n      0x04\n      add\n        /* \"contracts/setAccessTime.sol\":7156:7181  student.faculty = faculty */\n      swap1\n      dup2\n      tag_137\n      swap2\n      swap1\n      tag_41\n      jump\t// in\n    tag_137:\n      pop\n        /* \"contracts/setAccessTime.sol\":7212:7222  department */\n      dup2\n        /* \"contracts/setAccessTime.sol\":7191:7198  student */\n      dup2\n        /* \"contracts/setAccessTime.sol\":7191:7209  student.department */\n      0x05\n      add\n        /* \"contracts/setAccessTime.sol\":7191:7222  student.department = department */\n      swap1\n      dup2\n      tag_138\n      swap2\n      swap1\n      tag_41\n      jump\t// in\n    tag_138:\n      pop\n        /* \"contracts/setAccessTime.sol\":7253:7254  0 */\n      0x00\n        /* \"contracts/setAccessTime.sol\":7232:7239  student */\n      dup2\n        /* \"contracts/setAccessTime.sol\":7232:7250  student.accessTime */\n      0x06\n      add\n        /* \"contracts/setAccessTime.sol\":7232:7254  student.accessTime = 0 */\n      dup2\n      swap1\n      sstore\n      pop\n        /* \"contracts/setAccessTime.sol\":7288:7293  false */\n      0x00\n        /* \"contracts/setAccessTime.sol\":7264:7271  student */\n      dup2\n        /* \"contracts/setAccessTime.sol\":7264:7285  student.revokedStatus */\n      0x07\n      add\n      0x00\n        /* \"contracts/setAccessTime.sol\":7264:7293  student.revokedStatus = false */\n      0x0100\n      exp\n      dup2\n      sload\n      dup2\n      0xff\n      mul\n      not\n      and\n      swap1\n      dup4\n      iszero\n      iszero\n      mul\n      or\n      swap1\n      sstore\n      pop\n        /* \"contracts/setAccessTime.sol\":7327:7337  msg.sender */\n      caller\n        /* \"contracts/setAccessTime.sol\":7303:7310  student */\n      dup2\n        /* \"contracts/setAccessTime.sol\":7303:7324  student.issuedAddress */\n      0x09\n      add\n      0x00\n        /* \"contracts/setAccessTime.sol\":7303:7337  student.issuedAddress = msg.sender */\n      0x0100\n      exp\n      dup2\n      sload\n      dup2\n      0xffffffffffffffffffffffffffffffffffffffff\n      mul\n      not\n      and\n      swap1\n      dup4\n      0xffffffffffffffffffffffffffffffffffffffff\n      and\n      mul\n      or\n      swap1\n      sstore\n      pop\n        /* \"contracts/setAccessTime.sol\":7368:7374  admins */\n      0x06\n        /* \"contracts/setAccessTime.sol\":7368:7386  admins[msg.sender] */\n      0x00\n        /* \"contracts/setAccessTime.sol\":7375:7385  msg.sender */\n      caller\n        /* \"contracts/setAccessTime.sol\":7368:7386  admins[msg.sender] */\n      0xffffffffffffffffffffffffffffffffffffffff\n      and\n      0xffffffffffffffffffffffffffffffffffffffff\n      and\n      dup2\n      mstore\n      0x20\n      add\n      swap1\n      dup2\n      mstore\n      0x20\n      add\n      0x00\n      keccak256\n        /* \"contracts/setAccessTime.sol\":7368:7391  admins[msg.sender].name */\n      0x01\n      add\n        /* \"contracts/setAccessTime.sol\":7347:7354  student */\n      dup2\n        /* \"contracts/setAccessTime.sol\":7347:7365  student.issuedName */\n      0x08\n      add\n        /* \"contracts/setAccessTime.sol\":7347:7391  student.issuedName = admins[msg.sender].name */\n      swap1\n      dup2\n      tag_139\n      swap2\n      swap1\n      tag_140\n      jump\t// in\n    tag_139:\n      pop\n        /* \"contracts/setAccessTime.sol\":7402:7421  _StudentCertificate */\n      0x00\n        /* \"contracts/setAccessTime.sol\":7440:7755  Student(... */\n      mload(0x40)\n      dup1\n      0x0140\n      add\n      0x40\n      mstore\n      dup1\n        /* \"contracts/setAccessTime.sol\":7465:7479  studentAddress */\n      dup10\n        /* \"contracts/setAccessTime.sol\":7440:7755  Student(... */\n      0xffffffffffffffffffffffffffffffffffffffff\n      and\n      dup2\n      mstore\n      0x20\n      add\n        /* \"contracts/setAccessTime.sol\":7497:7512  certificateName */\n      dup9\n        /* \"contracts/setAccessTime.sol\":7440:7755  Student(... */\n      dup2\n      mstore\n      0x20\n      add\n        /* \"contracts/setAccessTime.sol\":7530:7541  studentName */\n      dup8\n        /* \"contracts/setAccessTime.sol\":7440:7755  Student(... */\n      dup2\n      mstore\n      0x20\n      add\n        /* \"contracts/setAccessTime.sol\":7559:7568  studentId */\n      dup7\n        /* \"contracts/setAccessTime.sol\":7440:7755  Student(... */\n      dup2\n      mstore\n      0x20\n      add\n        /* \"contracts/setAccessTime.sol\":7586:7593  faculty */\n      dup6\n        /* \"contracts/setAccessTime.sol\":7440:7755  Student(... */\n      dup2\n      mstore\n      0x20\n      add\n        /* \"contracts/setAccessTime.sol\":7611:7621  department */\n      dup5\n        /* \"contracts/setAccessTime.sol\":7440:7755  Student(... */\n      dup2\n      mstore\n      0x20\n      add\n        /* \"contracts/setAccessTime.sol\":7639:7640  0 */\n      0x00\n        /* \"contracts/setAccessTime.sol\":7440:7755  Student(... */\n      dup2\n      mstore\n      0x20\n      add\n        /* \"contracts/setAccessTime.sol\":7658:7663  false */\n      0x00\n        /* \"contracts/setAccessTime.sol\":7440:7755  Student(... */\n      iszero\n      iszero\n      dup2\n      mstore\n      0x20\n      add\n        /* \"contracts/setAccessTime.sol\":7681:7687  admins */\n      0x06\n        /* \"contracts/setAccessTime.sol\":7681:7699  admins[msg.sender] */\n      0x00\n        /* \"contracts/setAccessTime.sol\":7688:7698  msg.sender */\n      caller\n        /* \"contracts/setAccessTime.sol\":7681:7699  admins[msg.sender] */\n      0xffffffffffffffffffffffffffffffffffffffff\n      and\n      0xffffffffffffffffffffffffffffffffffffffff\n      and\n      dup2\n      mstore\n      0x20\n      add\n      swap1\n      dup2\n      mstore\n      0x20\n      add\n      0x00\n      keccak256\n        /* \"contracts/setAccessTime.sol\":7681:7704  admins[msg.sender].name */\n      0x01\n      add\n        /* \"contracts/setAccessTime.sol\":7440:7755  Student(... */\n      dup1\n      sload\n      tag_141\n      swap1\n      tag_83\n      jump\t// in\n    tag_141:\n      dup1\n      0x1f\n      add\n      0x20\n      dup1\n      swap2\n      div\n      mul\n      0x20\n      add\n      mload(0x40)\n      swap1\n      dup2\n      add\n      0x40\n      mstore\n      dup1\n      swap3\n      swap2\n      swap1\n      dup2\n      dup2\n      mstore\n      0x20\n      add\n      dup3\n      dup1\n      sload\n      tag_142\n      swap1\n      tag_83\n      jump\t// in\n    tag_142:\n      dup1\n      iszero\n      tag_143\n      jumpi\n      dup1\n      0x1f\n      lt\n      tag_144\n      jumpi\n      0x0100\n      dup1\n      dup4\n      sload\n      div\n      mul\n      dup4\n      mstore\n      swap2\n      0x20\n      add\n      swap2\n      jump(tag_143)\n    tag_144:\n      dup3\n      add\n      swap2\n      swap1\n      0x00\n      mstore\n      keccak256(0x00, 0x20)\n      swap1\n    tag_145:\n      dup2\n      sload\n      dup2\n      mstore\n      swap1\n      0x01\n      add\n      swap1\n      0x20\n      add\n      dup1\n      dup4\n      gt\n      tag_145\n      jumpi\n      dup3\n      swap1\n      sub\n      0x1f\n      and\n      dup3\n      add\n      swap2\n    tag_143:\n      pop\n      pop\n      pop\n      pop\n      pop\n      dup2\n      mstore\n      0x20\n      add\n        /* \"contracts/setAccessTime.sol\":7730:7740  msg.sender */\n      caller\n        /* \"contracts/setAccessTime.sol\":7440:7755  Student(... */\n      0xffffffffffffffffffffffffffffffffffffffff\n      and\n      dup2\n      mstore\n      pop\n        /* \"contracts/setAccessTime.sol\":7402:7765  _StudentCertificate.push(... */\n      swap1\n      dup1\n      0x01\n      dup2\n      sload\n      add\n      dup1\n      dup3\n      sstore\n      dup1\n      swap2\n      pop\n      pop\n      0x01\n      swap1\n      sub\n      swap1\n      0x00\n      mstore\n      keccak256(0x00, 0x20)\n      swap1\n      0x0a\n      mul\n      add\n      0x00\n      swap1\n      swap2\n      swap1\n      swap2\n      swap1\n      swap2\n      pop\n      0x00\n      dup3\n      add\n      mload\n      dup2\n      0x00\n      add\n      exp(0x0100, 0x00)\n      dup2\n      sload\n      dup2\n      0xffffffffffffffffffffffffffffffffffffffff\n      mul\n      not\n      and\n      swap1\n      dup4\n      0xffffffffffffffffffffffffffffffffffffffff\n      and\n      mul\n      or\n      swap1\n      sstore\n      pop\n      0x20\n      dup3\n      add\n      mload\n      dup2\n      0x01\n      add\n      swap1\n      dup2\n      tag_147\n      swap2\n      swap1\n      tag_41\n      jump\t// in\n    tag_147:\n      pop\n      0x40\n      dup3\n      add\n      mload\n      dup2\n      0x02\n      add\n      swap1\n      dup2\n      tag_148\n      swap2\n      swap1\n      tag_41\n      jump\t// in\n    tag_148:\n      pop\n      0x60\n      dup3\n      add\n      mload\n      dup2\n      0x03\n      add\n      swap1\n      dup2\n      tag_149\n      swap2\n      swap1\n      tag_41\n      jump\t// in\n    tag_149:\n      pop\n      0x80\n      dup3\n      add\n      mload\n      dup2\n      0x04\n      add\n      swap1\n      dup2\n      tag_150\n      swap2\n      swap1\n      tag_41\n      jump\t// in\n    tag_150:\n      pop\n      0xa0\n      dup3\n      add\n      mload\n      dup2\n      0x05\n      add\n      swap1\n      dup2\n      tag_151\n      swap2\n      swap1\n      tag_41\n      jump\t// in\n    tag_151:\n      pop\n      0xc0\n      dup3\n      add\n      mload\n      dup2\n      0x06\n      add\n      sstore\n      0xe0\n      dup3\n      add\n      mload\n      dup2\n      0x07\n      add\n      exp(0x0100, 0x00)\n      dup2\n      sload\n      dup2\n      0xff\n      mul\n      not\n      and\n      swap1\n      dup4\n      iszero\n      iszero\n      mul\n      or\n      swap1\n      sstore\n      pop\n      0x0100\n      dup3\n      add\n      mload\n      dup2\n      0x08\n      add\n      swap1\n      dup2\n      tag_152\n      swap2\n      swap1\n      tag_41\n      jump\t// in\n    tag_152:\n      pop\n      0x0120\n      dup3\n      add\n      mload\n      dup2\n      0x09\n      add\n      exp(0x0100, 0x00)\n      dup2\n      sload\n      dup2\n      0xffffffffffffffffffffffffffffffffffffffff\n      mul\n      not\n      and\n      swap1\n      dup4\n      0xffffffffffffffffffffffffffffffffffffffff\n      and\n      mul\n      or\n      swap1\n      sstore\n      pop\n      pop\n      pop\n        /* \"contracts/setAccessTime.sol\":6694:7772  {... */\n      pop\n        /* \"contracts/setAccessTime.sol\":6427:7772  function issueCertificate(... */\n      pop\n      pop\n      pop\n      pop\n      pop\n      pop\n      jump\t// out\n        /* \"#utility.yul\":7:82   */\n    tag_153:\n        /* \"#utility.yul\":40:46   */\n      0x00\n        /* \"#utility.yul\":73:75   */\n      0x40\n        /* \"#utility.yul\":67:76   */\n      mload\n        /* \"#utility.yul\":57:76   */\n      swap1\n      pop\n        /* \"#utility.yul\":7:82   */\n      swap1\n      jump\t// out\n        /* \"#utility.yul\":88:205   */\n    tag_154:\n        /* \"#utility.yul\":197:198   */\n      0x00\n        /* \"#utility.yul\":194:195   */\n      dup1\n        /* \"#utility.yul\":187:199   */\n      revert\n        /* \"#utility.yul\":211:328   */\n    tag_155:\n        /* \"#utility.yul\":320:321   */\n      0x00\n        /* \"#utility.yul\":317:318   */\n      dup1\n        /* \"#utility.yul\":310:322   */\n      revert\n        /* \"#utility.yul\":334:460   */\n    tag_156:\n        /* \"#utility.yul\":371:378   */\n      0x00\n        /* \"#utility.yul\":411:453   */\n      0xffffffffffffffffffffffffffffffffffffffff\n        /* \"#utility.yul\":404:409   */\n      dup3\n        /* \"#utility.yul\":400:454   */\n      and\n        /* \"#utility.yul\":389:454   */\n      swap1\n      pop\n        /* \"#utility.yul\":334:460   */\n      swap2\n      swap1\n      pop\n      jump\t// out\n        /* \"#utility.yul\":466:562   */\n    tag_157:\n        /* \"#utility.yul\":503:510   */\n      0x00\n        /* \"#utility.yul\":532:556   */\n      tag_208\n        /* \"#utility.yul\":550:555   */\n      dup3\n        /* \"#utility.yul\":532:556   */\n      tag_156\n      jump\t// in\n    tag_208:\n        /* \"#utility.yul\":521:556   */\n      swap1\n      pop\n        /* \"#utility.yul\":466:562   */\n      swap2\n      swap1\n      pop\n      jump\t// out\n        /* \"#utility.yul\":568:690   */\n    tag_158:\n        /* \"#utility.yul\":641:665   */\n      tag_210\n        /* \"#utility.yul\":659:664   */\n      dup2\n        /* \"#utility.yul\":641:665   */\n      tag_157\n      jump\t// in\n    tag_210:\n        /* \"#utility.yul\":634:639   */\n      dup2\n        /* \"#utility.yul\":631:666   */\n      eq\n        /* \"#utility.yul\":621:684   */\n      tag_211\n      jumpi\n        /* \"#utility.yul\":680:681   */\n      0x00\n        /* \"#utility.yul\":677:678   */\n      dup1\n        /* \"#utility.yul\":670:682   */\n      revert\n        /* \"#utility.yul\":621:684   */\n    tag_211:\n        /* \"#utility.yul\":568:690   */\n      pop\n      jump\t// out\n        /* \"#utility.yul\":696:835   */\n    tag_159:\n        /* \"#utility.yul\":742:747   */\n      0x00\n        /* \"#utility.yul\":780:786   */\n      dup2\n        /* \"#utility.yul\":767:787   */\n      calldataload\n        /* \"#utility.yul\":758:787   */\n      swap1\n      pop\n        /* \"#utility.yul\":796:829   */\n      tag_213\n        /* \"#utility.yul\":823:828   */\n      dup2\n        /* \"#utility.yul\":796:829   */\n      tag_158\n      jump\t// in\n    tag_213:\n        /* \"#utility.yul\":696:835   */\n      swap3\n      swap2\n      pop\n      pop\n      jump\t// out\n        /* \"#utility.yul\":841:958   */\n    tag_160:\n        /* \"#utility.yul\":950:951   */\n      0x00\n        /* \"#utility.yul\":947:948   */\n      dup1\n        /* \"#utility.yul\":940:952   */\n      revert\n        /* \"#utility.yul\":964:1081   */\n    tag_161:\n        /* \"#utility.yul\":1073:1074   */\n      0x00\n        /* \"#utility.yul\":1070:1071   */\n      dup1\n        /* \"#utility.yul\":1063:1075   */\n      revert\n        /* \"#utility.yul\":1087:1189   */\n    tag_162:\n        /* \"#utility.yul\":1128:1134   */\n      0x00\n        /* \"#utility.yul\":1179:1181   */\n      0x1f\n        /* \"#utility.yul\":1175:1182   */\n      not\n        /* \"#utility.yul\":1170:1172   */\n      0x1f\n        /* \"#utility.yul\":1163:1168   */\n      dup4\n        /* \"#utility.yul\":1159:1173   */\n      add\n        /* \"#utility.yul\":1155:1183   */\n      and\n        /* \"#utility.yul\":1145:1183   */\n      swap1\n      pop\n        /* \"#utility.yul\":1087:1189   */\n      swap2\n      swap1\n      pop\n      jump\t// out\n        /* \"#utility.yul\":1195:1375   */\n    tag_163:\n        /* \"#utility.yul\":1243:1320   */\n      0x4e487b7100000000000000000000000000000000000000000000000000000000\n        /* \"#utility.yul\":1240:1241   */\n      0x00\n        /* \"#utility.yul\":1233:1321   */\n      mstore\n        /* \"#utility.yul\":1340:1344   */\n      0x41\n        /* \"#utility.yul\":1337:1338   */\n      0x04\n        /* \"#utility.yul\":1330:1345   */\n      mstore\n        /* \"#utility.yul\":1364:1368   */\n      0x24\n        /* \"#utility.yul\":1361:1362   */\n      0x00\n        /* \"#utility.yul\":1354:1369   */\n      revert\n        /* \"#utility.yul\":1381:1662   */\n    tag_164:\n        /* \"#utility.yul\":1464:1491   */\n      tag_219\n        /* \"#utility.yul\":1486:1490   */\n      dup3\n        /* \"#utility.yul\":1464:1491   */\n      tag_162\n      jump\t// in\n    tag_219:\n        /* \"#utility.yul\":1456:1462   */\n      dup2\n        /* \"#utility.yul\":1452:1492   */\n      add\n        /* \"#utility.yul\":1594:1600   */\n      dup2\n        /* \"#utility.yul\":1582:1592   */\n      dup2\n        /* \"#utility.yul\":1579:1601   */\n      lt\n        /* \"#utility.yul\":1558:1576   */\n      0xffffffffffffffff\n        /* \"#utility.yul\":1546:1556   */\n      dup3\n        /* \"#utility.yul\":1543:1577   */\n      gt\n        /* \"#utility.yul\":1540:1602   */\n      or\n        /* \"#utility.yul\":1537:1625   */\n      iszero\n      tag_220\n      jumpi\n        /* \"#utility.yul\":1605:1623   */\n      tag_221\n      tag_163\n      jump\t// in\n    tag_221:\n        /* \"#utility.yul\":1537:1625   */\n    tag_220:\n        /* \"#utility.yul\":1645:1655   */\n      dup1\n        /* \"#utility.yul\":1641:1643   */\n      0x40\n        /* \"#utility.yul\":1634:1656   */\n      mstore\n        /* \"#utility.yul\":1424:1662   */\n      pop\n        /* \"#utility.yul\":1381:1662   */\n      pop\n      pop\n      jump\t// out\n        /* \"#utility.yul\":1668:1797   */\n    tag_165:\n        /* \"#utility.yul\":1702:1708   */\n      0x00\n        /* \"#utility.yul\":1729:1749   */\n      tag_223\n      tag_153\n      jump\t// in\n    tag_223:\n        /* \"#utility.yul\":1719:1749   */\n      swap1\n      pop\n        /* \"#utility.yul\":1758:1791   */\n      tag_224\n        /* \"#utility.yul\":1786:1790   */\n      dup3\n        /* \"#utility.yul\":1778:1784   */\n      dup3\n        /* \"#utility.yul\":1758:1791   */\n      tag_164\n      jump\t// in\n    tag_224:\n        /* \"#utility.yul\":1668:1797   */\n      swap2\n      swap1\n      pop\n      jump\t// out\n        /* \"#utility.yul\":1803:2111   */\n    tag_166:\n        /* \"#utility.yul\":1865:1869   */\n      0x00\n        /* \"#utility.yul\":1955:1973   */\n      0xffffffffffffffff\n        /* \"#utility.yul\":1947:1953   */\n      dup3\n        /* \"#utility.yul\":1944:1974   */\n      gt\n        /* \"#utility.yul\":1941:1997   */\n      iszero\n      tag_226\n      jumpi\n        /* \"#utility.yul\":1977:1995   */\n      tag_227\n      tag_163\n      jump\t// in\n    tag_227:\n        /* \"#utility.yul\":1941:1997   */\n    tag_226:\n        /* \"#utility.yul\":2015:2044   */\n      tag_228\n        /* \"#utility.yul\":2037:2043   */\n      dup3\n        /* \"#utility.yul\":2015:2044   */\n      tag_162\n      jump\t// in\n    tag_228:\n        /* \"#utility.yul\":2007:2044   */\n      swap1\n      pop\n        /* \"#utility.yul\":2099:2103   */\n      0x20\n        /* \"#utility.yul\":2093:2097   */\n      dup2\n        /* \"#utility.yul\":2089:2104   */\n      add\n        /* \"#utility.yul\":2081:2104   */\n      swap1\n      pop\n        /* \"#utility.yul\":1803:2111   */\n      swap2\n      swap1\n      pop\n      jump\t// out\n        /* \"#utility.yul\":2117:2263   */\n    tag_167:\n        /* \"#utility.yul\":2214:2220   */\n      dup3\n        /* \"#utility.yul\":2209:2212   */\n      dup2\n        /* \"#utility.yul\":2204:2207   */\n      dup4\n        /* \"#utility.yul\":2191:2221   */\n      calldatacopy\n        /* \"#utility.yul\":2255:2256   */\n      0x00\n        /* \"#utility.yul\":2246:2252   */\n      dup4\n        /* \"#utility.yul\":2241:2244   */\n      dup4\n        /* \"#utility.yul\":2237:2253   */\n      add\n        /* \"#utility.yul\":2230:2257   */\n      mstore\n        /* \"#utility.yul\":2117:2263   */\n      pop\n      pop\n      pop\n      jump\t// out\n        /* \"#utility.yul\":2269:2694   */\n    tag_168:\n        /* \"#utility.yul\":2347:2352   */\n      0x00\n        /* \"#utility.yul\":2372:2438   */\n      tag_231\n        /* \"#utility.yul\":2388:2437   */\n      tag_232\n        /* \"#utility.yul\":2430:2436   */\n      dup5\n        /* \"#utility.yul\":2388:2437   */\n      tag_166\n      jump\t// in\n    tag_232:\n        /* \"#utility.yul\":2372:2438   */\n      tag_165\n      jump\t// in\n    tag_231:\n        /* \"#utility.yul\":2363:2438   */\n      swap1\n      pop\n        /* \"#utility.yul\":2461:2467   */\n      dup3\n        /* \"#utility.yul\":2454:2459   */\n      dup2\n        /* \"#utility.yul\":2447:2468   */\n      mstore\n        /* \"#utility.yul\":2499:2503   */\n      0x20\n        /* \"#utility.yul\":2492:2497   */\n      dup2\n        /* \"#utility.yul\":2488:2504   */\n      add\n        /* \"#utility.yul\":2537:2540   */\n      dup5\n        /* \"#utility.yul\":2528:2534   */\n      dup5\n        /* \"#utility.yul\":2523:2526   */\n      dup5\n        /* \"#utility.yul\":2519:2535   */\n      add\n        /* \"#utility.yul\":2516:2541   */\n      gt\n        /* \"#utility.yul\":2513:2625   */\n      iszero\n      tag_233\n      jumpi\n        /* \"#utility.yul\":2544:2623   */\n      tag_234\n      tag_161\n      jump\t// in\n    tag_234:\n        /* \"#utility.yul\":2513:2625   */\n    tag_233:\n        /* \"#utility.yul\":2634:2688   */\n      tag_235\n        /* \"#utility.yul\":2681:2687   */\n      dup5\n        /* \"#utility.yul\":2676:2679   */\n      dup3\n        /* \"#utility.yul\":2671:2674   */\n      dup6\n        /* \"#utility.yul\":2634:2688   */\n      tag_167\n      jump\t// in\n    tag_235:\n        /* \"#utility.yul\":2353:2694   */\n      pop\n        /* \"#utility.yul\":2269:2694   */\n      swap4\n      swap3\n      pop\n      pop\n      pop\n      jump\t// out\n        /* \"#utility.yul\":2714:3054   */\n    tag_169:\n        /* \"#utility.yul\":2770:2775   */\n      0x00\n        /* \"#utility.yul\":2819:2822   */\n      dup3\n        /* \"#utility.yul\":2812:2816   */\n      0x1f\n        /* \"#utility.yul\":2804:2810   */\n      dup4\n        /* \"#utility.yul\":2800:2817   */\n      add\n        /* \"#utility.yul\":2796:2823   */\n      slt\n        /* \"#utility.yul\":2786:2908   */\n      tag_237\n      jumpi\n        /* \"#utility.yul\":2827:2906   */\n      tag_238\n      tag_160\n      jump\t// in\n    tag_238:\n        /* \"#utility.yul\":2786:2908   */\n    tag_237:\n        /* \"#utility.yul\":2944:2950   */\n      dup2\n        /* \"#utility.yul\":2931:2951   */\n      calldataload\n        /* \"#utility.yul\":2969:3048   */\n      tag_239\n        /* \"#utility.yul\":3044:3047   */\n      dup5\n        /* \"#utility.yul\":3036:3042   */\n      dup3\n        /* \"#utility.yul\":3029:3033   */\n      0x20\n        /* \"#utility.yul\":3021:3027   */\n      dup7\n        /* \"#utility.yul\":3017:3034   */\n      add\n        /* \"#utility.yul\":2969:3048   */\n      tag_168\n      jump\t// in\n    tag_239:\n        /* \"#utility.yul\":2960:3048   */\n      swap2\n      pop\n        /* \"#utility.yul\":2776:3054   */\n      pop\n        /* \"#utility.yul\":2714:3054   */\n      swap3\n      swap2\n      pop\n      pop\n      jump\t// out\n        /* \"#utility.yul\":3060:4365   */\n    tag_11:\n        /* \"#utility.yul\":3176:3182   */\n      0x00\n        /* \"#utility.yul\":3184:3190   */\n      dup1\n        /* \"#utility.yul\":3192:3198   */\n      0x00\n        /* \"#utility.yul\":3200:3206   */\n      dup1\n        /* \"#utility.yul\":3249:3252   */\n      0x80\n        /* \"#utility.yul\":3237:3246   */\n      dup6\n        /* \"#utility.yul\":3228:3235   */\n      dup8\n        /* \"#utility.yul\":3224:3247   */\n      sub\n        /* \"#utility.yul\":3220:3253   */\n      slt\n        /* \"#utility.yul\":3217:3337   */\n      iszero\n      tag_241\n      jumpi\n        /* \"#utility.yul\":3256:3335   */\n      tag_242\n      tag_154\n      jump\t// in\n    tag_242:\n        /* \"#utility.yul\":3217:3337   */\n    tag_241:\n        /* \"#utility.yul\":3376:3377   */\n      0x00\n        /* \"#utility.yul\":3401:3454   */\n      tag_243\n        /* \"#utility.yul\":3446:3453   */\n      dup8\n        /* \"#utility.yul\":3437:3443   */\n      dup3\n        /* \"#utility.yul\":3426:3435   */\n      dup9\n        /* \"#utility.yul\":3422:3444   */\n      add\n        /* \"#utility.yul\":3401:3454   */\n      tag_159\n      jump\t// in\n    tag_243:\n        /* \"#utility.yul\":3391:3454   */\n      swap5\n      pop\n        /* \"#utility.yul\":3347:3464   */\n      pop\n        /* \"#utility.yul\":3531:3533   */\n      0x20\n        /* \"#utility.yul\":3520:3529   */\n      dup6\n        /* \"#utility.yul\":3516:3534   */\n      add\n        /* \"#utility.yul\":3503:3535   */\n      calldataload\n        /* \"#utility.yul\":3562:3580   */\n      0xffffffffffffffff\n        /* \"#utility.yul\":3554:3560   */\n      dup2\n        /* \"#utility.yul\":3551:3581   */\n      gt\n        /* \"#utility.yul\":3548:3665   */\n      iszero\n      tag_244\n      jumpi\n        /* \"#utility.yul\":3584:3663   */\n      tag_245\n      tag_155\n      jump\t// in\n    tag_245:\n        /* \"#utility.yul\":3548:3665   */\n    tag_244:\n        /* \"#utility.yul\":3689:3752   */\n      tag_246\n        /* \"#utility.yul\":3744:3751   */\n      dup8\n        /* \"#utility.yul\":3735:3741   */\n      dup3\n        /* \"#utility.yul\":3724:3733   */\n      dup9\n        /* \"#utility.yul\":3720:3742   */\n      add\n        /* \"#utility.yul\":3689:3752   */\n      tag_169\n      jump\t// in\n    tag_246:\n        /* \"#utility.yul\":3679:3752   */\n      swap4\n      pop\n        /* \"#utility.yul\":3474:3762   */\n      pop\n        /* \"#utility.yul\":3829:3831   */\n      0x40\n        /* \"#utility.yul\":3818:3827   */\n      dup6\n        /* \"#utility.yul\":3814:3832   */\n      add\n        /* \"#utility.yul\":3801:3833   */\n      calldataload\n        /* \"#utility.yul\":3860:3878   */\n      0xffffffffffffffff\n        /* \"#utility.yul\":3852:3858   */\n      dup2\n        /* \"#utility.yul\":3849:3879   */\n      gt\n        /* \"#utility.yul\":3846:3963   */\n      iszero\n      tag_247\n      jumpi\n        /* \"#utility.yul\":3882:3961   */\n      tag_248\n      tag_155\n      jump\t// in\n    tag_248:\n        /* \"#utility.yul\":3846:3963   */\n    tag_247:\n        /* \"#utility.yul\":3987:4050   */\n      tag_249\n        /* \"#utility.yul\":4042:4049   */\n      dup8\n        /* \"#utility.yul\":4033:4039   */\n      dup3\n        /* \"#utility.yul\":4022:4031   */\n      dup9\n        /* \"#utility.yul\":4018:4040   */\n      add\n        /* \"#utility.yul\":3987:4050   */\n      tag_169\n      jump\t// in\n    tag_249:\n        /* \"#utility.yul\":3977:4050   */\n      swap3\n      pop\n        /* \"#utility.yul\":3772:4060   */\n      pop\n        /* \"#utility.yul\":4127:4129   */\n      0x60\n        /* \"#utility.yul\":4116:4125   */\n      dup6\n        /* \"#utility.yul\":4112:4130   */\n      add\n        /* \"#utility.yul\":4099:4131   */\n      calldataload\n        /* \"#utility.yul\":4158:4176   */\n      0xffffffffffffffff\n        /* \"#utility.yul\":4150:4156   */\n      dup2\n        /* \"#utility.yul\":4147:4177   */\n      gt\n        /* \"#utility.yul\":4144:4261   */\n      iszero\n      tag_250\n      jumpi\n        /* \"#utility.yul\":4180:4259   */\n      tag_251\n      tag_155\n      jump\t// in\n    tag_251:\n        /* \"#utility.yul\":4144:4261   */\n    tag_250:\n        /* \"#utility.yul\":4285:4348   */\n      tag_252\n        /* \"#utility.yul\":4340:4347   */\n      dup8\n        /* \"#utility.yul\":4331:4337   */\n      dup3\n        /* \"#utility.yul\":4320:4329   */\n      dup9\n        /* \"#utility.yul\":4316:4338   */\n      add\n        /* \"#utility.yul\":4285:4348   */\n      tag_169\n      jump\t// in\n    tag_252:\n        /* \"#utility.yul\":4275:4348   */\n      swap2\n      pop\n        /* \"#utility.yul\":4070:4358   */\n      pop\n        /* \"#utility.yul\":3060:4365   */\n      swap3\n      swap6\n      swap2\n      swap5\n      pop\n      swap3\n      pop\n      jump\t// out\n        /* \"#utility.yul\":4371:4700   */\n    tag_15:\n        /* \"#utility.yul\":4430:4436   */\n      0x00\n        /* \"#utility.yul\":4479:4481   */\n      0x20\n        /* \"#utility.yul\":4467:4476   */\n      dup3\n        /* \"#utility.yul\":4458:4465   */\n      dup5\n        /* \"#utility.yul\":4454:4477   */\n      sub\n        /* \"#utility.yul\":4450:4482   */\n      slt\n        /* \"#utility.yul\":4447:4566   */\n      iszero\n      tag_254\n      jumpi\n        /* \"#utility.yul\":4485:4564   */\n      tag_255\n      tag_154\n      jump\t// in\n    tag_255:\n        /* \"#utility.yul\":4447:4566   */\n    tag_254:\n        /* \"#utility.yul\":4605:4606   */\n      0x00\n        /* \"#utility.yul\":4630:4683   */\n      tag_256\n        /* \"#utility.yul\":4675:4682   */\n      dup5\n        /* \"#utility.yul\":4666:4672   */\n      dup3\n        /* \"#utility.yul\":4655:4664   */\n      dup6\n        /* \"#utility.yul\":4651:4673   */\n      add\n        /* \"#utility.yul\":4630:4683   */\n      tag_159\n      jump\t// in\n    tag_256:\n        /* \"#utility.yul\":4620:4683   */\n      swap2\n      pop\n        /* \"#utility.yul\":4576:4693   */\n      pop\n        /* \"#utility.yul\":4371:4700   */\n      swap3\n      swap2\n      pop\n      pop\n      jump\t// out\n        /* \"#utility.yul\":4706:4783   */\n    tag_170:\n        /* \"#utility.yul\":4743:4750   */\n      0x00\n        /* \"#utility.yul\":4772:4777   */\n      dup2\n        /* \"#utility.yul\":4761:4777   */\n      swap1\n      pop\n        /* \"#utility.yul\":4706:4783   */\n      swap2\n      swap1\n      pop\n      jump\t// out\n        /* \"#utility.yul\":4789:4911   */\n    tag_171:\n        /* \"#utility.yul\":4862:4886   */\n      tag_259\n        /* \"#utility.yul\":4880:4885   */\n      dup2\n        /* \"#utility.yul\":4862:4886   */\n      tag_170\n      jump\t// in\n    tag_259:\n        /* \"#utility.yul\":4855:4860   */\n      dup2\n        /* \"#utility.yul\":4852:4887   */\n      eq\n        /* \"#utility.yul\":4842:4905   */\n      tag_260\n      jumpi\n        /* \"#utility.yul\":4901:4902   */\n      0x00\n        /* \"#utility.yul\":4898:4899   */\n      dup1\n        /* \"#utility.yul\":4891:4903   */\n      revert\n        /* \"#utility.yul\":4842:4905   */\n    tag_260:\n        /* \"#utility.yul\":4789:4911   */\n      pop\n      jump\t// out\n        /* \"#utility.yul\":4917:5056   */\n    tag_172:\n        /* \"#utility.yul\":4963:4968   */\n      0x00\n        /* \"#utility.yul\":5001:5007   */\n      dup2\n        /* \"#utility.yul\":4988:5008   */\n      calldataload\n        /* \"#utility.yul\":4979:5008   */\n      swap1\n      pop\n        /* \"#utility.yul\":5017:5050   */\n      tag_262\n        /* \"#utility.yul\":5044:5049   */\n      dup2\n        /* \"#utility.yul\":5017:5050   */\n      tag_171\n      jump\t// in\n    tag_262:\n        /* \"#utility.yul\":4917:5056   */\n      swap3\n      swap2\n      pop\n      pop\n      jump\t// out\n        /* \"#utility.yul\":5062:5391   */\n    tag_22:\n        /* \"#utility.yul\":5121:5127   */\n      0x00\n        /* \"#utility.yul\":5170:5172   */\n      0x20\n        /* \"#utility.yul\":5158:5167   */\n      dup3\n        /* \"#utility.yul\":5149:5156   */\n      dup5\n        /* \"#utility.yul\":5145:5168   */\n      sub\n        /* \"#utility.yul\":5141:5173   */\n      slt\n        /* \"#utility.yul\":5138:5257   */\n      iszero\n      tag_264\n      jumpi\n        /* \"#utility.yul\":5176:5255   */\n      tag_265\n      tag_154\n      jump\t// in\n    tag_265:\n        /* \"#utility.yul\":5138:5257   */\n    tag_264:\n        /* \"#utility.yul\":5296:5297   */\n      0x00\n        /* \"#utility.yul\":5321:5374   */\n      tag_266\n        /* \"#utility.yul\":5366:5373   */\n      dup5\n        /* \"#utility.yul\":5357:5363   */\n      dup3\n        /* \"#utility.yul\":5346:5355   */\n      dup6\n        /* \"#utility.yul\":5342:5364   */\n      add\n        /* \"#utility.yul\":5321:5374   */\n      tag_172\n      jump\t// in\n    tag_266:\n        /* \"#utility.yul\":5311:5374   */\n      swap2\n      pop\n        /* \"#utility.yul\":5267:5384   */\n      pop\n        /* \"#utility.yul\":5062:5391   */\n      swap3\n      swap2\n      pop\n      pop\n      jump\t// out\n        /* \"#utility.yul\":5397:5515   */\n    tag_173:\n        /* \"#utility.yul\":5484:5508   */\n      tag_268\n        /* \"#utility.yul\":5502:5507   */\n      dup2\n        /* \"#utility.yul\":5484:5508   */\n      tag_157\n      jump\t// in\n    tag_268:\n        /* \"#utility.yul\":5479:5482   */\n      dup3\n        /* \"#utility.yul\":5472:5509   */\n      mstore\n        /* \"#utility.yul\":5397:5515   */\n      pop\n      pop\n      jump\t// out\n        /* \"#utility.yul\":5521:5620   */\n    tag_174:\n        /* \"#utility.yul\":5573:5579   */\n      0x00\n        /* \"#utility.yul\":5607:5612   */\n      dup2\n        /* \"#utility.yul\":5601:5613   */\n      mload\n        /* \"#utility.yul\":5591:5613   */\n      swap1\n      pop\n        /* \"#utility.yul\":5521:5620   */\n      swap2\n      swap1\n      pop\n      jump\t// out\n        /* \"#utility.yul\":5626:5795   */\n    tag_175:\n        /* \"#utility.yul\":5710:5721   */\n      0x00\n        /* \"#utility.yul\":5744:5750   */\n      dup3\n        /* \"#utility.yul\":5739:5742   */\n      dup3\n        /* \"#utility.yul\":5732:5751   */\n      mstore\n        /* \"#utility.yul\":5784:5788   */\n      0x20\n        /* \"#utility.yul\":5779:5782   */\n      dup3\n        /* \"#utility.yul\":5775:5789   */\n      add\n        /* \"#utility.yul\":5760:5789   */\n      swap1\n      pop\n        /* \"#utility.yul\":5626:5795   */\n      swap3\n      swap2\n      pop\n      pop\n      jump\t// out\n        /* \"#utility.yul\":5801:6047   */\n    tag_176:\n        /* \"#utility.yul\":5882:5883   */\n      0x00\n        /* \"#utility.yul\":5892:6005   */\n    tag_272:\n        /* \"#utility.yul\":5906:5912   */\n      dup4\n        /* \"#utility.yul\":5903:5904   */\n      dup2\n        /* \"#utility.yul\":5900:5913   */\n      lt\n        /* \"#utility.yul\":5892:6005   */\n      iszero\n      tag_274\n      jumpi\n        /* \"#utility.yul\":5991:5992   */\n      dup1\n        /* \"#utility.yul\":5986:5989   */\n      dup3\n        /* \"#utility.yul\":5982:5993   */\n      add\n        /* \"#utility.yul\":5976:5994   */\n      mload\n        /* \"#utility.yul\":5972:5973   */\n      dup2\n        /* \"#utility.yul\":5967:5970   */\n      dup5\n        /* \"#utility.yul\":5963:5974   */\n      add\n        /* \"#utility.yul\":5956:5995   */\n      mstore\n        /* \"#utility.yul\":5928:5930   */\n      0x20\n        /* \"#utility.yul\":5925:5926   */\n      dup2\n        /* \"#utility.yul\":5921:5931   */\n      add\n        /* \"#utility.yul\":5916:5931   */\n      swap1\n      pop\n        /* \"#utility.yul\":5892:6005   */\n      jump(tag_272)\n    tag_274:\n        /* \"#utility.yul\":6039:6040   */\n      0x00\n        /* \"#utility.yul\":6030:6036   */\n      dup5\n        /* \"#utility.yul\":6025:6028   */\n      dup5\n        /* \"#utility.yul\":6021:6037   */\n      add\n        /* \"#utility.yul\":6014:6041   */\n      mstore\n        /* \"#utility.yul\":5863:6047   */\n      pop\n        /* \"#utility.yul\":5801:6047   */\n      pop\n      pop\n      pop\n      jump\t// out\n        /* \"#utility.yul\":6053:6430   */\n    tag_177:\n        /* \"#utility.yul\":6141:6144   */\n      0x00\n        /* \"#utility.yul\":6169:6208   */\n      tag_276\n        /* \"#utility.yul\":6202:6207   */\n      dup3\n        /* \"#utility.yul\":6169:6208   */\n      tag_174\n      jump\t// in\n    tag_276:\n        /* \"#utility.yul\":6224:6295   */\n      tag_277\n        /* \"#utility.yul\":6288:6294   */\n      dup2\n        /* \"#utility.yul\":6283:6286   */\n      dup6\n        /* \"#utility.yul\":6224:6295   */\n      tag_175\n      jump\t// in\n    tag_277:\n        /* \"#utility.yul\":6217:6295   */\n      swap4\n      pop\n        /* \"#utility.yul\":6304:6369   */\n      tag_278\n        /* \"#utility.yul\":6362:6368   */\n      dup2\n        /* \"#utility.yul\":6357:6360   */\n      dup6\n        /* \"#utility.yul\":6350:6354   */\n      0x20\n        /* \"#utility.yul\":6343:6348   */\n      dup7\n        /* \"#utility.yul\":6339:6355   */\n      add\n        /* \"#utility.yul\":6304:6369   */\n      tag_176\n      jump\t// in\n    tag_278:\n        /* \"#utility.yul\":6394:6423   */\n      tag_279\n        /* \"#utility.yul\":6416:6422   */\n      dup2\n        /* \"#utility.yul\":6394:6423   */\n      tag_162\n      jump\t// in\n    tag_279:\n        /* \"#utility.yul\":6389:6392   */\n      dup5\n        /* \"#utility.yul\":6385:6424   */\n      add\n        /* \"#utility.yul\":6378:6424   */\n      swap2\n      pop\n        /* \"#utility.yul\":6145:6430   */\n      pop\n        /* \"#utility.yul\":6053:6430   */\n      swap3\n      swap2\n      pop\n      pop\n      jump\t// out\n        /* \"#utility.yul\":6436:6526   */\n    tag_178:\n        /* \"#utility.yul\":6470:6477   */\n      0x00\n        /* \"#utility.yul\":6513:6518   */\n      dup2\n        /* \"#utility.yul\":6506:6519   */\n      iszero\n        /* \"#utility.yul\":6499:6520   */\n      iszero\n        /* \"#utility.yul\":6488:6520   */\n      swap1\n      pop\n        /* \"#utility.yul\":6436:6526   */\n      swap2\n      swap1\n      pop\n      jump\t// out\n        /* \"#utility.yul\":6532:6641   */\n    tag_179:\n        /* \"#utility.yul\":6613:6634   */\n      tag_282\n        /* \"#utility.yul\":6628:6633   */\n      dup2\n        /* \"#utility.yul\":6613:6634   */\n      tag_178\n      jump\t// in\n    tag_282:\n        /* \"#utility.yul\":6608:6611   */\n      dup3\n        /* \"#utility.yul\":6601:6635   */\n      mstore\n        /* \"#utility.yul\":6532:6641   */\n      pop\n      pop\n      jump\t// out\n        /* \"#utility.yul\":6647:7572   */\n    tag_25:\n        /* \"#utility.yul\":6906:6910   */\n      0x00\n        /* \"#utility.yul\":6944:6947   */\n      0xa0\n        /* \"#utility.yul\":6933:6942   */\n      dup3\n        /* \"#utility.yul\":6929:6948   */\n      add\n        /* \"#utility.yul\":6921:6948   */\n      swap1\n      pop\n        /* \"#utility.yul\":6958:7029   */\n      tag_284\n        /* \"#utility.yul\":7026:7027   */\n      0x00\n        /* \"#utility.yul\":7015:7024   */\n      dup4\n        /* \"#utility.yul\":7011:7028   */\n      add\n        /* \"#utility.yul\":7002:7008   */\n      dup9\n        /* \"#utility.yul\":6958:7029   */\n      tag_173\n      jump\t// in\n    tag_284:\n        /* \"#utility.yul\":7076:7085   */\n      dup2\n        /* \"#utility.yul\":7070:7074   */\n      dup2\n        /* \"#utility.yul\":7066:7086   */\n      sub\n        /* \"#utility.yul\":7061:7063   */\n      0x20\n        /* \"#utility.yul\":7050:7059   */\n      dup4\n        /* \"#utility.yul\":7046:7064   */\n      add\n        /* \"#utility.yul\":7039:7087   */\n      mstore\n        /* \"#utility.yul\":7104:7182   */\n      tag_285\n        /* \"#utility.yul\":7177:7181   */\n      dup2\n        /* \"#utility.yul\":7168:7174   */\n      dup8\n        /* \"#utility.yul\":7104:7182   */\n      tag_177\n      jump\t// in\n    tag_285:\n        /* \"#utility.yul\":7096:7182   */\n      swap1\n      pop\n        /* \"#utility.yul\":7229:7238   */\n      dup2\n        /* \"#utility.yul\":7223:7227   */\n      dup2\n        /* \"#utility.yul\":7219:7239   */\n      sub\n        /* \"#utility.yul\":7214:7216   */\n      0x40\n        /* \"#utility.yul\":7203:7212   */\n      dup4\n        /* \"#utility.yul\":7199:7217   */\n      add\n        /* \"#utility.yul\":7192:7240   */\n      mstore\n        /* \"#utility.yul\":7257:7335   */\n      tag_286\n        /* \"#utility.yul\":7330:7334   */\n      dup2\n        /* \"#utility.yul\":7321:7327   */\n      dup7\n        /* \"#utility.yul\":7257:7335   */\n      tag_177\n      jump\t// in\n    tag_286:\n        /* \"#utility.yul\":7249:7335   */\n      swap1\n      pop\n        /* \"#utility.yul\":7382:7391   */\n      dup2\n        /* \"#utility.yul\":7376:7380   */\n      dup2\n        /* \"#utility.yul\":7372:7392   */\n      sub\n        /* \"#utility.yul\":7367:7369   */\n      0x60\n        /* \"#utility.yul\":7356:7365   */\n      dup4\n        /* \"#utility.yul\":7352:7370   */\n      add\n        /* \"#utility.yul\":7345:7393   */\n      mstore\n        /* \"#utility.yul\":7410:7488   */\n      tag_287\n        /* \"#utility.yul\":7483:7487   */\n      dup2\n        /* \"#utility.yul\":7474:7480   */\n      dup6\n        /* \"#utility.yul\":7410:7488   */\n      tag_177\n      jump\t// in\n    tag_287:\n        /* \"#utility.yul\":7402:7488   */\n      swap1\n      pop\n        /* \"#utility.yul\":7498:7565   */\n      tag_288\n        /* \"#utility.yul\":7560:7563   */\n      0x80\n        /* \"#utility.yul\":7549:7558   */\n      dup4\n        /* \"#utility.yul\":7545:7564   */\n      add\n        /* \"#utility.yul\":7536:7542   */\n      dup5\n        /* \"#utility.yul\":7498:7565   */\n      tag_179\n      jump\t// in\n    tag_288:\n        /* \"#utility.yul\":6647:7572   */\n      swap7\n      swap6\n      pop\n      pop\n      pop\n      pop\n      pop\n      pop\n      jump\t// out\n        /* \"#utility.yul\":7578:7696   */\n    tag_180:\n        /* \"#utility.yul\":7665:7689   */\n      tag_290\n        /* \"#utility.yul\":7683:7688   */\n      dup2\n        /* \"#utility.yul\":7665:7689   */\n      tag_170\n      jump\t// in\n    tag_290:\n        /* \"#utility.yul\":7660:7663   */\n      dup3\n        /* \"#utility.yul\":7653:7690   */\n      mstore\n        /* \"#utility.yul\":7578:7696   */\n      pop\n      pop\n      jump\t// out\n        /* \"#utility.yul\":7702:9455   */\n    tag_30:\n        /* \"#utility.yul\":8161:8165   */\n      0x00\n        /* \"#utility.yul\":8199:8202   */\n      0x0140\n        /* \"#utility.yul\":8188:8197   */\n      dup3\n        /* \"#utility.yul\":8184:8203   */\n      add\n        /* \"#utility.yul\":8176:8203   */\n      swap1\n      pop\n        /* \"#utility.yul\":8213:8284   */\n      tag_292\n        /* \"#utility.yul\":8281:8282   */\n      0x00\n        /* \"#utility.yul\":8270:8279   */\n      dup4\n        /* \"#utility.yul\":8266:8283   */\n      add\n        /* \"#utility.yul\":8257:8263   */\n      dup14\n        /* \"#utility.yul\":8213:8284   */\n      tag_173\n      jump\t// in\n    tag_292:\n        /* \"#utility.yul\":8331:8340   */\n      dup2\n        /* \"#utility.yul\":8325:8329   */\n      dup2\n        /* \"#utility.yul\":8321:8341   */\n      sub\n        /* \"#utility.yul\":8316:8318   */\n      0x20\n        /* \"#utility.yul\":8305:8314   */\n      dup4\n        /* \"#utility.yul\":8301:8319   */\n      add\n        /* \"#utility.yul\":8294:8342   */\n      mstore\n        /* \"#utility.yul\":8359:8437   */\n      tag_293\n        /* \"#utility.yul\":8432:8436   */\n      dup2\n        /* \"#utility.yul\":8423:8429   */\n      dup13\n        /* \"#utility.yul\":8359:8437   */\n      tag_177\n      jump\t// in\n    tag_293:\n        /* \"#utility.yul\":8351:8437   */\n      swap1\n      pop\n        /* \"#utility.yul\":8484:8493   */\n      dup2\n        /* \"#utility.yul\":8478:8482   */\n      dup2\n        /* \"#utility.yul\":8474:8494   */\n      sub\n        /* \"#utility.yul\":8469:8471   */\n      0x40\n        /* \"#utility.yul\":8458:8467   */\n      dup4\n        /* \"#utility.yul\":8454:8472   */\n      add\n        /* \"#utility.yul\":8447:8495   */\n      mstore\n        /* \"#utility.yul\":8512:8590   */\n      tag_294\n        /* \"#utility.yul\":8585:8589   */\n      dup2\n        /* \"#utility.yul\":8576:8582   */\n      dup12\n        /* \"#utility.yul\":8512:8590   */\n      tag_177\n      jump\t// in\n    tag_294:\n        /* \"#utility.yul\":8504:8590   */\n      swap1\n      pop\n        /* \"#utility.yul\":8637:8646   */\n      dup2\n        /* \"#utility.yul\":8631:8635   */\n      dup2\n        /* \"#utility.yul\":8627:8647   */\n      sub\n        /* \"#utility.yul\":8622:8624   */\n      0x60\n        /* \"#utility.yul\":8611:8620   */\n      dup4\n        /* \"#utility.yul\":8607:8625   */\n      add\n        /* \"#utility.yul\":8600:8648   */\n      mstore\n        /* \"#utility.yul\":8665:8743   */\n      tag_295\n        /* \"#utility.yul\":8738:8742   */\n      dup2\n        /* \"#utility.yul\":8729:8735   */\n      dup11\n        /* \"#utility.yul\":8665:8743   */\n      tag_177\n      jump\t// in\n    tag_295:\n        /* \"#utility.yul\":8657:8743   */\n      swap1\n      pop\n        /* \"#utility.yul\":8791:8800   */\n      dup2\n        /* \"#utility.yul\":8785:8789   */\n      dup2\n        /* \"#utility.yul\":8781:8801   */\n      sub\n        /* \"#utility.yul\":8775:8778   */\n      0x80\n        /* \"#utility.yul\":8764:8773   */\n      dup4\n        /* \"#utility.yul\":8760:8779   */\n      add\n        /* \"#utility.yul\":8753:8802   */\n      mstore\n        /* \"#utility.yul\":8819:8897   */\n      tag_296\n        /* \"#utility.yul\":8892:8896   */\n      dup2\n        /* \"#utility.yul\":8883:8889   */\n      dup10\n        /* \"#utility.yul\":8819:8897   */\n      tag_177\n      jump\t// in\n    tag_296:\n        /* \"#utility.yul\":8811:8897   */\n      swap1\n      pop\n        /* \"#utility.yul\":8945:8954   */\n      dup2\n        /* \"#utility.yul\":8939:8943   */\n      dup2\n        /* \"#utility.yul\":8935:8955   */\n      sub\n        /* \"#utility.yul\":8929:8932   */\n      0xa0\n        /* \"#utility.yul\":8918:8927   */\n      dup4\n        /* \"#utility.yul\":8914:8933   */\n      add\n        /* \"#utility.yul\":8907:8956   */\n      mstore\n        /* \"#utility.yul\":8973:9051   */\n      tag_297\n        /* \"#utility.yul\":9046:9050   */\n      dup2\n        /* \"#utility.yul\":9037:9043   */\n      dup9\n        /* \"#utility.yul\":8973:9051   */\n      tag_177\n      jump\t// in\n    tag_297:\n        /* \"#utility.yul\":8965:9051   */\n      swap1\n      pop\n        /* \"#utility.yul\":9061:9134   */\n      tag_298\n        /* \"#utility.yul\":9129:9132   */\n      0xc0\n        /* \"#utility.yul\":9118:9127   */\n      dup4\n        /* \"#utility.yul\":9114:9133   */\n      add\n        /* \"#utility.yul\":9105:9111   */\n      dup8\n        /* \"#utility.yul\":9061:9134   */\n      tag_180\n      jump\t// in\n    tag_298:\n        /* \"#utility.yul\":9144:9211   */\n      tag_299\n        /* \"#utility.yul\":9206:9209   */\n      0xe0\n        /* \"#utility.yul\":9195:9204   */\n      dup4\n        /* \"#utility.yul\":9191:9210   */\n      add\n        /* \"#utility.yul\":9182:9188   */\n      dup7\n        /* \"#utility.yul\":9144:9211   */\n      tag_179\n      jump\t// in\n    tag_299:\n        /* \"#utility.yul\":9259:9268   */\n      dup2\n        /* \"#utility.yul\":9253:9257   */\n      dup2\n        /* \"#utility.yul\":9249:9269   */\n      sub\n        /* \"#utility.yul\":9243:9246   */\n      0x0100\n        /* \"#utility.yul\":9232:9241   */\n      dup4\n        /* \"#utility.yul\":9228:9247   */\n      add\n        /* \"#utility.yul\":9221:9270   */\n      mstore\n        /* \"#utility.yul\":9287:9365   */\n      tag_300\n        /* \"#utility.yul\":9360:9364   */\n      dup2\n        /* \"#utility.yul\":9351:9357   */\n      dup6\n        /* \"#utility.yul\":9287:9365   */\n      tag_177\n      jump\t// in\n    tag_300:\n        /* \"#utility.yul\":9279:9365   */\n      swap1\n      pop\n        /* \"#utility.yul\":9375:9448   */\n      tag_301\n        /* \"#utility.yul\":9443:9446   */\n      0x0120\n        /* \"#utility.yul\":9432:9441   */\n      dup4\n        /* \"#utility.yul\":9428:9447   */\n      add\n        /* \"#utility.yul\":9419:9425   */\n      dup5\n        /* \"#utility.yul\":9375:9448   */\n      tag_173\n      jump\t// in\n    tag_301:\n        /* \"#utility.yul\":7702:9455   */\n      swap12\n      swap11\n      pop\n      pop\n      pop\n      pop\n      pop\n      pop\n      pop\n      pop\n      pop\n      pop\n      pop\n      jump\t// out\n        /* \"#utility.yul\":9461:11418   */\n    tag_33:\n        /* \"#utility.yul\":9615:9621   */\n      0x00\n        /* \"#utility.yul\":9623:9629   */\n      dup1\n        /* \"#utility.yul\":9631:9637   */\n      0x00\n        /* \"#utility.yul\":9639:9645   */\n      dup1\n        /* \"#utility.yul\":9647:9653   */\n      0x00\n        /* \"#utility.yul\":9655:9661   */\n      dup1\n        /* \"#utility.yul\":9704:9707   */\n      0xc0\n        /* \"#utility.yul\":9692:9701   */\n      dup8\n        /* \"#utility.yul\":9683:9690   */\n      dup10\n        /* \"#utility.yul\":9679:9702   */\n      sub\n        /* \"#utility.yul\":9675:9708   */\n      slt\n        /* \"#utility.yul\":9672:9792   */\n      iszero\n      tag_303\n      jumpi\n        /* \"#utility.yul\":9711:9790   */\n      tag_304\n      tag_154\n      jump\t// in\n    tag_304:\n        /* \"#utility.yul\":9672:9792   */\n    tag_303:\n        /* \"#utility.yul\":9831:9832   */\n      0x00\n        /* \"#utility.yul\":9856:9909   */\n      tag_305\n        /* \"#utility.yul\":9901:9908   */\n      dup10\n        /* \"#utility.yul\":9892:9898   */\n      dup3\n        /* \"#utility.yul\":9881:9890   */\n      dup11\n        /* \"#utility.yul\":9877:9899   */\n      add\n        /* \"#utility.yul\":9856:9909   */\n      tag_159\n      jump\t// in\n    tag_305:\n        /* \"#utility.yul\":9846:9909   */\n      swap7\n      pop\n        /* \"#utility.yul\":9802:9919   */\n      pop\n        /* \"#utility.yul\":9986:9988   */\n      0x20\n        /* \"#utility.yul\":9975:9984   */\n      dup8\n        /* \"#utility.yul\":9971:9989   */\n      add\n        /* \"#utility.yul\":9958:9990   */\n      calldataload\n        /* \"#utility.yul\":10017:10035   */\n      0xffffffffffffffff\n        /* \"#utility.yul\":10009:10015   */\n      dup2\n        /* \"#utility.yul\":10006:10036   */\n      gt\n        /* \"#utility.yul\":10003:10120   */\n      iszero\n      tag_306\n      jumpi\n        /* \"#utility.yul\":10039:10118   */\n      tag_307\n      tag_155\n      jump\t// in\n    tag_307:\n        /* \"#utility.yul\":10003:10120   */\n    tag_306:\n        /* \"#utility.yul\":10144:10207   */\n      tag_308\n        /* \"#utility.yul\":10199:10206   */\n      dup10\n        /* \"#utility.yul\":10190:10196   */\n      dup3\n        /* \"#utility.yul\":10179:10188   */\n      dup11\n        /* \"#utility.yul\":10175:10197   */\n      add\n        /* \"#utility.yul\":10144:10207   */\n      tag_169\n      jump\t// in\n    tag_308:\n        /* \"#utility.yul\":10134:10207   */\n      swap6\n      pop\n        /* \"#utility.yul\":9929:10217   */\n      pop\n        /* \"#utility.yul\":10284:10286   */\n      0x40\n        /* \"#utility.yul\":10273:10282   */\n      dup8\n        /* \"#utility.yul\":10269:10287   */\n      add\n        /* \"#utility.yul\":10256:10288   */\n      calldataload\n        /* \"#utility.yul\":10315:10333   */\n      0xffffffffffffffff\n        /* \"#utility.yul\":10307:10313   */\n      dup2\n        /* \"#utility.yul\":10304:10334   */\n      gt\n        /* \"#utility.yul\":10301:10418   */\n      iszero\n      tag_309\n      jumpi\n        /* \"#utility.yul\":10337:10416   */\n      tag_310\n      tag_155\n      jump\t// in\n    tag_310:\n        /* \"#utility.yul\":10301:10418   */\n    tag_309:\n        /* \"#utility.yul\":10442:10505   */\n      tag_311\n        /* \"#utility.yul\":10497:10504   */\n      dup10\n        /* \"#utility.yul\":10488:10494   */\n      dup3\n        /* \"#utility.yul\":10477:10486   */\n      dup11\n        /* \"#utility.yul\":10473:10495   */\n      add\n        /* \"#utility.yul\":10442:10505   */\n      tag_169\n      jump\t// in\n    tag_311:\n        /* \"#utility.yul\":10432:10505   */\n      swap5\n      pop\n        /* \"#utility.yul\":10227:10515   */\n      pop\n        /* \"#utility.yul\":10582:10584   */\n      0x60\n        /* \"#utility.yul\":10571:10580   */\n      dup8\n        /* \"#utility.yul\":10567:10585   */\n      add\n        /* \"#utility.yul\":10554:10586   */\n      calldataload\n        /* \"#utility.yul\":10613:10631   */\n      0xffffffffffffffff\n        /* \"#utility.yul\":10605:10611   */\n      dup2\n        /* \"#utility.yul\":10602:10632   */\n      gt\n        /* \"#utility.yul\":10599:10716   */\n      iszero\n      tag_312\n      jumpi\n        /* \"#utility.yul\":10635:10714   */\n      tag_313\n      tag_155\n      jump\t// in\n    tag_313:\n        /* \"#utility.yul\":10599:10716   */\n    tag_312:\n        /* \"#utility.yul\":10740:10803   */\n      tag_314\n        /* \"#utility.yul\":10795:10802   */\n      dup10\n        /* \"#utility.yul\":10786:10792   */\n      dup3\n        /* \"#utility.yul\":10775:10784   */\n      dup11\n        /* \"#utility.yul\":10771:10793   */\n      add\n        /* \"#utility.yul\":10740:10803   */\n      tag_169\n      jump\t// in\n    tag_314:\n        /* \"#utility.yul\":10730:10803   */\n      swap4\n      pop\n        /* \"#utility.yul\":10525:10813   */\n      pop\n        /* \"#utility.yul\":10880:10883   */\n      0x80\n        /* \"#utility.yul\":10869:10878   */\n      dup8\n        /* \"#utility.yul\":10865:10884   */\n      add\n        /* \"#utility.yul\":10852:10885   */\n      calldataload\n        /* \"#utility.yul\":10912:10930   */\n      0xffffffffffffffff\n        /* \"#utility.yul\":10904:10910   */\n      dup2\n        /* \"#utility.yul\":10901:10931   */\n      gt\n        /* \"#utility.yul\":10898:11015   */\n      iszero\n      tag_315\n      jumpi\n        /* \"#utility.yul\":10934:11013   */\n      tag_316\n      tag_155\n      jump\t// in\n    tag_316:\n        /* \"#utility.yul\":10898:11015   */\n    tag_315:\n        /* \"#utility.yul\":11039:11102   */\n      tag_317\n        /* \"#utility.yul\":11094:11101   */\n      dup10\n        /* \"#utility.yul\":11085:11091   */\n      dup3\n        /* \"#utility.yul\":11074:11083   */\n      dup11\n        /* \"#utility.yul\":11070:11092   */\n      add\n        /* \"#utility.yul\":11039:11102   */\n      tag_169\n      jump\t// in\n    tag_317:\n        /* \"#utility.yul\":11029:11102   */\n      swap3\n      pop\n        /* \"#utility.yul\":10823:11112   */\n      pop\n        /* \"#utility.yul\":11179:11182   */\n      0xa0\n        /* \"#utility.yul\":11168:11177   */\n      dup8\n        /* \"#utility.yul\":11164:11183   */\n      add\n        /* \"#utility.yul\":11151:11184   */\n      calldataload\n        /* \"#utility.yul\":11211:11229   */\n      0xffffffffffffffff\n        /* \"#utility.yul\":11203:11209   */\n      dup2\n        /* \"#utility.yul\":11200:11230   */\n      gt\n        /* \"#utility.yul\":11197:11314   */\n      iszero\n      tag_318\n      jumpi\n        /* \"#utility.yul\":11233:11312   */\n      tag_319\n      tag_155\n      jump\t// in\n    tag_319:\n        /* \"#utility.yul\":11197:11314   */\n    tag_318:\n        /* \"#utility.yul\":11338:11401   */\n      tag_320\n        /* \"#utility.yul\":11393:11400   */\n      dup10\n        /* \"#utility.yul\":11384:11390   */\n      dup3\n        /* \"#utility.yul\":11373:11382   */\n      dup11\n        /* \"#utility.yul\":11369:11391   */\n      add\n        /* \"#utility.yul\":11338:11401   */\n      tag_169\n      jump\t// in\n    tag_320:\n        /* \"#utility.yul\":11328:11401   */\n      swap2\n      pop\n        /* \"#utility.yul\":11122:11411   */\n      pop\n        /* \"#utility.yul\":9461:11418   */\n      swap3\n      swap6\n      pop\n      swap3\n      swap6\n      pop\n      swap3\n      swap6\n      jump\t// out\n        /* \"#utility.yul\":11424:11657   */\n    tag_181:\n        /* \"#utility.yul\":11564:11598   */\n      0x4f6e6c7920617574686f72697a656420697373756572732063616e2063616c6c\n        /* \"#utility.yul\":11560:11561   */\n      0x00\n        /* \"#utility.yul\":11552:11558   */\n      dup3\n        /* \"#utility.yul\":11548:11562   */\n      add\n        /* \"#utility.yul\":11541:11599   */\n      mstore\n        /* \"#utility.yul\":11633:11649   */\n      0x20746869732066756e6374696f6e000000000000000000000000000000000000\n        /* \"#utility.yul\":11628:11630   */\n      0x20\n        /* \"#utility.yul\":11620:11626   */\n      dup3\n        /* \"#utility.yul\":11616:11631   */\n      add\n        /* \"#utility.yul\":11609:11650   */\n      mstore\n        /* \"#utility.yul\":11424:11657   */\n      pop\n      jump\t// out\n        /* \"#utility.yul\":11663:12029   */\n    tag_182:\n        /* \"#utility.yul\":11805:11808   */\n      0x00\n        /* \"#utility.yul\":11826:11893   */\n      tag_323\n        /* \"#utility.yul\":11890:11892   */\n      0x2e\n        /* \"#utility.yul\":11885:11888   */\n      dup4\n        /* \"#utility.yul\":11826:11893   */\n      tag_175\n      jump\t// in\n    tag_323:\n        /* \"#utility.yul\":11819:11893   */\n      swap2\n      pop\n        /* \"#utility.yul\":11902:11995   */\n      tag_324\n        /* \"#utility.yul\":11991:11994   */\n      dup3\n        /* \"#utility.yul\":11902:11995   */\n      tag_181\n      jump\t// in\n    tag_324:\n        /* \"#utility.yul\":12020:12022   */\n      0x40\n        /* \"#utility.yul\":12015:12018   */\n      dup3\n        /* \"#utility.yul\":12011:12023   */\n      add\n        /* \"#utility.yul\":12004:12023   */\n      swap1\n      pop\n        /* \"#utility.yul\":11663:12029   */\n      swap2\n      swap1\n      pop\n      jump\t// out\n        /* \"#utility.yul\":12035:12454   */\n    tag_38:\n        /* \"#utility.yul\":12201:12205   */\n      0x00\n        /* \"#utility.yul\":12239:12241   */\n      0x20\n        /* \"#utility.yul\":12228:12237   */\n      dup3\n        /* \"#utility.yul\":12224:12242   */\n      add\n        /* \"#utility.yul\":12216:12242   */\n      swap1\n      pop\n        /* \"#utility.yul\":12288:12297   */\n      dup2\n        /* \"#utility.yul\":12282:12286   */\n      dup2\n        /* \"#utility.yul\":12278:12298   */\n      sub\n        /* \"#utility.yul\":12274:12275   */\n      0x00\n        /* \"#utility.yul\":12263:12272   */\n      dup4\n        /* \"#utility.yul\":12259:12276   */\n      add\n        /* \"#utility.yul\":12252:12299   */\n      mstore\n        /* \"#utility.yul\":12316:12447   */\n      tag_326\n        /* \"#utility.yul\":12442:12446   */\n      dup2\n        /* \"#utility.yul\":12316:12447   */\n      tag_182\n      jump\t// in\n    tag_326:\n        /* \"#utility.yul\":12308:12447   */\n      swap1\n      pop\n        /* \"#utility.yul\":12035:12454   */\n      swap2\n      swap1\n      pop\n      jump\t// out\n        /* \"#utility.yul\":12460:12640   */\n    tag_183:\n        /* \"#utility.yul\":12508:12585   */\n      0x4e487b7100000000000000000000000000000000000000000000000000000000\n        /* \"#utility.yul\":12505:12506   */\n      0x00\n        /* \"#utility.yul\":12498:12586   */\n      mstore\n        /* \"#utility.yul\":12605:12609   */\n      0x22\n        /* \"#utility.yul\":12602:12603   */\n      0x04\n        /* \"#utility.yul\":12595:12610   */\n      mstore\n        /* \"#utility.yul\":12629:12633   */\n      0x24\n        /* \"#utility.yul\":12626:12627   */\n      0x00\n        /* \"#utility.yul\":12619:12634   */\n      revert\n        /* \"#utility.yul\":12646:12966   */\n    tag_83:\n        /* \"#utility.yul\":12690:12696   */\n      0x00\n        /* \"#utility.yul\":12727:12728   */\n      0x02\n        /* \"#utility.yul\":12721:12725   */\n      dup3\n        /* \"#utility.yul\":12717:12729   */\n      div\n        /* \"#utility.yul\":12707:12729   */\n      swap1\n      pop\n        /* \"#utility.yul\":12774:12775   */\n      0x01\n        /* \"#utility.yul\":12768:12772   */\n      dup3\n        /* \"#utility.yul\":12764:12776   */\n      and\n        /* \"#utility.yul\":12795:12813   */\n      dup1\n        /* \"#utility.yul\":12785:12866   */\n      tag_329\n      jumpi\n        /* \"#utility.yul\":12851:12855   */\n      0x7f\n        /* \"#utility.yul\":12843:12849   */\n      dup3\n        /* \"#utility.yul\":12839:12856   */\n      and\n        /* \"#utility.yul\":12829:12856   */\n      swap2\n      pop\n        /* \"#utility.yul\":12785:12866   */\n    tag_329:\n        /* \"#utility.yul\":12913:12915   */\n      0x20\n        /* \"#utility.yul\":12905:12911   */\n      dup3\n        /* \"#utility.yul\":12902:12916   */\n      lt\n        /* \"#utility.yul\":12882:12900   */\n      dup2\n        /* \"#utility.yul\":12879:12917   */\n      sub\n        /* \"#utility.yul\":12876:12960   */\n      tag_330\n      jumpi\n        /* \"#utility.yul\":12932:12950   */\n      tag_331\n      tag_183\n      jump\t// in\n    tag_331:\n        /* \"#utility.yul\":12876:12960   */\n    tag_330:\n        /* \"#utility.yul\":12697:12966   */\n      pop\n        /* \"#utility.yul\":12646:12966   */\n      swap2\n      swap1\n      pop\n      jump\t// out\n        /* \"#utility.yul\":12972:13113   */\n    tag_184:\n        /* \"#utility.yul\":13021:13025   */\n      0x00\n        /* \"#utility.yul\":13044:13047   */\n      dup2\n        /* \"#utility.yul\":13036:13047   */\n      swap1\n      pop\n        /* \"#utility.yul\":13067:13070   */\n      dup2\n        /* \"#utility.yul\":13064:13065   */\n      0x00\n        /* \"#utility.yul\":13057:13071   */\n      mstore\n        /* \"#utility.yul\":13101:13105   */\n      0x20\n        /* \"#utility.yul\":13098:13099   */\n      0x00\n        /* \"#utility.yul\":13088:13106   */\n      keccak256\n        /* \"#utility.yul\":13080:13106   */\n      swap1\n      pop\n        /* \"#utility.yul\":12972:13113   */\n      swap2\n      swap1\n      pop\n      jump\t// out\n        /* \"#utility.yul\":13119:13212   */\n    tag_185:\n        /* \"#utility.yul\":13156:13162   */\n      0x00\n        /* \"#utility.yul\":13203:13205   */\n      0x20\n        /* \"#utility.yul\":13198:13200   */\n      0x1f\n        /* \"#utility.yul\":13191:13196   */\n      dup4\n        /* \"#utility.yul\":13187:13201   */\n      add\n        /* \"#utility.yul\":13183:13206   */\n      div\n        /* \"#utility.yul\":13173:13206   */\n      swap1\n      pop\n        /* \"#utility.yul\":13119:13212   */\n      swap2\n      swap1\n      pop\n      jump\t// out\n        /* \"#utility.yul\":13218:13325   */\n    tag_186:\n        /* \"#utility.yul\":13262:13270   */\n      0x00\n        /* \"#utility.yul\":13312:13317   */\n      dup3\n        /* \"#utility.yul\":13306:13310   */\n      dup3\n        /* \"#utility.yul\":13302:13318   */\n      shl\n        /* \"#utility.yul\":13281:13318   */\n      swap1\n      pop\n        /* \"#utility.yul\":13218:13325   */\n      swap3\n      swap2\n      pop\n      pop\n      jump\t// out\n        /* \"#utility.yul\":13331:13724   */\n    tag_187:\n        /* \"#utility.yul\":13400:13406   */\n      0x00\n        /* \"#utility.yul\":13450:13451   */\n      0x08\n        /* \"#utility.yul\":13438:13448   */\n      dup4\n        /* \"#utility.yul\":13434:13452   */\n      mul\n        /* \"#utility.yul\":13473:13570   */\n      tag_336\n        /* \"#utility.yul\":13503:13569   */\n      0xffffffffffffffffffffffffffffffffffffffffffffffffffffffffffffffff\n        /* \"#utility.yul\":13492:13501   */\n      dup3\n        /* \"#utility.yul\":13473:13570   */\n      tag_186\n      jump\t// in\n    tag_336:\n        /* \"#utility.yul\":13591:13630   */\n      tag_337\n        /* \"#utility.yul\":13621:13629   */\n      dup7\n        /* \"#utility.yul\":13610:13619   */\n      dup4\n        /* \"#utility.yul\":13591:13630   */\n      tag_186\n      jump\t// in\n    tag_337:\n        /* \"#utility.yul\":13579:13630   */\n      swap6\n      pop\n        /* \"#utility.yul\":13663:13667   */\n      dup1\n        /* \"#utility.yul\":13659:13668   */\n      not\n        /* \"#utility.yul\":13652:13657   */\n      dup5\n        /* \"#utility.yul\":13648:13669   */\n      and\n        /* \"#utility.yul\":13639:13669   */\n      swap4\n      pop\n        /* \"#utility.yul\":13712:13716   */\n      dup1\n        /* \"#utility.yul\":13702:13710   */\n      dup7\n        /* \"#utility.yul\":13698:13717   */\n      and\n        /* \"#utility.yul\":13691:13696   */\n      dup5\n        /* \"#utility.yul\":13688:13718   */\n      or\n        /* \"#utility.yul\":13678:13718   */\n      swap3\n      pop\n        /* \"#utility.yul\":13407:13724   */\n      pop\n      pop\n        /* \"#utility.yul\":13331:13724   */\n      swap4\n      swap3\n      pop\n      pop\n      pop\n      jump\t// out\n        /* \"#utility.yul\":13730:13790   */\n    tag_188:\n        /* \"#utility.yul\":13758:13761   */\n      0x00\n        /* \"#utility.yul\":13779:13784   */\n      dup2\n        /* \"#utility.yul\":13772:13784   */\n      swap1\n      pop\n        /* \"#utility.yul\":13730:13790   */\n      swap2\n      swap1\n      pop\n      jump\t// out\n        /* \"#utility.yul\":13796:13938   */\n    tag_189:\n        /* \"#utility.yul\":13846:13855   */\n      0x00\n        /* \"#utility.yul\":13879:13932   */\n      tag_340\n        /* \"#utility.yul\":13897:13931   */\n      tag_341\n        /* \"#utility.yul\":13906:13930   */\n      tag_342\n        /* \"#utility.yul\":13924:13929   */\n      dup5\n        /* \"#utility.yul\":13906:13930   */\n      tag_170\n      jump\t// in\n    tag_342:\n        /* \"#utility.yul\":13897:13931   */\n      tag_188\n      jump\t// in\n    tag_341:\n        /* \"#utility.yul\":13879:13932   */\n      tag_170\n      jump\t// in\n    tag_340:\n        /* \"#utility.yul\":13866:13932   */\n      swap1\n      pop\n        /* \"#utility.yul\":13796:13938   */\n      swap2\n      swap1\n      pop\n      jump\t// out\n        /* \"#utility.yul\":13944:14019   */\n    tag_190:\n        /* \"#utility.yul\":13987:13990   */\n      0x00\n        /* \"#utility.yul\":14008:14013   */\n      dup2\n        /* \"#utility.yul\":14001:14013   */\n      swap1\n      pop\n        /* \"#utility.yul\":13944:14019   */\n      swap2\n      swap1\n      pop\n      jump\t// out\n        /* \"#utility.yul\":14025:14294   */\n    tag_191:\n        /* \"#utility.yul\":14135:14174   */\n      tag_345\n        /* \"#utility.yul\":14166:14173   */\n      dup4\n        /* \"#utility.yul\":14135:14174   */\n      tag_189\n      jump\t// in\n    tag_345:\n        /* \"#utility.yul\":14196:14287   */\n      tag_346\n        /* \"#utility.yul\":14245:14286   */\n      tag_347\n        /* \"#utility.yul\":14269:14285   */\n      dup3\n        /* \"#utility.yul\":14245:14286   */\n      tag_190\n      jump\t// in\n    tag_347:\n        /* \"#utility.yul\":14237:14243   */\n      dup5\n        /* \"#utility.yul\":14230:14234   */\n      dup5\n        /* \"#utility.yul\":14224:14235   */\n      sload\n        /* \"#utility.yul\":14196:14287   */\n      tag_187\n      jump\t// in\n    tag_346:\n        /* \"#utility.yul\":14190:14194   */\n      dup3\n        /* \"#utility.yul\":14183:14288   */\n      sstore\n        /* \"#utility.yul\":14101:14294   */\n      pop\n        /* \"#utility.yul\":14025:14294   */\n      pop\n      pop\n      pop\n      jump\t// out\n        /* \"#utility.yul\":14300:14373   */\n    tag_192:\n        /* \"#utility.yul\":14345:14348   */\n      0x00\n        /* \"#utility.yul\":14300:14373   */\n      swap1\n      jump\t// out\n        /* \"#utility.yul\":14379:14568   */\n    tag_193:\n        /* \"#utility.yul\":14456:14488   */\n      tag_350\n      tag_192\n      jump\t// in\n    tag_350:\n        /* \"#utility.yul\":14497:14562   */\n      tag_351\n        /* \"#utility.yul\":14555:14561   */\n      dup2\n        /* \"#utility.yul\":14547:14553   */\n      dup5\n        /* \"#utility.yul\":14541:14545   */\n      dup5\n        /* \"#utility.yul\":14497:14562   */\n      tag_191\n      jump\t// in\n    tag_351:\n        /* \"#utility.yul\":14432:14568   */\n      pop\n        /* \"#utility.yul\":14379:14568   */\n      pop\n      pop\n      jump\t// out\n        /* \"#utility.yul\":14574:14760   */\n    tag_194:\n        /* \"#utility.yul\":14634:14754   */\n    tag_353:\n        /* \"#utility.yul\":14651:14654   */\n      dup2\n        /* \"#utility.yul\":14644:14649   */\n      dup2\n        /* \"#utility.yul\":14641:14655   */\n      lt\n        /* \"#utility.yul\":14634:14754   */\n      iszero\n      tag_355\n      jumpi\n        /* \"#utility.yul\":14705:14744   */\n      tag_356\n        /* \"#utility.yul\":14742:14743   */\n      0x00\n        /* \"#utility.yul\":14735:14740   */\n      dup3\n        /* \"#utility.yul\":14705:14744   */\n      tag_193\n      jump\t// in\n    tag_356:\n        /* \"#utility.yul\":14678:14679   */\n      0x01\n        /* \"#utility.yul\":14671:14676   */\n      dup2\n        /* \"#utility.yul\":14667:14680   */\n      add\n        /* \"#utility.yul\":14658:14680   */\n      swap1\n      pop\n        /* \"#utility.yul\":14634:14754   */\n      jump(tag_353)\n    tag_355:\n        /* \"#utility.yul\":14574:14760   */\n      pop\n      pop\n      jump\t// out\n        /* \"#utility.yul\":14766:15309   */\n    tag_195:\n        /* \"#utility.yul\":14867:14869   */\n      0x1f\n        /* \"#utility.yul\":14862:14865   */\n      dup3\n        /* \"#utility.yul\":14859:14870   */\n      gt\n        /* \"#utility.yul\":14856:15302   */\n      iszero\n      tag_358\n      jumpi\n        /* \"#utility.yul\":14901:14939   */\n      tag_359\n        /* \"#utility.yul\":14933:14938   */\n      dup2\n        /* \"#utility.yul\":14901:14939   */\n      tag_184\n      jump\t// in\n    tag_359:\n        /* \"#utility.yul\":14985:15014   */\n      tag_360\n        /* \"#utility.yul\":15003:15013   */\n      dup5\n        /* \"#utility.yul\":14985:15014   */\n      tag_185\n      jump\t// in\n    tag_360:\n        /* \"#utility.yul\":14975:14983   */\n      dup2\n        /* \"#utility.yul\":14971:15015   */\n      add\n        /* \"#utility.yul\":15168:15170   */\n      0x20\n        /* \"#utility.yul\":15156:15166   */\n      dup6\n        /* \"#utility.yul\":15153:15171   */\n      lt\n        /* \"#utility.yul\":15150:15199   */\n      iszero\n      tag_361\n      jumpi\n        /* \"#utility.yul\":15189:15197   */\n      dup2\n        /* \"#utility.yul\":15174:15197   */\n      swap1\n      pop\n        /* \"#utility.yul\":15150:15199   */\n    tag_361:\n        /* \"#utility.yul\":15212:15292   */\n      tag_362\n        /* \"#utility.yul\":15268:15290   */\n      tag_363\n        /* \"#utility.yul\":15286:15289   */\n      dup6\n        /* \"#utility.yul\":15268:15290   */\n      tag_185\n      jump\t// in\n    tag_363:\n        /* \"#utility.yul\":15258:15266   */\n      dup4\n        /* \"#utility.yul\":15254:15291   */\n      add\n        /* \"#utility.yul\":15241:15252   */\n      dup3\n        /* \"#utility.yul\":15212:15292   */\n      tag_194\n      jump\t// in\n    tag_362:\n        /* \"#utility.yul\":14871:15302   */\n      pop\n      pop\n        /* \"#utility.yul\":14856:15302   */\n    tag_358:\n        /* \"#utility.yul\":14766:15309   */\n      pop\n      pop\n      pop\n      jump\t// out\n        /* \"#utility.yul\":15315:15432   */\n    tag_196:\n        /* \"#utility.yul\":15369:15377   */\n      0x00\n        /* \"#utility.yul\":15419:15424   */\n      dup3\n        /* \"#utility.yul\":15413:15417   */\n      dup3\n        /* \"#utility.yul\":15409:15425   */\n      shr\n        /* \"#utility.yul\":15388:15425   */\n      swap1\n      pop\n        /* \"#utility.yul\":15315:15432   */\n      swap3\n      swap2\n      pop\n      pop\n      jump\t// out\n        /* \"#utility.yul\":15438:15607   */\n    tag_197:\n        /* \"#utility.yul\":15482:15488   */\n      0x00\n        /* \"#utility.yul\":15515:15566   */\n      tag_366\n        /* \"#utility.yul\":15563:15564   */\n      0x00\n        /* \"#utility.yul\":15559:15565   */\n      not\n        /* \"#utility.yul\":15551:15556   */\n      dup5\n        /* \"#utility.yul\":15548:15549   */\n      0x08\n        /* \"#utility.yul\":15544:15557   */\n      mul\n        /* \"#utility.yul\":15515:15566   */\n      tag_196\n      jump\t// in\n    tag_366:\n        /* \"#utility.yul\":15511:15567   */\n      not\n        /* \"#utility.yul\":15596:15600   */\n      dup1\n        /* \"#utility.yul\":15590:15594   */\n      dup4\n        /* \"#utility.yul\":15586:15601   */\n      and\n        /* \"#utility.yul\":15576:15601   */\n      swap2\n      pop\n        /* \"#utility.yul\":15489:15607   */\n      pop\n        /* \"#utility.yul\":15438:15607   */\n      swap3\n      swap2\n      pop\n      pop\n      jump\t// out\n        /* \"#utility.yul\":15612:15907   */\n    tag_198:\n        /* \"#utility.yul\":15688:15692   */\n      0x00\n        /* \"#utility.yul\":15834:15863   */\n      tag_368\n        /* \"#utility.yul\":15859:15862   */\n      dup4\n        /* \"#utility.yul\":15853:15857   */\n      dup4\n        /* \"#utility.yul\":15834:15863   */\n      tag_197\n      jump\t// in\n    tag_368:\n        /* \"#utility.yul\":15826:15863   */\n      swap2\n      pop\n        /* \"#utility.yul\":15896:15899   */\n      dup3\n        /* \"#utility.yul\":15893:15894   */\n      0x02\n        /* \"#utility.yul\":15889:15900   */\n      mul\n        /* \"#utility.yul\":15883:15887   */\n      dup3\n        /* \"#utility.yul\":15880:15901   */\n      or\n        /* \"#utility.yul\":15872:15901   */\n      swap1\n      pop\n        /* \"#utility.yul\":15612:15907   */\n      swap3\n      swap2\n      pop\n      pop\n      jump\t// out\n        /* \"#utility.yul\":15912:17307   */\n    tag_41:\n        /* \"#utility.yul\":16029:16066   */\n      tag_370\n        /* \"#utility.yul\":16062:16065   */\n      dup3\n        /* \"#utility.yul\":16029:16066   */\n      tag_174\n      jump\t// in\n    tag_370:\n        /* \"#utility.yul\":16131:16149   */\n      0xffffffffffffffff\n        /* \"#utility.yul\":16123:16129   */\n      dup2\n        /* \"#utility.yul\":16120:16150   */\n      gt\n        /* \"#utility.yul\":16117:16173   */\n      iszero\n      tag_371\n      jumpi\n        /* \"#utility.yul\":16153:16171   */\n      tag_372\n      tag_163\n      jump\t// in\n    tag_372:\n        /* \"#utility.yul\":16117:16173   */\n    tag_371:\n        /* \"#utility.yul\":16197:16235   */\n      tag_373\n        /* \"#utility.yul\":16229:16233   */\n      dup3\n        /* \"#utility.yul\":16223:16234   */\n      sload\n        /* \"#utility.yul\":16197:16235   */\n      tag_83\n      jump\t// in\n    tag_373:\n        /* \"#utility.yul\":16282:16349   */\n      tag_374\n        /* \"#utility.yul\":16342:16348   */\n      dup3\n        /* \"#utility.yul\":16334:16340   */\n      dup3\n        /* \"#utility.yul\":16328:16332   */\n      dup6\n        /* \"#utility.yul\":16282:16349   */\n      tag_195\n      jump\t// in\n    tag_374:\n        /* \"#utility.yul\":16376:16377   */\n      0x00\n        /* \"#utility.yul\":16400:16404   */\n      0x20\n        /* \"#utility.yul\":16387:16404   */\n      swap1\n      pop\n        /* \"#utility.yul\":16432:16434   */\n      0x1f\n        /* \"#utility.yul\":16424:16430   */\n      dup4\n        /* \"#utility.yul\":16421:16435   */\n      gt\n        /* \"#utility.yul\":16449:16450   */\n      0x01\n        /* \"#utility.yul\":16444:17062   */\n      dup2\n      eq\n      tag_376\n      jumpi\n        /* \"#utility.yul\":17106:17107   */\n      0x00\n        /* \"#utility.yul\":17123:17129   */\n      dup5\n        /* \"#utility.yul\":17120:17197   */\n      iszero\n      tag_377\n      jumpi\n        /* \"#utility.yul\":17172:17181   */\n      dup3\n        /* \"#utility.yul\":17167:17170   */\n      dup8\n        /* \"#utility.yul\":17163:17182   */\n      add\n        /* \"#utility.yul\":17157:17183   */\n      mload\n        /* \"#utility.yul\":17148:17183   */\n      swap1\n      pop\n        /* \"#utility.yul\":17120:17197   */\n    tag_377:\n        /* \"#utility.yul\":17223:17290   */\n      tag_378\n        /* \"#utility.yul\":17283:17289   */\n      dup6\n        /* \"#utility.yul\":17276:17281   */\n      dup3\n        /* \"#utility.yul\":17223:17290   */\n      tag_198\n      jump\t// in\n    tag_378:\n        /* \"#utility.yul\":17217:17221   */\n      dup7\n        /* \"#utility.yul\":17210:17291   */\n      sstore\n        /* \"#utility.yul\":17079:17301   */\n      pop\n        /* \"#utility.yul\":16414:17301   */\n      jump(tag_375)\n        /* \"#utility.yul\":16444:17062   */\n    tag_376:\n        /* \"#utility.yul\":16496:16500   */\n      0x1f\n        /* \"#utility.yul\":16492:16501   */\n      not\n        /* \"#utility.yul\":16484:16490   */\n      dup5\n        /* \"#utility.yul\":16480:16502   */\n      and\n        /* \"#utility.yul\":16530:16567   */\n      tag_379\n        /* \"#utility.yul\":16562:16566   */\n      dup7\n        /* \"#utility.yul\":16530:16567   */\n      tag_184\n      jump\t// in\n    tag_379:\n        /* \"#utility.yul\":16589:16590   */\n      0x00\n        /* \"#utility.yul\":16603:16811   */\n    tag_380:\n        /* \"#utility.yul\":16617:16624   */\n      dup3\n        /* \"#utility.yul\":16614:16615   */\n      dup2\n        /* \"#utility.yul\":16611:16625   */\n      lt\n        /* \"#utility.yul\":16603:16811   */\n      iszero\n      tag_382\n      jumpi\n        /* \"#utility.yul\":16696:16705   */\n      dup5\n        /* \"#utility.yul\":16691:16694   */\n      dup10\n        /* \"#utility.yul\":16687:16706   */\n      add\n        /* \"#utility.yul\":16681:16707   */\n      mload\n        /* \"#utility.yul\":16673:16679   */\n      dup3\n        /* \"#utility.yul\":16666:16708   */\n      sstore\n        /* \"#utility.yul\":16747:16748   */\n      0x01\n        /* \"#utility.yul\":16739:16745   */\n      dup3\n        /* \"#utility.yul\":16735:16749   */\n      add\n        /* \"#utility.yul\":16725:16749   */\n      swap2\n      pop\n        /* \"#utility.yul\":16794:16796   */\n      0x20\n        /* \"#utility.yul\":16783:16792   */\n      dup6\n        /* \"#utility.yul\":16779:16797   */\n      add\n        /* \"#utility.yul\":16766:16797   */\n      swap5\n      pop\n        /* \"#utility.yul\":16640:16644   */\n      0x20\n        /* \"#utility.yul\":16637:16638   */\n      dup2\n        /* \"#utility.yul\":16633:16645   */\n      add\n        /* \"#utility.yul\":16628:16645   */\n      swap1\n      pop\n        /* \"#utility.yul\":16603:16811   */\n      jump(tag_380)\n    tag_382:\n        /* \"#utility.yul\":16839:16845   */\n      dup7\n        /* \"#utility.yul\":16830:16837   */\n      dup4\n        /* \"#utility.yul\":16827:16846   */\n      lt\n        /* \"#utility.yul\":16824:17003   */\n      iszero\n      tag_383\n      jumpi\n        /* \"#utility.yul\":16897:16906   */\n      dup5\n        /* \"#utility.yul\":16892:16895   */\n      dup10\n        /* \"#utility.yul\":16888:16907   */\n      add\n        /* \"#utility.yul\":16882:16908   */\n      mload\n        /* \"#utility.yul\":16940:16988   */\n      tag_384\n        /* \"#utility.yul\":16982:16986   */\n      0x1f\n        /* \"#utility.yul\":16974:16980   */\n      dup10\n        /* \"#utility.yul\":16970:16987   */\n      and\n        /* \"#utility.yul\":16959:16968   */\n      dup3\n        /* \"#utility.yul\":16940:16988   */\n      tag_197\n      jump\t// in\n    tag_384:\n        /* \"#utility.yul\":16932:16938   */\n      dup4\n        /* \"#utility.yul\":16925:16989   */\n      sstore\n        /* \"#utility.yul\":16847:17003   */\n      pop\n        /* \"#utility.yul\":16824:17003   */\n    tag_383:\n        /* \"#utility.yul\":17049:17050   */\n      0x01\n        /* \"#utility.yul\":17045:17046   */\n      0x02\n        /* \"#utility.yul\":17037:17043   */\n      dup9\n        /* \"#utility.yul\":17033:17047   */\n      mul\n        /* \"#utility.yul\":17029:17051   */\n      add\n        /* \"#utility.yul\":17023:17027   */\n      dup9\n        /* \"#utility.yul\":17016:17052   */\n      sstore\n        /* \"#utility.yul\":16451:17062   */\n      pop\n      pop\n      pop\n        /* \"#utility.yul\":16414:17301   */\n    tag_375:\n      pop\n        /* \"#utility.yul\":16004:17307   */\n      pop\n      pop\n      pop\n        /* \"#utility.yul\":15912:17307   */\n      pop\n      pop\n      jump\t// out\n        /* \"#utility.yul\":17313:17493   */\n    tag_57:\n        /* \"#utility.yul\":17361:17438   */\n      0x4e487b7100000000000000000000000000000000000000000000000000000000\n        /* \"#utility.yul\":17358:17359   */\n      0x00\n        /* \"#utility.yul\":17351:17439   */\n      mstore\n        /* \"#utility.yul\":17458:17462   */\n      0x32\n        /* \"#utility.yul\":17455:17456   */\n      0x04\n        /* \"#utility.yul\":17448:17463   */\n      mstore\n        /* \"#utility.yul\":17482:17486   */\n      0x24\n        /* \"#utility.yul\":17479:17480   */\n      0x00\n        /* \"#utility.yul\":17472:17487   */\n      revert\n        /* \"#utility.yul\":17499:17679   */\n    tag_199:\n        /* \"#utility.yul\":17547:17624   */\n      0x4e487b7100000000000000000000000000000000000000000000000000000000\n        /* \"#utility.yul\":17544:17545   */\n      0x00\n        /* \"#utility.yul\":17537:17625   */\n      mstore\n        /* \"#utility.yul\":17644:17648   */\n      0x11\n        /* \"#utility.yul\":17641:17642   */\n      0x04\n        /* \"#utility.yul\":17634:17649   */\n      mstore\n        /* \"#utility.yul\":17668:17672   */\n      0x24\n        /* \"#utility.yul\":17665:17666   */\n      0x00\n        /* \"#utility.yul\":17658:17673   */\n      revert\n        /* \"#utility.yul\":17685:17918   */\n    tag_64:\n        /* \"#utility.yul\":17724:17727   */\n      0x00\n        /* \"#utility.yul\":17747:17771   */\n      tag_388\n        /* \"#utility.yul\":17765:17770   */\n      dup3\n        /* \"#utility.yul\":17747:17771   */\n      tag_170\n      jump\t// in\n    tag_388:\n        /* \"#utility.yul\":17738:17771   */\n      swap2\n      pop\n        /* \"#utility.yul\":17793:17859   */\n      0xffffffffffffffffffffffffffffffffffffffffffffffffffffffffffffffff\n        /* \"#utility.yul\":17786:17791   */\n      dup3\n        /* \"#utility.yul\":17783:17860   */\n      sub\n        /* \"#utility.yul\":17780:17883   */\n      tag_389\n      jumpi\n        /* \"#utility.yul\":17863:17881   */\n      tag_390\n      tag_199\n      jump\t// in\n    tag_390:\n        /* \"#utility.yul\":17780:17883   */\n    tag_389:\n        /* \"#utility.yul\":17910:17911   */\n      0x01\n        /* \"#utility.yul\":17903:17908   */\n      dup3\n        /* \"#utility.yul\":17899:17912   */\n      add\n        /* \"#utility.yul\":17892:17912   */\n      swap1\n      pop\n        /* \"#utility.yul\":17685:17918   */\n      swap2\n      swap1\n      pop\n      jump\t// out\n        /* \"#utility.yul\":17924:18077   */\n    tag_200:\n        /* \"#utility.yul\":17977:17983   */\n      0x00\n        /* \"#utility.yul\":18011:18016   */\n      dup2\n        /* \"#utility.yul\":18005:18017   */\n      sload\n        /* \"#utility.yul\":17995:18017   */\n      swap1\n      pop\n        /* \"#utility.yul\":18037:18070   */\n      tag_392\n        /* \"#utility.yul\":18063:18069   */\n      dup2\n        /* \"#utility.yul\":18037:18070   */\n      tag_83\n      jump\t// in\n    tag_392:\n        /* \"#utility.yul\":18027:18070   */\n      swap1\n      pop\n        /* \"#utility.yul\":17924:18077   */\n      swap2\n      swap1\n      pop\n      jump\t// out\n        /* \"#utility.yul\":18083:18228   */\n    tag_201:\n        /* \"#utility.yul\":18136:18140   */\n      0x00\n        /* \"#utility.yul\":18159:18162   */\n      dup2\n        /* \"#utility.yul\":18151:18162   */\n      swap1\n      pop\n        /* \"#utility.yul\":18182:18185   */\n      dup2\n        /* \"#utility.yul\":18179:18180   */\n      0x00\n        /* \"#utility.yul\":18172:18186   */\n      mstore\n        /* \"#utility.yul\":18216:18220   */\n      0x20\n        /* \"#utility.yul\":18213:18214   */\n      0x00\n        /* \"#utility.yul\":18203:18221   */\n      keccak256\n        /* \"#utility.yul\":18195:18221   */\n      swap1\n      pop\n        /* \"#utility.yul\":18083:18228   */\n      swap2\n      swap1\n      pop\n      jump\t// out\n        /* \"#utility.yul\":18234:19697   */\n    tag_140:\n        /* \"#utility.yul\":18349:18352   */\n      dup2\n        /* \"#utility.yul\":18343:18347   */\n      dup2\n        /* \"#utility.yul\":18340:18353   */\n      sub\n        /* \"#utility.yul\":18337:18363   */\n      tag_395\n      jumpi\n        /* \"#utility.yul\":18356:18361   */\n      pop\n      pop\n      jump(tag_394)\n        /* \"#utility.yul\":18337:18363   */\n    tag_395:\n        /* \"#utility.yul\":18387:18425   */\n      tag_396\n        /* \"#utility.yul\":18421:18424   */\n      dup3\n        /* \"#utility.yul\":18387:18425   */\n      tag_200\n      jump\t// in\n    tag_396:\n        /* \"#utility.yul\":18490:18508   */\n      0xffffffffffffffff\n        /* \"#utility.yul\":18482:18488   */\n      dup2\n        /* \"#utility.yul\":18479:18509   */\n      gt\n        /* \"#utility.yul\":18476:18532   */\n      iszero\n      tag_397\n      jumpi\n        /* \"#utility.yul\":18512:18530   */\n      tag_398\n      tag_163\n      jump\t// in\n    tag_398:\n        /* \"#utility.yul\":18476:18532   */\n    tag_397:\n        /* \"#utility.yul\":18556:18594   */\n      tag_399\n        /* \"#utility.yul\":18588:18592   */\n      dup3\n        /* \"#utility.yul\":18582:18593   */\n      sload\n        /* \"#utility.yul\":18556:18594   */\n      tag_83\n      jump\t// in\n    tag_399:\n        /* \"#utility.yul\":18641:18708   */\n      tag_400\n        /* \"#utility.yul\":18701:18707   */\n      dup3\n        /* \"#utility.yul\":18693:18699   */\n      dup3\n        /* \"#utility.yul\":18687:18691   */\n      dup6\n        /* \"#utility.yul\":18641:18708   */\n      tag_195\n      jump\t// in\n    tag_400:\n        /* \"#utility.yul\":18735:18736   */\n      0x00\n        /* \"#utility.yul\":18764:18766   */\n      0x1f\n        /* \"#utility.yul\":18756:18762   */\n      dup4\n        /* \"#utility.yul\":18753:18767   */\n      gt\n        /* \"#utility.yul\":18781:18782   */\n      0x01\n        /* \"#utility.yul\":18776:19452   */\n      dup2\n      eq\n      tag_402\n      jumpi\n        /* \"#utility.yul\":19496:19497   */\n      0x00\n        /* \"#utility.yul\":19513:19519   */\n      dup5\n        /* \"#utility.yul\":19510:19587   */\n      iszero\n      tag_403\n      jumpi\n        /* \"#utility.yul\":19562:19571   */\n      dup3\n        /* \"#utility.yul\":19557:19560   */\n      dup8\n        /* \"#utility.yul\":19553:19572   */\n      add\n        /* \"#utility.yul\":19547:19573   */\n      sload\n        /* \"#utility.yul\":19538:19573   */\n      swap1\n      pop\n        /* \"#utility.yul\":19510:19587   */\n    tag_403:\n        /* \"#utility.yul\":19613:19680   */\n      tag_404\n        /* \"#utility.yul\":19673:19679   */\n      dup6\n        /* \"#utility.yul\":19666:19671   */\n      dup3\n        /* \"#utility.yul\":19613:19680   */\n      tag_198\n      jump\t// in\n    tag_404:\n        /* \"#utility.yul\":19607:19611   */\n      dup7\n        /* \"#utility.yul\":19600:19681   */\n      sstore\n        /* \"#utility.yul\":19469:19691   */\n      pop\n        /* \"#utility.yul\":18746:19691   */\n      jump(tag_401)\n        /* \"#utility.yul\":18776:19452   */\n    tag_402:\n        /* \"#utility.yul\":18828:18832   */\n      0x1f\n        /* \"#utility.yul\":18824:18833   */\n      not\n        /* \"#utility.yul\":18816:18822   */\n      dup5\n        /* \"#utility.yul\":18812:18834   */\n      and\n        /* \"#utility.yul\":18854:18894   */\n      tag_405\n        /* \"#utility.yul\":18890:18893   */\n      dup8\n        /* \"#utility.yul\":18854:18894   */\n      tag_201\n      jump\t// in\n    tag_405:\n        /* \"#utility.yul\":18847:18894   */\n      swap7\n      pop\n        /* \"#utility.yul\":18921:18958   */\n      tag_406\n        /* \"#utility.yul\":18953:18957   */\n      dup7\n        /* \"#utility.yul\":18921:18958   */\n      tag_184\n      jump\t// in\n    tag_406:\n        /* \"#utility.yul\":18980:18981   */\n      0x00\n        /* \"#utility.yul\":18994:19201   */\n    tag_407:\n        /* \"#utility.yul\":19008:19015   */\n      dup3\n        /* \"#utility.yul\":19005:19006   */\n      dup2\n        /* \"#utility.yul\":19002:19016   */\n      lt\n        /* \"#utility.yul\":18994:19201   */\n      iszero\n      tag_409\n      jumpi\n        /* \"#utility.yul\":19087:19096   */\n      dup5\n        /* \"#utility.yul\":19082:19085   */\n      dup10\n        /* \"#utility.yul\":19078:19097   */\n      add\n        /* \"#utility.yul\":19072:19098   */\n      sload\n        /* \"#utility.yul\":19064:19070   */\n      dup3\n        /* \"#utility.yul\":19057:19099   */\n      sstore\n        /* \"#utility.yul\":19138:19139   */\n      0x01\n        /* \"#utility.yul\":19130:19136   */\n      dup3\n        /* \"#utility.yul\":19126:19140   */\n      add\n        /* \"#utility.yul\":19116:19140   */\n      swap2\n      pop\n        /* \"#utility.yul\":19185:19186   */\n      0x01\n        /* \"#utility.yul\":19174:19183   */\n      dup6\n        /* \"#utility.yul\":19170:19187   */\n      add\n        /* \"#utility.yul\":19157:19187   */\n      swap5\n      pop\n        /* \"#utility.yul\":19031:19035   */\n      0x20\n        /* \"#utility.yul\":19028:19029   */\n      dup2\n        /* \"#utility.yul\":19024:19036   */\n      add\n        /* \"#utility.yul\":19019:19036   */\n      swap1\n      pop\n        /* \"#utility.yul\":18994:19201   */\n      jump(tag_407)\n    tag_409:\n        /* \"#utility.yul\":19229:19235   */\n      dup7\n        /* \"#utility.yul\":19220:19227   */\n      dup4\n        /* \"#utility.yul\":19217:19236   */\n      lt\n        /* \"#utility.yul\":19214:19393   */\n      iszero\n      tag_410\n      jumpi\n        /* \"#utility.yul\":19287:19296   */\n      dup5\n        /* \"#utility.yul\":19282:19285   */\n      dup10\n        /* \"#utility.yul\":19278:19297   */\n      add\n        /* \"#utility.yul\":19272:19298   */\n      sload\n        /* \"#utility.yul\":19330:19378   */\n      tag_411\n        /* \"#utility.yul\":19372:19376   */\n      0x1f\n        /* \"#utility.yul\":19364:19370   */\n      dup10\n        /* \"#utility.yul\":19360:19377   */\n      and\n        /* \"#utility.yul\":19349:19358   */\n      dup3\n        /* \"#utility.yul\":19330:19378   */\n      tag_197\n      jump\t// in\n    tag_411:\n        /* \"#utility.yul\":19322:19328   */\n      dup4\n        /* \"#utility.yul\":19315:19379   */\n      sstore\n        /* \"#utility.yul\":19237:19393   */\n      pop\n        /* \"#utility.yul\":19214:19393   */\n    tag_410:\n        /* \"#utility.yul\":19439:19440   */\n      0x01\n        /* \"#utility.yul\":19435:19436   */\n      0x02\n        /* \"#utility.yul\":19427:19433   */\n      dup9\n        /* \"#utility.yul\":19423:19437   */\n      mul\n        /* \"#utility.yul\":19419:19441   */\n      add\n        /* \"#utility.yul\":19413:19417   */\n      dup9\n        /* \"#utility.yul\":19406:19442   */\n      sstore\n        /* \"#utility.yul\":18783:19452   */\n      pop\n      pop\n      pop\n        /* \"#utility.yul\":18746:19691   */\n    tag_401:\n      pop\n        /* \"#utility.yul\":18327:19697   */\n      pop\n      pop\n      pop\n        /* \"#utility.yul\":18234:19697   */\n      pop\n      pop\n    tag_394:\n      jump\t// out\n\n    auxdata: 0xa264697066735822122004ff9bc9970d292b1ba54808ddca7d5622ed18b3ce0218773b1a91d6503cad5464736f6c63430008120033\n}\n",
				"bytecode": {
					"linkReferences": {},
					"object": "608060405234801561001057600080fd5b506001600260003373ffffffffffffffffffffffffffffffffffffffff1673ffffffffffffffffffffffffffffffffffffffff16815260200190815260200160002060006101000a81548160ff021916908315150217905550611e96806100786000396000f3fe608060405234801561001057600080fd5b50600436106100625760003560e01c806303825d6c146100675780631785f53c146100835780635f893bfa1461009f57806370f9ff87146100bb578063abafef87146100ef578063de8c98fd14610128575b600080fd5b610081600480360381019061007c91906114ed565b610144565b005b61009d600480360381019061009891906115a8565b61041e565b005b6100b960048036038101906100b491906115a8565b610645565b005b6100d560048036038101906100d0919061160b565b610814565b6040516100e69594939291906116e1565b60405180910390f35b6101096004803603810190610104919061160b565b610a1f565b60405161011f9a99989796959493929190611758565b60405180910390f35b610142600480360381019061013d919061181e565b610e00565b005b600260003373ffffffffffffffffffffffffffffffffffffffff1673ffffffffffffffffffffffffffffffffffffffff16815260200190815260200160002060009054906101000a900460ff166101d0576040517f08c379a00000000000000000000000000000000000000000000000000000000081526004016101c7906119a9565b60405180910390fd5b6001600260008673ffffffffffffffffffffffffffffffffffffffff1673ffffffffffffffffffffffffffffffffffffffff16815260200190815260200160002060006101000a81548160ff0219169083151502179055506000600660008673ffffffffffffffffffffffffffffffffffffffff1673ffffffffffffffffffffffffffffffffffffffff1681526020019081526020016000209050848160000160006101000a81548173ffffffffffffffffffffffffffffffffffffffff021916908373ffffffffffffffffffffffffffffffffffffffff160217905550838160010190816102bf9190611bd5565b50828160020190816102d19190611bd5565b50818160030190816102e39190611bd5565b5060018160040160006101000a81548160ff02191690831515021790555060016040518060a001604052808773ffffffffffffffffffffffffffffffffffffffff16815260200186815260200185815260200184815260200160011515815250908060018154018082558091505060019003906000526020600020906005020160009091909190915060008201518160000160006101000a81548173ffffffffffffffffffffffffffffffffffffffff021916908373ffffffffffffffffffffffffffffffffffffffff16021790555060208201518160010190816103c89190611bd5565b5060408201518160020190816103de9190611bd5565b5060608201518160030190816103f49190611bd5565b5060808201518160040160006101000a81548160ff02191690831515021790555050505050505050565b600260003373ffffffffffffffffffffffffffffffffffffffff1673ffffffffffffffffffffffffffffffffffffffff16815260200190815260200160002060009054906101000a900460ff166104aa576040517f08c379a00000000000000000000000000000000000000000000000000000000081526004016104a1906119a9565b60405180910390fd5b6000600260008373ffffffffffffffffffffffffffffffffffffffff1673ffffffffffffffffffffffffffffffffffffffff16815260200190815260200160002060006101000a81548160ff0219169083151502179055506000600660008373ffffffffffffffffffffffffffffffffffffffff1673ffffffffffffffffffffffffffffffffffffffff168152602001908152602001600020905060008160040160006101000a81548160ff02191690831515021790555060005b600180549050811015610640578273ffffffffffffffffffffffffffffffffffffffff166001828154811061059d5761059c611ca7565b5b906000526020600020906005020160000160009054906101000a900473ffffffffffffffffffffffffffffffffffffffff1673ffffffffffffffffffffffffffffffffffffffff160361062d57600060018281548110610600576105ff611ca7565b5b906000526020600020906005020160040160006101000a81548160ff021916908315150217905550610640565b808061063890611d05565b915050610565565b505050565b600260003373ffffffffffffffffffffffffffffffffffffffff1673ffffffffffffffffffffffffffffffffffffffff16815260200190815260200160002060009054906101000a900460ff166106d1576040517f08c379a00000000000000000000000000000000000000000000000000000000081526004016106c8906119a9565b60405180910390fd5b6000600560008373ffffffffffffffffffffffffffffffffffffffff1673ffffffffffffffffffffffffffffffffffffffff168152602001908152602001600020905060018160070160006101000a81548160ff02191690831515021790555060005b60008054905081101561080f578273ffffffffffffffffffffffffffffffffffffffff166000828154811061076c5761076b611ca7565b5b90600052602060002090600a020160000160009054906101000a900473ffffffffffffffffffffffffffffffffffffffff1673ffffffffffffffffffffffffffffffffffffffff16036107fc576001600082815481106107cf576107ce611ca7565b5b90600052602060002090600a020160070160006101000a81548160ff02191690831515021790555061080f565b808061080790611d05565b915050610734565b505050565b6001818154811061082457600080fd5b90600052602060002090600502016000915090508060000160009054906101000a900473ffffffffffffffffffffffffffffffffffffffff169080600101805461086d906119f8565b80601f0160208091040260200160405190810160405280929190818152602001828054610899906119f8565b80156108e65780601f106108bb576101008083540402835291602001916108e6565b820191906000526020600020905b8154815290600101906020018083116108c957829003601f168201915b5050505050908060020180546108fb906119f8565b80601f0160208091040260200160405190810160405280929190818152602001828054610927906119f8565b80156109745780601f1061094957610100808354040283529160200191610974565b820191906000526020600020905b81548152906001019060200180831161095757829003601f168201915b505050505090806003018054610989906119f8565b80601f01602080910402602001604051908101604052809291908181526020018280546109b5906119f8565b8015610a025780601f106109d757610100808354040283529160200191610a02565b820191906000526020600020905b8154815290600101906020018083116109e557829003601f168201915b5050505050908060040160009054906101000a900460ff16905085565b60008181548110610a2f57600080fd5b90600052602060002090600a02016000915090508060000160009054906101000a900473ffffffffffffffffffffffffffffffffffffffff1690806001018054610a78906119f8565b80601f0160208091040260200160405190810160405280929190818152602001828054610aa4906119f8565b8015610af15780601f10610ac657610100808354040283529160200191610af1565b820191906000526020600020905b815481529060010190602001808311610ad457829003601f168201915b505050505090806002018054610b06906119f8565b80601f0160208091040260200160405190810160405280929190818152602001828054610b32906119f8565b8015610b7f5780601f10610b5457610100808354040283529160200191610b7f565b820191906000526020600020905b815481529060010190602001808311610b6257829003601f168201915b505050505090806003018054610b94906119f8565b80601f0160208091040260200160405190810160405280929190818152602001828054610bc0906119f8565b8015610c0d5780601f10610be257610100808354040283529160200191610c0d565b820191906000526020600020905b815481529060010190602001808311610bf057829003601f168201915b505050505090806004018054610c22906119f8565b80601f0160208091040260200160405190810160405280929190818152602001828054610c4e906119f8565b8015610c9b5780601f10610c7057610100808354040283529160200191610c9b565b820191906000526020600020905b815481529060010190602001808311610c7e57829003601f168201915b505050505090806005018054610cb0906119f8565b80601f0160208091040260200160405190810160405280929190818152602001828054610cdc906119f8565b8015610d295780601f10610cfe57610100808354040283529160200191610d29565b820191906000526020600020905b815481529060010190602001808311610d0c57829003601f168201915b5050505050908060060154908060070160009054906101000a900460ff1690806008018054610d57906119f8565b80601f0160208091040260200160405190810160405280929190818152602001828054610d83906119f8565b8015610dd05780601f10610da557610100808354040283529160200191610dd0565b820191906000526020600020905b815481529060010190602001808311610db357829003601f168201915b5050505050908060090160009054906101000a900473ffffffffffffffffffffffffffffffffffffffff1690508a565b600260003373ffffffffffffffffffffffffffffffffffffffff1673ffffffffffffffffffffffffffffffffffffffff16815260200190815260200160002060009054906101000a900460ff16610e8c576040517f08c379a0000000000000000000000000000000000000000000000000000000008152600401610e83906119a9565b60405180910390fd5b6001600460008873ffffffffffffffffffffffffffffffffffffffff1673ffffffffffffffffffffffffffffffffffffffff16815260200190815260200160002060006101000a81548160ff0219169083151502179055506000600560008873ffffffffffffffffffffffffffffffffffffffff1673ffffffffffffffffffffffffffffffffffffffff1681526020019081526020016000209050868160000160006101000a81548173ffffffffffffffffffffffffffffffffffffffff021916908373ffffffffffffffffffffffffffffffffffffffff16021790555085816001019081610f7b9190611bd5565b5084816002019081610f8d9190611bd5565b5083816003019081610f9f9190611bd5565b5082816004019081610fb19190611bd5565b5081816005019081610fc39190611bd5565b506000816006018190555060008160070160006101000a81548160ff021916908315150217905550338160090160006101000a81548173ffffffffffffffffffffffffffffffffffffffff021916908373ffffffffffffffffffffffffffffffffffffffff160217905550600660003373ffffffffffffffffffffffffffffffffffffffff1673ffffffffffffffffffffffffffffffffffffffff1681526020019081526020016000206001018160080190816110809190611d78565b5060006040518061014001604052808973ffffffffffffffffffffffffffffffffffffffff16815260200188815260200187815260200186815260200185815260200184815260200160008152602001600015158152602001600660003373ffffffffffffffffffffffffffffffffffffffff1673ffffffffffffffffffffffffffffffffffffffff1681526020019081526020016000206001018054611126906119f8565b80601f0160208091040260200160405190810160405280929190818152602001828054611152906119f8565b801561119f5780601f106111745761010080835404028352916020019161119f565b820191906000526020600020905b81548152906001019060200180831161118257829003601f168201915b505050505081526020013373ffffffffffffffffffffffffffffffffffffffff1681525090806001815401808255809150506001900390600052602060002090600a020160009091909190915060008201518160000160006101000a81548173ffffffffffffffffffffffffffffffffffffffff021916908373ffffffffffffffffffffffffffffffffffffffff16021790555060208201518160010190816112489190611bd5565b50604082015181600201908161125e9190611bd5565b5060608201518160030190816112749190611bd5565b50608082015181600401908161128a9190611bd5565b5060a08201518160050190816112a09190611bd5565b5060c0820151816006015560e08201518160070160006101000a81548160ff0219169083151502179055506101008201518160080190816112e19190611bd5565b506101208201518160090160006101000a81548173ffffffffffffffffffffffffffffffffffffffff021916908373ffffffffffffffffffffffffffffffffffffffff160217905550505050505050505050565b6000604051905090565b600080fd5b600080fd5b600073ffffffffffffffffffffffffffffffffffffffff82169050919050565b600061137482611349565b9050919050565b61138481611369565b811461138f57600080fd5b50565b6000813590506113a18161137b565b92915050565b600080fd5b600080fd5b6000601f19601f8301169050919050565b7f4e487b7100000000000000000000000000000000000000000000000000000000600052604160045260246000fd5b6113fa826113b1565b810181811067ffffffffffffffff82111715611419576114186113c2565b5b80604052505050565b600061142c611335565b905061143882826113f1565b919050565b600067ffffffffffffffff821115611458576114576113c2565b5b611461826113b1565b9050602081019050919050565b82818337600083830152505050565b600061149061148b8461143d565b611422565b9050828152602081018484840111156114ac576114ab6113ac565b5b6114b784828561146e565b509392505050565b600082601f8301126114d4576114d36113a7565b5b81356114e484826020860161147d565b91505092915050565b600080600080608085870312156115075761150661133f565b5b600061151587828801611392565b945050602085013567ffffffffffffffff81111561153657611535611344565b5b611542878288016114bf565b935050604085013567ffffffffffffffff81111561156357611562611344565b5b61156f878288016114bf565b925050606085013567ffffffffffffffff8111156115905761158f611344565b5b61159c878288016114bf565b91505092959194509250565b6000602082840312156115be576115bd61133f565b5b60006115cc84828501611392565b91505092915050565b6000819050919050565b6115e8816115d5565b81146115f357600080fd5b50565b600081359050611605816115df565b92915050565b6000602082840312156116215761162061133f565b5b600061162f848285016115f6565b91505092915050565b61164181611369565b82525050565b600081519050919050565b600082825260208201905092915050565b60005b83811015611681578082015181840152602081019050611666565b60008484015250505050565b600061169882611647565b6116a28185611652565b93506116b2818560208601611663565b6116bb816113b1565b840191505092915050565b60008115159050919050565b6116db816116c6565b82525050565b600060a0820190506116f66000830188611638565b8181036020830152611708818761168d565b9050818103604083015261171c818661168d565b90508181036060830152611730818561168d565b905061173f60808301846116d2565b9695505050505050565b611752816115d5565b82525050565b60006101408201905061176e600083018d611638565b8181036020830152611780818c61168d565b90508181036040830152611794818b61168d565b905081810360608301526117a8818a61168d565b905081810360808301526117bc818961168d565b905081810360a08301526117d0818861168d565b90506117df60c0830187611749565b6117ec60e08301866116d2565b8181036101008301526117ff818561168d565b905061180f610120830184611638565b9b9a5050505050505050505050565b60008060008060008060c0878903121561183b5761183a61133f565b5b600061184989828a01611392565b965050602087013567ffffffffffffffff81111561186a57611869611344565b5b61187689828a016114bf565b955050604087013567ffffffffffffffff81111561189757611896611344565b5b6118a389828a016114bf565b945050606087013567ffffffffffffffff8111156118c4576118c3611344565b5b6118d089828a016114bf565b935050608087013567ffffffffffffffff8111156118f1576118f0611344565b5b6118fd89828a016114bf565b92505060a087013567ffffffffffffffff81111561191e5761191d611344565b5b61192a89828a016114bf565b9150509295509295509295565b7f4f6e6c7920617574686f72697a656420697373756572732063616e2063616c6c60008201527f20746869732066756e6374696f6e000000000000000000000000000000000000602082015250565b6000611993602e83611652565b915061199e82611937565b604082019050919050565b600060208201905081810360008301526119c281611986565b9050919050565b7f4e487b7100000000000000000000000000000000000000000000000000000000600052602260045260246000fd5b60006002820490506001821680611a1057607f821691505b602082108103611a2357611a226119c9565b5b50919050565b60008190508160005260206000209050919050565b60006020601f8301049050919050565b600082821b905092915050565b600060088302611a8b7fffffffffffffffffffffffffffffffffffffffffffffffffffffffffffffffff82611a4e565b611a958683611a4e565b95508019841693508086168417925050509392505050565b6000819050919050565b6000611ad2611acd611ac8846115d5565b611aad565b6115d5565b9050919050565b6000819050919050565b611aec83611ab7565b611b00611af882611ad9565b848454611a5b565b825550505050565b600090565b611b15611b08565b611b20818484611ae3565b505050565b5b81811015611b4457611b39600082611b0d565b600181019050611b26565b5050565b601f821115611b8957611b5a81611a29565b611b6384611a3e565b81016020851015611b72578190505b611b86611b7e85611a3e565b830182611b25565b50505b505050565b600082821c905092915050565b6000611bac60001984600802611b8e565b1980831691505092915050565b6000611bc58383611b9b565b9150826002028217905092915050565b611bde82611647565b67ffffffffffffffff811115611bf757611bf66113c2565b5b611c0182546119f8565b611c0c828285611b48565b600060209050601f831160018114611c3f5760008415611c2d578287015190505b611c378582611bb9565b865550611c9f565b601f198416611c4d86611a29565b60005b82811015611c7557848901518255600182019150602085019450602081019050611c50565b86831015611c925784890151611c8e601f891682611b9b565b8355505b6001600288020188555050505b505050505050565b7f4e487b7100000000000000000000000000000000000000000000000000000000600052603260045260246000fd5b7f4e487b7100000000000000000000000000000000000000000000000000000000600052601160045260246000fd5b6000611d10826115d5565b91507fffffffffffffffffffffffffffffffffffffffffffffffffffffffffffffffff8203611d4257611d41611cd6565b5b600182019050919050565b600081549050611d5c816119f8565b9050919050565b60008190508160005260206000209050919050565b818103611d86575050611e5e565b611d8f82611d4d565b67ffffffffffffffff811115611da857611da76113c2565b5b611db282546119f8565b611dbd828285611b48565b6000601f831160018114611dec5760008415611dda578287015490505b611de48582611bb9565b865550611e57565b601f198416611dfa87611d63565b9650611e0586611a29565b60005b82811015611e2d57848901548255600182019150600185019450602081019050611e08565b86831015611e4a5784890154611e46601f891682611b9b565b8355505b6001600288020188555050505b5050505050505b56fea264697066735822122004ff9bc9970d292b1ba54808ddca7d5622ed18b3ce0218773b1a91d6503cad5464736f6c63430008120033",
					"opcodes": "PUSH1 0x80 PUSH1 0x40 MSTORE CALLVALUE DUP1 ISZERO PUSH2 0x10 JUMPI PUSH1 0x0 DUP1 REVERT JUMPDEST POP PUSH1 0x1 PUSH1 0x2 PUSH1 0x0 CALLER PUSH20 0xFFFFFFFFFFFFFFFFFFFFFFFFFFFFFFFFFFFFFFFF AND PUSH20 0xFFFFFFFFFFFFFFFFFFFFFFFFFFFFFFFFFFFFFFFF AND DUP2 MSTORE PUSH1 0x20 ADD SWAP1 DUP2 MSTORE PUSH1 0x20 ADD PUSH1 0x0 KECCAK256 PUSH1 0x0 PUSH2 0x100 EXP DUP2 SLOAD DUP2 PUSH1 0xFF MUL NOT AND SWAP1 DUP4 ISZERO ISZERO MUL OR SWAP1 SSTORE POP PUSH2 0x1E96 DUP1 PUSH2 0x78 PUSH1 0x0 CODECOPY PUSH1 0x0 RETURN INVALID PUSH1 0x80 PUSH1 0x40 MSTORE CALLVALUE DUP1 ISZERO PUSH2 0x10 JUMPI PUSH1 0x0 DUP1 REVERT JUMPDEST POP PUSH1 0x4 CALLDATASIZE LT PUSH2 0x62 JUMPI PUSH1 0x0 CALLDATALOAD PUSH1 0xE0 SHR DUP1 PUSH4 0x3825D6C EQ PUSH2 0x67 JUMPI DUP1 PUSH4 0x1785F53C EQ PUSH2 0x83 JUMPI DUP1 PUSH4 0x5F893BFA EQ PUSH2 0x9F JUMPI DUP1 PUSH4 0x70F9FF87 EQ PUSH2 0xBB JUMPI DUP1 PUSH4 0xABAFEF87 EQ PUSH2 0xEF JUMPI DUP1 PUSH4 0xDE8C98FD EQ PUSH2 0x128 JUMPI JUMPDEST PUSH1 0x0 DUP1 REVERT JUMPDEST PUSH2 0x81 PUSH1 0x4 DUP1 CALLDATASIZE SUB DUP2 ADD SWAP1 PUSH2 0x7C SWAP2 SWAP1 PUSH2 0x14ED JUMP JUMPDEST PUSH2 0x144 JUMP JUMPDEST STOP JUMPDEST PUSH2 0x9D PUSH1 0x4 DUP1 CALLDATASIZE SUB DUP2 ADD SWAP1 PUSH2 0x98 SWAP2 SWAP1 PUSH2 0x15A8 JUMP JUMPDEST PUSH2 0x41E JUMP JUMPDEST STOP JUMPDEST PUSH2 0xB9 PUSH1 0x4 DUP1 CALLDATASIZE SUB DUP2 ADD SWAP1 PUSH2 0xB4 SWAP2 SWAP1 PUSH2 0x15A8 JUMP JUMPDEST PUSH2 0x645 JUMP JUMPDEST STOP JUMPDEST PUSH2 0xD5 PUSH1 0x4 DUP1 CALLDATASIZE SUB DUP2 ADD SWAP1 PUSH2 0xD0 SWAP2 SWAP1 PUSH2 0x160B JUMP JUMPDEST PUSH2 0x814 JUMP JUMPDEST PUSH1 0x40 MLOAD PUSH2 0xE6 SWAP6 SWAP5 SWAP4 SWAP3 SWAP2 SWAP1 PUSH2 0x16E1 JUMP JUMPDEST PUSH1 0x40 MLOAD DUP1 SWAP2 SUB SWAP1 RETURN JUMPDEST PUSH2 0x109 PUSH1 0x4 DUP1 CALLDATASIZE SUB DUP2 ADD SWAP1 PUSH2 0x104 SWAP2 SWAP1 PUSH2 0x160B JUMP JUMPDEST PUSH2 0xA1F JUMP JUMPDEST PUSH1 0x40 MLOAD PUSH2 0x11F SWAP11 SWAP10 SWAP9 SWAP8 SWAP7 SWAP6 SWAP5 SWAP4 SWAP3 SWAP2 SWAP1 PUSH2 0x1758 JUMP JUMPDEST PUSH1 0x40 MLOAD DUP1 SWAP2 SUB SWAP1 RETURN JUMPDEST PUSH2 0x142 PUSH1 0x4 DUP1 CALLDATASIZE SUB DUP2 ADD SWAP1 PUSH2 0x13D SWAP2 SWAP1 PUSH2 0x181E JUMP JUMPDEST PUSH2 0xE00 JUMP JUMPDEST STOP JUMPDEST PUSH1 0x2 PUSH1 0x0 CALLER PUSH20 0xFFFFFFFFFFFFFFFFFFFFFFFFFFFFFFFFFFFFFFFF AND PUSH20 0xFFFFFFFFFFFFFFFFFFFFFFFFFFFFFFFFFFFFFFFF AND DUP2 MSTORE PUSH1 0x20 ADD SWAP1 DUP2 MSTORE PUSH1 0x20 ADD PUSH1 0x0 KECCAK256 PUSH1 0x0 SWAP1 SLOAD SWAP1 PUSH2 0x100 EXP SWAP1 DIV PUSH1 0xFF AND PUSH2 0x1D0 JUMPI PUSH1 0x40 MLOAD PUSH32 0x8C379A000000000000000000000000000000000000000000000000000000000 DUP2 MSTORE PUSH1 0x4 ADD PUSH2 0x1C7 SWAP1 PUSH2 0x19A9 JUMP JUMPDEST PUSH1 0x40 MLOAD DUP1 SWAP2 SUB SWAP1 REVERT JUMPDEST PUSH1 0x1 PUSH1 0x2 PUSH1 0x0 DUP7 PUSH20 0xFFFFFFFFFFFFFFFFFFFFFFFFFFFFFFFFFFFFFFFF AND PUSH20 0xFFFFFFFFFFFFFFFFFFFFFFFFFFFFFFFFFFFFFFFF AND DUP2 MSTORE PUSH1 0x20 ADD SWAP1 DUP2 MSTORE PUSH1 0x20 ADD PUSH1 0x0 KECCAK256 PUSH1 0x0 PUSH2 0x100 EXP DUP2 SLOAD DUP2 PUSH1 0xFF MUL NOT AND SWAP1 DUP4 ISZERO ISZERO MUL OR SWAP1 SSTORE POP PUSH1 0x0 PUSH1 0x6 PUSH1 0x0 DUP7 PUSH20 0xFFFFFFFFFFFFFFFFFFFFFFFFFFFFFFFFFFFFFFFF AND PUSH20 0xFFFFFFFFFFFFFFFFFFFFFFFFFFFFFFFFFFFFFFFF AND DUP2 MSTORE PUSH1 0x20 ADD SWAP1 DUP2 MSTORE PUSH1 0x20 ADD PUSH1 0x0 KECCAK256 SWAP1 POP DUP5 DUP2 PUSH1 0x0 ADD PUSH1 0x0 PUSH2 0x100 EXP DUP2 SLOAD DUP2 PUSH20 0xFFFFFFFFFFFFFFFFFFFFFFFFFFFFFFFFFFFFFFFF MUL NOT AND SWAP1 DUP4 PUSH20 0xFFFFFFFFFFFFFFFFFFFFFFFFFFFFFFFFFFFFFFFF AND MUL OR SWAP1 SSTORE POP DUP4 DUP2 PUSH1 0x1 ADD SWAP1 DUP2 PUSH2 0x2BF SWAP2 SWAP1 PUSH2 0x1BD5 JUMP JUMPDEST POP DUP3 DUP2 PUSH1 0x2 ADD SWAP1 DUP2 PUSH2 0x2D1 SWAP2 SWAP1 PUSH2 0x1BD5 JUMP JUMPDEST POP DUP2 DUP2 PUSH1 0x3 ADD SWAP1 DUP2 PUSH2 0x2E3 SWAP2 SWAP1 PUSH2 0x1BD5 JUMP JUMPDEST POP PUSH1 0x1 DUP2 PUSH1 0x4 ADD PUSH1 0x0 PUSH2 0x100 EXP DUP2 SLOAD DUP2 PUSH1 0xFF MUL NOT AND SWAP1 DUP4 ISZERO ISZERO MUL OR SWAP1 SSTORE POP PUSH1 0x1 PUSH1 0x40 MLOAD DUP1 PUSH1 0xA0 ADD PUSH1 0x40 MSTORE DUP1 DUP8 PUSH20 0xFFFFFFFFFFFFFFFFFFFFFFFFFFFFFFFFFFFFFFFF AND DUP2 MSTORE PUSH1 0x20 ADD DUP7 DUP2 MSTORE PUSH1 0x20 ADD DUP6 DUP2 MSTORE PUSH1 0x20 ADD DUP5 DUP2 MSTORE PUSH1 0x20 ADD PUSH1 0x1 ISZERO ISZERO DUP2 MSTORE POP SWAP1 DUP1 PUSH1 0x1 DUP2 SLOAD ADD DUP1 DUP3 SSTORE DUP1 SWAP2 POP POP PUSH1 0x1 SWAP1 SUB SWAP1 PUSH1 0x0 MSTORE PUSH1 0x20 PUSH1 0x0 KECCAK256 SWAP1 PUSH1 0x5 MUL ADD PUSH1 0x0 SWAP1 SWAP2 SWAP1 SWAP2 SWAP1 SWAP2 POP PUSH1 0x0 DUP3 ADD MLOAD DUP2 PUSH1 0x0 ADD PUSH1 0x0 PUSH2 0x100 EXP DUP2 SLOAD DUP2 PUSH20 0xFFFFFFFFFFFFFFFFFFFFFFFFFFFFFFFFFFFFFFFF MUL NOT AND SWAP1 DUP4 PUSH20 0xFFFFFFFFFFFFFFFFFFFFFFFFFFFFFFFFFFFFFFFF AND MUL OR SWAP1 SSTORE POP PUSH1 0x20 DUP3 ADD MLOAD DUP2 PUSH1 0x1 ADD SWAP1 DUP2 PUSH2 0x3C8 SWAP2 SWAP1 PUSH2 0x1BD5 JUMP JUMPDEST POP PUSH1 0x40 DUP3 ADD MLOAD DUP2 PUSH1 0x2 ADD SWAP1 DUP2 PUSH2 0x3DE SWAP2 SWAP1 PUSH2 0x1BD5 JUMP JUMPDEST POP PUSH1 0x60 DUP3 ADD MLOAD DUP2 PUSH1 0x3 ADD SWAP1 DUP2 PUSH2 0x3F4 SWAP2 SWAP1 PUSH2 0x1BD5 JUMP JUMPDEST POP PUSH1 0x80 DUP3 ADD MLOAD DUP2 PUSH1 0x4 ADD PUSH1 0x0 PUSH2 0x100 EXP DUP2 SLOAD DUP2 PUSH1 0xFF MUL NOT AND SWAP1 DUP4 ISZERO ISZERO MUL OR SWAP1 SSTORE POP POP POP POP POP POP POP POP JUMP JUMPDEST PUSH1 0x2 PUSH1 0x0 CALLER PUSH20 0xFFFFFFFFFFFFFFFFFFFFFFFFFFFFFFFFFFFFFFFF AND PUSH20 0xFFFFFFFFFFFFFFFFFFFFFFFFFFFFFFFFFFFFFFFF AND DUP2 MSTORE PUSH1 0x20 ADD SWAP1 DUP2 MSTORE PUSH1 0x20 ADD PUSH1 0x0 KECCAK256 PUSH1 0x0 SWAP1 SLOAD SWAP1 PUSH2 0x100 EXP SWAP1 DIV PUSH1 0xFF AND PUSH2 0x4AA JUMPI PUSH1 0x40 MLOAD PUSH32 0x8C379A000000000000000000000000000000000000000000000000000000000 DUP2 MSTORE PUSH1 0x4 ADD PUSH2 0x4A1 SWAP1 PUSH2 0x19A9 JUMP JUMPDEST PUSH1 0x40 MLOAD DUP1 SWAP2 SUB SWAP1 REVERT JUMPDEST PUSH1 0x0 PUSH1 0x2 PUSH1 0x0 DUP4 PUSH20 0xFFFFFFFFFFFFFFFFFFFFFFFFFFFFFFFFFFFFFFFF AND PUSH20 0xFFFFFFFFFFFFFFFFFFFFFFFFFFFFFFFFFFFFFFFF AND DUP2 MSTORE PUSH1 0x20 ADD SWAP1 DUP2 MSTORE PUSH1 0x20 ADD PUSH1 0x0 KECCAK256 PUSH1 0x0 PUSH2 0x100 EXP DUP2 SLOAD DUP2 PUSH1 0xFF MUL NOT AND SWAP1 DUP4 ISZERO ISZERO MUL OR SWAP1 SSTORE POP PUSH1 0x0 PUSH1 0x6 PUSH1 0x0 DUP4 PUSH20 0xFFFFFFFFFFFFFFFFFFFFFFFFFFFFFFFFFFFFFFFF AND PUSH20 0xFFFFFFFFFFFFFFFFFFFFFFFFFFFFFFFFFFFFFFFF AND DUP2 MSTORE PUSH1 0x20 ADD SWAP1 DUP2 MSTORE PUSH1 0x20 ADD PUSH1 0x0 KECCAK256 SWAP1 POP PUSH1 0x0 DUP2 PUSH1 0x4 ADD PUSH1 0x0 PUSH2 0x100 EXP DUP2 SLOAD DUP2 PUSH1 0xFF MUL NOT AND SWAP1 DUP4 ISZERO ISZERO MUL OR SWAP1 SSTORE POP PUSH1 0x0 JUMPDEST PUSH1 0x1 DUP1 SLOAD SWAP1 POP DUP2 LT ISZERO PUSH2 0x640 JUMPI DUP3 PUSH20 0xFFFFFFFFFFFFFFFFFFFFFFFFFFFFFFFFFFFFFFFF AND PUSH1 0x1 DUP3 DUP2 SLOAD DUP2 LT PUSH2 0x59D JUMPI PUSH2 0x59C PUSH2 0x1CA7 JUMP JUMPDEST JUMPDEST SWAP1 PUSH1 0x0 MSTORE PUSH1 0x20 PUSH1 0x0 KECCAK256 SWAP1 PUSH1 0x5 MUL ADD PUSH1 0x0 ADD PUSH1 0x0 SWAP1 SLOAD SWAP1 PUSH2 0x100 EXP SWAP1 DIV PUSH20 0xFFFFFFFFFFFFFFFFFFFFFFFFFFFFFFFFFFFFFFFF AND PUSH20 0xFFFFFFFFFFFFFFFFFFFFFFFFFFFFFFFFFFFFFFFF AND SUB PUSH2 0x62D JUMPI PUSH1 0x0 PUSH1 0x1 DUP3 DUP2 SLOAD DUP2 LT PUSH2 0x600 JUMPI PUSH2 0x5FF PUSH2 0x1CA7 JUMP JUMPDEST JUMPDEST SWAP1 PUSH1 0x0 MSTORE PUSH1 0x20 PUSH1 0x0 KECCAK256 SWAP1 PUSH1 0x5 MUL ADD PUSH1 0x4 ADD PUSH1 0x0 PUSH2 0x100 EXP DUP2 SLOAD DUP2 PUSH1 0xFF MUL NOT AND SWAP1 DUP4 ISZERO ISZERO MUL OR SWAP1 SSTORE POP PUSH2 0x640 JUMP JUMPDEST DUP1 DUP1 PUSH2 0x638 SWAP1 PUSH2 0x1D05 JUMP JUMPDEST SWAP2 POP POP PUSH2 0x565 JUMP JUMPDEST POP POP POP JUMP JUMPDEST PUSH1 0x2 PUSH1 0x0 CALLER PUSH20 0xFFFFFFFFFFFFFFFFFFFFFFFFFFFFFFFFFFFFFFFF AND PUSH20 0xFFFFFFFFFFFFFFFFFFFFFFFFFFFFFFFFFFFFFFFF AND DUP2 MSTORE PUSH1 0x20 ADD SWAP1 DUP2 MSTORE PUSH1 0x20 ADD PUSH1 0x0 KECCAK256 PUSH1 0x0 SWAP1 SLOAD SWAP1 PUSH2 0x100 EXP SWAP1 DIV PUSH1 0xFF AND PUSH2 0x6D1 JUMPI PUSH1 0x40 MLOAD PUSH32 0x8C379A000000000000000000000000000000000000000000000000000000000 DUP2 MSTORE PUSH1 0x4 ADD PUSH2 0x6C8 SWAP1 PUSH2 0x19A9 JUMP JUMPDEST PUSH1 0x40 MLOAD DUP1 SWAP2 SUB SWAP1 REVERT JUMPDEST PUSH1 0x0 PUSH1 0x5 PUSH1 0x0 DUP4 PUSH20 0xFFFFFFFFFFFFFFFFFFFFFFFFFFFFFFFFFFFFFFFF AND PUSH20 0xFFFFFFFFFFFFFFFFFFFFFFFFFFFFFFFFFFFFFFFF AND DUP2 MSTORE PUSH1 0x20 ADD SWAP1 DUP2 MSTORE PUSH1 0x20 ADD PUSH1 0x0 KECCAK256 SWAP1 POP PUSH1 0x1 DUP2 PUSH1 0x7 ADD PUSH1 0x0 PUSH2 0x100 EXP DUP2 SLOAD DUP2 PUSH1 0xFF MUL NOT AND SWAP1 DUP4 ISZERO ISZERO MUL OR SWAP1 SSTORE POP PUSH1 0x0 JUMPDEST PUSH1 0x0 DUP1 SLOAD SWAP1 POP DUP2 LT ISZERO PUSH2 0x80F JUMPI DUP3 PUSH20 0xFFFFFFFFFFFFFFFFFFFFFFFFFFFFFFFFFFFFFFFF AND PUSH1 0x0 DUP3 DUP2 SLOAD DUP2 LT PUSH2 0x76C JUMPI PUSH2 0x76B PUSH2 0x1CA7 JUMP JUMPDEST JUMPDEST SWAP1 PUSH1 0x0 MSTORE PUSH1 0x20 PUSH1 0x0 KECCAK256 SWAP1 PUSH1 0xA MUL ADD PUSH1 0x0 ADD PUSH1 0x0 SWAP1 SLOAD SWAP1 PUSH2 0x100 EXP SWAP1 DIV PUSH20 0xFFFFFFFFFFFFFFFFFFFFFFFFFFFFFFFFFFFFFFFF AND PUSH20 0xFFFFFFFFFFFFFFFFFFFFFFFFFFFFFFFFFFFFFFFF AND SUB PUSH2 0x7FC JUMPI PUSH1 0x1 PUSH1 0x0 DUP3 DUP2 SLOAD DUP2 LT PUSH2 0x7CF JUMPI PUSH2 0x7CE PUSH2 0x1CA7 JUMP JUMPDEST JUMPDEST SWAP1 PUSH1 0x0 MSTORE PUSH1 0x20 PUSH1 0x0 KECCAK256 SWAP1 PUSH1 0xA MUL ADD PUSH1 0x7 ADD PUSH1 0x0 PUSH2 0x100 EXP DUP2 SLOAD DUP2 PUSH1 0xFF MUL NOT AND SWAP1 DUP4 ISZERO ISZERO MUL OR SWAP1 SSTORE POP PUSH2 0x80F JUMP JUMPDEST DUP1 DUP1 PUSH2 0x807 SWAP1 PUSH2 0x1D05 JUMP JUMPDEST SWAP2 POP POP PUSH2 0x734 JUMP JUMPDEST POP POP POP JUMP JUMPDEST PUSH1 0x1 DUP2 DUP2 SLOAD DUP2 LT PUSH2 0x824 JUMPI PUSH1 0x0 DUP1 REVERT JUMPDEST SWAP1 PUSH1 0x0 MSTORE PUSH1 0x20 PUSH1 0x0 KECCAK256 SWAP1 PUSH1 0x5 MUL ADD PUSH1 0x0 SWAP2 POP SWAP1 POP DUP1 PUSH1 0x0 ADD PUSH1 0x0 SWAP1 SLOAD SWAP1 PUSH2 0x100 EXP SWAP1 DIV PUSH20 0xFFFFFFFFFFFFFFFFFFFFFFFFFFFFFFFFFFFFFFFF AND SWAP1 DUP1 PUSH1 0x1 ADD DUP1 SLOAD PUSH2 0x86D SWAP1 PUSH2 0x19F8 JUMP JUMPDEST DUP1 PUSH1 0x1F ADD PUSH1 0x20 DUP1 SWAP2 DIV MUL PUSH1 0x20 ADD PUSH1 0x40 MLOAD SWAP1 DUP2 ADD PUSH1 0x40 MSTORE DUP1 SWAP3 SWAP2 SWAP1 DUP2 DUP2 MSTORE PUSH1 0x20 ADD DUP3 DUP1 SLOAD PUSH2 0x899 SWAP1 PUSH2 0x19F8 JUMP JUMPDEST DUP1 ISZERO PUSH2 0x8E6 JUMPI DUP1 PUSH1 0x1F LT PUSH2 0x8BB JUMPI PUSH2 0x100 DUP1 DUP4 SLOAD DIV MUL DUP4 MSTORE SWAP2 PUSH1 0x20 ADD SWAP2 PUSH2 0x8E6 JUMP JUMPDEST DUP3 ADD SWAP2 SWAP1 PUSH1 0x0 MSTORE PUSH1 0x20 PUSH1 0x0 KECCAK256 SWAP1 JUMPDEST DUP2 SLOAD DUP2 MSTORE SWAP1 PUSH1 0x1 ADD SWAP1 PUSH1 0x20 ADD DUP1 DUP4 GT PUSH2 0x8C9 JUMPI DUP3 SWAP1 SUB PUSH1 0x1F AND DUP3 ADD SWAP2 JUMPDEST POP POP POP POP POP SWAP1 DUP1 PUSH1 0x2 ADD DUP1 SLOAD PUSH2 0x8FB SWAP1 PUSH2 0x19F8 JUMP JUMPDEST DUP1 PUSH1 0x1F ADD PUSH1 0x20 DUP1 SWAP2 DIV MUL PUSH1 0x20 ADD PUSH1 0x40 MLOAD SWAP1 DUP2 ADD PUSH1 0x40 MSTORE DUP1 SWAP3 SWAP2 SWAP1 DUP2 DUP2 MSTORE PUSH1 0x20 ADD DUP3 DUP1 SLOAD PUSH2 0x927 SWAP1 PUSH2 0x19F8 JUMP JUMPDEST DUP1 ISZERO PUSH2 0x974 JUMPI DUP1 PUSH1 0x1F LT PUSH2 0x949 JUMPI PUSH2 0x100 DUP1 DUP4 SLOAD DIV MUL DUP4 MSTORE SWAP2 PUSH1 0x20 ADD SWAP2 PUSH2 0x974 JUMP JUMPDEST DUP3 ADD SWAP2 SWAP1 PUSH1 0x0 MSTORE PUSH1 0x20 PUSH1 0x0 KECCAK256 SWAP1 JUMPDEST DUP2 SLOAD DUP2 MSTORE SWAP1 PUSH1 0x1 ADD SWAP1 PUSH1 0x20 ADD DUP1 DUP4 GT PUSH2 0x957 JUMPI DUP3 SWAP1 SUB PUSH1 0x1F AND DUP3 ADD SWAP2 JUMPDEST POP POP POP POP POP SWAP1 DUP1 PUSH1 0x3 ADD DUP1 SLOAD PUSH2 0x989 SWAP1 PUSH2 0x19F8 JUMP JUMPDEST DUP1 PUSH1 0x1F ADD PUSH1 0x20 DUP1 SWAP2 DIV MUL PUSH1 0x20 ADD PUSH1 0x40 MLOAD SWAP1 DUP2 ADD PUSH1 0x40 MSTORE DUP1 SWAP3 SWAP2 SWAP1 DUP2 DUP2 MSTORE PUSH1 0x20 ADD DUP3 DUP1 SLOAD PUSH2 0x9B5 SWAP1 PUSH2 0x19F8 JUMP JUMPDEST DUP1 ISZERO PUSH2 0xA02 JUMPI DUP1 PUSH1 0x1F LT PUSH2 0x9D7 JUMPI PUSH2 0x100 DUP1 DUP4 SLOAD DIV MUL DUP4 MSTORE SWAP2 PUSH1 0x20 ADD SWAP2 PUSH2 0xA02 JUMP JUMPDEST DUP3 ADD SWAP2 SWAP1 PUSH1 0x0 MSTORE PUSH1 0x20 PUSH1 0x0 KECCAK256 SWAP1 JUMPDEST DUP2 SLOAD DUP2 MSTORE SWAP1 PUSH1 0x1 ADD SWAP1 PUSH1 0x20 ADD DUP1 DUP4 GT PUSH2 0x9E5 JUMPI DUP3 SWAP1 SUB PUSH1 0x1F AND DUP3 ADD SWAP2 JUMPDEST POP POP POP POP POP SWAP1 DUP1 PUSH1 0x4 ADD PUSH1 0x0 SWAP1 SLOAD SWAP1 PUSH2 0x100 EXP SWAP1 DIV PUSH1 0xFF AND SWAP1 POP DUP6 JUMP JUMPDEST PUSH1 0x0 DUP2 DUP2 SLOAD DUP2 LT PUSH2 0xA2F JUMPI PUSH1 0x0 DUP1 REVERT JUMPDEST SWAP1 PUSH1 0x0 MSTORE PUSH1 0x20 PUSH1 0x0 KECCAK256 SWAP1 PUSH1 0xA MUL ADD PUSH1 0x0 SWAP2 POP SWAP1 POP DUP1 PUSH1 0x0 ADD PUSH1 0x0 SWAP1 SLOAD SWAP1 PUSH2 0x100 EXP SWAP1 DIV PUSH20 0xFFFFFFFFFFFFFFFFFFFFFFFFFFFFFFFFFFFFFFFF AND SWAP1 DUP1 PUSH1 0x1 ADD DUP1 SLOAD PUSH2 0xA78 SWAP1 PUSH2 0x19F8 JUMP JUMPDEST DUP1 PUSH1 0x1F ADD PUSH1 0x20 DUP1 SWAP2 DIV MUL PUSH1 0x20 ADD PUSH1 0x40 MLOAD SWAP1 DUP2 ADD PUSH1 0x40 MSTORE DUP1 SWAP3 SWAP2 SWAP1 DUP2 DUP2 MSTORE PUSH1 0x20 ADD DUP3 DUP1 SLOAD PUSH2 0xAA4 SWAP1 PUSH2 0x19F8 JUMP JUMPDEST DUP1 ISZERO PUSH2 0xAF1 JUMPI DUP1 PUSH1 0x1F LT PUSH2 0xAC6 JUMPI PUSH2 0x100 DUP1 DUP4 SLOAD DIV MUL DUP4 MSTORE SWAP2 PUSH1 0x20 ADD SWAP2 PUSH2 0xAF1 JUMP JUMPDEST DUP3 ADD SWAP2 SWAP1 PUSH1 0x0 MSTORE PUSH1 0x20 PUSH1 0x0 KECCAK256 SWAP1 JUMPDEST DUP2 SLOAD DUP2 MSTORE SWAP1 PUSH1 0x1 ADD SWAP1 PUSH1 0x20 ADD DUP1 DUP4 GT PUSH2 0xAD4 JUMPI DUP3 SWAP1 SUB PUSH1 0x1F AND DUP3 ADD SWAP2 JUMPDEST POP POP POP POP POP SWAP1 DUP1 PUSH1 0x2 ADD DUP1 SLOAD PUSH2 0xB06 SWAP1 PUSH2 0x19F8 JUMP JUMPDEST DUP1 PUSH1 0x1F ADD PUSH1 0x20 DUP1 SWAP2 DIV MUL PUSH1 0x20 ADD PUSH1 0x40 MLOAD SWAP1 DUP2 ADD PUSH1 0x40 MSTORE DUP1 SWAP3 SWAP2 SWAP1 DUP2 DUP2 MSTORE PUSH1 0x20 ADD DUP3 DUP1 SLOAD PUSH2 0xB32 SWAP1 PUSH2 0x19F8 JUMP JUMPDEST DUP1 ISZERO PUSH2 0xB7F JUMPI DUP1 PUSH1 0x1F LT PUSH2 0xB54 JUMPI PUSH2 0x100 DUP1 DUP4 SLOAD DIV MUL DUP4 MSTORE SWAP2 PUSH1 0x20 ADD SWAP2 PUSH2 0xB7F JUMP JUMPDEST DUP3 ADD SWAP2 SWAP1 PUSH1 0x0 MSTORE PUSH1 0x20 PUSH1 0x0 KECCAK256 SWAP1 JUMPDEST DUP2 SLOAD DUP2 MSTORE SWAP1 PUSH1 0x1 ADD SWAP1 PUSH1 0x20 ADD DUP1 DUP4 GT PUSH2 0xB62 JUMPI DUP3 SWAP1 SUB PUSH1 0x1F AND DUP3 ADD SWAP2 JUMPDEST POP POP POP POP POP SWAP1 DUP1 PUSH1 0x3 ADD DUP1 SLOAD PUSH2 0xB94 SWAP1 PUSH2 0x19F8 JUMP JUMPDEST DUP1 PUSH1 0x1F ADD PUSH1 0x20 DUP1 SWAP2 DIV MUL PUSH1 0x20 ADD PUSH1 0x40 MLOAD SWAP1 DUP2 ADD PUSH1 0x40 MSTORE DUP1 SWAP3 SWAP2 SWAP1 DUP2 DUP2 MSTORE PUSH1 0x20 ADD DUP3 DUP1 SLOAD PUSH2 0xBC0 SWAP1 PUSH2 0x19F8 JUMP JUMPDEST DUP1 ISZERO PUSH2 0xC0D JUMPI DUP1 PUSH1 0x1F LT PUSH2 0xBE2 JUMPI PUSH2 0x100 DUP1 DUP4 SLOAD DIV MUL DUP4 MSTORE SWAP2 PUSH1 0x20 ADD SWAP2 PUSH2 0xC0D JUMP JUMPDEST DUP3 ADD SWAP2 SWAP1 PUSH1 0x0 MSTORE PUSH1 0x20 PUSH1 0x0 KECCAK256 SWAP1 JUMPDEST DUP2 SLOAD DUP2 MSTORE SWAP1 PUSH1 0x1 ADD SWAP1 PUSH1 0x20 ADD DUP1 DUP4 GT PUSH2 0xBF0 JUMPI DUP3 SWAP1 SUB PUSH1 0x1F AND DUP3 ADD SWAP2 JUMPDEST POP POP POP POP POP SWAP1 DUP1 PUSH1 0x4 ADD DUP1 SLOAD PUSH2 0xC22 SWAP1 PUSH2 0x19F8 JUMP JUMPDEST DUP1 PUSH1 0x1F ADD PUSH1 0x20 DUP1 SWAP2 DIV MUL PUSH1 0x20 ADD PUSH1 0x40 MLOAD SWAP1 DUP2 ADD PUSH1 0x40 MSTORE DUP1 SWAP3 SWAP2 SWAP1 DUP2 DUP2 MSTORE PUSH1 0x20 ADD DUP3 DUP1 SLOAD PUSH2 0xC4E SWAP1 PUSH2 0x19F8 JUMP JUMPDEST DUP1 ISZERO PUSH2 0xC9B JUMPI DUP1 PUSH1 0x1F LT PUSH2 0xC70 JUMPI PUSH2 0x100 DUP1 DUP4 SLOAD DIV MUL DUP4 MSTORE SWAP2 PUSH1 0x20 ADD SWAP2 PUSH2 0xC9B JUMP JUMPDEST DUP3 ADD SWAP2 SWAP1 PUSH1 0x0 MSTORE PUSH1 0x20 PUSH1 0x0 KECCAK256 SWAP1 JUMPDEST DUP2 SLOAD DUP2 MSTORE SWAP1 PUSH1 0x1 ADD SWAP1 PUSH1 0x20 ADD DUP1 DUP4 GT PUSH2 0xC7E JUMPI DUP3 SWAP1 SUB PUSH1 0x1F AND DUP3 ADD SWAP2 JUMPDEST POP POP POP POP POP SWAP1 DUP1 PUSH1 0x5 ADD DUP1 SLOAD PUSH2 0xCB0 SWAP1 PUSH2 0x19F8 JUMP JUMPDEST DUP1 PUSH1 0x1F ADD PUSH1 0x20 DUP1 SWAP2 DIV MUL PUSH1 0x20 ADD PUSH1 0x40 MLOAD SWAP1 DUP2 ADD PUSH1 0x40 MSTORE DUP1 SWAP3 SWAP2 SWAP1 DUP2 DUP2 MSTORE PUSH1 0x20 ADD DUP3 DUP1 SLOAD PUSH2 0xCDC SWAP1 PUSH2 0x19F8 JUMP JUMPDEST DUP1 ISZERO PUSH2 0xD29 JUMPI DUP1 PUSH1 0x1F LT PUSH2 0xCFE JUMPI PUSH2 0x100 DUP1 DUP4 SLOAD DIV MUL DUP4 MSTORE SWAP2 PUSH1 0x20 ADD SWAP2 PUSH2 0xD29 JUMP JUMPDEST DUP3 ADD SWAP2 SWAP1 PUSH1 0x0 MSTORE PUSH1 0x20 PUSH1 0x0 KECCAK256 SWAP1 JUMPDEST DUP2 SLOAD DUP2 MSTORE SWAP1 PUSH1 0x1 ADD SWAP1 PUSH1 0x20 ADD DUP1 DUP4 GT PUSH2 0xD0C JUMPI DUP3 SWAP1 SUB PUSH1 0x1F AND DUP3 ADD SWAP2 JUMPDEST POP POP POP POP POP SWAP1 DUP1 PUSH1 0x6 ADD SLOAD SWAP1 DUP1 PUSH1 0x7 ADD PUSH1 0x0 SWAP1 SLOAD SWAP1 PUSH2 0x100 EXP SWAP1 DIV PUSH1 0xFF AND SWAP1 DUP1 PUSH1 0x8 ADD DUP1 SLOAD PUSH2 0xD57 SWAP1 PUSH2 0x19F8 JUMP JUMPDEST DUP1 PUSH1 0x1F ADD PUSH1 0x20 DUP1 SWAP2 DIV MUL PUSH1 0x20 ADD PUSH1 0x40 MLOAD SWAP1 DUP2 ADD PUSH1 0x40 MSTORE DUP1 SWAP3 SWAP2 SWAP1 DUP2 DUP2 MSTORE PUSH1 0x20 ADD DUP3 DUP1 SLOAD PUSH2 0xD83 SWAP1 PUSH2 0x19F8 JUMP JUMPDEST DUP1 ISZERO PUSH2 0xDD0 JUMPI DUP1 PUSH1 0x1F LT PUSH2 0xDA5 JUMPI PUSH2 0x100 DUP1 DUP4 SLOAD DIV MUL DUP4 MSTORE SWAP2 PUSH1 0x20 ADD SWAP2 PUSH2 0xDD0 JUMP JUMPDEST DUP3 ADD SWAP2 SWAP1 PUSH1 0x0 MSTORE PUSH1 0x20 PUSH1 0x0 KECCAK256 SWAP1 JUMPDEST DUP2 SLOAD DUP2 MSTORE SWAP1 PUSH1 0x1 ADD SWAP1 PUSH1 0x20 ADD DUP1 DUP4 GT PUSH2 0xDB3 JUMPI DUP3 SWAP1 SUB PUSH1 0x1F AND DUP3 ADD SWAP2 JUMPDEST POP POP POP POP POP SWAP1 DUP1 PUSH1 0x9 ADD PUSH1 0x0 SWAP1 SLOAD SWAP1 PUSH2 0x100 EXP SWAP1 DIV PUSH20 0xFFFFFFFFFFFFFFFFFFFFFFFFFFFFFFFFFFFFFFFF AND SWAP1 POP DUP11 JUMP JUMPDEST PUSH1 0x2 PUSH1 0x0 CALLER PUSH20 0xFFFFFFFFFFFFFFFFFFFFFFFFFFFFFFFFFFFFFFFF AND PUSH20 0xFFFFFFFFFFFFFFFFFFFFFFFFFFFFFFFFFFFFFFFF AND DUP2 MSTORE PUSH1 0x20 ADD SWAP1 DUP2 MSTORE PUSH1 0x20 ADD PUSH1 0x0 KECCAK256 PUSH1 0x0 SWAP1 SLOAD SWAP1 PUSH2 0x100 EXP SWAP1 DIV PUSH1 0xFF AND PUSH2 0xE8C JUMPI PUSH1 0x40 MLOAD PUSH32 0x8C379A000000000000000000000000000000000000000000000000000000000 DUP2 MSTORE PUSH1 0x4 ADD PUSH2 0xE83 SWAP1 PUSH2 0x19A9 JUMP JUMPDEST PUSH1 0x40 MLOAD DUP1 SWAP2 SUB SWAP1 REVERT JUMPDEST PUSH1 0x1 PUSH1 0x4 PUSH1 0x0 DUP9 PUSH20 0xFFFFFFFFFFFFFFFFFFFFFFFFFFFFFFFFFFFFFFFF AND PUSH20 0xFFFFFFFFFFFFFFFFFFFFFFFFFFFFFFFFFFFFFFFF AND DUP2 MSTORE PUSH1 0x20 ADD SWAP1 DUP2 MSTORE PUSH1 0x20 ADD PUSH1 0x0 KECCAK256 PUSH1 0x0 PUSH2 0x100 EXP DUP2 SLOAD DUP2 PUSH1 0xFF MUL NOT AND SWAP1 DUP4 ISZERO ISZERO MUL OR SWAP1 SSTORE POP PUSH1 0x0 PUSH1 0x5 PUSH1 0x0 DUP9 PUSH20 0xFFFFFFFFFFFFFFFFFFFFFFFFFFFFFFFFFFFFFFFF AND PUSH20 0xFFFFFFFFFFFFFFFFFFFFFFFFFFFFFFFFFFFFFFFF AND DUP2 MSTORE PUSH1 0x20 ADD SWAP1 DUP2 MSTORE PUSH1 0x20 ADD PUSH1 0x0 KECCAK256 SWAP1 POP DUP7 DUP2 PUSH1 0x0 ADD PUSH1 0x0 PUSH2 0x100 EXP DUP2 SLOAD DUP2 PUSH20 0xFFFFFFFFFFFFFFFFFFFFFFFFFFFFFFFFFFFFFFFF MUL NOT AND SWAP1 DUP4 PUSH20 0xFFFFFFFFFFFFFFFFFFFFFFFFFFFFFFFFFFFFFFFF AND MUL OR SWAP1 SSTORE POP DUP6 DUP2 PUSH1 0x1 ADD SWAP1 DUP2 PUSH2 0xF7B SWAP2 SWAP1 PUSH2 0x1BD5 JUMP JUMPDEST POP DUP5 DUP2 PUSH1 0x2 ADD SWAP1 DUP2 PUSH2 0xF8D SWAP2 SWAP1 PUSH2 0x1BD5 JUMP JUMPDEST POP DUP4 DUP2 PUSH1 0x3 ADD SWAP1 DUP2 PUSH2 0xF9F SWAP2 SWAP1 PUSH2 0x1BD5 JUMP JUMPDEST POP DUP3 DUP2 PUSH1 0x4 ADD SWAP1 DUP2 PUSH2 0xFB1 SWAP2 SWAP1 PUSH2 0x1BD5 JUMP JUMPDEST POP DUP2 DUP2 PUSH1 0x5 ADD SWAP1 DUP2 PUSH2 0xFC3 SWAP2 SWAP1 PUSH2 0x1BD5 JUMP JUMPDEST POP PUSH1 0x0 DUP2 PUSH1 0x6 ADD DUP2 SWAP1 SSTORE POP PUSH1 0x0 DUP2 PUSH1 0x7 ADD PUSH1 0x0 PUSH2 0x100 EXP DUP2 SLOAD DUP2 PUSH1 0xFF MUL NOT AND SWAP1 DUP4 ISZERO ISZERO MUL OR SWAP1 SSTORE POP CALLER DUP2 PUSH1 0x9 ADD PUSH1 0x0 PUSH2 0x100 EXP DUP2 SLOAD DUP2 PUSH20 0xFFFFFFFFFFFFFFFFFFFFFFFFFFFFFFFFFFFFFFFF MUL NOT AND SWAP1 DUP4 PUSH20 0xFFFFFFFFFFFFFFFFFFFFFFFFFFFFFFFFFFFFFFFF AND MUL OR SWAP1 SSTORE POP PUSH1 0x6 PUSH1 0x0 CALLER PUSH20 0xFFFFFFFFFFFFFFFFFFFFFFFFFFFFFFFFFFFFFFFF AND PUSH20 0xFFFFFFFFFFFFFFFFFFFFFFFFFFFFFFFFFFFFFFFF AND DUP2 MSTORE PUSH1 0x20 ADD SWAP1 DUP2 MSTORE PUSH1 0x20 ADD PUSH1 0x0 KECCAK256 PUSH1 0x1 ADD DUP2 PUSH1 0x8 ADD SWAP1 DUP2 PUSH2 0x1080 SWAP2 SWAP1 PUSH2 0x1D78 JUMP JUMPDEST POP PUSH1 0x0 PUSH1 0x40 MLOAD DUP1 PUSH2 0x140 ADD PUSH1 0x40 MSTORE DUP1 DUP10 PUSH20 0xFFFFFFFFFFFFFFFFFFFFFFFFFFFFFFFFFFFFFFFF AND DUP2 MSTORE PUSH1 0x20 ADD DUP9 DUP2 MSTORE PUSH1 0x20 ADD DUP8 DUP2 MSTORE PUSH1 0x20 ADD DUP7 DUP2 MSTORE PUSH1 0x20 ADD DUP6 DUP2 MSTORE PUSH1 0x20 ADD DUP5 DUP2 MSTORE PUSH1 0x20 ADD PUSH1 0x0 DUP2 MSTORE PUSH1 0x20 ADD PUSH1 0x0 ISZERO ISZERO DUP2 MSTORE PUSH1 0x20 ADD PUSH1 0x6 PUSH1 0x0 CALLER PUSH20 0xFFFFFFFFFFFFFFFFFFFFFFFFFFFFFFFFFFFFFFFF AND PUSH20 0xFFFFFFFFFFFFFFFFFFFFFFFFFFFFFFFFFFFFFFFF AND DUP2 MSTORE PUSH1 0x20 ADD SWAP1 DUP2 MSTORE PUSH1 0x20 ADD PUSH1 0x0 KECCAK256 PUSH1 0x1 ADD DUP1 SLOAD PUSH2 0x1126 SWAP1 PUSH2 0x19F8 JUMP JUMPDEST DUP1 PUSH1 0x1F ADD PUSH1 0x20 DUP1 SWAP2 DIV MUL PUSH1 0x20 ADD PUSH1 0x40 MLOAD SWAP1 DUP2 ADD PUSH1 0x40 MSTORE DUP1 SWAP3 SWAP2 SWAP1 DUP2 DUP2 MSTORE PUSH1 0x20 ADD DUP3 DUP1 SLOAD PUSH2 0x1152 SWAP1 PUSH2 0x19F8 JUMP JUMPDEST DUP1 ISZERO PUSH2 0x119F JUMPI DUP1 PUSH1 0x1F LT PUSH2 0x1174 JUMPI PUSH2 0x100 DUP1 DUP4 SLOAD DIV MUL DUP4 MSTORE SWAP2 PUSH1 0x20 ADD SWAP2 PUSH2 0x119F JUMP JUMPDEST DUP3 ADD SWAP2 SWAP1 PUSH1 0x0 MSTORE PUSH1 0x20 PUSH1 0x0 KECCAK256 SWAP1 JUMPDEST DUP2 SLOAD DUP2 MSTORE SWAP1 PUSH1 0x1 ADD SWAP1 PUSH1 0x20 ADD DUP1 DUP4 GT PUSH2 0x1182 JUMPI DUP3 SWAP1 SUB PUSH1 0x1F AND DUP3 ADD SWAP2 JUMPDEST POP POP POP POP POP DUP2 MSTORE PUSH1 0x20 ADD CALLER PUSH20 0xFFFFFFFFFFFFFFFFFFFFFFFFFFFFFFFFFFFFFFFF AND DUP2 MSTORE POP SWAP1 DUP1 PUSH1 0x1 DUP2 SLOAD ADD DUP1 DUP3 SSTORE DUP1 SWAP2 POP POP PUSH1 0x1 SWAP1 SUB SWAP1 PUSH1 0x0 MSTORE PUSH1 0x20 PUSH1 0x0 KECCAK256 SWAP1 PUSH1 0xA MUL ADD PUSH1 0x0 SWAP1 SWAP2 SWAP1 SWAP2 SWAP1 SWAP2 POP PUSH1 0x0 DUP3 ADD MLOAD DUP2 PUSH1 0x0 ADD PUSH1 0x0 PUSH2 0x100 EXP DUP2 SLOAD DUP2 PUSH20 0xFFFFFFFFFFFFFFFFFFFFFFFFFFFFFFFFFFFFFFFF MUL NOT AND SWAP1 DUP4 PUSH20 0xFFFFFFFFFFFFFFFFFFFFFFFFFFFFFFFFFFFFFFFF AND MUL OR SWAP1 SSTORE POP PUSH1 0x20 DUP3 ADD MLOAD DUP2 PUSH1 0x1 ADD SWAP1 DUP2 PUSH2 0x1248 SWAP2 SWAP1 PUSH2 0x1BD5 JUMP JUMPDEST POP PUSH1 0x40 DUP3 ADD MLOAD DUP2 PUSH1 0x2 ADD SWAP1 DUP2 PUSH2 0x125E SWAP2 SWAP1 PUSH2 0x1BD5 JUMP JUMPDEST POP PUSH1 0x60 DUP3 ADD MLOAD DUP2 PUSH1 0x3 ADD SWAP1 DUP2 PUSH2 0x1274 SWAP2 SWAP1 PUSH2 0x1BD5 JUMP JUMPDEST POP PUSH1 0x80 DUP3 ADD MLOAD DUP2 PUSH1 0x4 ADD SWAP1 DUP2 PUSH2 0x128A SWAP2 SWAP1 PUSH2 0x1BD5 JUMP JUMPDEST POP PUSH1 0xA0 DUP3 ADD MLOAD DUP2 PUSH1 0x5 ADD SWAP1 DUP2 PUSH2 0x12A0 SWAP2 SWAP1 PUSH2 0x1BD5 JUMP JUMPDEST POP PUSH1 0xC0 DUP3 ADD MLOAD DUP2 PUSH1 0x6 ADD SSTORE PUSH1 0xE0 DUP3 ADD MLOAD DUP2 PUSH1 0x7 ADD PUSH1 0x0 PUSH2 0x100 EXP DUP2 SLOAD DUP2 PUSH1 0xFF MUL NOT AND SWAP1 DUP4 ISZERO ISZERO MUL OR SWAP1 SSTORE POP PUSH2 0x100 DUP3 ADD MLOAD DUP2 PUSH1 0x8 ADD SWAP1 DUP2 PUSH2 0x12E1 SWAP2 SWAP1 PUSH2 0x1BD5 JUMP JUMPDEST POP PUSH2 0x120 DUP3 ADD MLOAD DUP2 PUSH1 0x9 ADD PUSH1 0x0 PUSH2 0x100 EXP DUP2 SLOAD DUP2 PUSH20 0xFFFFFFFFFFFFFFFFFFFFFFFFFFFFFFFFFFFFFFFF MUL NOT AND SWAP1 DUP4 PUSH20 0xFFFFFFFFFFFFFFFFFFFFFFFFFFFFFFFFFFFFFFFF AND MUL OR SWAP1 SSTORE POP POP POP POP POP POP POP POP POP POP JUMP JUMPDEST PUSH1 0x0 PUSH1 0x40 MLOAD SWAP1 POP SWAP1 JUMP JUMPDEST PUSH1 0x0 DUP1 REVERT JUMPDEST PUSH1 0x0 DUP1 REVERT JUMPDEST PUSH1 0x0 PUSH20 0xFFFFFFFFFFFFFFFFFFFFFFFFFFFFFFFFFFFFFFFF DUP3 AND SWAP1 POP SWAP2 SWAP1 POP JUMP JUMPDEST PUSH1 0x0 PUSH2 0x1374 DUP3 PUSH2 0x1349 JUMP JUMPDEST SWAP1 POP SWAP2 SWAP1 POP JUMP JUMPDEST PUSH2 0x1384 DUP2 PUSH2 0x1369 JUMP JUMPDEST DUP2 EQ PUSH2 0x138F JUMPI PUSH1 0x0 DUP1 REVERT JUMPDEST POP JUMP JUMPDEST PUSH1 0x0 DUP2 CALLDATALOAD SWAP1 POP PUSH2 0x13A1 DUP2 PUSH2 0x137B JUMP JUMPDEST SWAP3 SWAP2 POP POP JUMP JUMPDEST PUSH1 0x0 DUP1 REVERT JUMPDEST PUSH1 0x0 DUP1 REVERT JUMPDEST PUSH1 0x0 PUSH1 0x1F NOT PUSH1 0x1F DUP4 ADD AND SWAP1 POP SWAP2 SWAP1 POP JUMP JUMPDEST PUSH32 0x4E487B7100000000000000000000000000000000000000000000000000000000 PUSH1 0x0 MSTORE PUSH1 0x41 PUSH1 0x4 MSTORE PUSH1 0x24 PUSH1 0x0 REVERT JUMPDEST PUSH2 0x13FA DUP3 PUSH2 0x13B1 JUMP JUMPDEST DUP2 ADD DUP2 DUP2 LT PUSH8 0xFFFFFFFFFFFFFFFF DUP3 GT OR ISZERO PUSH2 0x1419 JUMPI PUSH2 0x1418 PUSH2 0x13C2 JUMP JUMPDEST JUMPDEST DUP1 PUSH1 0x40 MSTORE POP POP POP JUMP JUMPDEST PUSH1 0x0 PUSH2 0x142C PUSH2 0x1335 JUMP JUMPDEST SWAP1 POP PUSH2 0x1438 DUP3 DUP3 PUSH2 0x13F1 JUMP JUMPDEST SWAP2 SWAP1 POP JUMP JUMPDEST PUSH1 0x0 PUSH8 0xFFFFFFFFFFFFFFFF DUP3 GT ISZERO PUSH2 0x1458 JUMPI PUSH2 0x1457 PUSH2 0x13C2 JUMP JUMPDEST JUMPDEST PUSH2 0x1461 DUP3 PUSH2 0x13B1 JUMP JUMPDEST SWAP1 POP PUSH1 0x20 DUP2 ADD SWAP1 POP SWAP2 SWAP1 POP JUMP JUMPDEST DUP3 DUP2 DUP4 CALLDATACOPY PUSH1 0x0 DUP4 DUP4 ADD MSTORE POP POP POP JUMP JUMPDEST PUSH1 0x0 PUSH2 0x1490 PUSH2 0x148B DUP5 PUSH2 0x143D JUMP JUMPDEST PUSH2 0x1422 JUMP JUMPDEST SWAP1 POP DUP3 DUP2 MSTORE PUSH1 0x20 DUP2 ADD DUP5 DUP5 DUP5 ADD GT ISZERO PUSH2 0x14AC JUMPI PUSH2 0x14AB PUSH2 0x13AC JUMP JUMPDEST JUMPDEST PUSH2 0x14B7 DUP5 DUP3 DUP6 PUSH2 0x146E JUMP JUMPDEST POP SWAP4 SWAP3 POP POP POP JUMP JUMPDEST PUSH1 0x0 DUP3 PUSH1 0x1F DUP4 ADD SLT PUSH2 0x14D4 JUMPI PUSH2 0x14D3 PUSH2 0x13A7 JUMP JUMPDEST JUMPDEST DUP2 CALLDATALOAD PUSH2 0x14E4 DUP5 DUP3 PUSH1 0x20 DUP7 ADD PUSH2 0x147D JUMP JUMPDEST SWAP2 POP POP SWAP3 SWAP2 POP POP JUMP JUMPDEST PUSH1 0x0 DUP1 PUSH1 0x0 DUP1 PUSH1 0x80 DUP6 DUP8 SUB SLT ISZERO PUSH2 0x1507 JUMPI PUSH2 0x1506 PUSH2 0x133F JUMP JUMPDEST JUMPDEST PUSH1 0x0 PUSH2 0x1515 DUP8 DUP3 DUP9 ADD PUSH2 0x1392 JUMP JUMPDEST SWAP5 POP POP PUSH1 0x20 DUP6 ADD CALLDATALOAD PUSH8 0xFFFFFFFFFFFFFFFF DUP2 GT ISZERO PUSH2 0x1536 JUMPI PUSH2 0x1535 PUSH2 0x1344 JUMP JUMPDEST JUMPDEST PUSH2 0x1542 DUP8 DUP3 DUP9 ADD PUSH2 0x14BF JUMP JUMPDEST SWAP4 POP POP PUSH1 0x40 DUP6 ADD CALLDATALOAD PUSH8 0xFFFFFFFFFFFFFFFF DUP2 GT ISZERO PUSH2 0x1563 JUMPI PUSH2 0x1562 PUSH2 0x1344 JUMP JUMPDEST JUMPDEST PUSH2 0x156F DUP8 DUP3 DUP9 ADD PUSH2 0x14BF JUMP JUMPDEST SWAP3 POP POP PUSH1 0x60 DUP6 ADD CALLDATALOAD PUSH8 0xFFFFFFFFFFFFFFFF DUP2 GT ISZERO PUSH2 0x1590 JUMPI PUSH2 0x158F PUSH2 0x1344 JUMP JUMPDEST JUMPDEST PUSH2 0x159C DUP8 DUP3 DUP9 ADD PUSH2 0x14BF JUMP JUMPDEST SWAP2 POP POP SWAP3 SWAP6 SWAP2 SWAP5 POP SWAP3 POP JUMP JUMPDEST PUSH1 0x0 PUSH1 0x20 DUP3 DUP5 SUB SLT ISZERO PUSH2 0x15BE JUMPI PUSH2 0x15BD PUSH2 0x133F JUMP JUMPDEST JUMPDEST PUSH1 0x0 PUSH2 0x15CC DUP5 DUP3 DUP6 ADD PUSH2 0x1392 JUMP JUMPDEST SWAP2 POP POP SWAP3 SWAP2 POP POP JUMP JUMPDEST PUSH1 0x0 DUP2 SWAP1 POP SWAP2 SWAP1 POP JUMP JUMPDEST PUSH2 0x15E8 DUP2 PUSH2 0x15D5 JUMP JUMPDEST DUP2 EQ PUSH2 0x15F3 JUMPI PUSH1 0x0 DUP1 REVERT JUMPDEST POP JUMP JUMPDEST PUSH1 0x0 DUP2 CALLDATALOAD SWAP1 POP PUSH2 0x1605 DUP2 PUSH2 0x15DF JUMP JUMPDEST SWAP3 SWAP2 POP POP JUMP JUMPDEST PUSH1 0x0 PUSH1 0x20 DUP3 DUP5 SUB SLT ISZERO PUSH2 0x1621 JUMPI PUSH2 0x1620 PUSH2 0x133F JUMP JUMPDEST JUMPDEST PUSH1 0x0 PUSH2 0x162F DUP5 DUP3 DUP6 ADD PUSH2 0x15F6 JUMP JUMPDEST SWAP2 POP POP SWAP3 SWAP2 POP POP JUMP JUMPDEST PUSH2 0x1641 DUP2 PUSH2 0x1369 JUMP JUMPDEST DUP3 MSTORE POP POP JUMP JUMPDEST PUSH1 0x0 DUP2 MLOAD SWAP1 POP SWAP2 SWAP1 POP JUMP JUMPDEST PUSH1 0x0 DUP3 DUP3 MSTORE PUSH1 0x20 DUP3 ADD SWAP1 POP SWAP3 SWAP2 POP POP JUMP JUMPDEST PUSH1 0x0 JUMPDEST DUP4 DUP2 LT ISZERO PUSH2 0x1681 JUMPI DUP1 DUP3 ADD MLOAD DUP2 DUP5 ADD MSTORE PUSH1 0x20 DUP2 ADD SWAP1 POP PUSH2 0x1666 JUMP JUMPDEST PUSH1 0x0 DUP5 DUP5 ADD MSTORE POP POP POP POP JUMP JUMPDEST PUSH1 0x0 PUSH2 0x1698 DUP3 PUSH2 0x1647 JUMP JUMPDEST PUSH2 0x16A2 DUP2 DUP6 PUSH2 0x1652 JUMP JUMPDEST SWAP4 POP PUSH2 0x16B2 DUP2 DUP6 PUSH1 0x20 DUP7 ADD PUSH2 0x1663 JUMP JUMPDEST PUSH2 0x16BB DUP2 PUSH2 0x13B1 JUMP JUMPDEST DUP5 ADD SWAP2 POP POP SWAP3 SWAP2 POP POP JUMP JUMPDEST PUSH1 0x0 DUP2 ISZERO ISZERO SWAP1 POP SWAP2 SWAP1 POP JUMP JUMPDEST PUSH2 0x16DB DUP2 PUSH2 0x16C6 JUMP JUMPDEST DUP3 MSTORE POP POP JUMP JUMPDEST PUSH1 0x0 PUSH1 0xA0 DUP3 ADD SWAP1 POP PUSH2 0x16F6 PUSH1 0x0 DUP4 ADD DUP9 PUSH2 0x1638 JUMP JUMPDEST DUP2 DUP2 SUB PUSH1 0x20 DUP4 ADD MSTORE PUSH2 0x1708 DUP2 DUP8 PUSH2 0x168D JUMP JUMPDEST SWAP1 POP DUP2 DUP2 SUB PUSH1 0x40 DUP4 ADD MSTORE PUSH2 0x171C DUP2 DUP7 PUSH2 0x168D JUMP JUMPDEST SWAP1 POP DUP2 DUP2 SUB PUSH1 0x60 DUP4 ADD MSTORE PUSH2 0x1730 DUP2 DUP6 PUSH2 0x168D JUMP JUMPDEST SWAP1 POP PUSH2 0x173F PUSH1 0x80 DUP4 ADD DUP5 PUSH2 0x16D2 JUMP JUMPDEST SWAP7 SWAP6 POP POP POP POP POP POP JUMP JUMPDEST PUSH2 0x1752 DUP2 PUSH2 0x15D5 JUMP JUMPDEST DUP3 MSTORE POP POP JUMP JUMPDEST PUSH1 0x0 PUSH2 0x140 DUP3 ADD SWAP1 POP PUSH2 0x176E PUSH1 0x0 DUP4 ADD DUP14 PUSH2 0x1638 JUMP JUMPDEST DUP2 DUP2 SUB PUSH1 0x20 DUP4 ADD MSTORE PUSH2 0x1780 DUP2 DUP13 PUSH2 0x168D JUMP JUMPDEST SWAP1 POP DUP2 DUP2 SUB PUSH1 0x40 DUP4 ADD MSTORE PUSH2 0x1794 DUP2 DUP12 PUSH2 0x168D JUMP JUMPDEST SWAP1 POP DUP2 DUP2 SUB PUSH1 0x60 DUP4 ADD MSTORE PUSH2 0x17A8 DUP2 DUP11 PUSH2 0x168D JUMP JUMPDEST SWAP1 POP DUP2 DUP2 SUB PUSH1 0x80 DUP4 ADD MSTORE PUSH2 0x17BC DUP2 DUP10 PUSH2 0x168D JUMP JUMPDEST SWAP1 POP DUP2 DUP2 SUB PUSH1 0xA0 DUP4 ADD MSTORE PUSH2 0x17D0 DUP2 DUP9 PUSH2 0x168D JUMP JUMPDEST SWAP1 POP PUSH2 0x17DF PUSH1 0xC0 DUP4 ADD DUP8 PUSH2 0x1749 JUMP JUMPDEST PUSH2 0x17EC PUSH1 0xE0 DUP4 ADD DUP7 PUSH2 0x16D2 JUMP JUMPDEST DUP2 DUP2 SUB PUSH2 0x100 DUP4 ADD MSTORE PUSH2 0x17FF DUP2 DUP6 PUSH2 0x168D JUMP JUMPDEST SWAP1 POP PUSH2 0x180F PUSH2 0x120 DUP4 ADD DUP5 PUSH2 0x1638 JUMP JUMPDEST SWAP12 SWAP11 POP POP POP POP POP POP POP POP POP POP POP JUMP JUMPDEST PUSH1 0x0 DUP1 PUSH1 0x0 DUP1 PUSH1 0x0 DUP1 PUSH1 0xC0 DUP8 DUP10 SUB SLT ISZERO PUSH2 0x183B JUMPI PUSH2 0x183A PUSH2 0x133F JUMP JUMPDEST JUMPDEST PUSH1 0x0 PUSH2 0x1849 DUP10 DUP3 DUP11 ADD PUSH2 0x1392 JUMP JUMPDEST SWAP7 POP POP PUSH1 0x20 DUP8 ADD CALLDATALOAD PUSH8 0xFFFFFFFFFFFFFFFF DUP2 GT ISZERO PUSH2 0x186A JUMPI PUSH2 0x1869 PUSH2 0x1344 JUMP JUMPDEST JUMPDEST PUSH2 0x1876 DUP10 DUP3 DUP11 ADD PUSH2 0x14BF JUMP JUMPDEST SWAP6 POP POP PUSH1 0x40 DUP8 ADD CALLDATALOAD PUSH8 0xFFFFFFFFFFFFFFFF DUP2 GT ISZERO PUSH2 0x1897 JUMPI PUSH2 0x1896 PUSH2 0x1344 JUMP JUMPDEST JUMPDEST PUSH2 0x18A3 DUP10 DUP3 DUP11 ADD PUSH2 0x14BF JUMP JUMPDEST SWAP5 POP POP PUSH1 0x60 DUP8 ADD CALLDATALOAD PUSH8 0xFFFFFFFFFFFFFFFF DUP2 GT ISZERO PUSH2 0x18C4 JUMPI PUSH2 0x18C3 PUSH2 0x1344 JUMP JUMPDEST JUMPDEST PUSH2 0x18D0 DUP10 DUP3 DUP11 ADD PUSH2 0x14BF JUMP JUMPDEST SWAP4 POP POP PUSH1 0x80 DUP8 ADD CALLDATALOAD PUSH8 0xFFFFFFFFFFFFFFFF DUP2 GT ISZERO PUSH2 0x18F1 JUMPI PUSH2 0x18F0 PUSH2 0x1344 JUMP JUMPDEST JUMPDEST PUSH2 0x18FD DUP10 DUP3 DUP11 ADD PUSH2 0x14BF JUMP JUMPDEST SWAP3 POP POP PUSH1 0xA0 DUP8 ADD CALLDATALOAD PUSH8 0xFFFFFFFFFFFFFFFF DUP2 GT ISZERO PUSH2 0x191E JUMPI PUSH2 0x191D PUSH2 0x1344 JUMP JUMPDEST JUMPDEST PUSH2 0x192A DUP10 DUP3 DUP11 ADD PUSH2 0x14BF JUMP JUMPDEST SWAP2 POP POP SWAP3 SWAP6 POP SWAP3 SWAP6 POP SWAP3 SWAP6 JUMP JUMPDEST PUSH32 0x4F6E6C7920617574686F72697A656420697373756572732063616E2063616C6C PUSH1 0x0 DUP3 ADD MSTORE PUSH32 0x20746869732066756E6374696F6E000000000000000000000000000000000000 PUSH1 0x20 DUP3 ADD MSTORE POP JUMP JUMPDEST PUSH1 0x0 PUSH2 0x1993 PUSH1 0x2E DUP4 PUSH2 0x1652 JUMP JUMPDEST SWAP2 POP PUSH2 0x199E DUP3 PUSH2 0x1937 JUMP JUMPDEST PUSH1 0x40 DUP3 ADD SWAP1 POP SWAP2 SWAP1 POP JUMP JUMPDEST PUSH1 0x0 PUSH1 0x20 DUP3 ADD SWAP1 POP DUP2 DUP2 SUB PUSH1 0x0 DUP4 ADD MSTORE PUSH2 0x19C2 DUP2 PUSH2 0x1986 JUMP JUMPDEST SWAP1 POP SWAP2 SWAP1 POP JUMP JUMPDEST PUSH32 0x4E487B7100000000000000000000000000000000000000000000000000000000 PUSH1 0x0 MSTORE PUSH1 0x22 PUSH1 0x4 MSTORE PUSH1 0x24 PUSH1 0x0 REVERT JUMPDEST PUSH1 0x0 PUSH1 0x2 DUP3 DIV SWAP1 POP PUSH1 0x1 DUP3 AND DUP1 PUSH2 0x1A10 JUMPI PUSH1 0x7F DUP3 AND SWAP2 POP JUMPDEST PUSH1 0x20 DUP3 LT DUP2 SUB PUSH2 0x1A23 JUMPI PUSH2 0x1A22 PUSH2 0x19C9 JUMP JUMPDEST JUMPDEST POP SWAP2 SWAP1 POP JUMP JUMPDEST PUSH1 0x0 DUP2 SWAP1 POP DUP2 PUSH1 0x0 MSTORE PUSH1 0x20 PUSH1 0x0 KECCAK256 SWAP1 POP SWAP2 SWAP1 POP JUMP JUMPDEST PUSH1 0x0 PUSH1 0x20 PUSH1 0x1F DUP4 ADD DIV SWAP1 POP SWAP2 SWAP1 POP JUMP JUMPDEST PUSH1 0x0 DUP3 DUP3 SHL SWAP1 POP SWAP3 SWAP2 POP POP JUMP JUMPDEST PUSH1 0x0 PUSH1 0x8 DUP4 MUL PUSH2 0x1A8B PUSH32 0xFFFFFFFFFFFFFFFFFFFFFFFFFFFFFFFFFFFFFFFFFFFFFFFFFFFFFFFFFFFFFFFF DUP3 PUSH2 0x1A4E JUMP JUMPDEST PUSH2 0x1A95 DUP7 DUP4 PUSH2 0x1A4E JUMP JUMPDEST SWAP6 POP DUP1 NOT DUP5 AND SWAP4 POP DUP1 DUP7 AND DUP5 OR SWAP3 POP POP POP SWAP4 SWAP3 POP POP POP JUMP JUMPDEST PUSH1 0x0 DUP2 SWAP1 POP SWAP2 SWAP1 POP JUMP JUMPDEST PUSH1 0x0 PUSH2 0x1AD2 PUSH2 0x1ACD PUSH2 0x1AC8 DUP5 PUSH2 0x15D5 JUMP JUMPDEST PUSH2 0x1AAD JUMP JUMPDEST PUSH2 0x15D5 JUMP JUMPDEST SWAP1 POP SWAP2 SWAP1 POP JUMP JUMPDEST PUSH1 0x0 DUP2 SWAP1 POP SWAP2 SWAP1 POP JUMP JUMPDEST PUSH2 0x1AEC DUP4 PUSH2 0x1AB7 JUMP JUMPDEST PUSH2 0x1B00 PUSH2 0x1AF8 DUP3 PUSH2 0x1AD9 JUMP JUMPDEST DUP5 DUP5 SLOAD PUSH2 0x1A5B JUMP JUMPDEST DUP3 SSTORE POP POP POP POP JUMP JUMPDEST PUSH1 0x0 SWAP1 JUMP JUMPDEST PUSH2 0x1B15 PUSH2 0x1B08 JUMP JUMPDEST PUSH2 0x1B20 DUP2 DUP5 DUP5 PUSH2 0x1AE3 JUMP JUMPDEST POP POP POP JUMP JUMPDEST JUMPDEST DUP2 DUP2 LT ISZERO PUSH2 0x1B44 JUMPI PUSH2 0x1B39 PUSH1 0x0 DUP3 PUSH2 0x1B0D JUMP JUMPDEST PUSH1 0x1 DUP2 ADD SWAP1 POP PUSH2 0x1B26 JUMP JUMPDEST POP POP JUMP JUMPDEST PUSH1 0x1F DUP3 GT ISZERO PUSH2 0x1B89 JUMPI PUSH2 0x1B5A DUP2 PUSH2 0x1A29 JUMP JUMPDEST PUSH2 0x1B63 DUP5 PUSH2 0x1A3E JUMP JUMPDEST DUP2 ADD PUSH1 0x20 DUP6 LT ISZERO PUSH2 0x1B72 JUMPI DUP2 SWAP1 POP JUMPDEST PUSH2 0x1B86 PUSH2 0x1B7E DUP6 PUSH2 0x1A3E JUMP JUMPDEST DUP4 ADD DUP3 PUSH2 0x1B25 JUMP JUMPDEST POP POP JUMPDEST POP POP POP JUMP JUMPDEST PUSH1 0x0 DUP3 DUP3 SHR SWAP1 POP SWAP3 SWAP2 POP POP JUMP JUMPDEST PUSH1 0x0 PUSH2 0x1BAC PUSH1 0x0 NOT DUP5 PUSH1 0x8 MUL PUSH2 0x1B8E JUMP JUMPDEST NOT DUP1 DUP4 AND SWAP2 POP POP SWAP3 SWAP2 POP POP JUMP JUMPDEST PUSH1 0x0 PUSH2 0x1BC5 DUP4 DUP4 PUSH2 0x1B9B JUMP JUMPDEST SWAP2 POP DUP3 PUSH1 0x2 MUL DUP3 OR SWAP1 POP SWAP3 SWAP2 POP POP JUMP JUMPDEST PUSH2 0x1BDE DUP3 PUSH2 0x1647 JUMP JUMPDEST PUSH8 0xFFFFFFFFFFFFFFFF DUP2 GT ISZERO PUSH2 0x1BF7 JUMPI PUSH2 0x1BF6 PUSH2 0x13C2 JUMP JUMPDEST JUMPDEST PUSH2 0x1C01 DUP3 SLOAD PUSH2 0x19F8 JUMP JUMPDEST PUSH2 0x1C0C DUP3 DUP3 DUP6 PUSH2 0x1B48 JUMP JUMPDEST PUSH1 0x0 PUSH1 0x20 SWAP1 POP PUSH1 0x1F DUP4 GT PUSH1 0x1 DUP2 EQ PUSH2 0x1C3F JUMPI PUSH1 0x0 DUP5 ISZERO PUSH2 0x1C2D JUMPI DUP3 DUP8 ADD MLOAD SWAP1 POP JUMPDEST PUSH2 0x1C37 DUP6 DUP3 PUSH2 0x1BB9 JUMP JUMPDEST DUP7 SSTORE POP PUSH2 0x1C9F JUMP JUMPDEST PUSH1 0x1F NOT DUP5 AND PUSH2 0x1C4D DUP7 PUSH2 0x1A29 JUMP JUMPDEST PUSH1 0x0 JUMPDEST DUP3 DUP2 LT ISZERO PUSH2 0x1C75 JUMPI DUP5 DUP10 ADD MLOAD DUP3 SSTORE PUSH1 0x1 DUP3 ADD SWAP2 POP PUSH1 0x20 DUP6 ADD SWAP5 POP PUSH1 0x20 DUP2 ADD SWAP1 POP PUSH2 0x1C50 JUMP JUMPDEST DUP7 DUP4 LT ISZERO PUSH2 0x1C92 JUMPI DUP5 DUP10 ADD MLOAD PUSH2 0x1C8E PUSH1 0x1F DUP10 AND DUP3 PUSH2 0x1B9B JUMP JUMPDEST DUP4 SSTORE POP JUMPDEST PUSH1 0x1 PUSH1 0x2 DUP9 MUL ADD DUP9 SSTORE POP POP POP JUMPDEST POP POP POP POP POP POP JUMP JUMPDEST PUSH32 0x4E487B7100000000000000000000000000000000000000000000000000000000 PUSH1 0x0 MSTORE PUSH1 0x32 PUSH1 0x4 MSTORE PUSH1 0x24 PUSH1 0x0 REVERT JUMPDEST PUSH32 0x4E487B7100000000000000000000000000000000000000000000000000000000 PUSH1 0x0 MSTORE PUSH1 0x11 PUSH1 0x4 MSTORE PUSH1 0x24 PUSH1 0x0 REVERT JUMPDEST PUSH1 0x0 PUSH2 0x1D10 DUP3 PUSH2 0x15D5 JUMP JUMPDEST SWAP2 POP PUSH32 0xFFFFFFFFFFFFFFFFFFFFFFFFFFFFFFFFFFFFFFFFFFFFFFFFFFFFFFFFFFFFFFFF DUP3 SUB PUSH2 0x1D42 JUMPI PUSH2 0x1D41 PUSH2 0x1CD6 JUMP JUMPDEST JUMPDEST PUSH1 0x1 DUP3 ADD SWAP1 POP SWAP2 SWAP1 POP JUMP JUMPDEST PUSH1 0x0 DUP2 SLOAD SWAP1 POP PUSH2 0x1D5C DUP2 PUSH2 0x19F8 JUMP JUMPDEST SWAP1 POP SWAP2 SWAP1 POP JUMP JUMPDEST PUSH1 0x0 DUP2 SWAP1 POP DUP2 PUSH1 0x0 MSTORE PUSH1 0x20 PUSH1 0x0 KECCAK256 SWAP1 POP SWAP2 SWAP1 POP JUMP JUMPDEST DUP2 DUP2 SUB PUSH2 0x1D86 JUMPI POP POP PUSH2 0x1E5E JUMP JUMPDEST PUSH2 0x1D8F DUP3 PUSH2 0x1D4D JUMP JUMPDEST PUSH8 0xFFFFFFFFFFFFFFFF DUP2 GT ISZERO PUSH2 0x1DA8 JUMPI PUSH2 0x1DA7 PUSH2 0x13C2 JUMP JUMPDEST JUMPDEST PUSH2 0x1DB2 DUP3 SLOAD PUSH2 0x19F8 JUMP JUMPDEST PUSH2 0x1DBD DUP3 DUP3 DUP6 PUSH2 0x1B48 JUMP JUMPDEST PUSH1 0x0 PUSH1 0x1F DUP4 GT PUSH1 0x1 DUP2 EQ PUSH2 0x1DEC JUMPI PUSH1 0x0 DUP5 ISZERO PUSH2 0x1DDA JUMPI DUP3 DUP8 ADD SLOAD SWAP1 POP JUMPDEST PUSH2 0x1DE4 DUP6 DUP3 PUSH2 0x1BB9 JUMP JUMPDEST DUP7 SSTORE POP PUSH2 0x1E57 JUMP JUMPDEST PUSH1 0x1F NOT DUP5 AND PUSH2 0x1DFA DUP8 PUSH2 0x1D63 JUMP JUMPDEST SWAP7 POP PUSH2 0x1E05 DUP7 PUSH2 0x1A29 JUMP JUMPDEST PUSH1 0x0 JUMPDEST DUP3 DUP2 LT ISZERO PUSH2 0x1E2D JUMPI DUP5 DUP10 ADD SLOAD DUP3 SSTORE PUSH1 0x1 DUP3 ADD SWAP2 POP PUSH1 0x1 DUP6 ADD SWAP5 POP PUSH1 0x20 DUP2 ADD SWAP1 POP PUSH2 0x1E08 JUMP JUMPDEST DUP7 DUP4 LT ISZERO PUSH2 0x1E4A JUMPI DUP5 DUP10 ADD SLOAD PUSH2 0x1E46 PUSH1 0x1F DUP10 AND DUP3 PUSH2 0x1B9B JUMP JUMPDEST DUP4 SSTORE POP JUMPDEST PUSH1 0x1 PUSH1 0x2 DUP9 MUL ADD DUP9 SSTORE POP POP POP JUMPDEST POP POP POP POP POP POP JUMPDEST JUMP INVALID LOG2 PUSH5 0x6970667358 0x22 SLT KECCAK256 DIV SELFDESTRUCT SWAP12 0xC9 SWAP8 0xD 0x29 0x2B SHL 0xA5 BASEFEE ADDMOD 0xDD 0xCA PUSH30 0x5622ED18B3CE0218773B1A91D6503CAD5464736F6C634300081200330000 "
				},
				"gasEstimates": {
					"creation": {
						"codeDepositCost": "1566000",
						"executionCost": "25994",
						"totalCost": "1591994"
					},
					"external": {
						"_StudentCertificate(uint256)": "infinite",
						"_allAdmin(uint256)": "infinite",
						"addAdmin(address,string,string,string)": "infinite",
						"issueCertificate(address,string,string,string,string,string)": "infinite",
						"removeAdmin(address)": "infinite",
						"revokeCertificate(address)": "infinite"
					}
				},
				"methodIdentifiers": {
					"_StudentCertificate(uint256)": "abafef87",
					"_allAdmin(uint256)": "70f9ff87",
					"addAdmin(address,string,string,string)": "03825d6c",
					"issueCertificate(address,string,string,string,string,string)": "de8c98fd",
					"removeAdmin(address)": "1785f53c",
					"revokeCertificate(address)": "5f893bfa"
				}
			},
			"storageLayout": {
				"storage": [
					{
						"astId": 37,
						"contract": "contracts/setAccessTime.sol:Certificate",
						"label": "_StudentCertificate",
						"offset": 0,
						"slot": "0",
						"type": "t_array(t_struct(Student)22_storage)dyn_storage"
					},
					{
						"astId": 41,
						"contract": "contracts/setAccessTime.sol:Certificate",
						"label": "_allAdmin",
						"offset": 0,
						"slot": "1",
						"type": "t_array(t_struct(Admin)33_storage)dyn_storage"
					},
					{
						"astId": 45,
						"contract": "contracts/setAccessTime.sol:Certificate",
						"label": "authorizedIssuers",
						"offset": 0,
						"slot": "2",
						"type": "t_mapping(t_address,t_bool)"
					},
					{
						"astId": 49,
						"contract": "contracts/setAccessTime.sol:Certificate",
						"label": "authorizedViewers",
						"offset": 0,
						"slot": "3",
						"type": "t_mapping(t_address,t_bool)"
					},
					{
						"astId": 53,
						"contract": "contracts/setAccessTime.sol:Certificate",
						"label": "authorizedStudent",
						"offset": 0,
						"slot": "4",
						"type": "t_mapping(t_address,t_bool)"
					},
					{
						"astId": 58,
						"contract": "contracts/setAccessTime.sol:Certificate",
						"label": "students",
						"offset": 0,
						"slot": "5",
						"type": "t_mapping(t_address,t_struct(Student)22_storage)"
					},
					{
						"astId": 63,
						"contract": "contracts/setAccessTime.sol:Certificate",
						"label": "admins",
						"offset": 0,
						"slot": "6",
						"type": "t_mapping(t_address,t_struct(Admin)33_storage)"
					},
					{
						"astId": 67,
						"contract": "contracts/setAccessTime.sol:Certificate",
						"label": "viewerAccessTimes",
						"offset": 0,
						"slot": "7",
						"type": "t_mapping(t_address,t_uint256)"
					}
				],
				"types": {
					"t_address": {
						"encoding": "inplace",
						"label": "address",
						"numberOfBytes": "20"
					},
					"t_array(t_struct(Admin)33_storage)dyn_storage": {
						"base": "t_struct(Admin)33_storage",
						"encoding": "dynamic_array",
						"label": "struct Certificate.Admin[]",
						"numberOfBytes": "32"
					},
					"t_array(t_struct(Student)22_storage)dyn_storage": {
						"base": "t_struct(Student)22_storage",
						"encoding": "dynamic_array",
						"label": "struct Certificate.Student[]",
						"numberOfBytes": "32"
					},
					"t_bool": {
						"encoding": "inplace",
						"label": "bool",
						"numberOfBytes": "1"
					},
					"t_mapping(t_address,t_bool)": {
						"encoding": "mapping",
						"key": "t_address",
						"label": "mapping(address => bool)",
						"numberOfBytes": "32",
						"value": "t_bool"
					},
					"t_mapping(t_address,t_struct(Admin)33_storage)": {
						"encoding": "mapping",
						"key": "t_address",
						"label": "mapping(address => struct Certificate.Admin)",
						"numberOfBytes": "32",
						"value": "t_struct(Admin)33_storage"
					},
					"t_mapping(t_address,t_struct(Student)22_storage)": {
						"encoding": "mapping",
						"key": "t_address",
						"label": "mapping(address => struct Certificate.Student)",
						"numberOfBytes": "32",
						"value": "t_struct(Student)22_storage"
					},
					"t_mapping(t_address,t_uint256)": {
						"encoding": "mapping",
						"key": "t_address",
						"label": "mapping(address => uint256)",
						"numberOfBytes": "32",
						"value": "t_uint256"
					},
					"t_string_storage": {
						"encoding": "bytes",
						"label": "string",
						"numberOfBytes": "32"
					},
					"t_struct(Admin)33_storage": {
						"encoding": "inplace",
						"label": "struct Certificate.Admin",
						"members": [
							{
								"astId": 24,
								"contract": "contracts/setAccessTime.sol:Certificate",
								"label": "addminAddress",
								"offset": 0,
								"slot": "0",
								"type": "t_address"
							},
							{
								"astId": 26,
								"contract": "contracts/setAccessTime.sol:Certificate",
								"label": "name",
								"offset": 0,
								"slot": "1",
								"type": "t_string_storage"
							},
							{
								"astId": 28,
								"contract": "contracts/setAccessTime.sol:Certificate",
								"label": "adminId",
								"offset": 0,
								"slot": "2",
								"type": "t_string_storage"
							},
							{
								"astId": 30,
								"contract": "contracts/setAccessTime.sol:Certificate",
								"label": "position",
								"offset": 0,
								"slot": "3",
								"type": "t_string_storage"
							},
							{
								"astId": 32,
								"contract": "contracts/setAccessTime.sol:Certificate",
								"label": "adminStatus",
								"offset": 0,
								"slot": "4",
								"type": "t_bool"
							}
						],
						"numberOfBytes": "160"
					},
					"t_struct(Student)22_storage": {
						"encoding": "inplace",
						"label": "struct Certificate.Student",
						"members": [
							{
								"astId": 3,
								"contract": "contracts/setAccessTime.sol:Certificate",
								"label": "studentAddress",
								"offset": 0,
								"slot": "0",
								"type": "t_address"
							},
							{
								"astId": 5,
								"contract": "contracts/setAccessTime.sol:Certificate",
								"label": "certificateName",
								"offset": 0,
								"slot": "1",
								"type": "t_string_storage"
							},
							{
								"astId": 7,
								"contract": "contracts/setAccessTime.sol:Certificate",
								"label": "studentName",
								"offset": 0,
								"slot": "2",
								"type": "t_string_storage"
							},
							{
								"astId": 9,
								"contract": "contracts/setAccessTime.sol:Certificate",
								"label": "studentId",
								"offset": 0,
								"slot": "3",
								"type": "t_string_storage"
							},
							{
								"astId": 11,
								"contract": "contracts/setAccessTime.sol:Certificate",
								"label": "faculty",
								"offset": 0,
								"slot": "4",
								"type": "t_string_storage"
							},
							{
								"astId": 13,
								"contract": "contracts/setAccessTime.sol:Certificate",
								"label": "department",
								"offset": 0,
								"slot": "5",
								"type": "t_string_storage"
							},
							{
								"astId": 15,
								"contract": "contracts/setAccessTime.sol:Certificate",
								"label": "accessTime",
								"offset": 0,
								"slot": "6",
								"type": "t_uint256"
							},
							{
								"astId": 17,
								"contract": "contracts/setAccessTime.sol:Certificate",
								"label": "revokedStatus",
								"offset": 0,
								"slot": "7",
								"type": "t_bool"
							},
							{
								"astId": 19,
								"contract": "contracts/setAccessTime.sol:Certificate",
								"label": "issuedName",
								"offset": 0,
								"slot": "8",
								"type": "t_string_storage"
							},
							{
								"astId": 21,
								"contract": "contracts/setAccessTime.sol:Certificate",
								"label": "issuedAddress",
								"offset": 0,
								"slot": "9",
								"type": "t_address"
							}
						],
						"numberOfBytes": "320"
					},
					"t_uint256": {
						"encoding": "inplace",
						"label": "uint256",
						"numberOfBytes": "32"
					}
				}
			},
			"userdoc": {
				"kind": "user",
				"methods": {},
				"version": 1
			}
		}
	}
}