{
	"contracts/Testament.sol": {
		"Testament": {
			"abi": [
				{
					"inputs": [],
					"stateMutability": "nonpayable",
					"type": "constructor"
				},
				{
					"anonymous": false,
					"inputs": [
						{
							"indexed": true,
							"internalType": "address",
							"name": "owner",
							"type": "address"
						},
						{
							"indexed": true,
							"internalType": "address",
							"name": "heir",
							"type": "address"
						},
						{
							"indexed": false,
							"internalType": "uint256",
							"name": "amount",
							"type": "uint256"
						}
					],
					"name": "Create",
					"type": "event"
				},
				{
					"anonymous": false,
					"inputs": [
						{
							"indexed": true,
							"internalType": "address",
							"name": "owner",
							"type": "address"
						},
						{
							"indexed": true,
							"internalType": "address",
							"name": "heir",
							"type": "address"
						},
						{
							"indexed": false,
							"internalType": "uint256",
							"name": "amount",
							"type": "uint256"
						}
					],
					"name": "Report",
					"type": "event"
				},
				{
					"inputs": [],
					"name": "_manager",
					"outputs": [
						{
							"internalType": "address",
							"name": "",
							"type": "address"
						}
					],
					"stateMutability": "view",
					"type": "function"
				},
				{
					"inputs": [
						{
							"internalType": "address",
							"name": "heir",
							"type": "address"
						}
					],
					"name": "create",
					"outputs": [],
					"stateMutability": "payable",
					"type": "function"
				},
				{
					"inputs": [
						{
							"internalType": "address",
							"name": "owner",
							"type": "address"
						}
					],
					"name": "getTestament",
					"outputs": [
						{
							"internalType": "address",
							"name": "heir",
							"type": "address"
						},
						{
							"internalType": "uint256",
							"name": "amount",
							"type": "uint256"
						}
					],
					"stateMutability": "view",
					"type": "function"
				},
				{
					"inputs": [
						{
							"internalType": "address",
							"name": "owner",
							"type": "address"
						}
					],
					"name": "reportofDeath",
					"outputs": [],
					"stateMutability": "nonpayable",
					"type": "function"
				}
			],
			"devdoc": {
				"kind": "dev",
				"methods": {},
				"version": 1
			},
			"evm": {
				"assembly": "    /* \"contracts/Testament.sol\":62:1248  contract Testament{... */\n  mstore(0x40, 0x80)\n    /* \"contracts/Testament.sol\":345:398  constructor(){... */\n  callvalue\n  dup1\n  iszero\n  tag_1\n  jumpi\n  0x00\n  dup1\n  revert\ntag_1:\n  pop\n    /* \"contracts/Testament.sol\":380:390  msg.sender */\n  caller\n    /* \"contracts/Testament.sol\":369:377  _manager */\n  0x00\n  dup1\n    /* \"contracts/Testament.sol\":369:390  _manager = msg.sender */\n  0x0100\n  exp\n  dup2\n  sload\n  dup2\n  0xffffffffffffffffffffffffffffffffffffffff\n  mul\n  not\n  and\n  swap1\n  dup4\n  0xffffffffffffffffffffffffffffffffffffffff\n  and\n  mul\n  or\n  swap1\n  sstore\n  pop\n    /* \"contracts/Testament.sol\":62:1248  contract Testament{... */\n  dataSize(sub_0)\n  dup1\n  dataOffset(sub_0)\n  0x00\n  codecopy\n  0x00\n  return\nstop\n\nsub_0: assembly {\n        /* \"contracts/Testament.sol\":62:1248  contract Testament{... */\n      mstore(0x40, 0x80)\n      jumpi(tag_1, lt(calldatasize, 0x04))\n      shr(0xe0, calldataload(0x00))\n      dup1\n      0x1af08c8b\n      eq\n      tag_2\n      jumpi\n      dup1\n      0x7dd3c71f\n      eq\n      tag_3\n      jumpi\n      dup1\n      0x9ed93318\n      eq\n      tag_4\n      jumpi\n      dup1\n      0xf0329f6b\n      eq\n      tag_5\n      jumpi\n    tag_1:\n      0x00\n      dup1\n      revert\n        /* \"contracts/Testament.sol\":755:893  function getTestament(address owner) public view returns(address heir,uint amount){... */\n    tag_2:\n      callvalue\n      dup1\n      iszero\n      tag_6\n      jumpi\n      0x00\n      dup1\n      revert\n    tag_6:\n      pop\n      tag_7\n      0x04\n      dup1\n      calldatasize\n      sub\n      dup2\n      add\n      swap1\n      tag_8\n      swap2\n      swap1\n      tag_9\n      jump\t// in\n    tag_8:\n      tag_10\n      jump\t// in\n    tag_7:\n      mload(0x40)\n      tag_11\n      swap3\n      swap2\n      swap1\n      tag_12\n      jump\t// in\n    tag_11:\n      mload(0x40)\n      dup1\n      swap2\n      sub\n      swap1\n      return\n        /* \"contracts/Testament.sol\":900:1245  function reportofDeath(address owner) public{... */\n    tag_3:\n      callvalue\n      dup1\n      iszero\n      tag_13\n      jumpi\n      0x00\n      dup1\n      revert\n    tag_13:\n      pop\n      tag_14\n      0x04\n      dup1\n      calldatasize\n      sub\n      dup2\n      add\n      swap1\n      tag_15\n      swap2\n      swap1\n      tag_9\n      jump\t// in\n    tag_15:\n      tag_16\n      jump\t// in\n    tag_14:\n      stop\n        /* \"contracts/Testament.sol\":434:749  function create(address heir)public payable{... */\n    tag_4:\n      tag_17\n      0x04\n      dup1\n      calldatasize\n      sub\n      dup2\n      add\n      swap1\n      tag_18\n      swap2\n      swap1\n      tag_9\n      jump\t// in\n    tag_18:\n      tag_19\n      jump\t// in\n    tag_17:\n      stop\n        /* \"contracts/Testament.sol\":87:110  address public _manager */\n    tag_5:\n      callvalue\n      dup1\n      iszero\n      tag_20\n      jumpi\n      0x00\n      dup1\n      revert\n    tag_20:\n      pop\n      tag_21\n      tag_22\n      jump\t// in\n    tag_21:\n      mload(0x40)\n      tag_23\n      swap2\n      swap1\n      tag_24\n      jump\t// in\n    tag_23:\n      mload(0x40)\n      dup1\n      swap2\n      sub\n      swap1\n      return\n        /* \"contracts/Testament.sol\":755:893  function getTestament(address owner) public view returns(address heir,uint amount){... */\n    tag_10:\n        /* \"contracts/Testament.sol\":812:824  address heir */\n      0x00\n        /* \"contracts/Testament.sol\":825:836  uint amount */\n      dup1\n        /* \"contracts/Testament.sol\":856:861  _heir */\n      0x01\n        /* \"contracts/Testament.sol\":856:868  _heir[owner] */\n      0x00\n        /* \"contracts/Testament.sol\":862:867  owner */\n      dup5\n        /* \"contracts/Testament.sol\":856:868  _heir[owner] */\n      0xffffffffffffffffffffffffffffffffffffffff\n      and\n      0xffffffffffffffffffffffffffffffffffffffff\n      and\n      dup2\n      mstore\n      0x20\n      add\n      swap1\n      dup2\n      mstore\n      0x20\n      add\n      0x00\n      keccak256\n      0x00\n      swap1\n      sload\n      swap1\n      0x0100\n      exp\n      swap1\n      div\n      0xffffffffffffffffffffffffffffffffffffffff\n      and\n        /* \"contracts/Testament.sol\":869:877  _balance */\n      0x02\n        /* \"contracts/Testament.sol\":869:884  _balance[owner] */\n      0x00\n        /* \"contracts/Testament.sol\":878:883  owner */\n      dup6\n        /* \"contracts/Testament.sol\":869:884  _balance[owner] */\n      0xffffffffffffffffffffffffffffffffffffffff\n      and\n      0xffffffffffffffffffffffffffffffffffffffff\n      and\n      dup2\n      mstore\n      0x20\n      add\n      swap1\n      dup2\n      mstore\n      0x20\n      add\n      0x00\n      keccak256\n      sload\n        /* \"contracts/Testament.sol\":848:885  return (_heir[owner],_balance[owner]) */\n      swap2\n      pop\n      swap2\n      pop\n        /* \"contracts/Testament.sol\":755:893  function getTestament(address owner) public view returns(address heir,uint amount){... */\n      swap2\n      pop\n      swap2\n      jump\t// out\n        /* \"contracts/Testament.sol\":900:1245  function reportofDeath(address owner) public{... */\n    tag_16:\n        /* \"contracts/Testament.sol\":977:985  _manager */\n      0x00\n      dup1\n      sload\n      swap1\n      0x0100\n      exp\n      swap1\n      div\n      0xffffffffffffffffffffffffffffffffffffffff\n      and\n        /* \"contracts/Testament.sol\":963:985  msg.sender == _manager */\n      0xffffffffffffffffffffffffffffffffffffffff\n      and\n        /* \"contracts/Testament.sol\":963:973  msg.sender */\n      caller\n        /* \"contracts/Testament.sol\":963:985  msg.sender == _manager */\n      0xffffffffffffffffffffffffffffffffffffffff\n      and\n      eq\n        /* \"contracts/Testament.sol\":955:1001  require(msg.sender == _manager,\"Unauthorized\") */\n      tag_27\n      jumpi\n      mload(0x40)\n      0x08c379a000000000000000000000000000000000000000000000000000000000\n      dup2\n      mstore\n      0x04\n      add\n      tag_28\n      swap1\n      tag_29\n      jump\t// in\n    tag_28:\n      mload(0x40)\n      dup1\n      swap2\n      sub\n      swap1\n      revert\n    tag_27:\n        /* \"contracts/Testament.sol\":1036:1037  0 */\n      0x00\n        /* \"contracts/Testament.sol\":1020:1028  _balance */\n      0x02\n        /* \"contracts/Testament.sol\":1020:1035  _balance[owner] */\n      0x00\n        /* \"contracts/Testament.sol\":1029:1034  owner */\n      dup4\n        /* \"contracts/Testament.sol\":1020:1035  _balance[owner] */\n      0xffffffffffffffffffffffffffffffffffffffff\n      and\n      0xffffffffffffffffffffffffffffffffffffffff\n      and\n      dup2\n      mstore\n      0x20\n      add\n      swap1\n      dup2\n      mstore\n      0x20\n      add\n      0x00\n      keccak256\n      sload\n        /* \"contracts/Testament.sol\":1020:1037  _balance[owner]>0 */\n      gt\n        /* \"contracts/Testament.sol\":1012:1053  require(_balance[owner]>0,\"No testament\") */\n      tag_30\n      jumpi\n      mload(0x40)\n      0x08c379a000000000000000000000000000000000000000000000000000000000\n      dup2\n      mstore\n      0x04\n      add\n      tag_31\n      swap1\n      tag_32\n      jump\t// in\n    tag_31:\n      mload(0x40)\n      dup1\n      swap2\n      sub\n      swap1\n      revert\n    tag_30:\n        /* \"contracts/Testament.sol\":1082:1087  _heir */\n      0x01\n        /* \"contracts/Testament.sol\":1082:1094  _heir[owner] */\n      0x00\n        /* \"contracts/Testament.sol\":1088:1093  owner */\n      dup3\n        /* \"contracts/Testament.sol\":1082:1094  _heir[owner] */\n      0xffffffffffffffffffffffffffffffffffffffff\n      and\n      0xffffffffffffffffffffffffffffffffffffffff\n      and\n      dup2\n      mstore\n      0x20\n      add\n      swap1\n      dup2\n      mstore\n      0x20\n      add\n      0x00\n      keccak256\n      0x00\n      swap1\n      sload\n      swap1\n      0x0100\n      exp\n      swap1\n      div\n      0xffffffffffffffffffffffffffffffffffffffff\n      and\n        /* \"contracts/Testament.sol\":1069:1111  Report(owner,_heir[owner],_balance[owner]) */\n      0xffffffffffffffffffffffffffffffffffffffff\n      and\n        /* \"contracts/Testament.sol\":1076:1081  owner */\n      dup2\n        /* \"contracts/Testament.sol\":1069:1111  Report(owner,_heir[owner],_balance[owner]) */\n      0xffffffffffffffffffffffffffffffffffffffff\n      and\n      0xea30da65b72604a9629f85acedfd7519bcee57ae8151888b0d949562107968b7\n        /* \"contracts/Testament.sol\":1095:1103  _balance */\n      0x02\n        /* \"contracts/Testament.sol\":1095:1110  _balance[owner] */\n      0x00\n        /* \"contracts/Testament.sol\":1104:1109  owner */\n      dup6\n        /* \"contracts/Testament.sol\":1095:1110  _balance[owner] */\n      0xffffffffffffffffffffffffffffffffffffffff\n      and\n      0xffffffffffffffffffffffffffffffffffffffff\n      and\n      dup2\n      mstore\n      0x20\n      add\n      swap1\n      dup2\n      mstore\n      0x20\n      add\n      0x00\n      keccak256\n      sload\n        /* \"contracts/Testament.sol\":1069:1111  Report(owner,_heir[owner],_balance[owner]) */\n      mload(0x40)\n      tag_33\n      swap2\n      swap1\n      tag_34\n      jump\t// in\n    tag_33:\n      mload(0x40)\n      dup1\n      swap2\n      sub\n      swap1\n      log3\n        /* \"contracts/Testament.sol\":1132:1137  _heir */\n      0x01\n        /* \"contracts/Testament.sol\":1132:1144  _heir[owner] */\n      0x00\n        /* \"contracts/Testament.sol\":1138:1143  owner */\n      dup3\n        /* \"contracts/Testament.sol\":1132:1144  _heir[owner] */\n      0xffffffffffffffffffffffffffffffffffffffff\n      and\n      0xffffffffffffffffffffffffffffffffffffffff\n      and\n      dup2\n      mstore\n      0x20\n      add\n      swap1\n      dup2\n      mstore\n      0x20\n      add\n      0x00\n      keccak256\n      0x00\n      swap1\n      sload\n      swap1\n      0x0100\n      exp\n      swap1\n      div\n      0xffffffffffffffffffffffffffffffffffffffff\n      and\n        /* \"contracts/Testament.sol\":1124:1154  payable(_heir[owner]).transfer */\n      0xffffffffffffffffffffffffffffffffffffffff\n      and\n        /* \"contracts/Testament.sol\":1124:1171  payable(_heir[owner]).transfer(_balance[owner]) */\n      0x08fc\n        /* \"contracts/Testament.sol\":1155:1163  _balance */\n      0x02\n        /* \"contracts/Testament.sol\":1155:1170  _balance[owner] */\n      0x00\n        /* \"contracts/Testament.sol\":1164:1169  owner */\n      dup5\n        /* \"contracts/Testament.sol\":1155:1170  _balance[owner] */\n      0xffffffffffffffffffffffffffffffffffffffff\n      and\n      0xffffffffffffffffffffffffffffffffffffffff\n      and\n      dup2\n      mstore\n      0x20\n      add\n      swap1\n      dup2\n      mstore\n      0x20\n      add\n      0x00\n      keccak256\n      sload\n        /* \"contracts/Testament.sol\":1124:1171  payable(_heir[owner]).transfer(_balance[owner]) */\n      swap1\n      dup2\n      iszero\n      mul\n      swap1\n      mload(0x40)\n      0x00\n      mload(0x40)\n      dup1\n      dup4\n      sub\n      dup2\n      dup6\n      dup9\n      dup9\n      call\n      swap4\n      pop\n      pop\n      pop\n      pop\n      iszero\n      dup1\n      iszero\n      tag_36\n      jumpi\n      returndatasize\n      0x00\n      dup1\n      returndatacopy\n      revert(0x00, returndatasize)\n    tag_36:\n      pop\n        /* \"contracts/Testament.sol\":1200:1201  0 */\n      0x00\n        /* \"contracts/Testament.sol\":1182:1190  _balance */\n      0x02\n        /* \"contracts/Testament.sol\":1182:1197  _balance[owner] */\n      0x00\n        /* \"contracts/Testament.sol\":1191:1196  owner */\n      dup4\n        /* \"contracts/Testament.sol\":1182:1197  _balance[owner] */\n      0xffffffffffffffffffffffffffffffffffffffff\n      and\n      0xffffffffffffffffffffffffffffffffffffffff\n      and\n      dup2\n      mstore\n      0x20\n      add\n      swap1\n      dup2\n      mstore\n      0x20\n      add\n      0x00\n      keccak256\n        /* \"contracts/Testament.sol\":1182:1201  _balance[owner] = 0 */\n      dup2\n      swap1\n      sstore\n      pop\n        /* \"contracts/Testament.sol\":1235:1236  0 */\n      0x00\n        /* \"contracts/Testament.sol\":1212:1217  _heir */\n      0x01\n        /* \"contracts/Testament.sol\":1212:1224  _heir[owner] */\n      0x00\n        /* \"contracts/Testament.sol\":1218:1223  owner */\n      dup4\n        /* \"contracts/Testament.sol\":1212:1224  _heir[owner] */\n      0xffffffffffffffffffffffffffffffffffffffff\n      and\n      0xffffffffffffffffffffffffffffffffffffffff\n      and\n      dup2\n      mstore\n      0x20\n      add\n      swap1\n      dup2\n      mstore\n      0x20\n      add\n      0x00\n      keccak256\n      0x00\n        /* \"contracts/Testament.sol\":1212:1237  _heir[owner] = address(0) */\n      0x0100\n      exp\n      dup2\n      sload\n      dup2\n      0xffffffffffffffffffffffffffffffffffffffff\n      mul\n      not\n      and\n      swap1\n      dup4\n      0xffffffffffffffffffffffffffffffffffffffff\n      and\n      mul\n      or\n      swap1\n      sstore\n      pop\n        /* \"contracts/Testament.sol\":900:1245  function reportofDeath(address owner) public{... */\n      pop\n      jump\t// out\n        /* \"contracts/Testament.sol\":434:749  function create(address heir)public payable{... */\n    tag_19:\n        /* \"contracts/Testament.sol\":506:507  0 */\n      0x00\n        /* \"contracts/Testament.sol\":496:505  msg.value */\n      callvalue\n        /* \"contracts/Testament.sol\":496:507  msg.value>0 */\n      gt\n        /* \"contracts/Testament.sol\":488:544  require(msg.value>0,\"Please Enter Money Greater then 0\") */\n      tag_38\n      jumpi\n      mload(0x40)\n      0x08c379a000000000000000000000000000000000000000000000000000000000\n      dup2\n      mstore\n      0x04\n      add\n      tag_39\n      swap1\n      tag_40\n      jump\t// in\n    tag_39:\n      mload(0x40)\n      dup1\n      swap2\n      sub\n      swap1\n      revert\n    tag_38:\n        /* \"contracts/Testament.sol\":585:586  0 */\n      0x00\n        /* \"contracts/Testament.sol\":563:571  _balance */\n      0x02\n        /* \"contracts/Testament.sol\":563:583  _balance[msg.sender] */\n      0x00\n        /* \"contracts/Testament.sol\":572:582  msg.sender */\n      caller\n        /* \"contracts/Testament.sol\":563:583  _balance[msg.sender] */\n      0xffffffffffffffffffffffffffffffffffffffff\n      and\n      0xffffffffffffffffffffffffffffffffffffffff\n      and\n      dup2\n      mstore\n      0x20\n      add\n      swap1\n      dup2\n      mstore\n      0x20\n      add\n      0x00\n      keccak256\n      sload\n        /* \"contracts/Testament.sol\":563:586  _balance[msg.sender]<=0 */\n      gt\n      iszero\n        /* \"contracts/Testament.sol\":555:614  require(_balance[msg.sender]<=0,\"Already Testament Exists\") */\n      tag_41\n      jumpi\n      mload(0x40)\n      0x08c379a000000000000000000000000000000000000000000000000000000000\n      dup2\n      mstore\n      0x04\n      add\n      tag_42\n      swap1\n      tag_43\n      jump\t// in\n    tag_42:\n      mload(0x40)\n      dup1\n      swap2\n      sub\n      swap1\n      revert\n    tag_41:\n        /* \"contracts/Testament.sol\":645:649  heir */\n      dup1\n        /* \"contracts/Testament.sol\":625:630  _heir */\n      0x01\n        /* \"contracts/Testament.sol\":625:642  _heir[msg.sender] */\n      0x00\n        /* \"contracts/Testament.sol\":631:641  msg.sender */\n      caller\n        /* \"contracts/Testament.sol\":625:642  _heir[msg.sender] */\n      0xffffffffffffffffffffffffffffffffffffffff\n      and\n      0xffffffffffffffffffffffffffffffffffffffff\n      and\n      dup2\n      mstore\n      0x20\n      add\n      swap1\n      dup2\n      mstore\n      0x20\n      add\n      0x00\n      keccak256\n      0x00\n        /* \"contracts/Testament.sol\":625:649  _heir[msg.sender] = heir */\n      0x0100\n      exp\n      dup2\n      sload\n      dup2\n      0xffffffffffffffffffffffffffffffffffffffff\n      mul\n      not\n      and\n      swap1\n      dup4\n      0xffffffffffffffffffffffffffffffffffffffff\n      and\n      mul\n      or\n      swap1\n      sstore\n      pop\n        /* \"contracts/Testament.sol\":683:692  msg.value */\n      callvalue\n        /* \"contracts/Testament.sol\":660:668  _balance */\n      0x02\n        /* \"contracts/Testament.sol\":660:680  _balance[msg.sender] */\n      0x00\n        /* \"contracts/Testament.sol\":669:679  msg.sender */\n      caller\n        /* \"contracts/Testament.sol\":660:680  _balance[msg.sender] */\n      0xffffffffffffffffffffffffffffffffffffffff\n      and\n      0xffffffffffffffffffffffffffffffffffffffff\n      and\n      dup2\n      mstore\n      0x20\n      add\n      swap1\n      dup2\n      mstore\n      0x20\n      add\n      0x00\n      keccak256\n        /* \"contracts/Testament.sol\":660:692  _balance[msg.sender] = msg.value */\n      dup2\n      swap1\n      sstore\n      pop\n        /* \"contracts/Testament.sol\":726:730  heir */\n      dup1\n        /* \"contracts/Testament.sol\":708:741  Create(msg.sender,heir,msg.value) */\n      0xffffffffffffffffffffffffffffffffffffffff\n      and\n        /* \"contracts/Testament.sol\":715:725  msg.sender */\n      caller\n        /* \"contracts/Testament.sol\":708:741  Create(msg.sender,heir,msg.value) */\n      0xffffffffffffffffffffffffffffffffffffffff\n      and\n      0x923f1fa2c44c3aec741bc0bb74cfdb2d73d61ea532799cda54b2941d89ab9fc6\n        /* \"contracts/Testament.sol\":731:740  msg.value */\n      callvalue\n        /* \"contracts/Testament.sol\":708:741  Create(msg.sender,heir,msg.value) */\n      mload(0x40)\n      tag_44\n      swap2\n      swap1\n      tag_34\n      jump\t// in\n    tag_44:\n      mload(0x40)\n      dup1\n      swap2\n      sub\n      swap1\n      log3\n        /* \"contracts/Testament.sol\":434:749  function create(address heir)public payable{... */\n      pop\n      jump\t// out\n        /* \"contracts/Testament.sol\":87:110  address public _manager */\n    tag_22:\n      0x00\n      dup1\n      sload\n      swap1\n      0x0100\n      exp\n      swap1\n      div\n      0xffffffffffffffffffffffffffffffffffffffff\n      and\n      dup2\n      jump\t// out\n        /* \"#utility.yul\":88:205   */\n    tag_46:\n        /* \"#utility.yul\":197:198   */\n      0x00\n        /* \"#utility.yul\":194:195   */\n      dup1\n        /* \"#utility.yul\":187:199   */\n      revert\n        /* \"#utility.yul\":334:460   */\n    tag_48:\n        /* \"#utility.yul\":371:378   */\n      0x00\n        /* \"#utility.yul\":411:453   */\n      0xffffffffffffffffffffffffffffffffffffffff\n        /* \"#utility.yul\":404:409   */\n      dup3\n        /* \"#utility.yul\":400:454   */\n      and\n        /* \"#utility.yul\":389:454   */\n      swap1\n      pop\n        /* \"#utility.yul\":334:460   */\n      swap2\n      swap1\n      pop\n      jump\t// out\n        /* \"#utility.yul\":466:562   */\n    tag_49:\n        /* \"#utility.yul\":503:510   */\n      0x00\n        /* \"#utility.yul\":532:556   */\n      tag_70\n        /* \"#utility.yul\":550:555   */\n      dup3\n        /* \"#utility.yul\":532:556   */\n      tag_48\n      jump\t// in\n    tag_70:\n        /* \"#utility.yul\":521:556   */\n      swap1\n      pop\n        /* \"#utility.yul\":466:562   */\n      swap2\n      swap1\n      pop\n      jump\t// out\n        /* \"#utility.yul\":568:690   */\n    tag_50:\n        /* \"#utility.yul\":641:665   */\n      tag_72\n        /* \"#utility.yul\":659:664   */\n      dup2\n        /* \"#utility.yul\":641:665   */\n      tag_49\n      jump\t// in\n    tag_72:\n        /* \"#utility.yul\":634:639   */\n      dup2\n        /* \"#utility.yul\":631:666   */\n      eq\n        /* \"#utility.yul\":621:684   */\n      tag_73\n      jumpi\n        /* \"#utility.yul\":680:681   */\n      0x00\n        /* \"#utility.yul\":677:678   */\n      dup1\n        /* \"#utility.yul\":670:682   */\n      revert\n        /* \"#utility.yul\":621:684   */\n    tag_73:\n        /* \"#utility.yul\":568:690   */\n      pop\n      jump\t// out\n        /* \"#utility.yul\":696:835   */\n    tag_51:\n        /* \"#utility.yul\":742:747   */\n      0x00\n        /* \"#utility.yul\":780:786   */\n      dup2\n        /* \"#utility.yul\":767:787   */\n      calldataload\n        /* \"#utility.yul\":758:787   */\n      swap1\n      pop\n        /* \"#utility.yul\":796:829   */\n      tag_75\n        /* \"#utility.yul\":823:828   */\n      dup2\n        /* \"#utility.yul\":796:829   */\n      tag_50\n      jump\t// in\n    tag_75:\n        /* \"#utility.yul\":696:835   */\n      swap3\n      swap2\n      pop\n      pop\n      jump\t// out\n        /* \"#utility.yul\":841:1170   */\n    tag_9:\n        /* \"#utility.yul\":900:906   */\n      0x00\n        /* \"#utility.yul\":949:951   */\n      0x20\n        /* \"#utility.yul\":937:946   */\n      dup3\n        /* \"#utility.yul\":928:935   */\n      dup5\n        /* \"#utility.yul\":924:947   */\n      sub\n        /* \"#utility.yul\":920:952   */\n      slt\n        /* \"#utility.yul\":917:1036   */\n      iszero\n      tag_77\n      jumpi\n        /* \"#utility.yul\":955:1034   */\n      tag_78\n      tag_46\n      jump\t// in\n    tag_78:\n        /* \"#utility.yul\":917:1036   */\n    tag_77:\n        /* \"#utility.yul\":1075:1076   */\n      0x00\n        /* \"#utility.yul\":1100:1153   */\n      tag_79\n        /* \"#utility.yul\":1145:1152   */\n      dup5\n        /* \"#utility.yul\":1136:1142   */\n      dup3\n        /* \"#utility.yul\":1125:1134   */\n      dup6\n        /* \"#utility.yul\":1121:1143   */\n      add\n        /* \"#utility.yul\":1100:1153   */\n      tag_51\n      jump\t// in\n    tag_79:\n        /* \"#utility.yul\":1090:1153   */\n      swap2\n      pop\n        /* \"#utility.yul\":1046:1163   */\n      pop\n        /* \"#utility.yul\":841:1170   */\n      swap3\n      swap2\n      pop\n      pop\n      jump\t// out\n        /* \"#utility.yul\":1176:1294   */\n    tag_52:\n        /* \"#utility.yul\":1263:1287   */\n      tag_81\n        /* \"#utility.yul\":1281:1286   */\n      dup2\n        /* \"#utility.yul\":1263:1287   */\n      tag_49\n      jump\t// in\n    tag_81:\n        /* \"#utility.yul\":1258:1261   */\n      dup3\n        /* \"#utility.yul\":1251:1288   */\n      mstore\n        /* \"#utility.yul\":1176:1294   */\n      pop\n      pop\n      jump\t// out\n        /* \"#utility.yul\":1300:1377   */\n    tag_53:\n        /* \"#utility.yul\":1337:1344   */\n      0x00\n        /* \"#utility.yul\":1366:1371   */\n      dup2\n        /* \"#utility.yul\":1355:1371   */\n      swap1\n      pop\n        /* \"#utility.yul\":1300:1377   */\n      swap2\n      swap1\n      pop\n      jump\t// out\n        /* \"#utility.yul\":1383:1501   */\n    tag_54:\n        /* \"#utility.yul\":1470:1494   */\n      tag_84\n        /* \"#utility.yul\":1488:1493   */\n      dup2\n        /* \"#utility.yul\":1470:1494   */\n      tag_53\n      jump\t// in\n    tag_84:\n        /* \"#utility.yul\":1465:1468   */\n      dup3\n        /* \"#utility.yul\":1458:1495   */\n      mstore\n        /* \"#utility.yul\":1383:1501   */\n      pop\n      pop\n      jump\t// out\n        /* \"#utility.yul\":1507:1839   */\n    tag_12:\n        /* \"#utility.yul\":1628:1632   */\n      0x00\n        /* \"#utility.yul\":1666:1668   */\n      0x40\n        /* \"#utility.yul\":1655:1664   */\n      dup3\n        /* \"#utility.yul\":1651:1669   */\n      add\n        /* \"#utility.yul\":1643:1669   */\n      swap1\n      pop\n        /* \"#utility.yul\":1679:1750   */\n      tag_86\n        /* \"#utility.yul\":1747:1748   */\n      0x00\n        /* \"#utility.yul\":1736:1745   */\n      dup4\n        /* \"#utility.yul\":1732:1749   */\n      add\n        /* \"#utility.yul\":1723:1729   */\n      dup6\n        /* \"#utility.yul\":1679:1750   */\n      tag_52\n      jump\t// in\n    tag_86:\n        /* \"#utility.yul\":1760:1832   */\n      tag_87\n        /* \"#utility.yul\":1828:1830   */\n      0x20\n        /* \"#utility.yul\":1817:1826   */\n      dup4\n        /* \"#utility.yul\":1813:1831   */\n      add\n        /* \"#utility.yul\":1804:1810   */\n      dup5\n        /* \"#utility.yul\":1760:1832   */\n      tag_54\n      jump\t// in\n    tag_87:\n        /* \"#utility.yul\":1507:1839   */\n      swap4\n      swap3\n      pop\n      pop\n      pop\n      jump\t// out\n        /* \"#utility.yul\":1845:2067   */\n    tag_24:\n        /* \"#utility.yul\":1938:1942   */\n      0x00\n        /* \"#utility.yul\":1976:1978   */\n      0x20\n        /* \"#utility.yul\":1965:1974   */\n      dup3\n        /* \"#utility.yul\":1961:1979   */\n      add\n        /* \"#utility.yul\":1953:1979   */\n      swap1\n      pop\n        /* \"#utility.yul\":1989:2060   */\n      tag_89\n        /* \"#utility.yul\":2057:2058   */\n      0x00\n        /* \"#utility.yul\":2046:2055   */\n      dup4\n        /* \"#utility.yul\":2042:2059   */\n      add\n        /* \"#utility.yul\":2033:2039   */\n      dup5\n        /* \"#utility.yul\":1989:2060   */\n      tag_52\n      jump\t// in\n    tag_89:\n        /* \"#utility.yul\":1845:2067   */\n      swap3\n      swap2\n      pop\n      pop\n      jump\t// out\n        /* \"#utility.yul\":2073:2242   */\n    tag_55:\n        /* \"#utility.yul\":2157:2168   */\n      0x00\n        /* \"#utility.yul\":2191:2197   */\n      dup3\n        /* \"#utility.yul\":2186:2189   */\n      dup3\n        /* \"#utility.yul\":2179:2198   */\n      mstore\n        /* \"#utility.yul\":2231:2235   */\n      0x20\n        /* \"#utility.yul\":2226:2229   */\n      dup3\n        /* \"#utility.yul\":2222:2236   */\n      add\n        /* \"#utility.yul\":2207:2236   */\n      swap1\n      pop\n        /* \"#utility.yul\":2073:2242   */\n      swap3\n      swap2\n      pop\n      pop\n      jump\t// out\n        /* \"#utility.yul\":2248:2410   */\n    tag_56:\n        /* \"#utility.yul\":2388:2402   */\n      0x556e617574686f72697a65640000000000000000000000000000000000000000\n        /* \"#utility.yul\":2384:2385   */\n      0x00\n        /* \"#utility.yul\":2376:2382   */\n      dup3\n        /* \"#utility.yul\":2372:2386   */\n      add\n        /* \"#utility.yul\":2365:2403   */\n      mstore\n        /* \"#utility.yul\":2248:2410   */\n      pop\n      jump\t// out\n        /* \"#utility.yul\":2416:2782   */\n    tag_57:\n        /* \"#utility.yul\":2558:2561   */\n      0x00\n        /* \"#utility.yul\":2579:2646   */\n      tag_93\n        /* \"#utility.yul\":2643:2645   */\n      0x0c\n        /* \"#utility.yul\":2638:2641   */\n      dup4\n        /* \"#utility.yul\":2579:2646   */\n      tag_55\n      jump\t// in\n    tag_93:\n        /* \"#utility.yul\":2572:2646   */\n      swap2\n      pop\n        /* \"#utility.yul\":2655:2748   */\n      tag_94\n        /* \"#utility.yul\":2744:2747   */\n      dup3\n        /* \"#utility.yul\":2655:2748   */\n      tag_56\n      jump\t// in\n    tag_94:\n        /* \"#utility.yul\":2773:2775   */\n      0x20\n        /* \"#utility.yul\":2768:2771   */\n      dup3\n        /* \"#utility.yul\":2764:2776   */\n      add\n        /* \"#utility.yul\":2757:2776   */\n      swap1\n      pop\n        /* \"#utility.yul\":2416:2782   */\n      swap2\n      swap1\n      pop\n      jump\t// out\n        /* \"#utility.yul\":2788:3207   */\n    tag_29:\n        /* \"#utility.yul\":2954:2958   */\n      0x00\n        /* \"#utility.yul\":2992:2994   */\n      0x20\n        /* \"#utility.yul\":2981:2990   */\n      dup3\n        /* \"#utility.yul\":2977:2995   */\n      add\n        /* \"#utility.yul\":2969:2995   */\n      swap1\n      pop\n        /* \"#utility.yul\":3041:3050   */\n      dup2\n        /* \"#utility.yul\":3035:3039   */\n      dup2\n        /* \"#utility.yul\":3031:3051   */\n      sub\n        /* \"#utility.yul\":3027:3028   */\n      0x00\n        /* \"#utility.yul\":3016:3025   */\n      dup4\n        /* \"#utility.yul\":3012:3029   */\n      add\n        /* \"#utility.yul\":3005:3052   */\n      mstore\n        /* \"#utility.yul\":3069:3200   */\n      tag_96\n        /* \"#utility.yul\":3195:3199   */\n      dup2\n        /* \"#utility.yul\":3069:3200   */\n      tag_57\n      jump\t// in\n    tag_96:\n        /* \"#utility.yul\":3061:3200   */\n      swap1\n      pop\n        /* \"#utility.yul\":2788:3207   */\n      swap2\n      swap1\n      pop\n      jump\t// out\n        /* \"#utility.yul\":3213:3375   */\n    tag_58:\n        /* \"#utility.yul\":3353:3367   */\n      0x4e6f2074657374616d656e740000000000000000000000000000000000000000\n        /* \"#utility.yul\":3349:3350   */\n      0x00\n        /* \"#utility.yul\":3341:3347   */\n      dup3\n        /* \"#utility.yul\":3337:3351   */\n      add\n        /* \"#utility.yul\":3330:3368   */\n      mstore\n        /* \"#utility.yul\":3213:3375   */\n      pop\n      jump\t// out\n        /* \"#utility.yul\":3381:3747   */\n    tag_59:\n        /* \"#utility.yul\":3523:3526   */\n      0x00\n        /* \"#utility.yul\":3544:3611   */\n      tag_99\n        /* \"#utility.yul\":3608:3610   */\n      0x0c\n        /* \"#utility.yul\":3603:3606   */\n      dup4\n        /* \"#utility.yul\":3544:3611   */\n      tag_55\n      jump\t// in\n    tag_99:\n        /* \"#utility.yul\":3537:3611   */\n      swap2\n      pop\n        /* \"#utility.yul\":3620:3713   */\n      tag_100\n        /* \"#utility.yul\":3709:3712   */\n      dup3\n        /* \"#utility.yul\":3620:3713   */\n      tag_58\n      jump\t// in\n    tag_100:\n        /* \"#utility.yul\":3738:3740   */\n      0x20\n        /* \"#utility.yul\":3733:3736   */\n      dup3\n        /* \"#utility.yul\":3729:3741   */\n      add\n        /* \"#utility.yul\":3722:3741   */\n      swap1\n      pop\n        /* \"#utility.yul\":3381:3747   */\n      swap2\n      swap1\n      pop\n      jump\t// out\n        /* \"#utility.yul\":3753:4172   */\n    tag_32:\n        /* \"#utility.yul\":3919:3923   */\n      0x00\n        /* \"#utility.yul\":3957:3959   */\n      0x20\n        /* \"#utility.yul\":3946:3955   */\n      dup3\n        /* \"#utility.yul\":3942:3960   */\n      add\n        /* \"#utility.yul\":3934:3960   */\n      swap1\n      pop\n        /* \"#utility.yul\":4006:4015   */\n      dup2\n        /* \"#utility.yul\":4000:4004   */\n      dup2\n        /* \"#utility.yul\":3996:4016   */\n      sub\n        /* \"#utility.yul\":3992:3993   */\n      0x00\n        /* \"#utility.yul\":3981:3990   */\n      dup4\n        /* \"#utility.yul\":3977:3994   */\n      add\n        /* \"#utility.yul\":3970:4017   */\n      mstore\n        /* \"#utility.yul\":4034:4165   */\n      tag_102\n        /* \"#utility.yul\":4160:4164   */\n      dup2\n        /* \"#utility.yul\":4034:4165   */\n      tag_59\n      jump\t// in\n    tag_102:\n        /* \"#utility.yul\":4026:4165   */\n      swap1\n      pop\n        /* \"#utility.yul\":3753:4172   */\n      swap2\n      swap1\n      pop\n      jump\t// out\n        /* \"#utility.yul\":4178:4400   */\n    tag_34:\n        /* \"#utility.yul\":4271:4275   */\n      0x00\n        /* \"#utility.yul\":4309:4311   */\n      0x20\n        /* \"#utility.yul\":4298:4307   */\n      dup3\n        /* \"#utility.yul\":4294:4312   */\n      add\n        /* \"#utility.yul\":4286:4312   */\n      swap1\n      pop\n        /* \"#utility.yul\":4322:4393   */\n      tag_104\n        /* \"#utility.yul\":4390:4391   */\n      0x00\n        /* \"#utility.yul\":4379:4388   */\n      dup4\n        /* \"#utility.yul\":4375:4392   */\n      add\n        /* \"#utility.yul\":4366:4372   */\n      dup5\n        /* \"#utility.yul\":4322:4393   */\n      tag_54\n      jump\t// in\n    tag_104:\n        /* \"#utility.yul\":4178:4400   */\n      swap3\n      swap2\n      pop\n      pop\n      jump\t// out\n        /* \"#utility.yul\":4406:4626   */\n    tag_60:\n        /* \"#utility.yul\":4546:4580   */\n      0x506c6561736520456e746572204d6f6e65792047726561746572207468656e20\n        /* \"#utility.yul\":4542:4543   */\n      0x00\n        /* \"#utility.yul\":4534:4540   */\n      dup3\n        /* \"#utility.yul\":4530:4544   */\n      add\n        /* \"#utility.yul\":4523:4581   */\n      mstore\n        /* \"#utility.yul\":4615:4618   */\n      0x3000000000000000000000000000000000000000000000000000000000000000\n        /* \"#utility.yul\":4610:4612   */\n      0x20\n        /* \"#utility.yul\":4602:4608   */\n      dup3\n        /* \"#utility.yul\":4598:4613   */\n      add\n        /* \"#utility.yul\":4591:4619   */\n      mstore\n        /* \"#utility.yul\":4406:4626   */\n      pop\n      jump\t// out\n        /* \"#utility.yul\":4632:4998   */\n    tag_61:\n        /* \"#utility.yul\":4774:4777   */\n      0x00\n        /* \"#utility.yul\":4795:4862   */\n      tag_107\n        /* \"#utility.yul\":4859:4861   */\n      0x21\n        /* \"#utility.yul\":4854:4857   */\n      dup4\n        /* \"#utility.yul\":4795:4862   */\n      tag_55\n      jump\t// in\n    tag_107:\n        /* \"#utility.yul\":4788:4862   */\n      swap2\n      pop\n        /* \"#utility.yul\":4871:4964   */\n      tag_108\n        /* \"#utility.yul\":4960:4963   */\n      dup3\n        /* \"#utility.yul\":4871:4964   */\n      tag_60\n      jump\t// in\n    tag_108:\n        /* \"#utility.yul\":4989:4991   */\n      0x40\n        /* \"#utility.yul\":4984:4987   */\n      dup3\n        /* \"#utility.yul\":4980:4992   */\n      add\n        /* \"#utility.yul\":4973:4992   */\n      swap1\n      pop\n        /* \"#utility.yul\":4632:4998   */\n      swap2\n      swap1\n      pop\n      jump\t// out\n        /* \"#utility.yul\":5004:5423   */\n    tag_40:\n        /* \"#utility.yul\":5170:5174   */\n      0x00\n        /* \"#utility.yul\":5208:5210   */\n      0x20\n        /* \"#utility.yul\":5197:5206   */\n      dup3\n        /* \"#utility.yul\":5193:5211   */\n      add\n        /* \"#utility.yul\":5185:5211   */\n      swap1\n      pop\n        /* \"#utility.yul\":5257:5266   */\n      dup2\n        /* \"#utility.yul\":5251:5255   */\n      dup2\n        /* \"#utility.yul\":5247:5267   */\n      sub\n        /* \"#utility.yul\":5243:5244   */\n      0x00\n        /* \"#utility.yul\":5232:5241   */\n      dup4\n        /* \"#utility.yul\":5228:5245   */\n      add\n        /* \"#utility.yul\":5221:5268   */\n      mstore\n        /* \"#utility.yul\":5285:5416   */\n      tag_110\n        /* \"#utility.yul\":5411:5415   */\n      dup2\n        /* \"#utility.yul\":5285:5416   */\n      tag_61\n      jump\t// in\n    tag_110:\n        /* \"#utility.yul\":5277:5416   */\n      swap1\n      pop\n        /* \"#utility.yul\":5004:5423   */\n      swap2\n      swap1\n      pop\n      jump\t// out\n        /* \"#utility.yul\":5429:5603   */\n    tag_62:\n        /* \"#utility.yul\":5569:5595   */\n      0x416c72656164792054657374616d656e74204578697374730000000000000000\n        /* \"#utility.yul\":5565:5566   */\n      0x00\n        /* \"#utility.yul\":5557:5563   */\n      dup3\n        /* \"#utility.yul\":5553:5567   */\n      add\n        /* \"#utility.yul\":5546:5596   */\n      mstore\n        /* \"#utility.yul\":5429:5603   */\n      pop\n      jump\t// out\n        /* \"#utility.yul\":5609:5975   */\n    tag_63:\n        /* \"#utility.yul\":5751:5754   */\n      0x00\n        /* \"#utility.yul\":5772:5839   */\n      tag_113\n        /* \"#utility.yul\":5836:5838   */\n      0x18\n        /* \"#utility.yul\":5831:5834   */\n      dup4\n        /* \"#utility.yul\":5772:5839   */\n      tag_55\n      jump\t// in\n    tag_113:\n        /* \"#utility.yul\":5765:5839   */\n      swap2\n      pop\n        /* \"#utility.yul\":5848:5941   */\n      tag_114\n        /* \"#utility.yul\":5937:5940   */\n      dup3\n        /* \"#utility.yul\":5848:5941   */\n      tag_62\n      jump\t// in\n    tag_114:\n        /* \"#utility.yul\":5966:5968   */\n      0x20\n        /* \"#utility.yul\":5961:5964   */\n      dup3\n        /* \"#utility.yul\":5957:5969   */\n      add\n        /* \"#utility.yul\":5950:5969   */\n      swap1\n      pop\n        /* \"#utility.yul\":5609:5975   */\n      swap2\n      swap1\n      pop\n      jump\t// out\n        /* \"#utility.yul\":5981:6400   */\n    tag_43:\n        /* \"#utility.yul\":6147:6151   */\n      0x00\n        /* \"#utility.yul\":6185:6187   */\n      0x20\n        /* \"#utility.yul\":6174:6183   */\n      dup3\n        /* \"#utility.yul\":6170:6188   */\n      add\n        /* \"#utility.yul\":6162:6188   */\n      swap1\n      pop\n        /* \"#utility.yul\":6234:6243   */\n      dup2\n        /* \"#utility.yul\":6228:6232   */\n      dup2\n        /* \"#utility.yul\":6224:6244   */\n      sub\n        /* \"#utility.yul\":6220:6221   */\n      0x00\n        /* \"#utility.yul\":6209:6218   */\n      dup4\n        /* \"#utility.yul\":6205:6222   */\n      add\n        /* \"#utility.yul\":6198:6245   */\n      mstore\n        /* \"#utility.yul\":6262:6393   */\n      tag_116\n        /* \"#utility.yul\":6388:6392   */\n      dup2\n        /* \"#utility.yul\":6262:6393   */\n      tag_63\n      jump\t// in\n    tag_116:\n        /* \"#utility.yul\":6254:6393   */\n      swap1\n      pop\n        /* \"#utility.yul\":5981:6400   */\n      swap2\n      swap1\n      pop\n      jump\t// out\n\n    auxdata: 0xa2646970667358221220bbfa307a6566c8bec31c8d3a3c9efc366330513ebe033756c90d5120ebc44cbc64736f6c63430008120033\n}\n",
				"bytecode": {
					"linkReferences": {},
					"object": "608060405234801561001057600080fd5b50336000806101000a81548173ffffffffffffffffffffffffffffffffffffffff021916908373ffffffffffffffffffffffffffffffffffffffff160217905550610aa5806100606000396000f3fe60806040526004361061003f5760003560e01c80631af08c8b146100445780637dd3c71f146100825780639ed93318146100ab578063f0329f6b146100c7575b600080fd5b34801561005057600080fd5b5061006b600480360381019061006691906107d4565b6100f2565b604051610079929190610829565b60405180910390f35b34801561008e57600080fd5b506100a960048036038101906100a491906107d4565b61019e565b005b6100c560048036038101906100c091906107d4565b61055d565b005b3480156100d357600080fd5b506100dc61074d565b6040516100e99190610852565b60405180910390f35b600080600160008473ffffffffffffffffffffffffffffffffffffffff1673ffffffffffffffffffffffffffffffffffffffff16815260200190815260200160002060009054906101000a900473ffffffffffffffffffffffffffffffffffffffff16600260008573ffffffffffffffffffffffffffffffffffffffff1673ffffffffffffffffffffffffffffffffffffffff1681526020019081526020016000205491509150915091565b60008054906101000a900473ffffffffffffffffffffffffffffffffffffffff1673ffffffffffffffffffffffffffffffffffffffff163373ffffffffffffffffffffffffffffffffffffffff161461022c576040517f08c379a0000000000000000000000000000000000000000000000000000000008152600401610223906108ca565b60405180910390fd5b6000600260008373ffffffffffffffffffffffffffffffffffffffff1673ffffffffffffffffffffffffffffffffffffffff16815260200190815260200160002054116102ae576040517f08c379a00000000000000000000000000000000000000000000000000000000081526004016102a590610936565b60405180910390fd5b600160008273ffffffffffffffffffffffffffffffffffffffff1673ffffffffffffffffffffffffffffffffffffffff16815260200190815260200160002060009054906101000a900473ffffffffffffffffffffffffffffffffffffffff1673ffffffffffffffffffffffffffffffffffffffff168173ffffffffffffffffffffffffffffffffffffffff167fea30da65b72604a9629f85acedfd7519bcee57ae8151888b0d949562107968b7600260008573ffffffffffffffffffffffffffffffffffffffff1673ffffffffffffffffffffffffffffffffffffffff168152602001908152602001600020546040516103a99190610956565b60405180910390a3600160008273ffffffffffffffffffffffffffffffffffffffff1673ffffffffffffffffffffffffffffffffffffffff16815260200190815260200160002060009054906101000a900473ffffffffffffffffffffffffffffffffffffffff1673ffffffffffffffffffffffffffffffffffffffff166108fc600260008473ffffffffffffffffffffffffffffffffffffffff1673ffffffffffffffffffffffffffffffffffffffff168152602001908152602001600020549081150290604051600060405180830381858888f19350505050158015610495573d6000803e3d6000fd5b506000600260008373ffffffffffffffffffffffffffffffffffffffff1673ffffffffffffffffffffffffffffffffffffffff168152602001908152602001600020819055506000600160008373ffffffffffffffffffffffffffffffffffffffff1673ffffffffffffffffffffffffffffffffffffffff16815260200190815260200160002060006101000a81548173ffffffffffffffffffffffffffffffffffffffff021916908373ffffffffffffffffffffffffffffffffffffffff16021790555050565b600034116105a0576040517f08c379a0000000000000000000000000000000000000000000000000000000008152600401610597906109e3565b60405180910390fd5b6000600260003373ffffffffffffffffffffffffffffffffffffffff1673ffffffffffffffffffffffffffffffffffffffff168152602001908152602001600020541115610623576040517f08c379a000000000000000000000000000000000000000000000000000000000815260040161061a90610a4f565b60405180910390fd5b80600160003373ffffffffffffffffffffffffffffffffffffffff1673ffffffffffffffffffffffffffffffffffffffff16815260200190815260200160002060006101000a81548173ffffffffffffffffffffffffffffffffffffffff021916908373ffffffffffffffffffffffffffffffffffffffff16021790555034600260003373ffffffffffffffffffffffffffffffffffffffff1673ffffffffffffffffffffffffffffffffffffffff168152602001908152602001600020819055508073ffffffffffffffffffffffffffffffffffffffff163373ffffffffffffffffffffffffffffffffffffffff167f923f1fa2c44c3aec741bc0bb74cfdb2d73d61ea532799cda54b2941d89ab9fc6346040516107429190610956565b60405180910390a350565b60008054906101000a900473ffffffffffffffffffffffffffffffffffffffff1681565b600080fd5b600073ffffffffffffffffffffffffffffffffffffffff82169050919050565b60006107a182610776565b9050919050565b6107b181610796565b81146107bc57600080fd5b50565b6000813590506107ce816107a8565b92915050565b6000602082840312156107ea576107e9610771565b5b60006107f8848285016107bf565b91505092915050565b61080a81610796565b82525050565b6000819050919050565b61082381610810565b82525050565b600060408201905061083e6000830185610801565b61084b602083018461081a565b9392505050565b60006020820190506108676000830184610801565b92915050565b600082825260208201905092915050565b7f556e617574686f72697a65640000000000000000000000000000000000000000600082015250565b60006108b4600c8361086d565b91506108bf8261087e565b602082019050919050565b600060208201905081810360008301526108e3816108a7565b9050919050565b7f4e6f2074657374616d656e740000000000000000000000000000000000000000600082015250565b6000610920600c8361086d565b915061092b826108ea565b602082019050919050565b6000602082019050818103600083015261094f81610913565b9050919050565b600060208201905061096b600083018461081a565b92915050565b7f506c6561736520456e746572204d6f6e65792047726561746572207468656e2060008201527f3000000000000000000000000000000000000000000000000000000000000000602082015250565b60006109cd60218361086d565b91506109d882610971565b604082019050919050565b600060208201905081810360008301526109fc816109c0565b9050919050565b7f416c72656164792054657374616d656e74204578697374730000000000000000600082015250565b6000610a3960188361086d565b9150610a4482610a03565b602082019050919050565b60006020820190508181036000830152610a6881610a2c565b905091905056fea2646970667358221220bbfa307a6566c8bec31c8d3a3c9efc366330513ebe033756c90d5120ebc44cbc64736f6c63430008120033",
					"opcodes": "PUSH1 0x80 PUSH1 0x40 MSTORE CALLVALUE DUP1 ISZERO PUSH2 0x10 JUMPI PUSH1 0x0 DUP1 REVERT JUMPDEST POP CALLER PUSH1 0x0 DUP1 PUSH2 0x100 EXP DUP2 SLOAD DUP2 PUSH20 0xFFFFFFFFFFFFFFFFFFFFFFFFFFFFFFFFFFFFFFFF MUL NOT AND SWAP1 DUP4 PUSH20 0xFFFFFFFFFFFFFFFFFFFFFFFFFFFFFFFFFFFFFFFF AND MUL OR SWAP1 SSTORE POP PUSH2 0xAA5 DUP1 PUSH2 0x60 PUSH1 0x0 CODECOPY PUSH1 0x0 RETURN INVALID PUSH1 0x80 PUSH1 0x40 MSTORE PUSH1 0x4 CALLDATASIZE LT PUSH2 0x3F JUMPI PUSH1 0x0 CALLDATALOAD PUSH1 0xE0 SHR DUP1 PUSH4 0x1AF08C8B EQ PUSH2 0x44 JUMPI DUP1 PUSH4 0x7DD3C71F EQ PUSH2 0x82 JUMPI DUP1 PUSH4 0x9ED93318 EQ PUSH2 0xAB JUMPI DUP1 PUSH4 0xF0329F6B EQ PUSH2 0xC7 JUMPI JUMPDEST PUSH1 0x0 DUP1 REVERT JUMPDEST CALLVALUE DUP1 ISZERO PUSH2 0x50 JUMPI PUSH1 0x0 DUP1 REVERT JUMPDEST POP PUSH2 0x6B PUSH1 0x4 DUP1 CALLDATASIZE SUB DUP2 ADD SWAP1 PUSH2 0x66 SWAP2 SWAP1 PUSH2 0x7D4 JUMP JUMPDEST PUSH2 0xF2 JUMP JUMPDEST PUSH1 0x40 MLOAD PUSH2 0x79 SWAP3 SWAP2 SWAP1 PUSH2 0x829 JUMP JUMPDEST PUSH1 0x40 MLOAD DUP1 SWAP2 SUB SWAP1 RETURN JUMPDEST CALLVALUE DUP1 ISZERO PUSH2 0x8E JUMPI PUSH1 0x0 DUP1 REVERT JUMPDEST POP PUSH2 0xA9 PUSH1 0x4 DUP1 CALLDATASIZE SUB DUP2 ADD SWAP1 PUSH2 0xA4 SWAP2 SWAP1 PUSH2 0x7D4 JUMP JUMPDEST PUSH2 0x19E JUMP JUMPDEST STOP JUMPDEST PUSH2 0xC5 PUSH1 0x4 DUP1 CALLDATASIZE SUB DUP2 ADD SWAP1 PUSH2 0xC0 SWAP2 SWAP1 PUSH2 0x7D4 JUMP JUMPDEST PUSH2 0x55D JUMP JUMPDEST STOP JUMPDEST CALLVALUE DUP1 ISZERO PUSH2 0xD3 JUMPI PUSH1 0x0 DUP1 REVERT JUMPDEST POP PUSH2 0xDC PUSH2 0x74D JUMP JUMPDEST PUSH1 0x40 MLOAD PUSH2 0xE9 SWAP2 SWAP1 PUSH2 0x852 JUMP JUMPDEST PUSH1 0x40 MLOAD DUP1 SWAP2 SUB SWAP1 RETURN JUMPDEST PUSH1 0x0 DUP1 PUSH1 0x1 PUSH1 0x0 DUP5 PUSH20 0xFFFFFFFFFFFFFFFFFFFFFFFFFFFFFFFFFFFFFFFF AND PUSH20 0xFFFFFFFFFFFFFFFFFFFFFFFFFFFFFFFFFFFFFFFF AND DUP2 MSTORE PUSH1 0x20 ADD SWAP1 DUP2 MSTORE PUSH1 0x20 ADD PUSH1 0x0 KECCAK256 PUSH1 0x0 SWAP1 SLOAD SWAP1 PUSH2 0x100 EXP SWAP1 DIV PUSH20 0xFFFFFFFFFFFFFFFFFFFFFFFFFFFFFFFFFFFFFFFF AND PUSH1 0x2 PUSH1 0x0 DUP6 PUSH20 0xFFFFFFFFFFFFFFFFFFFFFFFFFFFFFFFFFFFFFFFF AND PUSH20 0xFFFFFFFFFFFFFFFFFFFFFFFFFFFFFFFFFFFFFFFF AND DUP2 MSTORE PUSH1 0x20 ADD SWAP1 DUP2 MSTORE PUSH1 0x20 ADD PUSH1 0x0 KECCAK256 SLOAD SWAP2 POP SWAP2 POP SWAP2 POP SWAP2 JUMP JUMPDEST PUSH1 0x0 DUP1 SLOAD SWAP1 PUSH2 0x100 EXP SWAP1 DIV PUSH20 0xFFFFFFFFFFFFFFFFFFFFFFFFFFFFFFFFFFFFFFFF AND PUSH20 0xFFFFFFFFFFFFFFFFFFFFFFFFFFFFFFFFFFFFFFFF AND CALLER PUSH20 0xFFFFFFFFFFFFFFFFFFFFFFFFFFFFFFFFFFFFFFFF AND EQ PUSH2 0x22C JUMPI PUSH1 0x40 MLOAD PUSH32 0x8C379A000000000000000000000000000000000000000000000000000000000 DUP2 MSTORE PUSH1 0x4 ADD PUSH2 0x223 SWAP1 PUSH2 0x8CA JUMP JUMPDEST PUSH1 0x40 MLOAD DUP1 SWAP2 SUB SWAP1 REVERT JUMPDEST PUSH1 0x0 PUSH1 0x2 PUSH1 0x0 DUP4 PUSH20 0xFFFFFFFFFFFFFFFFFFFFFFFFFFFFFFFFFFFFFFFF AND PUSH20 0xFFFFFFFFFFFFFFFFFFFFFFFFFFFFFFFFFFFFFFFF AND DUP2 MSTORE PUSH1 0x20 ADD SWAP1 DUP2 MSTORE PUSH1 0x20 ADD PUSH1 0x0 KECCAK256 SLOAD GT PUSH2 0x2AE JUMPI PUSH1 0x40 MLOAD PUSH32 0x8C379A000000000000000000000000000000000000000000000000000000000 DUP2 MSTORE PUSH1 0x4 ADD PUSH2 0x2A5 SWAP1 PUSH2 0x936 JUMP JUMPDEST PUSH1 0x40 MLOAD DUP1 SWAP2 SUB SWAP1 REVERT JUMPDEST PUSH1 0x1 PUSH1 0x0 DUP3 PUSH20 0xFFFFFFFFFFFFFFFFFFFFFFFFFFFFFFFFFFFFFFFF AND PUSH20 0xFFFFFFFFFFFFFFFFFFFFFFFFFFFFFFFFFFFFFFFF AND DUP2 MSTORE PUSH1 0x20 ADD SWAP1 DUP2 MSTORE PUSH1 0x20 ADD PUSH1 0x0 KECCAK256 PUSH1 0x0 SWAP1 SLOAD SWAP1 PUSH2 0x100 EXP SWAP1 DIV PUSH20 0xFFFFFFFFFFFFFFFFFFFFFFFFFFFFFFFFFFFFFFFF AND PUSH20 0xFFFFFFFFFFFFFFFFFFFFFFFFFFFFFFFFFFFFFFFF AND DUP2 PUSH20 0xFFFFFFFFFFFFFFFFFFFFFFFFFFFFFFFFFFFFFFFF AND PUSH32 0xEA30DA65B72604A9629F85ACEDFD7519BCEE57AE8151888B0D949562107968B7 PUSH1 0x2 PUSH1 0x0 DUP6 PUSH20 0xFFFFFFFFFFFFFFFFFFFFFFFFFFFFFFFFFFFFFFFF AND PUSH20 0xFFFFFFFFFFFFFFFFFFFFFFFFFFFFFFFFFFFFFFFF AND DUP2 MSTORE PUSH1 0x20 ADD SWAP1 DUP2 MSTORE PUSH1 0x20 ADD PUSH1 0x0 KECCAK256 SLOAD PUSH1 0x40 MLOAD PUSH2 0x3A9 SWAP2 SWAP1 PUSH2 0x956 JUMP JUMPDEST PUSH1 0x40 MLOAD DUP1 SWAP2 SUB SWAP1 LOG3 PUSH1 0x1 PUSH1 0x0 DUP3 PUSH20 0xFFFFFFFFFFFFFFFFFFFFFFFFFFFFFFFFFFFFFFFF AND PUSH20 0xFFFFFFFFFFFFFFFFFFFFFFFFFFFFFFFFFFFFFFFF AND DUP2 MSTORE PUSH1 0x20 ADD SWAP1 DUP2 MSTORE PUSH1 0x20 ADD PUSH1 0x0 KECCAK256 PUSH1 0x0 SWAP1 SLOAD SWAP1 PUSH2 0x100 EXP SWAP1 DIV PUSH20 0xFFFFFFFFFFFFFFFFFFFFFFFFFFFFFFFFFFFFFFFF AND PUSH20 0xFFFFFFFFFFFFFFFFFFFFFFFFFFFFFFFFFFFFFFFF AND PUSH2 0x8FC PUSH1 0x2 PUSH1 0x0 DUP5 PUSH20 0xFFFFFFFFFFFFFFFFFFFFFFFFFFFFFFFFFFFFFFFF AND PUSH20 0xFFFFFFFFFFFFFFFFFFFFFFFFFFFFFFFFFFFFFFFF AND DUP2 MSTORE PUSH1 0x20 ADD SWAP1 DUP2 MSTORE PUSH1 0x20 ADD PUSH1 0x0 KECCAK256 SLOAD SWAP1 DUP2 ISZERO MUL SWAP1 PUSH1 0x40 MLOAD PUSH1 0x0 PUSH1 0x40 MLOAD DUP1 DUP4 SUB DUP2 DUP6 DUP9 DUP9 CALL SWAP4 POP POP POP POP ISZERO DUP1 ISZERO PUSH2 0x495 JUMPI RETURNDATASIZE PUSH1 0x0 DUP1 RETURNDATACOPY RETURNDATASIZE PUSH1 0x0 REVERT JUMPDEST POP PUSH1 0x0 PUSH1 0x2 PUSH1 0x0 DUP4 PUSH20 0xFFFFFFFFFFFFFFFFFFFFFFFFFFFFFFFFFFFFFFFF AND PUSH20 0xFFFFFFFFFFFFFFFFFFFFFFFFFFFFFFFFFFFFFFFF AND DUP2 MSTORE PUSH1 0x20 ADD SWAP1 DUP2 MSTORE PUSH1 0x20 ADD PUSH1 0x0 KECCAK256 DUP2 SWAP1 SSTORE POP PUSH1 0x0 PUSH1 0x1 PUSH1 0x0 DUP4 PUSH20 0xFFFFFFFFFFFFFFFFFFFFFFFFFFFFFFFFFFFFFFFF AND PUSH20 0xFFFFFFFFFFFFFFFFFFFFFFFFFFFFFFFFFFFFFFFF AND DUP2 MSTORE PUSH1 0x20 ADD SWAP1 DUP2 MSTORE PUSH1 0x20 ADD PUSH1 0x0 KECCAK256 PUSH1 0x0 PUSH2 0x100 EXP DUP2 SLOAD DUP2 PUSH20 0xFFFFFFFFFFFFFFFFFFFFFFFFFFFFFFFFFFFFFFFF MUL NOT AND SWAP1 DUP4 PUSH20 0xFFFFFFFFFFFFFFFFFFFFFFFFFFFFFFFFFFFFFFFF AND MUL OR SWAP1 SSTORE POP POP JUMP JUMPDEST PUSH1 0x0 CALLVALUE GT PUSH2 0x5A0 JUMPI PUSH1 0x40 MLOAD PUSH32 0x8C379A000000000000000000000000000000000000000000000000000000000 DUP2 MSTORE PUSH1 0x4 ADD PUSH2 0x597 SWAP1 PUSH2 0x9E3 JUMP JUMPDEST PUSH1 0x40 MLOAD DUP1 SWAP2 SUB SWAP1 REVERT JUMPDEST PUSH1 0x0 PUSH1 0x2 PUSH1 0x0 CALLER PUSH20 0xFFFFFFFFFFFFFFFFFFFFFFFFFFFFFFFFFFFFFFFF AND PUSH20 0xFFFFFFFFFFFFFFFFFFFFFFFFFFFFFFFFFFFFFFFF AND DUP2 MSTORE PUSH1 0x20 ADD SWAP1 DUP2 MSTORE PUSH1 0x20 ADD PUSH1 0x0 KECCAK256 SLOAD GT ISZERO PUSH2 0x623 JUMPI PUSH1 0x40 MLOAD PUSH32 0x8C379A000000000000000000000000000000000000000000000000000000000 DUP2 MSTORE PUSH1 0x4 ADD PUSH2 0x61A SWAP1 PUSH2 0xA4F JUMP JUMPDEST PUSH1 0x40 MLOAD DUP1 SWAP2 SUB SWAP1 REVERT JUMPDEST DUP1 PUSH1 0x1 PUSH1 0x0 CALLER PUSH20 0xFFFFFFFFFFFFFFFFFFFFFFFFFFFFFFFFFFFFFFFF AND PUSH20 0xFFFFFFFFFFFFFFFFFFFFFFFFFFFFFFFFFFFFFFFF AND DUP2 MSTORE PUSH1 0x20 ADD SWAP1 DUP2 MSTORE PUSH1 0x20 ADD PUSH1 0x0 KECCAK256 PUSH1 0x0 PUSH2 0x100 EXP DUP2 SLOAD DUP2 PUSH20 0xFFFFFFFFFFFFFFFFFFFFFFFFFFFFFFFFFFFFFFFF MUL NOT AND SWAP1 DUP4 PUSH20 0xFFFFFFFFFFFFFFFFFFFFFFFFFFFFFFFFFFFFFFFF AND MUL OR SWAP1 SSTORE POP CALLVALUE PUSH1 0x2 PUSH1 0x0 CALLER PUSH20 0xFFFFFFFFFFFFFFFFFFFFFFFFFFFFFFFFFFFFFFFF AND PUSH20 0xFFFFFFFFFFFFFFFFFFFFFFFFFFFFFFFFFFFFFFFF AND DUP2 MSTORE PUSH1 0x20 ADD SWAP1 DUP2 MSTORE PUSH1 0x20 ADD PUSH1 0x0 KECCAK256 DUP2 SWAP1 SSTORE POP DUP1 PUSH20 0xFFFFFFFFFFFFFFFFFFFFFFFFFFFFFFFFFFFFFFFF AND CALLER PUSH20 0xFFFFFFFFFFFFFFFFFFFFFFFFFFFFFFFFFFFFFFFF AND PUSH32 0x923F1FA2C44C3AEC741BC0BB74CFDB2D73D61EA532799CDA54B2941D89AB9FC6 CALLVALUE PUSH1 0x40 MLOAD PUSH2 0x742 SWAP2 SWAP1 PUSH2 0x956 JUMP JUMPDEST PUSH1 0x40 MLOAD DUP1 SWAP2 SUB SWAP1 LOG3 POP JUMP JUMPDEST PUSH1 0x0 DUP1 SLOAD SWAP1 PUSH2 0x100 EXP SWAP1 DIV PUSH20 0xFFFFFFFFFFFFFFFFFFFFFFFFFFFFFFFFFFFFFFFF AND DUP2 JUMP JUMPDEST PUSH1 0x0 DUP1 REVERT JUMPDEST PUSH1 0x0 PUSH20 0xFFFFFFFFFFFFFFFFFFFFFFFFFFFFFFFFFFFFFFFF DUP3 AND SWAP1 POP SWAP2 SWAP1 POP JUMP JUMPDEST PUSH1 0x0 PUSH2 0x7A1 DUP3 PUSH2 0x776 JUMP JUMPDEST SWAP1 POP SWAP2 SWAP1 POP JUMP JUMPDEST PUSH2 0x7B1 DUP2 PUSH2 0x796 JUMP JUMPDEST DUP2 EQ PUSH2 0x7BC JUMPI PUSH1 0x0 DUP1 REVERT JUMPDEST POP JUMP JUMPDEST PUSH1 0x0 DUP2 CALLDATALOAD SWAP1 POP PUSH2 0x7CE DUP2 PUSH2 0x7A8 JUMP JUMPDEST SWAP3 SWAP2 POP POP JUMP JUMPDEST PUSH1 0x0 PUSH1 0x20 DUP3 DUP5 SUB SLT ISZERO PUSH2 0x7EA JUMPI PUSH2 0x7E9 PUSH2 0x771 JUMP JUMPDEST JUMPDEST PUSH1 0x0 PUSH2 0x7F8 DUP5 DUP3 DUP6 ADD PUSH2 0x7BF JUMP JUMPDEST SWAP2 POP POP SWAP3 SWAP2 POP POP JUMP JUMPDEST PUSH2 0x80A DUP2 PUSH2 0x796 JUMP JUMPDEST DUP3 MSTORE POP POP JUMP JUMPDEST PUSH1 0x0 DUP2 SWAP1 POP SWAP2 SWAP1 POP JUMP JUMPDEST PUSH2 0x823 DUP2 PUSH2 0x810 JUMP JUMPDEST DUP3 MSTORE POP POP JUMP JUMPDEST PUSH1 0x0 PUSH1 0x40 DUP3 ADD SWAP1 POP PUSH2 0x83E PUSH1 0x0 DUP4 ADD DUP6 PUSH2 0x801 JUMP JUMPDEST PUSH2 0x84B PUSH1 0x20 DUP4 ADD DUP5 PUSH2 0x81A JUMP JUMPDEST SWAP4 SWAP3 POP POP POP JUMP JUMPDEST PUSH1 0x0 PUSH1 0x20 DUP3 ADD SWAP1 POP PUSH2 0x867 PUSH1 0x0 DUP4 ADD DUP5 PUSH2 0x801 JUMP JUMPDEST SWAP3 SWAP2 POP POP JUMP JUMPDEST PUSH1 0x0 DUP3 DUP3 MSTORE PUSH1 0x20 DUP3 ADD SWAP1 POP SWAP3 SWAP2 POP POP JUMP JUMPDEST PUSH32 0x556E617574686F72697A65640000000000000000000000000000000000000000 PUSH1 0x0 DUP3 ADD MSTORE POP JUMP JUMPDEST PUSH1 0x0 PUSH2 0x8B4 PUSH1 0xC DUP4 PUSH2 0x86D JUMP JUMPDEST SWAP2 POP PUSH2 0x8BF DUP3 PUSH2 0x87E JUMP JUMPDEST PUSH1 0x20 DUP3 ADD SWAP1 POP SWAP2 SWAP1 POP JUMP JUMPDEST PUSH1 0x0 PUSH1 0x20 DUP3 ADD SWAP1 POP DUP2 DUP2 SUB PUSH1 0x0 DUP4 ADD MSTORE PUSH2 0x8E3 DUP2 PUSH2 0x8A7 JUMP JUMPDEST SWAP1 POP SWAP2 SWAP1 POP JUMP JUMPDEST PUSH32 0x4E6F2074657374616D656E740000000000000000000000000000000000000000 PUSH1 0x0 DUP3 ADD MSTORE POP JUMP JUMPDEST PUSH1 0x0 PUSH2 0x920 PUSH1 0xC DUP4 PUSH2 0x86D JUMP JUMPDEST SWAP2 POP PUSH2 0x92B DUP3 PUSH2 0x8EA JUMP JUMPDEST PUSH1 0x20 DUP3 ADD SWAP1 POP SWAP2 SWAP1 POP JUMP JUMPDEST PUSH1 0x0 PUSH1 0x20 DUP3 ADD SWAP1 POP DUP2 DUP2 SUB PUSH1 0x0 DUP4 ADD MSTORE PUSH2 0x94F DUP2 PUSH2 0x913 JUMP JUMPDEST SWAP1 POP SWAP2 SWAP1 POP JUMP JUMPDEST PUSH1 0x0 PUSH1 0x20 DUP3 ADD SWAP1 POP PUSH2 0x96B PUSH1 0x0 DUP4 ADD DUP5 PUSH2 0x81A JUMP JUMPDEST SWAP3 SWAP2 POP POP JUMP JUMPDEST PUSH32 0x506C6561736520456E746572204D6F6E65792047726561746572207468656E20 PUSH1 0x0 DUP3 ADD MSTORE PUSH32 0x3000000000000000000000000000000000000000000000000000000000000000 PUSH1 0x20 DUP3 ADD MSTORE POP JUMP JUMPDEST PUSH1 0x0 PUSH2 0x9CD PUSH1 0x21 DUP4 PUSH2 0x86D JUMP JUMPDEST SWAP2 POP PUSH2 0x9D8 DUP3 PUSH2 0x971 JUMP JUMPDEST PUSH1 0x40 DUP3 ADD SWAP1 POP SWAP2 SWAP1 POP JUMP JUMPDEST PUSH1 0x0 PUSH1 0x20 DUP3 ADD SWAP1 POP DUP2 DUP2 SUB PUSH1 0x0 DUP4 ADD MSTORE PUSH2 0x9FC DUP2 PUSH2 0x9C0 JUMP JUMPDEST SWAP1 POP SWAP2 SWAP1 POP JUMP JUMPDEST PUSH32 0x416C72656164792054657374616D656E74204578697374730000000000000000 PUSH1 0x0 DUP3 ADD MSTORE POP JUMP JUMPDEST PUSH1 0x0 PUSH2 0xA39 PUSH1 0x18 DUP4 PUSH2 0x86D JUMP JUMPDEST SWAP2 POP PUSH2 0xA44 DUP3 PUSH2 0xA03 JUMP JUMPDEST PUSH1 0x20 DUP3 ADD SWAP1 POP SWAP2 SWAP1 POP JUMP JUMPDEST PUSH1 0x0 PUSH1 0x20 DUP3 ADD SWAP1 POP DUP2 DUP2 SUB PUSH1 0x0 DUP4 ADD MSTORE PUSH2 0xA68 DUP2 PUSH2 0xA2C JUMP JUMPDEST SWAP1 POP SWAP2 SWAP1 POP JUMP INVALID LOG2 PUSH5 0x6970667358 0x22 SLT KECCAK256 0xBB STATICCALL ADDRESS PUSH27 0x6566C8BEC31C8D3A3C9EFC366330513EBE033756C90D5120EBC44C 0xBC PUSH5 0x736F6C6343 STOP ADDMOD SLT STOP CALLER "
				},
				"gasEstimates": {
					"creation": {
						"codeDepositCost": "545000",
						"executionCost": "24847",
						"totalCost": "569847"
					},
					"external": {
						"_manager()": "2555",
						"create(address)": "51205",
						"getTestament(address)": "infinite",
						"reportofDeath(address)": "infinite"
					}
				},
				"methodIdentifiers": {
					"_manager()": "f0329f6b",
					"create(address)": "9ed93318",
					"getTestament(address)": "1af08c8b",
					"reportofDeath(address)": "7dd3c71f"
				}
			},
			"storageLayout": {
				"storage": [
					{
						"astId": 3,
						"contract": "contracts/Testament.sol:Testament",
						"label": "_manager",
						"offset": 0,
						"slot": "0",
						"type": "t_address"
					},
					{
						"astId": 7,
						"contract": "contracts/Testament.sol:Testament",
						"label": "_heir",
						"offset": 0,
						"slot": "1",
						"type": "t_mapping(t_address,t_address)"
					},
					{
						"astId": 11,
						"contract": "contracts/Testament.sol:Testament",
						"label": "_balance",
						"offset": 0,
						"slot": "2",
						"type": "t_mapping(t_address,t_uint256)"
					}
				],
				"types": {
					"t_address": {
						"encoding": "inplace",
						"label": "address",
						"numberOfBytes": "20"
					},
					"t_mapping(t_address,t_address)": {
						"encoding": "mapping",
						"key": "t_address",
						"label": "mapping(address => address)",
						"numberOfBytes": "32",
						"value": "t_address"
					},
					"t_mapping(t_address,t_uint256)": {
						"encoding": "mapping",
						"key": "t_address",
						"label": "mapping(address => uint256)",
						"numberOfBytes": "32",
						"value": "t_uint256"
					},
					"t_uint256": {
						"encoding": "inplace",
						"label": "uint256",
						"numberOfBytes": "32"
					}
				}
			},
			"userdoc": {
				"kind": "user",
				"methods": {},
				"version": 1
			}
		}
	}
}