{
	"contracts/Lotttery.sol": {
		"Lottery": {
			"abi": [
				{
					"inputs": [],
					"stateMutability": "nonpayable",
					"type": "constructor"
				},
				{
					"inputs": [],
					"name": "buyLottery",
					"outputs": [],
					"stateMutability": "payable",
					"type": "function"
				},
				{
					"inputs": [],
					"name": "getBalance",
					"outputs": [
						{
							"internalType": "uint256",
							"name": "",
							"type": "uint256"
						}
					],
					"stateMutability": "view",
					"type": "function"
				},
				{
					"inputs": [],
					"name": "getLength",
					"outputs": [
						{
							"internalType": "uint256",
							"name": "",
							"type": "uint256"
						}
					],
					"stateMutability": "view",
					"type": "function"
				},
				{
					"inputs": [],
					"name": "randomNumber",
					"outputs": [
						{
							"internalType": "uint256",
							"name": "",
							"type": "uint256"
						}
					],
					"stateMutability": "view",
					"type": "function"
				},
				{
					"inputs": [],
					"name": "selectWinner",
					"outputs": [],
					"stateMutability": "nonpayable",
					"type": "function"
				}
			],
			"devdoc": {
				"kind": "dev",
				"methods": {},
				"version": 1
			},
			"evm": {
				"assembly": "    /* \"contracts/Lotttery.sol\":60:1143  contract Lottery{... */\n  mstore(0x40, 0x80)\n    /* \"contracts/Lotttery.sol\":143:195  constructor(){... */\n  callvalue\n  dup1\n  iszero\n  tag_1\n  jumpi\n  0x00\n  dup1\n  revert\ntag_1:\n  pop\n    /* \"contracts/Lotttery.sol\":177:187  msg.sender */\n  caller\n    /* \"contracts/Lotttery.sol\":167:174  manager */\n  0x00\n  dup1\n    /* \"contracts/Lotttery.sol\":167:187  manager = msg.sender */\n  0x0100\n  exp\n  dup2\n  sload\n  dup2\n  0xffffffffffffffffffffffffffffffffffffffff\n  mul\n  not\n  and\n  swap1\n  dup4\n  0xffffffffffffffffffffffffffffffffffffffff\n  and\n  mul\n  or\n  swap1\n  sstore\n  pop\n    /* \"contracts/Lotttery.sol\":60:1143  contract Lottery{... */\n  dataSize(sub_0)\n  dup1\n  dataOffset(sub_0)\n  0x00\n  codecopy\n  0x00\n  return\nstop\n\nsub_0: assembly {\n        /* \"contracts/Lotttery.sol\":60:1143  contract Lottery{... */\n      mstore(0x40, 0x80)\n      jumpi(tag_1, lt(calldatasize, 0x04))\n      shr(0xe0, calldataload(0x00))\n      dup1\n      0x12065fe0\n      eq\n      tag_2\n      jumpi\n      dup1\n      0x33a99e04\n      eq\n      tag_3\n      jumpi\n      dup1\n      0x8fccdd63\n      eq\n      tag_4\n      jumpi\n      dup1\n      0xbe1c766b\n      eq\n      tag_5\n      jumpi\n      dup1\n      0xccbac9f5\n      eq\n      tag_6\n      jumpi\n    tag_1:\n      0x00\n      dup1\n      revert\n        /* \"contracts/Lotttery.sol\":201:295  function getBalance() public view returns(uint){... */\n    tag_2:\n      callvalue\n      dup1\n      iszero\n      tag_7\n      jumpi\n      0x00\n      dup1\n      revert\n    tag_7:\n      pop\n      tag_8\n      tag_9\n      jump\t// in\n    tag_8:\n      mload(0x40)\n      tag_10\n      swap2\n      swap1\n      tag_11\n      jump\t// in\n    tag_10:\n      mload(0x40)\n      dup1\n      swap2\n      sub\n      swap1\n      return\n        /* \"contracts/Lotttery.sol\":725:1140  function selectWinner() public{... */\n    tag_3:\n      callvalue\n      dup1\n      iszero\n      tag_12\n      jumpi\n      0x00\n      dup1\n      revert\n    tag_12:\n      pop\n      tag_13\n      tag_14\n      jump\t// in\n    tag_13:\n      stop\n        /* \"contracts/Lotttery.sol\":301:462  function buyLottery() public payable{... */\n    tag_4:\n      tag_15\n      tag_16\n      jump\t// in\n    tag_15:\n      stop\n        /* \"contracts/Lotttery.sol\":468:554  function getLength() public view returns(uint){... */\n    tag_5:\n      callvalue\n      dup1\n      iszero\n      tag_17\n      jumpi\n      0x00\n      dup1\n      revert\n    tag_17:\n      pop\n      tag_18\n      tag_19\n      jump\t// in\n    tag_18:\n      mload(0x40)\n      tag_20\n      swap2\n      swap1\n      tag_11\n      jump\t// in\n    tag_20:\n      mload(0x40)\n      dup1\n      swap2\n      sub\n      swap1\n      return\n        /* \"contracts/Lotttery.sol\":560:719  function randomNumber() public view returns(uint){... */\n    tag_6:\n      callvalue\n      dup1\n      iszero\n      tag_21\n      jumpi\n      0x00\n      dup1\n      revert\n    tag_21:\n      pop\n      tag_22\n      tag_23\n      jump\t// in\n    tag_22:\n      mload(0x40)\n      tag_24\n      swap2\n      swap1\n      tag_11\n      jump\t// in\n    tag_24:\n      mload(0x40)\n      dup1\n      swap2\n      sub\n      swap1\n      return\n        /* \"contracts/Lotttery.sol\":201:295  function getBalance() public view returns(uint){... */\n    tag_9:\n        /* \"contracts/Lotttery.sol\":243:247  uint */\n      0x00\n        /* \"contracts/Lotttery.sol\":266:287  address(this).balance */\n      selfbalance\n        /* \"contracts/Lotttery.sol\":259:287  return address(this).balance */\n      swap1\n      pop\n        /* \"contracts/Lotttery.sol\":201:295  function getBalance() public view returns(uint){... */\n      swap1\n      jump\t// out\n        /* \"contracts/Lotttery.sol\":725:1140  function selectWinner() public{... */\n    tag_14:\n        /* \"contracts/Lotttery.sol\":788:795  manager */\n      0x00\n      dup1\n      sload\n      swap1\n      0x0100\n      exp\n      swap1\n      div\n      0xffffffffffffffffffffffffffffffffffffffff\n      and\n        /* \"contracts/Lotttery.sol\":774:795  msg.sender == manager */\n      0xffffffffffffffffffffffffffffffffffffffff\n      and\n        /* \"contracts/Lotttery.sol\":774:784  msg.sender */\n      caller\n        /* \"contracts/Lotttery.sol\":774:795  msg.sender == manager */\n      0xffffffffffffffffffffffffffffffffffffffff\n      and\n      eq\n        /* \"contracts/Lotttery.sol\":766:817  require(msg.sender == manager, \"You can't Manager\") */\n      tag_27\n      jumpi\n      mload(0x40)\n      0x08c379a000000000000000000000000000000000000000000000000000000000\n      dup2\n      mstore\n      0x04\n      add\n      tag_28\n      swap1\n      tag_29\n      jump\t// in\n    tag_28:\n      mload(0x40)\n      dup1\n      swap2\n      sub\n      swap1\n      revert\n    tag_27:\n        /* \"contracts/Lotttery.sol\":849:850  2 */\n      0x02\n        /* \"contracts/Lotttery.sol\":836:847  getLength() */\n      tag_30\n        /* \"contracts/Lotttery.sol\":836:845  getLength */\n      tag_19\n        /* \"contracts/Lotttery.sol\":836:847  getLength() */\n      jump\t// in\n    tag_30:\n        /* \"contracts/Lotttery.sol\":836:850  getLength()>=2 */\n      lt\n      iszero\n        /* \"contracts/Lotttery.sol\":828:873  require(getLength()>=2,\"less then 2 players\") */\n      tag_31\n      jumpi\n      mload(0x40)\n      0x08c379a000000000000000000000000000000000000000000000000000000000\n      dup2\n      mstore\n      0x04\n      add\n      tag_32\n      swap1\n      tag_33\n      jump\t// in\n    tag_32:\n      mload(0x40)\n      dup1\n      swap2\n      sub\n      swap1\n      revert\n    tag_31:\n        /* \"contracts/Lotttery.sol\":884:899  uint pickrandom */\n      0x00\n        /* \"contracts/Lotttery.sol\":902:916  randomNumber() */\n      tag_34\n        /* \"contracts/Lotttery.sol\":902:914  randomNumber */\n      tag_23\n        /* \"contracts/Lotttery.sol\":902:916  randomNumber() */\n      jump\t// in\n    tag_34:\n        /* \"contracts/Lotttery.sol\":884:916  uint pickrandom = randomNumber() */\n      swap1\n      pop\n        /* \"contracts/Lotttery.sol\":927:949  address payable winner */\n      0x00\n        /* \"contracts/Lotttery.sol\":960:976  uint selectIndex */\n      dup1\n        /* \"contracts/Lotttery.sol\":992:999  players */\n      0x01\n        /* \"contracts/Lotttery.sol\":992:1006  players.length */\n      dup1\n      sload\n      swap1\n      pop\n        /* \"contracts/Lotttery.sol\":979:989  pickrandom */\n      dup4\n        /* \"contracts/Lotttery.sol\":979:1006  pickrandom % players.length */\n      tag_35\n      swap2\n      swap1\n      tag_36\n      jump\t// in\n    tag_35:\n        /* \"contracts/Lotttery.sol\":960:1006  uint selectIndex = pickrandom % players.length */\n      swap1\n      pop\n        /* \"contracts/Lotttery.sol\":1027:1034  players */\n      0x01\n        /* \"contracts/Lotttery.sol\":1035:1046  selectIndex */\n      dup2\n        /* \"contracts/Lotttery.sol\":1027:1047  players[selectIndex] */\n      dup2\n      sload\n      dup2\n      lt\n      tag_37\n      jumpi\n      tag_38\n      tag_39\n      jump\t// in\n    tag_38:\n    tag_37:\n      swap1\n      0x00\n      mstore\n      keccak256(0x00, 0x20)\n      add\n      0x00\n      swap1\n      sload\n      swap1\n      0x0100\n      exp\n      swap1\n      div\n      0xffffffffffffffffffffffffffffffffffffffff\n      and\n        /* \"contracts/Lotttery.sol\":1018:1047  winner = players[selectIndex] */\n      swap2\n      pop\n        /* \"contracts/Lotttery.sol\":1058:1064  winner */\n      dup2\n        /* \"contracts/Lotttery.sol\":1058:1073  winner.transfer */\n      0xffffffffffffffffffffffffffffffffffffffff\n      and\n        /* \"contracts/Lotttery.sol\":1058:1087  winner.transfer(getBalance()) */\n      0x08fc\n        /* \"contracts/Lotttery.sol\":1074:1086  getBalance() */\n      tag_41\n        /* \"contracts/Lotttery.sol\":1074:1084  getBalance */\n      tag_9\n        /* \"contracts/Lotttery.sol\":1074:1086  getBalance() */\n      jump\t// in\n    tag_41:\n        /* \"contracts/Lotttery.sol\":1058:1087  winner.transfer(getBalance()) */\n      swap1\n      dup2\n      iszero\n      mul\n      swap1\n      mload(0x40)\n      0x00\n      mload(0x40)\n      dup1\n      dup4\n      sub\n      dup2\n      dup6\n      dup9\n      dup9\n      call\n      swap4\n      pop\n      pop\n      pop\n      pop\n      iszero\n      dup1\n      iszero\n      tag_43\n      jumpi\n      returndatasize\n      0x00\n      dup1\n      returndatacopy\n      revert(0x00, returndatasize)\n    tag_43:\n      pop\n        /* \"contracts/Lotttery.sol\":1130:1131  0 */\n      0x00\n        /* \"contracts/Lotttery.sol\":1108:1132  new address payable[](0) */\n      0xffffffffffffffff\n      dup2\n      gt\n      iszero\n      tag_44\n      jumpi\n      tag_45\n      tag_46\n      jump\t// in\n    tag_45:\n    tag_44:\n      mload(0x40)\n      swap1\n      dup1\n      dup3\n      mstore\n      dup1\n      0x20\n      mul\n      0x20\n      add\n      dup3\n      add\n      0x40\n      mstore\n      dup1\n      iszero\n      tag_47\n      jumpi\n      dup2\n      0x20\n      add\n      0x20\n      dup3\n      mul\n      dup1\n      calldatasize\n      dup4\n      calldatacopy\n      dup1\n      dup3\n      add\n      swap2\n      pop\n      pop\n      swap1\n      pop\n    tag_47:\n      pop\n        /* \"contracts/Lotttery.sol\":1098:1105  players */\n      0x01\n        /* \"contracts/Lotttery.sol\":1098:1132  players = new address payable[](0) */\n      swap1\n      dup1\n      mload\n      swap1\n      0x20\n      add\n      swap1\n      tag_48\n      swap3\n      swap2\n      swap1\n      tag_49\n      jump\t// in\n    tag_48:\n      pop\n        /* \"contracts/Lotttery.sol\":755:1140  {... */\n      pop\n      pop\n      pop\n        /* \"contracts/Lotttery.sol\":725:1140  function selectWinner() public{... */\n      jump\t// out\n        /* \"contracts/Lotttery.sol\":301:462  function buyLottery() public payable{... */\n    tag_16:\n        /* \"contracts/Lotttery.sol\":370:377  1 ether */\n      0x0de0b6b3a7640000\n        /* \"contracts/Lotttery.sol\":357:366  msg.value */\n      callvalue\n        /* \"contracts/Lotttery.sol\":357:377  msg.value == 1 ether */\n      eq\n        /* \"contracts/Lotttery.sol\":348:410  require (msg.value == 1 ether,\"Please Buy Lottery 1 ETH Only\") */\n      tag_51\n      jumpi\n      mload(0x40)\n      0x08c379a000000000000000000000000000000000000000000000000000000000\n      dup2\n      mstore\n      0x04\n      add\n      tag_52\n      swap1\n      tag_53\n      jump\t// in\n    tag_52:\n      mload(0x40)\n      dup1\n      swap2\n      sub\n      swap1\n      revert\n    tag_51:\n        /* \"contracts/Lotttery.sol\":421:428  players */\n      0x01\n        /* \"contracts/Lotttery.sol\":442:452  msg.sender */\n      caller\n        /* \"contracts/Lotttery.sol\":421:454  players.push(payable(msg.sender)) */\n      swap1\n      dup1\n      0x01\n      dup2\n      sload\n      add\n      dup1\n      dup3\n      sstore\n      dup1\n      swap2\n      pop\n      pop\n      0x01\n      swap1\n      sub\n      swap1\n      0x00\n      mstore\n      keccak256(0x00, 0x20)\n      add\n      0x00\n      swap1\n      swap2\n      swap1\n      swap2\n      swap1\n      swap2\n      0x0100\n      exp\n      dup2\n      sload\n      dup2\n      0xffffffffffffffffffffffffffffffffffffffff\n      mul\n      not\n      and\n      swap1\n      dup4\n      0xffffffffffffffffffffffffffffffffffffffff\n      and\n      mul\n      or\n      swap1\n      sstore\n      pop\n        /* \"contracts/Lotttery.sol\":301:462  function buyLottery() public payable{... */\n      jump\t// out\n        /* \"contracts/Lotttery.sol\":468:554  function getLength() public view returns(uint){... */\n    tag_19:\n        /* \"contracts/Lotttery.sol\":509:513  uint */\n      0x00\n        /* \"contracts/Lotttery.sol\":532:539  players */\n      0x01\n        /* \"contracts/Lotttery.sol\":532:546  players.length */\n      dup1\n      sload\n      swap1\n      pop\n        /* \"contracts/Lotttery.sol\":525:546  return players.length */\n      swap1\n      pop\n        /* \"contracts/Lotttery.sol\":468:554  function getLength() public view returns(uint){... */\n      swap1\n      jump\t// out\n        /* \"contracts/Lotttery.sol\":560:719  function randomNumber() public view returns(uint){... */\n    tag_23:\n        /* \"contracts/Lotttery.sol\":604:608  uint */\n      0x00\n        /* \"contracts/Lotttery.sol\":659:675  block.difficulty */\n      prevrandao\n        /* \"contracts/Lotttery.sol\":677:692  block.timestamp */\n      timestamp\n        /* \"contracts/Lotttery.sol\":694:701  players */\n      0x01\n        /* \"contracts/Lotttery.sol\":694:708  players.length */\n      dup1\n      sload\n      swap1\n      pop\n        /* \"contracts/Lotttery.sol\":642:709  abi.encodePacked(block.difficulty ,block.timestamp, players.length) */\n      add(0x20, mload(0x40))\n      tag_57\n      swap4\n      swap3\n      swap2\n      swap1\n      tag_58\n      jump\t// in\n    tag_57:\n      mload(0x40)\n      0x20\n      dup2\n      dup4\n      sub\n      sub\n      dup2\n      mstore\n      swap1\n      0x40\n      mstore\n        /* \"contracts/Lotttery.sol\":632:710  keccak256(abi.encodePacked(block.difficulty ,block.timestamp, players.length)) */\n      dup1\n      mload\n      swap1\n      0x20\n      add\n      keccak256\n        /* \"contracts/Lotttery.sol\":627:711  uint(keccak256(abi.encodePacked(block.difficulty ,block.timestamp, players.length))) */\n      0x00\n      shr\n        /* \"contracts/Lotttery.sol\":620:711  return uint(keccak256(abi.encodePacked(block.difficulty ,block.timestamp, players.length))) */\n      swap1\n      pop\n        /* \"contracts/Lotttery.sol\":560:719  function randomNumber() public view returns(uint){... */\n      swap1\n      jump\t// out\n    tag_49:\n      dup3\n      dup1\n      sload\n      dup3\n      dup3\n      sstore\n      swap1\n      0x00\n      mstore\n      keccak256(0x00, 0x20)\n      swap1\n      dup2\n      add\n      swap3\n      dup3\n      iszero\n      tag_59\n      jumpi\n      swap2\n      0x20\n      mul\n      dup3\n      add\n    tag_60:\n      dup3\n      dup2\n      gt\n      iszero\n      tag_61\n      jumpi\n      dup3\n      mload\n      dup3\n      exp(0x0100, 0x00)\n      dup2\n      sload\n      dup2\n      0xffffffffffffffffffffffffffffffffffffffff\n      mul\n      not\n      and\n      swap1\n      dup4\n      0xffffffffffffffffffffffffffffffffffffffff\n      and\n      mul\n      or\n      swap1\n      sstore\n      pop\n      swap2\n      0x20\n      add\n      swap2\n      swap1\n      0x01\n      add\n      swap1\n      jump(tag_60)\n    tag_61:\n    tag_59:\n      pop\n      swap1\n      pop\n      tag_62\n      swap2\n      swap1\n      tag_63\n      jump\t// in\n    tag_62:\n      pop\n      swap1\n      jump\t// out\n    tag_63:\n    tag_64:\n      dup1\n      dup3\n      gt\n      iszero\n      tag_65\n      jumpi\n      0x00\n      dup2\n      0x00\n      swap1\n      sstore\n      pop\n      0x01\n      add\n      jump(tag_64)\n    tag_65:\n      pop\n      swap1\n      jump\t// out\n        /* \"#utility.yul\":7:84   */\n    tag_66:\n        /* \"#utility.yul\":44:51   */\n      0x00\n        /* \"#utility.yul\":73:78   */\n      dup2\n        /* \"#utility.yul\":62:78   */\n      swap1\n      pop\n        /* \"#utility.yul\":7:84   */\n      swap2\n      swap1\n      pop\n      jump\t// out\n        /* \"#utility.yul\":90:208   */\n    tag_67:\n        /* \"#utility.yul\":177:201   */\n      tag_81\n        /* \"#utility.yul\":195:200   */\n      dup2\n        /* \"#utility.yul\":177:201   */\n      tag_66\n      jump\t// in\n    tag_81:\n        /* \"#utility.yul\":172:175   */\n      dup3\n        /* \"#utility.yul\":165:202   */\n      mstore\n        /* \"#utility.yul\":90:208   */\n      pop\n      pop\n      jump\t// out\n        /* \"#utility.yul\":214:436   */\n    tag_11:\n        /* \"#utility.yul\":307:311   */\n      0x00\n        /* \"#utility.yul\":345:347   */\n      0x20\n        /* \"#utility.yul\":334:343   */\n      dup3\n        /* \"#utility.yul\":330:348   */\n      add\n        /* \"#utility.yul\":322:348   */\n      swap1\n      pop\n        /* \"#utility.yul\":358:429   */\n      tag_83\n        /* \"#utility.yul\":426:427   */\n      0x00\n        /* \"#utility.yul\":415:424   */\n      dup4\n        /* \"#utility.yul\":411:428   */\n      add\n        /* \"#utility.yul\":402:408   */\n      dup5\n        /* \"#utility.yul\":358:429   */\n      tag_67\n      jump\t// in\n    tag_83:\n        /* \"#utility.yul\":214:436   */\n      swap3\n      swap2\n      pop\n      pop\n      jump\t// out\n        /* \"#utility.yul\":442:611   */\n    tag_68:\n        /* \"#utility.yul\":526:537   */\n      0x00\n        /* \"#utility.yul\":560:566   */\n      dup3\n        /* \"#utility.yul\":555:558   */\n      dup3\n        /* \"#utility.yul\":548:567   */\n      mstore\n        /* \"#utility.yul\":600:604   */\n      0x20\n        /* \"#utility.yul\":595:598   */\n      dup3\n        /* \"#utility.yul\":591:605   */\n      add\n        /* \"#utility.yul\":576:605   */\n      swap1\n      pop\n        /* \"#utility.yul\":442:611   */\n      swap3\n      swap2\n      pop\n      pop\n      jump\t// out\n        /* \"#utility.yul\":617:784   */\n    tag_69:\n        /* \"#utility.yul\":757:776   */\n      0x596f752063616e2774204d616e61676572000000000000000000000000000000\n        /* \"#utility.yul\":753:754   */\n      0x00\n        /* \"#utility.yul\":745:751   */\n      dup3\n        /* \"#utility.yul\":741:755   */\n      add\n        /* \"#utility.yul\":734:777   */\n      mstore\n        /* \"#utility.yul\":617:784   */\n      pop\n      jump\t// out\n        /* \"#utility.yul\":790:1156   */\n    tag_70:\n        /* \"#utility.yul\":932:935   */\n      0x00\n        /* \"#utility.yul\":953:1020   */\n      tag_87\n        /* \"#utility.yul\":1017:1019   */\n      0x11\n        /* \"#utility.yul\":1012:1015   */\n      dup4\n        /* \"#utility.yul\":953:1020   */\n      tag_68\n      jump\t// in\n    tag_87:\n        /* \"#utility.yul\":946:1020   */\n      swap2\n      pop\n        /* \"#utility.yul\":1029:1122   */\n      tag_88\n        /* \"#utility.yul\":1118:1121   */\n      dup3\n        /* \"#utility.yul\":1029:1122   */\n      tag_69\n      jump\t// in\n    tag_88:\n        /* \"#utility.yul\":1147:1149   */\n      0x20\n        /* \"#utility.yul\":1142:1145   */\n      dup3\n        /* \"#utility.yul\":1138:1150   */\n      add\n        /* \"#utility.yul\":1131:1150   */\n      swap1\n      pop\n        /* \"#utility.yul\":790:1156   */\n      swap2\n      swap1\n      pop\n      jump\t// out\n        /* \"#utility.yul\":1162:1581   */\n    tag_29:\n        /* \"#utility.yul\":1328:1332   */\n      0x00\n        /* \"#utility.yul\":1366:1368   */\n      0x20\n        /* \"#utility.yul\":1355:1364   */\n      dup3\n        /* \"#utility.yul\":1351:1369   */\n      add\n        /* \"#utility.yul\":1343:1369   */\n      swap1\n      pop\n        /* \"#utility.yul\":1415:1424   */\n      dup2\n        /* \"#utility.yul\":1409:1413   */\n      dup2\n        /* \"#utility.yul\":1405:1425   */\n      sub\n        /* \"#utility.yul\":1401:1402   */\n      0x00\n        /* \"#utility.yul\":1390:1399   */\n      dup4\n        /* \"#utility.yul\":1386:1403   */\n      add\n        /* \"#utility.yul\":1379:1426   */\n      mstore\n        /* \"#utility.yul\":1443:1574   */\n      tag_90\n        /* \"#utility.yul\":1569:1573   */\n      dup2\n        /* \"#utility.yul\":1443:1574   */\n      tag_70\n      jump\t// in\n    tag_90:\n        /* \"#utility.yul\":1435:1574   */\n      swap1\n      pop\n        /* \"#utility.yul\":1162:1581   */\n      swap2\n      swap1\n      pop\n      jump\t// out\n        /* \"#utility.yul\":1587:1756   */\n    tag_71:\n        /* \"#utility.yul\":1727:1748   */\n      0x6c657373207468656e203220706c617965727300000000000000000000000000\n        /* \"#utility.yul\":1723:1724   */\n      0x00\n        /* \"#utility.yul\":1715:1721   */\n      dup3\n        /* \"#utility.yul\":1711:1725   */\n      add\n        /* \"#utility.yul\":1704:1749   */\n      mstore\n        /* \"#utility.yul\":1587:1756   */\n      pop\n      jump\t// out\n        /* \"#utility.yul\":1762:2128   */\n    tag_72:\n        /* \"#utility.yul\":1904:1907   */\n      0x00\n        /* \"#utility.yul\":1925:1992   */\n      tag_93\n        /* \"#utility.yul\":1989:1991   */\n      0x13\n        /* \"#utility.yul\":1984:1987   */\n      dup4\n        /* \"#utility.yul\":1925:1992   */\n      tag_68\n      jump\t// in\n    tag_93:\n        /* \"#utility.yul\":1918:1992   */\n      swap2\n      pop\n        /* \"#utility.yul\":2001:2094   */\n      tag_94\n        /* \"#utility.yul\":2090:2093   */\n      dup3\n        /* \"#utility.yul\":2001:2094   */\n      tag_71\n      jump\t// in\n    tag_94:\n        /* \"#utility.yul\":2119:2121   */\n      0x20\n        /* \"#utility.yul\":2114:2117   */\n      dup3\n        /* \"#utility.yul\":2110:2122   */\n      add\n        /* \"#utility.yul\":2103:2122   */\n      swap1\n      pop\n        /* \"#utility.yul\":1762:2128   */\n      swap2\n      swap1\n      pop\n      jump\t// out\n        /* \"#utility.yul\":2134:2553   */\n    tag_33:\n        /* \"#utility.yul\":2300:2304   */\n      0x00\n        /* \"#utility.yul\":2338:2340   */\n      0x20\n        /* \"#utility.yul\":2327:2336   */\n      dup3\n        /* \"#utility.yul\":2323:2341   */\n      add\n        /* \"#utility.yul\":2315:2341   */\n      swap1\n      pop\n        /* \"#utility.yul\":2387:2396   */\n      dup2\n        /* \"#utility.yul\":2381:2385   */\n      dup2\n        /* \"#utility.yul\":2377:2397   */\n      sub\n        /* \"#utility.yul\":2373:2374   */\n      0x00\n        /* \"#utility.yul\":2362:2371   */\n      dup4\n        /* \"#utility.yul\":2358:2375   */\n      add\n        /* \"#utility.yul\":2351:2398   */\n      mstore\n        /* \"#utility.yul\":2415:2546   */\n      tag_96\n        /* \"#utility.yul\":2541:2545   */\n      dup2\n        /* \"#utility.yul\":2415:2546   */\n      tag_72\n      jump\t// in\n    tag_96:\n        /* \"#utility.yul\":2407:2546   */\n      swap1\n      pop\n        /* \"#utility.yul\":2134:2553   */\n      swap2\n      swap1\n      pop\n      jump\t// out\n        /* \"#utility.yul\":2559:2739   */\n    tag_73:\n        /* \"#utility.yul\":2607:2684   */\n      0x4e487b7100000000000000000000000000000000000000000000000000000000\n        /* \"#utility.yul\":2604:2605   */\n      0x00\n        /* \"#utility.yul\":2597:2685   */\n      mstore\n        /* \"#utility.yul\":2704:2708   */\n      0x12\n        /* \"#utility.yul\":2701:2702   */\n      0x04\n        /* \"#utility.yul\":2694:2709   */\n      mstore\n        /* \"#utility.yul\":2728:2732   */\n      0x24\n        /* \"#utility.yul\":2725:2726   */\n      0x00\n        /* \"#utility.yul\":2718:2733   */\n      revert\n        /* \"#utility.yul\":2745:2921   */\n    tag_36:\n        /* \"#utility.yul\":2777:2778   */\n      0x00\n        /* \"#utility.yul\":2794:2814   */\n      tag_99\n        /* \"#utility.yul\":2812:2813   */\n      dup3\n        /* \"#utility.yul\":2794:2814   */\n      tag_66\n      jump\t// in\n    tag_99:\n        /* \"#utility.yul\":2789:2814   */\n      swap2\n      pop\n        /* \"#utility.yul\":2828:2848   */\n      tag_100\n        /* \"#utility.yul\":2846:2847   */\n      dup4\n        /* \"#utility.yul\":2828:2848   */\n      tag_66\n      jump\t// in\n    tag_100:\n        /* \"#utility.yul\":2823:2848   */\n      swap3\n      pop\n        /* \"#utility.yul\":2867:2868   */\n      dup3\n        /* \"#utility.yul\":2857:2892   */\n      tag_101\n      jumpi\n        /* \"#utility.yul\":2872:2890   */\n      tag_102\n      tag_73\n      jump\t// in\n    tag_102:\n        /* \"#utility.yul\":2857:2892   */\n    tag_101:\n        /* \"#utility.yul\":2913:2914   */\n      dup3\n        /* \"#utility.yul\":2910:2911   */\n      dup3\n        /* \"#utility.yul\":2906:2915   */\n      mod\n        /* \"#utility.yul\":2901:2915   */\n      swap1\n      pop\n        /* \"#utility.yul\":2745:2921   */\n      swap3\n      swap2\n      pop\n      pop\n      jump\t// out\n        /* \"#utility.yul\":2927:3107   */\n    tag_39:\n        /* \"#utility.yul\":2975:3052   */\n      0x4e487b7100000000000000000000000000000000000000000000000000000000\n        /* \"#utility.yul\":2972:2973   */\n      0x00\n        /* \"#utility.yul\":2965:3053   */\n      mstore\n        /* \"#utility.yul\":3072:3076   */\n      0x32\n        /* \"#utility.yul\":3069:3070   */\n      0x04\n        /* \"#utility.yul\":3062:3077   */\n      mstore\n        /* \"#utility.yul\":3096:3100   */\n      0x24\n        /* \"#utility.yul\":3093:3094   */\n      0x00\n        /* \"#utility.yul\":3086:3101   */\n      revert\n        /* \"#utility.yul\":3113:3293   */\n    tag_46:\n        /* \"#utility.yul\":3161:3238   */\n      0x4e487b7100000000000000000000000000000000000000000000000000000000\n        /* \"#utility.yul\":3158:3159   */\n      0x00\n        /* \"#utility.yul\":3151:3239   */\n      mstore\n        /* \"#utility.yul\":3258:3262   */\n      0x41\n        /* \"#utility.yul\":3255:3256   */\n      0x04\n        /* \"#utility.yul\":3248:3263   */\n      mstore\n        /* \"#utility.yul\":3282:3286   */\n      0x24\n        /* \"#utility.yul\":3279:3280   */\n      0x00\n        /* \"#utility.yul\":3272:3287   */\n      revert\n        /* \"#utility.yul\":3299:3478   */\n    tag_74:\n        /* \"#utility.yul\":3439:3470   */\n      0x506c6561736520427579204c6f7474657279203120455448204f6e6c79000000\n        /* \"#utility.yul\":3435:3436   */\n      0x00\n        /* \"#utility.yul\":3427:3433   */\n      dup3\n        /* \"#utility.yul\":3423:3437   */\n      add\n        /* \"#utility.yul\":3416:3471   */\n      mstore\n        /* \"#utility.yul\":3299:3478   */\n      pop\n      jump\t// out\n        /* \"#utility.yul\":3484:3850   */\n    tag_75:\n        /* \"#utility.yul\":3626:3629   */\n      0x00\n        /* \"#utility.yul\":3647:3714   */\n      tag_107\n        /* \"#utility.yul\":3711:3713   */\n      0x1d\n        /* \"#utility.yul\":3706:3709   */\n      dup4\n        /* \"#utility.yul\":3647:3714   */\n      tag_68\n      jump\t// in\n    tag_107:\n        /* \"#utility.yul\":3640:3714   */\n      swap2\n      pop\n        /* \"#utility.yul\":3723:3816   */\n      tag_108\n        /* \"#utility.yul\":3812:3815   */\n      dup3\n        /* \"#utility.yul\":3723:3816   */\n      tag_74\n      jump\t// in\n    tag_108:\n        /* \"#utility.yul\":3841:3843   */\n      0x20\n        /* \"#utility.yul\":3836:3839   */\n      dup3\n        /* \"#utility.yul\":3832:3844   */\n      add\n        /* \"#utility.yul\":3825:3844   */\n      swap1\n      pop\n        /* \"#utility.yul\":3484:3850   */\n      swap2\n      swap1\n      pop\n      jump\t// out\n        /* \"#utility.yul\":3856:4275   */\n    tag_53:\n        /* \"#utility.yul\":4022:4026   */\n      0x00\n        /* \"#utility.yul\":4060:4062   */\n      0x20\n        /* \"#utility.yul\":4049:4058   */\n      dup3\n        /* \"#utility.yul\":4045:4063   */\n      add\n        /* \"#utility.yul\":4037:4063   */\n      swap1\n      pop\n        /* \"#utility.yul\":4109:4118   */\n      dup2\n        /* \"#utility.yul\":4103:4107   */\n      dup2\n        /* \"#utility.yul\":4099:4119   */\n      sub\n        /* \"#utility.yul\":4095:4096   */\n      0x00\n        /* \"#utility.yul\":4084:4093   */\n      dup4\n        /* \"#utility.yul\":4080:4097   */\n      add\n        /* \"#utility.yul\":4073:4120   */\n      mstore\n        /* \"#utility.yul\":4137:4268   */\n      tag_110\n        /* \"#utility.yul\":4263:4267   */\n      dup2\n        /* \"#utility.yul\":4137:4268   */\n      tag_75\n      jump\t// in\n    tag_110:\n        /* \"#utility.yul\":4129:4268   */\n      swap1\n      pop\n        /* \"#utility.yul\":3856:4275   */\n      swap2\n      swap1\n      pop\n      jump\t// out\n        /* \"#utility.yul\":4281:4360   */\n    tag_76:\n        /* \"#utility.yul\":4320:4327   */\n      0x00\n        /* \"#utility.yul\":4349:4354   */\n      dup2\n        /* \"#utility.yul\":4338:4354   */\n      swap1\n      pop\n        /* \"#utility.yul\":4281:4360   */\n      swap2\n      swap1\n      pop\n      jump\t// out\n        /* \"#utility.yul\":4366:4523   */\n    tag_77:\n        /* \"#utility.yul\":4471:4516   */\n      tag_113\n        /* \"#utility.yul\":4491:4515   */\n      tag_114\n        /* \"#utility.yul\":4509:4514   */\n      dup3\n        /* \"#utility.yul\":4491:4515   */\n      tag_66\n      jump\t// in\n    tag_114:\n        /* \"#utility.yul\":4471:4516   */\n      tag_76\n      jump\t// in\n    tag_113:\n        /* \"#utility.yul\":4466:4469   */\n      dup3\n        /* \"#utility.yul\":4459:4517   */\n      mstore\n        /* \"#utility.yul\":4366:4523   */\n      pop\n      pop\n      jump\t// out\n        /* \"#utility.yul\":4529:5067   */\n    tag_58:\n        /* \"#utility.yul\":4697:4700   */\n      0x00\n        /* \"#utility.yul\":4712:4787   */\n      tag_116\n        /* \"#utility.yul\":4783:4786   */\n      dup3\n        /* \"#utility.yul\":4774:4780   */\n      dup7\n        /* \"#utility.yul\":4712:4787   */\n      tag_77\n      jump\t// in\n    tag_116:\n        /* \"#utility.yul\":4812:4814   */\n      0x20\n        /* \"#utility.yul\":4807:4810   */\n      dup3\n        /* \"#utility.yul\":4803:4815   */\n      add\n        /* \"#utility.yul\":4796:4815   */\n      swap2\n      pop\n        /* \"#utility.yul\":4825:4900   */\n      tag_117\n        /* \"#utility.yul\":4896:4899   */\n      dup3\n        /* \"#utility.yul\":4887:4893   */\n      dup6\n        /* \"#utility.yul\":4825:4900   */\n      tag_77\n      jump\t// in\n    tag_117:\n        /* \"#utility.yul\":4925:4927   */\n      0x20\n        /* \"#utility.yul\":4920:4923   */\n      dup3\n        /* \"#utility.yul\":4916:4928   */\n      add\n        /* \"#utility.yul\":4909:4928   */\n      swap2\n      pop\n        /* \"#utility.yul\":4938:5013   */\n      tag_118\n        /* \"#utility.yul\":5009:5012   */\n      dup3\n        /* \"#utility.yul\":5000:5006   */\n      dup5\n        /* \"#utility.yul\":4938:5013   */\n      tag_77\n      jump\t// in\n    tag_118:\n        /* \"#utility.yul\":5038:5040   */\n      0x20\n        /* \"#utility.yul\":5033:5036   */\n      dup3\n        /* \"#utility.yul\":5029:5041   */\n      add\n        /* \"#utility.yul\":5022:5041   */\n      swap2\n      pop\n        /* \"#utility.yul\":5058:5061   */\n      dup2\n        /* \"#utility.yul\":5051:5061   */\n      swap1\n      pop\n        /* \"#utility.yul\":4529:5067   */\n      swap5\n      swap4\n      pop\n      pop\n      pop\n      pop\n      jump\t// out\n\n    auxdata: 0xa2646970667358221220a3d29829f752adc04976db1d4b2271270443b131ad4107db7c6a797f554095d164736f6c63430008120033\n}\n",
				"bytecode": {
					"linkReferences": {},
					"object": "608060405234801561001057600080fd5b50336000806101000a81548173ffffffffffffffffffffffffffffffffffffffff021916908373ffffffffffffffffffffffffffffffffffffffff160217905550610760806100606000396000f3fe60806040526004361061004a5760003560e01c806312065fe01461004f57806333a99e041461007a5780638fccdd6314610091578063be1c766b1461009b578063ccbac9f5146100c6575b600080fd5b34801561005b57600080fd5b506100646100f1565b604051610071919061049e565b60405180910390f35b34801561008657600080fd5b5061008f6100f9565b005b6100996102e8565b005b3480156100a757600080fd5b506100b0610397565b6040516100bd919061049e565b60405180910390f35b3480156100d257600080fd5b506100db6103a4565b6040516100e8919061049e565b60405180910390f35b600047905090565b60008054906101000a900473ffffffffffffffffffffffffffffffffffffffff1673ffffffffffffffffffffffffffffffffffffffff163373ffffffffffffffffffffffffffffffffffffffff1614610187576040517f08c379a000000000000000000000000000000000000000000000000000000000815260040161017e90610516565b60405180910390fd5b6002610191610397565b10156101d2576040517f08c379a00000000000000000000000000000000000000000000000000000000081526004016101c990610582565b60405180910390fd5b60006101dc6103a4565b9050600080600180549050836101f291906105d1565b90506001818154811061020857610207610602565b5b9060005260206000200160009054906101000a900473ffffffffffffffffffffffffffffffffffffffff1691508173ffffffffffffffffffffffffffffffffffffffff166108fc6102576100f1565b9081150290604051600060405180830381858888f19350505050158015610282573d6000803e3d6000fd5b50600067ffffffffffffffff81111561029e5761029d610631565b5b6040519080825280602002602001820160405280156102cc5781602001602082028036833780820191505090505b50600190805190602001906102e29291906103de565b50505050565b670de0b6b3a76400003414610332576040517f08c379a0000000000000000000000000000000000000000000000000000000008152600401610329906106ac565b60405180910390fd5b6001339080600181540180825580915050600190039060005260206000200160009091909190916101000a81548173ffffffffffffffffffffffffffffffffffffffff021916908373ffffffffffffffffffffffffffffffffffffffff160217905550565b6000600180549050905090565b600044426001805490506040516020016103c0939291906106ed565b6040516020818303038152906040528051906020012060001c905090565b828054828255906000526020600020908101928215610457579160200282015b828111156104565782518260006101000a81548173ffffffffffffffffffffffffffffffffffffffff021916908373ffffffffffffffffffffffffffffffffffffffff160217905550916020019190600101906103fe565b5b5090506104649190610468565b5090565b5b80821115610481576000816000905550600101610469565b5090565b6000819050919050565b61049881610485565b82525050565b60006020820190506104b3600083018461048f565b92915050565b600082825260208201905092915050565b7f596f752063616e2774204d616e61676572000000000000000000000000000000600082015250565b60006105006011836104b9565b915061050b826104ca565b602082019050919050565b6000602082019050818103600083015261052f816104f3565b9050919050565b7f6c657373207468656e203220706c617965727300000000000000000000000000600082015250565b600061056c6013836104b9565b915061057782610536565b602082019050919050565b6000602082019050818103600083015261059b8161055f565b9050919050565b7f4e487b7100000000000000000000000000000000000000000000000000000000600052601260045260246000fd5b60006105dc82610485565b91506105e783610485565b9250826105f7576105f66105a2565b5b828206905092915050565b7f4e487b7100000000000000000000000000000000000000000000000000000000600052603260045260246000fd5b7f4e487b7100000000000000000000000000000000000000000000000000000000600052604160045260246000fd5b7f506c6561736520427579204c6f7474657279203120455448204f6e6c79000000600082015250565b6000610696601d836104b9565b91506106a182610660565b602082019050919050565b600060208201905081810360008301526106c581610689565b9050919050565b6000819050919050565b6106e76106e282610485565b6106cc565b82525050565b60006106f982866106d6565b60208201915061070982856106d6565b60208201915061071982846106d6565b60208201915081905094935050505056fea2646970667358221220a3d29829f752adc04976db1d4b2271270443b131ad4107db7c6a797f554095d164736f6c63430008120033",
					"opcodes": "PUSH1 0x80 PUSH1 0x40 MSTORE CALLVALUE DUP1 ISZERO PUSH2 0x10 JUMPI PUSH1 0x0 DUP1 REVERT JUMPDEST POP CALLER PUSH1 0x0 DUP1 PUSH2 0x100 EXP DUP2 SLOAD DUP2 PUSH20 0xFFFFFFFFFFFFFFFFFFFFFFFFFFFFFFFFFFFFFFFF MUL NOT AND SWAP1 DUP4 PUSH20 0xFFFFFFFFFFFFFFFFFFFFFFFFFFFFFFFFFFFFFFFF AND MUL OR SWAP1 SSTORE POP PUSH2 0x760 DUP1 PUSH2 0x60 PUSH1 0x0 CODECOPY PUSH1 0x0 RETURN INVALID PUSH1 0x80 PUSH1 0x40 MSTORE PUSH1 0x4 CALLDATASIZE LT PUSH2 0x4A JUMPI PUSH1 0x0 CALLDATALOAD PUSH1 0xE0 SHR DUP1 PUSH4 0x12065FE0 EQ PUSH2 0x4F JUMPI DUP1 PUSH4 0x33A99E04 EQ PUSH2 0x7A JUMPI DUP1 PUSH4 0x8FCCDD63 EQ PUSH2 0x91 JUMPI DUP1 PUSH4 0xBE1C766B EQ PUSH2 0x9B JUMPI DUP1 PUSH4 0xCCBAC9F5 EQ PUSH2 0xC6 JUMPI JUMPDEST PUSH1 0x0 DUP1 REVERT JUMPDEST CALLVALUE DUP1 ISZERO PUSH2 0x5B JUMPI PUSH1 0x0 DUP1 REVERT JUMPDEST POP PUSH2 0x64 PUSH2 0xF1 JUMP JUMPDEST PUSH1 0x40 MLOAD PUSH2 0x71 SWAP2 SWAP1 PUSH2 0x49E JUMP JUMPDEST PUSH1 0x40 MLOAD DUP1 SWAP2 SUB SWAP1 RETURN JUMPDEST CALLVALUE DUP1 ISZERO PUSH2 0x86 JUMPI PUSH1 0x0 DUP1 REVERT JUMPDEST POP PUSH2 0x8F PUSH2 0xF9 JUMP JUMPDEST STOP JUMPDEST PUSH2 0x99 PUSH2 0x2E8 JUMP JUMPDEST STOP JUMPDEST CALLVALUE DUP1 ISZERO PUSH2 0xA7 JUMPI PUSH1 0x0 DUP1 REVERT JUMPDEST POP PUSH2 0xB0 PUSH2 0x397 JUMP JUMPDEST PUSH1 0x40 MLOAD PUSH2 0xBD SWAP2 SWAP1 PUSH2 0x49E JUMP JUMPDEST PUSH1 0x40 MLOAD DUP1 SWAP2 SUB SWAP1 RETURN JUMPDEST CALLVALUE DUP1 ISZERO PUSH2 0xD2 JUMPI PUSH1 0x0 DUP1 REVERT JUMPDEST POP PUSH2 0xDB PUSH2 0x3A4 JUMP JUMPDEST PUSH1 0x40 MLOAD PUSH2 0xE8 SWAP2 SWAP1 PUSH2 0x49E JUMP JUMPDEST PUSH1 0x40 MLOAD DUP1 SWAP2 SUB SWAP1 RETURN JUMPDEST PUSH1 0x0 SELFBALANCE SWAP1 POP SWAP1 JUMP JUMPDEST PUSH1 0x0 DUP1 SLOAD SWAP1 PUSH2 0x100 EXP SWAP1 DIV PUSH20 0xFFFFFFFFFFFFFFFFFFFFFFFFFFFFFFFFFFFFFFFF AND PUSH20 0xFFFFFFFFFFFFFFFFFFFFFFFFFFFFFFFFFFFFFFFF AND CALLER PUSH20 0xFFFFFFFFFFFFFFFFFFFFFFFFFFFFFFFFFFFFFFFF AND EQ PUSH2 0x187 JUMPI PUSH1 0x40 MLOAD PUSH32 0x8C379A000000000000000000000000000000000000000000000000000000000 DUP2 MSTORE PUSH1 0x4 ADD PUSH2 0x17E SWAP1 PUSH2 0x516 JUMP JUMPDEST PUSH1 0x40 MLOAD DUP1 SWAP2 SUB SWAP1 REVERT JUMPDEST PUSH1 0x2 PUSH2 0x191 PUSH2 0x397 JUMP JUMPDEST LT ISZERO PUSH2 0x1D2 JUMPI PUSH1 0x40 MLOAD PUSH32 0x8C379A000000000000000000000000000000000000000000000000000000000 DUP2 MSTORE PUSH1 0x4 ADD PUSH2 0x1C9 SWAP1 PUSH2 0x582 JUMP JUMPDEST PUSH1 0x40 MLOAD DUP1 SWAP2 SUB SWAP1 REVERT JUMPDEST PUSH1 0x0 PUSH2 0x1DC PUSH2 0x3A4 JUMP JUMPDEST SWAP1 POP PUSH1 0x0 DUP1 PUSH1 0x1 DUP1 SLOAD SWAP1 POP DUP4 PUSH2 0x1F2 SWAP2 SWAP1 PUSH2 0x5D1 JUMP JUMPDEST SWAP1 POP PUSH1 0x1 DUP2 DUP2 SLOAD DUP2 LT PUSH2 0x208 JUMPI PUSH2 0x207 PUSH2 0x602 JUMP JUMPDEST JUMPDEST SWAP1 PUSH1 0x0 MSTORE PUSH1 0x20 PUSH1 0x0 KECCAK256 ADD PUSH1 0x0 SWAP1 SLOAD SWAP1 PUSH2 0x100 EXP SWAP1 DIV PUSH20 0xFFFFFFFFFFFFFFFFFFFFFFFFFFFFFFFFFFFFFFFF AND SWAP2 POP DUP2 PUSH20 0xFFFFFFFFFFFFFFFFFFFFFFFFFFFFFFFFFFFFFFFF AND PUSH2 0x8FC PUSH2 0x257 PUSH2 0xF1 JUMP JUMPDEST SWAP1 DUP2 ISZERO MUL SWAP1 PUSH1 0x40 MLOAD PUSH1 0x0 PUSH1 0x40 MLOAD DUP1 DUP4 SUB DUP2 DUP6 DUP9 DUP9 CALL SWAP4 POP POP POP POP ISZERO DUP1 ISZERO PUSH2 0x282 JUMPI RETURNDATASIZE PUSH1 0x0 DUP1 RETURNDATACOPY RETURNDATASIZE PUSH1 0x0 REVERT JUMPDEST POP PUSH1 0x0 PUSH8 0xFFFFFFFFFFFFFFFF DUP2 GT ISZERO PUSH2 0x29E JUMPI PUSH2 0x29D PUSH2 0x631 JUMP JUMPDEST JUMPDEST PUSH1 0x40 MLOAD SWAP1 DUP1 DUP3 MSTORE DUP1 PUSH1 0x20 MUL PUSH1 0x20 ADD DUP3 ADD PUSH1 0x40 MSTORE DUP1 ISZERO PUSH2 0x2CC JUMPI DUP2 PUSH1 0x20 ADD PUSH1 0x20 DUP3 MUL DUP1 CALLDATASIZE DUP4 CALLDATACOPY DUP1 DUP3 ADD SWAP2 POP POP SWAP1 POP JUMPDEST POP PUSH1 0x1 SWAP1 DUP1 MLOAD SWAP1 PUSH1 0x20 ADD SWAP1 PUSH2 0x2E2 SWAP3 SWAP2 SWAP1 PUSH2 0x3DE JUMP JUMPDEST POP POP POP POP JUMP JUMPDEST PUSH8 0xDE0B6B3A7640000 CALLVALUE EQ PUSH2 0x332 JUMPI PUSH1 0x40 MLOAD PUSH32 0x8C379A000000000000000000000000000000000000000000000000000000000 DUP2 MSTORE PUSH1 0x4 ADD PUSH2 0x329 SWAP1 PUSH2 0x6AC JUMP JUMPDEST PUSH1 0x40 MLOAD DUP1 SWAP2 SUB SWAP1 REVERT JUMPDEST PUSH1 0x1 CALLER SWAP1 DUP1 PUSH1 0x1 DUP2 SLOAD ADD DUP1 DUP3 SSTORE DUP1 SWAP2 POP POP PUSH1 0x1 SWAP1 SUB SWAP1 PUSH1 0x0 MSTORE PUSH1 0x20 PUSH1 0x0 KECCAK256 ADD PUSH1 0x0 SWAP1 SWAP2 SWAP1 SWAP2 SWAP1 SWAP2 PUSH2 0x100 EXP DUP2 SLOAD DUP2 PUSH20 0xFFFFFFFFFFFFFFFFFFFFFFFFFFFFFFFFFFFFFFFF MUL NOT AND SWAP1 DUP4 PUSH20 0xFFFFFFFFFFFFFFFFFFFFFFFFFFFFFFFFFFFFFFFF AND MUL OR SWAP1 SSTORE POP JUMP JUMPDEST PUSH1 0x0 PUSH1 0x1 DUP1 SLOAD SWAP1 POP SWAP1 POP SWAP1 JUMP JUMPDEST PUSH1 0x0 PREVRANDAO TIMESTAMP PUSH1 0x1 DUP1 SLOAD SWAP1 POP PUSH1 0x40 MLOAD PUSH1 0x20 ADD PUSH2 0x3C0 SWAP4 SWAP3 SWAP2 SWAP1 PUSH2 0x6ED JUMP JUMPDEST PUSH1 0x40 MLOAD PUSH1 0x20 DUP2 DUP4 SUB SUB DUP2 MSTORE SWAP1 PUSH1 0x40 MSTORE DUP1 MLOAD SWAP1 PUSH1 0x20 ADD KECCAK256 PUSH1 0x0 SHR SWAP1 POP SWAP1 JUMP JUMPDEST DUP3 DUP1 SLOAD DUP3 DUP3 SSTORE SWAP1 PUSH1 0x0 MSTORE PUSH1 0x20 PUSH1 0x0 KECCAK256 SWAP1 DUP2 ADD SWAP3 DUP3 ISZERO PUSH2 0x457 JUMPI SWAP2 PUSH1 0x20 MUL DUP3 ADD JUMPDEST DUP3 DUP2 GT ISZERO PUSH2 0x456 JUMPI DUP3 MLOAD DUP3 PUSH1 0x0 PUSH2 0x100 EXP DUP2 SLOAD DUP2 PUSH20 0xFFFFFFFFFFFFFFFFFFFFFFFFFFFFFFFFFFFFFFFF MUL NOT AND SWAP1 DUP4 PUSH20 0xFFFFFFFFFFFFFFFFFFFFFFFFFFFFFFFFFFFFFFFF AND MUL OR SWAP1 SSTORE POP SWAP2 PUSH1 0x20 ADD SWAP2 SWAP1 PUSH1 0x1 ADD SWAP1 PUSH2 0x3FE JUMP JUMPDEST JUMPDEST POP SWAP1 POP PUSH2 0x464 SWAP2 SWAP1 PUSH2 0x468 JUMP JUMPDEST POP SWAP1 JUMP JUMPDEST JUMPDEST DUP1 DUP3 GT ISZERO PUSH2 0x481 JUMPI PUSH1 0x0 DUP2 PUSH1 0x0 SWAP1 SSTORE POP PUSH1 0x1 ADD PUSH2 0x469 JUMP JUMPDEST POP SWAP1 JUMP JUMPDEST PUSH1 0x0 DUP2 SWAP1 POP SWAP2 SWAP1 POP JUMP JUMPDEST PUSH2 0x498 DUP2 PUSH2 0x485 JUMP JUMPDEST DUP3 MSTORE POP POP JUMP JUMPDEST PUSH1 0x0 PUSH1 0x20 DUP3 ADD SWAP1 POP PUSH2 0x4B3 PUSH1 0x0 DUP4 ADD DUP5 PUSH2 0x48F JUMP JUMPDEST SWAP3 SWAP2 POP POP JUMP JUMPDEST PUSH1 0x0 DUP3 DUP3 MSTORE PUSH1 0x20 DUP3 ADD SWAP1 POP SWAP3 SWAP2 POP POP JUMP JUMPDEST PUSH32 0x596F752063616E2774204D616E61676572000000000000000000000000000000 PUSH1 0x0 DUP3 ADD MSTORE POP JUMP JUMPDEST PUSH1 0x0 PUSH2 0x500 PUSH1 0x11 DUP4 PUSH2 0x4B9 JUMP JUMPDEST SWAP2 POP PUSH2 0x50B DUP3 PUSH2 0x4CA JUMP JUMPDEST PUSH1 0x20 DUP3 ADD SWAP1 POP SWAP2 SWAP1 POP JUMP JUMPDEST PUSH1 0x0 PUSH1 0x20 DUP3 ADD SWAP1 POP DUP2 DUP2 SUB PUSH1 0x0 DUP4 ADD MSTORE PUSH2 0x52F DUP2 PUSH2 0x4F3 JUMP JUMPDEST SWAP1 POP SWAP2 SWAP1 POP JUMP JUMPDEST PUSH32 0x6C657373207468656E203220706C617965727300000000000000000000000000 PUSH1 0x0 DUP3 ADD MSTORE POP JUMP JUMPDEST PUSH1 0x0 PUSH2 0x56C PUSH1 0x13 DUP4 PUSH2 0x4B9 JUMP JUMPDEST SWAP2 POP PUSH2 0x577 DUP3 PUSH2 0x536 JUMP JUMPDEST PUSH1 0x20 DUP3 ADD SWAP1 POP SWAP2 SWAP1 POP JUMP JUMPDEST PUSH1 0x0 PUSH1 0x20 DUP3 ADD SWAP1 POP DUP2 DUP2 SUB PUSH1 0x0 DUP4 ADD MSTORE PUSH2 0x59B DUP2 PUSH2 0x55F JUMP JUMPDEST SWAP1 POP SWAP2 SWAP1 POP JUMP JUMPDEST PUSH32 0x4E487B7100000000000000000000000000000000000000000000000000000000 PUSH1 0x0 MSTORE PUSH1 0x12 PUSH1 0x4 MSTORE PUSH1 0x24 PUSH1 0x0 REVERT JUMPDEST PUSH1 0x0 PUSH2 0x5DC DUP3 PUSH2 0x485 JUMP JUMPDEST SWAP2 POP PUSH2 0x5E7 DUP4 PUSH2 0x485 JUMP JUMPDEST SWAP3 POP DUP3 PUSH2 0x5F7 JUMPI PUSH2 0x5F6 PUSH2 0x5A2 JUMP JUMPDEST JUMPDEST DUP3 DUP3 MOD SWAP1 POP SWAP3 SWAP2 POP POP JUMP JUMPDEST PUSH32 0x4E487B7100000000000000000000000000000000000000000000000000000000 PUSH1 0x0 MSTORE PUSH1 0x32 PUSH1 0x4 MSTORE PUSH1 0x24 PUSH1 0x0 REVERT JUMPDEST PUSH32 0x4E487B7100000000000000000000000000000000000000000000000000000000 PUSH1 0x0 MSTORE PUSH1 0x41 PUSH1 0x4 MSTORE PUSH1 0x24 PUSH1 0x0 REVERT JUMPDEST PUSH32 0x506C6561736520427579204C6F7474657279203120455448204F6E6C79000000 PUSH1 0x0 DUP3 ADD MSTORE POP JUMP JUMPDEST PUSH1 0x0 PUSH2 0x696 PUSH1 0x1D DUP4 PUSH2 0x4B9 JUMP JUMPDEST SWAP2 POP PUSH2 0x6A1 DUP3 PUSH2 0x660 JUMP JUMPDEST PUSH1 0x20 DUP3 ADD SWAP1 POP SWAP2 SWAP1 POP JUMP JUMPDEST PUSH1 0x0 PUSH1 0x20 DUP3 ADD SWAP1 POP DUP2 DUP2 SUB PUSH1 0x0 DUP4 ADD MSTORE PUSH2 0x6C5 DUP2 PUSH2 0x689 JUMP JUMPDEST SWAP1 POP SWAP2 SWAP1 POP JUMP JUMPDEST PUSH1 0x0 DUP2 SWAP1 POP SWAP2 SWAP1 POP JUMP JUMPDEST PUSH2 0x6E7 PUSH2 0x6E2 DUP3 PUSH2 0x485 JUMP JUMPDEST PUSH2 0x6CC JUMP JUMPDEST DUP3 MSTORE POP POP JUMP JUMPDEST PUSH1 0x0 PUSH2 0x6F9 DUP3 DUP7 PUSH2 0x6D6 JUMP JUMPDEST PUSH1 0x20 DUP3 ADD SWAP2 POP PUSH2 0x709 DUP3 DUP6 PUSH2 0x6D6 JUMP JUMPDEST PUSH1 0x20 DUP3 ADD SWAP2 POP PUSH2 0x719 DUP3 DUP5 PUSH2 0x6D6 JUMP JUMPDEST PUSH1 0x20 DUP3 ADD SWAP2 POP DUP2 SWAP1 POP SWAP5 SWAP4 POP POP POP POP JUMP INVALID LOG2 PUSH5 0x6970667358 0x22 SLT KECCAK256 LOG3 0xD2 SWAP9 0x29 0xF7 MSTORE 0xAD 0xC0 0x49 PUSH23 0xDB1D4B2271270443B131AD4107DB7C6A797F554095D164 PUSH20 0x6F6C634300081200330000000000000000000000 "
				},
				"gasEstimates": {
					"creation": {
						"codeDepositCost": "377600",
						"executionCost": "24677",
						"totalCost": "402277"
					},
					"external": {
						"buyLottery()": "48742",
						"getBalance()": "317",
						"getLength()": "2489",
						"randomNumber()": "infinite",
						"selectWinner()": "infinite"
					}
				},
				"methodIdentifiers": {
					"buyLottery()": "8fccdd63",
					"getBalance()": "12065fe0",
					"getLength()": "be1c766b",
					"randomNumber()": "ccbac9f5",
					"selectWinner()": "33a99e04"
				}
			},
			"storageLayout": {
				"storage": [
					{
						"astId": 3,
						"contract": "contracts/Lotttery.sol:Lottery",
						"label": "manager",
						"offset": 0,
						"slot": "0",
						"type": "t_address"
					},
					{
						"astId": 6,
						"contract": "contracts/Lotttery.sol:Lottery",
						"label": "players",
						"offset": 0,
						"slot": "1",
						"type": "t_array(t_address_payable)dyn_storage"
					}
				],
				"types": {
					"t_address": {
						"encoding": "inplace",
						"label": "address",
						"numberOfBytes": "20"
					},
					"t_address_payable": {
						"encoding": "inplace",
						"label": "address payable",
						"numberOfBytes": "20"
					},
					"t_array(t_address_payable)dyn_storage": {
						"base": "t_address_payable",
						"encoding": "dynamic_array",
						"label": "address payable[]",
						"numberOfBytes": "32"
					}
				}
			},
			"userdoc": {
				"kind": "user",
				"methods": {},
				"version": 1
			}
		}
	}
}